:100000000C946B000C945F1E0C948C1E0C9493004B
:100010000C9493000C9493000C9493000C94930014
:100020000C9493000C9493000C9493000C94930004
:100030000C9493000C94AF120C9493000C949300C6
:100040000C94B91E0C9493000C942D1A0C947B1AEA
:100050000C9493000C9493000C9493000C949300D4
:100060000C9493000C94930020557365206F6E657B
:10007000206F66200000000000240027002A0000F6
:10008000000000250028002B0000000000230026AF
:10009000002900040404040404040402020202020D
:1000A000020303030303030102040810204080013C
:1000B00002040810200102040810200000000700BC
:1000C0000201000003040600000000000000000020
:1000D0003E13E71B371311241FBECFEFD8E0DEBF5E
:1000E000CDBF12E0A0E0B1E0EAE2FBE402C005907F
:1000F0000D92AA33B107D9F714E0AAE3B2E001C028
:100100001D92A03FB107E1F710E0C4EDD0E004C0BC
:100110002297FE010E944D25C03DD107C9F70E94DC
:100120003D1C0C9488250C940000CF93DF93BC01F8
:100130008230910510F462E070E0A091EE04B0917D
:10014000EF04ED01E0E0F0E040E050E021C0888104
:1001500099818617970769F48A819B81309719F0F6
:100160009383828304C09093EF048093EE04FE0196
:1001700034C06817790738F44115510519F0841710
:10018000950708F4AC01FE018A819B819C01E9017D
:100190002097E9F641155105A9F1CA01861B970B75
:1001A000049708F4BA01E0E0F0E02AC08D919C9138
:1001B000119784179507F9F46417750781F412965F
:1001C0008D919C911397309719F09383828304C08B
:1001D0009093EF048093EE04FD0132964CC0CA0167
:1001E000861B970BFD01E80FF91F6193719302972E
:1001F0008D939C9340C0FD01828193819C01D90124
:100200001097A1F68091EC049091ED04892B41F4B4
:100210008091FF01909100029093ED048093EC0493
:1002200040910102509102024115510541F44DB730
:100230005EB78091FD019091FE01481B590B209102
:10024000EC043091ED04CA01821B930B86179707CB
:1002500080F0AB014E5F5F4F8417950750F0420F5F
:10026000531F5093ED044093EC04F9016193719393
:1002700002C0E0E0F0E0CF01DF91CF910895CF938D
:10028000DF93009709F450C0EC0122971B821A8279
:10029000A091EE04B091EF04109709F140E050E016
:1002A000AC17BD0708F1BB83AA83FE0121913191F0
:1002B000E20FF31FAE17BF0779F48D919C91119750
:1002C000280F391F2E5F3F4F3983288312968D9157
:1002D0009C9113979B838A834115510571F4D093A8
:1002E000EF04C093EE0420C012968D919C91139759
:1002F000AD01009711F0DC01D3CFFA01D383C283A3
:1003000021913191E20FF31FCE17DF0769F4888145
:100310009981280F391F2E5F3F4FFA0131832083C7
:100320008A819B8193838283DF91CF910895A0E09E
:10033000B0E0EDE9F1E00C9453256C01009729F44D
:10034000CB010E9495006C01C1C08EEF882E8FEF0B
:10035000982E8C0C9D1C8601060F171F0815190579
:1003600008F4B2C0F401A081B181A617B707B8F0B4
:10037000A530B10508F4AAC0CD01049786179707E8
:1003800008F4A4C01297A61BB70BF801A193B19370
:10039000D4016D937C93CF010E943F0197C07B01F4
:1003A000EA1AFB0AEEEFFFEFEE0EFF1E36016A0EB1
:1003B0007B1EC091EE04D091EF0444245524AA245E
:1003C000BB244AC0C615D705E1F5488159814E15B1
:1003D0005F05B8F1CA0104978E159F05B0F4129617
:1003E000A40FB51FF401B183A0832A813B8141147E
:1003F000510431F0D20113963C932E93129766C0AC
:100400003093EF042093EE0461C08A819B81F80150
:1004100093838283425050404E195F095183408339
:100420004114510431F0D20113961C930E9312978C
:1004300004C01093EF040093EE04F4017183608311
:1004400045C088819981A816B90608F45C012E017F
:100450008A819B819C01E901209709F0B3CF8091AB
:10046000EC049091ED0486159705E9F4A616B706FD
:10047000D0F420910102309102022115310541F49E
:100480002DB73EB78091FD019091FE01281B390BDD
:1004900002171307C8F41093ED040093EC04D40181
:1004A0006D937C9313C0CB010E949500EC010097E3
:1004B00059F0F40140815181B6010E94B102C60198
:1004C0000E943F016E0102C0CC24DD24C601CDB7DD
:1004D000DEB7E0E10C946F25FC0188279927E894AA
:1004E00021912032E9F3293010F02E30C8F32B325D
:1004F00041F02D3239F4689404C00E943D03820F0C
:10050000911D219120532A30C0F31EF490958195BE
:100510009F4F08951F93FC0199278827BC01E894F9
:1005200011911032E9F3193010F01E30C8F31B326C
:1005300051F01D3249F4689406C00E942803610FEF
:10054000711D811D911D119110531A30B0F33EF4AD
:1005500090958095709561957F4F8F4F9F4F1F911C
:100560000895FB01DC0102C001900D924150504002
:10057000D8F708956817790768F4FB01DC01E40FE8
:10058000F51FA40FB51F02C002900E9241505040BB
:10059000D8F708950C94B102FC018191861721F0DF
:1005A0008823D9F7992708953197CF010895FB0142
:1005B000DC0101900D920020E1F70895FB01DC01C0
:1005C0004150504048F001900D920020C9F701C001
:1005D0001D9241505040E0F70895FB015191552381
:1005E000A9F0BF01DC014D9145174111E1F759F424
:1005F000CD010190002049F04D9140154111C9F302
:10060000FB014111EFCF81E090E001970895FB01DC
:100610009F01E8944230C4F04532B4F44A3029F4E2
:1006200097FB1EF4909581959F4F642F77270E942A
:100630000225805D8A330CF0895D8193CB010097A0
:10064000A1F716F45DE251931082C9010C94720572
:10065000592F482F372F262F660F771F881F991F76
:10066000660F771F881F991F620F731F841F951FC6
:10067000660F771F881F991F08957AE0979F902D26
:10068000879F802D910D11240895FB019F01423019
:1006900074F0453264F4642F77270E940225805D50
:1006A0008A330CF0895D8193CB010097A1F710820A
:1006B000C9010C947205AEE0B0E0E1E6F3E00C9401
:1006C0005F250D891E8986E08C831A8309838FEF4D
:1006D0009FE79E838D839E01275E3F4FCE0101964B
:1006E0006F89788DA9010E947F032F813885020FC1
:1006F000131FF80110822E96E4E00C947B25ABE0EA
:10070000B0E0E5E8F3E00C9451253C012B015A01DF
:10071000FC0117821682838181FD03C06FEF7FEF9A
:10072000C6C19AE0892E1E010894211C311CF301D8
:100730002381F20123FD859123FF81912F018823DD
:1007400009F4B2C1853239F423FD859123FF8191EB
:100750002F01853229F490E0B3010E948205E7CF92
:10076000982FFF24EE249924FFE1FF15D0F09B324F
:1007700069F09C3228F4903259F0933291F40EC013
:100780009D3249F0903369F441E024C052E0F52AEB
:1007900084E0F82A28C098E0F92A25C0E0E1FE2A82
:1007A00022C0F7FC29C0892F80538A3070F4F6FEEE
:1007B00005C0989C902C1124980E15C0E89CE02C44
:1007C0001124E80EF0E2FF2A0EC09E3229F4F6FC56
:1007D0006BC140E4F42A07C09C3619F450E8F52AAE
:1007E00002C0983649F4F20123FD959123FF9191BF
:1007F0002F01992309F0B8CF892F8554833018F041
:100800008052833038F444E050E0A40EB51E5FE31C
:1008100059830FC0933631F0933779F0933509F04F
:1008200056C020C0F5018081898342E050E0A40ECB
:10083000B51E610101E010E012C0F501C080D18059
:10084000F6FC03C06FEF7FEF02C0692D70E042E05D
:1008500050E0A40EB51EC6010E9467058C015FE73B
:10086000F52214C0F501C080D180F6FC03C06FEF03
:100870007FEF02C0692D70E042E050E0A40EB51E8B
:10088000C6010E945C058C0150E8F52AF3FE07C002
:100890001AC080E290E0B3010E948205EA948E2D96
:1008A00090E008171907A8F30EC0F601F7FC859130
:1008B000F7FE81916F0190E0B3010E948205E11083
:1008C000EA94015010400115110579F7EAC09436F9
:1008D00011F0993669F5F7FE08C0F50120813181E4
:1008E0004281538184E090E00AC0F50180819181CA
:1008F0009C01442737FD4095542F82E090E0A80EDC
:10090000B91E9FE6F92257FF09C0509540953095D2
:1009100021953F4F4F4F5F4FE0E8FE2ACA01B901D2
:10092000A1012AE030E00E94AE05D82ED21840C0C6
:10093000953729F41F2D1F7E2AE030E01DC01F2DA2
:10094000197F9F3661F0903720F4983509F0ACC0DC
:100950000FC0903739F0983709F0A6C004C028E0DE
:1009600030E00AC0106114FD146020E130E004C0E2
:1009700014FD166020E132E017FF08C0F501608128
:1009800071818281938144E050E008C0F50180814B
:100990009181BC0180E090E042E050E0A40EB51EE1
:1009A000A1010E94AE05D82ED2188FE7F82EF122B1
:1009B000F6FE0BC05EEFF522D91438F4F4FE07C042
:1009C000F2FC05C08FEEF82202C01D2D01C0192DCA
:1009D000F4FE0DC0FE01ED0DF11D8081803319F490
:1009E00099EEF92208C01F5FF2FE05C003C08F2DEB
:1009F000867809F01F5F0F2DF3FC14C0F0FE0FC0C6
:100A00001E1510F09D2C0BC09D2C9E0C911A1E2DB6
:100A100006C080E290E0B3010E9482051F5F1E15B0
:100A2000C0F304C01E1510F4E11A01C0EE2404FF47
:100A30000FC080E390E0B3010E94820502FF1DC059
:100A400001FD03C088E790E00EC088E590E00BC090
:100A5000802F867891F001FF02C08BE201C080E216
:100A6000F7FC8DE290E0B3010E94820506C080E3AE
:100A700090E0B3010E9482059A94D914C0F3DA94ED
:100A8000F101ED0DF11D808190E0B3010E9482051E
:100A9000DD20A9F706C080E290E0B3010E94820544
:100AA000EA94EE20C1F743CEF30166817781CB0152
:100AB0002B96E2E10C946D25FC010590615070408D
:100AC0000110D8F7809590958E0F9F1F0895FC0117
:100AD0006150704001900110D8F7809590958E0F6D
:100AE0009F1F0895DC01FC01672F71917723E1F7C7
:100AF000329704C07C916D9370836291AE17BF07EB
:100B0000C8F308950F931F93CF93DF938C01EB01EC
:100B10008B8181FF1BC082FF0DC02E813F818C81A4
:100B20009D812817390764F4E881F9810193F983DD
:100B3000E88306C0E885F985802F0995892B31F473
:100B40008E819F8101969F838E8302C00FEF1FEFDE
:100B5000C801DF91CF911F910F910895FA01AA2743
:100B6000283051F1203181F1E8946F936E7F6E5FF0
:100B70007F4F8F4F9F4FAF4FB1E03ED0B4E03CD09E
:100B8000670F781F891F9A1FA11D680F791F8A1F81
:100B9000911DA11D6A0F711D811D911DA11D20D0E8
:100BA00009F468943F912AE0269F11243019305DA2
:100BB0003193DEF6CF010895462F4770405D419393
:100BC000B3E00FD0C9F7F6CF462F4F70405D4A33E0
:100BD00018F0495D31FD4052419302D0A9F7EACFA8
:100BE000B4E0A6959795879577956795BA95C9F7D7
:100BF00000976105710508959B01AC010A2E0694CA
:100C00005795479537952795BA95C9F7620F731F82
:100C1000841F951FA01D0895DC0195961C92959741
:100C200014961C921E9213978FEF12968C93129724
:100C300090E005C0FD01E90FF11D178E9F5F9496AE
:100C40008C9194979817B0F35F961C925F9790964B
:100C50001C92909787E093968C9393971E961C9284
:100C60001E921D9754961C921E92539756961C9254
:100C70001E92559758961C921E9257975A961C9200
:100C80001E9259975C961C921E925B975E961C92E0
:100C90001E925D970895CF93DF93DC0182E292E08C
:100CA00011969C938E93CD0105961A969C938E93E4
:100CB0001997CD0107961C969C938E931B9794963B
:100CC0001C92949781E091968C93919792961C92A6
:100CD000929790E005C0FD01E90FF11D178E9F5F0F
:100CE00094968C9194979817B0F35F961C925F97A7
:100CF00090961C92909787E093968C93939747E0F9
:100D0000E7E0F0E061E070E00FC0CB0102C0880FC7
:100D1000991F2A95E2F79C0192968C919297822BCB
:100D200092968C9392974150242F30E091968C911B
:100D30009197EF01C81BD109C217D30734F39696D8
:100D40001C92969718961C921E92179716961C92B4
:100D50001E921597CD010E940C06DF91CF91089548
:100D6000FC0116A2A185B2850384F485E02D2081C3
:100D700031818D919C911197918380832D933C9328
:100D8000DB018D919C91918380830895089508954E
:100D90000895CF93DF93EC010E940C06C75EDE4FEF
:100DA0001882C951D1401DA218A61C821B828FEF48
:100DB0008FA38A83FE01DE01A45EBE4F80E0148A09
:100DC000138A1D928F5F32968630C9F71EA286E97C
:100DD00090E09E878D878AE999E9A9E9BEE38F872C
:100DE000988BA98BBA8BCE5DDE4F1882289719920B
:100DF000188228961882DF91CF9108950F931F9340
:100E00008C010E944B0686E192E0F8019183808379
:100E10001682158210861782C801059692878187EF
:100E2000C8010796948783878FEF87A3C8010E9424
:100E3000C9061F910F910895FC0183819481089543
:100E40002F923F924F925F926F927F929F92AF92BA
:100E5000BF92CF92DF92EF92FF920F931F93DF9397
:100E6000CF9300D000D0CDB7DEB79C838B83DC015D
:100E700013968D919C911497019709F0A3C09596B4
:100E80002C9195972150822F992787FD9095845E0C
:100E90009E4F5D01A80EB91E8C5191408C01000F30
:100EA000111F0D5E1F4F0A0F1B1F922ECC24DD2435
:100EB0009A83898379E1272E71E0372E2A0E3B1E13
:100EC00069E2462E512C4A0E5B1E7AC069807A80F8
:100ED0006C0C7D1CF80120813181121613060CF474
:100EE00066C0EE24FF24E21AF30AF9E6EF16F2E4F4
:100EF000FF06ACF0AB81BC811296EC911297FF27F4
:100F0000E7FDF095EE0FFF1FEA0FFB1F6389748961
:100F1000C7010E941625683271050CF048C0EB81AC
:100F2000FC818281682F772767FD7095FB01EE0FAA
:100F3000FF1F4B815C81E40FF51F438954892427EF
:100F4000352737FF34C0CA0123E0880F991F2A953F
:100F5000E1F7841B950BE816F9064CF1D5018C914D
:100F6000873028F5F1014081F20130E00CC0818129
:100F700090E08615970529F4808190E08617970701
:100F800021F03F5F3196341790F3341781F0AB8135
:100F9000BC8197969C92979782E090E014969C93E0
:100FA0008E931397AE5DBE4F3C9381E010C09A9430
:100FB0000894A108B1080894C108D1080250104053
:100FC00097FE84CF8FEFEB81FC8187A380E00F90A9
:100FD0000F900F900F90CF91DF911F910F91FF9085
:100FE000EF90DF90CF90BF90AF909F907F906F90E9
:100FF0005F904F903F902F9008956F927F928F92C5
:101000009F92AF92BF92CF92DF92EF92FF920F9397
:101010001F93CF93DF93EC018FEF8A838DA0AA24D7
:10102000AA94BA2C992409E1602E01E0702E6C0E6E
:101030007D1E74C08FEFA8168FEFB80689F5C92CF6
:10104000DD24F601EE0FFF1FEC0FFD1F838994894D
:1010500097FD26C0FE01EC0DFD1DE45EFE4F608194
:1010600070E0882777FD8095982F0E94CC237B0124
:101070008C01F301608170E0882777FD8095982FBF
:101080000E94CC232BE734E14EE25EE30E948024F1
:101090009B01AC01C801B7010E947C241816E4F141
:1010A000C92CDD24F601EE0FFF1FEC0FFD1F238975
:1010B000348937FD30C0F501EE0FFF1FEC0FFD1F27
:1010C000838994892817390734F5FE01EC0DFD1D3D
:1010D000E45EFE4F608170E0882777FD8095982F51
:1010E0000E94CC237B018C01F301608170E0882792
:1010F00077FD8095982F0E94CC232BE734E14EE2B8
:101100005EE30E9480249B01AC01C801B7010E94EC
:101110007C2418160CF0650193945601981408F479
:1011200089CFFFEFAF16FFEFBF0611F480E006C0D6
:10113000AA8281E090E09C838B8381E0DF91CF9154
:101140001F910F91FF90EF90DF90CF90BF90AF90E5
:101150009F908F907F906F900895DC01A45EBE4FAA
:101160001D921D921D921D921D921C92A152B14082
:10117000442399F4A75EBE4F4C91A951B1400DC0D4
:10118000FD01E60FF11D81A5FD01E80FF11DE45EF3
:10119000FE4F80818F5F80836F5F641788F30895AF
:1011A0002F923F924F925F926F927F928F929F9277
:1011B000AF92BF92CF92DF92EF92FF920F931F9365
:1011C000DF93CF9300D00F92CDB7DEB76C0160E014
:1011D00040E00E94AD08442479E1272E71E0372ECB
:1011E0002C0C3D1CC1C0242D2F5F2983522E842D31
:1011F00090E04C01880C991C8C0C9D1C43E150E044
:10120000840E951E3601680E791E8CE191E0680E01
:10121000791EA4C0A52CBB24F501EE0FFF1FEC0D19
:10122000FD1D238934893B832A8337FF03C0309512
:1012300021953F4FB901882777FD8095982F0E940F
:10124000CC23F60127853089418952890E94802468
:101250007B018C01F401808191812A813B81281BD3
:10126000390B3B832A8337FF05C0309521953F4FCB
:101270003B832A83C801B70120E030E040E05FE310
:101280000E9480249B01AC01C801B7010E94352354
:101290000E9499234A815B81641775070CF45DC035
:1012A00090E008C0F601E90FF11D81A5851509F44C
:1012B00041A69F5FF10180819817A0F3F30180811F
:1012C000082F10E0F601EA0DFB1DE45EFE4F808161
:1012D000282F30E0C901800F911FF501EE0FFF1F8D
:1012E000892B29F5EC0DFD1D83899489AC01249F80
:1012F000C001259F900D349F900D112460E070E097
:101300000E9416259B01F40180819181AC01049F0C
:10131000C001059F900D149F900D112460E070E0B6
:101320000E941625260F371F318320830FC0EC0D36
:10133000FD1D83899489F40120813181820F931FDF
:1013400062E070E00E94162571836083AA0CBB1CCA
:10135000AC0CBD1CF501148A138A5394F60185A1C7
:10136000581608F457CF4980F60185A1481608F4AD
:101370003ACF0F900F900F90CF91DF911F910F9167
:10138000FF90EF90DF90CF90BF90AF909F908F90A5
:101390007F906F905F904F903F902F900895CF93E4
:1013A000DF93EC010E94D008CE0160E040E00E9493
:1013B000AD08C75EDE4F8881C951D140883230F018
:1013C000CE010E94FD07CE010E942007DF91CF9140
:1013D00008950E94C9060895DC01ED91FC910190E9
:1013E000F081E02D09950895DC018FEF96968C939E
:1013F000969797968C93979798968C93989799969B
:101400008C93999784E19C968C939C9790E005C06F
:10141000FD01E90FF11D10829F5F93968C919397C8
:101420009817B0F35E961C925E975F961C925F973A
:1014300087E092968C9308958F929F92AF92BF927D
:10144000CF92DF92EF92FF920F931F93CF93DF9390
:101450006C01DC019496ED91FC91959785A1843007
:1014600008F4E2C0E75EFE4F608170E0882777FDF8
:101470008095982F0E94CC232AE037ED43E25DE36C
:101480000E9480240E949E23762FAA24AA94BA2C1C
:101490008824992460E030E079C0A32FB0E0FE01F9
:1014A000EA0FFB1FE45EFE4FE080E71608F46DC014
:1014B000AA0FBB1FAC0FBD1F53964D915C91549763
:1014C00014161506A4F5F60127A12F3F69F0822F07
:1014D000992787FD9095880F991FC80FD91F8B8971
:1014E0009C89841795070CF4232FD60197962C938B
:1014F000979799962C9199972F3F89F09496ED9113
:10150000FC919597822F992787FD9095880F991FB9
:10151000E80FF91F83899489481759070CF4232F82
:101520006E0D8394A40EB51EF60121A72EC0D60120
:1015300096962C912F3F69F0822F992787FD9095E1
:10154000880F991FC80FD91F8B899C894817590785
:101550000CF4232FF60126A320A52F3F81F004A031
:10156000F5A1E02D822F992787FD9095880F991F6F
:10157000E80FF91F83899489841795070CF4232FAA
:101580006E199394D60198962C933F5FF601C4A1EF
:10159000D5A18DA1381708F480CF70E0882777FD9A
:1015A0008095982F0E94CC237B018C01C75EDE4F73
:1015B000688170E0882777FD8095982F0E94CC2362
:1015C0002AE037ED43EA5CE30E9480249B01AC01F2
:1015D000C801B7010E947C24181634F1981421F533
:1015E000C50163E070E00E941625D6019B967C93AE
:1015F0006E939A9796969C9196979F3FA9F098968E
:101600008C9198978F3F81F0981771F097962C9155
:1016100097972F3F49F099969C919F3F29F080E042
:10162000291719F081E001C080E0DF91CF911F916F
:101630000F91FF90EF90DF90CF90BF90AF909F9071
:101640008F900895DC015E964C915E9793968C91F5
:101650009397481798F5FD01E40FF11D862F992700
:1016600087FD909592963C919297032E02C0880F29
:10167000991F0A94E2F72081282B20835F968C9192
:101680005F978F5F5F968C935F9790962C91909762
:10169000832F90E0821B910997FD04C0321B929624
:1016A0003C93089587E092968C939297842F8F5F56
:1016B0005E968C935E97A80FB11D1C9208958F9231
:1016C0009F92AF92BF92CF92DF92FF920F931F93A0
:1016D000DF93CF9300D00F92CDB7DEB78C016B01B3
:1016E000DE011196E9E0F1E083E001900D92815076
:1016F000E1F7D8015E966C9183E0689FB0011124F8
:10170000C6010E942A21C114D104C1F1FF245E0147
:101710000894A11CB11C24E0822E21E0922E29C045
:10172000F80183A1F81610F08FEF04C0F801EF0D57
:10173000F11D808100D000D000D0EDB7FEB731960A
:10174000ADB7BEB71296BC92AE92119793828282C9
:10175000848315820E945B03EDB7FEB736960FB601
:10176000F894FEBF0FBEEDBFC601B5010E94E32194
:10177000F394D8015E968C918F1590F60F900F9090
:101780000F90CF91DF911F910F91FF90DF90CF903D
:10179000BF90AF909F908F9008959F92AF92BF920D
:1017A000CF92DF92EF92FF920F931F93CF93DF932D
:1017B000EC01ECA1FDA1E65EFE4F1082389610828E
:1017C000B82ECD2E00E0FF2410E0AA24A39457E009
:1017D000952EF4C0002309F5FD01E10FF11D81A54F
:1017E000282F30E08EA1992787FD9095281739077B
:1017F00089F08FA1992787FD90952817390709F05F
:101800001FC108C089A5992787FD9095281739071A
:1018100009F0D3C0AE5DBE4F1C93FF20C1F5ACA153
:10182000BDA18EA1482F552747FD50959D01275EEC
:101830003E4FFD01E10FF11D81A5682F70E0641797
:10184000750759F08FA1992787FD9095681779073B
:1018500009F0FFC002C01F5FECCF912FA75EBE4F03
:101860008C91A951B140181710F001E0A6C0660F85
:10187000771F6A0F7B1FFB016489AE5DBE4F1C9111
:10188000911B09F4ECC090FFEAC01F5FE8C0ACA157
:10189000BDA1412F50E0FD01E40FF51F81A5682F88
:1018A00070E08EA1992787FD90956817790741F020
:1018B0008FA1992787FD90956817790709F0D4C003
:1018C000DA2425C089A5992787FD9095681779079F
:1018D00009F0D4C0A75EBE4F8C91A951B14090E0F1
:1018E0000197481759070CF0C9C0FD01E40FF51F17
:1018F00082A5282F30E02E153F0541F089A59927B4
:1019000087FD90952817390709F0B8C01F5F01E0DF
:10191000FF24F3944DC06E157F0539F089A59927F2
:1019200087FD909568177907E9F4A75EBE4F8C9103
:10193000A951B14090E00197481759079CF44A0F0C
:101940005B1FFA0182A5282F30E02E153F0551F0CC
:1019500089A5992787FD90952817390719F0AE5D5D
:10196000BE4F1C9190E005C0FE01E90FF11D1082F1
:101970009F5F8BA19817C0F31E8E1F8E9AA200E066
:10198000FF2416C0AD5DBE4F1C93ECA1FDA1DF018D
:10199000A75EBE4FED5DFE4F8C919081891B8C93AD
:1019A000ECA1FDA1ED5DFE4F6081E352F1401FC04F
:1019B0008B2D9C2D6D2D0E94220B1F5FACA1BDA114
:1019C000FD01E75EFE4F8081181708F403CF18175A
:1019D00021F5AE5DBE4F8C918230F8F0181B10835C
:1019E000ECA1FDA1EE5DFE4F6081E252F14070E09E
:1019F000675D7F4F6E0F7F1FE75EFE4F408150E0B7
:101A00004F5F5F4FCF01805F90400E94BA02ECA110
:101A1000FDA1E65EFE4F81E0808320E09F8D8CA5D6
:101A2000981708F021E0822FDF91CF911F910F913D
:101A3000FF90EF90DF90CF90BF90AF909F90089570
:101A400088A5992787FD90952817390709F0DACEE0
:101A5000E1CEF9018081181708F0FFCEFCCED62E1A
:101A6000DD1CDD24DD1C13CF88A5E82EFF24E7FC58
:101A7000F0946E157F0509F025CF2CCF9F8D8CA596
:101A8000981708F448CF7ECF0F931F93CF93DF931F
:101A9000EC01C75EDE4F8881C951D14090E08F3E96
:101AA00091056CF0C55EDE4F81E08883CB51D1405B
:101AB000E881F9810680F781E02DCE01099518A60D
:101AC000E985FA8520813181EB85FC850190F081E3
:101AD000E02DC75EDE4F4881C951D14090913A0256
:101AE0008DA1891708F49DA3C75EDE4F8881C95177
:101AF000D1408823A9F010E080E090E0E227F327AE
:101B0000F7FF02C081E090E020E030E04F3E11F0AE
:101B100021E030E082239323892B31F011E004C0CF
:101B20001DA210923A0210E0E985FA850190F08139
:101B3000E02D4DA1DE0100E016C053968D919C91E1
:101B400054979F01281B390B37FF03C0309521950F
:101B50003F4F12968D859E85821793071CF007FFD5
:101B600005C033C00F5F041740F32FC0C75EDE4FC0
:101B70008881C951D140FE01E80FF11D01A78230D3
:101B800030F080A5801719F4CE010E94C906E02F1D
:101B9000FF27E7FDF095EE0FFF1FEC0FFD1FA98556
:101BA000BA85838994892D913C91820F931F62E0BD
:101BB00070E00E941625748B638BFE01E75EFE4F7A
:101BC00080818F5F808300E016C0CE0160E040E03E
:101BD0000E94AD088DA1863069F480913A02FE0121
:101BE000E80FF11DE45EFE4F8081823018F010E0B6
:101BF00000E003C001E01123E1F4C75EDE4F8881FD
:101C0000C951D140883260F081E08EA3E881F9812A
:101C10000680F781E02DCE01099510923A026EC040
:101C2000112339F4CE010E94C9061EA210923A0275
:101C30000BC0C75EDE4F8881C951D140883220F089
:101C400083E090E09C838B83002309F457C0C75E38
:101C5000DE4F4881C951D14050913A02842F90E023
:101C60008896FE01E80FF91F20E030E0DC0199972B
:101C70001EC080812F5F3F4F31978517C1F46F5F82
:101C80007F4F461B8E01075E1E4FF8014083675D44
:101C90007F4F6C0F7D1F50E04F5F5F4FCE018996E5
:101CA0000E94BA02F80180818F5F808307C0BD0166
:101CB000621B730B8FEF6F3F7807D9F620913A02C2
:101CC000E22FF0E0EE0FFF1FEC0FFD1FA985BA8594
:101CD0008D919C91948B838BDE01A75EBE4F8C917E
:101CE000FE01E80FF11D21A78F5F8C932F5F2093DA
:101CF0003A02263019F410923A022DA3DF91CF91C7
:101D00001F910F9108950F931F93CF93DF938C0131
:101D1000DC0196961C92969719960D90BC91A02D79
:101D2000EC01EB85FC85208131818D919C9111978F
:101D3000918380832D933C93DB018D919C919183C2
:101D40008083C8010E94440D8EA1DF91CF911F9125
:101D50000F9108950F931F93CF93DF938C01EB01A5
:101D6000CB0167E070E00E942A21209779F0CE0134
:101D70006EE071E00E94E321F80162A573A5CE0137
:101D80000E947321CE016BE30E94D021DF91CF919D
:101D90001F910F9108950F931F93CF93DF938C01A1
:101DA000EB01CB0160E270E00E942A21209709F448
:101DB00070C0CE0161E171E00E94E321D8019496E8
:101DC000ED91FC91959796968C91992787FD90952A
:101DD000880F991FE80FF91F63897489CE010E944B
:101DE0007321CE016BE30E94D021CE0165E171E049
:101DF0000E94E321D8019496ED91FC9195979796D6
:101E00008C91992787FD9095880F991FE80FF91FEE
:101E100063897489CE010E947321CE016BE30E9415
:101E2000D021CE0169E171E00E94E321D8019496AE
:101E3000ED91FC91959798968C91992787FD9095B7
:101E4000880F991FE80FF91F63897489CE010E94DA
:101E50007321CE016BE30E94D021CE016DE171E0D0
:101E60000E94E321D8019496ED91FC919597999663
:101E70008C91992787FD9095880F991FE80FF91F7E
:101E800063897489CE010E947321CE016BE30E94A5
:101E9000D021DF91CF911F910F910895CF92DF92C2
:101EA000EF92FF920F931F937A0169010DEB14E0FB
:101EB000C8010E94E21DC801B7010E94E21DC801CD
:101EC000B6010E94E21D1F910F91FF90EF90DF90ED
:101ED000CF900895BF92CF92DF92EF92FF920F932F
:101EE0001F93CF93DF936C01F62EB42EE8018DEB98
:101EF00094E0B9010E94E21DEE2417C086010F0D87
:101F0000111D8DEB94E0F80161A54AE050E00E94BC
:101F10005E1DF80181A5E82688E09CE8E0FAE694D9
:101F20000EF4E9268A95D1F7F394BF1438F78DEBB8
:101F300094E0BE010E94E21D8E2DDF91CF911F9192
:101F40000F91FF90EF90DF90CF90BF9008956F9228
:101F50007F928F929F92AF92BF92CF92DF92EF9239
:101F6000FF920F931F93DF93CF93CDB7DEB7E49724
:101F70000FB6F894DEBF0FBECDBF7C018C01075EAB
:101F80001E4FD8018C91883208F4D4C27E2C6F2C5D
:101F9000C7010E94CF09E6E2F1E0EE0EFF1ED70175
:101FA0008C91EAEDFEEFEE0EFF1E882309F447C187
:101FB000D70113968D919C911497029709F03FC118
:101FC000AD5DBE4FE2E2F1E0EE0EFF1EF701808153
:101FD0002EED3EEFE20EF31E8E5F8C93BD01FB01F2
:101FE00040816701C40ED11CF60121A530E0F70144
:101FF0008281992787FD90952817390781F4F6018A
:1020000022A530E0F70187A1992787FD9095281731
:10201000390729F441504C93BB24B39409C0942F41
:102020009E5FFB019083F80180819817C0F2BB246A
:1020300029E131E0E20EF31ED7019C91E7EEFEEFBD
:10204000EE0EFF1EF701ED5DFE4F8081981708F43C
:10205000908387010E5D1E4FB3E2CB2EB1E0DB2EE5
:10206000CE0CDF1C872D962DD8016C91F601408196
:102070000E94AD08BB2051F0D6018C9190E0F80190
:102080002081821B9109889744F4D4C0F701E75E50
:10209000FE4F4081403F08F0A8C0A7E2AA2EA1E071
:1020A000BA2EAE0CBF1CC50160E071E00E94482250
:1020B000FEE2CF2EF1E0DF2ECE0CDF1CC60160E089
:1020C00071E00E944822C50162E00E94D021C50152
:1020D00061E271E00E94E321C5016BE30E94D0211F
:1020E000992428C0092D10E0F701E00FF11FE45EEC
:1020F000FE4F80818823E9F0C50160E50E94D02170
:10210000C501692D0E94A421C50164E271E00E940D
:10211000E321000F111F0E0D1F1DD80153966D9165
:102120007C915497C5010E947321C5016BE30E9405
:10213000D0219394F70185A19816A0F2C50166E21B
:1021400071E00E94E321C6016BE30E94D021C60129
:1021500069E271E00E94E321D70112966C91772722
:1021600067FD7095C6010E947321C6016BE30E9452
:10217000D021C6016DE271E00E94E321F70167A161
:10218000772767FD7095C6010E947321C6016BE336
:102190000E94D0212BE131E0E20EF31ED7018C9199
:1021A000E5EEFEEFEE0EFF1E882349F0C60161E367
:1021B00071E00E94E321C6016BE30E94D021C601B9
:1021C00063E00E94D021C6016AE00E94D021F7019D
:1021D000EE5DFE4FD701AD5DBE4FC70160814C91F2
:1021E000950186010E946A0F84C1D8012C9122308A
:1021F00008F1D6018C9190E08F3E9105DCF0421BF6
:102200004083622F70E0675D7F4F6E0D7F1D50E051
:102210004F5F5F4FC70189960E94BA02EAE1F1E081
:10222000EE0EFF1E81E0D7018C93E6EEFEEFEE0E80
:10223000FF1E66C1872D962D0E94C90661C124E24A
:1022400031E0E20EF31ED7018C91ECEDFEEFEE0EC5
:10225000FF1E882369F425E231E0E20EF31ED70168
:102260008C91EBEDFEEFEE0EFF1E882309F446C1C4
:10227000D70113968D919C911497019709F03EC157
:10228000E9E1F1E0EE0EFF1ED7018C91E7EEFEEFE3
:10229000EE0EFF1E883208F431C177E2A72E71E0FE
:1022A000B72EAE0CBF1CC50160E071E00E94482251
:1022B0006EE2C62E61E0D62ECE0CDF1CC60160E0B9
:1022C00071E00E944822C50162E00E94D0218EE1A7
:1022D0008BA781E088A790E09E01285F3F4F05C053
:1022E000F901E90FF11D10829F5F8BA59817C0F3CC
:1022F0001EA21FA287E08AA788A527E030E0281B3E
:10230000310957E040E061E070E008C0DB0102C045
:10231000AA0FBB1F8A95E2F74A2B5150852F90E0F8
:10232000281739079CF349A7FDA6ECA658E0852E8F
:10233000912C8C0E9D1EC4010E94F409C4010E94C0
:10234000F40981E18CABE5E2F1E0EE0EFF1ED7016E
:102350008C91EBEDFEEFEE0EFF1E882309F4DDC03D
:10236000C4010E941C0A882309F4D7C0C4010E943A
:10237000CD0B882309F4D1C08E010F5F1F4FC80118
:1023800060E071E00E942E22C80166E271E00E94C6
:102390004822C401B8010E945F0BC50163E371E0EC
:1023A0000E94E321C5016BE30E94D021C401B50165
:1023B0000E94CB0EC6016BE30E94D021C401B6017E
:1023C0000E94AA0EC60163E00E94D021C6016AE005
:1023D0000E94D021C701B501A80196010E944E0FAD
:1023E000C8010E942E2385C0C50166E371E00E94EA
:1023F000E321C5016BE30E94D021992429C0092D56
:1024000010E0F701E00FF11FE45EFE4F80818823AA
:10241000F1F0C50169E371E00E94E321C501692D76
:102420000E94A421C50164E271E00E94E321000F33
:10243000111F0E0D1F1DD80153966D917C9154975D
:10244000C5010E947321C5016BE30E94D0219394C2
:10245000F70185A1981698F2C50166E271E00E9425
:10246000E321C6016BE30E94D021C60169E271E05D
:102470000E94E321D70112966C91772767FD709532
:10248000C6010E947321C6016BE30E94D021EBE1DB
:10249000F1E0EE0EFF1ED7018C91E5EEFEEFEE0EA1
:1024A000FF1E882349F0C60161E371E00E94E32129
:1024B000C6016BE30E94D021C60163E00E94D021D7
:1024C000C6016AE00E94D021C70160E029E131E045
:1024D000E20EF31ED7014C91950186010E946A0F0E
:1024E0000894E11CF11CF701108226EE3EEFE20E8B
:1024F000F31E81E0D70196968C9302C0F70116A2D5
:102500002AE131E0E20EF31ED7018C91882391F489
:10251000872D962D0E94C9060DC0E4E2F1E0EE0E73
:10252000FF1ED7018C91ECEDFEEFEE0EFF1E88230F
:1025300001F35ACFE4960FB6F894DEBF0FBECDBFBD
:10254000CF91DF911F910F91FF90EF90DF90CF908F
:10255000BF90AF909F908F907F906F9008951F9243
:102560000F920FB60F9211242F933F934F935F93C7
:102570006F937F938F939F93AF93BF93EF93FF934B
:10258000E0913E02F0913F020995FF91EF91BF91DA
:10259000AF919F918F917F916F915F914F913F91FB
:1025A0002F910F900FBE0F901F90189581309105BD
:1025B00009F045C06F5F7F4F09F058C080E58093F8
:1025C0004002109241028091410280934302809127
:1025D00043028093420285EE92E06FEA71E00E942E
:1025E0002E228DEE92E00E94FE068AE092E0909309
:1025F000EE028093ED0281E0809311048093120437
:102600008093130484E194E06FEA71E00E942E222B
:102610008BE194E06FEA71E00E942E2284E194E065
:1026200066E470E00E942A218BE194E064E170E0AE
:102630000E942A218DEE92E00E94E9090895892BDB
:10264000A9F46F5F7F4F91F48AE092E09093EE02DD
:102650008093ED028BE194E00E942E2384E194E0CC
:102660000E942E2385EE92E00E942E23089580E0A2
:1026700090E06FEF7FEF0E94D612089581E090E026
:102680006FEF7FEF0E94D6120895CF92DF92EF9204
:10269000FF920F931F938C017B016A0184E394E006
:1026A00060E070E00E941A1A992787FD90959C01BE
:1026B00021703070F801208396958795282F21701E
:1026C000F7012083969587958170F60180831F918D
:1026D0000F91FF90EF90DF90CF900895660F440F19
:1026E000440F682B462B84E394E060E070E00E9486
:1026F000211A0895CF93DF9385EE92E062E070E0B7
:102700000E946F20833519F4C3E1D4E015C085EE33
:1027100092E062E070E00E946F20853519F4C1E11B
:10272000D4E00AC085EE92E062E070E00E946F2083
:10273000833411F4C2E1D4E085EE92E061E070E010
:102740000E946F20853419F481E0888309C085EEEA
:1027500092E061E070E00E946F20843409F41882F6
:102760008091130460911104409112040E946E1331
:10277000DF91CF9108958DEB94E060EB71E00E94C2
:10278000CF1D61E070E080E090E00E94351F089569
:102790000E94011F9B01AC018091220490912304AF
:1027A000A0912404B0912504281739074A075B0734
:1027B00048F4809126049091270401969093270471
:1027C000809326042093220430932304409324040E
:1027D00050932504CA01B90128EE33E040E050E0EF
:1027E0000E942925C90108951F9311E017C08DEBA0
:1027F00094E00E946E1B682F8A3049F08B301CF4E5
:10280000882329F007C08D3011F0833219F410931A
:10281000EC0204C085EE92E00E94D0218DEB94E0A2
:102820000E943D1B892B19F71F9108956091E402C6
:102830008DE00E940C201092E4020895AF92BF92A6
:10284000CF92DF92EF92FF920F931F93DF93CF937C
:10285000CDB7DEB72E970FB6F894DEBF0FBECDBF53
:102860006C015B018E010F5F1F4FC80163EB71E0CC
:102870000E942E22F6014081518185EE92E0B8013E
:102880000E94A2207C01C8010E942E23FFEFEF16B8
:10289000FFEFFF06F9F0F60140815181FFEF4F3F56
:1028A0005F07C1F08E01085F1F4FC80165EE72E03F
:1028B00097010E94C422C501B8010E941723C801D4
:1028C0000E942E230894E11CF11CF601F182E082A3
:1028D00081E001C080E02E960FB6F894DEBF0FBEF7
:1028E000CDBFCF91DF911F910F91FF90EF90DF90BF
:1028F000CF90BF90AF9008958F929F92BF92CF924A
:10290000DF92EF92FF920F931F93CF93DF937C019F
:102910006B018BE061E00E940C20C70164E40E941F
:10292000DE2052E0B52EB80E3AC0C7010E946F20DB
:10293000982F90539A3010F4892F01C0875398E054
:1029400000E010E0882E992487FC9094C92FD0E0F5
:10295000CE01882199218C179D0751F48BE060E00E
:102960000E940C20C6010E945B1F8BE061E009C041
:102970008BE061E00E940C20C6010E945B1F8BE08F
:1029800060E00E940C20C6010E945B1FD595C79590
:102990009C2F0F5F1F4F04301105C1F6B3946B2DB0
:1029A00070E0F701848195816817790708F4BDCF3D
:1029B000DF91CF911F910F91FF90EF90DF90CF901B
:1029C000BF909F908F9008958F929F92BF92CF92C9
:1029D000DF92EF92FF920F931F93DF93CF93CDB7C8
:1029E000DEB727970FB6F894DEBF0FBECDBF7C01D0
:1029F0004B0164E40E94DE2072E0B72EB80E6E0137
:102A00000894C11CD11C37C0C601B701A9012F5FB2
:102A10003F4F0E94C422C6010E949120162FC6017A
:102A20000E942E23012F10E0000F111F080D191D09
:102A300060E0F8018081918197FF61E08BE00E9466
:102A40000C20F8018081918197FF03C090958195BA
:102A50009F4FFFE181349F075CF068EE73E00E94B6
:102A60001625882777FD8095982F0E94351F02C074
:102A70000E945B1FB3942B2D30E0F7018481958178
:102A80002817390708F4C0CF27960FB6F894DEBF91
:102A90000FBECDBFCF91DF911F910F91FF90EF90AF
:102AA000DF90CF90BF909F908F900895EF92FF920C
:102AB0000F931F93082FE62E8BE061E00E940C20FD
:102AC00010E080910402909105029C01029FC001D8
:102AD000039F900D129F900D11240E945B1F8BE0AD
:102AE00060E00E940C20FF24809104029091050276
:102AF0009C01E29EC001E39E900DF29E900D112478
:102B00000E945B1F1F910F91FF90EF90089580E04E
:102B10000E944C1E089580E06EEF78E141E050E0A5
:102B20000E94291E089585EE92E061E070E00E9407
:102B30006F20813511F40E94871585EE92E061E0E7
:102B400070E00E946F20853411F40E948B15089567
:102B50002F923F924F925F926F927F928F929F92AD
:102B6000AF92BF92CF92DF92EF92FF920F931F939B
:102B7000DF93CF93CDB7DEB7E3970FB6F894DEBF00
:102B80000FBECDBF23E0E22EF12CEC0EFD1EC701DF
:102B90006FEA71E00E942E22C7016EE170E00E9490
:102BA0002A211A8219828E010A5D1F4F8CE0F801DA
:102BB00011928A95E9F70E9487154424439455247D
:102BC0009FE1692E712C6C0E7D1E0AAB1BAB88E158
:102BD000882E912C8C0E9D1E1AE0A12EB12CAC0ECD
:102BE000BD1EB1E1CB2ED12CCC0EDD1E9BC0C7018A
:102BF00060E070E00E946F208335E1F4C70161E07E
:102C000070E00E946F20833411F400E08BC0C70194
:102C100061E070E00E946F208D3411F401E082C009
:102C2000C70161E070E00E946F20823509F07AC030
:102C300002E078C0C70160E070E00E946F2080353C
:102C400009F0A3C0C70162E070E00E946F208D33DD
:102C500009F09BC0C501B70141E050E022E030E03F
:102C60000E94C422C5010E949120162FC5010E9416
:102C70002E23C601B70143E050E00E940B23C6019A
:102C80000E949120E12FF0E0EE0FFF1F21E030E0E5
:102C90002C0F3D1FE20FF31F76A365A3C60140C0B2
:102CA000C70161E070E00E946F208D3309F075C0AC
:102CB000C401B70142E050E00E940B23C4010E940E
:102CC0009120462EC4012CC0023031F4C7016AA9FC
:102CD0007BA90E94E41406C0013021F4C701B101B0
:102CE0000E947C148BE060E00E940C201BC0C70196
:102CF00060E070E00E946F208334A1F4C70161E0BE
:102D000070E00E946F208D3369F4C301B70142E087
:102D100050E00E940B23C3010E9491201B01C301BC
:102D20000E942E23CE010196B7010E941E14882313
:102D300009F05DCF83E090E09A8389835394541423
:102D400088F30E948B158DEB94E065EE72E00E9493
:102D5000151EC7010E942E23E3960FB6F894DEBF1E
:102D60000FBECDBFCF91DF911F910F91FF90EF90DC
:102D7000DF90CF90BF90AF909F908F907F906F909B
:102D80005F904F903F902F900895C70160E070E0F2
:102D90000E946F20823509F483CFC70160E070E0A4
:102DA0000E946F20843409F48FCFA1CFEF92FF925D
:102DB0000F931F93CF93DF937C010E94871500E050
:102DC00010E024C081E06FE10E945615E70119C0B0
:102DD000813371F0863449F0803391F481E063E00F
:102DE0000E94561581E063E009C081E063E002C003
:102DF00083E061E00E94561583E061E00E94561571
:102E000021968881882321F70F5F1F4F809103024D
:102E100090E008171907B4F20E948B15DF91CF914B
:102E20001F910F91FF90EF900895EF92FF920F93F3
:102E30001F93DF93CF93CDB7DEB7EA970FB6F89421
:102E4000DEBF0FBECDBF85EE92E061E070E00E9474
:102E50006F20843731F185EE92E061E070E00E94EE
:102E60006F20823729F58E010C5F1F4FC80165EE78
:102E700072E042E050E00E940B23C8017E010894FA
:102E8000E11CF11CB70143E050E020E030E00E947B
:102E9000E320C8010E942E23C7010E946C02809388
:102EA00003028DEB94E065EE72E00E94151E97C060
:102EB00085EE92E061E070E00E946F20833731F58B
:102EC0008DE061E00E940C208E01055F1F4FC8015C
:102ED00065EE72E042E050E00E940B234EE2E42EE9
:102EE000F12CEC0EFD1EC801B7014DE050E020E0D2
:102EF00030E00E94E320C8010E942E23C7010E94F7
:102F0000D6168DE060E00E940C20CBCF85EE92E0DB
:102F100061E070E00E946F208336A9F48E010E5E9E
:102F20001F4FC80165EE72E042E050E00E940B23A3
:102F3000C8010E9491207093050260930402C801A9
:102F40000E942E23AECF85EE92E061E070E00E94F9
:102F50006F20803709F043C039E1E32EF12CEC0EED
:102F6000FD1EC7016FEA71E00E942E22C70164E1D5
:102F700070E00E942A21C70165EB71E00E9448229F
:102F80008E01005E1F4FC801609103024AE00E945B
:102F90009222C701B8010E94F321C8010E942E238A
:102FA000C70160EC71E00E94E3218E01095D1F4FB3
:102FB0006091040270910502C8014AE00E946122FA
:102FC000C701B8010E94F321C8010E942E238DEB96
:102FD00094E0B7010E94151EC7010E942E23EA96B5
:102FE0000FB6F894DEBF0FBECDBFCF91DF911F911A
:102FF0000F91FF90EF900895DF93CF9300D0CDB75E
:10300000DEB785EE92E060E070E00E946F208035D0
:1030100019F40E94BB13EDC085EE92E060E070E011
:103020000E946F208F3309F06AC08DEB94E06FE34C
:103030000E94A71C8DEB94E068E670E00E94841C5F
:103040008DEB94E066E50E94A71C8DEB94E060E2B6
:103050000E94A71C8DEB94E069E60E94A71C8DEBF3
:1030600094E060E20E94A71C8DEB94E062E50E9470
:10307000A71C8DEB94E060E20E94A71C8DEB94E00E
:1030800064E70E94A71C8DEB94E060E20E94A71CFD
:103090008DEB94E068E50E94A71C8DEB94E060E264
:1030A0000E94A71C8DEB94E066E40E94A71C8DEBA8
:1030B00094E060E20E94A71C8DEB94E063E50E941F
:1030C000A71C8DEB94E060E20E94A71C8DEB94E0BE
:1030D00060E50E94A71C8DEB94E060E20E94A71CB3
:1030E0008DEB94E063E40E94A71C8DEB94E060E21A
:1030F0000E94A71C8DEB94E06FEA71E00CC085EE96
:1031000092E060E070E00E946F20863539F48DEB2C
:1031100094E062EC71E00E94CF1D6BC085EE92E0FE
:1031200060E070E00E946F20823571F48091EC04C1
:103130009091ED04009711F480EF94E0BE016F5F71
:103140007F4F681B790B31C085EE92E060E070E044
:103150000E946F20893649F48DEE92E00E941C0790
:10316000892B89F40E94151744C085EE92E060E037
:1031700070E00E946F20833569F48DEE92E00E942A
:103180001C07892B21F081E08093EC0232C00E9461
:10319000A8152FC085EE92E060E070E00E946F20DD
:1031A000843751F40E94C813BC018DEB94E04AE0CF
:1031B00050E00E94B01D1DC085EE92E060E070E01E
:1031C0000E946F20883519F40E94931512C085EE75
:1031D00092E060E070E00E946F20863451F085EE4E
:1031E00092E060E070E00E946F20833411F40E944E
:1031F0007A130F900F90CF91DF910895AF92BF9205
:10320000CF92DF92EF92FF920F931F938091280449
:103210008823A1F488E294E00E944C1C892B71F071
:103220000E940F1F60933004709331048093320426
:103230009093330488E294E00E94561C0E940F1F72
:103240007B018C0182E00E943F20AC018091300420
:1032500090913104A0913204B09133045701680178
:10326000A81AB90ACA0ADB0AD601C501E0923004DD
:10327000F092310400933204109333048A3591059F
:10328000A105B10594F181302DE7920720E0A20756
:1032900020E0B2071CF021E03DE701C09501452B7D
:1032A00019F0309521953F4F809141028035E8F427
:1032B000809141028F5F8093410280914202609130
:1032C000400290E070E00E94022580934202E0916B
:1032D0004202F0E0EE0FFF1FEC5BFD4F31832083D5
:1032E000809142028F5F809342021F910F91FF9065
:1032F000EF90DF90CF90BF90AF900895FF920F9323
:103300001F93DF93CF9300D0CDB7DEB78091EC024F
:103310008823D1F11092EC020E94FC178091EC02FC
:10332000882331F485EE92E06FEA71E00E94482232
:1033300081E08093E40228C0809141028150809313
:103340004102809143026091400290E070E00E944F
:1033500002258093430280914302E82FF0E0EE0FB4
:10336000FF1FEC5BFD4F208131818F5F8093430213
:103370003A8329838DEE92E0B8010E94EC098823FC
:1033800041F0F092E40205C08E010F5F1F4FFF2451
:10339000F39480914102882379F60F900F90CF919A
:1033A000DF911F910F91FF9008958DEB94E040E025
:1033B00051EE60E070E00E94B61A82E060E00E9488
:1033C000A01F8BE061E00E94A01F8DE061E00E94E1
:1033D000A01FE1E8F0E080E180831092800082E0AD
:1033E00080933D0288EA91E690933C0280933B02F1
:1033F000909387008093860082E1808386E194E148
:1034000090933F0280933E0281E080936F0063E1DE
:1034100074E0AB0141505040CB01625070400E94BB
:1034200045130E948B1585EE92E064E170E00E94E6
:103430002A210895F999FECF72BD61BDF89A80B531
:103440000895F999FECF1FBA72BD61BD40BD0FB698
:10345000F894FA9AF99A0FBE08951F920F920FB638
:103460000F9211242F933F934F938F939F93EF933A
:10347000FF938091C00082FD1DC04091C600209145
:103480007504309176042F5F3F4F2F733070809119
:103490007704909178042817390771F0E09175044A
:1034A000F0917604EB5CFB4F4083309376042093DD
:1034B000750402C08091C600FF91EF919F918F919A
:1034C0004F913F912F910F900FBE0F901F90189525
:1034D000E091C904F091CA04E05CFF4F81919191A1
:1034E00020813181821B930B8F739070892B11F097
:1034F0000E94F41308951F920F920FB60F92112499
:103500002F933F938F939F93EF93FF932091B90451
:103510003091BA048091BB049091BC0428173907FC
:1035200031F48091C1008F7D8093C10014C0E0917F
:10353000BB04F091BC04E758FB4F20818091BB0491
:103540009091BC0401968F7390709093BC0480930B
:10355000BB042093C600FF91EF919F918F913F9103
:103560002F910F900FBE0F901F901895AF92BF92A2
:10357000DF92EF92FF920F931F93CF93DF93EC01B3
:103580007A018B01DD24403081EE580780E0680726
:1035900080E0780711F0DD24D39491E0A92EB12CBE
:1035A000EC89FD89DD2069F0C50108A002C0880F03
:1035B000991F0A94E2F7808360E079E08DE390E060
:1035C00005C0108260E874E88EE190E0A8019701E0
:1035D0000E94292521503040404050405695479543
:1035E0003795279580E12030380720F0DD2011F055
:1035F000DD24D6CFE889F9893083EA89FB892083E5
:1036000019A2EE89FF89408121E030E0C9010C8CCC
:1036100002C0880F991F0A94E2F7482B4083EE8975
:10362000FF894081C9010D8C02C0880F991F0A943F
:10363000E2F7482B4083EE89FF894081C9010E8C57
:1036400002C0880F991F0A94E2F7482B4083EE8945
:10365000FF8980810F8C02C0220F331F0A94E2F78A
:10366000209528232083DF91CF911F910F91FF9008
:10367000EF90DF90BF90AF900895DC011C96ED9124
:10368000FC911D97E05CFF4F2191319180819181E8
:10369000281B390B2F733070C9010895DC011C966B
:1036A000ED91FC911D97E05CFF4F20813181E0544A
:1036B000F040DF01AE5BBF4F8D919C9111972817B1
:1036C000390719F42FEF3FEF07C08D919C91E80F58
:1036D000F91F8081282F30E0C9010895DC011C9674
:1036E000ED91FC911D97E05CFF4F20813181E0540A
:1036F000F040DF01AE5BBF4F8D919C911197281771
:10370000390719F42FEF3FEF10C08D919C9111975D
:10371000E80FF91F20818D919C91119701968F736D
:10372000907011969C938E9330E0C9010895DC014E
:1037300091968C919197882339F05496ED91FC9154
:103740005597808186FFF9CF91961C920895CF936B
:10375000DF93EC01EE85FF85E05CFF4F2081318136
:10376000E054F0402F5F3F4F2F733070DF01AE5BAE
:10377000BF4F8D919C91119728173907D1F3E05CC9
:10378000FF4F80819181E054F040E80FF91F608382
:10379000EE85FF85E05CFF4F31832083EE89FF8952
:1037A000208181E090E00F8C02C0880F991F0A945D
:1037B000E2F7282B208381E089A3EC89FD898081B1
:1037C0008064808381E090E0DF91CF910895109232
:1037D000C0041092BF0488EE93E0A0E0B0E08093B4
:1037E000C1049093C204A093C304B093C4048EE2B6
:1037F00092E09093BE048093BD0485E394E090939F
:10380000CA048093C90489E794E09093CC04809320
:10381000CB0485EC90E09093CE048093CD0484ECAF
:1038200090E09093D0048093CF0480EC90E090934C
:10383000D2048093D10481EC90E09093D4048093DF
:10384000D30482EC90E09093D6048093D50486EC68
:1038500090E09093D8048093D70484E08093D904B7
:1038600083E08093DA0487E08093DB0485E0809333
:10387000DC0481E08093DD040895CF93DF930E9400
:10388000651F0E94D519C8E6DAE10E947E192097CB
:10389000E1F30E94681AF9CFFC0120E030E080815A
:1038A000882311F421E030E0C9010895FC0181E092
:1038B00080830895CF92DF92EF92FF920F931F9330
:1038C000CF93DF937C016B018A01C0E0D0E00FC091
:1038D000D6016D916D01D701ED91FC910190F081C0
:1038E000E02DC7010995C80FD91F015010400115DF
:1038F000110571F7CE01DF91CF911F910F91FF90CC
:10390000EF90DF90CF900895EF92FF920F931F9367
:10391000CF93DF937C018B01C0E0D0E0F8010F5F13
:103920001F4F6491662359F0D701ED91FC910190EE
:10393000F081E02DC7010995C80FD91FEFCFCE0147
:10394000DF91CF911F910F91FF90EF900895DC01CF
:10395000ED91FC910190F081E02D09950895EF9291
:10396000FF920F931F938C01DC01ED91FC9101906C
:10397000F081E02D6DE009957C01D801ED91FC917D
:103980000190F081E02DC8016AE009959C012E0D9F
:103990003F1DC9011F910F91FF90EF900895CF93A4
:1039A000DF93EC016115710519F420E030E00FC0E0
:1039B000DB010D900020E9F71197A61BB70BE881FA
:1039C000F9810280F381E02DAD0109959C01C901C7
:1039D000DF91CF9108954F925F927F928F929F9245
:1039E000AF92BF92CF92DF92EF92FF920F931F930D
:1039F000DF93CF93CDB7DEB7A1970FB6F894DEBFB4
:103A00000FBECDBF2C01742ECB01223008F42AE06A
:103A100019A231E2C32ED12CCC0EDD1E822E9924A8
:103A2000AA24BB24672D752FA50194010E94292586
:103A300079018A01C801B701A50194010E94E3241C
:103A4000472D461B0894C108D1084A3014F4405D44
:103A500001C0495CF6014083E114F1040105110540
:103A600021F07E2C5F2DC801DDCFC201B6010E947E
:103A7000CF1CA1960FB6F894DEBF0FBECDBFCF917D
:103A8000DF911F910F91FF90EF90DF90CF90BF904B
:103A9000AF909F908F907F905F904F900895DC0142
:103AA0002115310541F4ED91FC910190F081E02D5B
:103AB000642F099508950E94EB1C0895EF92FF92E0
:103AC0000F931F939A01E62EFF2400E010E0B80147
:103AD000A7010E944F1D1F910F91FF90EF90089535
:103AE000CF92DF92EF92FF920F931F93CF93DF93CA
:103AF000EC016A017B012115310541F4E881F9816E
:103B00000190F081E02D642F09951FC02A30310506
:103B1000D1F477FF17C0E881F9810190F081E02DA1
:103B20006DE209958C0144275527BA014C195D09AE
:103B30006E097F09CE012AE00E94EB1C9801280F34
:103B4000391F04C02AE00E94EB1C9C01C901DF91CF
:103B5000CF911F910F91FF90EF90DF90CF9008953C
:103B6000CF92DF92EF92FF920F931F936C017B0134
:103B70009A010027F7FC0095102FB801A7010E94B9
:103B8000701D8C01C6010E94AF1C080F191FC801CF
:103B90001F910F91FF90EF90DF90CF900895EF92DB
:103BA000FF920F931F937C010E94CF1C8C01C701D1
:103BB0000E94AF1C080F191FC8011F910F91FF90A1
:103BC000EF900895AF92BF92CF92DF92EF92FF9263
:103BD0000F931F93CF93DF935C016B01EE24FF24BF
:103BE000C0E0D0E010C0D501ED91FC9100811181C1
:103BF000C601BE010E948020682FC501F801099509
:103C0000E80EF91E2196F60184819581C817D9071F
:103C100050F3C701DF91CF911F910F91FF90EF906B
:103C2000DF90CF90BF90AF900895EF92FF920F93E7
:103C30001F937C010E94E21D8C01C7010E94AF1CF2
:103C40009C01200F311FC9011F910F91FF90EF9030
:103C50000895823000F5E82FF0E0EE0FFF1FE152EB
:103C6000FB4F71836083882319F08130A1F408C071
:103C7000809169008C7F842B80936900E89A089575
:103C800080916900440F551F440F551F837F842B7B
:103C900080936900E99A0895823080F4882319F0AE
:103CA000813021F402C0E89801C0E998E82FF0E0E3
:103CB000EE0FFF1FE152FB4F1182108208951F92F9
:103CC0000F920FB60F9211242F933F934F935F9350
:103CD0006F937F938F939F93AF93BF93EF93FF93D4
:103CE0008091DF049091E004892B29F0E091DF04BA
:103CF000F091E0040995FF91EF91BF91AF919F91F1
:103D00008F917F916F915F914F913F912F910F9084
:103D10000FBE0F901F9018951F920F920FB60F9223
:103D200011242F933F934F935F936F937F938F93C0
:103D30009F93AF93BF93EF93FF938091E104909192
:103D4000E204892B29F0E091E104F091E204099565
:103D5000FF91EF91BF91AF919F918F917F916F9163
:103D60005F914F913F912F910F900FBE0F901F9039
:103D700018951F920F920FB60F9211242F933F9315
:103D80008F939F93AF93BF938091E7049091E80442
:103D9000A091E904B091EA043091EB040196A11DD1
:103DA000B11D232F2D5F2D3720F02D570196A11D1A
:103DB000B11D2093EB048093E7049093E804A09353
:103DC000E904B093EA048091E3049091E404A091A3
:103DD000E504B091E6040196A11DB11D8093E304B2
:103DE0009093E404A093E504B093E604BF91AF91EF
:103DF0009F918F913F912F910F900FBE0F901F9029
:103E000018958FB7F8942091E7043091E804409119
:103E1000E9045091EA048FBFB901CA0108959FB720
:103E2000F8942091E3043091E4044091E50450912A
:103E3000E60486B5A89B06C08F3F21F02F5F3F4F59
:103E40004F4F5F4F9FBF542F432F322F2227280FF2
:103E5000311D411D511D82E0220F331F441F551F8C
:103E60008A95D1F7B901CA010895EF92FF920F9395
:103E70001F93CF93DF937B018C010E940F1FEB01F7
:103E80000EC00E940F1F6C1B7D0B685E7340C8F351
:103E90000894E108F10801091109C851DC4FE11447
:103EA000F1040105110569F7DF91CF911F910F9181
:103EB000FF90EF900895019739F0880F991F880FB0
:103EC000991F02970197F1F70895789484B582605D
:103ED00084BD84B5816084BD85B5826085BD85B5AE
:103EE000816085BDEEE6F0E0808181608083E1E85D
:103EF000F0E0108280818260808380818160808395
:103F0000E0E8F0E0808181608083E1EBF0E0808197
:103F100084608083E0EBF0E0808181608083EAE769
:103F2000F0E08081846080838081826080838081F2
:103F3000816080838081806880831092C1000895B1
:103F4000CF93DF93482F50E0CA0189559F4FFC0162
:103F500034914D565F4FFA018491882369F190E0C6
:103F6000880F991FFC01EB58FF4FA591B491FC01FC
:103F7000E158FF4FC591D491662351F42FB7F894BF
:103F80008C91932F909589238C93888189230BC0E2
:103F9000623061F42FB7F8948C91932F9095892318
:103FA0008C938881832B88832FBF06C09FB7F8949A
:103FB0008C91832B8C939FBFDF91CF910895833099
:103FC00071F0843028F48130A1F0823021F514C0E2
:103FD0008630B1F08730D1F08430E9F404C08091AC
:103FE00080008F7703C0809180008F7D8093800058
:103FF000089584B58F7702C084B58F7D84BD089500
:104000008091B0008F778093B00008958091B000C8
:104010008F7D8093B0000895FF920F931F93F62E2B
:10402000482F50E0CA0185549F4FFC012491CA01DA
:1040300089559F4FFC0114914D565F4FFA01049131
:104040000023C9F0222319F0822F0E94DF1FE02FE6
:10405000F0E0EE0FFF1FE158FF4FA591B4919FB71D
:10406000F894FF2021F48C911095812302C08C914B
:10407000812B8C939FBF1F910F91FF9008950F93F9
:104080001F93482F50E0CA0185549F4FFC01249193
:10409000CA0189559F4FFC0104914D565F4FFA01AB
:1040A0001491112319F420E030E015C0222319F0F7
:1040B000822F0E94DF1F812F90E0880F991F875762
:1040C0009F4FFC01A591B4918C9120E030E08023BA
:1040D00011F021E030E0C9011F910F910895FC011A
:1040E000848195816817790748F40190F081E02D6B
:1040F000309721F0E60FF71F8081089580E0089542
:10410000FC01848195816817790748F40190F0815A
:10411000E02D309721F0E60FF71F8081089580E0B1
:104120000895FC0180819181009729F420E030E01E
:1041300040E050E004C00E948A029B01AC01B9013A
:10414000CA010895CF93DF93FC01DB01848195813F
:104150004817590760F4C081D1816D917C91CE01DF
:10416000840F951F0E94ED029C01009719F42FEF18
:104170003FEF02C02C1B3D0BC901DF91CF91089589
:10418000CF93DF93FC01848195814817590768F428
:10419000C081D181772767FD7095CE01840F951F6F
:1041A0000E94CC029C01009719F42FEF3FEF02C050
:1041B0002C1B3D0BC901DF91CF91089540E050E0E9
:1041C0000E94C02008950F931F93CF93DF93FC01AB
:1041D0008B0141155105F9F061157105E1F08481FC
:1041E00095812817390718F0FB01108214C041503F
:1041F0005040EC01C21BD30B4C175D0708F4EA01D9
:1042000060817181620F731FC801AE010E94DE02DE
:10421000C00FD11F1882DF91CF911F910F91089588
:104220000F931F93CF93DF93EC018B016F5F7F4F51
:10423000888199810E949701009711F480E005C060
:10424000998388831B830A8381E0DF91CF911F913B
:104250000F910895CF93DF93EC0188819981892B89
:1042600029F08A819B818617970760F4CE010E940E
:104270001021882341F08C819D81892B19F4E881DC
:10428000F981108281E0DF91CF910895EF92FF9242
:104290000F931F93CF93DF93EC017B016C817D81A2
:1042A000E114F104C1F04115510599F08A01060F9E
:1042B000171FB8010E942A21882369F088819981FB
:1042C0002C813D81820F931FB7010E94D7021D836D
:1042D0000C8381E001C080E0DF91CF911F910F91AD
:1042E000FF90EF900895EF92FF920F931F93DF934B
:1042F000CF93CDB7DEB727970FB6F894DEBF0FBECA
:10430000CDBF7C01CB018E010F5F1F4FB8014AE08A
:1043100050E00E940703F80101900020E9F731976F
:10432000E01BF10BC701B801AF010E94462127969F
:104330000FB6F894DEBF0FBECDBFCF91DF911F91B6
:104340000F91FF90EF900895EF92FF920F931F93BC
:10435000DF93CF9300D000D0CDB7DEB77C01862F9E
:1043600090E08E010F5F1F4FB8014AE050E00E94BD
:104370000703F80101900020E9F73197E01BF10BEA
:10438000C701B801AF010E9446210F900F900F9016
:104390000F90CF91DF911F910F91FF90EF900895B3
:1043A000DF93CF9300D0CDB7DEB769831A82BE0109
:1043B0006F5F7F4F41E050E00E9446210F900F90C9
:1043C000CF91DF9108956115710511F480E0089592
:1043D000DB010D900020E9F71197A61BB70BAD018B
:1043E0000E9446210895FB016081718144815581BD
:1043F0000E9446210895CF93DF93EC018881998133
:10440000009711F00E943F01198218821D821C82C0
:104410001B821A82DF91CF910895EF92FF920F9342
:104420001F93CF93DF93EC017B018A01BA010E94B5
:104430002A21882321F4CE010E94FB2107C01D837D
:104440000C8388819981B7010E94D702CE01DF9148
:10445000CF911F910F91FF90EF900895CF93DF932D
:10446000EC01198218821B821A821D821C821E8214
:104470006115710551F0DB010D900020E9F71197EE
:10448000A61BB70BAD010E940D22DF91CF910895BD
:104490000F931F93182F092F6115710559F0DB0138
:1044A0000D900020E9F71197A61BB70BAD010E94F4
:1044B0000D2202C00E94FB21812F902F1F910F918E
:1044C0000895EF92FF920F931F93DF93CF93CDB791
:1044D000DEB762970FB6F894DEBF0FBECDBF8C017A
:1044E000CB01F8011182108213821282158214828C
:1044F00016827E010894E11CF11CB70150E00E9475
:104500000703C801B7010E94482262960FB6F894CB
:10451000DEBF0FBECDBFCF91DF911F910F91FF90F6
:10452000EF900895EF92FF920F931F93DF93CF9335
:10453000CDB7DEB729970FB6F894DEBF0FBECDBF5B
:104540008C01862FF801118210821382128215824B
:104550001482168290E07E010894E11CF11CB701E0
:1045600050E00E944503C801B7010E9448222996E5
:104570000FB6F894DEBF0FBECDBFCF91DF911F9174
:104580000F91FF90EF900895BF92CF92DF92EF923C
:10459000FF920F931F93CF93DF93082FB92E6B01D8
:1045A0007A01E9012417350710F4EA017901802F17
:1045B0009B2D6CEF71E00E942E22D60114968D91F6
:1045C0009C9115978E159F05D0F08C179D0708F4C8
:1045D000EC01D601ED91FC911197EC0FFD1F1081BC
:1045E00010826D917C916E0D7F1D802F9B2D0E94FE
:1045F0004822D601ED91FC91EC0FFD1F1083802F16
:104600009B2DDF91CF911F910F91FF90EF90DF9045
:10461000CF90BF9008950F931F938C01FB012481CD
:1046200035810E94C422C8011F910F910895CF9334
:10463000DF93EC01FB018617970761F060817181C0
:104640006115710529F0448155810E940D2202C037
:104650000E94FB21CE01DF91CF910895FC01808162
:1046600091810E943F0108955058BB27AA270ED080
:1046700009C1FAD030F0FFD020F031F49F3F11F49F
:104680001EF4EFC00EF4E095E7FBE5C0E92F0BD177
:1046900080F3BA17620773078407950718F071F45F
:1046A0009EF523C10EF4E0950B2EBA2FA02D0B0121
:1046B000B90190010C01CA01A0011124FF27591B67
:1046C00099F0593F50F4503E68F11A16F040A22F6D
:1046D000232F342F4427585FF3CF469537952795DE
:1046E000A795F0405395C9F77EF41F16BA0B620BDD
:1046F000730B840BBAF09150A1F0FF0FBB1F661F24
:10470000771F881FC2F70EC0BA0F621F731F841F66
:1047100048F4879577956795B795F7959E3F08F08C
:10472000B3CF9395880F08F09927EE0F979587954B
:10473000089504D06894B111D9C00895BCD088F010
:104740009F5790F0B92F9927B751A0F0D1F0660F7D
:10475000771F881F991F1AF0BA95C9F712C0B13098
:1047600081F0C3D0B1E00895C0C0672F782F8827AB
:10477000B85F39F0B93FCCF3869577956795B395D7
:10478000D9F73EF490958095709561957F4F8F4F46
:104790009F4F0895E89409C097FB3EF4909580954B
:1047A000709561957F4F8F4F9F4F9923A9F0F92FF7
:1047B00096E9BB279395F695879577956795B79575
:1047C000F111F8CFFAF4BB0F11F460FF1BC06F5F5B
:1047D0007F4F8F4F9F4F16C0882311F096E911C06D
:1047E000772321F09EE8872F762F05C0662371F08E
:1047F00096E8862F70E060E02AF09A95660F771FA2
:10480000881FDAF7880F9695879597F90895990F7D
:104810000008550FAA0BE0E8FEEF16161706E8078A
:10482000F907C0F012161306E407F50798F0621BAB
:10483000730B840B950B39F40A2661F0232B242B80
:10484000252B21F408950A2609F4A140A6958FEF9F
:10485000811D811D089597F99F6780E870E060E0F1
:1048600008959FEF80EC089500240A941616170609
:1048700018060906089500240A9412161306140651
:1048800005060895092E0394000C11F4882352F0B4
:10489000BB0F40F4BF2B11F460FF04C06F5F7F4F6C
:1048A0008F4F9F4F089557FD9058440F551F59F053
:1048B0005F3F71F04795880F97FB991F61F09F3F0D
:1048C00079F087950895121613061406551FF2CF36
:1048D0004695F1DF08C0161617061806991FF1CF86
:1048E00086957105610508940895E894BB276627AD
:1048F0007727CB0197F908958ADF08F48FEF0895A1
:104900000BD0C0CFB1DF28F0B6DF18F0952309F047
:10491000A2CFA7CF1124EACFC6DFA0F3959FD1F392
:10492000950F50E0551F629FF001729FBB27F00D5D
:10493000B11D639FAA27F00DB11DAA1F649F6627B2
:10494000B00DA11D661F829F2227B00DA11D621F01
:10495000739FB00DA11D621F839FA00D611D221FBB
:10496000749F3327A00D611D231F849F600D211D9F
:10497000822F762F6A2F11249F5750408AF0E1F042
:1049800088234AF0EE0FFF1FBB1F661F771F881F8B
:1049900091505040A9F79E3F510570F05CCFA6CFD3
:1049A0005F3FECF3983EDCF3869577956795B79576
:1049B000F795E7959F5FC1F7FE2B880F911D9695A0
:1049C000879597F90895629FD001739FF001829FA8
:1049D000E00DF11D649FE00DF11D929FF00D839F8E
:1049E000F00D749FF00D659FF00D9927729FB00D2B
:1049F000E11DF91F639FB00DE11DF91FBD01CF013E
:104A000011240895AA1BBB1B51E107C0AA1FBB1F9D
:104A1000A617B70710F0A61BB70B881F991F5A954A
:104A2000A9F780959095BC01CD01089597FB092EBB
:104A300007260AD077FD04D0E5DF06D000201AF45F
:104A4000709561957F4F0895F6F7909581959F4FEA
:104A50000895A1E21A2EAA1BBB1BFD010DC0AA1FBF
:104A6000BB1FEE1FFF1FA217B307E407F50720F0D7
:104A7000A21BB30BE40BF50B661F771F881F991F52
:104A80001A9469F760957095809590959B01AC019B
:104A9000BD01CF010895EE0FFF1F0590F491E02DA9
:104AA00009942F923F924F925F926F927F928F92D2
:104AB0009F92AF92BF92CF92DF92EF92FF920F93AD
:104AC0001F93CF93DF93CDB7DEB7CA1BDB0B0FB6B7
:104AD000F894DEBF0FBECDBF09942A883988488874
:104AE0005F846E847D848C849B84AA84B984C8840A
:104AF000DF80EE80FD800C811B81AA81B981CE0F01
:104B0000D11D0FB6F894DEBF0FBECDBFED010895E5
:104B100010E0C4EDD0E004C0FE010E944D252296B5
:0A4B2000C63DD107C9F7F894FFCF96
:104B2A000041530025303258003030003000433DF8
:104B3A00004C4C3D004C483D00534C3D0053483D11
:104B4A00004D53003D00443D0043503D0053503D4D
:104B5A00004F004D43004D5500500053796E633AA3
:104B6A002000202D3E2053796E63466163743A20FB
:104B7A00002C20436C6F636B3A20002C20546F6C1E
:104B8A003A20002C20506174744C656E3A20002043
:104B9A00002C2050756C73653A20002C20002C20C4
:104BAA006D53746172743A20005369676E616C3A8E
:104BBA0020002E2000205B005D0050617474657235
:104BCA006E3A20002050003A20002A5B002C000098
:104BDA004F4B003B004954506172616D733A20009B
:104BEA0020005620332E322E302D6238205349476A
:104BFA004E414C6475696E6F202D20636F6D70692C
:104C0A006C6564206174204465632031352032303C
:104C1A0031352030303A32373A343700002000F04C
:104C2A00040000062C0100000000830EC606C70619
:104C3A00A70F00000000830EC606C706CF090000B2
:104C4A000000B006C606C706C80600000000A71B7B
:0A4C5A005A1C3D1B6E1B4E1B971BDE
:00000001FF
