:100000000C946B000C949F1C0C94CC1C0C949300CF
:100010000C9493000C9493000C9493000C94930014
:100020000C9493000C9493000C9493000C94930004
:100030000C9493000C9425130C9493000C9493004F
:100040000C94F91C0C9493000C9451180C949F1868
:100050000C9493000C9493000C9493000C949300D4
:100060000C9493000C94930020557365206F6E657B
:10007000206F66200000000000240027002A0000F6
:10008000000000250028002B0000000000230026AF
:10009000002900040404040404040402020202020D
:1000A000020303030303030102040810204080013C
:1000B00002040810200102040810200000000700BC
:1000C0000201000003040600000000000000000020
:1000D00076130B1A6F1311241FBECFEFD8E0DEBFCB
:1000E000CDBF12E0A0E0B1E0EEE6F8E402C005907A
:1000F0000D92AE37B107D9F715E0AEE7B2E001C017
:100100001D92AE37B107E1F710E0C4EDD0E004C0B6
:100110002297FE010E94EF23C03DD107C9F70E943C
:10012000611A0C942A240C9400000F931F93CF9310
:10013000DF93689F8001699F100D789F100D112437
:10014000C8010E94B100EC01009729F060E070E066
:10015000A8010E94ED02CE01DF91CF911F910F9176
:100160000895CF93DF93BC018230910510F462E0D3
:1001700070E0A0917C05B0917D05ED01E0E0F0E03C
:1001800040E050E021C0888199818617970769F483
:100190008A819B81309719F09383828304C0909366
:1001A0007D0580937C05FE0134C06817790738F41B
:1001B0004115510519F08417950708F4AC01FE01AB
:1001C0008A819B819C01E9012097E9F6411551053F
:1001D000A9F1CA01861B970B049708F4BA01E0E065
:1001E000F0E02AC08D919C91119784179507F9F43E
:1001F0006417750781F412968D919C91139730972F
:1002000019F09383828304C090937D0580937C05CD
:10021000FD0132964CC0CA01861B970BFD01E80F09
:10022000F91F6193719302978D939C9340C0FD01D8
:10023000828193819C01D9011097A1F680917A0562
:1002400090917B05892B41F48091120290911302C9
:1002500090937B0580937A0540911402509115028A
:100260004115510541F44DB75EB780911002909150
:100270001102481B590B20917A0530917B05CA0168
:10028000821B930B8617970780F0AB014E5F5F4F81
:100290008417950750F0420F531F50937B054093EE
:1002A0007A05F9016193719302C0E0E0F0E0CF01BB
:1002B000DF91CF910895CF93DF93009709F450C059
:1002C000EC0122971B821A82A0917C05B0917D05DA
:1002D000109709F140E050E0AC17BD0708F1BB836F
:1002E000AA83FE0121913191E20FF31FAE17BF07E0
:1002F00079F48D919C911197280F391F2E5F3F4FF4
:100300003983288312968D919C9113979B838A83BE
:100310004115510571F4D0937D05C0937C0520C033
:1003200012968D919C911397AD01009711F0DC010D
:10033000D3CFFA01D383C28321913191E20FF31F0E
:10034000CE17DF0769F488819981280F391F2E5F46
:100350003F4FFA01318320838A819B81938382837B
:10036000DF91CF910895A0E0B0E0E9EBF1E00C94CB
:10037000F5236C01009729F4CB010E94B1006C01B8
:10038000C1C08EEF882E8FEF982E8C0C9D1C86019D
:10039000060F171F0815190508F4B2C0F401A08153
:1003A000B181A617B707B8F0A530B10508F4AAC007
:1003B000CD0104978617970708F4A4C01297A61BCF
:1003C000B70BF801A193B193D4016D937C93CF0146
:1003D0000E945B0197C07B01EA1AFB0AEEEFFFEF78
:1003E000EE0EFF1E36016A0E7B1EC0917C05D09179
:1003F0007D0544245524AA24BB244AC0C615D7052C
:10040000E1F5488159814E155F05B8F1CA0104979D
:100410008E159F05B0F41296A40FB51FF401B18399
:10042000A0832A813B814114510431F0D2011396FB
:100430003C932E93129766C030937D0520937C05E4
:1004400061C08A819B81F80193838283425050402E
:100450004E195F09518340834114510431F0D20198
:1004600013961C930E93129704C010937D0500936E
:100470007C05F4017183608345C088819981A81649
:10048000B90608F45C012E018A819B819C01E90177
:10049000209709F0B3CF80917A0590917B0586155E
:1004A0009705E9F4A616B706D0F42091140230910E
:1004B00015022115310541F42DB73EB78091100288
:1004C00090911102281B390B02171307C8F41093DF
:1004D0007B0500937A05D4016D937C9313C0CB0107
:1004E0000E94B100EC01009759F0F4014081518164
:1004F000B6010E94D202C6010E945B016E0102C0D9
:10050000CC24DD24C601CDB7DEB7E0E10C94112484
:10051000FC0188279927E89421912032E9F32930BA
:1005200010F02E30C8F32B3241F02D3239F468949C
:1005300004C00E948003820F911D219120532A3014
:10054000C0F31EF4909581959F4F08951F93FC0171
:1005500099278827BC01E89411911032E9F31930EA
:1005600010F01E30C8F31B3251F01D3249F468946C
:1005700006C00E946B03610F711D811D911D1191B9
:1005800010531A30B0F33EF49095809570956195B4
:100590007F4F8F4F9F4F1F9108954EE752E00E946B
:1005A00018030895FB01DC0102C001900D92415037
:1005B0005040D8F708956817790768F4FB01DC010B
:1005C000E40FF51FA40FB51F02C002900E92415018
:1005D0005040D8F708950C94D202DC0101C06D930D
:1005E00041505040E0F70895FB01DC0101900D926D
:1005F0000020E1F70895FB01DC014150504030F04C
:100600008D910190801919F40020B9F7881B990B7E
:100610000895FB01DC014150504048F001900D92DB
:100620000020C9F701C01D9241505040E0F70895E5
:10063000009731F4DA018D919C91009709F40EC076
:10064000DC01FB013D912191222319F03217C9F3FE
:10065000FACF332331F4DA011D921C9288279927AF
:1006600008951197AF93BF93FB013D9121913217EC
:1006700071F4332321F488279927119702C01E9221
:100680001196FA01A193B0839F918F91089522232F
:1006900069F7EACFFB019F01E8944230C4F045328C
:1006A000B4F44A3029F497FB1EF4909581959F4F3E
:1006B000642F77270E94D923805D8A330CF0895DEF
:1006C0008193CB010097A1F716F45DE2519310825C
:1006D000C9010C94B505592F482F372F262F660FC7
:1006E000771F881F991F660F771F881F991F620F3A
:1006F000731F841F951F660F771F881F991F08950A
:100700007AE0979F902D879F802D910D1124089559
:10071000FB019F01423074F0453264F4642F772767
:100720000E94D923805D8A330CF0895D8193CB01CF
:100730000097A1F71082C9010C94B505AEE0B0E0B6
:10074000E4EAF3E00C9401240D891E8986E08C8391
:100750001A8309838FEF9FE79E838D839E01275E17
:100760003F4FCE0101966F89788DA9010E94C20387
:100770002F813885020F131FF80110822E96E4E0B6
:100780000C941D24ABE0B0E0E8ECF3E00C94F32310
:100790003C012B015A01FC0117821682838181FDE5
:1007A00003C06FEF7FEFC6C19AE0892E1E01089447
:1007B000211C311CF3012381F20123FD859123FFCC
:1007C00081912F01882309F4B2C1853239F423FDC8
:1007D000859123FF81912F01853229F490E0B301A7
:1007E0000E94C505E7CF982FFF24EE249924FFE14E
:1007F000FF15D0F09B3269F09C3228F4903259F00A
:10080000933291F40EC09D3249F0903369F441E087
:1008100024C052E0F52A84E0F82A28C098E0F92A9A
:1008200025C0E0E1FE2A22C0F7FC29C0892F8053B1
:100830008A3070F4F6FE05C0989C902C1124980E16
:1008400015C0E89CE02C1124E80EF0E2FF2A0EC04F
:100850009E3229F4F6FC6BC140E4F42A07C09C36B2
:1008600019F450E8F52A02C0983649F4F20123FD44
:10087000959123FF91912F01992309F0B8CF892FEA
:100880008554833018F08052833038F444E050E0CF
:10089000A40EB51E5FE359830FC0933631F0933732
:1008A00079F0933509F056C020C0F5018081898325
:1008B00042E050E0A40EB51E610101E010E012C05C
:1008C000F501C080D180F6FC03C06FEF7FEF02C05E
:1008D000692D70E042E050E0A40EB51EC6010E94F2
:1008E000AA058C015FE7F52214C0F501C080D18014
:1008F000F6FC03C06FEF7FEF02C0692D70E042E0AD
:1009000050E0A40EB51EC6010E949F058C0150E860
:10091000F52AF3FE07C01AC080E290E0B3010E94FE
:10092000C505EA948E2D90E008171907A8F30EC0AC
:10093000F601F7FC8591F7FE81916F0190E0B3011C
:100940000E94C505E110EA940150104001151105FF
:1009500079F7EAC0943611F0993669F5F7FE08C0C8
:10096000F501208131814281538184E090E00AC009
:10097000F501808191819C01442737FD4095542FDA
:1009800082E090E0A80EB91E9FE6F92257FF09C049
:1009900050954095309521953F4F4F4F5F4FE0E880
:1009A000FE2ACA01B901A1012AE030E00E94F10546
:1009B000D82ED21840C0953729F41F2D1F7E2AE06B
:1009C00030E01DC01F2D197F9F3661F0903720F455
:1009D000983509F0ACC00FC0903739F0983709F05E
:1009E000A6C004C028E030E00AC0106114FD146005
:1009F00020E130E004C014FD166020E132E017FF72
:100A000008C0F501608171818281938144E050E0EA
:100A100008C0F50180819181BC0180E090E042E056
:100A200050E0A40EB51EA1010E94F105D82ED218E7
:100A30008FE7F82EF122F6FE0BC05EEFF522D914F7
:100A400038F4F4FE07C0F2FC05C08FEEF82202C0B5
:100A50001D2D01C0192DF4FE0DC0FE01ED0DF11D7F
:100A60008081803319F499EEF92208C01F5FF2FEED
:100A700005C003C08F2D867809F01F5F0F2DF3FC92
:100A800014C0F0FE0FC01E1510F09D2C0BC09D2C45
:100A90009E0C911A1E2D06C080E290E0B3010E94C8
:100AA000C5051F5F1E15C0F304C01E1510F4E11A22
:100AB00001C0EE2404FF0FC080E390E0B3010E9468
:100AC000C50502FF1DC001FD03C088E790E00EC010
:100AD00088E590E00BC0802F867891F001FF02C07E
:100AE0008BE201C080E2F7FC8DE290E0B3010E944E
:100AF000C50506C080E390E0B3010E94C5059A9445
:100B0000D914C0F3DA94F101ED0DF11D808190E06C
:100B1000B3010E94C505DD20A9F706C080E290E080
:100B2000B3010E94C505EA94EE20C1F743CEF3015C
:100B300066817781CB012B96E2E10C940F24FC01B6
:100B40000590615070400110D8F7809590958E0FF8
:100B50009F1F0895FC016150704001900110D8F76B
:100B6000809590958E0F9F1F0895DC01FC01672FE3
:100B700071917723E1F7329704C07C916D93708374
:100B80006291AE17BF07C8F308950F931F93CF93D9
:100B9000DF938C01EB018B8181FF1BC082FF0DC0B5
:100BA0002E813F818C819D812817390764F4E8816B
:100BB000F9810193F983E88306C0E885F985802FE0
:100BC0000995892B31F48E819F8101969F838E83B5
:100BD00002C00FEF1FEFC801DF91CF911F910F915E
:100BE0000895FA01AA27283051F1203181F1E894C3
:100BF0006F936E7F6E5F7F4F8F4F9F4FAF4FB1E010
:100C00003ED0B4E03CD0670F781F891F9A1FA11D0A
:100C1000680F791F8A1F911DA11D6A0F711D811D0B
:100C2000911DA11D20D009F468943F912AE0269FD0
:100C300011243019305D3193DEF6CF010895462F2F
:100C40004770405D4193B3E00FD0C9F7F6CF462F10
:100C50004F70405D4A3318F0495D31FD4052419379
:100C600002D0A9F7EACFB4E0A69597958795779536
:100C70006795BA95C9F700976105710508959B01BD
:100C8000AC010A2E06945795479537952795BA9546
:100C9000C9F7620F731F841F951FA01D0895DC0103
:100CA00012962C91129717968C9117972817D8F5B2
:100CB000ED91FC911197E20FF11D862F992787FD89
:100CC000909516960C90169702C0880F991F0A945B
:100CD000E2F72081282B208313968C9113978F5F46
:100CE00013968C93139716962C91169714963C9105
:100CF0001497822F90E0831B910997FD04C0231B5A
:100D000016962C93089587E016968C931697129654
:100D10008C9112978F5F12968C931297ED91FC91A4
:100D2000E80FF11D10820895FC018781681710F00B
:100D30008FEF08950190F081E02DE60FF11D808185
:100D40000895DC0190E007C0ED91FC911197E90F47
:100D5000F11D10829F5F17968C9117979817A0F33B
:100D600012961C92129713961C92139787E0169670
:100D70008C930895FC01808191810E945B0108950C
:100D8000CF93DF93EC01842F6C831D824F8390E01F
:100D900061E070E00E94950088839983CE010E94F3
:100DA000A10647E0E7E0F0E061E070E00BC0CB01B6
:100DB00002C0880F991F2A95E2F79C018D81822B32
:100DC0008D834150242F30E08C81DF01A81BB109B5
:100DD000A217B30764F3DF91CF910895CF93DF9308
:100DE000DC01EB0115962D913C91169713968D9190
:100DF0009C9114972817390749F411968D919C916D
:100E0000129716969C938E93159706C02E5F3F4FB0
:100E100016963C932E9315971596ED91FC91169787
:100E2000888199819183808317962D913C911897A1
:100E300013968D919C9114972817390729F41196D0
:100E40002D913C91129702C02E5F3F4F15968D91C8
:100E50009C9116978217930739F48C91882321F07F
:100E600018963C932E93179781E08C93DF91CF9146
:100E70000895CF93DF93DC01EB018C91882359F126
:100E800017962D913C91189713968D919C911497DC
:100E90002817390749F411968D919C91129718964D
:100EA0009C938E93179706C02E5F3F4F18963C93E6
:100EB0002E9317971796ED91FC9118978081918149
:100EC0009983888315968D919C911697E817F90759
:100ED00009F41C9281E0DF91CF9108955F926F92A7
:100EE0007F928F929F92AF92BF92CF92DF92EF92BA
:100EF000FF920F931F93CF93DF93EC017C876B8757
:100F0000CC24DD24552453944B01AA2497FCA094AF
:100F1000BA2C31E0632E712C8B859C8562E070E0E9
:100F20000E9495009A838983009709F048C008942D
:100F3000C11CD11C1D86C501B4010E946E227B011B
:100F40008C01B601882777FD8095982F0E946E222C
:100F500020E030E040E251EC0E94D32120E030E07C
:100F600040E85FE30E946F219B01AC01C801B7011B
:100F70000E9422237B018C0120E030E040E050E021
:100F80000E941E2388234CF0C801B70120E030E006
:100F900040E05FE30E946F2108C0C801B70120E074
:100FA00030E040E05FE30E946E210E943B227C879C
:100FB0006B871616170624F07C866B8601C05D864B
:100FC0008D858823E1F46B857C85882777FD809566
:100FD000982F0E946E227B018C01C501B4010E94F2
:100FE0006E222DEC3CEC4CEC5DE30E9422239B0135
:100FF000AC01C801B7010E941E2387FF8DCF8981F4
:101000009A81DF91CF911F910F91FF90EF90DF9028
:10101000CF90BF90AF909F908F907F906F905F9098
:1010200008950F931F93CF93DF93EC018A010E94E1
:101030006E079C019A8389838D858823D9F08B85DF
:101040009C850197880F991F820F931F9C838B8328
:101050009E838D83F90102C0019311938B819C8142
:101060008E179F07C8F78D819E8198878F8318827E
:101070009A878987DF91CF911F910F910895FC0185
:1010800013A2A085B1850284F385E02D20813181F2
:101090008D919C911197918380832D933C93DB01DB
:1010A0008D919C91918380830895BF92CF92DF921E
:1010B000EF92FF920F931F93CF93DF93EC018B017D
:1010C000B8A040E028EFC22E2FEFD22E2BC0F9019E
:1010D000EE0FFF1FE00FF11FD901AE0DBF1DAC19C0
:1010E000BD09AA0FBB1FAC0FBD1F0190F081E02D01
:1010F0008D919C91E81BF90BF7FF03C0F095E195EA
:10110000FF4F8C859D858E179F075CF0261737074C
:1011100011F4842F11C05F5F252F30E06217730731
:10112000B4F64F5F4B1538F4F8016081718151E0DE
:10113000E42EFF24F1CF8FEFDF91CF911F910F911C
:10114000FF90EF90DF90CF90BF900895089508959D
:1011500008956F927F928F929F92AF92BF92CF929B
:10116000DF92EF92FF920F931F93CF93DF93DC01F7
:1011700091968D919C919297019709F080C09096DD
:101180002C9190972150822F992787FD9095875E0B
:101190009E4F8D01080F191F89519140EC0129962E
:1011A000CC0FDD1FCA0FDB1F60E070E03C0137E1B0
:1011B000832E31E0932E8A0E9B1E97E2A92EB12C2E
:1011C000AA0EBB1E5AC06B01C60CD71C48815981A0
:1011D000141615060CF44BC082E84F3F580709F46B
:1011E00046C01296ED90FC901397F7013996EE0FDA
:1011F000FF1FEA0FFB1F0190F081E02DCF01842734
:10120000952797FF34C033E0EE0FFF1F3A95E1F7C3
:1012100088279927841B950B8E179F0744F1F801A7
:101220008081873020F5F4014081F50130E00CC069
:10123000818190E08C159D0529F4808190E08E15C8
:101240009F0521F03F5F3196341790F3341779F002
:101250009596DC92CE92949782E090E092969C9341
:101260008E939197A15EBE4F3C9381E00FC02150B9
:101270000150104061507040229727FFA4CF8FEF9C
:101280009FEF95969C938E93949780E0DF91CF91FA
:101290001F910F91FF90EF90DF90CF90BF90AF9094
:1012A0009F908F907F906F9008956F927F928F9212
:1012B0009F92AF92BF92CF92DF92EF92FF920F93E5
:1012C0001F93CF93DF93EC018FEF9FEF9B838A8374
:1012D00088A0AA24AA94BA2C9924E7E16E2EE1E012
:1012E0007E2E6C0E7D1E77C08FEFA8168FEFB8068E
:1012F00091F5C92CDD24F6013996EE0FFF1FEC0F96
:10130000FD1F8081918197FD26C0FE01EC0DFD1D22
:10131000E75EFE4F608170E0882777FD8095982F0B
:101320000E946E227B018C01F301608170E08827AE
:1013300077FD8095982F0E946E222BE734E14EE2D4
:101340005EE30E9422239B01AC01C801B7010E9409
:101350001E231816F4F1C92CDD24F6013996EE0F80
:10136000FF1FEC0FFD1F2081318137FD31C0F501DA
:101370003996EE0FFF1FEC0FFD1F8081918128171A
:10138000390734F5FE01EC0DFD1DE75EFE4F60816F
:1013900070E0882777FD8095982F0E946E227B0150
:1013A0008C01F301608170E0882777FD8095982F8C
:1013B0000E946E222BE734E14EE25EE30E9422237C
:1013C0009B01AC01C801B7010E941E2318160CF046
:1013D000650193945601981408F486CFFFEFAF1679
:1013E000FFEFBF0611F480E007C0BB82AA8281E054
:1013F00090E09AA389A381E0DF91CF911F910F9193
:10140000FF90EF90DF90CF90BF90AF909F908F9024
:101410007F906F900895CF93DF93DC01A75EBE4F5E
:101420001D921D921D921D921D921C92AE51B140B3
:1014300090E0ED01C95EDE4F0DC0FD01E90FF11D29
:1014400087A1FD01E80FF11DE75EFE4F80818F5FF0
:1014500080839F5F8881981780F3DF91CF910895F3
:10146000CF93DF93EC010E940B0AC95EDE4F8881A7
:10147000C751D140883230F0CE010E945509CE01CB
:101480000E94A908DF91CF910895DC01ED91FC91B4
:101490000190F081E02D09950895AF92BF92CF920F
:1014A000DF92EF92FF920F931F93DF93CF93CDB70D
:1014B000DEB728970FB6F894DEBF0FBECDBF6C0124
:1014C00009831A832B833C834D835E836F837887E4
:1014D000A22EEC81FD81222311F480E096C030978A
:1014E00079F18FEFEF3FF80711F0CF010CC0D60173
:1014F0001296ED91FC9113973996EE0FFF1FEC0DAC
:10150000FD1D80819181BB24D6011296ED91FC9145
:1015100013973996EE0FFF1FEC0DFD1D0190F08122
:10152000E02DE81BF90BF7FF03C0F095E195FF4FA5
:10153000D6011C968D919C911D978E179F0714F0D4
:10154000BB24B394D6019496ED91FC91959739966E
:10155000EE0FFF1FEC0DFD1D60817181882777FD67
:101560008095982F0E946E227B018C01D6011296E5
:10157000ED91FC9113973996EE0FFF1FEC0DFD1DB9
:1015800060817181882777FD8095982F0E946E2257
:101590009B01AC01C801B7010E94D3217B018C01E2
:1015A00020E030E040E050E00E941E2388234CF011
:1015B000C801B70120E030E040E05FE30E946F2106
:1015C00008C0C801B70120E030E040E05FE30E94BE
:1015D0006E210E943B2220E030E08A2D992787FD72
:1015E0009095681B790B77FF03C0709561957F4FCD
:1015F0006430710514F421E030E08B2D90E0282355
:10160000392380E0232B09F081E028960FB6F89467
:10161000DEBF0FBECDBFCF91DF911F910F91FF9025
:10162000EF90DF90CF90BF90AF9008958F929F92F0
:10163000AF92BF92CF92DF92EF92FF920F931F93E0
:10164000CF93DF936C01DC011296ED91FC9113971F
:1016500080A1843008F4E5C0E95EFE4F608170E04F
:10166000882777FD8095982F0E946E2229E23CE51D
:101670004FE05EE30E9422230E944022762FAA249C
:10168000AA94BA2C8824992460E030E07CC0A32F6F
:10169000B0E0FE01EA0FFB1FE75EFE4FE080E716B9
:1016A00008F470C01996AA0FBB1FAC0FBD1F4D9157
:1016B0005C9114161506B4F5F60125812F3F71F0E3
:1016C000822F992787FD90950996880F991FC80F3B
:1016D000D91F88819981841795070CF4232FD6018F
:1016E00015962C93159717962C9117972F3F91F0DD
:1016F0001296ED91FC911397822F992787FD909573
:101700000996880F991FE80FF91F8081918148176A
:1017100059070CF4232F6E0D8394A40EB51EF60109
:10172000278330C0D60114962C912F3F71F0822F61
:10173000992787FD90950996880F991FC80FD91F83
:1017400088819981481759070CF4232FF6012483C7
:1017500026812F3F89F00280F381E02D822F992787
:1017600087FD90950996880F991FE80FF91F8081D2
:101770009181841795070CF4232F6E199394D60149
:1017800016962C933F5FF601C281D38188A138174A
:1017900008F47DCF70E0882777FD8095982F0E9410
:1017A0006E227B018C01C95EDE4F688170E0882764
:1017B00077FD8095982F0E946E222AE037ED43EA4C
:1017C0005CE30E9422239B01AC01C801B7010E9487
:1017D0001E23181634F1981421F5C50163E070E05A
:1017E0000E94A423D60119967C936E9318971496A1
:1017F0009C9114979F3FA9F016968C9116978F3F56
:1018000081F0981771F015962C9115972F3F49F09C
:1018100017969C919F3F29F080E0291719F081E0ED
:1018200001C080E0DF91CF911F910F91FF90EF9069
:10183000DF90CF90BF90AF909F908F9008958F9240
:101840009F92AF92BF92CF92DF92EF92FF921F933F
:10185000DF93CF9300D00F92CDB7DEB76C017B0141
:10186000DE011196E9E0F1E083E001900D928150F4
:10187000E1F7D601ED91FC91628183E0689FB001B0
:101880001124C7010E942B1FE114F10499F110E00B
:101890005E010894A11CB11CF4E08F2EF1E09F2E94
:1018A00023C0CF01612F0E94940600D000D000D049
:1018B000EDB7FEB73196ADB7BEB71296BC92AE92F9
:1018C000119793828282848315820E949E038DB732
:1018D0009EB706960FB6F8949EBF0FBE8DBFC70188
:1018E000B5010E9412201F5FD601ED91FC9182810B
:1018F0008117B8F60F900F900F90CF91DF911F9145
:10190000FF90EF90DF90CF90BF90AF909F908F901F
:101910000895FC018FEF848385838683878384E128
:101920008287808191810E94A10608950F931F9361
:101930008C01FC0110A212A211A28FEF9FEF9383E2
:101940008283868D978D0E94A106F80115861486E4
:10195000138A128A158A148A178A168A118E108E93
:10196000138E128E158E148E1F910F910895CF93A2
:10197000DF93EC010E94960CC95EDE4F1882C751BE
:10198000D14018A21EA21AA219A28FEF9FEF9DA309
:101990008CA39B838A83FE01DE01A75EBE4F80E09D
:1019A000138A128A1D928F5F32968630C9F71BA266
:1019B00086E990E09D878C878AE999E9A9E9BEE3E9
:1019C0008E879F87A88BB98BC15EDE4F18822797C1
:1019D0001882DF91CF910895EF92FF920F931F939A
:1019E0008C01FC017383628388E090E00E94811A7D
:1019F000F82EE92E61E04EE10E94C006F801F08267
:101A0000E182C8010E94890C1F910F91FF90EF9015
:101A10000895EF92FF920F931F938C0186E392E05B
:101A2000F8019183808388E090E00E94811AF82E6B
:101A3000E92E62E041E00E94C006F801F68EE78ED2
:101A40001782168215821482C801049691878087B6
:101A5000C80106969387828713A2C8010E94960C3C
:101A60001F910F91FF90EF9008950F931F938C019A
:101A70000E94090D8AE292E0F80191838083158229
:101A8000148217821682C801049691878087C80144
:101A90000696938782878FEF9FEF95A384A3C80153
:101AA0000E94B70C1F910F9108950F931F938C0103
:101AB0000E94350D8EE192E0F80191838083005FF2
:101AC0001D4FF80110821F910F9108951F93CF931E
:101AD000DF93EC0110E040E096C0442309F5FD01DE
:101AE000E10FF11D87A1282F30E08C81992787FD18
:101AF00090952817390789F08D81992787FD909552
:101B00002817390709F0BBC008C08F81992787FDC6
:101B100090952817390709F075C0A15EBE4F1C9338
:101B2000AA81BB81412F50E0FD01E40FF51F87A181
:101B3000282F30E08C81992787FD90952817390749
:101B400041F08D81992787FD90952817390709F075
:101B50009FC04881598160E0275F3F4F220F331FAC
:101B6000A20FB31F8D919C9197FF61E0CA010E9463
:101B70004F063FC08F81992787FD90952817390719
:101B800009F090C0A95EBE4F8C91A751B14090E082
:101B90000197481759070CF085C0FD01E40FF51FA8
:101BA00080A5282F30E02617370741F08F8199272D
:101BB00087FD90952817390709F074C0488159812D
:101BC00060E0275F3F4F220F331FA20FB31F8D919D
:101BD0009C9197FF61E0CA010E944F061F5F09C0F8
:101BE000888199810E94A106EA81FB81E15EFE4F16
:101BF000108341E007C020E0E881F98183818317E9
:101C0000C8F137C01F5FAA81BB81FD01E95EFE4FAD
:101C10008081181708F461CF181721F5A15EBE4F17
:101C20008C918230F8F0181B1083EA81FB81E15E11
:101C3000FE4F6081EF51F14070E0695D7F4F6E0FA4
:101C40007F1FE95EFE4F408150E04F5F5F4FCF0145
:101C5000805F90400E94DB02EA81FB81E85EFE4FDC
:101C600081E0808320E0E881F98193818A8598175B
:101C700008F021E0822FDF91CF911F9108958E818E
:101C8000992787FD90952817390709F03ECF45CF52
:101C90008E81682F772767FD70952617370709F023
:101CA00069CF70CF3A85A95EBE4F8C9190E0831BBF
:101CB0009109481759070CF493CF9DCFEF92FF92EB
:101CC0000F931F93DF93CF9300D000D0CDB7DEB733
:101CD0008C01095E1E4FD8018C910751114090E094
:101CE0008F3E910574F0D801ED91FC910680F7814B
:101CF000E02DC8010995085E1E4FF80110820851B9
:101D00001140D80196961C9296971896ED91FC91E9
:101D10001997208131811A96ED91FC911B970190C2
:101D2000F081E02D095E1E4FD8014C910751114002
:101D300090918002D80190968C919097891710F419
:101D400090969C93095E1E4FD8018C9107511140CB
:101D50008823B1F0EE2480E090E0E227F327F7FF3C
:101D600002C081E090E020E030E04F3E11F021E041
:101D700030E082239323892B41F0EE24E39405C0C5
:101D8000F80110A210928002EE2481E090E09A8384
:101D900089831C821B82D8011896ED91FC911997BA
:101DA000808191819C838B83C801BE016F5F7F4FCF
:101DB0000E945508F82E87FD2FC0095E1E4FF801BE
:101DC000808107511140F801E80FF11DF7A2823020
:101DD00030F086A18F1519F4C8010E94B70CEF2DC1
:101DE000FF27E7FDF0953996EE0FFF1FE00FF11F7B
:101DF0008B819C8120813181820F931F62E070E092
:101E00000E94A42371836083F801E95EFE4F808104
:101E10008F5F8083FF2417C0C8010E940B0AD8017E
:101E200090968C91863069F480918002F801E80FD9
:101E3000F11DE75EFE4F8081823018F0EE24FF2412
:101E400004C0FF24F394EE2001F5095E1E4FF80153
:101E5000808107511140883278F081E0D801939653
:101E60008C939397ED91FC910680F781E02DC8014A
:101E700009951092800262C0EE2039F4C8010E94D8
:101E8000B70CF80113A210928002FF2009F456C08B
:101E9000095E1E4FD8014C910751114050918002AC
:101EA000842F90E08696F801E80FF91F20E030E0DB
:101EB000DC0197971BC080812F5F3F4F31978517BB
:101EC000A9F46F5F7F4F461B095E1E4FF8014083E8
:101ED00007511140695D7F4F600F711F50E04F5FE8
:101EE0005F4FC80187960E94DB0207C0BD01621BDD
:101EF000730B8FEF6F3F7807F1F620918002E22F8E
:101F0000F0E03996EE0FFF1FE00FF11F8B819C81EF
:101F100091838083D801A95EBE4F8C91F801E80FB0
:101F2000F11D27A38F5F8C932F5F209380022630B3
:101F300029F410928002D80190962C930F900F9064
:101F40000F900F90CF91DF911F910F91FF90EF9025
:101F500008950F931F93CF93DF938C01DC01939629
:101F60001C92939718960D90BC91A02DEC01EA85D8
:101F7000FB85208131818D919C9111979183808384
:101F80002D933C93DB018D919C9191838083C801BB
:101F90000E945E0E8BA1DF91CF911F910F9108954A
:101FA0000F931F93CF93DF938C01EB01CB0167E07D
:101FB00070E00E942B1F209779F0CE016EE071E057
:101FC0000E941220F80160857185CE010E94A21F37
:101FD000CE016BE30E94FF1FDF91CF911F910F9104
:101FE00008950F931F93CF93DF938C01EB01CB01E7
:101FF00060E270E00E942B1F209709F474C0CE01AC
:1020000061E171E00E941220D8011296ED91FC91DD
:10201000139714968C91992787FD90950996880FB0
:10202000991FE80FF91F60817181CE010E94A21FE4
:10203000CE016BE30E94FF1FCE0165E171E00E94BB
:102040001220D8011296ED91FC91139715968C9160
:10205000992787FD90950996880F991FE80FF91F1A
:1020600060817181CE010E94A21FCE016BE30E94AC
:10207000FF1FCE0169E171E00E941220D801129683
:10208000ED91FC91139716968C91992787FD909569
:102090000996880F991FE80FF91F60817181CE01A1
:1020A0000E94A21FCE016BE30E94FF1FCE016DE1D3
:1020B00071E00E941220D8011296ED91FC911397C5
:1020C00017968C91992787FD90950996880F991FEF
:1020D000E80FF91F60817181CE010E94A21FCE011D
:1020E0006BE30E94FF1FDF91CF911F910F91089525
:1020F000CF93DF93FC01C081D181209731F0CE01D5
:102100000E94BA06CE010E947E1ADF91CF910895F7
:10211000CF92DF92EF92FF920F931F937A016901A2
:102120000BE415E0C8010E94221CC801B7010E94FF
:10213000221CC801B6010E94221C1F910F91FF9022
:10214000EF90DF90CF900895EF92FF920F931F933F
:10215000CF93DF93EC01F62EE42E8BE495E0B901EA
:102160000E94221C0BC0FE01EF0DF11D8BE495E0D7
:1021700067A14AE050E00E94881BF394EF1498F79F
:102180008BE495E0B8010E94221CDF91CF911F9152
:102190000F91FF90EF9008952F923F924F925F9290
:1021A0006F927F928F929F92AF92BF92CF92DF9267
:1021B000EF92FF920F931F93DF93CF93CDB7DEB7CC
:1021C000A9970FB6F894DEBF0FBECDBF6C018C018E
:1021D000095E1E4FF8018081883208F41DC26C2C04
:1021E000D9A6C6010E94300A4E010894811C911C98
:1021F000C40160E071E00E945D2098E0A92EB12C3E
:10220000AC0EBD1EC50160E071E00E945D20F601CC
:1022100081A192A18230910509F01FC18FE191E067
:10222000C80ED91EF601508181EE9EEFC80ED91E50
:1022300082E0E82EE50EF60162817381D801F60195
:10224000EE0DF11D87A190E08617970781F480A518
:1022500090E0F60124A135A18217930741F4EA9496
:102260008E2D90E0851B910988973CF4F1C0F2E037
:10227000EF0E4C91E41618F317C0772400E1202EDE
:1022800002E0302E2C0C3D1C5E010894A11CB11CF8
:1022900018E0812E912C8C0E9D1EBFE14B2EB1E0DB
:1022A0005B2E4C0C5D1CA2C0403F38F3A5C0C5019D
:1022B00060E071E00E947720C40160E071E00E945C
:1022C0007720E72DF0E0B496A3E0EE0FFF1FAA956C
:1022D000E1F7DE015696EC0DFD1D88E001900D92B0
:1022E0008150E1F7C6010E891F89288D398D4A8DED
:1022F0005B8D6C8D7D8D0E944D0A882309F475C01D
:10230000C50162E00E94FF1FC5016DE40E94FF1F2E
:10231000C501672D0E94D31FC5016BE30E94FF1FFB
:10232000FF2425C00F2D10E0075F1F4F000F111F66
:102330000C0D1D1DF80180819181892BB9F0C5011B
:1023400060E50E94FF1FC5016F2D0E94D31FC501CC
:1023500061E271E00E941220F80160817181C50183
:102360000E94A21FC5016BE30E94FF1FF394F601B8
:1023700080A18F15B8F6C50163E271E00E941220BA
:10238000C4016BE30E94FF1FC40166E271E00E947A
:102390001220F60162817381C4010E94741FC4017E
:1023A0006BE30E94FF1FC4016AE271E00E941220E9
:1023B000F60164A175A1C4010E94A21FC4016BE3D0
:1023C0000E94FF1FC40163E00E94FF1FC4016AE076
:1023D0000E94FF1FC601F20160814E2D950184010C
:1023E0000E94A41081E0F60183A37394F10180811F
:1023F000781608F45CCFECC0523050F18E2D90E08E
:102400008F3E91052CF1451BF80140838FE191E04F
:10241000C80ED91EF601608181EE9EEFC80ED91E4E
:1024200070E0695D7F4F6C0D7D1D50E04F5F5F4F29
:10243000C60187960E94DB02E8E1F1E0CE0EDF1EC6
:1024400081E0F601808388EE9EEFC80ED91EC0C0E1
:10245000862D99A50E94B70CBBC0019709F0B6C0A4
:10246000C40162E00E94FF1F6EE1E62EF12CEC0E2B
:10247000FD1EC701B6010E94EC0CC7010E94890C29
:10248000C7010E94160B882309F4B7C0C7010E9438
:10249000660D882309F4B1C08E01015F1F4FC8018A
:1024A00060E071E00E945D20C80163E271E00E947B
:1024B0007720C701B8010E941F0CC4016EE271E0D1
:1024C0000E941220C4016BE30E94FF1FC701B401E8
:1024D0000E94F10FC5016BE30E94FF1FC701B50108
:1024E0000E94D00FC50163E00E94FF1FC5016AE092
:1024F0000E94FF1FC601B401A80195010E94881027
:10250000C8010E9468215AC00B2D10E0075F1F4FC1
:10251000000F111F0C0D1D1DF80180819181892B69
:10252000C1F0C70161E371E00E941220C7016B2D69
:102530000E94D31FC70161E271E00E941220F801DE
:1025400060817181C7010E94A21FC7016BE30E94D5
:10255000FF1FB394F60180A18B15B0F67E0108949D
:10256000E11CF11CC70163E271E00E9412208E01A0
:10257000085F1F4FC8016BE30E94FF1FC80166E29E
:1025800071E00E941220F60162817381C8010E94ED
:10259000741FC8016BE30E94FF1FC80163E00E9423
:1025A000FF1FC8016AE00E94FF1FF601E95EFE4FAF
:1025B000C60160E0408197010E94A41081E0F6010D
:1025C00083A3CE014E960E94781002C0F60113A29A
:1025D00088E191E0C80ED91EF6018081882321F49C
:1025E000862D99A50E94B70CCE0108960E946821FD
:1025F000CE0101960E9468210FC08E010F5F1F4F10
:10260000C80163E371E00E941220C8016BE30E94DD
:10261000FF1FBB2478019ECFA9960FB6F894DEBFAA
:102620000FBECDBFCF91DF911F910F91FF90EF9023
:10263000DF90CF90BF90AF909F908F907F906F90E2
:102640005F904F903F902F9008951F920F920FB67A
:102650000F9211242F933F934F935F936F937F9328
:102660008F939F93AF93BF93EF93FF93E091840277
:10267000F09185020995FF91EF91BF91AF919F91E4
:102680008F917F916F915F914F913F912F910F901B
:102690000FBE0F901F90189581309105B1F46F5FB8
:1026A0007F4FE1F486E892E060E570E040E050E0C2
:1026B0000E94110885E992E068EA71E00E945D20BD
:1026C0008CE992E00E94550D0895892B39F46F5FD3
:1026D0007F4F21F485E992E00E946821089580E00F
:1026E00090E06FEF7FEF0E944C13089581E090E03F
:1026F0006FEF7FEF0E944C130895FF920F931F938B
:10270000CF93DF93F82E0BE415E0C80169EA71E07E
:102710000E940C1CC8016F2D4AE050E00E94881BEB
:10272000C80164EB71E00E940C1CCF2DD0E083E067
:10273000CC0FDD1F8A95E1F7C456DD4FCD5DDE4F2E
:1027400068817981C8014AE050E00E94DA1BC80123
:1027500068EB71E00E940C1CFE016291772767FD17
:102760007095C8014AE050E00E94DA1BC8016DEB89
:1027700071E00E940F1CDF91CF911F910F91FF908C
:102780000895EF92FF920F931F93DF93CF93CDB7EE
:10279000DEB762970FB6F894DEBF0FBECDBF8E01D5
:1027A000075F1F4F85E992E0B8014AE050E023E05F
:1027B00030E00E94AE1EC8016DEB71E00E94CD02B8
:1027C0000E948802F82EDE011196EEE3F2E088E026
:1027D00001900D928150E1F785E992E061E070E0AF
:1027E0000E947B1E813421F000E010E0EE2425C021
:1027F00080E090E06DEB71E00E94CD020E948802C3
:10280000E82E80E090E06DEB71E00E94CD020E9426
:1028100088028C01EB829D838C83EF2DF0E023E016
:10282000EE0FFF1F2A95E1F7E454FC4FDE011196ED
:1028300088E00D9001928150E1F785E992E061E036
:1028400070E00E947B1E823599F4EB821D830C831D
:10285000EF2DF0E093E0EE0FFF1F9A95E1F7E454BF
:10286000FC4FDE01119688E00D9001928150E1F756
:102870008F2D0E947D138091AC0490E001962F2D46
:1028800030E0821793071CF4F394F092AC04629644
:102890000FB6F894DEBF0FBECDBFCF91DF911F9171
:1028A0000F91FF90EF9008958DE0609194020E9447
:1028B000181E109294020895EF92FF920F931F93A7
:1028C0008C017B018BE061E00E94181E8091180250
:1028D000909119029C01029FC001039F900D129FCD
:1028E000900D11240E94671D8BE060E00E94181E6D
:1028F00080911802909119029C01E29EC001E39E12
:10290000900DF29E900D11240E94671D1F910F9152
:10291000FF90EF90089580E00E948C1C089580E065
:1029200063E477E141E050E00E94691C089585E985
:1029300092E061E070E00E947B1E813511F40E94FC
:102940008B1485E992E061E070E00E947B1E853483
:1029500011F40E948F140895EF92FF920F931F932A
:10296000CF93DF937C010E948B1400E010E030C015
:1029700081E090E06FE170E00E945C14E70123C009
:102980008133A1F0863469F08033E1F481E090E096
:1029900063E070E00E945C1481E090E063E070E02E
:1029A0000FC081E090E063E070E004C083E090E05D
:1029B00061E070E00E945C1483E090E061E070E010
:1029C0000E945C14219688818823D1F60F5F1F4FE7
:1029D0008091160290E00817190754F20E948F1494
:1029E000DF91CF911F910F91FF90EF900895CF92BB
:1029F000DF92EF92FF920F931F93DF93CF93CDB7A8
:102A0000DEB7C456D0400FB6F894DEBF0FBECDBFC0
:102A10006C018E010C5F1F4FC8016FEB71E00E94CB
:102A20005D20C601B8010E94FE1EF82EC8010E945A
:102A30006821FF20F1F08E01055F1F4FC801B6012C
:102A400042E050E00E943A21C8017E010894E11C56
:102A5000F11CB70143E050E020E030E00E94AE1EE0
:102A6000C8010E946821C7010E9488028093170252
:102A70002FC08E010E5E1F4FC80162EC71E00E94F4
:102A80005D20C601B8010E94FE1EF82EC8010E94FA
:102A90006821FF2019F18E01075E1F4FC801B601A2
:102AA00042E050E00E943A21C8017E010894E11CF6
:102AB000F11CB70143E050E020E030E00E94AE1E80
:102AC000C8010E946821C7010E94880280931602F3
:102AD0008BE495E0B6010E94551CB7C08E01005EE4
:102AE0001F4FC80165EC71E00E945D20C601B8016E
:102AF0000E94FE1EF82EC8010E946821FF2009F4E2
:102B000043C08DE061E00E94181E8E01095D1F4FD9
:102B1000C801B60142E050E00E943A21C801BE015E
:102B2000685A7F4F4DE050E020E030E00E94AE1E3A
:102B3000C8010E946821F601848195810F97A0F059
:102B40008E01025D1F4FC801B6014EE050E00E94A9
:102B50003A21C8010E949D1E7093190260931802C9
:102B6000C8010E94682106C084EA91E0909319028E
:102B700080931802CE01885A9F4F0E94AC148DE0BA
:102B800060E00E94181EA4CF8E010B5C1F4FC8018D
:102B900068EC71E00E945D20C601B8010E94FE1E33
:102BA000F82EC8010E946821FF2009F44EC03CE3C2
:102BB000E32EF12CEC0EFD1EC7016BEC71E00E94C0
:102BC0005D208E010D5B1F4FC801609117024AE026
:102BD0000E94C120C701B8010E942220C8010E94A2
:102BE0006821C70166ED71E00E9412208E01065B2C
:102BF0001F4FC801609116024AE00E94C120C70120
:102C0000B8010E942220C8010E946821C70166ED18
:102C100071E00E9412208E010F5A1F4F609118021E
:102C200070911902C8014AE00E949020C701B801C2
:102C30000E942220C8010E9468218BE495E0B70120
:102C40000E94551CC7010E946821CC59DF4F0FB666
:102C5000F894DEBF0FBECDBFCF91DF911F910F91D2
:102C6000FF90EF90DF90CF900895EF92FF920F9337
:102C70001F93DF93CF93CDB7DEB729970FB6F894A4
:102C8000DEBF0FBECDBF7C0160E070E00E947B1E06
:102C90008F3309F04CC08BE495E06FE30E94D11AAA
:102CA0008BE495E068E670E00E94AE1A8BE495E054
:102CB00066E50E94D11A8BE495E060E20E94D11A89
:102CC0008BE495E069E60E94D11A8BE495E060E21E
:102CD0000E94D11A8BE495E062E50E94D11A8BE440
:102CE00095E060E20E94D11A8BE495E064E70E94CF
:102CF000D11A8BE495E060E20E94D11A8BE495E052
:102D000068E50E94D11A8BE495E060E20E94D11A36
:102D10008BE495E066E40E94D11A8BE495E060E2D2
:102D20000E94D11A8BE495E068EA71E00BC0C701FC
:102D300060E070E00E947B1E863539F48BE495E0FC
:102D400068ED71E00E940F1C4AC0C70160E070E0AE
:102D50000E947B1E8235A1F480917A0590917B05BB
:102D6000009711F48EE795E0BE016F5F7F4F681BFF
:102D7000790B8BE495E04AE050E00E94ED1B2FC0F8
:102D8000C70160E070E00E947B1E893671F48E01FD
:102D90000D5F1F4FC801B7010E945D21C8010E944D
:102DA000F714C8010E9468211AC0C70160E070E0F2
:102DB0000E947B1E843799F0C70160E070E00E949A
:102DC0007B1E883519F40E94971409C0C70160E082
:102DD00070E00E947B1E863411F40E94C113299674
:102DE0000FB6F894DEBF0FBECDBFCF91DF911F911C
:102DF0000F91FF90EF9008950F931F93DF93CF9360
:102E0000CDB7DEB727970FB6F894DEBF0FBECDBFA4
:102E10008E010F5F1F4F26C08BE495E00E94921930
:102E2000682F8A3049F08B301CF4882329F016C0B3
:102E30008D3011F0833291F4C80165E972E00E948F
:102E40005D21C8010E943516C8010E94682185E9EC
:102E500092E068EA71E00E94772004C085E992E080
:102E60000E94FF1F8BE495E00E946119892BA1F657
:102E700027960FB6F894DEBF0FBECDBFCF91DF917E
:102E80001F910F910895EF92FF920F931F938091DE
:102E9000AD048823A1F48DEA94E00E94701A892B76
:102EA00071F00E94411D6093BB047093BC04809339
:102EB000BD049093BE048DEA94E00E947A1A0E94A9
:102EC000411D6093BF047093C0048093C10490932C
:102ED000C20482E00E944B1EBC012091BF043091CD
:102EE000C0044091C1045091C2048091BB049091F0
:102EF000BC04A091BD04B091BE0479018A01E81A16
:102F0000F90A0A0B1B0BD801C701E092B704F09233
:102F1000B8040093B9041093BA042093BB0430930F
:102F2000BC044093BD045093BE0484369105A105B2
:102F3000B1050CF181300DE7900700E0A00700E03B
:102F4000B00714F081E09DE79093B6048093B50438
:102F5000672B59F08091B5049091B60490958195B6
:102F60009F4F9093B6048093B50486E892E065EB9A
:102F700074E00E94EE061F910F91FF90EF9008956C
:102F8000FF920F931F93DF93CF9300D0CDB7DEB79F
:102F90008E010F5F1F4FFF24F39409C08CE992E06C
:102FA000B8010E94450A882311F0F092940286E845
:102FB00092E0B8010E943907882381F70F900F90A3
:102FC000CF91DF911F910F91FF9008958BE495E0D1
:102FD00040E051EE60E070E00E94DA1882E060E0CC
:102FE0000E94AC1D8BE061E00E94AC1D8DE061E0B1
:102FF0000E94AC1D80E1809381001092800082E0ED
:103000008093830288EA91E6909382028093810202
:10301000909387008093860082E18093810084E50D
:1030200094E1909385028093840281E080936F0005
:10303000ACEBB3E0E6E6F2E088E001900D9281505F
:10304000E1F7A4ECB3E0EEE5F2E088E001900D9248
:103050008150E1F7ACECB3E0E6E5F2E088E0019006
:103060000D928150E1F7A4EDB3E0EEE4F2E088E0E8
:1030700001900D928150E1F7ACEDB3E0E6E4F2E0AF
:1030800088E001900D928150E1F785E08093AC04D7
:103090000E948F1485E992E064E170E00E942B1F8A
:1030A00008951F920F920FB60F9211242F933F9302
:1030B0004F938F939F93EF93FF938091C00082FD76
:1030C0001DC04091C60020910305309104052F5F7B
:1030D0003F4F2F733070809105059091060528179A
:1030E000390771F0E0910305F0910405ED53FB4FB2
:1030F0004083309304052093030502C08091C600ED
:10310000FF91EF919F918F914F913F912F910F9050
:103110000FBE0F901F901895E0915705F09158053C
:10312000E05CFF4F8191919120813181821B930B53
:103130008F739070892B11F00E94FC1608951F92D6
:103140000F920FB60F9211242F933F938F939F935B
:10315000EF93FF93209147053091480580914905F1
:1031600090914A052817390731F48091C1008F7D6D
:103170008093C10014C0E0914905F0914A05E95FD0
:10318000FA4F20818091490590914A0501968F73ED
:10319000907090934A05809349052093C600FF9153
:1031A000EF919F918F913F912F910F900FBE0F90B4
:1031B0001F901895AF92BF92DF92EF92FF920F93FC
:1031C0001F93CF93DF93EC017A018B01DD24403014
:1031D00081EE580780E0680780E0780711F0DD2471
:1031E000D39491E0A92EB12CEC89FD89DD2069F002
:1031F000C50108A002C0880F991F0A94E2F78083D6
:1032000060E079E08DE390E005C0108260E874E84A
:103210008EE190E0A80197010E94B7232150304031
:1032200040405040569547953795279580E120308E
:10323000380720F0DD2011F0DD24D6CFE889F989A8
:103240003083EA89FB89208319A2EE89FF894081B6
:1032500021E030E0C9010C8C02C0880F991F0A944C
:10326000E2F7482B4083EE89FF894081C9010D8C2C
:1032700002C0880F991F0A94E2F7482B4083EE8919
:10328000FF894081C9010E8C02C0880F991F0A94E2
:10329000E2F7482B4083EE89FF8980810F8C02C0C2
:1032A000220F331F0A94E2F7209528232083DF9111
:1032B000CF911F910F91FF90EF90DF90BF90AF9053
:1032C0000895DC011C96ED91FC911D97E05CFF4F89
:1032D0002191319180819181281B390B2F7330709E
:1032E000C9010895DC011C96ED91FC911D97E05CED
:1032F000FF4F20813181E054F040DF01AE5BBF4FD2
:103300008D919C9111972817390719F42FEF3FEFF2
:1033100007C08D919C91E80FF91F8081282F30E024
:10332000C9010895DC011C96ED91FC911D97E05CAC
:10333000FF4F20813181E054F040DF01AE5BBF4F91
:103340008D919C9111972817390719F42FEF3FEFB2
:1033500010C08D919C911197E80FF91F20818D91DC
:103360009C91119701968F73907011969C938E93F8
:1033700030E0C9010895DC0191968C9191978823E2
:1033800039F05496ED91FC915597808186FFF9CFE5
:1033900091961C920895CF93DF93EC01EE85FF8503
:1033A000E05CFF4F20813181E054F0402F5F3F4FC0
:1033B0002F733070DF01AE5BBF4F8D919C911197E1
:1033C00028173907D1F3E05CFF4F80819181E054E9
:1033D000F040E80FF91F6083EE85FF85E05CFF4F4A
:1033E00031832083EE89FF89208181E090E00F8C7A
:1033F00002C0880F991F0A94E2F7282B208381E0EE
:1034000089A3EC89FD8980818064808381E090E0DC
:10341000DF91CF91089510924E0510924D0588EEE0
:1034200093E0A0E0B0E080934F0590935005A09307
:103430005105B093520582E792E090934C0580933A
:103440004B0583EC94E0909358058093570587E0F3
:1034500095E090935A058093590585EC90E0909300
:103460005C0580935B0584EC90E090935E0580930F
:103470005D0580EC90E09093600580935F0581ECA2
:1034800090E0909362058093610582EC90E09093C8
:1034900064058093630586EC90E0909366058093C5
:1034A000650584E08093670583E08093680587E085
:1034B0008093690585E080936A0581E080936B05C0
:1034C0000895CF93DF930E94711D0E94E617CCE808
:1034D000D8E10E94C0172097E1F30E948C18F9CF21
:1034E000FC0120E030E08081882311F421E030E00D
:1034F000C9010895FC0181E0808308950E945B0169
:1035000008950E94B1000895CF92DF92EF92FF924A
:103510000F931F93CF93DF937C016B018A01C0E06F
:10352000D0E00FC0D6016D916D01D701ED91FC91F6
:103530000190F081E02DC7010995C80FD91F0150F6
:1035400010400115110571F7CE01DF91CF911F9148
:103550000F91FF90EF90DF90CF900895EF92FF9240
:103560000F931F93CF93DF937C018B01C0E0D0E0DA
:10357000F8010F5F1F4F6491662359F0D701ED9159
:10358000FC910190F081E02DC7010995C80FD91F6A
:10359000EFCFCE01DF91CF911F910F91FF90EF9070
:1035A0000895DC01ED91FC910190F081E02D0995E9
:1035B0000895EF92FF920F931F938C01DC01ED9120
:1035C000FC910190F081E02D6DE009957C01D8011E
:1035D000ED91FC910190F081E02DC8016AE0099520
:1035E0009C012E0D3F1DC9011F910F91FF90EF907F
:1035F0000895CF93DF93EC016115710519F420E074
:1036000030E00FC0DB010D900020E9F71197A61BF9
:10361000B70BE881F9810280F381E02DAD010995B6
:103620009C01C901DF91CF9108954F925F927F92E3
:103630008F929F92AF92BF92CF92DF92EF92FF92C2
:103640000F931F93DF93CF93CDB7DEB7A1970FB63C
:10365000F894DEBF0FBECDBF2C01742ECB012230FB
:1036600008F42AE019A231E2C32ED12CCC0EDD1EC3
:10367000822E9924AA24BB24672D752FA5019401BD
:103680000E94B72379018A01C801B701A5019401FD
:103690000E948523472D461B0894C108D1084A3053
:1036A00014F4405D01C0495CF6014083E114F1046B
:1036B0000105110521F07E2C5F2DC801DDCFC2016F
:1036C000B6010E94F91AA1960FB6F894DEBF0FBE9C
:1036D000CDBFCF91DF911F910F91FF90EF90DF90C1
:1036E000CF90BF90AF909F908F907F905F904F90C2
:1036F0000895DC012115310541F4ED91FC91019013
:10370000F081E02D642F099508950E94151B0895FE
:10371000EF92FF920F931F939A01E62EFF2400E091
:1037200010E0B801A7010E94791B1F910F91FF9033
:10373000EF900895CF92DF92EF92FF920F931F9335
:10374000CF93DF93EC016A017B012115310541F430
:10375000E881F9810190F081E02D642F09951FC067
:103760002A303105D1F477FF17C0E881F981019043
:10377000F081E02D6DE209958C0144275527BA01AF
:103780004C195D096E097F09CE012AE00E94151BC4
:103790009801280F391F04C02AE00E94151B9C01C4
:1037A000C901DF91CF911F910F91FF90EF90DF90B2
:1037B000CF900895EF92FF920F931F937B019A0190
:1037C0000027F7FC0095102FB801A7010E949A1B53
:1037D0001F910F91FF90EF900895CF92DF92EF929B
:1037E000FF920F931F936C017B019A010027F7FC56
:1037F0000095102FB801A7010E949A1B8C01C601E9
:103800000E94D91A080F191FC8011F910F91FF902C
:10381000EF90DF90CF9008950E94F91A0895EF92EB
:10382000FF920F931F937C010E94F91A8C01C7012C
:103830000E94D91A080F191FC8011F910F91FF90FC
:10384000EF900895AF92BF92CF92DF92EF92FF92E6
:103850000F931F93CF93DF935C016B01EE24FF2442
:10386000C0E0D0E010C0D501ED91FC910081118144
:10387000C601BE010E948C1E682FC501F801099582
:10388000E80EF91E2196F60184819581C817D907A3
:1038900050F3C701DF91CF911F910F91FF90EF90EF
:1038A000DF90CF90BF90AF900895EF92FF920F936B
:1038B0001F937C010E94221C8C01C7010E94D91A0F
:1038C0009C01200F311FC9011F910F91FF90EF90B4
:1038D0000895823000F5E82FF0E0EE0FFF1FE35966
:1038E000FA4F71836083882319F08130A1F408C0F6
:1038F000809169008C7F842B80936900E89A0895F9
:1039000080916900440F551F440F551F837F842BFE
:1039100080936900E99A0895823080F4882319F031
:10392000813021F402C0E89801C0E998E82FF0E066
:10393000EE0FFF1FE359FA4F1182108208951F9274
:103940000F920FB60F9211242F933F934F935F93D3
:103950006F937F938F939F93AF93BF93EF93FF9357
:1039600080916D0590916E05892B29F0E0916D0590
:10397000F0916E050995FF91EF91BF91AF919F91E5
:103980008F917F916F915F914F913F912F910F9008
:103990000FBE0F901F9018951F920F920FB60F92A7
:1039A00011242F933F934F935F936F937F938F9344
:1039B0009F93AF93BF93EF93FF9380916F05909187
:1039C0007005892B29F0E0916F05F091700509953C
:1039D000FF91EF91BF91AF919F918F917F916F91E7
:1039E0005F914F913F912F910F900FBE0F901F90BD
:1039F00018951F920F920FB60F9211242F933F9399
:103A00008F939F93AF93BF938091750590917605A7
:103A1000A0917705B0917805309179050196A11DA7
:103A2000B11D232F2D5F2D3720F02D570196A11D9D
:103A3000B11D209379058093750590937605A09329
:103A40007705B09378058091710590917205A091EA
:103A50007305B09174050196A11DB11D8093710588
:103A600090937205A0937305B0937405BF91AF91C5
:103A70009F918F913F912F910F900FBE0F901F90AC
:103A800018959FB7F8942091710530917205409177
:103A900073055091740586B5A89B06C08F3F21F031
:103AA0002F5F3F4F4F4F5F4F9FBF542F432F322FFA
:103AB0002227280F311D411D511D82E0220F331F87
:103AC000441F551F8A95D1F7B901CA01089501977E
:103AD00039F0880F991F880F991F02970197F1F706
:103AE0000895789484B5826084BD84B5816084BD76
:103AF00085B5826085BD85B5816085BDEEE6F0E067
:103B0000808181608083E1E8F0E0108280818260C2
:103B10008083808181608083E0E8F0E08081816043
:103B20008083E1EBF0E0808184608083E0EBF0E073
:103B3000808181608083EAE7F0E080818460808317
:103B400080818260808380818160808380818068C1
:103B500080831092C1000895CF93DF93482F50E0E7
:103B6000CA0189559F4FFC0134914D565F4FFA01B0
:103B70008491882369F190E0880F991FFC01EB582C
:103B8000FF4FA591B491FC01E158FF4FC591D4912D
:103B9000662351F42FB7F8948C91932F9095892335
:103BA0008C93888189230BC0623061F42FB7F8941D
:103BB0008C91932F909589238C938881832B888374
:103BC0002FBF06C09FB7F8948C91832B8C939FBF17
:103BD000DF91CF910895833071F0843028F48130E3
:103BE000A1F0823021F514C08630B1F08730D1F0D9
:103BF0008430E9F404C0809180008F7703C0809105
:103C000080008F7D80938000089584B58F7702C0F7
:103C100084B58F7D84BD08958091B0008F778093A7
:103C2000B00008958091B0008F7D8093B00008951A
:103C3000FF920F931F93F62E482F50E0CA01855430
:103C40009F4FFC012491CA0189559F4FFC0114919B
:103C50004D565F4FFA0104910023C9F0222319F059
:103C6000822F0E94EB1DE02FF0E0EE0FFF1FE158C6
:103C7000FF4FA591B4919FB7F894FF2021F48C9148
:103C80001095812302C08C91812B8C939FBF1F9133
:103C90000F91FF9008950F931F93482F50E0CA0192
:103CA00085549F4FFC012491CA0189559F4FFC0107
:103CB00004914D565F4FFA011491112319F420E03D
:103CC00030E015C0222319F0822F0E94EB1D812FB6
:103CD00090E0880F991F87579F4FFC01A591B491E1
:103CE0008C9120E030E0802311F021E030E0C90128
:103CF0001F910F910895FC018481958168177907C0
:103D000048F40190F081E02D309721F0E60FF71F85
:103D10008081089580E00895FC0184819581681771
:103D2000790748F40190F081E02D309721F0E60FFB
:103D3000F71F8081089580E00895FC0180819181C2
:103D4000009729F420E030E040E050E004C00E94F9
:103D5000A6029B01AC01B901CA0108950F931F93FC
:103D6000CF93DF93FC018B0141155105F9F06115EB
:103D70007105E1F0848195812817390718F0FB015E
:103D8000108214C041505040EC01C21BD30B4C17A1
:103D90005D0708F4EA0160817181620F731FC80139
:103DA000AE010E940903C00FD11F1882DF91CF918D
:103DB0001F910F910895FC01DB0114962D913C9108
:103DC000159784819581821B930B84179507A0F02A
:103DD00080819181009781F06D917C9161157105D1
:103DE00059F0840F951FA9010E94FB029C0180E0FD
:103DF000232B19F481E0089580E00895FC01DB0194
:103E00002481358114968D919C9115972817390737
:103E100010F480E00895CF0140E050E00E94DB1EE6
:103E200008950F931F93CF93DF93EC018B016F5F86
:103E30007F4F888199810E94B301009711F480E03F
:103E400005C0998388831B830A8381E0DF91CF912A
:103E50001F910F910895CF93DF93EC018881998191
:103E6000892B29F08A819B818617970760F4CE0100
:103E70000E94111F882341F08C819D81892B19F4A8
:103E8000E881F981108281E0DF91CF910895EF926E
:103E9000FF920F931F93CF93DF93EC017B016C8113
:103EA0007D81E114F104C1F04115510599F08A01B9
:103EB000060F171FB8010E942B1F882369F0888105
:103EC00099812C813D81820F931FB7010E94F402DA
:103ED0001D830C8381E001C080E0DF91CF911F91B1
:103EE0000F91FF90EF900895EF92FF920F931F9321
:103EF000DF93CF9300D000D000D0CDB7DEB77C01E8
:103F0000CB018E010F5F1F4FB8014AE050E00E94C5
:103F10008803F80101900020E9F73197E01BF10BCD
:103F2000C701B801AF010E94471F26960FB6F8944B
:103F3000DEBF0FBECDBFCF91DF911F910F91FF90DC
:103F4000EF900895EF92FF920F931F93DF93CF931B
:103F5000CDB7DEB727970FB6F894DEBF0FBECDBF43
:103F60007C01CB018E010F5F1F4FB8014AE050E08A
:103F70000E944A03F80101900020E9F73197E01B05
:103F8000F10BC701B801AF010E94471F27960FB67A
:103F9000F894DEBF0FBECDBFCF91DF911F910F917F
:103FA000FF90EF900895EF92FF920F931F93DF938E
:103FB000CF9300D000D0CDB7DEB77C01862F90E044
:103FC0008E010F5F1F4FB8014AE050E00E944A0384
:103FD000F80101900020E9F73197E01BF10BC701D0
:103FE000B801AF010E94471F0F900F900F900F90E4
:103FF000CF91DF911F910F91FF90EF900895DF9384
:10400000CF9300D0CDB7DEB769831A82BE016F5F50
:104010007F4F41E050E00E94471F0F900F90CF91DB
:10402000DF9108956115710511F480E00895DB01B9
:104030000D900020E9F71197A61BB70BAD010E9468
:10404000471F0895FB0160817181448155810E9461
:10405000471F0895CF93DF93EC01888199810097E2
:1040600011F00E945B01198218821D821C821B8242
:104070001A82DF91CF910895EF92FF920F931F93D1
:10408000CF93DF93EC017B018A01BA010E942B1FC1
:10409000882321F4CE010E942A2007C01D830C83AF
:1040A00088819981B7010E94F402CE01DF91CF91FE
:1040B0001F910F91FF90EF900895CF93DF93EC0144
:1040C000198218821B821A821D821C821E8261152F
:1040D000710551F0DB010D900020E9F71197A61B47
:1040E000B70BAD010E943C20DF91CF9108950F9353
:1040F0001F93182F092F6115710559F0DB010D90E1
:104100000020E9F71197A61BB70BAD010E943C20D8
:1041100002C00E942A20812F902F1F910F91089595
:10412000EF92FF920F931F93DF93CF93CDB7DEB73C
:1041300062970FB6F894DEBF0FBECDBF8C01CB01E6
:10414000F801118210821382128215821482168263
:104150007E010894E11CF11CB70150E00E944A0363
:10416000C801B7010E94772062960FB6F894DEBFAF
:104170000FBECDBFCF91DF911F910F91FF90EF90B8
:104180000895EF92FF920F931F93DF93CF93CDB7D4
:10419000DEB729970FB6F894DEBF0FBECDBF8C01F6
:1041A000862FF801118210821382128215821482E6
:1041B000168290E07E010894E11CF11CB70150E0EA
:1041C0000E948803C801B7010E94772029960FB684
:1041D000F894DEBF0FBECDBFCF91DF911F910F913D
:1041E000FF90EF900895BF92CF92DF92EF92FF92EF
:1041F0000F931F93CF93DF93082FB92E6B017A0192
:10420000E9012417350710F4EA017901802F9B2D6D
:104210006FE072E00E945D20D60114968D919C9112
:1042200015978E159F05D0F08C179D0708F4EC01AB
:10423000D601ED91FC911197EC0FFD1F10811082BA
:104240006D917C916E0D7F1D802F9B2D0E9477209C
:10425000D601ED91FC91EC0FFD1F1083802F9B2D5B
:10426000DF91CF911F910F91FF90EF90DF90CF9052
:10427000BF9008950F931F938C01FB01248135811A
:104280000E94F320C8011F910F910895CF93DF93EF
:10429000EC01FB018617970761F060817181611560
:1042A000710529F0448155810E943C2002C00E9482
:1042B0002A20CE01DF91CF910895FC011182108256
:1042C000138212821582148216820E94462108955A
:1042D000FC01808191810E945B0108955058BB27A9
:1042E000AA270ED071C162D130F067D120F031F42D
:1042F0009F3F11F41EF457C10EF4E095E7FB4DC14A
:10430000E92F73D180F3BA17620773078407950703
:1043100018F071F49EF58BC10EF4E0950B2EBA2FB8
:10432000A02D0B01B90190010C01CA01A0011124BB
:10433000FF27591B99F0593F50F4503E68F11A1667
:10434000F040A22F232F342F4427585FF3CF4695F8
:1043500037952795A795F0405395C9F77EF41F161A
:10436000BA0B620B730B840BBAF09150A1F0FF0FE4
:10437000BB1F661F771F881FC2F70EC0BA0F621FD0
:10438000731F841F48F4879577956795B795F795C0
:104390009E3F08F0B3CF9395880F08F09927EE0F52
:1043A0009795879508950CD00FC107D140F0FED0A6
:1043B00030F021F45F3F19F0F0C0511139C1F3C062
:1043C00014D198F39923C9F35523B1F3951B550BD9
:1043D000BB27AA2762177307840738F09F5F5F4FD8
:1043E000220F331F441FAA1FA9F333D00E2E3AF019
:1043F000E0E830D091505040E695001CCAF729D033
:10440000FE2F27D0660F771F881FBB1F2617370781
:104410004807AB07B0E809F0BB0B802DBF01FF27B1
:1044200093585F4F2AF09E3F510568F0B6C000C117
:104430005F3FECF3983EDCF3869577956795B795EB
:10444000F7959F5FC9F7880F911D9695879597F906
:104450000895E1E0660F771F881FBB1F621773077F
:104460008407BA0720F0621B730B840BBA0BEE1F94
:1044700088F7E095089504D06894B111D9C00895E3
:10448000BCD088F09F5790F0B92F9927B751A0F072
:10449000D1F0660F771F881F991F1AF0BA95C9F7D8
:1044A00012C0B13081F0C3D0B1E00895C0C0672F11
:1044B000782F8827B85F39F0B93FCCF38695779588
:1044C0006795B395D9F73EF4909580957095619571
:1044D0007F4F8F4F9F4F0895E89409C097FB3EF49C
:1044E00090958095709561957F4F8F4F9F4F992341
:1044F000A9F0F92F96E9BB279395F69587957795BF
:104500006795B795F111F8CFFAF4BB0F11F460FF7E
:104510001BC06F5F7F4F8F4F9F4F16C0882311F0D6
:1045200096E911C0772321F09EE8872F762F05C0EA
:10453000662371F096E8862F70E060E02AF09A9585
:10454000660F771F881FDAF7880F9695879597F97A
:104550000895990F0008550FAA0BE0E8FEEF161614
:104560001706E807F907C0F012161306E407F50767
:1045700098F0621B730B840B950B39F40A2661F0DB
:10458000232B242B252B21F408950A2609F4A1407E
:10459000A6958FEF811D811D089597F99F6780E88B
:1045A00070E060E008959FEF80EC089500240A9485
:1045B0001616170618060906089500240A941216FE
:1045C0001306140605060895092E0394000C11F431
:1045D000882352F0BB0F40F4BF2B11F460FF04C0DE
:1045E0006F5F7F4F8F4F9F4F089557FD9058440F37
:1045F000551F59F05F3F71F04795880F97FB991F42
:1046000061F09F3F79F087950895121613061406FE
:10461000551FF2CF4695F1DF08C01616170618068B
:10462000991FF1CF86957105610508940895E89466
:10463000BB2766277727CB0197F908958ADF08F40F
:104640008FEF08950BD0C0CFB1DF28F0B6DF18F0A0
:10465000952309F0A2CFA7CF1124EACFC6DFA0F39C
:10466000959FD1F3950F50E0551F629FF001729F07
:10467000BB27F00DB11D639FAA27F00DB11DAA1F26
:10468000649F6627B00DA11D661F829F2227B00D73
:10469000A11D621F739FB00DA11D621F839FA00DFE
:1046A000611D221F749F3327A00D611D231F849F4E
:1046B000600D211D822F762F6A2F11249F575040A5
:1046C0008AF0E1F088234AF0EE0FFF1FBB1F661F40
:1046D000771F881F91505040A9F79E3F510570F0F9
:1046E0005CCFA6CF5F3FECF3983EDCF386957795E1
:1046F0006795B795F795E7959F5FC1F7FE2B880FF4
:10470000911D9695879597F90895629FD001739FA3
:10471000F001829FE00DF11D649FE00DF11D929F5D
:10472000F00D839FF00D749FF00D659FF00D99279C
:10473000729FB00DE11DF91F639FB00DE11DF91FC0
:10474000BD01CF011124089597FB092E07260AD039
:1047500077FD04D02ED006D000201AF47095619514
:104760007F4F0895F6F7909581959F4F0895A1E2A8
:104770001A2EAA1BBB1BFD010DC0AA1FBB1FEE1FDB
:10478000FF1FA217B307E407F50720F0A21BB30B26
:10479000E40BF50B661F771F881F991F1A9469F7A2
:1047A00060957095809590959B01AC01BD01CF01FE
:1047B0000895AA1BBB1B51E107C0AA1FBB1FA61768
:1047C000B70710F0A61BB70B881F991F5A95A9F7BA
:1047D00080959095BC01CD010895EE0FFF1F0590C7
:1047E000F491E02D09942F923F924F925F926F9235
:1047F0007F928F929F92AF92BF92CF92DF92EF9271
:10480000FF920F931F93CF93DF93CDB7DEB7CA1BF1
:10481000DB0B0FB6F894DEBF0FBECDBF09942A881C
:10482000398848885F846E847D848C849B84AA84C4
:10483000B984C884DF80EE80FD800C811B81AA8151
:10484000B981CE0FD11D0FB6F894DEBF0FBECDBF1C
:10485000ED01089510E0C4EDD0E004C0FE010E9417
:0E486000EF232296C63DD107C9F7F894FFCF8B
:10486E000041530025303258003030003000433DB7
:10487E00004C4C3D004C483D00534C3D0053483DD0
:10488E00003D00443D0043503D0053503D004D431C
:10489E000050004D550053796E633A2000202D3E96
:1048AE002053796E63466163743A20002C20436C6A
:1048BE006F636B3A20002C20546F6C3A20002C2032
:1048CE00506174744C656E3A200020002C20507597
:1048DE006C73653A20002C20002C206D537461728D
:1048EE00743A20005369676E616C3A20002E2000E6
:1048FE00205B005D005061747465726E3A2000207A
:10490E0050003A20002A5B00005550442046696C46
:10491E00746572003B433D003B53463D003B0069CE
:10492E0074006972006973006970004954506172B5
:10493E00616D733A200020005620332E312E332025
:10494E005349474E414C6475696E6F202D20636F3D
:10495E006D70696C6564206174204A756C20323705
:10496E0020323031352032323A33353A343200008B
:10497E0020007E050000063CA40100000000A90FE7
:10498E00A608A708CC1000000000A90FA608A708CB
:10499E00300A000000003F08A608A708A80800007B
:1049AE000000000002000000F60E01000000FF03F0
:1049BE00E2FFFF0001000000000000000200000006
:1049CE00F53002000000FCF8EEF4010000000000DB
:0E49DE000000CB19841A611992197219BB19C5
:00000001FF
