:100000000C946B000C94421C0C946F1C0C94930089
:100010000C9493000C9493000C9493000C94930014
:100020000C9493000C9493000C9493000C94930004
:100030000C9493000C94C8120C9493000C949300AD
:100040000C949C1C0C9493000C94F4170C94421880
:100050000C9493000C9493000C9493000C949300D4
:100060000C9493000C94930020557365206F6E657B
:10007000206F66200000000000240027002A0000F6
:10008000000000250028002B0000000000230026AF
:10009000002900040404040404040402020202020D
:1000A000020303030303030102040810204080013C
:1000B00002040810200102040810200000000700BC
:1000C0000201000003040600000000000000000020
:1000D0001913AE19121311241FBECFEFD8E0DEBFE3
:1000E000CDBF12E0A0E0B1E0E4EBF7E402C0059080
:1000F0000D92AE38B107D9F715E0AEE8B2E001C015
:100100001D92A939B107E1F710E0C4EDD0E004C0B9
:100110002297FE010E949223C03DD107C9F70E9499
:10012000041A0C94CD230C9400000F931F93CF93CB
:10013000DF93689F8001699F100D789F100D112437
:10014000C8010E94B100EC01009729F060E070E066
:10015000A8010E94ED02CE01DF91CF911F910F9176
:100160000895CF93DF93BC018230910510F462E0D3
:1001700070E0A0919705B0919805ED01E0E0F0E006
:1001800040E050E021C0888199818617970769F483
:100190008A819B81309719F09383828304C0909366
:1001A000980580939705FE0134C06817790738F4E5
:1001B0004115510519F08417950708F4AC01FE01AB
:1001C0008A819B819C01E9012097E9F6411551053F
:1001D000A9F1CA01861B970B049708F4BA01E0E065
:1001E000F0E02AC08D919C91119784179507F9F43E
:1001F0006417750781F412968D919C91139730972F
:1002000019F09383828304C0909398058093970597
:10021000FD0132964CC0CA01861B970BFD01E80F09
:10022000F91F6193719302978D939C9340C0FD01D8
:10023000828193819C01D9011097A1F68091950547
:1002400090919605892B41F480912202909123028E
:100250009093960580939505409124025091250234
:100260004115510541F44DB75EB780912002909140
:100270002102481B590B2091950530919605CA0122
:10028000821B930B8617970780F0AB014E5F5F4F81
:100290008417950750F0420F531F509396054093D3
:1002A0009505F9016193719302C0E0E0F0E0CF01A0
:1002B000DF91CF910895CF93DF93009709F450C059
:1002C000EC0122971B821A82A0919705B0919805A4
:1002D000109709F140E050E0AC17BD0708F1BB836F
:1002E000AA83FE0121913191E20FF31FAE17BF07E0
:1002F00079F48D919C911197280F391F2E5F3F4FF4
:100300003983288312968D919C9113979B838A83BE
:100310004115510571F4D0939805C093970520C0FD
:1003200012968D919C911397AD01009711F0DC010D
:10033000D3CFFA01D383C28321913191E20FF31F0E
:10034000CE17DF0769F488819981280F391F2E5F46
:100350003F4FFA01318320838A819B81938382837B
:10036000DF91CF910895A0E0B0E0E9EBF1E00C94CB
:1003700098236C01009729F4CB010E94B1006C0115
:10038000C1C08EEF882E8FEF982E8C0C9D1C86019D
:10039000060F171F0815190508F4B2C0F401A08153
:1003A000B181A617B707B8F0A530B10508F4AAC007
:1003B000CD0104978617970708F4A4C01297A61BCF
:1003C000B70BF801A193B193D4016D937C93CF0146
:1003D0000E945B0197C07B01EA1AFB0AEEEFFFEF78
:1003E000EE0EFF1E36016A0E7B1EC0919705D0915E
:1003F000980544245524AA24BB244AC0C615D70511
:10040000E1F5488159814E155F05B8F1CA0104979D
:100410008E159F05B0F41296A40FB51FF401B18399
:10042000A0832A813B814114510431F0D2011396FB
:100430003C932E93129766C03093980520939705AE
:1004400061C08A819B81F80193838283425050402E
:100450004E195F09518340834114510431F0D20198
:1004600013961C930E93129704C010939805009353
:100470009705F4017183608345C088819981A8162E
:10048000B90608F45C012E018A819B819C01E90177
:10049000209709F0B3CF8091950590919605861528
:1004A0009705E9F4A616B706D0F4209124023091FE
:1004B00025022115310541F42DB73EB78091200268
:1004C00090912102281B390B02171307C8F41093CF
:1004D000960500939505D4016D937C9313C0CB01D1
:1004E0000E94B100EC01009759F0F4014081518164
:1004F000B6010E94D202C6010E945B016E0102C0D9
:10050000CC24DD24C601CDB7DEB7E0E10C94B423E2
:10051000FC0188279927E89421912032E9F32930BA
:1005200010F02E30C8F32B3241F02D3239F468949C
:1005300004C00E948003820F911D219120532A3014
:10054000C0F31EF4909581959F4F08951F93FC0171
:1005500099278827BC01E89411911032E9F31930EA
:1005600010F01E30C8F31B3251F01D3249F468946C
:1005700006C00E946B03610F711D811D911D1191B9
:1005800010531A30B0F33EF49095809570956195B4
:100590007F4F8F4F9F4F1F9108954EE852E00E946A
:1005A00018030895FB01DC0102C001900D92415037
:1005B0005040D8F708956817790768F4FB01DC010B
:1005C000E40FF51FA40FB51F02C002900E92415018
:1005D0005040D8F708950C94D202DC0101C06D930D
:1005E00041505040E0F70895FB01DC0101900D926D
:1005F0000020E1F70895FB01DC014150504030F04C
:100600008D910190801919F40020B9F7881B990B7E
:100610000895FB01DC014150504048F001900D92DB
:100620000020C9F701C01D9241505040E0F70895E5
:10063000009731F4DA018D919C91009709F40EC076
:10064000DC01FB013D912191222319F03217C9F3FE
:10065000FACF332331F4DA011D921C9288279927AF
:1006600008951197AF93BF93FB013D9121913217EC
:1006700071F4332321F488279927119702C01E9221
:100680001196FA01A193B0839F918F91089522232F
:1006900069F7EACFFB019F01E8944230C4F045328C
:1006A000B4F44A3029F497FB1EF4909581959F4F3E
:1006B000642F77270E947C23805D8A330CF0895D4C
:1006C0008193CB010097A1F716F45DE2519310825C
:1006D000C9010C94B505592F482F372F262F660FC7
:1006E000771F881F991F660F771F881F991F620F3A
:1006F000731F841F951F660F771F881F991F08950A
:100700007AE0979F902D879F802D910D1124089559
:10071000FB019F01423074F0453264F4642F772767
:100720000E947C23805D8A330CF0895D8193CB012C
:100730000097A1F71082C9010C94B505AEE0B0E0B6
:10074000E4EAF3E00C94A4230D891E8986E08C83EF
:100750001A8309838FEF9FE79E838D839E01275E17
:100760003F4FCE0101966F89788DA9010E94C20387
:100770002F813885020F131FF80110822E96E4E0B6
:100780000C94C023ABE0B0E0E8ECF3E00C949623CB
:100790003C012B015A01FC0117821682838181FDE5
:1007A00003C06FEF7FEFC6C19AE0892E1E01089447
:1007B000211C311CF3012381F20123FD859123FFCC
:1007C00081912F01882309F4B2C1853239F423FDC8
:1007D000859123FF81912F01853229F490E0B301A7
:1007E0000E94C505E7CF982FFF24EE249924FFE14E
:1007F000FF15D0F09B3269F09C3228F4903259F00A
:10080000933291F40EC09D3249F0903369F441E087
:1008100024C052E0F52A84E0F82A28C098E0F92A9A
:1008200025C0E0E1FE2A22C0F7FC29C0892F8053B1
:100830008A3070F4F6FE05C0989C902C1124980E16
:1008400015C0E89CE02C1124E80EF0E2FF2A0EC04F
:100850009E3229F4F6FC6BC140E4F42A07C09C36B2
:1008600019F450E8F52A02C0983649F4F20123FD44
:10087000959123FF91912F01992309F0B8CF892FEA
:100880008554833018F08052833038F444E050E0CF
:10089000A40EB51E5FE359830FC0933631F0933732
:1008A00079F0933509F056C020C0F5018081898325
:1008B00042E050E0A40EB51E610101E010E012C05C
:1008C000F501C080D180F6FC03C06FEF7FEF02C05E
:1008D000692D70E042E050E0A40EB51EC6010E94F2
:1008E000AA058C015FE7F52214C0F501C080D18014
:1008F000F6FC03C06FEF7FEF02C0692D70E042E0AD
:1009000050E0A40EB51EC6010E949F058C0150E860
:10091000F52AF3FE07C01AC080E290E0B3010E94FE
:10092000C505EA948E2D90E008171907A8F30EC0AC
:10093000F601F7FC8591F7FE81916F0190E0B3011C
:100940000E94C505E110EA940150104001151105FF
:1009500079F7EAC0943611F0993669F5F7FE08C0C8
:10096000F501208131814281538184E090E00AC009
:10097000F501808191819C01442737FD4095542FDA
:1009800082E090E0A80EB91E9FE6F92257FF09C049
:1009900050954095309521953F4F4F4F5F4FE0E880
:1009A000FE2ACA01B901A1012AE030E00E94F10546
:1009B000D82ED21840C0953729F41F2D1F7E2AE06B
:1009C00030E01DC01F2D197F9F3661F0903720F455
:1009D000983509F0ACC00FC0903739F0983709F05E
:1009E000A6C004C028E030E00AC0106114FD146005
:1009F00020E130E004C014FD166020E132E017FF72
:100A000008C0F501608171818281938144E050E0EA
:100A100008C0F50180819181BC0180E090E042E056
:100A200050E0A40EB51EA1010E94F105D82ED218E7
:100A30008FE7F82EF122F6FE0BC05EEFF522D914F7
:100A400038F4F4FE07C0F2FC05C08FEEF82202C0B5
:100A50001D2D01C0192DF4FE0DC0FE01ED0DF11D7F
:100A60008081803319F499EEF92208C01F5FF2FEED
:100A700005C003C08F2D867809F01F5F0F2DF3FC92
:100A800014C0F0FE0FC01E1510F09D2C0BC09D2C45
:100A90009E0C911A1E2D06C080E290E0B3010E94C8
:100AA000C5051F5F1E15C0F304C01E1510F4E11A22
:100AB00001C0EE2404FF0FC080E390E0B3010E9468
:100AC000C50502FF1DC001FD03C088E790E00EC010
:100AD00088E590E00BC0802F867891F001FF02C07E
:100AE0008BE201C080E2F7FC8DE290E0B3010E944E
:100AF000C50506C080E390E0B3010E94C5059A9445
:100B0000D914C0F3DA94F101ED0DF11D808190E06C
:100B1000B3010E94C505DD20A9F706C080E290E080
:100B2000B3010E94C505EA94EE20C1F743CEF3015C
:100B300066817781CB012B96E2E10C94B223FC0114
:100B40000590615070400110D8F7809590958E0FF8
:100B50009F1F0895FC016150704001900110D8F76B
:100B6000809590958E0F9F1F0895DC01FC01672FE3
:100B700071917723E1F7329704C07C916D93708374
:100B80006291AE17BF07C8F308950F931F93CF93D9
:100B9000DF938C01EB018B8181FF1BC082FF0DC0B5
:100BA0002E813F818C819D812817390764F4E8816B
:100BB000F9810193F983E88306C0E885F985802FE0
:100BC0000995892B31F48E819F8101969F838E83B5
:100BD00002C00FEF1FEFC801DF91CF911F910F915E
:100BE0000895FA01AA27283051F1203181F1E894C3
:100BF0006F936E7F6E5F7F4F8F4F9F4FAF4FB1E010
:100C00003ED0B4E03CD0670F781F891F9A1FA11D0A
:100C1000680F791F8A1F911DA11D6A0F711D811D0B
:100C2000911DA11D20D009F468943F912AE0269FD0
:100C300011243019305D3193DEF6CF010895462F2F
:100C40004770405D4193B3E00FD0C9F7F6CF462F10
:100C50004F70405D4A3318F0495D31FD4052419379
:100C600002D0A9F7EACFB4E0A69597958795779536
:100C70006795BA95C9F700976105710508959B01BD
:100C8000AC010A2E06945795479537952795BA9546
:100C9000C9F7620F731F841F951FA01D0895DC0103
:100CA00012962C91129717968C9117972817D8F5B2
:100CB000ED91FC911197E20FF11D862F992787FD89
:100CC000909516960C90169702C0880F991F0A945B
:100CD000E2F72081282B208313968C9113978F5F46
:100CE00013968C93139716962C91169714963C9105
:100CF0001497822F90E0831B910997FD04C0231B5A
:100D000016962C93089587E016968C931697129654
:100D10008C9112978F5F12968C931297ED91FC91A4
:100D2000E80FF11D10820895FC018781681710F00B
:100D30008FEF08950190F081E02DE60FF11D808185
:100D40000895DC0190E007C0ED91FC911197E90F47
:100D5000F11D10829F5F17968C9117979817A0F33B
:100D600012961C92129713961C92139787E0169670
:100D70008C930895FC01808191810E945B0108950C
:100D8000CF93DF93EC01842F6C831D824F8390E01F
:100D900061E070E00E94950088839983CE010E94F3
:100DA000A10647E0E7E0F0E061E070E00BC0CB01B6
:100DB00002C0880F991F2A95E2F79C018D81822B32
:100DC0008D834150242F30E08C81DF01A81BB109B5
:100DD000A217B30764F3DF91CF910895CF93DF9308
:100DE000DC01EB0115962D913C91169713968D9190
:100DF0009C9114972817390749F411968D919C916D
:100E0000129716969C938E93159706C02E5F3F4FB0
:100E100016963C932E9315971596ED91FC91169787
:100E2000888199819183808317962D913C911897A1
:100E300013968D919C9114972817390729F41196D0
:100E40002D913C91129702C02E5F3F4F15968D91C8
:100E50009C9116978217930739F48C91882321F07F
:100E600018963C932E93179781E08C93DF91CF9146
:100E70000895CF93DF93DC01EB018C91882359F126
:100E800017962D913C91189713968D919C911497DC
:100E90002817390749F411968D919C91129718964D
:100EA0009C938E93179706C02E5F3F4F18963C93E6
:100EB0002E9317971796ED91FC9118978081918149
:100EC0009983888315968D919C911697E817F90759
:100ED00009F41C9281E0DF91CF9108955F926F92A7
:100EE0007F928F929F92AF92BF92CF92DF92EF92BA
:100EF000FF920F931F93CF93DF93EC017C876B8757
:100F0000CC24DD24552453944B01AA2497FCA094AF
:100F1000BA2C31E0632E712C8B859C8562E070E0E9
:100F20000E9495009A838983009709F048C008942D
:100F3000C11CD11C1D86C501B4010E9411227B0178
:100F40008C01B601882777FD8095982F0E94112289
:100F500020E030E040E251EC0E94762120E030E0D9
:100F600040E85FE30E9412219B01AC01C801B70178
:100F70000E94C5227B018C0120E030E040E050E07F
:100F80000E94C12288234CF0C801B70120E030E064
:100F900040E05FE30E94122108C0C801B70120E0D1
:100FA00030E040E05FE30E9411210E94DE217C8757
:100FB0006B871616170624F07C866B8601C05D864B
:100FC0008D858823E1F46B857C85882777FD809566
:100FD000982F0E9411227B018C01C501B4010E944F
:100FE00011222DEC3CEC4CEC5DE30E94C5229B01F0
:100FF000AC01C801B7010E94C12287FF8DCF898152
:101000009A81DF91CF911F910F91FF90EF90DF9028
:10101000CF90BF90AF909F908F907F906F905F9098
:1010200008950F931F93CF93DF93EC018A010E94E1
:101030006E079C019A8389838D858823D9F08B85DF
:101040009C850197880F991F820F931F9C838B8328
:101050009E838D83F90102C0019311938B819C8142
:101060008E179F07C8F78D819E8198878F8318827E
:101070009A878987DF91CF911F910F910895FC0185
:1010800017A6A085B1850284F385E02D20813181EA
:101090008D919C911197918380832D933C93DB01DB
:1010A0008D919C91918380830895BF92CF92DF921E
:1010B000EF92FF920F931F93CF93DF93EC017B018D
:1010C000BCA460E0B8EFCB2EBFEFDB2E2BC0F90144
:1010D000EE0FFF1FEE0DFF1DDA01A20FB31FAC19BB
:1010E000BD09AA0FBB1FAC0FBD1F0190F081E02D01
:1010F0008D919C91E81BF90BF7FF03C0F095E195EA
:10110000FF4F8C859D858E179F075CF02017310758
:1011100011F4862F13C07F5F272F30E002171307CB
:10112000B4F66F5F6B1548F4F7010081118171E02F
:10113000462F50E0440F551FEFCF8FEFDF91CF9137
:101140001F910F91FF90EF90DF90CF90BF90089587
:101150000895089508954F925F926F927F928F92B3
:101160009F92AF92BF92CF92DF92EF92FF920F9336
:101170001F93CF93DF93DC019D968D919C919E9759
:10118000019709F083C09C962C919C972150822F47
:10119000992787FD90958C5D9E4F7D01E80EF91E85
:1011A00084529140EC01CC0FDD1FCC0FDD1F629605
:1011B000CA0FDB1F00E010E02C0143E2642E41E087
:1011C000742E6A0E7B1E33E3832E912C8A0E9B1E97
:1011D0005BC05801A40CB51C6881798116161706EE
:1011E0000CF44BC082E86F3F780709F446C01296B2
:1011F000CD90DC901397F601EE0FFF1FEE0FFF1F4F
:10120000EA0FFB1F42895389CA018627972797FF58
:1012100034C083E0440F551F8A95E1F7882799274A
:10122000861B970B8417950744F1F701808187305F
:1012300020F5F3014081F40130E00CC0818190E0A1
:101240008A159B0529F4808190E08C159D0521F07D
:101250003F5F3196341790F3341779F0D196BC92F2
:10126000AE92D09782E090E09E969C938E939D974D
:10127000A65DBE4F3C9381E010C021500894E10868
:10128000F10801501040249727FFA3CF8FEF9FEF65
:10129000D1969C938E93D09780E0DF91CF911F9150
:1012A0000F91FF90EF90DF90CF90BF90AF909F9005
:1012B0008F907F906F905F904F9008956F927F9284
:1012C0008F929F92AF92BF92CF92DF92EF92FF9256
:1012D0000F931F93CF93DF93EC018FEF9FEF9B83CF
:1012E0008A838CA4AA24AA94BA2C9924B3E26B2EE4
:1012F000B1E07B2E6C0E7D1E7BC08FEFA8168FEFAA
:10130000B806A1F5C92CDD24F601EE0FFF1FEE0F84
:10131000FF1FEC0FFD1F8289938997FD27C0FE01F7
:10132000EC0DFD1DEC5DFE4F608170E0882777FDC0
:101330008095982F0E9411227B018C01F30160811E
:1013400070E0882777FD8095982F0E9411222BE767
:1013500034E14EE25EE30E94C5229B01AC01C8016C
:10136000B7010E94C12218160CF440C0C92CDD241C
:10137000F601EE0FFF1FEE0FFF1FEC0FFD1F22897E
:10138000338937FD32C0F501EE0FFF1FEE0FFF1F4F
:10139000EC0FFD1F828993892817390734F5FE0168
:1013A000EC0DFD1DEC5DFE4F608170E0882777FD40
:1013B0008095982F0E9411227B018C01F30160819E
:1013C00070E0882777FD8095982F0E9411222BE7E7
:1013D00034E14EE25EE30E94C5229B01AC01C801EC
:1013E000B7010E94C12218160CF0650193945601B2
:1013F000981408F482CFFFEFAF16FFEFBF0611F489
:1014000080E007C0BB82AA8281E090E09EA78DA702
:1014100081E0DF91CF911F910F91FF90EF90DF90CE
:10142000CF90BF90AF909F908F907F906F900895D6
:10143000CF93DF93DC01AC5DBE4F1D921D921D92D8
:101440001D921D921C92A952B14090E0ED01CD5D1C
:10145000DE4F0DC0FD01E90FF11D83A9FD01E80F6D
:10146000F11DEC5DFE4F80818F5F80839F5F8881DF
:10147000981780F3DF91CF910895CF93DF93EC011C
:101480000E94180ACD5DDE4F8881C352D140883258
:1014900030F0CE010E945E09CE010E94AB08DF91C0
:1014A000CF910895DC01ED91FC910190F081E02D48
:1014B00009950895AF92BF92CF92DF92EF92FF927B
:1014C0000F931F93DF93CF93CDB7DEB728970FB657
:1014D000F894DEBF0FBECDBF6C0109831A832B8346
:1014E0003C834D835E836F837887A22E8C819D81A0
:1014F000222311F480E095C0009761F12FEF8F3F18
:10150000920769F4D6011296ED91FC911397EE0FB4
:10151000FF1FEE0FFF1FEC0DFD1D82899389BB2479
:10152000D6011296ED91FC911397EE0FFF1FEE0F6F
:10153000FF1FEC0DFD1D22893389281B390B37FF56
:1015400003C0309521953F4FF6018485958582171C
:10155000930714F0BB24B394D601D096ED91FC917F
:10156000D197EE0FFF1FEE0FFF1FEC0DFD1D6289DF
:101570007389882777FD8095982F0E9411227B011F
:101580008C01D6011296ED91FC911397EE0FFF1F7F
:10159000EE0FFF1FEC0DFD1D62897389882777FD13
:1015A0008095982F0E9411229B01AC01C801B701C0
:1015B0000E9476217B018C0120E030E040E050E089
:1015C0000E94C12288234CF0C801B70120E030E01E
:1015D00040E05FE30E94122108C0C801B70120E08B
:1015E00030E040E05FE30E9411210E94DE2120E014
:1015F00030E08A2D992787FD9095681B790B77FF3E
:1016000003C0709561957F4F6430710514F421E03B
:1016100030E08B2D90E02823392380E0232B09F044
:1016200081E028960FB6F894DEBF0FBECDBFCF91F4
:10163000DF911F910F91FF90EF90DF90CF90BF90BF
:10164000AF9008958F929F92AF92BF92CF92DF9208
:10165000EF92FF920F931F93CF93DF936C01DC0106
:101660001296ED91FC91139784A5843008F4ECC098
:10167000ED5DFE4F608170E0882777FD8095982FA3
:101680000E94112229E23CE54FE05EE30E94C52260
:101690000E94E321762FAA24AA94BA2C88249924A4
:1016A00060E030E083C0A32FB0E0FE01EA0FFB1F33
:1016B000EC5DFE4FE080E71608F477C0AA0FBB1F71
:1016C000AA0FBB1FAC0FBD1F52964D915C91539753
:1016D00014161506C4F5F60125812F3F79F0822FE7
:1016E000992787FD9095880F991F880F991FC80F1C
:1016F000D91F8A899B89841795070CF4232FD6015B
:1017000015962C93159717962C9117972F3F99F0B4
:101710001296ED91FC911397822F992787FD909552
:10172000880F991F880F991FE80FF91F82899389E5
:10173000481759070CF4232F6E0D8394A40EB51E81
:10174000F601278332C0D60114962C912F3F79F0F1
:10175000822F992787FD9095880F991F880F991FD1
:10176000C80FD91F8A899B89481759070CF4232F62
:10177000F601248326812F3F91F00280F381E02D32
:10178000822F992787FD9095880F991F880F991FA1
:10179000E80FF91F82899389841795070CF4232F8A
:1017A0006E199394D60116962C933F5FF601C28171
:1017B000D3818CA5381708F476CF70E0882777FDA1
:1017C0008095982F0E9411227B018C01CD5DDE4F08
:1017D000688170E0882777FD8095982F0E941122FC
:1017E0002AE037ED43EA5CE30E94C5229B01AC018D
:1017F000C801B7010E94C122181634F1981421F5CE
:10180000C50163E070E00E944723D60119967C93DE
:101810006E93189714969C9114979F3FA9F0169673
:101820008C9116978F3F81F0981771F015962C9137
:1018300015972F3F49F017969C919F3F29F080E024
:10184000291719F081E001C080E0DF91CF911F914D
:101850000F91FF90EF90DF90CF90BF90AF909F904F
:101860008F9008958F929F92AF92BF92CF92DF9206
:10187000EF92FF921F93DF93CF9300D00F92CDB7DB
:10188000DEB76C017B01DE011196E9E0F1E083E057
:1018900001900D928150E1F7D601ED91FC916281AA
:1018A00083E0689FB0011124C7010E94CE1EE1149D
:1018B000F10499F110E05E010894A11CB11CF4E060
:1018C0008F2EF1E09F2E23C0CF01612F0E9494063E
:1018D00000D000D000D0EDB7FEB73196ADB7BEB79F
:1018E0001296BC92AE921197938282828483158263
:1018F0000E949E038DB79EB706960FB6F8949EBFC2
:101900000FBE8DBFC701B5010E94B51F1F5FD60175
:10191000ED91FC9182818117B8F60F900F900F9096
:10192000CF91DF911F91FF90EF90DF90CF90BF900C
:10193000AF909F908F900895FF920F931F93CF9336
:10194000DF93EC01FF2440E0B3C04423A1F4FD0188
:10195000EF0DF11D83A9282F30E08C81992787FD99
:10196000909528173907D9F08D81992787FD909593
:1019700028173907A1F0FD01EF0DF11D83A9282FCC
:1019800030E08E81992787FD90952817390739F027
:101990008F81992787FD90952817390731F4A65D27
:1019A000BE4FFC92AA52B14003C0442309F47FC049
:1019B0006F2D70E0FD01E60FF71F83A9282F30E09F
:1019C0008C81992787FD90952817390741F08D81E3
:1019D000992787FD90952817390709F082C048811B
:1019E000598160E0220F331F220F331FA20FB31F54
:1019F00052968D919C91539797FF61E0CA010E9486
:101A00004F0686E695E06EE071E046C08F8199272B
:101A100087FD90952817390709F06DC0AD5DBE4F61
:101A20008C91A352B14090E00197681779070CF0B0
:101A300062C0FD01E60FF71F84A9482F50E0401750
:101A4000510741F08F81992787FD909548175907D5
:101A500009F051C04881598160E0220F331F220FE5
:101A6000331FA20FB31F52968D919C91539797FFEE
:101A700061E0CA010E944F0686E695E060E171E0F0
:101A80000E94AF1BF3940AC0888199810E94A1062D
:101A900086E695E063E171E00E94AF1B41E007C07C
:101AA00086E695E067E171E00E94AF1B0BC0F394FE
:101AB000AA81BB81AD5DBE4F8C91A352B140F81697
:101AC00008F443CF20E0E881F98193818A85981753
:101AD00008F021E0822FDF91CF911F910F91FF90AD
:101AE00008958E81082F112707FD109520173107C3
:101AF00009F08CCF93CFAD5DBE4F8C9190E02A85DD
:101B0000821B9109681779070CF4BECFC9CFFC017D
:101B10008FEF848385838683878384E182878081B6
:101B200091810E94A10608950F931F938C01FC01DF
:101B300014A616A615A68FEF9FEF9383828382A526
:101B400093A50E94A106F801158614861F910F9196
:101B50000895CF93DF93EC010E94940DCD5DDE4F8D
:101B60001882C352D1401CA61AAA1EA61DA68FEF2A
:101B70009FEF99AB88AB9B838A83FE01DE01AC5D4E
:101B8000BE4F80E0138A128A1D928F5F3496863092
:101B9000C9F71FA686E990E09D878C878AE999E9B5
:101BA000A9E9BEE38E879F87A88BB98BC65DDE4F00
:101BB0001882DF91CF910895EF92FF920F931F93B8
:101BC0008C01FC017383628388E090E00E94241AF8
:101BD000F82EE92E61E04EE10E94C006F801F08285
:101BE000E182C8010E94870D1F910F91FF90EF9035
:101BF0000895EF92FF920F931F938C0186E492E079
:101C0000F8019183808388E090E00E94241AF82EE6
:101C1000E92E62E041E00E94C006F801F2A6E3A6C8
:101C20001782168215821482C801049691878087D4
:101C3000C80106969387828717A6C8010E94940D53
:101C40001F910F91FF90EF9008950F931F938C01B8
:101C50000E94F90D8AE392E0F80191838083158256
:101C6000148217821682C801049691878087C80162
:101C70000696938782878FEF9FEF91AB80ABC80169
:101C80000E94A90D1F910F9108950F931F938C012E
:101C90000E94250E8EE292E0F80191838083055E1A
:101CA0001D4FF80110821F910F9108950F931F93FC
:101CB000CF93DF938C01EB01CB0167E070E00E94D2
:101CC000CE1E209779F0CE016BE171E00E94B51F26
:101CD000F80160857185CE010E94451FCE016BE33E
:101CE0000E94A21FDF91CF911F910F9108950F9332
:101CF0001F93CF93DF938C01EB01CB0160E270E087
:101D00000E94CE1E209709F478C0CE016EE171E0EA
:101D10000E94B51FD8011296ED91FC91139714966D
:101D20008C91992787FD9095880F991F880F991F8F
:101D3000E80FF91F62897389CE010E94451FCE0109
:101D40006BE30E94A21FCE0162E271E00E94B51F08
:101D5000D8011296ED91FC91139715968C919927C5
:101D600087FD9095880F991F880F991FE80FF91F1D
:101D700062897389CE010E94451FCE016BE30E94E8
:101D8000A21FCE0166E271E00E94B51FD801129633
:101D9000ED91FC91139716968C91992787FD90955C
:101DA000880F991F880F991FE80FF91F628973899F
:101DB000CE010E94451FCE016BE30E94A21FCE01FF
:101DC0006AE271E00E94B51FD8011296ED91FC9174
:101DD000139717968C91992787FD9095880F991FD7
:101DE000880F991FE80FF91F62897389CE010E943D
:101DF000451FCE016BE30E94A21FDF91CF911F917F
:101E00000F910895CF93DF93FC01C081D18120977A
:101E100031F0CE010E94BA06CE010E94211ADF9154
:101E2000CF910895CF92DF92EF92FF920F931F937D
:101E30007A01690106E615E0C8010E94C51BC801C8
:101E4000B7010E94C51BC801B6010E94C51B1F91A6
:101E50000F91FF90EF90DF90CF900895EF92FF9257
:101E60000F931F93CF93DF93EC01F62EE42E86E6BB
:101E700095E0B9010E94C51B0BC0FE01EF0DF11DDD
:101E800086E695E063A94AE050E00E942B1BF3949C
:101E9000EF1498F786E695E0B8010E94C51BDF9124
:101EA000CF911F910F91FF90EF9008952F923F9245
:101EB0004F925F926F927F928F929F92AF92BF925A
:101EC000CF92DF92EF92FF920F931F93DF93CF9306
:101ED000CDB7DEB7A8970FB6F894DEBF0FBECDBF63
:101EE0006C018C010D5D1E4FF8018081883208F471
:101EF000DCC1C6010E943D0A4E010894811C911C60
:101F0000C40160E071E00E94002088E0A82EB12C9E
:101F1000AC0EBD1EC50160E071E00E940020F6011C
:101F200085A596A58230910509F0ECC08AE291E082
:101F3000C80ED91EF601508186ED9EEFC80ED91E3F
:101F4000452F4E5FF60162817381D801F601E40FDF
:101F5000F11D83A990E08617970751F584A990E0B9
:101F6000F60120A931A98217930711F5342E3A946E
:101F7000832D90E0851B910988970CF47EC1EE2497
:101F80000BE1402E02E0502E4C0C5D1C5E010894CB
:101F9000A11CB11C18E0812E912C8C0E9D1EBAE262
:101FA0006B2EB1E07B2E6C0C7D1C22242394A4C0EC
:101FB0004E5F8C91481750F260C1C50160E071E03E
:101FC0000E941A20C40160E071E00E941A20EE2DE8
:101FD000F0E0A3E0EE0FFF1FAA95E1F7EC0DFD1D69
:101FE000DE015696E55DFE4F88E001900D9281502E
:101FF000E1F7C6010E891F89288D398D4A8D5B8DC9
:102000006C8D7D8D0E945A0A882309F474C0C50125
:1020100062E00E94A21FC5016DE40E94A21FC501DB
:102020006E2D0E94761FC5016BE30E94A21FFF2444
:1020300025C00F2D10E0000F111F000F111F0C0DF8
:102040001D1DF80182899389892BB9F0C50160E5CE
:102050000E94A21FC5016F2D0E94761FC5016EE26E
:1020600071E00E94B51FF80162897389C5010E9461
:10207000451FC5016BE30E94A21FF394F60184A5DE
:102080008F15B8F6C50160E371E00E94B51FC40169
:102090006BE30E94A21FC40163E371E00E94B51FBD
:1020A000F60162817381C4010E94171FC4016BE3B2
:1020B0000E94A21FC40167E371E00E94B51FF601F0
:1020C00060A971A9C4010E94451FC4016BE30E946D
:1020D000A21FC40163E00E94A21FC4016AE00E9423
:1020E000A21FC601F3016081432D950184010E9466
:1020F0002E0FF60127A6E394F2018081E81608F47A
:102100005CCFBBC0019709F0B6C0C40162E00E9479
:10211000A21F6EE1E62EF12CEC0EFD1EC701B601EA
:102120000E94DC0DC7010E94870DC7010E94220B8F
:10213000882309F4ABC0C7010E949C0C882309F4D2
:10214000A5C08E01015F1F4FC80160E071E00E94D1
:102150000020C80160E371E00E941A20C701B801A5
:102160000E94320CC4016BE371E00E94B51FC401F0
:102170006BE30E94A21FC701B4010E94770EC50144
:102180006BE30E94A21FC701B5010E94560EC50154
:1021900063E00E94A21FC5016AE00E94A21FC6015F
:1021A000B401A80195010E94120FC8010E940B21E1
:1021B0005AC00B2D10E0000F111F000F111F0C0D46
:1021C0001D1DF80182899389892BC1F0C7016EE337
:1021D00071E00E94B51FC7016B2D0E94761FC701D9
:1021E0006EE271E00E94B51FF80162897389C70130
:1021F0000E94451FC7016BE30E94A21FB394F60122
:1022000084A58B15B0F67E010894E11CF11CC70172
:1022100060E371E00E94B51F8E01085F1F4FC80187
:102220006BE30E94A21FC80163E371E00E94B51F27
:10223000F60162817381C8010E94171FC8016BE318
:102240000E94A21FC80163E00E94A21FC8016AE0A9
:102250000E94A21FF601ED5DFE4FC60160E04081C5
:1022600097010E942E0F81E0F60187A7CE014E96BE
:102270000E94020F02C0F60117A6CE0108960E9426
:102280000B21CE0101960E940B210FC08E010F5F22
:102290001F4FC80160E471E00E94B51FC8016BE3E5
:1022A0000E94A21FBB247801AACFA8960FB6F8946B
:1022B000DEBF0FBECDBFCF91DF911F910F91FF9079
:1022C000EF90DF90CF90BF90AF909F908F907F90D6
:1022D0006F905F904F903F902F900895EF92FF92F4
:1022E0000F931F93DF93CF9300D000D0CDB7DEB70D
:1022F0008C010D5D1E4FD8018C9103521140813F1E
:1023000058F0D801ED91FC910680F781E02DC801CD
:102310000995C8010E94A90DF80112AA0084F1854F
:10232000E02D20813181D8011A96ED91FC911B9707
:102330000190F081E02D0D5D1E4FD8014C910352AC
:10234000114090919002D8019C968C919C9789178E
:1023500010F49C969C930D5D1E4FD8018C910352F6
:1023600011408823B1F0EE2480E090E0E227F327CB
:10237000F7FF02C081E090E020E030E04F3E11F036
:1023800021E030E082239323892B41F0EE24E39473
:1023900005C0F80114A610929002EE2481E090E0AE
:1023A0009A8389831C821B82D8011896ED91FC9137
:1023B0001997808191819C838B83C801BE016F5FD7
:1023C0007F4F0E945508982F87FD1AC00D5D1E4F44
:1023D000F801808103521140F801E80FF11D93AB21
:1023E000823030F082A9891719F4C8010E94A90D22
:1023F000F801ED5DFE4F80818F5F8083FF2417C061
:10240000C8010E94180AD8019C968C91863069F404
:1024100080919002F801E80FF11DEC5DFE4F808184
:10242000823018F0EE24FF2404C0FF24F394EE2041
:1024300019F50D5D1E4FF80180810352114088325D
:1024400090F081E0D8019F968C939F97ED91FC913D
:102450000680F781E02DC8010995C8010E94A90DE9
:102460001092900263C0EE2039F4C8010E94A90DB9
:10247000F80117A610929002FF2009F457C00D5DD5
:102480001E4FD8014C910352114050919002842F5D
:1024900090E0C296F801E80FF91F20E030E0DC017F
:1024A000D3971BC080812F5F3F4F31978517A9F4C9
:1024B0006F5F7F4F461B0D5D1E4FF8014083035237
:1024C00011406D5C7F4F600F711F50E04F5F5F4F99
:1024D000C801C3960E94DB0207C0BD01621B730BDB
:1024E0008FEF6F3F7807F1F620919002E22FF0E036
:1024F000EE0FFF1FEE0FFF1FE00FF11F8B819C817E
:10250000938B828BD801AD5DBE4F8C91F801E80FA3
:10251000F11D23AB8F5F8C932F5F209390022630A9
:1025200029F410929002D8019C962C930F900F9052
:102530000F900F90CF91DF911F910F91FF90EF902F
:1025400008950F931F93CF93DF938C01DC019F9627
:102550001C929F9718960D90BC91A02DEC01EA85D6
:10256000FB85208131818D919C911197918380838E
:102570002D933C93DB018D919C9191838083C801C5
:102580000E946E118FA5DF91CF911F910F91089539
:102590001F920F920FB60F9211242F933F934F93D8
:1025A0005F936F937F938F939F93AF93BF93EF93BB
:1025B000FF93E0919402F09195020995FF91EF91BC
:1025C000BF91AF919F918F917F916F915F914F914B
:1025D0003F912F910F900FBE0F901F901895813053
:1025E0009105B1F46F5F7F4FE1F486E992E060E519
:1025F00070E040E050E00E94110885EA92E067EB4D
:1026000071E00E9400208CEA92E00E94450E08953D
:10261000892B39F46F5F7F4F21F485EA92E00E94A5
:102620000B21089580E090E06FEF7FEF0E94EF12A2
:10263000089581E090E06FEF7FEF0E94EF12089520
:10264000FF920F931F93CF93DF93F82E06E615E0CA
:10265000C80168EB71E00E94AF1BC8016F2D4AE012
:1026600050E00E942B1BC80163EC71E00E94AF1B7D
:10267000CF2DD0E093E0CC0FDD1F9A95E1F7FE015E
:10268000E652FC4F60817181C8014AE050E00E942F
:102690007D1BC80167EC71E00E94AF1BC752DC4F85
:1026A0006881772767FD7095C8014AE050E00E9475
:1026B0007D1BC8016CEC71E00E94B21BDF91CF91D1
:1026C0001F910F91FF900895EF92FF920F931F9328
:1026D000DF93CF93CDB7DEB762970FB6F894DEBF26
:1026E0000FBECDBF8E01075F1F4F85EA92E0B80194
:1026F0004AE050E023E030E00E94511EC8016CEC3B
:1027000071E00E94CD020E948802F82EDE0111962F
:10271000EEE4F2E088E001900D928150E1F785EA65
:1027200092E061E070E00E941E1E813421F000E022
:1027300010E0EE2425C080E090E06CEC71E00E9497
:10274000CD020E948802E82E80E090E06CEC71E0FF
:102750000E94CD020E9488028C01EB829D838C83B3
:10276000EF2DF0E033E0EE0FFF1F3A95E1F7E9526D
:10277000FC4FDE01119688E00D9001928150E1F747
:1027800085EA92E061E070E00E941E1E823599F4B5
:10279000EB821D830C83EF2DF0E023E0EE0FFF1F93
:1027A0002A95E1F7E952FC4FDE01119688E00D9081
:1027B00001928150E1F78F2D0E9420138091C70470
:1027C00090E001962F2D30E0821793071CF4F394CC
:1027D000F092C70462960FB6F894DEBF0FBECDBF6D
:1027E000CF91DF911F910F91FF90EF9008958DE0B1
:1027F0006091A4020E94BB1D1092A4020895EF9262
:10280000FF920F931F938C017B018BE061E00E948C
:10281000BB1D80912802909129029C01029FC0015A
:10282000039F900D129F900D11240E940A1D8BE0B2
:1028300060E00E94BB1D80912802909129029C01BA
:10284000E29EC001E39E900DF29E900D11240E9425
:102850000A1D1F910F91FF90EF90089580E00E9454
:102860002F1C089580E066EE76E141E050E00E9482
:102870000C1C089585EA92E061E070E00E941E1E43
:10288000813511F40E942E1485EA92E061E070E037
:102890000E941E1E853411F40E9432140895EF9296
:1028A000FF920F931F93CF93DF937C010E942E140E
:1028B00000E010E030C081E090E06FE170E00E9445
:1028C000FF13E70123C08133A1F0863469F0803320
:1028D000E1F481E090E063E070E00E94FF1381E0AA
:1028E00090E063E070E00FC081E090E063E070E0B2
:1028F00004C083E090E061E070E00E94FF1383E099
:1029000090E061E070E00E94FF13219688818823A7
:10291000D1F60F5F1F4F8091260290E0081719072C
:1029200054F20E943214DF91CF911F910F91FF90CA
:10293000EF900895CF92DF92EF92FF920F931F9343
:10294000DF93CF93CDB7DEB7C456D0400FB6F8941F
:10295000DEBF0FBECDBF6C018E010C5F1F4FC801E3
:102960006EEC71E00E940020C601B8010E94A11E19
:10297000F82EC8010E940B21FF20F1F08E01055FA7
:102980001F4FC801B60142E050E00E94DD20C8019F
:102990007E010894E11CF11CB70143E050E020E007
:1029A00030E00E94511EC8010E940B21C7010E9405
:1029B0008802809327022FC08E010E5E1F4FC80130
:1029C00061ED71E00E940020C601B8010E94A11EC5
:1029D000F82EC8010E940B21FF2019F18E01075E1D
:1029E0001F4FC801B60142E050E00E94DD20C8013F
:1029F0007E010894E11CF11CB70143E050E020E0A7
:102A000030E00E94511EC8010E940B21C7010E94A4
:102A100088028093260286E695E0B6010E94F81BA4
:102A2000B7C08E01005E1F4FC80164ED71E00E94C7
:102A30000020C601B8010E94A11EF82EC8010E9404
:102A40000B21FF2009F443C08DE061E00E94BB1D13
:102A50008E01095D1F4FC801B60142E050E00E949F
:102A6000DD20C801BE01685A7F4F4DE050E020E0F4
:102A700030E00E94511EC8010E940B21F6018481A2
:102A800095810F97A0F08E01025D1F4FC801B6011E
:102A90004EE050E00E94DD20C8010E94401E70936D
:102AA000290260932802C8010E940B2106C084EA13
:102AB00091E09093290280932802CE01885A9F4F7B
:102AC0000E944F148DE060E00E94BB1DA4CF8E01D8
:102AD0000B5C1F4FC80167ED71E00E940020C6012A
:102AE000B8010E94A11EF82EC8010E940B21FF20F0
:102AF00009F44EC04CE3E42EF12CEC0EFD1EC70190
:102B00006AED71E00E9400208E010D5B1F4FC8012D
:102B1000609127024AE00E946420C701B8010E9428
:102B2000C51FC8010E940B21C70165EE71E00E941C
:102B3000B51F8E01065B1F4FC801609126024AE057
:102B40000E946420C701B8010E94C51FC8010E94ED
:102B50000B21C70165EE71E00E94B51F8E010F5A6F
:102B60001F4F6091280270912902C8014AE00E941B
:102B70003320C701B8010E94C51FC8010E940B2164
:102B800086E695E0B7010E94F81BC7010E940B2161
:102B9000CC59DF4F0FB6F894DEBF0FBECDBFCF913B
:102BA000DF911F910F91FF90EF90DF90CF900895EC
:102BB000EF92FF920F931F93DF93CF93CDB7DEB7C2
:102BC00029970FB6F894DEBF0FBECDBF7C0160E041
:102BD00070E00E941E1E8F3309F04CC086E695E01F
:102BE0006FE30E94741A86E695E068E670E00E9442
:102BF000511A86E695E066E50E94741A86E695E02D
:102C000060E20E94741A86E695E069E60E94741AF2
:102C100086E695E060E20E94741A86E695E062E539
:102C20000E94741A86E695E060E20E94741A86E6B5
:102C300095E064E70E94741A86E695E060E20E94DF
:102C4000741A86E695E068E50E94741A86E695E0B7
:102C500060E20E94741A86E695E066E40E94741AA7
:102C600086E695E060E20E94741A86E695E067EBDE
:102C700071E00BC0C70160E070E00E941E1E863547
:102C800039F486E695E067EE71E00E94B21B4AC017
:102C9000C70160E070E00E941E1E8235A1F48091A1
:102CA000950590919605009711F489E995E0BE018C
:102CB0006F5F7F4F681B790B86E695E04AE050E036
:102CC0000E94901B2FC0C70160E070E00E941E1E92
:102CD000893671F48E010D5F1F4FC801B7010E9444
:102CE0000021C8010E949A14C8010E940B211AC039
:102CF000C70160E070E00E941E1E843799F0C70192
:102D000060E070E00E941E1E883519F40E943A149B
:102D100009C0C70160E070E00E941E1E863411F4F5
:102D20000E94641329960FB6F894DEBF0FBECDBF84
:102D3000CF91DF911F910F91FF90EF9008950F9326
:102D40001F93DF93CF93CDB7DEB727970FB6F894D5
:102D5000DEBF0FBECDBF8E010F5F1F4F26C086E6C0
:102D600095E00E943519682F8A3049F08B301CF4A9
:102D7000882329F016C08D3011F0833291F4C801F8
:102D800065EA72E00E940021C8010E94D815C801BE
:102D90000E940B2185EA92E067EB71E00E941A2005
:102DA00004C085EA92E00E94A21F86E695E00E9498
:102DB0000419892BA1F627960FB6F894DEBF0FBE33
:102DC000CDBFCF91DF911F910F910895EF92FF92A8
:102DD0000F931F938091C8048823A1F488EC94E09A
:102DE0000E94131A892B71F00E94E41C6093D60490
:102DF0007093D7048093D8049093D90488EC94E01E
:102E00000E941D1A0E94E41C6093DA047093DB0494
:102E10008093DC049093DD0482E00E94EE1DBC01EF
:102E20002091DA043091DB044091DC045091DD0400
:102E30008091D6049091D704A091D804B091D90480
:102E400079018A01E81AF90A0A0B1B0BD801C7019C
:102E5000E092D204F092D3040093D4041093D504EA
:102E60002093D6043093D7044093D8045093D904C8
:102E700084369105A105B1050CF181300DE790076D
:102E800000E0A00700E0B00714F081E09DE7909318
:102E9000D1048093D004672B59F08091D004909195
:102EA000D104909581959F4F9093D1048093D00445
:102EB00086E992E060ED74E00E94EE061F910F91AA
:102EC000FF90EF900895FF920F931F93DF93CF939E
:102ED00000D0CDB7DEB78E010F5F1F4FFF24F394F4
:102EE00009C08CEA92E0B8010E94520A882311F0CE
:102EF000F092A40286E992E0B8010E943907882383
:102F000081F70F900F90CF91DF911F910F91FF905C
:102F1000089586E695E040E051EE60E070E00E94A2
:102F20007D1882E060E00E944F1D8BE061E00E940E
:102F30004F1D8DE061E00E944F1D80E18093810074
:102F40001092800082E08093930288EA91E6909349
:102F5000920280939102909387008093860082E191
:102F60008093810087EF93E1909395028093940280
:102F700081E080936F00A7EDB3E0E6E7F2E088E040
:102F800001900D928150E1F7AFEDB3E0EEE6F2E093
:102F900088E001900D928150E1F7A7EEB3E0E6E6FC
:102FA000F2E088E001900D928150E1F7AFEEB3E0DE
:102FB000EEE5F2E088E001900D928150E1F7A7EF95
:102FC000B3E0E6E5F2E088E001900D928150E1F790
:102FD00085E08093C7040E94321485EA92E064E1A0
:102FE00070E00E94CE1E08951F920F920FB60F92AE
:102FF00011242F933F934F938F939F93EF93FF93BE
:103000008091C00082FD1DC04091C60020911E0528
:1030100030911F052F5F3F4F2F7330708091200537
:10302000909121052817390771F0E0911E05F09164
:103030001F05E252FB4F408330931F0520931E056E
:1030400002C08091C600FF91EF919F918F914F91A7
:103050003F912F910F900FBE0F901F901895E09108
:103060007205F0917305E05CFF4F81919191208191
:103070003181821B930B8F739070892B11F00E940A
:103080009F1608951F920F920FB60F9211242F933F
:103090003F938F939F93EF93FF932091620530911D
:1030A000630580916405909165052817390731F40F
:1030B0008091C1008F7D8093C10014C0E0916405B0
:1030C000F0916505EE5DFA4F208180916405909145
:1030D000650501968F7390709093650580936405E4
:1030E0002093C600FF91EF919F918F913F912F9177
:1030F0000F900FBE0F901F901895AF92BF92DF9266
:10310000EF92FF920F931F93CF93DF93EC017A011D
:103110008B01DD24403081EE580780E0680780E0B5
:10312000780711F0DD24D39491E0A92EB12CEC891D
:10313000FD89DD2069F0C50108A002C0880F991F34
:103140000A94E2F7808360E079E08DE390E005C0C7
:10315000108260E874E88EE190E0A80197010E9477
:103160005A2321503040404050405695479537955E
:10317000279580E12030380720F0DD2011F0DD2494
:10318000D6CFE889F9893083EA89FB89208319A29F
:10319000EE89FF89408121E030E0C9010C8C02C03A
:1031A000880F991F0A94E2F7482B4083EE89FF8924
:1031B0004081C9010D8C02C0880F991F0A94E2F763
:1031C000482B4083EE89FF894081C9010E8C02C0E3
:1031D000880F991F0A94E2F7482B4083EE89FF89F4
:1031E00080810F8C02C0220F331F0A94E2F72095D2
:1031F00028232083DF91CF911F910F91FF90EF90B3
:10320000DF90BF90AF900895DC011C96ED91FC918A
:103210001D97E05CFF4F2191319180819181281BA6
:10322000390B2F733070C9010895DC011C96ED91A4
:10323000FC911D97E05CFF4F20813181E054F0400C
:10324000DF01AE5BBF4F8D919C9111972817390715
:1032500019F42FEF3FEF07C08D919C91E80FF91FF4
:103260008081282F30E0C9010895DC011C96ED9182
:10327000FC911D97E05CFF4F20813181E054F040CC
:10328000DF01AE5BBF4F8D919C91119728173907D5
:1032900019F42FEF3FEF10C08D919C911197E80F1B
:1032A000F91F20818D919C91119701968F739070D9
:1032B00011969C938E9330E0C9010895DC0191969C
:1032C0008C919197882339F05496ED91FC91559704
:1032D000808186FFF9CF91961C920895CF93DF935A
:1032E000EC01EE85FF85E05CFF4F20813181E054E9
:1032F000F0402F5F3F4F2F733070DF01AE5BBF4F49
:103300008D919C91119728173907D1F3E05CFF4FFD
:1033100080819181E054F040E80FF91F6083EE85D1
:10332000FF85E05CFF4F31832083EE89FF89208198
:1033300081E090E00F8C02C0880F991F0A94E2F799
:10334000282B208381E089A3EC89FD89808180641A
:10335000808381E090E0DF91CF910895109269051C
:103360001092680588EE93E0A0E0B0E080936A05D3
:1033700090936B05A0936C05B0936D0582E892E085
:1033800090936705809366058EED94E090937305A6
:103390008093720582E295E09093750580937405A1
:1033A00085EC90E0909377058093760584EC90E02F
:1033B000909379058093780580EC90E090937B055D
:1033C00080937A0581EC90E090937D0580937C0555
:1033D00082EC90E090937F0580937E0586EC90E0F0
:1033E000909381058093800584E08093820583E03B
:1033F0008093830587E08093840585E0809385052D
:1034000081E0809386050895CF93DF930E94141D79
:103410000E948917CFE2D8E10E9463172097E1F359
:103420000E942F18F9CFFC0120E030E08081882332
:1034300011F421E030E0C9010895FC0181E08083AE
:1034400008950E945B0108950E94B1000895CF92F3
:10345000DF92EF92FF920F931F93CF93DF937C0144
:103460006B018A01C0E0D0E00FC0D6016D916D0103
:10347000D701ED91FC910190F081E02DC7010995F4
:10348000C80FD91F015010400115110571F7CE0169
:10349000DF91CF911F910F91FF90EF90DF90CF9030
:1034A0000895EF92FF920F931F93CF93DF937C01C8
:1034B0008B01C0E0D0E0F8010F5F1F4F64916623DD
:1034C00059F0D701ED91FC910190F081E02DC701F9
:1034D0000995C80FD91FEFCFCE01DF91CF911F9172
:1034E0000F91FF90EF900895DC01ED91FC91019018
:1034F000F081E02D09950895EF92FF920F931F93AD
:103500008C01DC01ED91FC910190F081E02D6DE0EA
:1035100009957C01D801ED91FC910190F081E02D9D
:10352000C8016AE009959C012E0D3F1DC9011F913C
:103530000F91FF90EF900895CF93DF93EC01611509
:10354000710519F420E030E00FC0DB010D90002080
:10355000E9F71197A61BB70BE881F9810280F38187
:10356000E02DAD0109959C01C901DF91CF9108952E
:103570004F925F927F928F929F92AF92BF92CF9223
:10358000DF92EF92FF920F931F93DF93CF93CDB70C
:10359000DEB7A1970FB6F894DEBF0FBECDBF2C01EA
:1035A000742ECB01223008F42AE019A231E2C32E96
:1035B000D12CCC0EDD1E822E9924AA24BB24672D8B
:1035C000752FA50194010E945A2379018A01C8012F
:1035D000B701A50194010E942823472D461B08949A
:1035E000C108D1084A3014F4405D01C0495CF601BD
:1035F0004083E114F1040105110521F07E2C5F2DBB
:10360000C801DDCFC201B6010E949C1AA1960FB677
:10361000F894DEBF0FBECDBFCF91DF911F910F9108
:10362000FF90EF90DF90CF90BF90AF909F908F90E2
:103630007F905F904F900895DC012115310541F492
:10364000ED91FC910190F081E02D642F0995089592
:103650000E94B81A0895EF92FF920F931F939A0158
:10366000E62EFF2400E010E0B801A7010E941C1B19
:103670001F910F91FF90EF900895CF92DF92EF92FC
:10368000FF920F931F93CF93DF93EC016A017B01AD
:103690002115310541F4E881F9810190F081E02D97
:1036A000642F09951FC02A303105D1F477FF17C068
:1036B000E881F9810190F081E02D6DE209958C019E
:1036C00044275527BA014C195D096E097F09CE01BF
:1036D0002AE00E94B81A9801280F391F04C02AE076
:1036E0000E94B81A9C01C901DF91CF911F910F91DF
:1036F000FF90EF90DF90CF900895EF92FF920F939D
:103700001F937B019A010027F7FC0095102FB80149
:10371000A7010E943D1B1F910F91FF90EF9008950C
:10372000CF92DF92EF92FF920F931F936C017B0178
:103730009A010027F7FC0095102FB801A7010E94FD
:103740003D1B8C01C6010E947C1A080F191FC8017D
:103750001F910F91FF90EF90DF90CF9008950E94FE
:103760009C1A0895EF92FF920F931F937C010E9481
:103770009C1A8C01C7010E947C1A080F191FC801EE
:103780001F910F91FF90EF900895AF92BF92CF924B
:10379000DF92EF92FF920F931F93CF93DF935C0121
:1037A0006B01EE24FF24C0E0D0E010C0D501ED9104
:1037B000FC9100811181C601BE010E942F1E682F5D
:1037C000C501F8010995E80EF91E2196F6018481DC
:1037D0009581C817D90750F3C701DF91CF911F9189
:1037E0000F91FF90EF90DF90CF90BF90AF90089532
:1037F000EF92FF920F931F937C010E94C51B8C01D7
:10380000C7010E947C1A9C01200F311FC9011F9122
:103810000F91FF90EF900895823000F5E82FF0E0CF
:10382000EE0FFF1FE857FA4F71836083882319F06A
:103830008130A1F408C0809169008C7F842B809333
:103840006900E89A089580916900440F551F440F5C
:10385000551F837F842B80936900E99A08958230F5
:1038600080F4882319F0813021F402C0E89801C067
:10387000E998E82FF0E0EE0FFF1FE857FA4F1182AA
:10388000108208951F920F920FB60F9211242F935A
:103890003F934F935F936F937F938F939F93AF93D8
:1038A000BF93EF93FF938091880590918905892BB1
:1038B00029F0E0918805F09189050995FF91EF9134
:1038C000BF91AF919F918F917F916F915F914F9138
:1038D0003F912F910F900FBE0F901F9018951F9240
:1038E0000F920FB60F9211242F933F934F935F9334
:1038F0006F937F938F939F93AF93BF93EF93FF93B8
:1039000080918A0590918B05892B29F0E0918A0599
:10391000F0918B050995FF91EF91BF91AF919F9128
:103920008F917F916F915F914F913F912F910F9068
:103930000FBE0F901F9018951F920F920FB60F9207
:1039400011242F933F938F939F93AF93BF938091B5
:10395000900590919105A0919205B09193053091B9
:1039600094050196A11DB11D232F2D5F2D3720F049
:103970002D570196A11DB11D2093940580939005AC
:1039800090939105A0939205B093930580918C0537
:1039900090918D05A0918E05B0918F050196A11D86
:1039A000B11D80938C0590938D05A0938E05B093E7
:1039B0008F05BF91AF919F918F913F912F910F9064
:1039C0000FBE0F901F9018959FB7F89420918C050B
:1039D00030918D0540918E0550918F0586B5A89B3D
:1039E00006C08F3F21F02F5F3F4F4F4F5F4F9FBF6C
:1039F000542F432F322F2227280F311D411D511DD7
:103A000082E0220F331F441F551F8A95D1F7B90159
:103A1000CA010895019739F0880F991F880F991FDF
:103A200002970197F1F70895789484B5826084BD78
:103A300084B5816084BD85B5826085BD85B58160B2
:103A400085BDEEE6F0E0808181608083E1E8F0E012
:103A50001082808182608083808181608083E0E841
:103A6000F0E0808181608083E1EBF0E08081846020
:103A70008083E0EBF0E0808181608083EAE7F0E022
:103A80008081846080838081826080838081816086
:103A900080838081806880831092C1000895CF93D5
:103AA000DF93482F50E0CA0189559F4FFC013491A4
:103AB0004D565F4FFA018491882369F190E0880F99
:103AC000991FFC01EB58FF4FA591B491FC01E158FF
:103AD000FF4FC591D491662351F42FB7F8948C9180
:103AE000932F909589238C93888189230BC0623012
:103AF00061F42FB7F8948C91932F909589238C9330
:103B00008881832B88832FBF06C09FB7F8948C9140
:103B1000832B8C939FBFDF91CF910895833071F0F9
:103B2000843028F48130A1F0823021F514C0863031
:103B3000B1F08730D1F08430E9F404C08091800086
:103B40008F7703C0809180008F7D809380000895DF
:103B500084B58F7702C084B58F7D84BD0895809130
:103B6000B0008F778093B00008958091B0008F7D72
:103B70008093B0000895FF920F931F93F62E482F65
:103B800050E0CA0185549F4FFC012491CA01895518
:103B90009F4FFC0114914D565F4FFA010491002391
:103BA000C9F0222319F0822F0E948E1DE02FF0E031
:103BB000EE0FFF1FE158FF4FA591B4919FB7F89406
:103BC000FF2021F48C911095812302C08C91812BD0
:103BD0008C939FBF1F910F91FF9008950F931F9398
:103BE000482F50E0CA0185549F4FFC012491CA011F
:103BF00089559F4FFC0104914D565F4FFA01149176
:103C0000112319F420E030E015C0222319F0822F8F
:103C10000E948E1D812F90E0880F991F87579F4F1C
:103C2000FC01A591B4918C9120E030E0802311F04B
:103C300021E030E0C9011F910F910895FC018481BA
:103C400095816817790748F40190F081E02D30974D
:103C500021F0E60FF71F8081089580E00895FC01B0
:103C6000848195816817790748F40190F081E02DEF
:103C7000309721F0E60FF71F8081089580E00895C6
:103C8000FC0180819181009729F420E030E040E040
:103C900050E004C00E94A6029B01AC01B901CA0118
:103CA00008950F931F93CF93DF93FC018B01411570
:103CB0005105F9F061157105E1F0848195812817AE
:103CC000390718F0FB01108214C041505040EC013C
:103CD000C21BD30B4C175D0708F4EA0160817181A8
:103CE000620F731FC801AE010E940903C00FD11FEC
:103CF0001882DF91CF911F910F910895FC01DB0194
:103D000014962D913C91159784819581821B930B7C
:103D100084179507A0F080819181009781F06D91C3
:103D20007C916115710559F0840F951FA9010E94BE
:103D3000FB029C0180E0232B19F481E0089580E0D0
:103D40000895FC01DB012481358114968D919C91AD
:103D500015972817390710F480E00895CF0140E047
:103D600050E00E947E1E08950F931F93CF93DF9320
:103D7000EC018B016F5F7F4F888199810E94B301B5
:103D8000009711F480E005C0998388831B830A8320
:103D900081E0DF91CF911F910F910895CF93DF9331
:103DA000EC0188819981892B29F08A819B81861772
:103DB000970760F4CE010E94B41E882341F08C81E5
:103DC0009D81892B19F4E881F981108281E0DF91CE
:103DD000CF910895EF92FF920F931F93CF93DF93AC
:103DE000EC017B016C817D81E114F104C1F041158E
:103DF000510599F08A01060F171FB8010E94CE1EC7
:103E0000882369F0888199812C813D81820F931FDD
:103E1000B7010E94F4021D830C8381E001C080E0A1
:103E2000DF91CF911F910F91FF90EF900895EF9246
:103E3000FF920F931F93DF93CF9300D000D000D059
:103E4000CDB7DEB77C01CB018E010F5F1F4FB801EC
:103E50004AE050E00E948803F80101900020E9F751
:103E60003197E01BF10BC701B801AF010E94EA1EB8
:103E700026960FB6F894DEBF0FBECDBFCF91DF916F
:103E80001F910F91FF90EF900895EF92FF920F9383
:103E90001F93DF93CF93CDB7DEB727970FB6F89474
:103EA000DEBF0FBECDBF7C01CB018E010F5F1F4F68
:103EB000B8014AE050E00E944A03F8010190002056
:103EC000E9F73197E01BF10BC701B801AF010E9480
:103ED000EA1E27960FB6F894DEBF0FBECDBFCF9176
:103EE000DF911F910F91FF90EF900895EF92FF9255
:103EF0000F931F93DF93CF9300D000D0CDB7DEB7E1
:103F00007C01862F90E08E010F5F1F4FB8014AE0C1
:103F100050E00E944A03F80101900020E9F7319730
:103F2000E01BF10BC701B801AF010E94EA1E0F9020
:103F30000F900F900F90CF91DF911F910F91FF90F5
:103F4000EF900895DF93CF9300D0CDB7DEB76983AC
:103F50001A82BE016F5F7F4F41E050E00E94EA1E6F
:103F60000F900F90CF91DF9108956115710511F4B5
:103F700080E00895DB010D900020E9F71197A61B62
:103F8000B70BAD010E94EA1E0895FB0160817181AB
:103F9000448155810E94EA1E0895CF93DF93EC017E
:103FA00088819981009711F00E945B011982188223
:103FB0001D821C821B821A82DF91CF910895EF929D
:103FC000FF920F931F93CF93DF93EC017B018A0144
:103FD000BA010E94CE1E882321F4CE010E94CD1F7B
:103FE00007C01D830C8388819981B7010E94F40268
:103FF000CE01DF91CF911F910F91FF90EF90089527
:10400000CF93DF93EC01198218821B821A821D82E2
:104010001C821E826115710551F0DB010D9000209C
:10402000E9F71197A61BB70BAD010E94DF1FDF91C7
:10403000CF9108950F931F93182F092F61157105C4
:1040400059F0DB010D900020E9F71197A61BB70B83
:10405000AD010E94DF1F02C00E94CD1F812F902F53
:104060001F910F910895EF92FF920F931F93DF938B
:10407000CF93CDB7DEB762970FB6F894DEBF0FBE11
:10408000CDBF8C01CB01F801118210821382128204
:104090001582148216827E010894E11CF11CB7017E
:1040A00050E00E944A03C801B7010E941A2062969C
:1040B0000FB6F894DEBF0FBECDBFCF91DF911F9139
:1040C0000F91FF90EF900895EF92FF920F931F933F
:1040D000DF93CF93CDB7DEB729970FB6F894DEBF45
:1040E0000FBECDBF8C01862FF80111821082138282
:1040F000128215821482168290E07E010894E11CDF
:10410000F11CB70150E00E948803C801B7010E946A
:104110001A2029960FB6F894DEBF0FBECDBFCF91FF
:10412000DF911F910F91FF90EF900895BF92CF9272
:10413000DF92EF92FF920F931F93CF93DF93082F9D
:10414000B92E6B017A01E9012417350710F4EA0151
:104150007901802F9B2D6FE172E00E940020D60133
:1041600014968D919C9115978E159F05D0F08C1704
:104170009D0708F4EC01D601ED91FC911197EC0F2D
:10418000FD1F108110826D917C916E0D7F1D802F1F
:104190009B2D0E941A20D601ED91FC91EC0FFD1F82
:1041A0001083802F9B2DDF91CF911F910F91FF9056
:1041B000EF90DF90CF90BF9008950F931F938C01E5
:1041C000FB01248135810E949620C8011F910F9127
:1041D0000895CF93DF93EC01FB018617970761F0F9
:1041E000608171816115710529F0448155810E94BA
:1041F000DF1F02C00E94CD1FCE01DF91CF91089535
:10420000FC0111821082138212821582148216829E
:104210000E94E9200895FC01808191810E945B0148
:1042200008955058BB27AA270ED071C162D130F033
:1042300067D120F031F49F3F11F41EF457C10EF402
:10424000E095E7FB4DC1E92F73D180F3BA17620700
:1042500073078407950718F071F49EF58BC10EF46F
:10426000E0950B2EBA2FA02D0B01B90190010C0186
:10427000CA01A0011124FF27591B99F0593F50F49E
:10428000503E68F11A16F040A22F232F342F4427F6
:10429000585FF3CF469537952795A795F0405395EE
:1042A000C9F77EF41F16BA0B620B730B840BBAF0BE
:1042B0009150A1F0FF0FBB1F661F771F881FC2F729
:1042C0000EC0BA0F621F731F841F48F4879577953D
:1042D0006795B795F7959E3F08F0B3CF9395880FF4
:1042E00008F09927EE0F9795879508950CD00FC188
:1042F00007D140F0FED030F021F45F3F19F0F0C05C
:10430000511139C1F3C014D198F39923C9F355233E
:10431000B1F3951B550BBB27AA27621773078407B8
:1043200038F09F5F5F4F220F331F441FAA1FA9F36E
:1043300033D00E2E3AF0E0E830D091505040E69560
:10434000001CCAF729D0FE2F27D0660F771F881FC1
:10435000BB1F261737074807AB07B0E809F0BB0BB0
:10436000802DBF01FF2793585F4F2AF09E3F5105D4
:1043700068F0B6C000C15F3FECF3983EDCF3869571
:1043800077956795B795F7959F5FC9F7880F911D4A
:104390009695879597F90895E1E0660F771F881F36
:1043A000BB1F621773078407BA0720F0621B730BE9
:1043B000840BBA0BEE1F88F7E095089504D068943B
:1043C000B111D9C00895BCD088F09F5790F0B92F93
:1043D0009927B751A0F0D1F0660F771F881F991F5A
:1043E0001AF0BA95C9F712C0B13081F0C3D0B1E06C
:1043F0000895C0C0672F782F8827B85F39F0B93F7C
:10440000CCF3869577956795B395D9F73EF490955B
:104410008095709561957F4F8F4F9F4F0895E894D9
:1044200009C097FB3EF490958095709561957F4FFC
:104430008F4F9F4F9923A9F0F92F96E9BB279395AA
:10444000F695879577956795B795F111F8CFFAF4BA
:10445000BB0F11F460FF1BC06F5F7F4F8F4F9F4FEB
:1044600016C0882311F096E911C0772321F09EE849
:10447000872F762F05C0662371F096E8862F70E0AF
:1044800060E02AF09A95660F771F881FDAF7880F89
:104490009695879597F90895990F0008550FAA0BDF
:1044A000E0E8FEEF16161706E807F907C0F0121647
:1044B0001306E407F50798F0621B730B840B950B4A
:1044C00039F40A2661F0232B242B252B21F408959F
:1044D0000A2609F4A140A6958FEF811D811D08953C
:1044E00097F99F6780E870E060E008959FEF80ECA7
:1044F000089500240A94161617061806090608954A
:1045000000240A9412161306140605060895092EAF
:104510000394000C11F4882352F0BB0F40F4BF2B1E
:1045200011F460FF04C06F5F7F4F8F4F9F4F08955E
:1045300057FD9058440F551F59F05F3F71F0479554
:10454000880F97FB991F61F09F3F79F08795089539
:10455000121613061406551FF2CF4695F1DF08C058
:10456000161617061806991FF1CF86957105610575
:1045700008940895E894BB2766277727CB0197F91D
:1045800008958ADF08F48FEF08950BD0C0CFB1DF14
:1045900028F0B6DF18F0952309F0A2CFA7CF112499
:1045A000EACFC6DFA0F3959FD1F3950F50E0551FDA
:1045B000629FF001729FBB27F00DB11D639FAA2778
:1045C000F00DB11DAA1F649F6627B00DA11D661FC7
:1045D000829F2227B00DA11D621F739FB00DA11DE8
:1045E000621F839FA00D611D221F749F3327A00DA2
:1045F000611D231F849F600D211D822F762F6A2F3E
:1046000011249F5750408AF0E1F088234AF0EE0FC2
:10461000FF1FBB1F661F771F881F91505040A9F7CF
:104620009E3F510570F05CCFA6CF5F3FECF3983E04
:10463000DCF3869577956795B795F795E7959F5F36
:10464000C1F7FE2B880F911D9695879597F90895D0
:10465000629FD001739FF001829FE00DF11D649F66
:10466000E00DF11D929FF00D839FF00D749FF00DF2
:10467000659FF00D9927729FB00DE11DF91F639F93
:10468000B00DE11DF91FBD01CF011124089597FB65
:10469000092E07260AD077FD04D02ED006D00020A0
:1046A0001AF4709561957F4F0895F6F7909581956E
:1046B0009F4F0895A1E21A2EAA1BBB1BFD010DC03E
:1046C000AA1FBB1FEE1FFF1FA217B307E407F507C2
:1046D00020F0A21BB30BE40BF50B661F771F881F9E
:1046E000991F1A9469F760957095809590959B0134
:1046F000AC01BD01CF010895AA1BBB1B51E107C04E
:10470000AA1FBB1FA617B70710F0A61BB70B881F61
:10471000991F5A95A9F780959095BC01CD010895F0
:10472000EE0FFF1F0590F491E02D09942F923F9218
:104730004F925F926F927F928F929F92AF92BF92B1
:10474000CF92DF92EF92FF920F931F93CF93DF935D
:10475000CDB7DEB7CA1BDB0B0FB6F894DEBF0FBEBA
:10476000CDBF09942A88398848885F846E847D8407
:104770008C849B84AA84B984C884DF80EE80FD8009
:104780000C811B81AA81B981CE0FD11D0FB6F8947F
:10479000DEBF0FBECDBFED01089510E0C4EDD0E047
:1047A00004C0FE010E9492232296C63DD107C9F79C
:0447B000F894FFCFAB
:1047B40000415300253032580030300030004C00A6
:1047C40053530052455300454E4400433D004C4C66
:1047D4003D004C483D00534C3D0053483D003D00D6
:1047E400443D0043503D0053503D004D43005000B4
:1047F4004D550053796E633A2000202D3E205379A5
:104804006E63466163743A20002C20436C6F636BC3
:104814003A20002C20546F6C3A20002C20506174F4
:10482400744C656E3A200020002C2050756C736522
:104834003A20002C20002C206D53746172743A20AD
:10484400005369676E616C3A20002E2000205B00E3
:104854005D005061747465726E3A20002050003A15
:1048640020002A5B002C00005550442046696C74DB
:104874006572003B433D003B53463D003B00697479
:104884000069720069730069700049545061726173
:104894006D733A200020005620332E312E326120D1
:1048A4005349474E414C6475696E6F202D20636FE8
:1048B4006D70696C6564206174204A756C203139AF
:1048C40020323031352032323A32383A3335000032
:1048D400200099050000063CA40100000000A1127C
:1048E400A808A908560F00000000A112A808A908EA
:1048F4003D0A000000003F08A808A908AA08000013
:104904000000000002000000F60E01000000FF039A
:10491400E2FFFF00010000000000000002000000B0
:10492400F53002000000FCF8EEF401000000000085
:0E49340000006E19271A0419351915195E199D
:00000001FF
