:100000000C9477000C94EE130C9415140C949F0030
:100010000C949F000C949F000C949F000C949F00E4
:100020000C949F000C949F000C949F000C949F00D4
:100030000C949F000C946F080C949F000C949F00EC
:100040000C943C140C949F000C9400170C943217E1
:100050000C949F000C949F000C949F000C949F00A4
:100060000C949F000C949F003B4D433D003B4D552D
:100070003D004D533D00556E737570706F72746521
:100080006420636F6D6D616E640020557365206F31
:100090006E65206F6620000000000800020100006D
:1000A0000304070000000000000000010204081023
:1000B00020408001020408102001020408102004DE
:1000C00004040404040404020202020202030303FF
:1000D00003030300000000250028002B000000009F
:1000E00000240027002A0000090862174C08112488
:1000F0001FBECFEFD8E0DEBFCDBF12E0A0E0B1E081
:10010000EAE9F7E402C005900D92A631B107D9F7EC
:1001100024E0A6E1B2E001C01D92A53EB207E1F7DE
:1001200010E0CCEED0E004C02297FE010E94EC1D4E
:10013000C83ED107C9F70E94A9170C94C0230C949C
:100140000000CF92DF92EF92FF920F931F930E94D5
:10015000921400911F0210912002209121023091EF
:1001600022026B017C01C01AD10AE20AF30A97014C
:10017000860160931F027093200280932102909366
:1001800022020A3511052105310578F181E0C816F2
:100190008DE7D806E104F10410F4960102C021E0D5
:1001A0003DE74A9B03C03195219531098091650354
:1001B0008B34D8F4809165038F5F809365038091C1
:1001C0006603609164030E94941D90936603E0911E
:1001D0006603F0E0EE0FFF1FE859FC4F31832083E8
:1001E000809166038F5F809366031F910F91FF904C
:1001F000EF90DF90CF9008950F931F9360912902A5
:100200008DE00E948515109229020E94921400919F
:100210001F02109120022091210230912202601BC6
:10022000710B820B930B62307D478105910520F0A5
:100230001F910F910C94A1001F910F91089583E2DB
:1002400092E00E9451198DE593E00E94511987E5D3
:1002500093E00C945119CF93DF93EC01FB012481BF
:1002600035810E94941BCE01DF91CF91089541E02A
:1002700050E061EA70E080E00C94BC1380E00C94E4
:10028000DC13CF93DF931F92CDB7DEB72B9A20916B
:10029000060130910701482F429FC001439F900DF6
:1002A000112469830E94DD142B988091060190919E
:1002B00007016981FC016E9FC0016F9F900D1124A1
:1002C0000F90DF91CF910C94DD14EF92FF920F937A
:1002D0001F93CF93DF93F82EE92E0E943E0100E09A
:1002E00010E02091080130E0021713072CF56FE1B0
:1002F00081E00E944101CF2DDE2D29912223C9F0FA
:10030000213371F0263449F02033B9F763E081E0FE
:100310000E94410163E081E009C063E081E002C026
:1003200061E083E00E94410161E083E00E944101BD
:10033000E4CF0F5F1F4FD5CFDF91CF911F910F916A
:10034000FF90EF900C9437012F923F924F925F9263
:100350006F927F928F929F92AF92BF92CF92DF92D5
:10036000EF92FF920F931F93CF93DF93A82E6B0111
:10037000342E252E49010E9492142B013C01B12CF0
:1003800000E010E0B8016A0D7B1DC616D70658F1D3
:10039000C4010E944C1B8053E32DF22DE80FF11D88
:1003A000E80FF11DC081D1817E01D7FF04C0EE248A
:1003B000FF24EC1AFD0A0E94921464157505860547
:1003C0009705C8F3D7FF02C02B9801C02B9AC7012D
:1003D000AA2797FDA095BA2F480E591E6A1E7B1EAC
:1003E0000F5F1F4FCFCF0E949214641575058605CD
:1003F0009705C8F3DF91CF911F910F91FF90EF9078
:10040000DF90CF90BF90AF909F908F907F906F9034
:100410005F904F903F902F9008954F925F926F9210
:100420007F928F929F92AF92BF92CF92DF92EF9284
:10043000FF920F931F93CF93DF93982E862E2A015E
:100440002B9A0E9492146B017C01662457FC6094E5
:10045000762C891408F446C0692D70E083E292E09E
:100460000E944C1B90ED980F9A3010F4892F01C018
:100470008753C4E0D0E008E0A82EBB24A7FCB094CA
:100480000E9492146C157D058E059F05C8F310E03F
:1004900098012A213B21232B71F02B98C40CD51CE9
:1004A000E61CF71C0E9492146C157D058E059F05B5
:1004B000C8F32B9A0DC02B9AC40CD51CE61CF71C54
:1004C0000E9492146C157D058E059F05C8F32B982C
:1004D000C40CD51CE61CF71C15950795219781F6D1
:1004E0009394B7CF0E9492146C157D058E059F05DD
:1004F000C8F3DF91CF911F910F91FF90EF90DF90A4
:10050000CF90BF90AF909F908F907F906F905F90B3
:100510004F900895CF92DF92EF92FF920F931F9327
:10052000CF93DF9300D000D000D0CDB7DEB78C01E1
:100530006B01FC01E080F1806DE071E0CE0101967D
:100540000E94BF19A701BE016F5F7F4F83E292E057
:100550000E94781B7C01CE0101960E945119FFEF89
:10056000EF16FF0601F1F801408151814F3FFFEF87
:100570005F07C9F0970163E272E0CE0101960E9425
:10058000941BBE016F5F7F4FC6010E940B1ACE0104
:1005900001960E9451198FEFE81AF80AF801F182CA
:1005A000E08281E001C080E026960FB6F894DEBFBD
:1005B0000FBECDBFDF91CF911F910F91FF90EF90B4
:1005C000DF90CF900895BF92CF92DF92EF92FF928B
:1005D0000F931F93CF93DF93CDB7DEB7C856D109E2
:1005E0000FB6F894DEBF0FBECDBF67E072E0CE015C
:1005F0008F599F4F0E94BF196EE170E0CE018F5955
:100600009F4F0E948219A9961FAE1EAEA9970E9405
:100610003E011FEF01E042E1F42E59E0E52E62E0D9
:10062000D62ECC24C394BE016F597F4FCE01895979
:100630009F4F0E948A02882309F44FC060E070E057
:10064000CE018F599F4F0E944C1B833589F561E085
:1006500070E0CE018F599F4F0E944C1B833419F3D9
:1006600061E070E0CE018F599F4F0E944C1B8D348A
:1006700059F41F5FE1E0F0E0EC0FFD1FF19EE00D8B
:10068000F11D1124C282CFCF61E070E0CE018F59FD
:100690009F4F0E944C1B823531F61F5FE1E0F0E076
:1006A000EC0FFD1FF19EE00DF11D1124D282BBCF96
:1006B00060E070E0CE018F599F4F0E944C1B803547
:1006C00009F068C062E070E0CE018F599F4F0E9430
:1006D0004C1B8D3309F05EC082C0B12C32E1C32EB9
:1006E000B016D1F1D12CED2CF12CCE9CA001CF9CD9
:1006F000500D1124E1E0F0E0EC0FFD1FE40FF51FB9
:100700008281823079F44A5F5F4F21E030E02C0F24
:100710003D1F420F531F6481758123E232E08381C4
:100720000E94A401CE9CF001CF9CF00D112481E029
:1007300090E08C0F9D1FE80FF91F8281813031F40A
:1007400040815181648183810E940D022B98D39452
:100750001D1548F6B394C4CF0E94370163E272E0DE
:1007600084E494E00E944418CE018F599F4F0E9468
:100770005119C859DF4F0FB6F894DEBF0FBECDBF79
:10078000DF91CF911F910F91FF90EF90DF90CF906D
:10079000BF90089560E070E0CE018F599F4F0E9496
:1007A0004C1B823509F050C061E070E0CE018F59DA
:1007B0009F4F0E944C1B8D3309F046C042E050E031
:1007C000BE016F597F4FCE01855A9F4F0E942B016A
:1007D000CE01855A9F4F0E94D91B062F82C022E06E
:1007E00030E041E050E0BE016F597F4FCE01855AA5
:1007F0009F4F0E94941BCE01855A9F4F0E94D91B88
:10080000B62ECE01855A9F4F0E94511943E050E009
:10081000BE016F597F4FCE01855A9F4F0E942B0119
:10082000CE01855A9F4F0E94D91BE19EF0011124F1
:10083000EB0DF11D3396EE0FFF1F21E030E02C0F82
:100840003D1FE20FF31F4BC060E070E0CE018F59F7
:100850009F4F0E944C1B8434B9F4A9968EAD9FAD76
:10086000A997E1E0F0E0EC0FFD1FF19EE00DF11D16
:10087000112421E0280FA6963FADA697231B2383C2
:10088000029795838483CFCE60E070E0CE018F59CC
:100890009F4F0E944C1B833409F0C5CE61E070E08D
:1008A000CE018F599F4F0E944C1B8D3309F0BBCE58
:1008B00042E050E0BE016F597F4FCE01855A9F4FF5
:1008C0000E942B01CE01855A9F4F0E94D91BE1E067
:1008D000F0E0EC0FFD1FF19EE00DF11D112471837E
:1008E0006083CE01855A9F4F0E9451199CCE62E7CA
:1008F00070E084E494E00E94F61760912D0270E0AD
:100900004AE050E084E494E00E940B196DE670E048
:1009100084E494E00E94F61760912B0270E04AE0B4
:1009200050E084E494E00E940B1968E670E084E4EF
:1009300094E00E94F61760912C0270E04AE050E0CB
:1009400084E494E00C941319CF93DF93CDB7DEB712
:10095000AE970FB6F894DEBF0FBECDBF61E070E07A
:1009600083E292E00E944C1B843729F161E070E041
:1009700083E292E00E944C1B823721F542E050E076
:1009800063E272E0CE0101960E942B0120E030E08C
:1009900043E050E0BE01675D7F4FCE0101960E94AB
:1009A0004E1BCE0101960E945119CE0189960E94DC
:1009B000E11F8093080163E272E084E494E00E9406
:1009C000441895C061E070E083E292E00E944C1B05
:1009D0008337F1F42B9A42E050E063E272E0CE01FB
:1009E00089960E942B0120E030E048E250E0BE01F1
:1009F0006F5F7F4FCE0189960E944E1BCE01899674
:100A00000E945119CE0101960E9465012B98D3CF07
:100A100061E070E083E292E00E944C1B8336A9F40F
:100A200042E050E063E272E0CE0101960E942B01A9
:100A3000CE0101960E94D91B7093070160930601B5
:100A4000CE0101960E945119B6CF61E070E083E2B9
:100A500092E00E944C1B803709F049C067E072E0C9
:100A6000CE0189960E94BF1964E170E0CE0189969B
:100A70000E9482196FE071E0CE0189960E94171AD8
:100A80004AE060910801CE0101960E942F1ABE0132
:100A90006F5F7F4FCE0189960E94B41ACE010196F6
:100AA0000E94511967E971E0CE0189960E94BB1A34
:100AB00060910601709107014AE0CE0101960E9403
:100AC0005C1ABE016F5F7F4FCE0189960E94B41AF7
:100AD000CE0101960E945119BE01675D7F4F84E4EB
:100AE00094E00E944418CE0189960E945119AE9656
:100AF0000FB6F894DEBF0FBECDBFDF91CF91089542
:100B0000CF93DF9300D0CDB7DEB72091E1043091D1
:100B1000E2042115310511F425EE34E0CE010196F1
:100B2000821B930B0F900F90DF91CF910895CF927E
:100B3000DF92EF92FF920E9486146B017C0128EEF7
:100B400033E040E050E00E94C81D8091180290916F
:100B50001902A0911A02B0911B02C816D906EA0622
:100B6000FB0648F48091160290911702019690932B
:100B7000170280931602C0921802D0921902E092D6
:100B80001A02F0921B02CA01B901FF90EF90DF90A8
:100B9000CF9008956AE171E084E494E00E945618D1
:100BA00061E070E080E090E00C94B51461E070E0EA
:100BB00083E292E00E944C1B813511F40E943E01B9
:100BC00061E070E083E292E00E944C1B853411F4F6
:100BD0000C9437010895262F220F330B94E049021D
:100BE000B0011124682B622B81E090E00C94C522A7
:100BF000CF93DF9361E070E083E292E00E944C1BB0
:100C0000873421F4DF91CF910C94770462E070E097
:100C100083E292E00E944C1B833599F062E070E021
:100C200083E292E00E944C1B853571F062E070E037
:100C300083E292E00E944C1B833441F4CCE2D2E088
:100C400005C0CDE2D2E002C0CBE2D2E061E070E0CC
:100C500083E292E00E944C1B853419F481E0888382
:100C600009C061E070E083E292E00E944C1B843492
:100C700059F4188240912C0260912B0280912D0230
:100C8000DF91CF910C94EB05DF91CF91089560E057
:100C900070E083E292E00E944C1B803511F40C94CA
:100CA000CA0560E070E083E292E00E944C1B8F3343
:100CB00009F072C06FE384E494E00E9427186AE8A8
:100CC00070E084E494E00E94F61766E584E494E022
:100CD0000E94271860E284E494E00E94271869E6E5
:100CE00084E494E00E94271860E284E494E00E9487
:100CF000271862E584E494E00E94271860E284E407
:100D000094E00E94271864E784E494E00E94271886
:100D100060E284E494E00E94271868E584E494E0AB
:100D20000E94271860E284E494E00E94271866E499
:100D300084E494E00E94271860E284E494E00E9436
:100D4000271863E584E494E00E94271860E284E4B5
:100D500094E00E94271860E584E494E00E9427183C
:100D600060E284E494E00E94271863E484E494E061
:100D70000E94271860E284E494E00E94271867E448
:100D800084E494E00E94271860E284E494E00E94E6
:100D9000271867E072E00AC060E070E083E292E04A
:100DA0000E944C1B863531F46DE171E084E494E0DF
:100DB0000C94561860E070E083E292E00E944C1BB5
:100DC000823549F40E9480054AE050E0BC0184E489
:100DD00094E00C94131960E070E083E292E00E94CA
:100DE0004C1B893641F48AE292E00E94D508892B97
:100DF00081F40C94A40460E070E083E292E00E942D
:100E00004C1B833561F48AE292E00E94D508892B5D
:100E100021F081E080931E0208950C94E30260E0CB
:100E200070E083E292E00E944C1B843751F40E94F0
:100E30009705AB01BC012AE030E084E494E00C9417
:100E40003F1960E070E083E292E00E944C1B88351D
:100E500011F40C94D60560E070E083E292E00E9409
:100E60004C1B8634D1F060E070E083E292E00E9497
:100E70004C1B833411F40C94F80560E070E083E2BD
:100E800092E00E944C1B873411F40C94770466E7BF
:100E900070E084E494E00C9432180895CF9380912C
:100EA0001E02882389F010921E020E94470680913C
:100EB0001E02811106C067E072E083E292E00E94A8
:100EC000171A81E080932902C1E08091650388238D
:100ED00049F1809165038150809365038091670398
:100EE000609164030E94941D90936703E0916703EF
:100EF00081E08E0F80936703F0E0EE0FFF1FE8594B
:100F0000FC4F8081918190931D0280931C026CE1C3
:100F100072E08AE292E00E949A138823B1F2C093B1
:100F20002902D3CFCF910895EF92FF920F931F9391
:100F3000CF93DF93EC017B018A0181E090E00E9476
:100F4000BD22982F9170988381FB992790F9F70122
:100F5000908382FB882780F9F8018083DF91CF910D
:100F60001F910F91FF90EF90089526E040E051EE21
:100F700060E070E084E494E00E949E1660E082E00D
:100F80000E944C1561E08BE00E944C1561E08DE001
:100F90000E944C1580E1809381001092800082E0D5
:100FA0008093000488E199E7909302048093010400
:100FB000909387008093860082E1809381008CEF7C
:100FC00090E09093FF038093FE0381E080936F0095
:100FD00080E090E00E94BD228B3049F44CE252E068
:100FE0006BE272E08DE292E00E9494070AC06BE02F
:100FF00080E090E00E94C52267E081E090E00E94DE
:10100000C5220E94370164E170E083E292E00C9413
:1010100082190F931F93CF93DF938BE48093640324
:10102000109265031092670310926603CDE3D3E03C
:10103000D0934203C09341030FE313E010934403A2
:101040000093430367E072E087E593E00E94BF19D5
:1010500067E072E08DE593E00E94BF19F80111820C
:101060001082198218828AE292E00E94970867E053
:1010700072E083E292E00E94BF190E949214609392
:101080001F02709320028093210290932202DF912D
:10109000CF911F910F9108950C941F01CF93C1E040
:1010A00084E494E00E94BB15892BB9F084E494E0B9
:1010B0000E94D4158A3041F01CF4882329F007C01F
:1010C0008D3011F0833219F4C0931E02E9CF682FDE
:1010D00083E292E00E94CB1AE3CFCF9108951F9252
:1010E0000F920FB60F9211242F933F934F935F935C
:1010F0006F937F938F939F93AF93BF93EF93FF93E0
:10110000E091FE03F091FF030995FF91EF91BF91EC
:10111000AF919F918F917F916F915F914F913F918F
:101120002F910F900FBE0F901F9018950895FC01FE
:10113000E85FFE4F1082B39610827B971082319643
:10114000118210827B962FEF2083FC012083AC015B
:1011500020E030E0FA01E15EFE4F11821082FC01D6
:10116000E20FF31F14822F5F3F4F4E5F5F4F263019
:10117000310581F7FC01E55FFE4F1082339626E9C9
:1011800030E0318320833D964DEC5CEC6CE47EE3F3
:1011900040835183628373837297108233961082E7
:1011A0003196108233971082089580E090E0089580
:1011B000CF93DF93FC01E55DFE4FD081C0E07D97CA
:1011C000CD17C1F0DC01A15EBE4F2D913C91AB016A
:1011D000421B530B9A0157FF03C0319521953109EA
:1011E0000296408151814217530714F08C2F03C09F
:1011F000CF5FE6CF8FEFDF91CF910895FC0114828E
:1012000015821682178210861186411104C0DC01F6
:10121000A85FBE4F4C91641780F4DF01A60FB11D8B
:101220001A968C91DF01A80FB11D14968C9114971A
:101230008F5F14968C936F5FEECF08952F923F923D
:101240004F925F926F927F928F929F92AF92BF92D6
:10125000CF92DF92EF92FF920F931F93CF93DF9382
:10126000CDB7DEB72E970FB6F894DEBF0FBECDBF59
:101270009E878D8740E060E00E94FE08ED85FE8538
:10128000E55DFE4F5080712C2D853E85255E3E4FDD
:101290003A8729878D859E85885F9E4F9C878B879F
:1012A000751409F4C3C044244394470C642C272CC0
:1012B000312CC101880F991FAD85BE858A0F9B1FF8
:1012C000FC01E15EFE4FFA83E9832A0E3B1EF4E047
:1012D0002F0E311C29813A8138872F83651409F438
:1012E000A3C0862D90E09C838B83880F991F9E83DB
:1012F0008D83FC01AD85BE85EA0FFB1FE15EFE4FCD
:1013000000811181C80117FF04C088279927801B1D
:10131000910BBC01882777FD8095982F0E947D1C3A
:10132000E985FA8520813181428153810E94311DF6
:101330004B015C01A981BA81CD90DC907801EC1859
:10134000FD08F7FE03C0F194E194F10820E030E0DD
:1013500040E05FE3C501B4010E94311D9B01AC0177
:10136000C501B4010E94E61B0E944A1C6E157F0550
:101370000CF458C0EB85FC85208180E090E082175A
:1013800050F4ED85FE85E80FF91F3285361101C056
:1013900072860196F4CFD1014C91552747FD5095A7
:1013A000EB81FC812D853E85E20FF31FE481FF2751
:1013B000E7FDF0959A012E0F3F1F21153105E1F44D
:1013C000C49EC001C59E900DD49E900D1124B901FC
:1013D0000E94B41D7B010E9FC0010F9F900D1E9FA8
:1013E000900D1124B9010E94B41DE60EF71EAF81C5
:1013F000B885ED92FC920CC00C0D1D1D17FF02C0AC
:101400000F5F1F4F15950795E981FA8111830083BE
:10141000ED81FE812D853E85E20FF31FE15EFE4FDB
:101420001182108263945ACF742C3ACF2E960FB645
:10143000F894DEBF0FBECDBFDF91CF911F910F910A
:10144000FF90EF90DF90CF90BF90AF909F908F90E4
:101450007F906F905F904F903F902F9008953F92B4
:101460004F925F926F927F928F929F92AF92BF92B4
:10147000CF92DF92EF92FF920F931F93CF93DF9360
:10148000EC018FEF8883FE01E55DFE4F30806E0139
:1014900000E010E0EE24EA94FE2C4E0188EF881A5A
:1014A0008EEF980A031508F06AC0F601E15EFE4F60
:1014B0005F01FFEFEF16FF0639F5F501808191819D
:1014C00097FD22C0FE01E00FF11F6481772767FDC1
:1014D0007095872F972F0E947D1C2B013C01F401F2
:1014E000608170E080E090E00E947D1C2BE734E199
:1014F0004EE25EE30E94311D9B01AC01C301B201CB
:101500000E942D1D1816A4F1F5012081318137FDAF
:1015100030C0C701880F991F8C0F9D1FFC01E15E31
:10152000FE4F80819181281739071CF5FE01E00FDD
:10153000F11F6481772767FD7095872F972F0E9491
:101540007D1C2B013C01F401608170E080E090E0A3
:101550000E947D1C2BE734E14EE25EE30E94311DC8
:101560009B01AC01C301B2010E942D1D18160CF4A1
:1015700078010F5F1F4FF2E0CF0ED11C93CF8FEF9A
:10158000E816F80641F0E882CF5EDE4F81E090E099
:101590009983888301C080E0DF91CF911F910F91E3
:1015A000FF90EF90DF90CF90BF90AF909F908F9083
:1015B0007F906F905F904F903F9008958F929F9291
:1015C000AF92BF92CF92DF92EF92FF920F931F9351
:1015D000CF93DF93FC018C010F5E1E4FD8018D91DC
:1015E0009C911197019709F07CC05A96BC90BA94CF
:1015F000C7E0AC2E6F01B8EFCB1ABEEFDB0AB7FC29
:1016000070C02B2D332727FD3095C901880F991FF6
:101610008E0F9F1FDC01A15EBE4FCD91DC91D7FFE5
:101620005EC0D195C195D109C83682E4D80708F0CB
:1016300056C0E080FF24E7FCF094C701880F991F93
:101640008E0F9F1FDC01A15EBE4F8D909C90CE013E
:10165000B4010E94A01D6832710508F040C0A89C2A
:10166000C001A99C900D11248C179D07C0F5DF01C6
:10167000A20FB31F14968C9186308CF5D6014C9135
:1016800050E0BA0161507109912C892D90E08617C4
:10169000970784F4DF01A80FB91F1B96CC911B9705
:1016A000D0E0C217D307C9F41A96AC91B0E0AE15DA
:1016B000BF0599F4485251098417950784F4DF0156
:1016C000A45DBE4FBC9282E090E0D8018D939C93C4
:1016D000E75FFE4F908281E009C09394D6CFBA9421
:1016E0008ECFE45DFE4F8FEF808380E0DF91CF915E
:1016F0001F910F91FF90EF90DF90CF90BF90AF9030
:101700009F908F9008950F931F93CF93DF938A013B
:10171000E90184E494E00E941918B80184E494E09B
:101720000E941918BE0184E494E0DF91CF911F91CB
:101730000F910C941918EF92FF920F931F93CF9370
:10174000DF93EC01F62EE42EB90184E494E00E94CC
:101750001918EF1460F0FE01EF0DF11D4AE050E0A2
:10176000628584E494E00E943819F394F2CFB801C2
:1017700084E494E00E94191880E0DF91CF911F91DA
:101780000F91FF90EF90089570E0FC0126A13327A0
:1017900027FD30956217730751F027A1332727FDE6
:1017A000309581E06217730719F080E0089581E0B9
:1017B000089570E0FC0120A5332727FD30956217BE
:1017C000730751F021A5332727FD309581E062177B
:1017D000730719F080E0089581E008959F92AF9219
:1017E000BF92CF92DF92EF92FF920F931F93CF930E
:1017F000DF9300D01F92CDB7DEB78C017B0120E3D1
:1018000030E340E029833A834B83FC01668DF3E0AB
:101810006F9FB0011124C7010E948219E114F104E5
:1018200049F1912C87ECA82E81E0B82ECE010196CB
:101830006C01F801868D8915E8F0F80183A19816EE
:1018400020F4E90DF11D808101C08FEF1F928F936D
:10185000BF92AF92DF92CF920E94C920B601C7011A
:101860000E94BB1A93940F900F900F900F900F90BF
:101870000F90DFCF0F900F900F90DF91CF911F91BE
:101880000F91FF90EF90DF90CF90BF90AF909F901F
:1018900008950F931F93CF93DF938C01EB0160E2C8
:1018A00070E0CE010E948219209709F468C06CECA8
:1018B00071E0CE010E94BB1AF80184A195A126A176
:1018C000220F330B820F931FFC01E15EFE4F6081FC
:1018D0007181CE010E940A1B6BE3CE010E94CB1ADC
:1018E00060ED71E0CE010E94BB1AF80184A195A1C0
:1018F00027A1220F330B820F931FFC01E15EFE4FE5
:1019000060817181CE010E940A1B6BE3CE010E94AF
:10191000CB1A64ED71E0CE010E94BB1AF80184A1DC
:1019200095A120A5220F330B820F931FFC01E15ECE
:10193000FE4F60817181CE010E940A1B6BE3CE01D4
:101940000E94CB1A68ED71E0CE010E94BB1AF8012B
:1019500084A195A121A5220F330B820F931FFC01B7
:10196000E15EFE4F60817181CE010E940A1B6BE334
:10197000CE01DF91CF911F910F910C94CB1ADF9183
:10198000CF911F910F9108950F931F93CF93DF93E2
:101990008C01EB0167E070E0CE010E948219209774
:1019A00099F06CED71E0CE010E94BB1AF80162A5BE
:1019B00073A5CE010E940A1B6BE3CE01DF91CF918C
:1019C0001F910F910C94CB1ADF91CF911F910F9122
:1019D00008954F925F926F927F928F929F92AF92F3
:1019E000BF92CF92DF92EF92FF920F931F93CF930C
:1019F000DF93EC010CA11DA1580185EDA81A8EEF13
:101A0000B80AF5018081843008F4C4C06801F8EF99
:101A1000CF1AFEEFDF0AF601608170E080E090E00F
:101A20000E947D1C2AE037ED43E25DE30E94311DF8
:101A30000E944F1C40E050E0912C812CEE24EA944F
:101A4000FE2C262F30E0F5018081481708F06BC08E
:101A5000642F70E0F801E60FF71FE4818E2F9927BD
:101A600087FD9095821793070CF45BC0660F771F74
:101A7000600F711FDB01A15EBE4F6D917C91161648
:101A800017064CF55E0F8394E60EF71EEFA1EF3FAD
:101A900069F08E2F880F990B800F911FDC01A15EDA
:101AA000BE4F8D919C91861797070CF4E42FEFA3FE
:101AB000E9A5EF3F69F08E2F880F990B800F911FDA
:101AC000DC01A15EBE4F8D919C91681779070CF4E3
:101AD000E42FE9A726C05E1B9394EEA1EF3F69F0C7
:101AE0008E2F880F990B800F911FDC01A15EBE4FD6
:101AF0008D919C91681779070CF4E42FEEA3E8A56B
:101B0000EF3F69F08E2F880F990B800F911FDC013A
:101B1000A15EBE4F8D919C91861797070CF4E42F20
:101B2000E8A74F5F90CF652F70E080E090E00E94C3
:101B30007D1C2B013C01F601608170E080E090E0AB
:101B40000E947D1C2AE037ED43EA5CE30E94311DD0
:101B50009B01AC01C301B2010E942D1D1816D4F0E7
:101B6000981018C0C70163E070E00E94B41D7BA705
:101B70006AA79EA19F3F71F088A58F3F59F09817E3
:101B800049F02FA12F3F31F099A59F3F19F081E037
:101B9000291301C080E0DF91CF911F910F91FF9039
:101BA000EF90DF90CF90BF90AF909F908F907F90FD
:101BB0006F905F904F900895FC0183A12E2FDF015D
:101BC0009A2F921B981710F41D92FACF168E178E2B
:101BD00087E082A3089524E1FC0124A70C94DC0D86
:101BE0007F928F929F92AF92BF92CF92DF92EF92AD
:101BF000FF920F931F93CF93DF93EC018CA19DA1D4
:101C0000FC01E45FFE4F108233971082812CBB24CD
:101C1000B39437E0A32E0CA11DA1F801E85FFE4F9D
:101C20008081881608F0A3C08DA5811110C0F8012D
:101C3000E80DF11DF2846F2DCE010E94C40B8111BD
:101C4000DFC06F2DCE010E94D90B8111D9C0CDA468
:101C50000CA11DA1CC2079F18EA581112CC0C80149
:101C6000885F9E4F7C01F801E80DF11DD2846D2D37
:101C7000CE010E94C40B811105C0F7018081881636
:101C800008F4C8C0282DF70180818816A0F4C80187
:101C90008D0D911D8D0D911DFC01E15EFE4F91801A
:101CA000991C9924991CF801E75FFE4F8080281940
:101CB00009F0ACC0BEA68EA5882309F456C0CC207E
:101CC00009F453C0E82CF12C6801CE0CDF1CF6019E
:101CD0007284672DCE010E94C40B882311F09B24CF
:101CE0001CC0672DCE010E94D90B782E882309F4E1
:101CF00093C0F801E85FFE4F208130E021503109A8
:101D0000E216F3060CF088C0F6016385CE010E944E
:101D1000D90B882309F480C083944E8D8BA148177A
:101D200020F55AA1852F90E0292D332727FD3095E6
:101D3000052E01C0220F0A94EAF7FE01E40FF11DFF
:101D40003081322B30832F8D2F5F2F8F28A1821B64
:101D5000910997FD03C0521B5AA307C0AAA24F5F67
:101D60004E8FFE01E40FF11D1082839454CF881230
:101D70003AC0D801A75FBE4F4C91423058F12F8D29
:101D800030E08CA587FD8F5F8595992787FD90951D
:101D90008217930744F5841A80828CA19DA1FC01CF
:101DA000E85FFE4F408150E04F5F5F4F31966081AA
:101DB00070E0665F7F4F680F791F0A960E942F20A0
:101DC0008CA19DA1FC01E45FFE4F21E02083BD9624
:101DD000208314C0411107C0D801A75CBE4F81E029
:101DE0008C9310820BC04F8D50E02CA5332727FD1C
:101DF000309581E0421753070CF071C080E06FC04E
:101E0000F801E75FFE4F8082BDA621CF20FF52CFB1
:101E1000839450CF839427CF4F8D50E02CA5332748
:101E200027FD309542175307CCF4772089F0F8014D
:101E3000E85FFE4F808190E00197E816F90644F4D0
:101E4000F6016385CE010E94D90B882309F442C0B4
:101E50001DA61EA6CE010E94DC0D5FCFF801E65F35
:101E6000FE4F80828CA19DA1FC01E85FFE4FDC014A
:101E7000A65FBE4F20818C91281B20838CA19DA141
:101E8000FC01E85FFE4F408150E04F5F5F4F3296AC
:101E9000608170E0665F7F4F680F791F0A960E942D
:101EA0002F200CA11DA1F801E45FFE4FFF24F39445
:101EB000F08234978081F801E80FF11D6285CE0130
:101EC0000E94D90B882309F48ECFF801E75CFE4FFE
:101ED000F08294CFF801E75FFE4F8080B9CFDF91A9
:101EE000CF911F910F91FF90EF90DF90CF90BF9017
:101EF000AF909F908F907F9008953F924F925F9206
:101F00006F927F928F929F92AF92BF92CF92DF9209
:101F1000EF92FF920F931F93CF93DF9300D000D0E7
:101F200000D0CDB7DEB77C015C0187ECA81A8EEF3C
:101F3000B80AF5018081811105C0F197808188324E
:101F400008F4B4C2C7010E941E0940E060E0C70166
:101F50000E94FE08C7010E942F0AC7010E94DE0AE4
:101F6000F7018381882309F42BC1EF5EFE4F808146
:101F70009181029709F024C14701F7EF8F1AFEEF14
:101F80009F0AF40160815701F6EFAF1AFEEFBF0A16
:101F900082E0860FF50180838701085F1E4FF801FC
:101FA0007081872F90E00197D701A45DBE4FF501A6
:101FB000D0802D2D30E0281739070CF5F701E20FFE
:101FC000F31F438550E02C91332727FD30954217AE
:101FD000530781F4428550E0F7012081332727FD24
:101FE00030954217530731F4DA94F501D082DD249D
:101FF000D39406C0D394D394F501D082D8CFD12CFA
:10200000F5018081781708F47083F5014081C701DC
:102010000E94FE08DD2051F0F501808190E0F4017E
:102020002081821B9109889734F4C6C0F801408151
:102030004E3F08F0A2C06701F3EDCF1AFEEFDF0AB2
:1020400067E072E0C6010E94171A87010D5C1E4FFF
:1020500067E072E0C8010E94171A62E0C6010E94A0
:10206000CB1A6FED71E0C6010E94BB1A6BE3C6018B
:102070000E94CB1A312C370185ED681A8EEF780A51
:10208000F3018081381640F5432C512CF701E40D03
:10209000F51D84818823F1F060E5C6010E94CB1A0A
:1020A000632DC6010E94DE1A6DED71E0C6010E942B
:1020B000BB1AC201880F991F8E0D9F1DFC01E15EA6
:1020C000FE4F60817181C6010E940A1B6BE3C6014D
:1020D0000E94CB1A3394D4CF62EE71E0C6010E9405
:1020E000BB1A6BE3C8010E94CB1A65EE71E0C80110
:1020F0000E94BB1AF7016081772767FD7095C801C0
:102100000E940A1B6BE3C8010E94CB1A69EE71E0C2
:10211000C8010E94BB1AF701E45DFE4F608177277A
:1021200067FD7095C8010E940A1B6BE3C8010E94FD
:10213000CB1AF701E35FFE4F8081882349F06DEEF3
:1021400071E0C8010E94BB1A6BE3C8010E94CB1A60
:1021500063E0C8010E94CB1A6AE0C8010E94CB1A52
:102160009601F5014081F4016081C7010E949B0B3B
:1021700081E0F701E55FFE4F1DC0F4016081623030
:10218000D8F0F501808190E08D3F9105ACF0461BC1
:10219000F801408350E04F5F5F4F70E0665F7F4F14
:1021A0006E0D7F1DC7010A960E942F2081E0F70166
:1021B000E45FFE4F80832AC1C7010E94970826C1B1
:1021C000F7018181811104C08281882309F41AC139
:1021D000F701EF5EFE4F80819181019709F012C1F6
:1021E0004701F8EF8F1AFEEF9F0AF40180818832D1
:1021F00008F408C16701F3EDCF1AFEEFDF0A67E0CC
:1022000072E0C6010E94171A87010D5C1E4F67E03D
:1022100072E0C8010E94171A62E0C6010E94CB1A40
:10222000F7018281882309F463C08091330481110E
:1022300043C08EE18093260481E0809323041092B2
:10224000240483E094E00E94DC0D2091230487E0C5
:1022500090E0821B91097091240467E041E050E016
:10226000262F30E0821793074CF49A01062E01C006
:10227000220F0A94EAF7722B6150F2CF7093240474
:102280008FEF8093290480932A0480932B048093FA
:102290002C041092300410923104F0922804E09241
:1022A000270483E094E00E94EB0D81E080933304E7
:1022B00086E998E00E94A517F5018081811107C089
:1022C00083E094E00E94EB0D81E180932F04F501FF
:1022D0008081882339F083E094E00E94F00D811121
:1022E0009FC006C083E094E00E94E90C8111F3CF07
:1022F000F7018181882309F489C05701F5EFAF1AEE
:10230000FEEFBF0AF5018081811180C06FEE71E0A0
:10231000C6010E94BB1A6BE3C6010E94CB1A312C86
:102320003701F5ED6F1AFEEF7F0AF3018081381651
:1023300048F5432C512CF701E40DF51D84818823C9
:10234000F9F060EC71E0C6010E94BB1A632DC60172
:102350000E94DE1A6DED71E0C6010E94BB1AC20137
:10236000880F991F8E0D9F1DFC01E15EFE4F60815D
:102370007181C6010E940A1B6BE3C6010E94CB1A41
:102380003394D3CF62EE71E0C6010E94BB1A6BE3B7
:10239000C8010E94CB1A65EE71E0C8010E94BB1A09
:1023A000F7016081772767FD7095C8010E940A1BBD
:1023B0006BE3C8010E94CB1AF701E35FFE4F8081F7
:1023C000882349F06DEE71E0C8010E94BB1A6BE3EF
:1023D000C8010E94CB1A63E0C8010E94CB1A6AE0D0
:1023E000C8010E94CB1AF40140814150960160E07F
:1023F000C7010E949B0BF701E45FFE4F108281E052
:10240000F501D8CEF701E55FFE4F1082F701E45FDA
:10241000FE4F808181114AC0C7010E94970846C0C3
:1024200067E072E0CE0101960E94BF1962EE71E092
:10243000CE0101960E94171ABE016F5F7F4F83E0A5
:1024400094E00E94EE0B62EF71E0C6010E94BB1A9D
:102450006BE3C6010E94CB1AB60183E094E00E94B0
:10246000490C6BE3C8010E94CB1AB80183E094E0E9
:102470000E94C40C63E0C8010E94CB1A6AE0C80144
:102480000E94CB1A9801AE014F5F5F4FB601C701A2
:102490000E94830BF501108281E0F701E55FFE4F9A
:1024A0008083CE0101960E94511922CF26960FB645
:1024B000F894DEBF0FBECDBFDF91CF911F910F917A
:1024C000FF90EF90DF90CF90BF90AF909F908F9054
:1024D0007F906F905F904F903F9008958F929F9262
:1024E000AF92BF92CF92DF92EF92FF920F931F9322
:1024F000CF93DF931F92CDB7DEB74C018C01085FFD
:102500001E4FD8018C9190E08D3F910544F081E001
:10251000F401E35FFE4F8083C4010E947D0FF4014C
:10252000E05FFE4F10826401B9EECB1ABEEFDB0A0A
:10253000D601ED91FC9111978081918112960D90B9
:10254000BC91A02D2D913C91D8014C915091320419
:102550007401B5EDEB1ABEEFFB0AD7016C9165175C
:1025600008F45C93442361F082279327B92EBB1CA7
:10257000BB24BB1C81E04D3F09F480E0B82205C0BC
:10258000D7011C9210923204B12C60817181C40178
:1025900049830E94D808A82E498187FD2CC0F401E8
:1025A000E40FF11D8287423030F081858A1103C02B
:1025B000C4010E9497088A2D880F990B880D991DD8
:1025C000FC01E15EFE4FD6018D919C91208131810D
:1025D000DC018D919C91280F391F37FF02C02F5FBE
:1025E0003F4F3595279531832083F80180818F5F98
:1025F000808320E012C040E060E0C4010E94FE0839
:10260000D7018C91863041F480913204F401E80FB7
:10261000F11D8481823024F421E0B1101DC001C07D
:1026200020E0F8018081A401455F5E4F5A018832A5
:1026300048F081E0DA018C93C4010E947D0F109272
:1026400032046AC0C40129830E949708F5011082F0
:102650001092320429810BC0D8018C91883238F055
:1026600083E090E0F401EF5EFE4F918380832223AC
:1026700009F452C0F80140815091320480E090E0AA
:10268000242F30E0F9013197280D391DBF01680F63
:10269000791F6F3FAFEF7A07E1F00197D901A80FDB
:1026A000B91F1A96AC91A513F1CFCB010196481B27
:1026B000D8014C9350E04F5F5F4F655F7F4F680DCF
:1026C000791DC4010A960E942F20F80180818F5F36
:1026D000808340913204D601ED91FC9120813181BB
:1026E000C401840F911D840F911DFC01E15EFE4F1A
:1026F00031832083F8018081F401E80FF11D4287C6
:102700008F5FD8018C934F5F40933204463021F4A1
:1027100010923204F70140830F90DF91CF911F9107
:102720000F91FF90EF90DF90CF90BF90AF909F9070
:102730008F900895CF93DF93EC01C55FDE4F188231
:10274000FC01E75EFE4F0190F081E02D2081318198
:10275000DC01A95EBE4F0D90BC91A02D2D933C9342
:10276000DB012D913C91318320830E946E12888180
:10277000DF91CF91089508958230E8F4E82FF0E0DA
:10278000EE0FFF1FE75FFE4F71836083813041F0E2
:10279000809169008C7F842B80936900E89A08956A
:1027A00080916900440F551F440F551F837F842B70
:1027B00080936900E99A0895823078F4813011F0AD
:1027C000E89801C0E998E82FF0E0EE0FFF1FE75FFF
:1027D000FE4F8BEB93E19183808308951F920F92BC
:1027E0000FB60F9211242F933F934F935F936F93E4
:1027F0007F938F939F93AF93BF93EF93FF93E0915A
:102800000901F0910A010995FF91EF91BF91AF91F4
:102810009F918F917F916F915F914F913F912F91F8
:102820000F900FBE0F901F9018951F920F920FB62A
:102830000F9211242F933F934F935F936F937F9346
:102840008F939F93AF93BF93EF93FF93E0910B010F
:10285000F0910C010995FF91EF91BF91AF919F917C
:102860008F917F916F915F914F913F912F910F9039
:102870000FBE0F901F9018951F920F920FB60F92D8
:1028800011242F933F938F939F93AF93BF93809186
:102890003C0490913D04A0913E04B0913F043091DE
:1028A0003B0423E0230F2D3720F40196A11DB11D19
:1028B00005C026E8230F0296A11DB11D20933B04FD
:1028C00080933C0490933D04A0933E04B0933F0456
:1028D0008091400490914104A0914204B09143043E
:1028E0000196A11DB11D8093400490934104A093D3
:1028F0004204B0934304BF91AF919F918F913F9158
:102900002F910F900FBE0F901F9018952FB7F8942E
:1029100060913C0470913D0480913E0490913F048D
:102920002FBF08953FB7F8948091400490914104DF
:10293000A0914204B091430426B5A89B05C02F3F47
:1029400019F00196A11DB11D3FBF6627782F892F71
:102950009A2F620F711D811D911D42E0660F771F36
:10296000881F991F4A95D1F70895CF92DF92EF9271
:10297000FF92CF93DF936B017C010E949214EB01D5
:10298000C114D104E104F10489F00E94E41B0E9407
:1029900092146C1B7D0B683E734090F381E0C81A63
:1029A000D108E108F108C851DC4FEACFDF91CF919F
:1029B000FF90EF90DF90CF9008958230910538F02E
:1029C000880F991F880F991F05970197F1F70895B0
:1029D000789484B5826084BD84B5816084BD85B5FA
:1029E000826085BD85B5816085BDEEE6F0E08081C1
:1029F00081608083E1E8F0E01082808182608083E2
:102A0000808181608083E0E8F0E080818160808364
:102A1000E1EBF0E0808184608083E0EBF0E0808196
:102A200081608083EAE7F0E0808184608083808138
:102A300082608083808181608083808180688083E0
:102A40001092C1000895833081F028F4813099F00C
:102A50008230A1F008958730A9F08830B9F0843031
:102A6000D1F4809180008F7D03C0809180008F77AA
:102A700080938000089584B58F7702C084B58F7DE0
:102A800084BD08958091B0008F7703C08091B0001D
:102A90008F7D8093B0000895CF93DF9390E0FC0189
:102AA000E555FF4F2491FC01E154FF4F84918823A9
:102AB00049F190E0880F991FFC01E352FF4FA59167
:102AC000B4918D529F4FFC01C591D4919FB7611174
:102AD00008C0F8948C91209582238C93888182235E
:102AE0000AC0623051F4F8948C91322F30958323D0
:102AF0008C938881822B888304C0F8948C91822BDC
:102B00008C939FBFDF91CF9108950F931F93CF9325
:102B1000DF931F92CDB7DEB7282F30E0F901E956D9
:102B2000FF4F8491F901E555FF4F1491F901E154EC
:102B3000FF4F04910023C9F0882321F069830E948C
:102B400023156981E02FF0E0EE0FFF1FED52FF4FDC
:102B5000A591B4919FB7F8948C91611103C0109521
:102B6000812301C0812B8C939FBF0F90DF91CF9168
:102B70001F910F910895FC01818D228D90E0805C62
:102B80009F4F821B91098F7399270895FC01918DA6
:102B9000828D981731F0828DE80FF11D858D90E0C0
:102BA00008958FEF9FEF0895FC01918D828D981706
:102BB00061F0828DDF01A80FB11D5D968C91928D21
:102BC0009F5F9F73928F90E008958FEF9FEF08951E
:102BD00088E597E1892B49F08EE498E0892B29F06C
:102BE0000E94581781110C944E080895FC01848DA1
:102BF000DF01A80FB11DA35ABF4F2C91848D90E027
:102C000001968F739927848FA689B7892C93A08901
:102C1000B1898C9180648C93938D848D981306C0B8
:102C20000288F389E02D80818F7D80830895CF9382
:102C3000DF93EC01888D8823C9F0EA89FB898081C4
:102C400085FD05C0A889B9898C9186FD0FC00FB696
:102C500007FCF5CF808185FFF2CFA889B9898C91D7
:102C600085FFEDCFCE010E94F615E7CFDF91CF9122
:102C70000895CF92DF92FF920F931F93CF93DF932C
:102C80001F92CDB7DEB76C0181E0D60158968C93C8
:102C900058975B969C915B975C968C915C97981388
:102CA00007C05096ED91FC915197808185FD2EC013
:102CB000F601038D10E00F5F1F4F0F731127F02EE9
:102CC000F601848DF81211C00FB607FCF9CFD601BA
:102CD0005096ED91FC915197808185FFF1CFC6010F
:102CE00069830E94F6156981EBCF838DE80FF11D92
:102CF000E35AFF4F6083D6015B960C935B97529625
:102D0000ED91FC915397808180620CC0D60156965C
:102D1000ED91FC91579760835096ED91FC915197FE
:102D200080818064808381E090E00F90DF91CF917B
:102D30001F910F91FF90DF90CF900895BF92CF9297
:102D4000DF92EF92FF92CF93DF93EC016A017B0158
:102D5000B22EE889F98982E08083411581EE580717
:102D600061057105A1F060E079E08DE390E0A701D5
:102D700096010E94C81D21503109410951095695FB
:102D8000479537952795211580E1380798F0E88910
:102D9000F989108260E874E88EE190E0A70196015D
:102DA0000E94C81D21503109410951095695479586
:102DB00037952795EC85FD853083EE85FF8520834B
:102DC000188EEC89FD89B082EA89FB898081806157
:102DD0008083EA89FB89808188608083EA89FB8916
:102DE000808180688083EA89FB8980818F7D8083F0
:102DF000DF91CF91FF90EF90DF90CF90BF9008953B
:102E00001F920F920FB60F9211242F938F939F93BF
:102E1000EF93FF93E0915404F09155048081E09189
:102E20005A04F0915B0482FD12C0908180915D0490
:102E30008F5F8F7320915E04821751F0E0915D04E3
:102E4000F0E0EC5BFB4F958F80935D0401C08081C7
:102E5000FF91EF919F918F912F910F900FBE0F9047
:102E60001F9018951F920F920FB60F9211242F9357
:102E70003F934F935F936F937F938F939F93AF9302
:102E8000BF93EF93FF9384E494E00E94F615FF91C3
:102E9000EF91BF91AF919F918F917F916F915F91D2
:102EA0004F913F912F910F900FBE0F901F9018954B
:102EB00084E494E00E94BB1521E0892B09F420E012
:102EC000822F0895109247041092460488EE93E0F2
:102ED000A0E0B0E08093480490934904A0934A0492
:102EE000B0934B0489EF91E09093450480934404A0
:102EF00085EC90E0909351048093500484EC90E032
:102F0000909353048093520480EC90E09093550486
:102F10008093540481EC90E090935704809356047E
:102F200082EC90E0909359048093580486EC90E0F2
:102F300090935B0480935A0410925D0410925E0497
:102F400010925F0410926004089580E090E008956C
:102F500008950E94E8140E94A8170E94B507C8EEC1
:102F6000D5E10E944E072097E1F30E94E815F9CFC2
:102F7000CF92DF92EF92FF920F931F93CF93DF9345
:102F80007C016A01EB0100E010E00C151D0571F0F9
:102F90006991D701ED91FC910190F081E02DC7017D
:102FA0000995892B19F00F5F1F4FEFCFC801DF91F3
:102FB000CF911F910F91FF90EF90DF90CF900895E8
:102FC0006115710581F0DB010D900020E9F7AD017D
:102FD00041505109461B570BDC01ED91FC910280D9
:102FE000F381E02D099480E090E00895EF92FF9244
:102FF0000F931F93CF93DF938C017B01C0E0D0E050
:10300000F701EC0FFD1F6491662359F0F801A081D0
:10301000B181ED91FC91C8010995892B11F02196A0
:10302000EFCFCE01DF91CF911F910F91FF90EF90E5
:103030000895DC01ED91FC91DB0114964D915C91BA
:1030400015976D917C910280F381E02D0994DC014C
:10305000ED91FC910190F081E02D099465E072E022
:103060000C94E0170F931F93CF93DF93EC010E9412
:10307000F6178C01CE010E942E18800F911FDF9150
:10308000CF911F910F9108950F931F93CF93DF93CB
:10309000EC010E9419188C01CE010E942E18800F9D
:1030A000911FDF91CF911F910F9108950F931F935F
:1030B000CF93DF93EC010E94E0178C01CE010E94B8
:1030C0002E18800F911FDF91CF911F910F910895BE
:1030D0008F929F92AF92BF92CF92DF92EF92FF9228
:1030E0000F931F93CF93DF93CDB7DEB7A1970FB6A2
:1030F000F894DEBF0FBECDBF7C01C42EE52FCB01FF
:10310000D22E19A221E02D1510F02AE0D22E8E0128
:103110000F5D1F4F8D2C912CA12CB12C6C2D7E2F6F
:10312000A50194010E94C81D8C2DD29E80191124E6
:10313000015011098A3014F4805D01C0895CF801E6
:103140008083211531054105510521F0C22EE32F61
:10315000CA01E4CFB801C7010E94E017A1960FB6DB
:10316000F894DEBF0FBECDBFDF91CF911F910F91BD
:10317000FF90EF90DF90CF90BF90AF909F908F9097
:103180000895CF92DF92EF92FF920F931F93CF9308
:10319000DF93EC016A017B012115310579F4E881A7
:1031A000F9810190F081E02D642FDF91CF911F9183
:1031B0000F91FF90EF90DF90CF9009942A30310566
:1031C000E9F477FF1AC06DE20E9427188C014427AA
:1031D0005527BA014C195D096E097F092AE0CE0115
:1031E0000E946818800F911FDF91CF911F910F915E
:1031F000FF90EF90DF90CF9008952AE0B701A601ED
:10320000CE01DF91CF911F910F91FF90EF90DF9052
:10321000CF900C9468189A01AB01662757FD609512
:10322000762F0C94C1180F931F93CF93DF93EC016B
:103230009A01AB01662757FD6095762F0E94C11851
:103240008C01CE010E942E18800F911FDF91CF912B
:103250001F910F9108952115310541F4DC01ED9185
:10326000FC910190F081E02D642F09940C94681872
:103270009A01462F50E060E070E00C942B190F93F8
:103280001F93CF93DF93EC010E942B198C01CE0189
:103290000E942E18800F911FDF91CF911F910F91E7
:1032A0000895FC01808191810C94881ECF93DF9357
:1032B000EC0188819981009711F00E94881E198283
:1032C00018821D821C821B821A82DF91CF91089581
:1032D0000F931F93CF93DF93EC018B016F5F7F4FB1
:1032E000888199810E94171F009731F09983888304
:1032F0001B830A8381E001C080E0DF91CF911F91A1
:103300000F910895CF93DF93EC0188819981892BE8
:1033100029F08A819B818617970760F4CE010E946D
:103320006819882341F08C819D81892B19F4E881EB
:10333000F981108281E0DF91CF910895EF92FF92A1
:103340000F931F93CF93DF93EC017B018A01BA01A6
:103350000E948219811104C0CE010E94561907C033
:103360001D830C83B701888199810E944120CE0181
:10337000DF91CF911F910F91FF90EF900895FC0185
:1033800011821082138212821582148261157105D6
:1033900059F0FB0101900020E9F7AF0141505109BC
:1033A000461B570B0C949E1908950F931F93CF93B0
:1033B000DF938C01EB01FC0180819181009799F0F2
:1033C000428153812C813D814217530750F068811F
:1033D00079810E9441208C819D81F80195838483AD
:1033E00013C00E94881E88819981F801918380838F
:1033F0008A819B81938382838C819D819583848341
:10340000198218821B821A821D821C82DF91CF9141
:103410001F910F910895CF93DF93EC0186179707C3
:1034200011F00E94D519CE01DF91CF910895CF936D
:10343000DF93EC016115710561F0FB010190002043
:10344000E9F7AF0141505109461B570B0E949E19E5
:1034500002C00E945619CE01DF91CF9108950F93BB
:103460001F93CF93DF93CDB7DEB729970FB6F894AC
:10347000DEBF0FBECDBF8C01862FF80111821082F6
:10348000138212821582148250E0BE016F5F7F4F5B
:1034900090E00E94A420BE016F5F7F4FC8010E9490
:1034A000171A29960FB6F894DEBF0FBECDBFDF9175
:1034B000CF911F910F9108950F931F93CF93DF9397
:1034C000CDB7DEB762970FB6F894DEBF0FBECDBFA3
:1034D0008C01CB01F80111821082138212821582B5
:1034E000148250E0BE016F5F7F4F0E947120BE01C9
:1034F0006F5F7F4FC8010E94171A62960FB6F8944B
:10350000DEBF0FBECDBFDF91CF911F910F91089508
:10351000EF92FF920F931F93CF93DF93EC017B0108
:103520000C811D816115710511F480E016C04115F3
:10353000510591F0040F151FB8010E9482198823CC
:10354000A1F3288139818C819D81B701820F931F5E
:103550000E9441201D830C8381E0DF91CF911F9158
:103560000F91FF90EF900895FB0144815581608198
:1035700071810C94881A6115710559F0FB01019055
:103580000020E9F7AF0141505109461B570B0C943D
:10359000881A80E00895CF93DF9300D0CDB7DEB7CF
:1035A00069831A8241E050E0BE016F5F7F4F0E9445
:1035B000881A0F900F90DF91CF910895EF92FF92AC
:1035C0000F931F93CF93DF9300D000D0CDB7DEB71A
:1035D0007C01862F4AE08E010F5F1F4FB80190E0FB
:1035E0000E947C20F80101900020E9F7AF014150D2
:1035F0005109401B510BB801C7010E94881A0F9056
:103600000F900F900F90DF91CF911F910F91FF902E
:10361000EF900895EF92FF920F931F93CF93DF9354
:10362000CDB7DEB728970FB6F894DEBF0FBECDBF7B
:103630007C01CB014AE08E010F5F1F4FB8010E9451
:103640007C20F80101900020E9F7AF0141505109B9
:10365000401B510BB801C7010E94881A28960FB66B
:10366000F894DEBF0FBECDBFDF91CF911F910F91B8
:10367000FF90EF900895FC01248135816217730754
:1036800048F480819181009729F0FC01E60FF71F33
:103690008081089580E008950C943B1B0F931F9345
:1036A000CF93DF93EB0141155105E9F02097D9F055
:1036B000FC016481758126173707A0F4621B730B28
:1036C0008A01015011096017710708F48B01FC0190
:1036D00060817181620F731FA801CE010E94482092
:1036E000C00FD11F1882DF91CF911F910F910895C4
:1036F000CF93DF93FC01848195814817590778F4B3
:10370000C081D181FB0160817181CE01840F951F41
:103710000E945720009719F08C1B9D0B02C08FEF61
:103720009FEFDF91CF910895BF92CF92DF92EF92FA
:10373000FF920F931F93CF93DF936C017B01EA01FC
:1037400089012417350720F48D2FE901042F182F44
:1037500067E072E0C6010E94BF19D70114968D91EF
:103760009C911597C817D907C8F48017910708F4DA
:103770008C01D701ED91FC911197E00FF11FB08002
:1037800010826D917C916C0F7D1FC6010E94171AEB
:10379000D701ED91FC91E00FF11FB082C601DF91DE
:1037A000CF911F910F91FF90EF90DF90CF90BF903E
:1037B0000895FC0180819181009711F00C94FF1F06
:1037C00060E070E0CB01089508955058BB27AA2708
:1037D0000ED009C1FAD030F0FFD020F031F49F3F75
:1037E00011F41EF4EFC00EF4E095E7FBE5C0E92FFD
:1037F0000BD180F3BA17620773078407950718F097
:1038000071F49EF523C10EF4E0950B2EBA2FA02D76
:103810000B01B90190010C01CA01A0011124FF277D
:10382000591B99F0593F50F4503E68F11A16F04078
:10383000A22F232F342F4427585FF3CF4695379577
:103840002795A795F0405395C9F77EF41F16BA0B3C
:10385000620B730B840BBAF09150A1F0FF0FBB1FEA
:10386000661F771F881FC2F70EC0BA0F621F731F33
:10387000841F48F4879577956795B795F7959E3F90
:1038800008F0B3CF9395880F08F09927EE0F97951E
:103890008795089504D06894B111D9C00895BCD01B
:1038A00088F09F5790F0B92F9927B751A0F0D1F029
:1038B000660F771F881F991F1AF0BA95C9F712C0B3
:1038C000B13081F0C3D0B1E00895C0C0672F782F28
:1038D0008827B85F39F0B93FCCF38695779567951F
:1038E000B395D9F73EF490958095709561957F4F8B
:1038F0008F4F9F4F0895E89409C097FB3EF4909531
:103900008095709561957F4F8F4F9F4F9923A9F0B8
:10391000F92F96E9BB279395F69587957795679547
:10392000B795F111F8CFFAF4BB0F11F460FF1BC08B
:103930006F5F7F4F8F4F9F4F16C0882311F096E91E
:1039400011C0772321F09EE8872F762F05C06623CC
:1039500071F096E8862F70E060E02AF09A95660F85
:10396000771F881FDAF7880F9695879597F908953E
:10397000990F0008550FAA0BE0E8FEEF1616170680
:10398000E807F907C0F012161306E407F50798F0E8
:10399000621B730B840B950B39F40A2661F0232B01
:1039A000242B252B21F408950A2609F4A140A6957D
:1039B0008FEF811D811D089597F99F6780E870E062
:1039C00060E008959FEF80EC089500240A94161695
:1039D000170618060906089500240A9412161306FD
:1039E000140605060895092E0394000C11F488238B
:1039F00052F0BB0F40F4BF2B11F460FF04C06F5FA7
:103A00007F4F8F4F9F4F089557FD9058440F551F7C
:103A100059F05F3F71F04795880F97FB991F61F050
:103A20009F3F79F087950895121613061406551FC7
:103A3000F2CF4695F1DF08C0161617061806991F33
:103A4000F1CF86957105610508940895E894BB2728
:103A500066277727CB0197F908958ADF08F48FEF5F
:103A600008950BD0C0CFB1DF28F0B6DF18F0952352
:103A700009F0A2CFA7CF1124EACFC6DFA0F3959F0C
:103A8000D1F3950F50E0551F629FF001729FBB2745
:103A9000F00DB11D639FAA27F00DB11DAA1F649FF1
:103AA0006627B00DA11D661F829F2227B00DA11DA4
:103AB000621F739FB00DA11D621F839FA00D611D2A
:103AC000221F749F3327A00D611D231F849F600D4B
:103AD000211D822F762F6A2F11249F5750408AF084
:103AE000E1F088234AF0EE0FFF1FBB1F661F771F10
:103AF000881F91505040A9F79E3F510570F05CCF50
:103B0000A6CF5F3FECF3983EDCF3869577956795FB
:103B1000B795F795E7959F5FC1F7FE2B880F911D2D
:103B20009695879597F90895991B79E004C0991F98
:103B3000961708F0961B881F7A95C9F78095089507
:103B4000AA1BBB1B51E107C0AA1FBB1FA617B707C3
:103B500010F0A61BB70B881F991F5A95A9F78095DF
:103B60009095BC01CD01089597FB072E16F40094A3
:103B700007D077FD09D00E94A01D07FC05D03EF4B8
:103B8000909581959F4F0895709561957F4F089509
:103B9000A1E21A2EAA1BBB1BFD010DC0AA1FBB1F51
:103BA000EE1FFF1FA217B307E407F50720F0A21BC3
:103BB000B30BE40BF50B661F771F881F991F1A9430
:103BC00069F760957095809590959B01AC01BD015A
:103BD000CF010895EE0FFF1F0590F491E02D099499
:103BE000CF93DF938230910510F482E090E0E09172
:103BF000E304F091E40420E030E0A0E0B0E030978E
:103C000039F14081518148175907B8F048175907D1
:103C100071F482819381109729F013969C938E936F
:103C200012972CC09093E4048093E30427C02115DD
:103C3000310531F04217530718F0A901DB0101C02B
:103C4000EF019A01BD01DF010280F381E02DD7CFA2
:103C500021153105F9F0281B390B2430310580F48A
:103C60008A819B816115710521F0FB019383828319
:103C700004C09093E4048093E304FE01329644C0B0
:103C8000FE01E20FF31F8193919322503109398392
:103C900028833AC02091E1043091E204232B41F4BF
:103CA00020910201309103013093E2042093E1045A
:103CB00020910001309101012115310541F42DB70A
:103CC0003EB74091040150910501241B350BE09152
:103CD000E104F091E204E217F307A0F42E1B3F0B7E
:103CE0002817390778F0AC014E5F5F4F241735076E
:103CF00048F04E0F5F1F5093E2044093E10481931C
:103D0000919302C0E0E0F0E0CF01DF91CF91089500
:103D1000CF93DF93009709F487C0FC013297138299
:103D20001282C091E304D091E404209781F42081B1
:103D30003181280F391F8091E1049091E2048217AC
:103D4000930779F5F093E204E093E1046DC0DE019E
:103D500020E030E0AE17BF0750F412964D915C9111
:103D600013979D014115510509F1DA01F3CFB38392
:103D7000A28340815181840F951F8A179B0771F49C
:103D80008D919C911197840F951F0296918380834A
:103D900012968D919C9113979383828321153105FF
:103DA00029F4F093E404E093E3043EC0D9011396B0
:103DB000FC93EE9312974D915D91A40FB51FEA17F6
:103DC000FB0779F480819181840F951F0296D901B8
:103DD00011969C938E938281938113969C938E93DC
:103DE0001297E0E0F0E08A819B81009719F0FE01D4
:103DF000EC01F9CFCE01029628813981820F931F01
:103E00002091E1043091E2042817390769F43097D2
:103E100029F41092E4041092E30402C01382128287
:103E2000D093E204C093E104DF91CF910895A0E024
:103E3000B0E0EDE1FFE10C948D23EC01CB01209784
:103E400019F40E94F01DB8C0FE01E60FF71F9E0195
:103E500022503109E217F30708F4ACC0D9010D91E3
:103E60001C91119706171707B8F00530110508F4D3
:103E70009FC0A801445051094617570708F498C03D
:103E800002501109061B170B019311936D937C933C
:103E9000CF010E94881E8CC05B01A01AB10A4E019E
:103EA000800E911EA091E304B091E404612C712C6A
:103EB00060E070E0109709F449C0A815B905C9F58C
:103EC000ED90FC901197670142E0C40ED11CCA141A
:103ED000DB0478F147018A189B08640142E0C40EB4
:103EE000D11C1296BC9012971396AC91B5E0CB16EC
:103EF000D10440F0B282A38391828082D9018D9354
:103F00009C9309C00E5F1F4F0E0D1F1DF9011183F9
:103F10000083EB2DFA2F6115710531F0DB0113964B
:103F2000FC93EE93129744C0F093E404E093E3040F
:103F30003FC06D917C9111976616770608F43B019E
:103F4000BD0112960D90BC91A02DB4CF6091E104FB
:103F50007091E20468157905E9F468167906D0F4E1
:103F600040910001509101014115510541F44DB7B7
:103F70005EB76091040170910501461B570BE41771
:103F8000F507C0F4F093E204E093E104F9019183B2
:103F900080830EC00E94F01D7C01009759F0A8019B
:103FA000BE010E942620CE010E94881EC70104C0C7
:103FB000CE0102C080E090E0CDB7DEB7EEE00C9419
:103FC000A923FC0188279927E89421912032E9F35D
:103FD000293010F02E30C8F32B3241F02D3239F455
:103FE000689404C00E949C20820F911D219120534F
:103FF0002A30C0F31EF4909581959F4F08951F932A
:10400000FC0199278827BC01E89411911032E9F34B
:10401000193010F01E30C8F31B3251F01D3249F434
:10402000689406C00E948720610F711D811D911D3B
:10403000119110531A30B0F33EF49095809570951D
:1040400061957F4F8F4F9F4F1F910895FB01DC01BA
:1040500002C001900D9241505040D8F70895681762
:10406000790768F4FB01DC01E40FF51FA40FB51F0D
:1040700002C002900E9241505040D8F708950C941F
:104080002620FB01DC0101900D920020E1F708954C
:10409000FB01DC014150504048F001900D9200209E
:1040A000C9F701C01D9241505040E0F70895FB014F
:1040B00051915523A9F0BF01DC014D9145174111E4
:1040C000E1F759F4CD010190002049F04D914015E0
:1040D0004111C9F3FB014111EFCF81E090E001975D
:1040E00008954532510520F4423010F00C947C20A4
:1040F000FB011082CB010895BB274A3031F499238C
:1041000022F4BDE2909581959F4F0C94B020592FD9
:10411000482F372F262F660F771F881F991F660F8E
:10412000771F881F991F620F731F841F951F660FCB
:10413000771F881F991F08957AE0979F902D879F7A
:10414000802D910D112408954532510520F44230FF
:1041500010F00C94AF20FB011082CB010895BB2717
:10416000FB015527AA27880F991FAA1FA41710F033
:10417000A41B83955051B9F7A05DAA3308F0A95D3F
:10418000A193009779F7B111B1931192CB010C94DF
:10419000E922AEE0B0E0EFECF0E20C9497230D8959
:1041A0001E8986E08C831A8309838FEF9FE79E83A5
:1041B0008D83AE01475E5F4F6F89788DCE0101968A
:1041C0000E94EB20EF81F885E00FF11F10822E9600
:1041D000E4E00C94B323ACE0B0E0E1EFF0E20C9447
:1041E00089237C016B018A01FC011782168283817D
:1041F00081FFBDC1CE0101964C01F7019381F6010B
:1042000093FD859193FF81916F01882309F4ABC1E0
:10421000853239F493FD859193FF81916F01853249
:1042200029F4B70190E00E94F922E7CF512C312CFC
:1042300020E02032A0F48B3269F030F4803259F063
:10424000833269F420612CC08D3239F0803339F427
:10425000216026C02260246023C0286021C027FD81
:1042600027C030ED380F3A3078F426FF06C0FAE068
:104270005F9E300D1124532E13C08AE0389E300DFE
:104280001124332E20620CC08E3221F426FD6BC126
:10429000206406C08C3611F4206802C0883641F4D0
:1042A000F60193FD859193FF81916F018111C1CF3B
:1042B000982F9F7D9554933028F40C5F1F4FFFE398
:1042C000F9830DC0833631F0833771F0833509F0FF
:1042D0005BC022C0F801808189830E5F1F4F442498
:1042E0004394512C540115C03801F2E06F0E711C3B
:1042F000F801A080B18026FF03C0652D70E002C0E8
:104300006FEF7FEFC5012C870E94DE222C01830115
:104310002C852F77222E17C03801F2E06F0E711C0A
:10432000F801A080B18026FF03C0652D70E002C0B7
:104330006FEF7FEFC5012C870E94D3222C012C85C3
:104340002068222E830123FC1BC0832D90E0481699
:104350005906B0F4B70180E290E00E94F9223A9445
:10436000F4CFF50127FC859127FE81915F01B7010C
:1043700090E00E94F92231103A94F1E04F1A51086E
:104380004114510471F7E5C0843611F0893639F5CE
:10439000F80127FF07C060817181828193810C5FE2
:1043A0001F4F08C060817181882777FD8095982F05
:1043B0000E5F1F4F2F76B22E97FF09C09095809504
:1043C000709561957F4F8F4F9F4F2068B22E2AE0E6
:1043D00030E0A4010E942B23A82EA81844C08537E2
:1043E00029F42F7EB22E2AE030E025C0F22FF97F8B
:1043F000BF2E8F36C1F018F4883579F0B4C08037FD
:1044000019F0883721F0AFC02F2F2061B22EB4FEF3
:104410000DC08B2D8460B82E09C024FF0AC09F2FC9
:104420009660B92E06C028E030E005C020E130E0FB
:1044300002C020E132E0F801B7FE07C0608171815F
:10444000828193810C5F1F4F06C06081718180E083
:1044500090E00E5F1F4FA4010E942B23A82EA818E6
:10446000FB2DFF77BF2EB6FE0BC02B2D2E7FA51484
:1044700050F4B4FE0AC0B2FC08C02B2D2E7E05C03D
:104480007A2C2B2D03C07A2C01C0752C24FF0DC073
:10449000FE01EA0DF11D8081803311F4297E09C0EF
:1044A00022FF06C07394739404C0822F867809F0AB
:1044B000739423FD13C020FF06C05A2C731418F404
:1044C000530C5718732C731468F4B70180E290E012
:1044D0002C870E94F92273942C85F5CF731410F465
:1044E000371801C0312C24FF12C0B70180E390E0DF
:1044F0002C870E94F9222C8522FF17C021FF03C0C0
:1045000088E590E002C088E790E0B7010CC0822FF8
:10451000867859F021FD02C080E201C08BE227FDC0
:104520008DE2B70190E00E94F922A51438F4B7019A
:1045300080E390E00E94F9225A94F7CFAA94F40104
:10454000EA0DF11D8081B70190E00E94F922A110CF
:10455000F5CF332009F451CEB70180E290E00E94FC
:10456000F9223A94F6CFF7018681978102C08FEF46
:104570009FEF2C96E2E10C94A523F999FECF92BD12
:1045800081BDF89A992780B50895262FF999FECF15
:104590001FBA92BD81BD20BD0FB6F894FA9AF99A60
:1045A0000FBE01960895FC01059061507040011006
:1045B000D8F7809590958E0F9F1F0895FC0161504C
:1045C000704001900110D8F7809590958E0F9F1F35
:1045D0000895DC01FC01672F71917723E1F7329791
:1045E00004C07C916D9370836291AE17BF07C8F3CE
:1045F00008950F931F93CF93DF93182F092FEB018B
:104600008B8181FD03C08FEF9FEF20C082FF10C020
:104610004E815F812C813D81421753077CF4E881F4
:10462000F9819F012F5F3F4F39832883108306C094
:10463000E885F985812F0995892B29F72E813F81FE
:104640002F5F3F4F3F832E83812F902FDF91CF919C
:104650001F910F910895FA01AA27283051F12031B6
:1046600081F1E8946F936E7F6E5F7F4F8F4F9F4F06
:10467000AF4FB1E03ED0B4E03CD0670F781F891F48
:104680009A1FA11D680F791F8A1F911DA11D6A0F16
:10469000711D811D911DA11D20D009F468943F91C9
:1046A0002AE0269F11243019305D3193DEF6CF01C8
:1046B0000895462F4770405D4193B3E00FD0C9F78E
:1046C000F6CF462F4F70405D4A3318F0495D31FDFB
:1046D0004052419302D0A9F7EACFB4E0A69597954E
:1046E000879577956795BA95C9F700976105710524
:1046F00008959B01AC010A2E06945795479537956E
:104700002795BA95C9F7620F731F841F951FA01DC7
:1047100008952F923F924F925F926F927F928F9265
:104720009F92AF92BF92CF92DF92EF92FF920F9340
:104730001F93CF93DF93CDB7DEB7CA1BDB0B0FB64A
:10474000F894DEBF0FBECDBF09942A883988488807
:104750005F846E847D848C849B84AA84B984C8849D
:10476000DF80EE80FD800C811B81AA81B981CE0F94
:10477000D11D0FB6F894DEBF0FBECDBFED01089579
:1047800010E0CCEED0E004C0FE010E94EC1D2296A9
:0A479000CE3ED107C9F7F894FFCF21
:10479A000000E50480002C0106BB13BB133B004953
:1047AA0054506172616D733A20004F4B00562033AA
:1047BA002E322E302D623134205349474E414C64FB
:1047CA0075696E6F202D20636F6D70696C6564204A
:1047DA006174204D6172202034203230313620320B
:1047EA00323A31323A34390053796E633A20002032
:1047FA002D3E2053796E63466163743A20002C2063
:10480A00436C6F636B3A20002C20546F6C3A200083
:10481A002C20506174744C656E3A20002C2050751F
:10482A006C73653A20002C20002C206D5374617241
:10483A00743A20005369676E616C3A20002E20009A
:10484A00205B005D005061747465726E3A2000202E
:10485A0050002A5B002C0025303258004C4C3D0099
:10486A004C483D00534C3D0053483D00433D004DEC
:10487A005300443D0043503D0053503D004F004D0E
:10488A0055004D4300000000003916B817BB15D477
:10489A0015C61517160D0A006E616E00696E660060
:0648AA006F7666002E008F
:00000001FF
