:100000000C9477000C9453140C947A140C949F0065
:100010000C949F000C949F000C949F000C949F00E4
:100020000C949F000C949F000C949F000C949F00D4
:100030000C949F000C947F080C949F000C949F00DC
:100040000C94A1140C949F000C9465170C949717B2
:100050000C949F000C949F000C949F000C949F00A4
:100060000C949F000C949F003B4D433D003B4D552D
:100070003D004D533D00556E737570706F72746521
:100080006420636F6D6D616E640020557365206F31
:100090006E65206F6620000000000800020100006D
:1000A0000304070000000000000000010204081023
:1000B00020408001020408102001020408102004DE
:1000C00004040404040404020202020202030303FF
:1000D00003030300000000250028002B000000009F
:1000E00000240027002A00001908C7175C08112403
:1000F0001FBECFEFD8E0DEBFCDBF12E0A0E0B1E081
:10010000E8E6F8E402C005900D92A632B107D9F7EF
:1001100025E0A6E2B2E001C01D92AA32B207E1F7E3
:1001200010E0CCEED0E004C02297FE010E94531EE6
:10013000C83ED107C9F70E940E180C9427240C94CE
:100140000000CF92DF92EF92FF920F931F930E94D5
:10015000F71400912D0210912E0220912F02309160
:1001600030026B017C01C01AD10AE20AF30A97013E
:10017000860160932D0270932E0280932F0290933C
:1001800030020A3511052105310578F181E0C816E4
:100190008DE7D806E104F10410F4960102C021E0D5
:1001A0003DE74A9B03C03195219531098091730346
:1001B0008B34D8F4809173038F5F809373038091A5
:1001C0007403609172030E94FB1D90937403E0918D
:1001D0007403F0E0EE0FFF1FEA58FC4F31832083D9
:1001E000809174038F5F809374031F910F91FF9030
:1001F000EF90DF90CF9008950F931F936091370297
:100200008DE00E94EA15109237020E94F7140091C7
:100210002D0210912E0220912F0230913002601B8E
:10022000710B820B930B62307D478105910520F0A5
:100230001F910F910C94A1001F910F91089581E3DC
:1002400092E00E94B8198BE693E00E94B81985E607
:1002500093E00C94B819CF93DF93EC01FB01248158
:1002600035810E94FB1BCE01DF91CF91089541E0C3
:1002700050E061EA70E080E00C94211480E00C947E
:100280004114CF93DF931F92CDB7DEB72B9A209105
:10029000060130910701482F429FC001439F900DF6
:1002A000112469830E9442152B9880910601909138
:1002B00007016981FC016E9FC0016F9F900D1124A1
:1002C0000F90DF91CF910C944215EF92FF920F9314
:1002D0001F93CF93DF93F82EE92E0E943E0100E09A
:1002E00010E02091080130E0021713072CF56FE1B0
:1002F00081E00E944101CF2DDE2D29912223C9F0FA
:10030000213371F0263449F02033B9F763E081E0FE
:100310000E94410163E081E009C063E081E002C026
:1003200061E083E00E94410161E083E00E944101BD
:10033000E4CF0F5F1F4FD5CFDF91CF911F910F916A
:10034000FF90EF900C9437013F924F925F926F9223
:100350007F928F929F92AF92BF92CF92DF92EF9255
:10036000FF920F931F93CF93DF93082FEB01542E2F
:10037000452E59010E94F7146B017C0110E0812C7D
:10038000912CB401600F711FC617D707A8F1C501E2
:100390000E94B31B8053E52DF42DE80FF11DE80FEB
:1003A000F11D90818181382E331C3324331C692E3A
:1003B000782E31F077FE0CC071946194710808C0FA
:1003C00077FE03C071946194710888E1681A71081E
:1003D0000E94F7146C157D058E059F05C8F3332028
:1003E00011F02B9801C02B9AC60CD71CE11CF11CF4
:1003F0008FEF881A980AC5CF0E94F7146C157D05F7
:100400008E059F05C8F3DF91CF911F910F91FF904B
:10041000EF90DF90CF90BF90AF909F908F907F90A4
:100420006F905F904F903F9008954F925F926F92C0
:100430007F928F929F92AF92BF92CF92DF92EF9274
:10044000FF920F931F93CF93DF93982E862E2A014E
:100450002B9A0E94F7146B017C01662457FC609470
:10046000762C891408F446C0692D70E081E392E08F
:100470000E94B31B90ED980F9A3010F4892F01C0A1
:100480008753C4E0D0E008E0A82EBB24A7FCB094BA
:100490000E94F7146C157D058E059F05C8F310E0CA
:1004A00098012A213B21232B71F02B98C40CD51CD9
:1004B000E61CF71C0E94F7146C157D058E059F0540
:1004C000C8F32B9A0DC02B9AC40CD51CE61CF71C44
:1004D0000E94F7146C157D058E059F05C8F32B98B7
:1004E000C40CD51CE61CF71C15950795219781F6C1
:1004F0009394B7CF0E94F7146C157D058E059F0568
:10050000C8F3DF91CF911F910F91FF90EF90DF9093
:10051000CF90BF90AF909F908F907F906F905F90A3
:100520004F900895CF92DF92EF92FF920F931F9317
:10053000CF93DF9300D000D000D0CDB7DEB78C01D1
:100540006B01FC01E080F1806DE071E0CE0101966D
:100550000E94261AA701BE016F5F7F4F81E392E0E0
:100560000E94DF1B7C01CE0101960E94B819FFEFAB
:10057000EF16FF0601F1F801408151814F3FFFEF77
:100580005F07C9F0970161E372E0CE0101960E9416
:10059000FB1BBE016F5F7F4FC6010E94721ACE0126
:1005A00001960E94B8198FEFE81AF80AF801F18253
:1005B000E08281E001C080E026960FB6F894DEBFAD
:1005C0000FBECDBFDF91CF911F910F91FF90EF90A4
:1005D000DF90CF900895BF92CF92DF92EF92FF927B
:1005E0000F931F93CF93DF93CDB7DEB7C856D109D2
:1005F0000FB6F894DEBF0FBECDBF67E072E0CE014C
:100600008F599F4F0E94261A6EE170E0CE018F59DC
:100610009F4F0E94E919A9961FAE1EAEA9970E948E
:100620003E011FEF01E042E1F42E59E0E52E62E0C9
:10063000D62ECC24C394BE016F597F4FCE01895969
:100640009F4F0E949202882309F44FC060E070E03F
:10065000CE018F599F4F0E94B31B833589F561E00E
:1006600070E0CE018F599F4F0E94B31B833419F362
:1006700061E070E0CE018F599F4F0E94B31B8D3413
:1006800059F41F5FE1E0F0E0EC0FFD1FF19EE00D7B
:10069000F11D1124C282CFCF61E070E0CE018F59ED
:1006A0009F4F0E94B31B823531F61F5FE1E0F0E0FF
:1006B000EC0FFD1FF19EE00DF11D1124D282BBCF86
:1006C00060E070E0CE018F599F4F0E94B31B8035D0
:1006D00009F068C062E070E0CE018F599F4F0E9420
:1006E000B31B8D3309F05EC082C0B12C32E1C32E42
:1006F000B016D1F1D12CED2CF12CCE9CA001CF9CC9
:10070000500D1124E1E0F0E0EC0FFD1FE40FF51FA8
:100710008281823079F44A5F5F4F21E030E02C0F14
:100720003D1F420F531F6481758121E332E08381B5
:100730000E94A401CE9CF001CF9CF00D112481E019
:1007400090E08C0F9D1FE80FF91F8281813031F4FA
:1007500040815181648183810E9415022B98D3943A
:100760001D1548F6B394C4CF0E94370161E372E0CF
:1007700089E894E00E94AB18CE018F599F4F0E94E8
:10078000B819C859DF4F0FB6F894DEBF0FBECDBF02
:10079000DF91CF911F910F91FF90EF90DF90CF905D
:1007A000BF90089560E070E0CE018F599F4F0E9486
:1007B000B31B823509F050C061E070E0CE018F5963
:1007C0009F4F0E94B31B8D3309F046C042E050E0BA
:1007D000BE016F597F4FCE01855A9F4F0E942B015A
:1007E000CE01855A9F4F0E94401C062F82C022E0F6
:1007F00030E041E050E0BE016F597F4FCE01855A95
:100800009F4F0E94FB1BCE01855A9F4F0E94401CA8
:10081000B62ECE01855A9F4F0E94B81943E050E092
:10082000BE016F597F4FCE01855A9F4F0E942B0109
:10083000CE01855A9F4F0E94401CE19EF001112479
:10084000EB0DF11D3396EE0FFF1F21E030E02C0F72
:100850003D1FE20FF31F4BC060E070E0CE018F59E7
:100860009F4F0E94B31B8434B9F4A9968EAD9FADFF
:10087000A997E1E0F0E0EC0FFD1FF19EE00DF11D06
:10088000112421E0280FA6963FADA697231B2383B2
:10089000029795838483CFCE60E070E0CE018F59BC
:1008A0009F4F0E94B31B833409F0C5CE61E070E016
:1008B000CE018F599F4F0E94B31B8D3309F0BBCEE1
:1008C00042E050E0BE016F597F4FCE01855A9F4FE5
:1008D0000E942B01CE01855A9F4F0E94401CE1E0EF
:1008E000F0E0EC0FFD1FF19EE00DF11D112471836E
:1008F0006083CE01855A9F4F0E94B8199CCE62E753
:1009000070E089E894E00E945B1860913B0270E01F
:100910004AE050E089E894E00E9472196DE670E0C8
:1009200089E894E00E945B186091390270E04AE027
:1009300050E089E894E00E94721968E670E089E866
:1009400094E00E945B1860913A0270E04AE050E047
:1009500089E894E00C947A19CF93DF93CDB7DEB792
:10096000AE970FB6F894DEBF0FBECDBF61E070E06A
:1009700081E392E00E94B31B843729F161E070E0CB
:1009800081E392E00E94B31B823721F542E050E000
:1009900061E372E0CE0101960E942B0120E030E07D
:1009A00043E050E0BE01675D7F4FCE0101960E949B
:1009B000B51BCE0101960E94B819CE0189960E94FE
:1009C00048208093080161E372E089E894E00E9486
:1009D000AB1895C061E070E081E392E00E94B31B28
:1009E0008337F1F42B9A42E050E061E372E0CE01EC
:1009F00089960E942B0120E030E048E250E0BE01E1
:100A00006F5F7F4FCE0189960E94B51BCE018996FC
:100A10000E94B819CE0101960E9465012B98D3CF90
:100A200061E070E081E392E00E94B31B8336A9F499
:100A300042E050E061E372E0CE0101960E942B019A
:100A4000CE0101960E94401C70930701609306013D
:100A5000CE0101960E94B819B6CF61E070E081E343
:100A600092E00E94B31B803709F049C067E072E052
:100A7000CE0189960E94261A64E170E0CE01899623
:100A80000E94E9196FE071E0CE0189960E947E1AFA
:100A90004AE060910801CE0101960E94961ABE01BB
:100AA0006F5F7F4FCE0189960E941B1BCE0101967E
:100AB0000E94B81967E971E0CE0189960E94221B55
:100AC00060910601709107014AE0CE0101960E94F3
:100AD000C31ABE016F5F7F4FCE0189960E941B1B18
:100AE000CE0101960E94B819BE01675D7F4F89E86B
:100AF00094E00E94AB18CE0189960E94B819AE9678
:100B00000FB6F894DEBF0FBECDBFDF91CF91089531
:100B1000CF93DF9300D0CDB7DEB72091260530917B
:100B200027052115310511F42AE235E0CE010196A1
:100B3000821B930B0F900F90DF91CF910895CF926E
:100B4000DF92EF92FF920E94EB146B017C0128EE82
:100B500033E040E050E00E942F1E809128029091E7
:100B60002902A0912A02B0912B02C816D906EA06E2
:100B7000FB0648F4809126029091270201969093FB
:100B8000270280932602C0922802D0922902E09286
:100B90002A02F0922B02CA01B901FF90EF90DF9078
:100BA000CF9008956AE171E089E894E00E94BD1851
:100BB00061E070E080E090E00C941A1561E070E074
:100BC00081E392E00E94B31B813511F40E943E0143
:100BD00061E070E081E392E00E94B31B853411F480
:100BE0000C9437010895262F220F330B94E049020D
:100BF000B0011124682B622B81E090E00C942C232F
:100C0000CF93DF9361E070E081E392E00E94B31B39
:100C1000873421F4DF91CF910C947F0462E070E07F
:100C200081E392E00E94B31B833599F062E070E0AB
:100C300081E392E00E94B31B853571F062E070E0C1
:100C400081E392E00E94B31B833441F4CAE3D2E013
:100C500005C0CBE3D2E002C0C9E3D2E061E070E0BE
:100C600081E392E00E94B31B853419F481E088830C
:100C700009C061E070E081E392E00E94B31B84341C
:100C800059F4188240913A026091390280913B02F6
:100C9000DF91CF910C94F305DF91CF91089560E03F
:100CA00070E081E392E00E94B31B803511F40C9454
:100CB000D20560E070E081E392E00E94B31B8F33C5
:100CC00009F072C06FE389E894E00E948E186AE828
:100CD00070E089E894E00E945B1866E589E894E09A
:100CE0000E948E1860E289E894E00E948E1869E6FE
:100CF00089E894E00E948E1860E289E894E00E94FE
:100D00008E1862E589E894E00E948E1860E289E816
:100D100094E00E948E1864E789E894E00E948E189F
:100D200060E289E894E00E948E1868E589E894E022
:100D30000E948E1860E289E894E00E948E1866E4B2
:100D400089E894E00E948E1860E289E894E00E94AD
:100D50008E1863E589E894E00E948E1860E289E8C5
:100D600094E00E948E1860E589E894E00E948E1855
:100D700060E289E894E00E948E1863E489E894E0D8
:100D80000E948E1860E289E894E00E948E1867E461
:100D900089E894E00E948E1860E289E894E00E945D
:100DA0008E1867E072E00AC060E070E081E392E0D4
:100DB0000E94B31B863531F46DE171E089E894E05F
:100DC0000C94BD1860E070E081E392E00E94B31BD8
:100DD000823549F40E9488054AE050E0BC0189E868
:100DE00094E00C947A1960E070E081E392E00E9454
:100DF000B31B893641F488E392E00E94E508892B11
:100E000081F40C94AC0460E070E081E392E00E9415
:100E1000B31B833561F488E392E00E94E508892BD7
:100E200021F081E080932C0208950C94EB0260E0A5
:100E300070E081E392E00E94B31B843751F40E947A
:100E40009F05AB01BC012AE030E089E894E00C94F6
:100E5000A61960E070E081E392E00E94B31B883540
:100E600011F40C94DE0560E070E081E392E00E94F2
:100E7000B31B8634D1F060E070E081E392E00E9421
:100E8000B31B833411F40C94000660E070E081E33E
:100E900092E00E94B31B873411F40C947F0466E740
:100EA00070E089E894E00C94991808951F93CF930B
:100EB000DF9300D0CDB7DEB780912C02882389F074
:100EC00010922C020E944F0680912C02811106C0C4
:100ED00067E072E081E392E00E947E1A81E08093F5
:100EE000370211E080917303882341F180917303ED
:100EF00081508093730380917503609172030E9407
:100F0000FB1D90937503E091750381E08E0F809334
:100F10007503F0E0EE0FFF1FEA58FC4F80819181CE
:100F20009A838983BE016F5F7F4F88E392E00E94BE
:100F3000D4138823B9F210933702D4CF0F900F90B7
:100F4000DF91CF911F910895EF92FF920F931F931E
:100F5000CF93DF93EC017B018A0181E090E00E9456
:100F60002423982F9170988381FB992790F9F7019A
:100F7000908382FB882780F9F8018083DF91CF91ED
:100F80001F910F91FF90EF90089526E040E052EC02
:100F900061E070E089E894E00E94031760E082E07D
:100FA0000E94B11561E08BE00E94B11561E08DE017
:100FB0000E94B11580E1809381001092800082E050
:100FC00080930E0488E199E79093100480930F04B6
:100FD000909387008093860082E1809381008CEF5C
:100FE00090E090930D0480930C0481E080936F0057
:100FF00080E090E00E9424238B3049F44AE352E0E1
:1010000069E372E08BE392E00E94A4070AC06BE000
:1010100080E090E00E942C2367E081E090E00E9455
:101020002C230E94370164E170E081E392E00C948C
:10103000E9190F931F93CF93DF938BE4809372038F
:10104000109273031092750310927403CBE4D3E0F3
:10105000D0935003C0934F030DE413E01093520359
:101060000093510367E072E085E693E00E94261A40
:1010700067E072E08BE693E00E94261AF801118285
:1010800010821982188288E392E00E94A70867E024
:1010900072E081E392E00E94261A0E94F7146093A6
:1010A0002D0270932E0280932F0290933002DF91D5
:1010B000CF911F910F9108950C941F01CF93C1E020
:1010C00089E894E00E942016892BB9F089E894E021
:1010D0000E9439168A3041F01CF4882329F007C099
:1010E0008D3011F0833219F4C0932C02E9CF682FB0
:1010F00081E392E00E94321BE3CFCF9108951F92CB
:101100000F920FB60F9211242F933F934F935F933B
:101110006F937F938F939F93AF93BF93EF93FF93BF
:10112000E0910C04F0910D040995FF91EF91BF91AE
:10113000AF919F918F917F916F915F914F913F916F
:101140002F910F900FBE0F901F9018950895FC01DE
:10115000E85FFE4F1082B39610827B971082319623
:10116000118210827B962FEF2083FC012083AC013B
:1011700020E030E0FA01E15EFE4F11821082FC01B6
:10118000E20FF31F14822F5F3F4F4E5F5F4F2630F9
:10119000310581F7FC01E55FFE4F1082339626E9A9
:1011A00030E0318320833D964DEC5CEC6CE47EE3D3
:1011B00040835183628373837297108233961082C7
:1011C0003196108233971082089580E090E0089560
:1011D000CF93DF93FC01E55DFE4FD081C0E07D97AA
:1011E000CD17C1F0DC01A15EBE4F2D913C91AB014A
:1011F000421B530B9A0157FF03C0319521953109CA
:101200000296408151814217530714F08C2F03C07E
:10121000CF5FE6CF8FEFDF91CF910895FC0114826D
:1012200015821682178210861186411104C0DC01D6
:10123000A85FBE4F4C91641780F4DF01A60FB11D6B
:101240001A968C91DF01A80FB11D14968C911497FA
:101250008F5F14968C936F5FEECF08952F923F921D
:101260004F925F926F927F928F929F92AF92BF92B6
:10127000CF92DF92EF92FF920F931F93CF93DF9362
:10128000CDB7DEB72E970FB6F894DEBF0FBECDBF39
:101290009E878D8740E060E00E940E09ED85FE8507
:1012A000E55DFE4F5080712C2D853E85255E3E4FBD
:1012B0003A8729878D859E85885F9E4F9C878B877F
:1012C000751409F4C3C044244394470C642C272CA0
:1012D000312CC101880F991FAD85BE858A0F9B1FD8
:1012E000FC01E15EFE4FFA83E9832A0E3B1EF4E027
:1012F0002F0E311C29813A8138872F83651409F418
:10130000A3C0862D90E09C838B83880F991F9E83BA
:101310008D83FC01AD85BE85EA0FFB1FE15EFE4FAC
:1013200000811181C80117FF04C088279927801BFD
:10133000910BBC01882777FD8095982F0E94E41CB3
:10134000E985FA8520813181428153810E94981D6F
:101350004B015C01A981BA81CD90DC907801EC1839
:10136000FD08F7FE03C0F194E194F10820E030E0BD
:1013700040E05FE3C501B4010E94981D9B01AC01F0
:10138000C501B4010E944D1C0E94B11C6E157F0561
:101390000CF458C0EB85FC85208180E090E082173A
:1013A00050F4ED85FE85E80FF91F3285361101C036
:1013B00072860196F4CFD1014C91552747FD509587
:1013C000EB81FC812D853E85E20FF31FE481FF2731
:1013D000E7FDF0959A012E0F3F1F21153105E1F42D
:1013E000C49EC001C59E900DD49E900D1124B901DC
:1013F0000E941B1E7B010E9FC0010F9F900D1E9F20
:10140000900D1124B9010E941B1EE60EF71EAF813C
:10141000B885ED92FC920CC00C0D1D1D17FF02C08B
:101420000F5F1F4F15950795E981FA81118300839E
:10143000ED81FE812D853E85E20FF31FE15EFE4FBB
:101440001182108263945ACF742C3ACF2E960FB625
:10145000F894DEBF0FBECDBFDF91CF911F910F91EA
:10146000FF90EF90DF90CF90BF90AF909F908F90C4
:101470007F906F905F904F903F902F9008953F9294
:101480004F925F926F927F928F929F92AF92BF9294
:10149000CF92DF92EF92FF920F931F93CF93DF9340
:1014A000EC018FEF8883FE01E55DFE4F30806E0119
:1014B00000E010E0EE24EA94FE2C4E0188EF881A3A
:1014C0008EEF980A031508F06AC0F601E15EFE4F40
:1014D0005F01FFEFEF16FF0639F5F501808191817D
:1014E00097FD22C0FE01E00FF11F6481772767FDA1
:1014F0007095872F972F0E94E41C2B013C01F4016B
:10150000608170E080E090E00E94E41C2BE734E111
:101510004EE25EE30E94981D9B01AC01C301B20143
:101520000E94941D1816A4F1F5012081318137FD28
:1015300030C0C701880F991F8C0F9D1FFC01E15E11
:10154000FE4F80819181281739071CF5FE01E00FBD
:10155000F11F6481772767FD7095872F972F0E9471
:10156000E41C2B013C01F401608170E080E090E01C
:101570000E94E41C2BE734E14EE25EE30E94981DDA
:101580009B01AC01C301B2010E94941D18160CF41A
:1015900078010F5F1F4FF2E0CF0ED11C93CF8FEF7A
:1015A000E816F80641F0E882CF5EDE4F81E090E079
:1015B0009983888301C080E0DF91CF911F910F91C3
:1015C000FF90EF90DF90CF90BF90AF909F908F9063
:1015D0007F906F905F904F903F9008958F929F9271
:1015E000AF92BF92CF92DF92EF92FF920F931F9331
:1015F000CF93DF93FC018C010F5E1E4FD8018D91BC
:101600009C911197019709F07CC05A96BC90BA94AE
:10161000C7E0AC2E6F01B8EFCB1ABEEFDB0AB7FC08
:1016200070C02B2D332727FD3095C901880F991FD6
:101630008E0F9F1FDC01A15EBE4FCD91DC91D7FFC5
:101640005EC0D195C195D109C83682E4D80708F0AB
:1016500056C0E080FF24E7FCF094C701880F991F73
:101660008E0F9F1FDC01A15EBE4F8D909C90CE011E
:10167000B4010E94071E6832710508F040C0A89CA2
:10168000C001A99C900D11248C179D07C0F5DF01A6
:10169000A20FB31F14968C9186308CF5D6014C9115
:1016A00050E0BA0161507109912C892D90E08617A4
:1016B000970784F4DF01A80FB91F1B96CC911B97E5
:1016C000D0E0C217D307C9F41A96AC91B0E0AE15BA
:1016D000BF0599F4485251098417950784F4DF0136
:1016E000A45DBE4FBC9282E090E0D8018D939C93A4
:1016F000E75FFE4F908281E009C09394D6CFBA9401
:101700008ECFE45DFE4F8FEF808380E0DF91CF913D
:101710001F910F91FF90EF90DF90CF90BF90AF900F
:101720009F908F9008950F931F93CF93DF938A011B
:10173000E90189E894E00E947E18B80189E894E004
:101740000E947E18BE0189E894E0DF91CF911F913D
:101750000F910C947E18EF92FF920F931F93CF93EB
:10176000DF93EC01F62EE42EB90189E894E00E94A3
:101770007E18EF1460F0FE01EF0DF11D4AE050E01D
:10178000628589E894E00E949F19F394F2CFB80132
:1017900089E894E00E947E1880E0DF91CF911F914C
:1017A0000F91FF90EF90089570E0FC0126A1332780
:1017B00027FD30956217730751F027A1332727FDC6
:1017C000309581E06217730719F080E0089581E099
:1017D000089570E0FC0120A5332727FD309562179E
:1017E000730751F021A5332727FD309581E062175B
:1017F000730719F080E0089581E008959F92AF92F9
:10180000BF92CF92DF92EF92FF920F931F93CF93ED
:10181000DF9300D01F92CDB7DEB78C017B0120E3B0
:1018200030E340E029833A834B83FC01668DF3E08B
:101830006F9FB0011124C7010E94E919E114F1045E
:1018400049F1912C87ECA82E81E0B82ECE010196AB
:101850006C01F801868D8915E8F0F80183A19816CE
:1018600020F4E90DF11D808101C08FEF1F928F934D
:10187000BF92AF92DF92CF920E943021B601C70192
:101880000E94221B93940F900F900F900F900F9037
:101890000F90DFCF0F900F900F90DF91CF911F919E
:1018A0000F91FF90EF90DF90CF90BF90AF909F90FF
:1018B00008950F931F93CF93DF938C01EB0160E2A8
:1018C00070E0CE010E94E919209709F468C06CEC21
:1018D00071E0CE010E94221BF80184A195A126A1EE
:1018E000220F330B820F931FFC01E15EFE4F6081DC
:1018F0007181CE010E94711B6BE3CE010E94321BED
:1019000060ED71E0CE010E94221BF80184A195A137
:1019100027A1220F330B820F931FFC01E15EFE4FC4
:1019200060817181CE010E94711B6BE3CE010E9428
:10193000321B64ED71E0CE010E94221BF80184A1EC
:1019400095A120A5220F330B820F931FFC01E15EAE
:10195000FE4F60817181CE010E94711B6BE3CE014D
:101960000E94321B68ED71E0CE010E94221BF8013B
:1019700084A195A121A5220F330B820F931FFC0197
:10198000E15EFE4F60817181CE010E94711B6BE3AD
:10199000CE01DF91CF911F910F910C94321BDF91FB
:1019A000CF911F910F9108950F931F93CF93DF93C2
:1019B0008C01EB0167E070E0CE010E94E9192097ED
:1019C00099F06CED71E0CE010E94221BF80162A536
:1019D00073A5CE010E94711B6BE3CE01DF91CF9105
:1019E0001F910F910C94321BDF91CF911F910F919A
:1019F00008954F925F926F927F928F929F92AF92D3
:101A0000BF92CF92DF92EF92FF920F931F93CF93EB
:101A1000DF93EC010CA11DA1580185EDA81A8EEFF2
:101A2000B80AF5018081843008F4C4C06801F8EF79
:101A3000CF1AFEEFDF0AF601608170E080E090E0EF
:101A40000E94E41C2AE037ED43E25DE30E94981D0A
:101A50000E94B61C40E050E0912C812CEE24EA94C8
:101A6000FE2C262F30E0F5018081481708F06BC06E
:101A7000642F70E0F801E60FF71FE4818E2F99279D
:101A800087FD9095821793070CF45BC0660F771F54
:101A9000600F711FDB01A15EBE4F6D917C91161628
:101AA00017064CF55E0F8394E60EF71EEFA1EF3F8D
:101AB00069F08E2F880F990B800F911FDC01A15EBA
:101AC000BE4F8D919C91861797070CF4E42FEFA3DE
:101AD000E9A5EF3F69F08E2F880F990B800F911FBA
:101AE000DC01A15EBE4F8D919C91681779070CF4C3
:101AF000E42FE9A726C05E1B9394EEA1EF3F69F0A7
:101B00008E2F880F990B800F911FDC01A15EBE4FB5
:101B10008D919C91681779070CF4E42FEEA3E8A54A
:101B2000EF3F69F08E2F880F990B800F911FDC011A
:101B3000A15EBE4F8D919C91861797070CF4E42F00
:101B4000E8A74F5F90CF652F70E080E090E00E94A3
:101B5000E41C2B013C01F601608170E080E090E024
:101B60000E94E41C2AE037ED43EA5CE30E94981DE2
:101B70009B01AC01C301B2010E94941D1816D4F060
:101B8000981018C0C70163E070E00E941B1E7BA77D
:101B90006AA79EA19F3F71F088A58F3F59F09817C3
:101BA00049F02FA12F3F31F099A59F3F19F081E017
:101BB000291301C080E0DF91CF911F910F91FF9019
:101BC000EF90DF90CF90BF90AF909F908F907F90DD
:101BD0006F905F904F900895FC0183A12E2FDF013D
:101BE0009A2F921B981710F41D92FACF168E178E0B
:101BF00087E082A3089524E1FC0124A70C94EC0D56
:101C00007F928F929F92AF92BF92CF92DF92EF928C
:101C1000FF920F931F93CF93DF93EC018CA19DA1B3
:101C2000FC01E45FFE4F108233971082812CBB24AD
:101C3000B39437E0A32E0CA11DA1F801E85FFE4F7D
:101C40008081881608F0A3C08DA5811110C0F8010D
:101C5000E80DF11DF2846F2DCE010E94D40B81118D
:101C6000DFC06F2DCE010E94E90B8111D9C0CDA438
:101C70000CA11DA1CC2079F18EA581112CC0C80129
:101C8000885F9E4F7C01F801E80DF11DD2846D2D17
:101C9000CE010E94D40B811105C0F7018081881606
:101CA00008F4C8C0282DF70180818816A0F4C80167
:101CB0008D0D911D8D0D911DFC01E15EFE4F9180FA
:101CC000991C9924991CF801E75FFE4F8080281920
:101CD00009F0ACC0BEA68EA5882309F456C0CC205E
:101CE00009F453C0E82CF12C6801CE0CDF1CF6017E
:101CF0007284672DCE010E94D40B882311F09B249F
:101D00001CC0672DCE010E94E90B782E882309F4B0
:101D100093C0F801E85FFE4F208130E02150310987
:101D2000E216F3060CF088C0F6016385CE010E942E
:101D3000E90B882309F480C083944E8D8BA148174A
:101D400020F55AA1852F90E0292D332727FD3095C6
:101D5000052E01C0220F0A94EAF7FE01E40FF11DDF
:101D60003081322B30832F8D2F5F2F8F28A1821B44
:101D7000910997FD03C0521B5AA307C0AAA24F5F47
:101D80004E8FFE01E40FF11D1082839454CF881210
:101D90003AC0D801A75FBE4F4C91423058F12F8D09
:101DA00030E08CA587FD8F5F8595992787FD9095FD
:101DB0008217930744F5841A80828CA19DA1FC01AF
:101DC000E85FFE4F408150E04F5F5F4F319660818A
:101DD00070E0665F7F4F680F791F0A960E94962019
:101DE0008CA19DA1FC01E45FFE4F21E02083BD9604
:101DF000208314C0411107C0D801A75CBE4F81E009
:101E00008C9310820BC04F8D50E02CA5332727FDFB
:101E1000309581E0421753070CF071C080E06FC02D
:101E2000F801E75FFE4F8082BDA621CF20FF52CF91
:101E3000839450CF839427CF4F8D50E02CA5332728
:101E400027FD309542175307CCF4772089F0F8012D
:101E5000E85FFE4F808190E00197E816F90644F4B0
:101E6000F6016385CE010E94E90B882309F442C084
:101E70001DA61EA6CE010E94EC0D5FCFF801E65F05
:101E8000FE4F80828CA19DA1FC01E85FFE4FDC012A
:101E9000A65FBE4F20818C91281B20838CA19DA121
:101EA000FC01E85FFE4F408150E04F5F5F4F32968C
:101EB000608170E0665F7F4F680F791F0A960E940D
:101EC00096200CA11DA1F801E45FFE4FFF24F394BE
:101ED000F08234978081F801E80FF11D6285CE0110
:101EE0000E94E90B882309F48ECFF801E75CFE4FCE
:101EF000F08294CFF801E75FFE4F8080B9CFDF9189
:101F0000CF911F910F91FF90EF90DF90CF90BF90F6
:101F1000AF909F908F907F9008953F924F925F92E5
:101F20006F927F928F929F92AF92BF92CF92DF92E9
:101F3000EF92FF920F931F93CF93DF9300D000D0C7
:101F400000D0CDB7DEB77C015C0187ECA81A8EEF1C
:101F5000B80AF5018081811105C0F197808188322E
:101F600008F4A5C2C7010E942E0940E060E0C70145
:101F70000E940E09C7010E943F0AC7010E94EE0A93
:101F8000F7018381882309F427C1EF5EFE4F80812A
:101F90009181029709F020C14701F7EF8F1AFEEFF8
:101FA0009F0AF40160815701F6EFAF1AFEEFBF0AF6
:101FB00082E0860FF50180838701085F1E4FF801DC
:101FC0007081872F90E00197D701A45DBE4FF50186
:101FD000D0802D2D30E0281739070CF5F701E20FDE
:101FE000F31F438550E02C91332727FD309542178E
:101FF000530781F4428550E0F7012081332727FD04
:1020000030954217530731F4DA94F501D082DD247C
:10201000D39406C0D394D394F501D082D8CFD12CD9
:10202000F5018081781708F47083F5014081C701BC
:102030000E940E09DD2051F0F501808190E0F4014D
:102040002081821B9109889734F4C2C0F801408135
:102050004E3F08F09EC06701F3EDCF1AFEEFDF0A96
:1020600067E072E0C6010E947E1A87010D5C1E4F78
:1020700067E072E0C8010E947E1A62E0C6010E9419
:10208000321B6FED71E0C6010E94221B6BE3C6019B
:102090000E94321B312C370185ED681A8EEF780AC9
:1020A000F3018081381640F5432C512CF701E40DE3
:1020B000F51D84818823F1F060E5C6010E94321B82
:1020C000632DC6010E94451B6DED71E0C6010E94A3
:1020D000221BC201880F991F8E0D9F1DFC01E15E1E
:1020E000FE4F60817181C6010E94711B6BE3C601C6
:1020F0000E94321B3394D4CF62EE71E0C6010E947D
:10210000221B6BE3C8010E94321B65EE71E0C8011F
:102110000E94221BF7016081772767FD7095C80137
:102120000E94711B6BE3C8010E94321B69EE71E0D3
:10213000C8010E94221BF701E45DFE4F60817727F2
:1021400067FD7095C8010E94711B6BE3C8010E9476
:10215000321BF701E35FFE4F8081882349F06DEE6B
:1021600071E0C8010E94221B6BE3C8010E94321B70
:1021700063E0C8010E94321B6AE0C8010E94321B62
:102180009601F5014081F4016081C7010E94AB0B0B
:102190003AC1F40160816230D8F0F501808190E0AD
:1021A0008D3F9105ACF0461BF801408350E04F5F36
:1021B0005F4F70E0665F7F4F6E0D7F1DC7010A960F
:1021C0000E94962081E0F701E45FFE4F808324C1E6
:1021D000C7010E94A70820C1F7018181811104C0B5
:1021E0008281882309F414C1F701EF5EFE4F8081DC
:1021F0009181019709F00CC14701F8EF8F1AFEEFAA
:102200009F0AF4018081883208F402C16701F3ED6E
:10221000CF1AFEEFDF0A67E072E0C6010E947E1A65
:1022200087010D5C1E4F67E072E0C8010E947E1AB4
:1022300062E0C6010E94321BF7018281882309F403
:1022400064C080914104811143C08EE180933404C5
:1022500081E0809331041092320481E194E00E9485
:10226000EC0D2091310487E090E0821B9109709180
:10227000320467E041E050E0262F30E082179307F8
:102280004CF49A01062E01C0220F0A94EAF7722B31
:102290006150F2CF709332048FEF809337048093B4
:1022A00038048093390480933A0410923E041092CB
:1022B0003F04F0923604E092350481E194E00E94FC
:1022C000FB0D81E08093410486EA98E00E940A18A1
:1022D000F5018081811107C081E194E00E94FB0D2E
:1022E00081E180933D04F5018081882339F081E10B
:1022F00094E00E94000E811199C085C081E194E0B4
:102300000E94F90C8111F3CF7EC0F70181818823EF
:1023100009F479C06FEE71E0C6010E94221B6BE3E5
:10232000C6010E94321B512C5701F5EDAF1AFEEF8A
:10233000BF0AF5018081581648F5652C712CF7010C
:10234000E60DF71D84818823F9F060EC71E0C60189
:102350000E94221B652DC6010E94451B6DED71E098
:10236000C6010E94221BC301880F991F8E0D9F1D5D
:10237000FC01E15EFE4F60817181C6010E94711B0C
:102380006BE3C6010E94321B5394D3CF62EE71E01F
:10239000C6010E94221B6BE3C8010E94321B65EE3E
:1023A00071E0C8010E94221BF7016081772767FD59
:1023B0007095C8010E94711B6BE3C8010E94321B1B
:1023C000F701E35FFE4F8081882349F06DEE71E0F5
:1023D000C8010E94221B6BE3C8010E94321B63E00C
:1023E000C8010E94321B6AE0C8010E94321BF4013E
:1023F00040814150960160E0C7010E94AB0BF7019C
:10240000E45FFE4F108281E0F701E55FFE4FDECE14
:10241000F701E55FFE4F1082F701E45FFE4F808118
:10242000811145C0C7010E94A70841C067E072E062
:10243000CE0101960E94261A62EE71E0CE0101964D
:102440000E947E1ABE016F5F7F4F81E194E00E947F
:10245000FE0B62EF71E0C6010E94221B6BE3C60116
:102460000E94321BB60181E194E00E94590C6BE39B
:10247000C8010E94321BB80181E194E00E94D40C93
:1024800063E0C8010E94321B6AE0C8010E94321B4F
:102490009801AE014F5F5F4FB601C7010E94930BD9
:1024A000F5011082CE0101960E94B819ACCF269694
:1024B0000FB6F894DEBF0FBECDBFDF91CF911F9155
:1024C0000F91FF90EF90DF90CF90BF90AF909F90D3
:1024D0008F907F906F905F904F903F9008954F92B4
:1024E0005F926F927F928F929F92AF92BF92CF92A4
:1024F000DF92EF92FF920F931F93CF93DF931F9280
:10250000CDB7DEB72C018C01085F1E4FD8018C912E
:1025100090E08D3F910544F081E0F201E35FFE4FD2
:102520008083C2010E948D0FF201E05FFE4F108296
:102530006201B9EECB1ABEEFDB0AD601ED91FC9138
:10254000A080B180F201E75EFE4F0190F081E02DA6
:1025500080809180F801608089E494E00E941D14DD
:1025600065EF71E080917A0490917B040E948C1851
:102570006DEF71E080917A0490917B040E948C1839
:102580004AE050E0D8016C9180917A0490917B04EC
:102590000E949F196FEF71E080917A0490917B0403
:1025A0000E948C1862E070E080E090E00E941A15B2
:1025B000809140047201B5EDEB1ABEEFFB0AF70102
:1025C0009081981708F48083D8017C90772061F07F
:1025D000A824B924BB1CBB24BB1C81E0BDEF6B123B
:1025E00001C080E0B82205C0F701108210924004BB
:1025F000B12CD601ED91FC9160817181C2010E94E4
:10260000E808A82E87FD2DC0F201E70DF11D828795
:10261000B1E0B71530F481858A1103C0C2010E9470
:10262000A7088A2D880F990B840D951DFC01E15E8A
:10263000FE4FD6018D919C9120813181DC018D91DD
:102640009C91280F391F37FF02C02F5F3F4F3595F0
:10265000279531832083F80180818F5F808320E07C
:1026600012C040E060E0C2010E940E09D7018C91C7
:10267000863041F480914004F201E80FF11D84811D
:10268000823024F421E0B1101DC001C020E0F80127
:102690008081A201455F5E4F5A01883248F081E097
:1026A000DA018C93C2010E948D0F109240046AC01F
:1026B000C20129830E94A708F501108210924004EC
:1026C00029810BC0D8018C91883238F083E090E0EA
:1026D000F201EF5EFE4F91838083222309F452C002
:1026E000F80140815091400480E090E0242F30E0D8
:1026F000F9013197240D351DBF01680F791F6F3F18
:10270000AFEF7A07E1F00197D901A80FB91F1A9628
:10271000AC91A513F1CFCB010196481BD8014C9386
:1027200050E04F5F5F4F655F7F4F640D751DC201C5
:102730000A960E949620F80180818F5F80834091E5
:102740004004D601ED91FC9120813181C201840FBA
:10275000911D840F911DFC01E15EFE4F31832083AA
:10276000F8018081F201E80FF11D42878F5FD801E7
:102770008C934F5F40934004463021F41092400404
:10278000F70140830F90DF91CF911F910F91FF9040
:10279000EF90DF90CF90BF90AF909F908F907F9001
:1027A0006F905F904F900895CF93DF93EC01C55FDA
:1027B000DE4F1882FC01E75EFE4F0190F081E02DB4
:1027C00020813181DC01A95EBE4F0D90BC91A02D0E
:1027D0002D933C93DB012D913C91318320830E940A
:1027E0006F128881DF91CF9108950F931F93CF933C
:1027F000DF93EC01662359F00E94EB1469837A831E
:102800008B839C83DF91CF911F910F9108950E943C
:10281000EB1409811A812B813C81601B710B820BA7
:10282000930B613271058105910530F763E070E02B
:1028300080E090E00E941A15EACF60E00C94F51356
:1028400008958230E8F4E82FF0E0EE0FFF1FE75F15
:10285000FE4F71836083813041F0809169008C7FED
:10286000842B80936900E89A089580916900440F51
:10287000551F440F551F837F842B80936900E99A6D
:102880000895823078F4813011F0E89801C0E99819
:10289000E82FF0E0EE0FFF1FE75FFE4F80E294E1CC
:1028A0009183808308951F920F920FB60F92112487
:1028B0002F933F934F935F936F937F938F939F9348
:1028C000AF93BF93EF93FF93E0910901F0910A0159
:1028D0000995FF91EF91BF91AF919F918F917F915A
:1028E0006F915F914F913F912F910F900FBE0F907D
:1028F0001F9018951F920F920FB60F9211242F93CD
:102900003F934F935F936F937F938F939F93AF9377
:10291000BF93EF93FF93E0910B01F0910C010995A8
:10292000FF91EF91BF91AF919F918F917F916F91A7
:102930005F914F913F912F910F900FBE0F901F907D
:1029400018951F920F920FB60F9211242F933F9359
:102950008F939F93AF93BF93809181049091820452
:10296000A0918304B09184043091800423E0230F6C
:102970002D3720F40196A11DB11D05C026E8230FB7
:102980000296A11DB11D2093800480938104909331
:102990008204A0938304B093840480918504909171
:1029A0008604A0918704B09188040196A11DB11DF1
:1029B0008093850490938604A0938704B093880441
:1029C000BF91AF919F918F913F912F910F900FBE2B
:1029D0000F901F9018952FB7F89460918104709113
:1029E000820480918304909184042FBF08953FB79F
:1029F000F8948091850490918604A0918704B09109
:102A0000880426B5A89B05C02F3F19F00196A11D8B
:102A1000B11D3FBF6627782F892F9A2F620F711D36
:102A2000811D911D42E0660F771F881F991F4A95EF
:102A3000D1F70895CF92DF92EF92FF92CF93DF9379
:102A40006B017C010E94F714EB01C114D104E10475
:102A5000F10489F00E944B1C0E94F7146C1B7D0B43
:102A6000683E734090F381E0C81AD108E108F1088C
:102A7000C851DC4FEACFDF91CF91FF90EF90DF900C
:102A8000CF9008958230910538F0880F991F880FF4
:102A9000991F05970197F1F70895789484B582609E
:102AA00084BD84B5816084BD85B5826085BD85B5F2
:102AB000816085BDEEE6F0E0808181608083E1E8A1
:102AC000F0E01082808182608083808181608083D9
:102AD000E0E8F0E0808181608083E1EBF0E08081DC
:102AE00084608083E0EBF0E0808181608083EAE7AE
:102AF000F0E0808184608083808182608083808137
:102B0000816080838081806880831092C1000895F5
:102B1000833081F028F4813099F08230A1F008955B
:102B20008730A9F08830B9F08430D1F480918000EA
:102B30008F7D03C0809180008F77809380000895FF
:102B400084B58F7702C084B58F7D84BD0895809150
:102B5000B0008F7703C08091B0008F7D8093B0006C
:102B60000895CF93DF9390E0FC01E555FF4F24914A
:102B7000FC01E154FF4F8491882349F190E0880FD4
:102B8000991FFC01E352FF4FA591B4918D529F4FC5
:102B9000FC01C591D4919FB7611108C0F8948C9144
:102BA000209582238C93888182230AC0623051F45D
:102BB000F8948C91322F309583238C938881822BCB
:102BC000888304C0F8948C91822B8C939FBFDF91F3
:102BD000CF9108950F931F93CF93DF931F92CDB79B
:102BE000DEB7282F30E0F901E956FF4F8491F90153
:102BF000E555FF4F1491F901E154FF4F0491002373
:102C0000C9F0882321F069830E9488156981E02F2B
:102C1000F0E0EE0FFF1FED52FF4FA591B4919FB76B
:102C2000F8948C91611103C01095812301C0812B10
:102C30008C939FBF0F90DF91CF911F910F910895BB
:102C4000FC01818D228D90E0805C9F4F821B910959
:102C50008F7399270895FC01918D828D981731F01B
:102C6000828DE80FF11D858D90E008958FEF9FEF25
:102C70000895FC01918D828D981761F0828DDF019E
:102C8000A80FB11D5D968C91928D9F5F9F73928F5F
:102C900090E008958FEF9FEF08958DEB97E1892BDA
:102CA00049F08EE598E0892B29F00E94BD1781112B
:102CB0000C945E080895FC01848DDF01A80FB11DFE
:102CC000A35ABF4F2C91848D90E001968F73992762
:102CD000848FA689B7892C93A089B1898C9180644F
:102CE0008C93938D848D981306C00288F389E02D10
:102CF00080818F7D80830895CF93DF93EC01888D51
:102D00008823C9F0EA89FB89808185FD05C0A889EF
:102D1000B9898C9186FD0FC00FB607FCF5CF808175
:102D200085FFF2CFA889B9898C9185FFEDCFCE01BF
:102D30000E945B16E7CFDF91CF910895CF92DF928B
:102D4000FF920F931F93CF93DF931F92CDB7DEB700
:102D50006C0181E0D60158968C9358975B969C91B4
:102D60005B975C968C915C97981307C05096ED9199
:102D7000FC915197808185FD2EC0F601038D10E0F6
:102D80000F5F1F4F0F731127F02EF601848DF8127D
:102D900011C00FB607FCF9CFD6015096ED91FC910A
:102DA0005197808185FFF1CFC60169830E945B1630
:102DB0006981EBCF838DE80FF11DE35AFF4F6083EC
:102DC000D6015B960C935B975296ED91FC915397CD
:102DD000808180620CC0D6015696ED91FC91579788
:102DE00060835096ED91FC9151978081806480833F
:102DF00081E090E00F90DF91CF911F910F91FF90B4
:102E0000DF90CF900895BF92CF92DF92EF92FF9222
:102E1000CF93DF93EC016A017B01B22EE889F98937
:102E200082E08083411581EE580761057105A1F0AC
:102E300060E079E08DE390E0A70196010E942F1EEB
:102E400021503109410951095695479537952795E4
:102E5000211580E1380798F0E889F989108260E847
:102E600074E88EE190E0A70196010E942F1E215088
:102E70003109410951095695479537952795EC85B4
:102E8000FD853083EE85FF852083188EEC89FD89D2
:102E9000B082EA89FB89808180618083EA89FB892D
:102EA000808188608083EA89FB8980818068808353
:102EB000EA89FB8980818F7D8083DF91CF91FF90AC
:102EC000EF90DF90CF90BF9008951F920F920FB6B2
:102ED0000F9211242F938F939F93EF93FF93E09181
:102EE0009904F0919A048081E0919F04F091A004EC
:102EF00082FD12C090818091A2048F5F8F73209118
:102F0000A304821751F0E091A204F0E0E757FB4FD1
:102F1000958F8093A20401C08081FF91EF919F91D2
:102F20008F912F910F900FBE0F901F9018951F92A9
:102F30000F920FB60F9211242F933F934F935F93ED
:102F40006F937F938F939F93AF93BF93EF93FF9371
:102F500089E894E00E945B16FF91EF91BF91AF91D9
:102F60009F918F917F916F915F914F913F912F91A1
:102F70000F900FBE0F901F90189589E894E00E9463
:102F8000201621E0892B09F420E0822F0895109269
:102F90008C0410928B0488EE93E0A0E0B0E0809364
:102FA0008D0490938E04A0938F04B09390048CE0D2
:102FB00092E090938A048093890485EC90E090934A
:102FC00096048093950484EC90E090939804809309
:102FD000970480EC90E090939A048093990481EC9C
:102FE00090E090939C0480939B0482EC90E09093FB
:102FF0009E0480939D0486EC90E09093A0048093BF
:103000009F041092A2041092A3041092A4041092A0
:10301000A504089580E090E0089508950E944D155C
:103020000E940D180E94C507CDE4D6E10E94560704
:103030002097E1F30E944D16F9CFCF92DF92EF92E5
:10304000FF920F931F93CF93DF937C016A01EB01F3
:1030500000E010E00C151D0571F06991D701ED91AC
:10306000FC910190F081E02DC7010995892B19F0A1
:103070000F5F1F4FEFCFC801DF91CF911F910F91CD
:10308000FF90EF90DF90CF9008956115710581F06A
:10309000DB010D900020E9F7AD0141505109461BBD
:1030A000570BDC01ED91FC910280F381E02D099436
:1030B00080E090E00895EF92FF920F931F93CF93DB
:1030C000DF938C017B01C0E0D0E0F701EC0FFD1F26
:1030D0006491662359F0F801A081B181ED91FC91D2
:1030E000C8010995892B11F02196EFCFCE01DF9110
:1030F000CF911F910F91FF90EF900895DC01ED911A
:10310000FC91DB0114964D915C9115976D917C912A
:103110000280F381E02D09940C944518DC01ED91B7
:10312000FC910190F081E02D099465E072E00C942F
:1031300045180F931F93CF93DF93EC010E945B1808
:103140008C01CE010E949518800F911FDF91CF91C5
:103150001F910F9108950F931F93CF93DF93EC016D
:103160000E947E188C01CE010E949518800F911F3D
:10317000DF91CF911F910F9108950F931F93CF93DC
:10318000DF93EC010E9445188C01CE010E94951836
:10319000800F911FDF91CF911F910F9108958F9212
:1031A0009F92AF92BF92CF92DF92EF92FF920F93D6
:1031B0001F93CF93DF93CDB7DEB7A1970FB6F894E7
:1031C000DEBF0FBECDBF7C01C42EE52FCB01D22EBA
:1031D00019A221E02D1510F02AE0D22E8E010F5DEC
:1031E0001F4F8D2C912CA12CB12C6C2D7E2FA50165
:1031F00094010E942F1E8C2DD29E80191124015003
:1032000011098A3014F4805D01C0895CF801808363
:10321000211531054105510521F0C22EE32FCA01C8
:10322000E4CFB801C7010E944518A1960FB6F894E3
:10323000DEBF0FBECDBFDF91CF911F910F91FF90E9
:10324000EF90DF90CF90BF90AF909F908F900895B8
:10325000CF92DF92EF92FF920F931F93CF93DF9362
:10326000EC016A017B012115310579F4E881F981CE
:103270000190F081E02D642FDF91CF911F910F918C
:10328000FF90EF90DF90CF9009942A303105E9F458
:1032900077FF1AC06DE20E948E188C0144275527D3
:1032A000BA014C195D096E097F092AE0CE010E941E
:1032B000CF18800F911FDF91CF911F910F91FF9039
:1032C000EF90DF90CF9008952AE0B701A601CE01DC
:1032D000DF91CF911F910F91FF90EF90DF90CF90F2
:1032E0000C94CF189A01AB01662757FD6095762F95
:1032F0000C9428190F931F93CF93DF93EC019A013D
:10330000AB01662757FD6095762F0E9428198C0126
:10331000CE010E949518800F911FDF91CF911F91D0
:103320000F9108952115310541F4DC01ED91FC91D7
:103330000190F081E02D642F09940C94CF189A012C
:10334000462F50E060E070E00C9492190F931F93A9
:10335000CF93DF93EC010E9492198C01CE010E9461
:103360009518800F911FDF91CF911F910F910895B4
:10337000FC01808191810C94EF1ECF93DF93EC01CF
:1033800088819981009711F00E94EF1E198218829E
:103390001D821C821B821A82DF91CF9108950F93A8
:1033A0001F93CF93DF93EC018B016F5F7F4F888179
:1033B00099810E947E1F009731F0998388831B8337
:1033C0000A8381E001C080E0DF91CF911F910F91CE
:1033D0000895CF93DF93EC0188819981892B29F09F
:1033E0008A819B818617970760F4CE010E94CF19CE
:1033F000882341F08C819D81892B19F4E881F98122
:10340000108281E0DF91CF910895EF92FF920F93A8
:103410001F93CF93DF93EC017B018A01BA010E94D5
:10342000E919811104C0CE010E94BD1907C01D8396
:103430000C83B701888199810E94A820CE01DF9179
:10344000CF911F910F91FF90EF900895FC01118291
:10345000108213821282158214826115710559F04F
:10346000FB0101900020E9F7AF0141505109461BD3
:10347000570B0C94051A08950F931F93CF93DF9366
:103480008C01EB01FC0180819181009799F04281D0
:1034900053812C813D814217530750F06881798117
:1034A0000E94A8208C819D81F8019583848313C09C
:1034B0000E94EF1E88819981F801918380838A811F
:1034C0009B81938382838C819D81958384831982E0
:1034D00018821B821A821D821C82DF91CF911F915C
:1034E0000F910895CF93DF93EC018617970711F0A2
:1034F0000E943C1ACE01DF91CF910895CF93DF93C4
:10350000EC016115710561F0FB0101900020E9F704
:10351000AF0141505109461B570B0E94051A02C0CA
:103520000E94BD19CE01DF91CF9108950F931F9393
:10353000CF93DF93CDB7DEB729970FB6F894DEBFF0
:103540000FBECDBF8C01862FF8011182108213822D
:1035500012821582148250E0BE016F5F7F4F90E0AF
:103560000E940B21BE016F5F7F4FC8010E947E1A2F
:1035700029960FB6F894DEBF0FBECDBFDF91CF9175
:103580001F910F9108950F931F93CF93DF93CDB7A2
:10359000DEB762970FB6F894DEBF0FBECDBF8C01C9
:1035A000CB01F801118210821382128215821482DB
:1035B00050E0BE016F5F7F4F0E94D820BE016F5F59
:1035C0007F4FC8010E947E1A62960FB6F894DEBF44
:1035D0000FBECDBFDF91CF911F910F910895EF9254
:1035E000FF920F931F93CF93DF93EC017B010C812C
:1035F0001D816115710511F480E016C0411551055A
:1036000091F0040F151FB8010E94E9198823A1F356
:10361000288139818C819D81B701820F931F0E947F
:10362000A8201D830C8381E0DF91CF911F910F9122
:10363000FF90EF900895FB01448155816081718175
:103640000C94EF1A6115710559F0FB0101900020EF
:10365000E9F7AF0141505109461B570B0C94EF1A83
:1036600080E00895CF93DF9300D0CDB7DEB76983B4
:103670001A8241E050E0BE016F5F7F4F0E94EF1A57
:103680000F900F90DF91CF910895EF92FF920F93DB
:103690001F93CF93DF9300D000D0CDB7DEB77C016E
:1036A000862F4AE08E010F5F1F4FB80190E00E9405
:1036B000E320F80101900020E9F7AF0141505109E2
:1036C000401B510BB801C7010E94EF1A0F900F90D9
:1036D0000F900F90DF91CF911F910F91FF90EF907E
:1036E0000895EF92FF920F931F93CF93DF93CDB77F
:1036F000DEB728970FB6F894DEBF0FBECDBF7C01B2
:10370000CB014AE08E010F5F1F4FB8010E94E320FA
:10371000F80101900020E9F7AF0141505109401B29
:10372000510BB801C7010E94EF1A28960FB6F89402
:10373000DEBF0FBECDBFDF91CF911F910F91FF90E4
:10374000EF900895FC01248135816217730748F4D6
:1037500080819181009729F0FC01E60FF71F80819D
:10376000089580E008950C94A21B0F931F93CF93AC
:10377000DF93EB0141155105E9F02097D9F0FC01E9
:103780006481758126173707A0F4621B730B8A01C9
:10379000015011096017710708F48B01FC01608169
:1037A0007181620F731FA801CE010E94AF20C00F6C
:1037B000D11F1882DF91CF911F910F910895CF9360
:1037C000DF93FC01848195814817590778F4C08103
:1037D000D181FB0160817181CE01840F951F0E9410
:1037E000BE20009719F08C1B9D0B02C08FEF9FEF3E
:1037F000DF91CF910895BF92CF92DF92EF92FF9227
:103800000F931F93CF93DF936C017B01EA01890132
:103810002417350720F48D2FE901042F182F67E0B6
:1038200072E0C6010E94261AD70114968D919C91D0
:103830001597C817D907C8F48017910708F48C01A9
:10384000D701ED91FC911197E00FF11FB08010822C
:103850006D917C916C0F7D1FC6010E947E1AD7016D
:10386000ED91FC91E00FF11FB082C601DF91CF9185
:103870001F910F91FF90EF90DF90CF90BF90089530
:10388000FC0180819181009711F00C94662060E02A
:1038900070E0CB01089508955058BB27AA270ED099
:1038A00009C1FAD030F0FFD020F031F49F3F11F47D
:1038B0001EF4EFC00EF4E095E7FBE5C0E92F0BD155
:1038C00080F3BA17620773078407950718F071F43D
:1038D0009EF523C10EF4E0950B2EBA2FA02D0B01FF
:1038E000B90190010C01CA01A0011124FF27591B45
:1038F00099F0593F50F4503E68F11A16F040A22F4B
:10390000232F342F4427585FF3CF469537952795BB
:10391000A795F0405395C9F77EF41F16BA0B620BBA
:10392000730B840BBAF09150A1F0FF0FBB1F661F01
:10393000771F881FC2F70EC0BA0F621F731F841F44
:1039400048F4879577956795B795F7959E3F08F06A
:10395000B3CF9395880F08F09927EE0F9795879529
:10396000089504D06894B111D9C00895BCD088F0EE
:103970009F5790F0B92F9927B751A0F0D1F0660F5B
:10398000771F881F991F1AF0BA95C9F712C0B13076
:1039900081F0C3D0B1E00895C0C0672F782F882789
:1039A000B85F39F0B93FCCF3869577956795B395B5
:1039B000D9F73EF490958095709561957F4F8F4F24
:1039C0009F4F0895E89409C097FB3EF49095809529
:1039D000709561957F4F8F4F9F4F9923A9F0F92FD5
:1039E00096E9BB279395F695879577956795B79553
:1039F000F111F8CFFAF4BB0F11F460FF1BC06F5F39
:103A00007F4F8F4F9F4F16C0882311F096E911C04A
:103A1000772321F09EE8872F762F05C0662371F06B
:103A200096E8862F70E060E02AF09A95660F771F7F
:103A3000881FDAF7880F9695879597F90895990F5B
:103A40000008550FAA0BE0E8FEEF16161706E80768
:103A5000F907C0F012161306E407F50798F0621B89
:103A6000730B840B950B39F40A2661F0232B242B5E
:103A7000252B21F408950A2609F4A140A6958FEF7D
:103A8000811D811D089597F99F6780E870E060E0CF
:103A900008959FEF80EC089500240A9416161706E7
:103AA00018060906089500240A941216130614062F
:103AB00005060895092E0394000C11F4882352F092
:103AC000BB0F40F4BF2B11F460FF04C06F5F7F4F4A
:103AD0008F4F9F4F089557FD9058440F551F59F031
:103AE0005F3F71F04795880F97FB991F61F09F3FEB
:103AF00079F087950895121613061406551FF2CF14
:103B00004695F1DF08C0161617061806991FF1CF63
:103B100086957105610508940895E894BB2766278A
:103B20007727CB0197F908958ADF08F48FEF08957E
:103B30000BD0C0CFB1DF28F0B6DF18F0952309F025
:103B4000A2CFA7CF1124EACFC6DFA0F3959FD1F370
:103B5000950F50E0551F629FF001729FBB27F00D3B
:103B6000B11D639FAA27F00DB11DAA1F649F662790
:103B7000B00DA11D661F829F2227B00DA11D621FDF
:103B8000739FB00DA11D621F839FA00D611D221F99
:103B9000749F3327A00D611D231F849F600D211D7D
:103BA000822F762F6A2F11249F5750408AF0E1F020
:103BB00088234AF0EE0FFF1FBB1F661F771F881F69
:103BC00091505040A9F79E3F510570F05CCFA6CFB1
:103BD0005F3FECF3983EDCF3869577956795B79554
:103BE000F795E7959F5FC1F7FE2B880F911D96957E
:103BF000879597F90895991B79E004C0991F961746
:103C000008F0961B881F7A95C9F780950895AA1B1E
:103C1000BB1B51E107C0AA1FBB1FA617B70710F0B7
:103C2000A61BB70B881F991F5A95A9F780959095E9
:103C3000BC01CD01089597FB072E16F4009407D020
:103C400077FD09D00E94071E07FC05D03EF4909531
:103C500081959F4F0895709561957F4F0895A1E2DA
:103C60001A2EAA1BBB1BFD010DC0AA1FBB1FEE1FF6
:103C7000FF1FA217B307E407F50720F0A21BB30B41
:103C8000E40BF50B661F771F881F991F1A9469F7BD
:103C900060957095809590959B01AC01BD01CF0119
:103CA0000895EE0FFF1F0590F491E02D0994CF9336
:103CB000DF938230910510F482E090E0E0912805D6
:103CC000F091290520E030E0A0E0B0E0309739F134
:103CD0004081518148175907B8F04817590771F4C6
:103CE00082819381109729F013969C938E9312975B
:103CF0002CC0909329058093280527C021153105F4
:103D000031F04217530718F0A901DB0101C0EF01A0
:103D10009A01BD01DF010280F381E02DD7CF21158B
:103D20003105F9F0281B390B2430310580F48A81E4
:103D30009B816115710521F0FB019383828304C08F
:103D40009093290580932805FE01329644C0FE0118
:103D5000E20FF31F81939193225031093983288315
:103D60003AC02091260530912705232B41F420915C
:103D700002013091030130932705209326052091FD
:103D80000001309101012115310541F42DB73EB7F5
:103D90004091040150910501241B350BE09126054B
:103DA000F0912705E217F307A0F42E1B3F0B28170D
:103DB000390778F0AC014E5F5F4F2417350748F0A4
:103DC0004E0F5F1F509327054093260581939193D3
:103DD00002C0E0E0F0E0CF01DF91CF910895CF93F2
:103DE000DF93009709F487C0FC0132971382128297
:103DF000C0912805D0912905209781F42081318137
:103E0000280F391F80912605909127058217930767
:103E100079F5F0932705E09326056DC0DE0120E0DB
:103E200030E0AE17BF0750F412964D915C91139796
:103E30009D014115510509F1DA01F3CFB383A28346
:103E400040815181840F951F8A179B0771F48D91D2
:103E50009C911197840F951F0296918380831296EF
:103E60008D919C911397938382832115310529F4B9
:103E7000F0932905E09328053EC0D9011396FC93E1
:103E8000EE9312974D915D91A40FB51FEA17FB07B2
:103E900079F480819181840F951F0296D901119642
:103EA0009C938E938281938113969C938E93129709
:103EB000E0E0F0E08A819B81009719F0FE01EC01BF
:103EC000F9CFCE01029628813981820F931F20916C
:103ED0002605309127052817390769F4309729F40A
:103EE000109229051092280502C013821282D093E5
:103EF0002705C0932605DF91CF910895A0E0B0E09B
:103F0000E4E8FFE10C94F423EC01CB01209719F4D1
:103F10000E94571EB8C0FE01E60FF71F9E012250F7
:103F20003109E217F30708F4ACC0D9010D911C91D7
:103F3000119706171707B8F00530110508F49FC050
:103F4000A801445051094617570708F498C0025079
:103F50001109061B170B019311936D937C93CF01ED
:103F60000E94EF1E8CC05B01A01AB10A4E01800EA8
:103F7000911EA0912805B0912905612C712C60E05B
:103F800070E0109709F449C0A815B905C9F5ED907E
:103F9000FC901197670142E0C40ED11CCA14DB04E7
:103FA00078F147018A189B08640142E0C40ED11CD5
:103FB0001296BC9012971396AC91B5E0CB16D10433
:103FC00040F0B282A38391828082D9018D939C9329
:103FD00009C00E5F1F4F0E0D1F1DF90111830083D5
:103FE000EB2DFA2F6115710531F0DB011396FC936F
:103FF000EE93129744C0F0932905E09328053FC043
:104000006D917C9111976616770608F43B01BD010E
:1040100012960D90BC91A02DB4CF609126057091A1
:10402000270568157905E9F468167906D0F44091FA
:104030000001509101014115510541F44DB75EB7A2
:104040006091040170910501461B570BE417F507B9
:10405000C0F4F0932705E0932605F901918380834E
:104060000EC00E94571E7C01009759F0A801BE01A6
:104070000E948D20CE010E94EF1EC70104C0CE0118
:1040800002C080E090E0CDB7DEB7EEE00C941024E3
:10409000FC0188279927E89421912032E9F32930FF
:1040A00010F02E30C8F32B3241F02D3239F46894E1
:1040B00004C00E940321820F911D219120532A30B8
:1040C000C0F31EF4909581959F4F08951F93FC01B6
:1040D00099278827BC01E89411911032E9F319302F
:1040E00010F01E30C8F31B3251F01D3249F46894B1
:1040F00006C00E94EE20610F711D811D911D11915E
:1041000010531A30B0F33EF49095809570956195F8
:104110007F4F8F4F9F4F1F910895FB01DC0102C01D
:1041200001900D9241505040D8F7089568177907D3
:1041300068F4FB01DC01E40FF51FA40FB51F02C0FA
:1041400002900E9241505040D8F708950C948D2063
:10415000FB01DC0101900D920020E1F70895FB01C5
:10416000DC014150504048F001900D920020C9F709
:1041700001C01D9241505040E0F70895FB0151915C
:104180005523A9F0BF01DC014D9145174111E1F71D
:1041900059F4CD010190002049F04D914015411195
:1041A000C9F3FB014111EFCF81E090E00197089541
:1041B0004532510520F4423010F00C94E320FB010D
:1041C0001082CB010895BB274A3031F4992322F4A1
:1041D000BDE2909581959F4F0C941721592F482F40
:1041E000372F262F660F771F881F991F660F771F9F
:1041F000881F991F620F731F841F951F660F771FFB
:10420000881F991F08957AE0979F902D879F802D92
:10421000910D112408954532510520F4423010F0DB
:104220000C941621FB011082CB010895BB27FB01E2
:104230005527AA27880F991FAA1FA41710F0A41B9F
:1042400083955051B9F7A05DAA3308F0A95DA193F9
:10425000009779F7B111B1931192CB010C945023CF
:10426000AEE0B0E0E6E3F1E20C94FE230D891E8996
:1042700086E08C831A8309838FEF9FE79E838D836B
:10428000AE01475E5F4F6F89788DCE0101960E9427
:104290005221EF81F885E00FF11F10822E96E4E0A5
:1042A0000C941A24ACE0B0E0E8E5F1E20C94F023C1
:1042B0007C016B018A01FC0117821682838181FFD8
:1042C000BDC1CE0101964C01F7019381F60193FD2A
:1042D000859193FF81916F01882309F4ABC18532E9
:1042E00039F493FD859193FF81916F01853229F413
:1042F000B70190E00E946023E7CF512C312C20E0E1
:104300002032A0F48B3269F030F4803259F08332DD
:1043100069F420612CC08D3239F0803339F421608A
:1043200026C02260246023C0286021C027FD27C04A
:1043300030ED380F3A3078F426FF06C0FAE05F9E81
:10434000300D1124532E13C08AE0389E300D1124F5
:10435000332E20620CC08E3221F426FD6BC1206406
:1043600006C08C3611F4206802C0883641F4F6018C
:1043700093FD859193FF81916F018111C1CF982F9A
:104380009F7D9554933028F40C5F1F4FFFE3F98312
:104390000DC0833631F0833771F0833509F05BC08F
:1043A00022C0F801808189830E5F1F4F442443940B
:1043B000512C540115C03801F2E06F0E711CF80148
:1043C000A080B18026FF03C0652D70E002C06FEFB2
:1043D0007FEFC5012C870E9445232C0183012C858A
:1043E0002F77222E17C03801F2E06F0E711CF801F2
:1043F000A080B18026FF03C0652D70E002C06FEF82
:104400007FEFC5012C870E943A232C012C85206860
:10441000222E830123FC1BC0832D90E048165906F1
:10442000B0F4B70180E290E00E9460233A94F4CFA8
:10443000F50127FC859127FE81915F01B70190E08E
:104440000E94602331103A94F1E04F1A5108411450
:10445000510471F7E5C0843611F0893639F5F80159
:1044600027FF07C060817181828193810C5F1F4F9C
:1044700008C060817181882777FD8095982F0E5F35
:104480001F4F2F76B22E97FF09C09095809570959B
:1044900061957F4F8F4F9F4F2068B22E2AE030E00A
:1044A000A4010E949223A82EA81844C0853729F49D
:1044B0002F7EB22E2AE030E025C0F22FF97FBF2EEA
:1044C0008F36C1F018F4883579F0B4C0803719F010
:1044D000883721F0AFC02F2F2061B22EB4FE0DC05F
:1044E0008B2D8460B82E09C024FF0AC09F2F9660D0
:1044F000B92E06C028E030E005C020E130E002C05F
:1045000020E132E0F801B7FE07C06081718182814D
:1045100093810C5F1F4F06C06081718180E090E045
:104520000E5F1F4FA4010E949223A82EA818FB2DF6
:10453000FF77BF2EB6FE0BC02B2D2E7FA51450F497
:10454000B4FE0AC0B2FC08C02B2D2E7E05C07A2C0A
:104550002B2D03C07A2C01C0752C24FF0DC0FE0149
:10456000EA0DF11D8081803311F4297E09C022FFFC
:1045700006C07394739404C0822F867809F07394F4
:1045800023FD13C020FF06C05A2C731418F4530CDB
:104590005718732C731468F4B70180E290E02C87ED
:1045A0000E94602373942C85F5CF731410F4371890
:1045B00001C0312C24FF12C0B70180E390E02C87AA
:1045C0000E9460232C8522FF17C021FF03C088E5CD
:1045D00090E002C088E790E0B7010CC0822F867897
:1045E00059F021FD02C080E201C08BE227FD8DE27F
:1045F000B70190E00E946023A51438F4B70180E36E
:1046000090E00E9460235A94F7CFAA94F401EA0D37
:10461000F11D8081B70190E00E946023A110F5CFC9
:10462000332009F451CEB70180E290E00E9460236C
:104630003A94F6CFF7018681978102C08FEF9FEF02
:104640002C96E2E10C940C24F999FECF92BD81BD29
:10465000F89A992780B50895262FF999FECF1FBAA9
:1046600092BD81BD20BD0FB6F894FA9AF99A0FBE9B
:1046700001960895FC010590615070400110D8F733
:10468000809590958E0F9F1F0895FC01615070409A
:1046900001900110D8F7809590958E0F9F1F089577
:1046A000DC01FC01672F71917723E1F7329704C099
:1046B0007C916D9370836291AE17BF07C8F3089524
:1046C0000F931F93CF93DF93182F092FEB018B814B
:1046D00081FD03C08FEF9FEF20C082FF10C04E818D
:1046E0005F812C813D81421753077CF4E881F98179
:1046F0009F012F5F3F4F39832883108306C0E885D1
:10470000F985812F0995892B29F72E813F812F5F0C
:104710003F4F3F832E83812F902FDF91CF911F91A9
:104720000F910895FA01AA27283051F1203181F123
:10473000E8946F936E7F6E5F7F4F8F4F9F4FAF4FA9
:10474000B1E03ED0B4E03CD0670F781F891F9A1FBC
:10475000A11D680F791F8A1F911DA11D6A0F711D70
:10476000811D911DA11D20D009F468943F912AE07C
:10477000269F11243019305D3193DEF6CF01089564
:10478000462F4770405D4193B3E00FD0C9F7F6CF95
:10479000462F4F70405D4A3318F0495D31FD40525D
:1047A000419302D0A9F7EACFB4E0A69597958795F3
:1047B00077956795BA95C9F70097610571050895D2
:1047C0009B01AC010A2E069457954795379527957E
:1047D000BA95C9F7620F731F841F951FA01D089516
:1047E0002F923F924F925F926F927F928F929F9201
:1047F000AF92BF92CF92DF92EF92FF920F931F93EF
:10480000CF93DF93CDB7DEB7CA1BDB0B0FB6F8949F
:10481000DEBF0FBECDBF09942A88398848885F84DF
:104820006E847D848C849B84AA84B984C884DF8050
:10483000EE80FD800C811B81AA81B981CE0FD11D34
:104840000FB6F894DEBF0FBECDBFED01089510E0A6
:10485000CCEED0E004C0FE010E94531E2296CE3E54
:08486000D107C9F7F894FFCF5E
:1048680000002A0580002C0106201420143B004972
:1048780054506172616D733A20004F4B00562033DB
:104888002E322E302D623133205349474E414C642D
:1048980075696E6F202D20636F6D70696C6564207B
:1048A800617420466562203232203230313620323F
:1048B800323A34363A33370053796E633A2000205F
:1048C8002D3E2053796E63466163743A20002C2094
:1048D800436C6F636B3A20002C20546F6C3A2000B5
:1048E8002C20506174744C656E3A20002C20507551
:1048F8006C73653A20002C20002C206D5374617273
:10490800743A20005369676E616C3A20002E2000CB
:10491800205B005D005061747465726E3A2000205F
:1049280050002A5B002C0025303258004C4C3D00CA
:104938004C483D00534C3D0053483D00433D004D1D
:104948005300443D0043503D0053503D004F004D3F
:1049580055004D4300564D4450455F31007C005F83
:10496800564D4450450D0A00000000009E161D18C3
:10497800201639162B167C166E616E00696E66005D
:064988006F7666002E00B0
:00000001FF
