:100000000C94C7000C94EF0E0C94C80E0C94EF00E7
:100010000C94EF000C94EF000C94EF000C94EF00A4
:100020000C94EF000C94EF000C94EF000C94EF0094
:100030000C94EF000C949A0F0C94EF000C94EF00CA
:100040000C947E0E0C94EF000C94FD0C0C94D70CC9
:100050000C94EF000C94EF000C94EF000C94EF0064
:100060000C94EF000C94EF003B4D433D003B4D558D
:100070003D004D533D003A200063637265672000E8
:10008000433345203D20002064656C6179312000B8
:1000900020636869705374617475732000636D64C4
:1000A0005374726F62655265672000556E73757088
:1000B000706F7274656420636F6D6D616E64002093
:1000C000746F2050415441424C4520646F6E65006E
:1000D00057726974652000203D2000203A00454594
:1000E00050524F4D2000556E737570706F7274656D
:1000F0006420636F6D6D616E6400556E7375707012
:100100006F7274656420636F6D6D616E640020555D
:100110007365206F6E65206F6620000D2E2D07D34E
:10012000913D04320000060010B07157C43023B96D
:1001300000070018146C070090876BF85611E92A25
:10014000001F410000000000250028002B000404CF
:10015000040404040404020202020202030303036F
:10016000030301020408102040800102040810204B
:100170000102040810200000000800020100000332
:1001800004070000000000000000A31D971D1124BB
:100190001FBECFEFD8E0DEBFCDBF12E0A0E0B1E0E0
:1001A000ECE3FDE402C005900D92AA31B107D9F746
:1001B00024E0AAE1B2E001C01D92AA3DB207E1F736
:1001C00010E0C6ECD0E004C02197FE010E94981E0A
:1001D000C53CD107C9F70E94C7130C9491260C9413
:1001E00000002F923F924F925F926F927F928F9278
:1001F0009F92AF92BF92CF92DF92EF92FF920F93B6
:100200001F93CF93DF93CDB7DEB7AF970FB6F894B8
:10021000DEBF0FBECDBF80916604811106C0809104
:100220003004883210F40C94000B1092330440E038
:1002300060E086E293E00E94260F80905704882DAC
:1002400090E09C01215031093E8F2D8F4091430455
:100250005091440460914504709146044F8B588F2F
:10026000698F7A8F409030044B8EF12C8F2D90E067
:100270004D8C5E8C841595050CF0ADC0FC01EA5DDB
:10028000FC4F9F012C5F3F4F4481442309F4A1C0E0
:10029000EE24E394EF0C880F991FAC01495B5B4F90
:1002A0005E8B4D8B3A8B298BE81408F092C02E2C74
:1002B000312CF101EA5DFC4F9480992009F487C04C
:1002C000AD89BE89AD90BC90F101EE0FFF1FE95BD7
:1002D000FB4F00811181C8018A259B2597FD77C0BE
:1002E000B80117FF04C066277727601B710B072E24
:1002F000000C880B990B0E9415252F89388D498D8C
:100300005A8D0E9474252B013C016801CA18DB0834
:10031000D7FE03C0D194C194D10820E030E040E082
:100320005FE3C301B2010E9474259B01AC01C301CC
:10033000B2010E949F1E0E947D1F6C157D050CF46A
:1003400046C0E2E3F3E08E2F72E3472E73E0572EB0
:1003500084195B8C851530F480818E1101C0F08288
:100360003196F1CFA989BA89DC90492D50E0ED2D65
:10037000F0E09F01D5010E94911E049F9001059F0E
:10038000300D149F300D11248901330F220B330BD4
:10039000600F711F821F931FE40FF51F9F01FF0F56
:1003A000440B550B0E94721EED89FE893183208318
:1003B0009D0CA989BA899C92F101EA5DFC4F1482D7
:1003C000F101EE0FFF1FE95BFB4F11821082E394F6
:1003D0006BCFF3944BCF40E060E086E293E00E9465
:1003E000260F8FEF8093260310915704009130045D
:1003F00047E4242E44E0342EE12CF12CCC24CA9482
:10040000DC2C402E512C612C712CE11608F05AC0C6
:100410002FEFC216D20611F5D1018D919C9197FD57
:100420001DC0F701EA5DFC4F648170E080E090E060
:100430000E9415254B015C01C301B2010E941525E4
:100440002BE734E14EE25EE30E9474259B01AC0190
:10045000C501B4010E94B31F181664F1F101808137
:10046000918197FD28C0F601EE0FFF1FE95BFB4F5E
:100470002081318182179307F4F4F701EA5DFC4F84
:10048000648170E080E090E00E9415254B015C01E2
:10049000C301B2010E9415252BE734E14EE25EE371
:1004A0000E9474259B01AC01C501B4010E94B31FD9
:1004B00018160CF46701FFEFEF1AFF0A22E0220E74
:1004C000311CA3CF3FEFC316D30641F0C0922603E1
:1004D00081E090E090933A0480933904809139044C
:1004E00090913A04019709F096C01150A09026030C
:1004F0000A2C000CBB08E02EF12C170148E2241A4C
:100500003108C501880F991FBC01695B7B4F7A8B4D
:10051000698B27010F2C000C66087708C70101972B
:10052000988F8F8B1F3F09F474C0812E012E000C11
:100530009908F401EE0FFF1FE95BFB4F2081318129
:1005400037FF65C0319521953109283692E4390786
:100550000CF05DC0A989BA89ED91FC91C901BF0178
:100560000E94281E6832710508F051C0B6E0BE9F97
:10057000C001BF9F900D11248217930708F047C058
:10058000F401EA5DFC4F24812D8B622F70E080E046
:1005900090E00E9415256B017C01C301B2010E940D
:1005A00015252AE037ED43EA5DE30E9474259B019F
:1005B000AC01C701B6010E940E2587FF28C03D8906
:1005C000323028F140E0842F90E06F89788D8617D3
:1005D00097076CF4FC01EA5DFC4F258530E0281597
:1005E000390599F4248530E02A153B0571F482150C
:1005F00093056CF41093590482E090E090933A04D0
:10060000809339044093310406C04F5FDCCF115012
:1006100089CF1093590480912903882309F446C196
:100620008091390490913A04029709F03FC1083251
:1006300008F43CC16091310482E0860F809332045B
:10064000A09159040A2E000CBB0BE09026030E2C3F
:10065000000CFF08402F50E041505109282F30E096
:1006600024173507A4F4F901EA5DFC4F258530E035
:100670002A173B0751F4248530E02E153F0529F455
:1006800081508093320411E005C08E5FE7CF8093E4
:10069000320410E080913204081710F40093320401
:1006A0004091320486E293E00E94260F112359F014
:1006B00060913204862F90E020913104821B9109D1
:1006C000889734F4E2C0809130048E3F08F0CBC0AC
:1006D00062EC71E08AE594E00E94461362EC71E0FE
:1006E00080E694E00E94461362E08AE594E00E946E
:1006F000F9126BEC71E08AE594E00E940C136BE355
:100700008AE594E00E94F91210E0809157041817CE
:1007100088F5212F30E0C901880F991FDC01A95B02
:10072000BB4F7D018D919C91892B11F1F901EA5DFF
:10073000FC4F84818823E1F060E58AE594E00E9423
:10074000F912612F8AE594E00E94CE126CEF71E0FD
:100750008AE594E00E940C13F701608171818AE5BB
:1007600094E00E949E126BE38AE594E00E94F912E5
:100770001F5FCBCF6EEC71E08AE594E00E940C1312
:100780006BE380E694E00E94F91261ED71E080E68F
:1007900094E00E940C1360912603062E000C770B48
:1007A00080E694E00E949E126BE380E694E00E9453
:1007B000F91265ED71E080E694E00E940C136091FF
:1007C0005904062E000C770B80E694E00E949E12DE
:1007D0006BE380E694E00E94F91269ED71E080E637
:1007E00094E00E940C136091670480E694E00E94FC
:1007F000CE126BE380E694E00E94F91280913504FA
:10080000882359F06CED71E080E694E00E940C13AF
:100810006BE380E694E00E94F91263E080E694E0E6
:100820000E94F9126AE080E694E00E94F9120091B9
:100830003204109131048AE594E00E94E811011716
:1008400068F0E12FF0E0EA5DFC4F648570E080E045
:1008500090E04AE00E940C111F5FF1CF80E694E027
:100860000E94E81120C0609131046623C1F080919C
:10087000320490E08D3F910594F086E293E00E946F
:10088000830F81E08093340411C06E3F40F486E210
:1008900093E00E94830F81E08093340405C086E2D8
:1008A00093E00E94440F81E08093330480913304ED
:1008B0008111A6C680912703811105C0809128036C
:1008C000882309F49DC662EC71E08AE594E00E94F9
:1008D000461362EC71E080E694E00E94461362E009
:1008E0008AE594E00E94F912409028034D8A442042
:1008F00009F4C7C580917202811148C082E38093D8
:10090000660281E080936302109264028EE292E0BC
:100910000E94160F8091630227E030E0281B310906
:100920009091640287E061E070E0482F50E0241766
:1009300035074CF4AB01082E01C0440F0A94EAF7C6
:10094000942B8150F2CF909364028FEF80936902D1
:1009500080936A0280936B0280936C021092700203
:100960001092710286E293E090936802809367028E
:1009700010926E0210926D0284E180936F028EE2FB
:1009800092E00E94160F81E08093720280916604CB
:1009900081111BC08FEF8093690280936A0280935C
:1009A0006B0280936C02109270021092710210928E
:1009B0006E0210926D0284E180936F028EE292E0EB
:1009C0000E94160F81E180936F0280916604882354
:1009D00081F08091670290916802FC01E25FFE4F16
:1009E000108233971082E12C912CF12CCC24C394EB
:1009F000C4C10091670210916802F801EF5CFE4FDC
:100A0000F080B3E05B2E5F1408F030C5B7976081CB
:100A100070E080E090E00E9415252AE037ED43E287
:100A20005DE30E9474254B015C0120E030E0A901E8
:100A30000E94B31F20E030E040E05FE387FD05C087
:100A4000C501B4010E949F1E04C0C501B4010E94EB
:100A50009E1E0E947D1F680124E0C20ED11CD80199
:100A6000AF5DBE4F198A70E0F60181916F01861764
:100A700068F14989842F90E04423F1F0FE01E80FEA
:100A8000F91F50819801250F311D250F311DF901E6
:100A9000EF5DFE4F2D913C9111970190F081E02D7B
:100AA0002E173F074CF4E1E0F0E0EC0FFD1FE80FDC
:100AB000F91F50834150DECFE1E0F0E0EC0FFD1F65
:100AC000E80FF91F7083F989FF5FF98B7F5F12963A
:100AD0007F11CACF9E012F5F3F4F388B2F873E8FEC
:100AE0002D8F5F8459A68D8D85194988841508F04E
:100AF000BDC4AD8DBE8D2D91BE8FAD8F409167026F
:100B000030916802842F932F820F911D820F911DC7
:100B1000FC01EF5DFE4F40805180588E4F8A1414C7
:100B20001504FCF68FEF8093690280936A0280932C
:100B30006B0280936C02B201052C000C880B990BA0
:100B40000E9415254B015C0120E030E040E05FE3AE
:100B50000E9474250E947D1F7CA36BA3440C551C2E
:100B60005EA24DA29E012F5F3F4F3C8F2B8F10E066
:100B700022242A94322C00E0AB8DBC8D7D90BC8F5A
:100B8000AB8F3091670220916802832F922F870DDF
:100B9000911D870D911DFC01EF5DFE4FE080F180FE
:100BA0009701F7FE04C0222733272E193F098F89AA
:100BB000988D821B930B97FF03C0919581959109A6
:100BC0004BA05CA048165906C4F4CDA0DEA0C21A02
:100BD000D30AD7FE03C0D194C194D1082DEC3CECCC
:100BE0004CE45FE3C501B4010E9474250E947D1F9F
:100BF0006C157D050CF02DC50EC01E141F040CF0E5
:100C000086C570926C020F5F2E0C3F1C70916902BA
:100C10007F3F09F031C38B8D59A48519498884150C
:100C200008F4AACF5ECFD394D71408F0E1C0F8013E
:100C3000ED0DF11D848590E08417950709F087C5B7
:100C40008D8862E070E0260E371E882061F3DF1089
:100C500091C5DD2009F48EC543859801240F311D0F
:100C6000240F311DF901EF5DFE4F20813181B90163
:100C700037FF04C066277727621B730B61304DE78F
:100C800074070CF077C5880F991F800F911FFC0126
:100C9000EF5DFE4F808191812827392737FF6AC594
:100CA000072E000C880B990B0E9415252B013C0187
:100CB00060916D0270916E02072E000C880B990BEB
:100CC0000E941525698B7A8B8B8B9C8B9B01AC01C9
:100CD000C301B2010E940B1F4B015C0120E030E018
:100CE000A9010E94B31F20E030E040E05FE387FDF0
:100CF00032C5C501B4010E949F1E0E947D1F623053
:100D000071050CF437C5072E000C880B990B0E9457
:100D1000152529893A894B895C890E9474259B0194
:100D2000AC01C301B2010E940B1F9B01AC0160E04A
:100D300070E080E89FE30E949E1E4B015C0120E072
:100D400030E0A9010E94B31F18160CF009C529E272
:100D50003CE54FE85DE3C501B4010E940E2518167D
:100D60000CF408C5F801E55FFE4F80818150808357
:100D7000FF24F394FD0C9924939400916702109141
:100D80006802F801E65FFE4F9081F91608F081C015
:100D90008091700281112CC0F801EF0DF11D848546
:100DA00090E040916902042E000C550BA0916B025B
:100DB00020916A02A0906C028417950709F4B0C4D0
:100DC000622F022E000C770B8617970709F4A8C430
:100DD0006A2F0A2E000C770B8617970709F4A0C418
:100DE0006A2D0A2C000C770B8617970709F498C414
:100DF00080917102882309F44AC08091700288238F
:100E000009F445C0AF2CB12CF801EA0DFB1D848517
:100E100090E020916B02022E000C330B8217930797
:100E200009F41EC420916C02022E000C330B8217B1
:100E3000930709F415C420916902022E000C330BAC
:100E40008217930709F45EC420916A02022E000CF7
:100E5000330B8217930709F455C480916F02082E53
:100E6000000C990B2091610230916202281739071A
:100E700008F04FC010927002109271028EE292E060
:100E80000E94160F912C809170028111ECC3F39493
:100E900074CFD801A45FBE4F81E098268F2D8919A9
:100EA0008C93AEEFFA124BC09E3F09F048C0D801B8
:100EB000A55FBE4F6C916623F1F080916F0287FDB4
:100EC0008F5F8595082E000C990B2091610230915F
:100ED00062028217930778F4C8010E94830F809101
:100EE000670290916802FC01E25FFE4F21E02083DF
:100EF000F2962083BBC28C91811121C0D801A05CE5
:100F0000BE4F81E08C931082F801E25FFE4F808338
:100F1000ADC2F801E45FFE4FEE24E3949E248F2DD2
:100F2000891980836F2DC8010E94830FE0916702A9
:100F3000F0916802E25FFE4FE082109270028091B1
:100F40006F02082E000C990B209161023091620211
:100F50002817390708F48AC262EC71E0CE010996BD
:100F60000E946C136EEC71E0CE0109960E9446134C
:100F700080E390E3A0E089839A83AB836091610270
:100F80007091620276956795769567956E5F7F4F53
:100F9000CE0109960E944912D12C8E010F5F1F4F7E
:100FA0006EEDA62E61E0B62EED2CF12C8091600244
:100FB00090E020916602E816F906ECF4D21628F4C7
:100FC000F701E25DFD4F808101C08FEF1F928F938B
:100FD000BF92AF921F930F930E94CF20B801CE0112
:100FE00009960E940C13D3940F900F900F900F90BE
:100FF0000F900F90D9CFD21628F4F701E25DFD4F84
:10100000808101C08FEF82958F701F928F9383EE46
:1010100091E09F938F931F930F930E94CF20B8016D
:10102000CE0109960E940C13809161029091620298
:101030008770992701970F900F900F900F900F9046
:101040000F90049700F180916602D81628F4F701FA
:10105000E25DFD4F808101C08FEF8F701F928F93F3
:1010600083EE91E09F938F931F930F930E94CF2065
:10107000B801CE0109960E940C130F900F900F90AB
:101080000F900F900F9068EE71E08AE594E00E9457
:101090000C136BE38AE594E00E94F91260E270E0C1
:1010A0008AE594E00E9449128AE594E0009709F4E9
:1010B00072C06BEE71E00E940C13809167029091F8
:1010C0006802E0916902EE0FFF0BE80FF91FEF5D78
:1010D000FE4F608171818AE594E00E949E126BE36D
:1010E0008AE594E00E94F9126FEE71E08AE594E0DF
:1010F0000E940C138091670290916802E0916A024D
:10110000EE0FFF0BE80FF91FEF5DFE4F608171815D
:101110008AE594E00E949E126BE38AE594E00E94C7
:10112000F91263EF71E08AE594E00E940C1380915C
:10113000670290916802E0916B02EE0FFF0BE80FDF
:10114000F91FEF5DFE4F608171818AE594E00E9496
:101150009E126BE38AE594E00E94F91267EF71E05A
:101160008AE594E00E940C138091670290916802D6
:10117000E0916C02EE0FFF0BE80FF91FEF5DFE4FE1
:10118000608171818AE594E00E949E126BE38AE59A
:1011900094E00E94F9126BE380E694E00E94F91259
:1011A00067E070E080E694E00E94491280E694E0F7
:1011B000009789F06BEF71E00E940C1360916D0253
:1011C00070916E0280E694E00E949E126BE380E6CE
:1011D00094E00E94F9126CEE71E080E694E00E94C7
:1011E0000C134AE0B80180916102909162020E9462
:1011F000E424F80101900020E9F73197AF01401B8A
:10120000510BB80180E694E00E9470126BE380E617
:1012100094E00E94F91269ED71E080E694E00E948A
:101220000C136091670480E694E00E94CE126BE399
:1012300080E694E00E94F91263E080E694E00E9468
:10124000F9126AE080E694E00E94F9128AE594E0DF
:101250000E94E811CE0109960E94E81180E694E010
:101260000E94E8111092660481E080933304CE015D
:1012700009960E94671305C160916B026F3F09F4E4
:10128000CACC20916A022F3F09F4C5CC30916C0280
:101290003F3F09F4C0CC8091670290916802FC0145
:1012A000E65FFE4FE080F12CA7014150510958A3A1
:1012B0004F8F40916F02A42F440FBB0BB8A7AFA371
:1012C000D0907002C0907102DC011C9640E050E0AA
:1012D000E72F770FFF0BFBA7EAA7462E660F5508EF
:1012E0005DA64CA6632F330F770B7FA76EA7FC017B
:1012F000E55FFE4F622E220F77084E155F050CF05A
:10130000A1C15D9061E070E0552011F060E070E0F7
:101310002AA53BA56217730709F07BC1252D30E094
:101320004CA45DA42415350509F477C16EA57FA5ED
:101330002617370709F471C160819A01261B31090C
:101340004FA058A4421653060CF077C1D0927002F9
:10135000C0927102FC01E45FFE4F40830E94260FA1
:101360002091670230916802D0906C02E0906A028E
:10137000F0906B02C0906902F901ED0DF11DD7FCF0
:10138000FA954481F901EE0DF11DE7FCFA9584818F
:1013900090E0840F911DF901EF0DF11DF7FCFA9516
:1013A0004481841B9109F901EC0DF11DC7FCFA95EC
:1013B000448110927002841B910997FF03C091959C
:1013C00081959109AC01990F660B770B4F8F58A34C
:1013D00069A37AA3F901E65FFE4F608170E080E0C7
:1013E00090E00E9415252AE037ED43E25DE30E947C
:1013F00074252B013C0120E030E0A9010E94B31FBD
:1014000020E030E040E05FE387FD0DC1C301B201A1
:101410000E949F1E0E947D1F2F8D38A149A15AA1B5
:1014200062177307840795070CF4F5CB1013F3CB01
:10143000CE1409F40CC1FD1409F409C1CF1409F448
:1014400006C1ED1409F403C1CD1409F400C1EF1471
:1014500009F4FDC0C10166E070E00E943C1E70937B
:101460006E0260936D024D884110B3CA809166048C
:10147000882339F080913404882319F081E0809327
:10148000330480912703882309F4BAC0809139047A
:1014900090913A04019709F0B3C08091330481110F
:1014A000AFC080913004883208F4AAC06EEF71E0BA
:1014B0008AE594E00E940C136BE38AE594E00E94B5
:1014C000F91210E080915704181790F5212F30E0A1
:1014D000C901880F991FFC01E95BFB4F7F018081E7
:1014E0009181892B19F1F901EA5DFC4F84818823F0
:1014F000E9F061E072E08AE594E00E940C13612F4C
:101500008AE594E00E94CE126CEF71E08AE594E0E7
:101510000E940C13D7016D917C918AE594E00E94A2
:101520009E126BE38AE594E00E94F9121F5FCACF16
:101530006EEC71E08AE594E00E940C136BE380E6A8
:1015400094E00E94F91261ED71E080E694E00E945F
:101550000C1360912603062E000C770B80E694E0B6
:101560000E949E126BE380E694E00E94F91269EDFE
:1015700071E080E694E00E940C136091670480E6BD
:1015800094E00E94CE126BE380E694E00E94F91290
:1015900080913504882359F06CED71E080E694E089
:1015A0000E940C136BE380E694E00E94F91263E062
:1015B00080E694E00E94F9126AE080E694E00E94DE
:1015C000F9120091300401508AE594E00E94E8117C
:1015D00010E0E12FF0E0EA5DFC4F648570E080E010
:1015E00090E04AE00E940C111F5F011790F780E61F
:1015F00094E00E94E8111092340481E08093330457
:10160000809134048111CBC086E293E00E94440FA4
:10161000C6C06615770509F481CE4F8C58A04415D5
:10162000550531F489CEC301B2010E949E1EF2CE4F
:10163000D11005C04083DD8802C0C12CD12C4F5F82
:101640005F4F5BCED0927002C0927102E4CA012F4C
:10165000E2CA1E141F040CF060C070926A02D3CA62
:10166000E92C9C2410CCEE2009F411CC8091670267
:1016700090916802FC01EA0DFB1D2485820F911DEB
:10168000820F911DFC01EF5DFE4F40815181E09181
:10169000600280916602E81798F5809165022091BA
:1016A000610230916202873051F42115310539F021
:1016B000EF5FE0936002F0E0E25DFD4F1082E091A9
:1016C0006002F0E0E25DFD4F61E070E01416150687
:1016D00014F060E070E0082E01C0660F0A94EAF78B
:1016E0009081692B60832F5F3F4F3093620220937C
:1016F000610290916302891B87FD87E080936502F8
:10170000E12CC5CBEE24E39499249394BCCB709246
:101710006B021F5F2E183F0879CA70926902F9CFD9
:10172000F801E55FFE4FF082C0927002C092710234
:1017300031977080022E000C330B0A2E000CBB0B6D
:101740000A2C000CBB08DF2C212C312C6DCA82170F
:101750009307D1F475CAC501B4010E949E1ECDCA7B
:1017600029E23CE54FE85DEBC501B4010E94B31FDF
:1017700087FFF8CA51E025223324C10161E08627A2
:10178000782F7170972E34CB8A179B0721F08A151A
:101790009B0509F02DCB812C61E070E054CAAF9617
:1017A0000FB6F894DEBF0FBECDBFDF91CF911F9172
:1017B0000F91FF90EF90DF90CF90BF90AF909F90F0
:1017C0008F907F906F905F904F903F902F900895F3
:1017D000FC01918D828D981761F0828DDF01A80F39
:1017E000B11D5D968C91928D9F5F9F73928F90E05B
:1017F00008958FEF9FEF0895FC01918D828D9817CA
:1018000031F0828DE80FF11D858D90E008958FEF06
:101810009FEF0895FC01918D228D892F90E0805CCF
:101820009F4F821B91098F73992708958FE792E04C
:101830000E940A0C21E0892B09F420E0822F0895F0
:10184000FC01848DDF01A80FB11DA35ABF4F2C915D
:10185000848D90E001968F739927848FA689B7892C
:101860002C93A089B1898C9180648C93938D848D05
:10187000981306C00288F389E02D80818F7D8083D4
:101880000895EF92FF920F931F93CF93DF93EC0194
:1018900081E0888F9B8D8C8D981305C0E889F9892C
:1018A000808185FD24C0F62E0B8D10E00F5F1F4F49
:1018B0000F731127E02E8C8DE8120CC00FB607FCB9
:1018C000FACFE889F989808185FFF5CFCE010E94A2
:1018D000200CF1CF8B8DFE01E80FF11DE35AFF4F75
:1018E000F0820B8FEA89FB898081806207C0EE89D4
:1018F000FF896083E889F98980818064808381E041
:1019000090E0DF91CF911F910F91FF90EF9008959C
:10191000CF93DF93EC01888D8823C9F0EA89FB8996
:10192000808185FD05C0A889B9898C9186FD0FC08D
:101930000FB607FCF5CF808185FFF2CFA889B98962
:101940008C9185FFEDCFCE010E94200CE7CFDF9177
:10195000CF91089508950895FC01099480E00895B9
:10196000CF93C1E08FE792E00E940A0C892BB9F077
:101970008FE792E00E94E80B8A3041F01CF4882344
:1019800029F007C08D3011F0833219F4C093220280
:10199000E9CF682F80E293E00E94F912E3CFCF9164
:1019A00008950E94160C81110C94B00C08951F929A
:1019B0000F920FB60F9211242F933F934F935F9383
:1019C0006F937F938F939F93AF93BF93EF93FF9307
:1019D0008FE792E00E94200CFF91EF91BF91AF91B1
:1019E0009F918F917F916F915F914F913F912F9137
:1019F0000F900FBE0F901F9018951F920F920FB669
:101A00000F9211242F938F939F93EF93FF93E09165
:101A10008F02F09190028081E0919502F091960200
:101A200082FD12C09081809198028F5F8F73209108
:101A30009902821751F0E0919802F0E0E158FD4FD1
:101A4000958F8093980201C08081FF91EF919F91C3
:101A50008F912F910F900FBE0F901F9018953FB749
:101A6000F89480917B0290917C02A0917D02B091CC
:101A70007E0226B5A89B05C02F3F19F00196A11D37
:101A8000B11D3FBFBA2FA92F982F8827820F911D14
:101A9000A11DB11DBC01CD0142E0660F771F881F5B
:101AA000991F4A95D1F708958F929F92AF92BF9256
:101AB000CF92DF92EF92FF926B017C010E942F0D7B
:101AC0004B015C01C114D104E104F104F1F00E9466
:101AD0002F0DDC01CB0188199909AA09BB09883EA1
:101AE0009340A105B10570F321E0C21AD108E108C5
:101AF000F10888EE880E83E0981EA11CB11CC11469
:101B0000D104E104F10419F7DDCFFF90EF90DF90ED
:101B1000CF90BF90AF909F908F900895CF92DF921B
:101B2000EF92FF920F931F930E942F0D00911C03C1
:101B300010911D0320911E0330911F036B017C0146
:101B4000C01AD10AE20AF30A9701860160931C03C6
:101B500070931D0380931E0390931F030A35110594
:101B60002105310578F181E0C8168DE7D806E1043A
:101B7000F10410F4960102C021E03DE74A9B03C046
:101B800031952195310980916F048233D8F4809189
:101B90006F048F5F80936F048091700460916E0476
:101BA0000E941C1E90937004E0917004F0E0EE0F10
:101BB000FF1FEE58FB4F31832083809170048F5FAD
:101BC000809370041F910F91FF90EF90DF90CF9062
:101BD00008950F931F930E942F0D00911C031091E5
:101BE0001D0320911E0330911F03DC01CB01801BDC
:101BF000910BA20BB30B82309D47A105B10580F17B
:101C00004A9903C02FEF32E802C021E03DE78091FE
:101C10006F048233D8F480916F048F5F80936F04D8
:101C20008091700460916E040E941C1E9093700459
:101C3000E0917004F0E0EE0FFF1FEE58FB4F318390
:101C40002083809170048F5F809370040E942F0D19
:101C500060931C0370931D0380931E0390931F03D6
:101C600020912102EFE7F1E09491EBE6F1E084911D
:101C7000E7E5F1E0E491EE2309F43BC0992339F163
:101C8000933091F038F49130A9F0923001F594B589
:101C90009F7D12C0973091F09830A1F09430B9F444
:101CA000909180009F7D03C0909180009F779093DA
:101CB00080000DC094B59F7794BD09C09091B0008D
:101CC0009F7703C09091B0009F7D9093B000F0E0AB
:101CD000EE0FFF1FEC5BFE4FA591B4919FB7F894F8
:101CE000EC91211103C080958E2301C08E2B8C9323
:101CF0009FBF109221021F910F9108951F920F9282
:101D00000FB60F9211242F933F938F939F93AF930E
:101D1000BF9380911C0290911D02A0911E02B09170
:101D20001F0230917A0223E0230F2D3720F4019611
:101D3000A11DB11D05C026E8230F0296A11DB11DEE
:101D400020937A0280931C0290931D02A0931E029E
:101D5000B0931F0280917B0290917C02A0917D0242
:101D6000B0917E020196A11DB11D80937B029093DC
:101D70007C02A0937D02B0937E02BF91AF919F91B0
:101D80008F913F912F910F900FBE0F901F9018953C
:101D90001F920F920FB60F9211242F933F934F93E0
:101DA0005F936F937F938F939F93AF93BF93EF93C3
:101DB000FF93E0910201F09103010995FF91EF91EA
:101DC000BF91AF919F918F917F916F915F914F9153
:101DD0003F912F910F900FBE0F901F9018951F925B
:101DE0000F920FB60F9211242F933F934F935F934F
:101DF0006F937F938F939F93AF93BF93EF93FF93D3
:101E0000E0910001F09101010995FF91EF91BF91DF
:101E1000AF919F918F917F916F915F914F913F9182
:101E20002F910F900FBE0F901F901895FC0180AD61
:101E30002E2FDF019A2F921B981710F41D92FACFC4
:101E400012AA14AA13AA87E087AB0895FC0134965E
:101E50009C01245F3F4F1192E217F307E1F7411114
:101E600004C0FC01E65FFE4F4081641760F4FC0192
:101E7000E60FF11D2485FC01E20FF11D24812F5F87
:101E800024836F5FF2CF0895CF93DF93FC01E65F69
:101E9000FE4F1082DC01AF5CBE4F1C92B8961082E0
:101EA000B0971082319611821082B0962FEF208366
:101EB000FC012083EF5DFE4FEC01249611921192FC
:101EC0001992EA17FB07D1F7FC01E35FFE4F10827E
:101ED000339626E930E0318320833D964DEC5CEC6F
:101EE0006CE47EE340835183628373837297108234
:101EF0003396108231961082F1961082F4971082F8
:101F0000DF91CF910895FC01E65FFE4F4081A42F41
:101F1000B0E0262F30E02A173B075CF4461B4083D5
:101F200050E0B901645F7F4F680F791F0C960C94E5
:101F30009C2008951F920F920FB60F9211242F9399
:101F40003F934F935F936F937F938F939F93AF9341
:101F5000BF93EF93FF93E0911A02F0911B02099552
:101F6000FF91EF91BF91AF919F918F917F916F9171
:101F70005F914F913F912F910F900FBE0F901F9047
:101F800018950C943D260C943526CF93C82F80319C
:101F900020F483E092E00E944D116C2F70E080E00D
:101FA00090E040E1CF910C940C11CF93DF93C2E00D
:101FB000D0E0FE01E75EFE4F6491CE010E94C10FAA
:101FC0002196CB32D105A9F7C0E3D0E0C13321F48B
:101FD00064E881E390E002C060E0CE010E94C10F9E
:101FE0002196C833D10591F785E092E0DF91CF913A
:101FF0000C9470118EBD0DB407FEFDCF8EB5089503
:10200000CF93DF932A981C99FECF8EE70E94FA0F98
:10201000C0E3D0E0CE010E94C30F0E94FA0F2196C8
:10202000C833D105B9F72A9ADF91CF910895CF939C
:10203000DF931F92CDB7DEB72A981C99FECF698334
:102040000E94FA0F6981862F0E94FA0F2A9A0F9038
:10205000DF91CF9108952A981C99FECF862B0E947C
:10206000FA0F80E00E94FA0F2A9A089560EC84E348
:102070000C942B102A981C99FECF0E94FA0F2A9AD2
:10208000089586E30E943A1061E070E080E090E0FD
:102090000C94540DE8988AEA9CE090930101809397
:1020A00000018091200281110C9441100895CF937A
:1020B0000E944110CFEF84E30E943A10C150807714
:1020C000803141F061E070E080E090E00E94540DCA
:1020D000C111F1CFCF9108958EE89DE09093010159
:1020E00080930001809169008C7F816080936900FA
:1020F000E89A8091200281110C9457100895CF9393
:10210000DF932A9A8FE090E00197F1F72A9883E213
:1021100090E00197F1F72A9A8FE990E00197F1F7A3
:1021200080E30E943A106AE070E080E090E00E9454
:10213000540D2A9880E40E94FA0FC2E0D0E0CE014C
:102140000E94C30F0E94FA0F2196CB32D105B9F736
:102150002A9A83E290E00197F1F70E94001061E073
:1021600070E080E090E00E94540DDF91CF910C94DC
:102170005710CF93C82F803120F483E092E00E9463
:102180004D116C2F70E080E090E040E1CF910C9415
:102190000C1190ED980F9A3070F09FE9980F9630DF
:1021A00010F499EA05C09FEB980F963018F499EC5B
:1021B000980F01C0982F892F08951F93CF93DF9315
:1021C000C82FD0E0BE0180E293E00E9438120E9446
:1021D000C910182F1295107FBE016F5F7F4F80E2EC
:1021E00093E00E9438120E94C910810FDF91CF91B5
:1021F0001F910895009769F0FC0101900020E9F714
:102200003197AF01481B590BBC018FE792E00C944A
:10221000001280E090E008958F929F92AF92BF925B
:102220000F931F93CF93DF93CDB7DEB7A1970FB670
:10223000F894DEBF0FBECDBF19A2423008F44AE0C9
:102240008E010F5D1F4F842E912CA12CB12CA50166
:1022500094010E94501EE62FB901CA0101501109D4
:10226000EA3014F4E05D01C0E95CD801EC93232B63
:10227000242B252B61F7C8010E94FA10A1960FB6F6
:10228000F894DEBF0FBECDBFDF91CF911F910F91AC
:10229000BF90AF909F908F9008950C94FA100F9379
:1022A0001F93CF93DF938C01C0E0D0E0F801EC0FD7
:1022B000FD1F6491662371F0E0917F02F09180022E
:1022C0000190F081E02D8FE792E00995892B11F0C4
:1022D0002196ECCFCE01DF91CF911F910F91089500
:1022E000CF93DF930E94FA10EC0180EC91E00E9402
:1022F000FA108C0F9D1FDF91CF910895E0917F021E
:10230000F09180020190F081E02D682F8FE792E03C
:102310000994CF92DF92EF92FF92CF93DF936C01FB
:10232000990FEE08FF08F7FE12C08DE20E947E11A1
:10233000EC0166277727CB016C197D098E099F096F
:102340004AE00E940C117C01EC0EFD1E06C04AE022
:10235000C701B6010E940C117C0180EC91E00E9443
:10236000FA108E0D9F1DDF91CF91FF90EF90DF90BF
:10237000CF900895CF92DF92EF92FF92CF93DF93A9
:102380006C01990FEE08FF08F7FE17C08DE20E945E
:102390007E11EC0166277727CB016C197D098E0928
:1023A0009F094AE00E940C118C0F9D1FDF91CF9175
:1023B000FF90EF90DF90CF9008954AE0C701B601FB
:1023C000DF91CF91FF90EF90DF90CF900C940C11A4
:1023D000FC0144815581608171818FE792E00C940A
:1023E0000012CF93DF930E944F11EC0180EC91E03B
:1023F0000E94FA108C0F9D1FDF91CF9108950895D0
:10240000CF92DF92EF92FF920F931F93CF93DF93C0
:102410006C017A018B01C0E0D0E0CE15DF0589F0B8
:10242000D8016D918D01D601ED91FC910190F08163
:10243000E02DC6010995892B11F47E0102C0219679
:10244000ECCFC701DF91CF911F910F91FF90EF90DB
:10245000DF90CF9008950E948220FC0180819181BD
:10246000009711F00C949D2460E070E0CB0108957A
:10247000FC01248135816217730748F480819181C2
:10248000009729F0FC01E60FF71F8081089580E096
:1024900008950F931F93CF93DF93EC018881998167
:1024A000009729F02A813B812617370788F48B0192
:1024B0006F5F7F4F0E94B81F009761F099838883F8
:1024C0001B830A832C813D81232B11F4FC01108294
:1024D00081E001C080E0DF91CF911F910F910895BD
:1024E000EF92FF920F931F93CF93DF93FC01248110
:1024F00035816115710511F480E019C04115510550
:10250000A9F07B01EC018A01020F131FB8010E94A0
:102510004912882389F3288139818C819D81B701F3
:10252000820F931F0E94AE201D830C8381E0DF91F8
:10253000CF911F910F91FF90EF900895EF92FF922E
:102540000F931F93CF93DF93CDB7DEB728970FB6C6
:10255000F894DEBF0FBECDBF7C01CB014AE08E01F7
:102560000F5F1F4FB8010E94C424F80101900020A2
:10257000E9F73197AF01401B510BB801C7010E9429
:10258000701228960FB6F894DEBF0FBECDBFDF9154
:10259000CF911F910F91FF90EF900895EF92FF92CE
:1025A0000F931F93CF93DF9300D000D0CDB7DEB74A
:1025B0007C01862F4AE08E010F5F1F4FB80190E02B
:1025C0000E94C424F80101900020E9F73197AF017F
:1025D000401B510BB801C7010E9470120F900F9061
:1025E0000F900F90DF91CF911F910F91FF90EF907F
:1025F0000895CF93DF9300D0CDB7DEB769831A82F9
:1026000041E050E0BE016F5F7F4F0E9470120F905B
:102610000F90DF91CF9108956115710551F0FB0185
:1026200001900020E9F73197AF01461B570B0C943E
:10263000701280E00895EF92FF920F931F93CF9353
:10264000DF93EC017B018A01BA010E9449122881C3
:10265000398181110DC02115310519F0C9010E9480
:102660000524198218821D821C821B821A8206C0D0
:102670001D830C83B701C9010E94AE20CE01DF91FA
:10268000CF911F910F91FF90EF900895CF93DF931B
:10269000EC016115710559F0FB0101900020E9F78B
:1026A0003197AF01461B570B0E941B130CC088814A
:1026B0009981009711F00E940524198218821D82C9
:1026C0001C821B821A82CE01DF91CF910895FC01FA
:1026D000808191810C940524FC0111821082138267
:1026E0001282158214826115710551F0FB0101906F
:1026F0000020E9F73197AF01461B570B0C941B13D1
:102700000895BF92CF92DF92EF92FF920F931F93A3
:10271000CF93DF937C016B018A01E9012417350710
:1027200020F4812F8901C42FD82F62EC71E0C701FA
:102730000E946C13D60114968D919C9115970817E1
:102740001907D0F48C179D0708F4EC01D601ED9120
:10275000FC911197EC0FFD1FB08010824D915C91A0
:10276000BA01600F711FC7010E944613D601ED9197
:10277000FC91EC0FFD1FB082C701DF91CF911F913B
:102780000F91FF90EF90DF90CF90BF900895CF937F
:10279000DF93CDB7DEB7C058D1090FB6F894DEBFCE
:1027A0000FBECDBF789484B5826084BD84B581604E
:1027B00084BD85B5826085BD85B5816085BD80910C
:1027C0006E00816080936E00109281008091810084
:1027D000826080938100809181008160809381007C
:1027E000809180008160809380008091B10084603E
:1027F0008093B1008091B00081608093B00080919F
:102800007A00846080937A0080917A00826080935D
:102810007A0080917A00816080937A0080917A00BA
:10282000806880937A001092C100E0918F02F0914D
:10283000900282E08083E0918F02F09190021082FA
:10284000E0918B02F0918C021082E0918D02F09168
:102850008E0280E1808310929702E0919302F091C2
:10286000940286E08083E0919102F091920280814F
:1028700080618083E0919102F09192028081886072
:102880008083E0919102F091920280818068808340
:10289000E0919102F091920280818F7D8083529825
:1028A000219A259A239A2498229A80E58CBD5398E0
:1028B0002A9A2D9A2B9880E090E00E94C30F8333D0
:1028C00039F481E090E00E94C30F8D3109F4B8C45F
:1028D00067E08FEF90E00E94C10F63E380E090E03B
:1028E0000E94C10F6DE181E090E00E94C10F8091D4
:1028F000200281110E94D50F0E947F1060E880EFB6
:102900000E942B1060E881EF0E942B10815091E013
:102910008E3F08F090E0909320021E821D82992342
:1029200099F08CEA9CE09C838B838B819C81AD81A8
:10293000BE8180936A0490936B04A0936C04B0935F
:102940006D0486E390E112C08CEA9CE09C838B834B
:102950008B819C81AD81BE8180936A0490936B04CE
:10296000A0936C04B0936D048EEA9CE0909369048C
:1029700080936804539A62E370E080E090E00E94E4
:10298000540D80E1809381001092800082E080935A
:10299000250288E199E79093240280932302909383
:1029A00087008093860082E18093810089EE9DE01C
:1029B00090931B0280931A0281E080936F000E9423
:1029C0006C1068E270E080E293E00E9449128E0190
:1029D0000F5F1F4F1E0127E6220E311C8DE082196A
:1029E000ED968FAFED9780912202882309F4EFC214
:1029F0001092220260E070E080E293E00E943812C0
:102A0000803559F48AE191E00E94701161E070E034
:102A100080E090E00E94540DCDC28F3309F054C085
:102A20000E947E118EE091E00E944F1186E50E9487
:102A30007E1180E20E947E1182E50E947E1180E27A
:102A40000E947E1184E70E947E1180E20E947E1126
:102A500088E50E947E1180E20E947E1186E40E9439
:102A60007E1180E20E947E1183E50E947E1180E249
:102A70000E947E1180E50E947E1180E20E947E11FC
:102A800083E40E947E1180E20E947E1182E70E9410
:102A90007E1180E20E947E1187E50E947E1180E215
:102AA0000E947E1180912002882309F44BC288E79E
:102AB0000E947E1180E20E947E1185E60E947E11B6
:102AC00080E20E947E113EC2863551F48091200240
:102AD000882319F08DE191E037C28FE591E034C28F
:102AE000823569F48091D6049091D704009711F44F
:102AF0008AED94E0A801481B590BCA019FC1833598
:102B000009F01FC162EC71E0CE018F599F4F0E9406
:102B10006C136EE170E0CE018F599F4F0E944912F5
:102B20000E944A10C12CD12CFF24FA94812C51E030
:102B3000E4965FAFE49781E0E5968FAFE597A2E179
:102B4000EA2E992493946CEA71E0CE01855A9F4F46
:102B50000E946C138091240390912503C816D90616
:102B600098F460902003709021036D966EAD7FAD58
:102B70006D97C3018C0D9D1D0E94B520009721F01B
:102B80005C01A618B70803C0AA24AA94BA2CCE01E7
:102B9000855A9F4F0E9467132FEFA216B20609F4C1
:102BA00023C43FEFC316D30609F41EC49501A60142
:102BB00060E273E0CE01855A9F4F0E948113A39675
:102BC0008EAD9FADA3970097F9F06D966EAD7FAD7A
:102BD0006D9761157105B1F0A5964EAD5FADA597E6
:102BE000A1962EAD3FADA1974217530758F00E9412
:102BF000AE20A1968EAD9FADA197A7969FAF8EAF49
:102C0000A79722C00E9405246D968EAD9FAD6D974B
:102C1000A3969FAF8EAFA3976F968EAD9FAD6F9724
:102C2000A5969FAF8EAFA597A1968EAD9FADA197AC
:102C3000A7969FAF8EAFA7976D961FAE1EAE6D97EE
:102C40006F961FAE1EAE6F97A1961FAE1EAEA197D8
:102C5000CE01855A9F4F0E94671365014FEFC41A3A
:102C6000D40A60E070E0CE018F599F4F0E94381265
:102C7000833501F561E070E0CE018F599F4F0E94CE
:102C80003812833409F459C08D3441F4F394F801B7
:102C9000EF9CE00DF11D1124928255CF823509F091
:102CA00052CFF394F801EF9CE00DF11D112482E066
:102CB000828343C0803509F0D6C262E070E0CE0165
:102CC0008F599F4F0E9438128D3309F03CCF22E07C
:102CD00030E041E050E0BE016F597F4FCE01855A90
:102CE0009F4F0E948113CE01855A9F4F0E942D1243
:102CF000B62ECE01855A9F4F0E946713A7962EAD20
:102D00003FADA79743E050E0BE016F597F4FCE0122
:102D1000855A9F4F0E948113CE01855A9F4F0E9472
:102D20002D12B9E0BF9DF0011124EB0DF11D33967A
:102D3000EE0FFF1FE00FF11FF2C2E4961FAEE49703
:102D400002CF8437E1F58FB7F894C0901C02D09081
:102D50001D02E0901E02F0901F028FBFC701B60156
:102D600028EE33E040E050E00E94501ECA01B90155
:102D70008090280290902902A0902A02B0902B0205
:102D8000C814D904EA04FB0450F4209126023091BF
:102D900027022F5F3F4F3093270220932602C092D5
:102DA0002802D0922902E0922A02F0922B024AE0F5
:102DB0000E940C1180EC91E00E94FA10FBC0883553
:102DC000B1F461E070E080E293E00E943812813556
:102DD00011F40E944A1061E070E080E293E00E94EA
:102DE0003812853409F0E6C00E946C10E3C08634C6
:102DF00009F4E0C0833451F561E070E080E293E0D3
:102E00000E943812282F8734E1F482E790E00E9474
:102E10004F118091290390E00E94BA118DE690E055
:102E20000E944F118091270390E00E94BA1188E61A
:102E300090E00E944F118091280390E00E94891138
:102E4000B9C08CEB820F8230E8F457C4873509F0A3
:102E50007EC061E070E080E293E00E943812F82EBC
:102E6000B3E57B2E8711ABC462E070E080E293E0B3
:102E70000E943812833309F0A2C48091200281118C
:102E80001EC59DC4822F220F990B0E948720892B7B
:102E900009F44FC462E070E080E293E00E943812CF
:102EA000082E000C990B0E948720892B09F441C43D
:102EB00080912002882309F43CC481E00E94DD1047
:102EC000F82E63E070E080E293E00E9438128E36C4
:102ED00079F464E070E080E293E00E943812E82E1A
:102EE000082E000C990B0E948720892B09F0BEC484
:102EF000EDE3EF1508F020C4FEE3FF1233C480E8D1
:102F000090E00E944F112A981C99FECF8EEF0E94EC
:102F1000FA0F7801680138E0B32EB00E80E00E940D
:102F2000FA0FD6018D936D01BA12F8CF2A9AF701E4
:102F300081917F010E94B9108AEA91E00E944D11AF
:102F4000BE10F5CF82EC91E00E94701133C0823741
:102F500009F013C561E070E080E293E00E9438124E
:102F6000082E000C990B0E948720892B09F48BC531
:102F700062E070E080E293E00E943812082E000CBC
:102F8000990B0E948720892B09F040C57CC582ECF3
:102F900091E00E9470110E946C1080E293E00E9408
:102FA000E81180EC91E00E94FA10CE018F599F4FFA
:102FB0000E94671380912202811106C062EC71E0C9
:102FC00080E293E00E94461381E0809321029924DD
:102FD0009394E3E0AE2EB12C80916F04882309F422
:102FE0002CC180916F04815080936F048091710493
:102FF00060916E040E941C1E90937104E091710414
:1030000081E08E0F80937104F0E0EE0FFF1FEE5809
:10301000FB4F8081918190932D0280932C0210921E
:103020003304E0913004EE2369F0F0E0EA5DFC4FF8
:10303000838590E0880F991F895B9B4F9093420492
:103040008093410420912C0230912D02E0913F04A5
:10305000F09140043183208380913004882369F00B
:10306000E0914104F091420440815181422753276D
:10307000452F441F4427441F01C041E051E0211562
:1030800033480CF450E091E08E3F09F490E0952332
:1030900011F0411109C091E08E3F09F090E090934A
:1030A00035040E94F10026C0883221F5B0923A041E
:1030B000A09239042091680430916904E0916A0477
:1030C000F0916B0440916C0450916D04CA01959588
:1030D000879540FF0AC0D901A80FB91F4D915C9197
:1030E000E40FF51F0190F081E02D820F931F0995E9
:1030F00080936704C0903F04D0904004D601ED90C7
:10310000FC90B701F7FE04C0662777276E197F0988
:10311000072E000C880B990B0E9415252DEC3CEC1A
:103120004CE45EE30E9474250E94841F9B0170930F
:1031300037046093360460915704E7E4F4E0812C8F
:103140008616C1F081919191AC014E255F2557FD06
:103150000FC0009769F02701481A590AC20157FEAB
:1031600003C0919581959109281739070CF095C4F2
:103170008394E6CF683051F540E060E086E293E06A
:103180000E94260FE0915704F0E0EA5DFC4F848135
:10319000833010F00E94F1006091300470E06150C3
:1031A0007109809158041616170684F4FB01EA5D34
:1031B000FC4F9485981307C06F5F7F4F86E293E0C2
:1031C0000E94830F03C061507109EDCF80905804B5
:1031D000E0913F04F091400480819181E82DF0E07E
:1031E000EE0FFF1FE95BFB4F9183808381E0880D29
:1031F000883019F08093580406C0109258048093C8
:1032000057041092660480915804909157049817BF
:1032100010F48093570480913004E82FF0E0EA5DC9
:10322000FC4F84868F5F8093300480913304882321
:1032300009F4D2CE90922102CFCE0E94D10CD3CBF2
:103240008FEF90E00E94C30F982F91709093290305
:1032500081FB992790F99093270382FB882780F9B7
:103260008093280349CB823509F561E070E0CE01F7
:103270008F599F4F0E9438128D3309F064CCA79666
:103280002EAD3FADA79742E050E0BE016F597F4F92
:10329000CE01855A9F4F0E948113CE01855A9F4FC0
:1032A0000E942D12E5966FAFE5973BC0843499F4E8
:1032B000F801EF9CE00DF11D1124A6968FADA697A5
:1032C000992D981B892F8C0D8383A1E0AA1AB10830
:1032D000B582A48238CC833451F561E070E0CE0130
:1032E0008F599F4F0E9438128D3309F02CCCA7962E
:1032F0002EAD3FADA79742E050E0BE016F597F4F22
:10330000CE01855A9F4F0E948113CE01855A9F4F4F
:103310000E942D12F801EF9CE00DF11D1124718324
:103320006083CE01855A9F4F0E9467130CCC863470
:1033300009F009CC61E070E0CE018F599F4F0E94E7
:1033400038128D3309F0FFCBA7968EAD9FADA797AE
:103350009695879588248A94880E8250853008F047
:10336000F2CB80912002882309F4EDCB8AE991E029
:103370000E944D115101F2E06F2E712C8A2D82199D
:10338000881568F5ED965FACED975A0C60E8852DD1
:103390000E942B10F50181935F01B301CE018F597B
:1033A0009F4F0E9438120E94C910482E4294E0EFAD
:1033B0004E22B3016F5F7F4FCE018F599F4F0E9406
:1033C00038120E94C910480E642D852D0E941710D6
:1033D000842D0E94C50FF2E06F0E711CCFCF82ECDE
:1033E00091E00E947011AFCB809120028823B1F050
:1033F0008BE30E943A100E944110EE24EA9485E388
:103400000E943A10EA948077803241F061E070E0E7
:1034100080E090E00E94540DE110F1CF912CE596F0
:103420005FACE597951409F447C1E12C4E2C512C63
:10343000AD965FAE4EAEAD9722E1E29E2001112423
:10344000F801E40DF51D8281823089F082E1AD96AC
:103450004EAD5FADAD97849FF001859FF00D1124B7
:10346000E00FF11F8281813009F08EC069C056E003
:10347000450E511C3801640C751CAF967FAE6EAEC4
:10348000AF9724813581E1963FAF2EAFE197C3809E
:103490000E942F0D2B013C01D12CE1964EAD5FAD6A
:1034A000E1974C155D0508F443C0B60180E293E056
:1034B0000E9438128053AF96EEADFFADAF97E80F84
:1034C000F11DE80FF11D20813181590137FF04C042
:1034D000AA24BB24A21AB30AC058DF4F2883C058BD
:1034E000D040C158DF4F3883CF57D0400E942F0DB6
:1034F000C058DF4F2881C058D040C158DF4F3881B5
:10350000CF57D040641575058605970528F337FF1A
:1035100002C05B9801C05B9AC501BB0CAA0BBB0B38
:10352000480E591E6A1E7B1E3FEFC31AD30AB5CF41
:103530000E942F0D6415750586059705C8F386CF83
:10354000A080B1805481E6965FAFE697D3800E9459
:103550002F0D2B013C019501BB0C440B550BE39641
:103560002CAF3DAF4EAF5FAFE397220F331F441F29
:10357000551FEA962CAF3DAF4EAF5FAFEA97E69688
:103580002FADE6972D1530F45B98E394FE1408F008
:103590004DCF85C06D2D70E080E293E00E9438121F
:1035A0008A3314F097E301C090E3891B44E050E0B4
:1035B000AD965FAF4EAFAD9748E0C42E282F880F71
:1035C000330BEC963FAF2EAFEC97A3019201AE9672
:1035D0001FAEAE97AC2CB12CEC968EAD9FADEC9798
:1035E000A822B922A114B104F1F15B98E3968CAD45
:1035F0009DADAEADBFADE397280F391F4A1F5B1FCE
:10360000C058DF4F2883C058D040C158DF4F38839F
:10361000CF57D040EE964FAFEE97EF965FAFEF9754
:103620000E942F0DC058DF4F2881C058D040C1588C
:10363000DF4F3881CF57D040EE964FADEE97EF96E3
:103640005FADEF976217730784079507C8F2AE96D0
:103650009FADAE97913049F081E0AE968FAFAE97B7
:10366000A114B10411F25B9AC1CFEA962CAD3DAD25
:103670004EAD5FADEA97420E531E641E751EC69492
:10368000AD964EAD5FADAD9741505109AD965FAF70
:103690004EAFAD97452B09F098CFD39470CFE496F9
:1036A0004FACE497442031F061E070E080E090E0BE
:1036B0000E94540D9394B3CE882009F46CCC8EEA0A
:1036C00091E00E944D1161018CE0F82EF2188C2DD2
:1036D0008219881508F05BCCD6016D916D01862F9B
:1036E000EE966FAFEE970E94C50FEE966FADEE9718
:1036F0008F2D8C0D0E941710EACF62E070E080E2FF
:1037000093E0C058DF4F2883C058D0400E94381241
:10371000C058DF4F2881C058D040833509F4ECC130
:10372000853509F4E3C1833409F0E3C1E8E2F3E04D
:10373000E5C18AEF90E0A9C1EEE2EF1510F060E874
:1037400001C060EC8F2D0E942B10E82E89EE91E0D5
:103750000E944D118F2D0E94B91085EC91E00E94BE
:103760004D1180C0F9E9FF1225CCF12CFF2061F04A
:1037700020E1422EF41421F090E2592EF5100FC0F2
:103780008AEA91E00E944D1189E790E00E944F1172
:103790008F2D0E94B91086E790E00E944F1160E8DB
:1037A0008F2D0E942B100E94B9108AEA91E00E948E
:1037B0004D11F3948FE2682EF610D8CFC3CB8F2D26
:1037C000FF0C990B0E948720892B09F4D3C062E07B
:1037D00070E080E293E00E943812082E000C990BF2
:1037E0000E948720892B09F4C5C063E070E080E265
:1037F00093E00E943812082E000C990B0E9487203B
:10380000892B09F4B7C064E070E080E293E00E9485
:103810003812082E000C990B0E948720892B09F47E
:10382000A9C081E00E94DD10F82E83E00E94DD1027
:10383000E82E682F8F2D90E00E94C10F809120020A
:10384000882309F4B7CB8EEF8F0D8E3308F0B2CBFF
:103850006E2D0E94171089EC91E00E944D118F2D62
:103860000E94B9108E2D0E94B9106CCB8E2D0E9433
:10387000C910E82EFEE2FF1508F49CCB89EE91E01A
:103880000E944D118F2D0E94B91083EC91E00E948F
:103890004D11E394E3948E2D0E94B9108CEF91E0CA
:1038A0000E944D11D12CDE1408F04CCB60E88D2D18
:1038B0008F0D0E942B100E94B910D394F4CF63E0B7
:1038C00070E080E293E00E943812F82E082E000C7F
:1038D000990B0E948720892B09F46CCB8F2D0E94B5
:1038E000C91020E3280F2E3308F064CB822FC05874
:1038F000DF4F2883C058D0400E943A10E82E61E084
:1039000070E080E090E00E94540D8DE30E943A1038
:10391000F82E8DE990E00E944F11C058DF4F2881AA
:10392000C058D040822F0E94B91080E990E00E94D8
:103930004F116E2D70E0F4E075956795FA95E1F7FB
:10394000072E000C880B990B40E10E940C1187E8B0
:1039500090E00E944F116F2D70E0A4E0759567957F
:10396000AA95E1F7072E000C880B990B40E10E9405
:103970000C11E8CA86EE90E088C0883709F07DC057
:1039800061E070E080E293E00E943812082E000CA3
:10399000990B0E948720892B09F475C062E070E0C2
:1039A00080E293E00E943812082E000C990B0E94CE
:1039B0008720892B09F467C080912002882309F4AD
:1039C00062C081E00E94DD10D82E80E3E82EF12C49
:1039D00041E3E41204C06D2D81E390E002C060E099
:1039E000C7010E94C10F5FEFE51AF50A88E3E816E8
:1039F000F10471F70E94001080ED90E00E944F11D9
:103A00008D2D0E94C50F8FEB90E03FC081E00E949A
:103A1000DD10E82E8EED90E00E944F118E2D0E9459
:103A2000C50F63E070E080E293E00E943812F12C51
:103A30008E36C9F48BED90E00E944F11C12CD12C31
:103A40008AEA91E00E944D11C6018E0D9F1D0E94D1
:103A5000C30F0E94C50F2FEFC21AD20A30E1C3165E
:103A6000D10471F76FCA87ED90E00E944F11C70132
:103A70000E94C30F0E94C50F65CA853621F480914C
:103A80002002811105C08BEA90E00E94F11192CAD8
:103A90000E94D50F0E947F108DCA87FC6BCB882DAA
:103AA000880F990B9C01295B3B4F7901D9016D91DE
:103AB0007C91AB01770F660B770BF60180819181CA
:103AC000092E000CAA0BBB0B2A013B01480E591E04
:103AD0006A1E7B1EC301B20122E030E040E050E0EC
:103AE0000E94721ED7012D933C9395CBE7E2F3E041
:103AF00005C0E0E0F0E002C0E9E2F3E0253419F4AB
:103B000081E0808301C0108280912703682F660FB7
:103B100090912803B4E09B9FC0011124862B6091F3
:103B20002903682B8FEF90E00E94C10F43CA80E207
:103B300093E00E94671380E694E00E9467138AE591
:103B400094E00C9467130F931F93CF93DF93EFE7E9
:103B5000F2E01382128288EE93E0A0E0B0E084836A
:103B60009583A683B7838EE091E09183808385EC73
:103B700090E09587848784EC90E09787868780EC37
:103B800090E0918B808B81EC90E0938B828B82EC28
:103B900090E0958B848B86EC90E0978B868B118ED2
:103BA000128E138E148EEEE6F4E082E3808311828F
:103BB00013821282CBE3D4E0D0934004C0933F043D
:103BC0000DE314E0109342040093410462EC71E0B1
:103BD0008AE594E00E946C1362EC71E080E694E068
:103BE0000E946C13109269041092680410926B0486
:103BF00010926A0410926D0410926C04F801118204
:103C000010821982188286E293E00E94440F62ECCF
:103C100071E080E293E00E946C130E942F0D60938C
:103C20001C0370931D0380931E0390931F03DF9169
:103C3000CF911F910F910895991B79E004C0991FAE
:103C4000961708F0961B881F7A95C9F780950895F6
:103C5000AA1BBB1B51E107C0AA1FBB1FA617B707B2
:103C600010F0A61BB70B881F991F5A95A9F78095CE
:103C70009095BC01CD01089597FB072E16F4009492
:103C800007D077FD09D00E94281E07FC05D03EF41E
:103C9000909581959F4F0895709561957F4F0895F8
:103CA000A1E21A2EAA1BBB1BFD010DC0AA1FBB1F40
:103CB000EE1FFF1FA217B307E407F50720F0A21BB2
:103CC000B30BE40BF50B661F771F881F991F1A941F
:103CD00069F760957095809590959B01AC01BD0149
:103CE000CF010895052E97FB1EF400940E94891EB3
:103CF00057FD07D00E94501E07FC03D04EF40C94D1
:103D0000891E50954095309521953F4F4F4F5F4FFD
:103D1000089590958095709561957F4F8F4F9F4F37
:103D200008950E948226B7FF0895821B930B089581
:103D3000EE0FFF1F0590F491E02D09945058BB271A
:103D4000AA270E94B61E0C94FB250E94ED2538F090
:103D50000E94F42520F039F49F3F19F426F40C94C6
:103D6000EA250EF4E095E7FB0C94E425E92F0E9488
:103D70000C2658F3BA17620773078407950720F0DB
:103D800079F4A6F50C942E260EF4E0950B2EBA2F9E
:103D9000A02D0B01B90190010C01CA01A001112451
:103DA000FF27591B99F0593F50F4503E68F11A16FD
:103DB000F040A22F232F342F4427585FF3CF46958E
:103DC00037952795A795F0405395C9F77EF41F16B0
:103DD000BA0B620B730B840BBAF09150A1F0FF0F7A
:103DE000BB1F661F771F881FC2F70EC0BA0F621F66
:103DF000731F841F48F4879577956795B795F79556
:103E00009E3F08F0B0CF9395880F08F09927EE0FEA
:103E10009795879508950E941F1F0C94FB250E947B
:103E2000F42558F00E94ED2540F029F45F3F29F079
:103E30000C94E42551110C942F260C94EA250E9431
:103E40000C2668F39923B1F3552391F3951B550B79
:103E5000BB27AA2762177307840738F09F5F5F4F5D
:103E6000220F331F441FAA1FA9F335D00E2E3AF09C
:103E7000E0E832D091505040E695001CCAF72BD0B4
:103E8000FE2F29D0660F771F881FBB1F2617370705
:103E90004807AB07B0E809F0BB0B802DBF01FF2737
:103EA00093585F4F3AF09E3F510578F00C94E4250B
:103EB0000C942F265F3FE4F3983ED4F386957795D4
:103EC0006795B795F7959F5FC9F7880F911D9695F0
:103ED000879597F90895E1E0660F771F881FBB1F4C
:103EE000621773078407BA0720F0621B730B840BF9
:103EF000BA0BEE1F88F7E09508950E94841F68941E
:103F0000B1110C942F2608950E94142688F09F5713
:103F100098F0B92F9927B751B0F0E1F0660F771FED
:103F2000881F991F1AF0BA95C9F714C0B13091F0E3
:103F30000E942E26B1E008950C942E26672F782F2C
:103F40008827B85F39F0B93FCCF3869577956795A8
:103F5000B395D9F73EF490958095709561957F4F14
:103F60008F4F9F4F08950E94502508F48FEF0895BA
:103F7000A0E0B0E0EEEBFFE10C944F26EC010097DF
:103F800021F4CB010E947023B8C0FC01E60FF71F9B
:103F90009C0122503109E217F30708F4ACC0D901A3
:103FA0000D911C91119706171707B0F005301105F8
:103FB00008F49FC0C80104978617970708F499C0B2
:103FC00002501109061B170B019311936D937C93FB
:103FD000CF010E9405248DC05B01A01AB10A4C01DB
:103FE000800E911EA091D804B091D90440E050E019
:103FF000E12CF12C109709F44AC0A815B905D1F5A8
:104000006D907C901197630182E0C80ED11CCA1498
:10401000DB0480F1A3014A195B096A0182E0C80E42
:10402000D11C1296BC9012971396AC91B5E0CB16AA
:10403000D10440F0B282A38351834083D9016D93B0
:104040007C930AC00E5F1F4FC301800F911FF901BF
:1040500091838083EB2DFA2FE114F10431F0D70125
:104060001396FC93EE93129744C0F093D904E09317
:10407000D8043FC08D919C9111974817590708F4B7
:10408000AC017D0112960D90BC91A02DB3CF809113
:10409000D6049091D70488159905E1F4461757077F
:1040A000C8F48091040190910501009741F48DB707
:1040B0009EB74091080150910901841B950BE817A8
:1040C000F907C8F4F093D704E093D604F90171839B
:1040D00060830FC0CB010E9470237C01009759F0D0
:1040E000A801BE010E949320CE010E940524C701B1
:1040F00004C0CE0102C080E090E0CDB7DEB7EEE0B4
:104100000C946B2681E090E0F8940C949126911128
:104110000C94E12580538A5028F0865C8062815699
:104120008650B0F70895FB01DC0102C001900D92AA
:1041300041505040D8F708956817790768F4FB019B
:10414000DC01E40FF51FA40FB51F02C002900E9210
:1041500041505040D8F708950C949320FB01DC01A6
:1041600001900D920020E1F70895FB015191552334
:10417000A9F0BF01DC014D9145174111E1F759F458
:10418000CD010190002049F04D9140154111C9F336
:10419000FB014111EFCF81E090E001970895AEE07F
:1041A000B0E0E5EDF0E20C9459260D891E8986E019
:1041B0008C831A8309838FEF9FE79E838D83AE01E3
:1041C000475E5F4F6F89788DCE0101960E94F22085
:1041D0002F813885F801E20FF31F10822E96E4E05C
:1041E0000C947526ACE0B0E0E8EFF0E20C944B26BE
:1041F0007C016B018A01FC0117821682838181FF99
:10420000BDC1CE0101964C01F7019381F60193FDEA
:10421000859193FF81916F01882309F4ABC18532A9
:1042200039F493FD859193FF81916F01853229F4D3
:10423000B70190E00E94DA22E7CF512C312C20E028
:104240002032A0F48B3269F030F4803259F083329E
:1042500069F420612CC08D3239F0803339F421604B
:1042600026C02260246023C0286021C027FD27C00B
:1042700030ED380F3A3078F426FF06C0FAE05F9E42
:10428000300D1124532E13C08AE0389E300D1124B6
:10429000332E20620CC08E3221F426FD6BC12064C7
:1042A00006C08C3611F4206802C0883641F4F6014D
:1042B00093FD859193FF81916F018111C1CF982F5B
:1042C0009F7D9554933028F40C5F1F4FFFE3F983D3
:1042D0000DC0833631F0833771F0833509F05BC050
:1042E00022C0F801808189830E5F1F4F44244394CC
:1042F000512C540115C03801F2E06F0E711CF80109
:10430000A080B18026FF03C0652D70E002C06FEF72
:104310007FEFC5012C870E94CF222C0183012C85C1
:104320002F77222E17C03801F2E06F0E711CF801B2
:10433000A080B18026FF03C0652D70E002C06FEF42
:104340007FEFC5012C870E94C4222C012C85206898
:10435000222E830123FC1BC0832D90E048165906B2
:10436000B0F4B70180E290E00E94DA223A94F4CFF0
:10437000F50127FC859127FE81915F01B70190E04F
:104380000E94DA2231103A94F1E04F1A5108411498
:10439000510471F7E5C0843611F0893639F5F8011A
:1043A00027FF07C060817181828193810C5F1F4F5D
:1043B00008C060817181072E000C880B990B0E5F7D
:1043C0001F4F2F76722E97FF09C09095809570959C
:1043D00061957F4F8F4F9F4F2068722E2AE030E00B
:1043E000A4010E941223A82EA81844C0853729F4DE
:1043F0002F7EB22E2AE030E025C0F22FF97FBF2EAB
:104400008F36C1F018F4883579F0B4C0803719F0D0
:10441000883721F0AFC02F2F2061B22EB4FE0DC01F
:104420008B2D8460B82E09C024FF0AC09F2F966090
:10443000B92E06C028E030E005C020E130E002C01F
:1044400020E132E0F801B7FE07C06081718182810E
:1044500093810C5F1F4F06C06081718180E090E006
:104460000E5F1F4FA4010E941223A82EA818FB2D37
:10447000FF777F2E76FE0BC0372D3E7FA51450F4BC
:1044800074FE0AC072FC08C0372D3E7E05C0BA2CEF
:10449000372D03C0BA2C01C0B52C34FF0DC0FE016E
:1044A000EA0DF11D8081803311F4397E09C032FF9D
:1044B00006C0B394B39404C0832F867809F0B394F4
:1044C00033FD13C030FF06C05A2CB31418F4530C3C
:1044D0005B18B32CB31468F4B70180E290E03C871A
:1044E0000E94DA22B3943C85F5CFB31410F43B1844
:1044F00001C0312C34FF12C0B70180E390E03C874B
:104500000E94DA223C8532FF17C031FD03C088E7E4
:1045100090E002C088E590E0B7010CC0832F867858
:1045200059F031FF02C08BE201C080E237FD8DE21D
:10453000B70190E00E94DA22A51438F4B70180E3B5
:1045400090E00E94DA225A94F7CFAA94F401EA0D7F
:10455000F11D8081B70190E00E94DA22A110F5CF11
:10456000332009F451CEB70180E290E00E94DA22B4
:104570003A94F6CFF7018681978102C08FEF9FEFC3
:104580002C96E2E10C946726FC0105906150704086
:104590000110D8F7809590958E0F9F1F0895FC010C
:1045A0006150704001900110D8F7809590958E0F62
:1045B0009F1F08950F931F93CF93DF93FB012381D8
:1045C00021FD03C08FEF9FEF28C022FF16C0468158
:1045D0005781248135814217530744F4A081B1816A
:1045E0009D012F5F3F4F318320838C93268137813C
:1045F0002F5F3F4F3783268310C0EB01092F182F01
:104600000084F185E02D0995892BE1F68E819F814B
:1046100001969F838E83812F902FDF91CF911F91E1
:104620000F910895FA01AA27283051F1203181F124
:10463000E8946F936E7F6E5F7F4F8F4F9F4FAF4FAA
:10464000B1E03ED0B4E03CD0670F781F891F9A1FBD
:10465000A11D680F791F8A1F911DA11D6A0F711D71
:10466000811D911DA11D20D009F468943F912AE07D
:10467000269F11243019305D3193DEF6CF01089565
:10468000462F4770405D4193B3E00FD0C9F7F6CF96
:10469000462F4F70405D4A3318F0495D31FD40525E
:1046A000419302D0A9F7EACFB4E0A69597958795F4
:1046B00077956795BA95C9F70097610571050895D3
:1046C0009B01AC010A2E069457954795379527957F
:1046D000BA95C9F7620F731F841F951FA01D089517
:1046E000CF93DF938230910510F482E090E0E09167
:1046F000D804F091D90420E030E0C0E0D0E0309759
:1047000011F14081518148175907C0F048175907E6
:1047100061F482819381209719F09B838A832BC057
:104720009093D9048093D80426C02115310519F03F
:104730004217530718F49A01BE01DF01EF0102800E
:10474000F381E02DDCCF2115310509F1281B390B50
:104750002430310590F412968D919C911397611538
:10476000710521F0FB019383828304C09093D904E7
:104770008093D804FD01329644C0FD01E20FF31F7F
:1047800081939193225031092D933C933AC020910B
:10479000D6043091D704232B41F4209106013091A7
:1047A00007013093D7042093D6042091040130915F
:1047B00005012115310541F42DB73EB7409108019F
:1047C00050910901241B350BE091D604F091D704D8
:1047D000E217F307A0F42E1B3F0B2817390778F0D8
:1047E000AC014E5F5F4F2417350748F04E0F5F1F37
:1047F0005093D7044093D6048193919302C0E0E094
:10480000F0E0CF01DF91CF9108950F931F93CF93E5
:10481000DF93009709F48CC0FC0132971382128257
:104820000091D8041091D9040115110581F420815B
:104830003181820F931F2091D6043091D70428171D
:10484000390779F5F093D704E093D60471C0D80105
:1048500040E050E0AE17BF0750F412962D913C9106
:104860001397AD012115310509F1D901F3CF9D0150
:10487000DA013383228360817181860F971F82174B
:10488000930769F4EC0128813981260F371F2E5FC9
:104890003F4F318320838A819B8193838283452B81
:1048A00029F4F093D904E093D80442C01396FC9302
:1048B000EE931297ED01499159919E01240F351FF6
:1048C000E217F30771F480819181840F951F02969E
:1048D00011969C938E938281938113969C938E93D1
:1048E0001297E0E0F0E0D80112968D919C91139719
:1048F000009719F0F8018C01F6CF8D919C919801E9
:104900002E5F3F4F820F931F2091D6043091D70422
:104910002817390769F4309729F41092D9041092B6
:10492000D80402C0138212821093D7040093D604D5
:10493000DF91CF911F910F9108951F93FC0199274B
:104940008827BC01E89411911032E9F3193010F076
:104950001E30C8F31B3251F01D3249F4689406C072
:104960000E94CF24610F711D811D911D1191105363
:104970001A30B0F33EF490958095709561957F4F15
:104980008F4F9F4F1F910895BB274A3031F49923D1
:1049900022F4BDE2909581959F4F0C94E524592F08
:1049A000482F372F262F660F771F881F991F660FF6
:1049B000771F881F991F620F731F841F951F660F33
:1049C000771F881F991F0895BB27FB015527AA272A
:1049D000880F991FAA1FA41710F0A41B839550518C
:1049E000B9F7A05DAA3308F0A95DA193009779F704
:1049F000B111B1931192CB010C94FE24DC01FC01A6
:104A0000672F71917723E1F7329704C07C916D9302
:104A100070836291AE17BF07C8F308950E945025B6
:104A200008F481E00895E89409C097FB3EF490955E
:104A30008095709561957F4F8F4F9F4F9923A9F077
:104A4000F92F96E9BB279395F69587957795679506
:104A5000B795F111F8CFFAF4BB0F11F460FF1BC04A
:104A60006F5F7F4F8F4F9F4F16C0882311F096E9DD
:104A700011C0772321F09EE8872F762F05C066238B
:104A800071F096E8862F70E060E02AF09A95660F44
:104A9000771F881FDAF7880F9695879597F90895FD
:104AA000990F0008550FAA0BE0E8FEEF161617063F
:104AB000E807F907C0F012161306E407F50798F0A7
:104AC000621B730B840B950B39F40A2661F0232BC0
:104AD000242B252B21F408950A2609F4A140A6953C
:104AE0008FEF811D811D08950E9487250C94FB2561
:104AF0000E94ED2538F00E94F42520F0952311F056
:104B00000C94E4250C94EA2511240C942F260E9481
:104B10000C2670F3959FC1F3950F50E0551F629FCF
:104B2000F001729FBB27F00DB11D639FAA27F00D06
:104B3000B11DAA1F649F6627B00DA11D661F829F2D
:104B40002227B00DA11D621F739FB00DA11D621F12
:104B5000839FA00D611D221F749F3327A00D611D2F
:104B6000231F849F600D211D822F762F6A2F112411
:104B70009F5750409AF0F1F088234AF0EE0FFF1F44
:104B8000BB1F661F771F881F91505040A9F79E3F9B
:104B9000510580F00C94E4250C942F265F3FE4F33C
:104BA000983ED4F3869577956795B795F795E795F1
:104BB0009F5FC1F7FE2B880F911D9695879597F9FA
:104BC000089599278827089597F99F6780E870E0EE
:104BD00060E008959FEF80EC089500240A94161673
:104BE000170618060906089500240A9412161306DB
:104BF000140605060895092E0394000C11F4882369
:104C000052F0BB0F40F4BF2B11F460FF04C06F5F84
:104C10007F4F8F4F9F4F089557FD9058440F551F5A
:104C200059F05F3F71F04795880F97FB991F61F02E
:104C30009F3F79F087950895121613061406551FA5
:104C4000F2CF4695F1DF08C0161617061806991F11
:104C5000F1CF86957105610508940895E894BB2706
:104C600066277727CB0197F90895F999FECF92BD72
:104C700081BDF89A992780B50895262FF999FECF1E
:104C80001FBA92BD81BD20BD0FB6F894FA9AF99A69
:104C90000FBE019608952F923F924F925F926F92AE
:104CA0007F928F929F92AF92BF92CF92DF92EF92BC
:104CB000FF920F931F93CF93DF93CDB7DEB7CA1B3D
:104CC000DB0B0FB6F894DEBF0FBECDBF09942A8868
:104CD000398848885F846E847D848C849B84AA8410
:104CE000B984C884DF80EE80FD800C811B81AA819D
:104CF000B981CE0FD11D0FB6F894DEBF0FBECDBF68
:104D0000ED010895A29FB001B39FC001A39F700D54
:104D1000811D1124911DB29F700D811D1124911DC3
:104D2000089510E0C6ECD0E004C0FE010E94981E79
:0C4D30002196C73CD107C9F7F894FFCFCB
:104D3C00AA0CAA0C0000DA04800000000000410C50
:104D4C0000120A0CE80BFC0B880C4F4B005620335E
:104D5C002E332E312D646576205349474E414C64D9
:104D6C0075696E6F20636331313031202D20636F94
:104D7C006D70696C6564206174204A616E203132FB
:104D8C0020323031372032333A30343A333800560F
:104D9C0020332E332E312D646576205349474E41F6
:104DAC004C6475696E6F202D20636F6D70696C6536
:104DBC0064206174204A616E2031322032303137E8
:104DCC002032333A30343A333800777269746520C4
:104DDC006E65772063637265672020003B00636318
:104DEC00726567207772697465206261636B20005D
:104DFC000D0A006E00203D200057004D5300443D2D
:104E0C000043503D0053503D00523D004F002530B3
:104E1C0032580025303158004D43004C4C3D004C6D
:104E2C00483D00534C3D0053483D00433D004D551B
:104E3C0000500030006363466163746F7279526591
:0A4E4C0073657420646F6E6500004A
:00000001FF
