:100000000C94FF000C942B0F0C94040F0C942701FC
:100010000C9427010C9427010C9427010C942701C0
:100020000C9427010C9427010C9427010C942701B0
:100030000C9427010C94DA0F0C9427010C942701DF
:100040000C94BA0E0C9427010C94390D0C94130DDA
:100050000C9427010C9427010C9427010C94270180
:100060000C9427010C9427016E6F204343313178A3
:100070007820666F756E6421006363313130312002
:100080006973206E6F7420636F72726563746C792C
:10009000207365742E20506C6561736520646F2039
:1000A0006120666163746F72792072657365742074
:1000B00076696120636F6D6D616E642065007265A5
:1000C00063656976657220656E61626C6564003B8C
:1000D0004D433D003B4D553D004D533D003A200002
:1000E00063637265672000433345203D2000206430
:1000F000656C6179312000206368697053746174A4
:1001000075732000636D645374726F626552656726
:100110002000556E737570706F7274656420636F24
:100120006D6D616E640020746F2050415441424CEB
:100130004520646F6E650057726974652000203D2C
:100140002000203A00454550524F4D2000556E7317
:100150007570706F7274656420636F6D6D616E642D
:1001600000556E737570706F7274656420636F6D87
:100170006D616E640063633131303120002055734E
:1001800065206F6E65206F6620000D2E2D07D391C0
:100190003D04320000060010B07157C43023B9008E
:1001A000070018146C070090876BF85611E92A00B5
:1001B0001F410000000000250028002B000404045B
:1001C0000404040404020202020202030303030300
:1001D00003010204081020408001020408102001DD
:1001E00002040810200000000800020100000304BF
:1001F00007000000000000000000551E491E1124E9
:100200001FBECFEFD8E0DEBFCDBF12E0A0E0B1E06F
:10021000E0EAFEE402C005900D92A838B107D9F7D4
:1002200025E0A8E8B2E001C01D92A834B207E1F7CA
:1002300010E0CEEFD0E004C02197FE010E944A1FDB
:10024000CD3FD107C9F70E9413140C9443270C9497
:1002500000002F923F924F925F926F927F928F9207
:100260009F92AF92BF92CF92DF92EF92FF920F9345
:100270001F93CF93DF93CDB7DEB7AF970FB6F89448
:10028000DEBF0FBECDBF8091D404811106C0809126
:100290009E04883210F40C943C0B1092A10440E0B0
:1002A00060E084E993E00E94620F8090C504882D8D
:1002B00090E09C01215031093E8F2D8F4091B10477
:1002C0005091B2046091B3047091B4044F8B588F75
:1002D000698F7A8F40909E044B8EF12C8F2D90E089
:1002E0004D8C5E8C841595050CF0ADC0FC01EC5670
:1002F000FC4F9F012C5F3F4F4481442309F4A1C070
:10030000EE24E394EF0C880F991FAC014B545B4F24
:100310005E8B4D8B3A8B298BE81408F092C02E2C03
:10032000312CF101EC56FC4F9480992009F487C0E0
:10033000AD89BE89AD90BC90F101EE0FFF1FEB546B
:10034000FB4F00811181C8018A259B2597FD77C04D
:10035000B80117FF04C066277727601B710B072EB3
:10036000000C880B990B0E94C7252F89388D498D69
:100370005A8D0E9426262B013C016801CA18DB0811
:10038000D7FE03C0D194C194D10820E030E040E012
:100390005FE3C301B2010E9426269B01AC01C301A9
:1003A000B2010E94511F0E942F206C157D050CF494
:1003B00046C0E0EAF3E08E2F70EA472E73E0572E36
:1003C00084195B8C851530F480818E1101C0F08218
:1003D0003196F1CFA989BA89DC90492D50E0ED2DF5
:1003E000F0E09F01D5010E94431F049F9001059FEB
:1003F000300D149F300D11248901330F220B330B64
:10040000600F711F821F931FE40FF51F9F01FF0FE5
:10041000440B550B0E94241FED89FE8931832083F4
:100420009D0CA989BA899C92F101EC56FC4F14826B
:10043000F101EE0FFF1FEB54FB4F11821082E3948A
:100440006BCFF3944BCF40E060E084E993E00E94EF
:10045000620F1092A8041092A7048FEF8093940368
:100460001091C50400919E0445EB242E44E0342EE7
:10047000E12CF12CCC24CA94DC2C402E512C612C84
:10048000712CE11608F05AC02FEFC216D20611F5F2
:10049000D1018D919C9197FD1DC0F701EC56FC4F49
:1004A000648170E080E090E00E94C7254B015C0110
:1004B000C301B2010E94C7252BE734E14EE25EE39F
:1004C0000E9426269B01AC01C501B4010E94652053
:1004D000181664F1F1018081918197FD28C0F60121
:1004E000EE0FFF1FEB54FB4F2081318182179307E2
:1004F000F4F4F701EC56FC4F648170E080E090E08A
:100500000E94C7254B015C01C301B2010E94C725AF
:100510002BE734E14EE25EE30E9426269B01AC010C
:10052000C501B4010E94652018160CF46701FFEFA5
:10053000EF1AFF0A22E0220E311CA3CF3FEFC316B1
:10054000D30641F0C092940381E090E09093A80418
:100550008093A7048091A7049091A804019709F0C3
:1005600096C01150A09094030A2C000CBB08E02EFA
:10057000F12C170148E2241A3108C501880F991F90
:10058000BC016B547B4F7A8B698B27010F2C000CBD
:1005900066087708C7010197988F8F8B1F3F09F472
:1005A00074C0812E012E000C9908F401EE0FFF1F7C
:1005B000EB54FB4F2081318137FF65C03195219588
:1005C0003109283692E439070CF05DC0A989BA894F
:1005D000ED91FC91C901BF010E94DA1E68327105DC
:1005E00008F051C0B6E0BE9FC001BF9F900D11241E
:1005F0008217930708F047C0F401EC56FC4F2481A2
:100600002D8B622F70E080E090E00E94C7256B0187
:100610007C01C301B2010E94C7252AE037ED43EAFD
:100620005DE30E9426269B01AC01C701B6010E9432
:10063000C02587FF28C03D89323028F140E0842F53
:1006400090E06F89788D861797076CF4FC01EC5663
:10065000FC4F258530E02815390599F4248530E0D4
:100660002A153B0571F4821593056CF41093C704A9
:1006700082E090E09093A8048093A70440939F04A5
:1006800006C04F5FDCCF115089CF1093C704809113
:100690009703882309F446C18091A7049091A80488
:1006A000029709F03FC1083208F43CC160919F04F1
:1006B00082E0860F8093A004A091C7040A2E000C4C
:1006C000BB0BE09094030E2C000CFF08402F50E071
:1006D00041505109282F30E024173507A4F4F901BF
:1006E000EC56FC4F258530E02A173B0751F4248552
:1006F00030E02E153F0529F481508093A00411E0CD
:1007000005C08E5FE7CF8093A00410E08091A00425
:10071000081710F40093A0044091A00484E993E02A
:100720000E94620F112359F06091A004862F90E07F
:1007300020919F04821B9109889734F4E2C0809134
:100740009E048E3F08F0CBC066E872E088EC94E02F
:100750000E94921366E872E08EEC94E00E9492137D
:1007600062E088EC94E00E94451360E272E088EC5D
:1007700094E00E9458136BE388EC94E00E944513C8
:1007800010E08091C504181788F5212F30E0C901C9
:10079000880F991FDC01AB54BB4F7D018D919C915B
:1007A000892B11F1F901EC56FC4F84818823E1F08B
:1007B00060E588EC94E00E944513612F88EC94E09A
:1007C0000E941A136FE472E088EC94E00E945813C0
:1007D000F7016081718188EC94E00E94EA126BE37A
:1007E00088EC94E00E9445131F5FCBCF63E272E078
:1007F00088EC94E00E9458136BE38EEC94E00E9426
:10080000451366E272E08EEC94E00E94581360910A
:100810009403062E000C770B8EEC94E00E94EA12F3
:100820006BE38EEC94E00E9445136AE272E08EEC7A
:1008300094E00E9458136091C704062E000C770BB9
:100840008EEC94E00E94EA126BE38EEC94E00E943E
:1008500045136EE272E08EEC94E00E9458136091B2
:10086000D5048EEC94E00E941A136BE38EEC94E0B6
:100870000E9445138091A304882359F064E271E03B
:100880008EEC94E00E9458136BE38EEC94E00E948F
:10089000451363E08EEC94E00E9445136AE08EEC11
:1008A00094E00E9445130091A00410919F0488ECED
:1008B00094E00E944212011768F0E12FF0E0EC563C
:1008C000FC4F648570E080E090E04AE00E948B116C
:1008D0001F5FF1CF8EEC94E00E94421220C0609125
:1008E0009F046623C1F08091A00490E08D3F9105A4
:1008F00094F084E993E00E94BF0F81E08093A2040A
:1009000011C06E3F40F484E993E00E94BF0F81E084
:100910008093A20405C084E993E00E94800F81E0E7
:100920008093A1048091A1048111A6C680919503B2
:10093000811105C080919603882309F49DC666E85D
:1009400072E088EC94E00E94921366E872E08EEC0C
:1009500094E00E94921362E088EC94E00E944513B8
:10096000409096034D8A442009F4C7C58091E00267
:10097000811148C082E38093D40281E08093D10248
:100980001092D2028CE992E00E94520F8091D10223
:1009900027E030E0281B31099091D20287E061E026
:1009A00070E0482F50E0241735074CF4AB01082EB7
:1009B00001C0440F0A94EAF7942B8150F2CF909330
:1009C000D2028FEF8093D7028093D8028093D9020E
:1009D0008093DA021092DE021092DF0284E993E043
:1009E0009093D6028093D5021092DC021092DB0223
:1009F00084E18093DD028CE992E00E94520F81E055
:100A00008093E0028091D40481111BC08FEF80930A
:100A1000D7028093D8028093D9028093DA02109291
:100A2000DE021092DF021092DC021092DB0284E1FF
:100A30008093DD028CE992E00E94520F81E1809365
:100A4000DD028091D404882381F08091D5029091B9
:100A5000D602FC01E25FFE4F108233971082E12C38
:100A6000912CF12CCC24C394C4C10091D5021091D7
:100A7000D602F801EF5CFE4FF080B3E05B2E5F140E
:100A800008F030C5B797608170E080E090E00E9488
:100A9000C7252AE037ED43E25DE30E9426264B019D
:100AA0005C0120E030E0A9010E94652020E030E0F8
:100AB00040E05FE387FD05C0C501B4010E94511FFE
:100AC00004C0C501B4010E94501F0E942F2068017C
:100AD00024E0C20ED11CD801AF5DBE4F198A70E070
:100AE000F60181916F01861768F14989842F90E0A2
:100AF0004423F1F0FE01E80FF91F50819801250F02
:100B0000311D250F311DF901EF5DFE4F2D913C91F7
:100B100011970190F081E02D2E173F074CF4E1E092
:100B2000F0E0EC0FFD1FE80FF91F50834150DECFBE
:100B3000E1E0F0E0EC0FFD1FE80FF91F7083F98989
:100B4000FF5FF98B7F5F12967F11CACF9E012F5FE7
:100B50003F4F388B2F873E8F2D8F5F8459A68D8D09
:100B600085194988841508F0BDC4AD8DBE8D2D91C1
:100B7000BE8FAD8F4091D5023091D602842F932F36
:100B8000820F911D820F911DFC01EF5DFE4F408091
:100B90005180588E4F8A14141504FCF68FEF809301
:100BA000D7028093D8028093D9028093DA02B201EF
:100BB000052C000C880B990B0E94C7254B015C018A
:100BC00020E030E040E05FE30E9426260E942F20D4
:100BD0007CA36BA3440C551C5EA24DA29E012F5F0B
:100BE0003F4F3C8F2B8F10E022242A94322C00E0C0
:100BF000AB8DBC8D7D90BC8FAB8F3091D502209199
:100C0000D602832F922F870D911D870D911DFC0118
:100C1000EF5DFE4FE080F1809701F7FE04C02227D0
:100C200033272E193F098F89988D821B930B97FFCD
:100C300003C09195819591094BA05CA04816590677
:100C4000C4F4CDA0DEA0C21AD30AD7FE03C0D1944B
:100C5000C194D1082DEC3CEC4CE45FE3C501B40138
:100C60000E9426260E942F206C157D050CF02DC5B4
:100C70000EC01E141F040CF086C57092DA020F5FBE
:100C80002E0C3F1C7091D7027F3F09F031C38B8D32
:100C900059A485194988841508F4AACF5ECFD39446
:100CA000D71408F0E1C0F801ED0DF11D848590E046
:100CB0008417950709F087C58D8862E070E0260EDD
:100CC000371E882061F3DF1091C5DD2009F48EC541
:100CD00043859801240F311D240F311DF901EF5D6B
:100CE000FE4F20813181B90137FF04C06627772785
:100CF000621B730B61304DE774070CF077C5880FEA
:100D0000991F800F911FFC01EF5DFE4F8081918143
:100D10002827392737FF6AC5072E000C880B990B47
:100D20000E94C7252B013C016091DB027091DC021F
:100D3000072E000C880B990B0E94C725698B7A8BB4
:100D40008B8B9C8B9B01AC01C301B2010E94BD1F28
:100D50004B015C0120E030E0A9010E94652020E009
:100D600030E040E05FE387FD32C5C501B4010E9479
:100D7000511F0E942F20623071050CF437C5072ED9
:100D8000000C880B990B0E94C72529893A894B8949
:100D90005C890E9426269B01AC01C301B2010E941E
:100DA000BD1F9B01AC0160E070E080E89FE30E9402
:100DB000501F4B015C0120E030E0A9010E9465203A
:100DC00018160CF009C529E23CE54FE85DE3C501C2
:100DD000B4010E94C02518160CF408C5F801E55F9F
:100DE000FE4F808181508083FF24F394FD0C992471
:100DF00093940091D5021091D602F801E65FFE4F60
:100E00009081F91608F081C08091DE0281112CC01A
:100E1000F801EF0DF11D848590E04091D702042E7A
:100E2000000C550BA091D9022091D802A090DA02B3
:100E30008417950709F4B0C4622F022E000C770BBB
:100E40008617970709F4A8C46A2F0A2E000C770B9F
:100E50008617970709F4A0C46A2D0A2C000C770B9B
:100E60008617970709F498C48091DF02882309F454
:100E70004AC08091DE02882309F445C0AF2CB12C12
:100E8000F801EA0DFB1D848590E02091D902022E25
:100E9000000C330B8217930709F41EC42091DA0269
:100EA000022E000C330B8217930709F415C420910E
:100EB000D702022E000C330B8217930709F45EC48D
:100EC0002091D802022E000C330B8217930709F4ED
:100ED00055C48091DD02082E000C990B2091CF02A1
:100EE0003091D0022817390708F04FC01092DE0267
:100EF0001092DF028CE992E00E94520F912C8091B7
:100F0000DE028111ECC3F39474CFD801A45FBE4F0D
:100F100081E098268F2D89198C93AEEFFA124BC081
:100F20009E3F09F048C0D801A55FBE4F6C91662373
:100F3000F1F08091DD0287FD8F5F8595082E000C12
:100F4000990B2091CF023091D0028217930778F449
:100F5000C8010E94BF0F8091D5029091D602FC017A
:100F6000E25FFE4F21E02083F2962083BBC28C918A
:100F7000811121C0D801A05CBE4F81E08C9310820A
:100F8000F801E25FFE4F8083ADC2F801E45FFE4FDF
:100F9000EE24E3949E248F2D891980836F2DC80140
:100FA0000E94BF0FE091D502F091D602E25FFE4FA2
:100FB000E0821092DE028091DD02082E000C990B77
:100FC0002091CF023091D0022817390708F48AC245
:100FD00066E872E0CE0109960E94B81363E272E0FF
:100FE000CE0109960E94921380E390E3A0E08983EA
:100FF0009A83AB836091CF027091D002769567950A
:10100000769567956E5F7F4FCE0109960E94951287
:10101000D12C8E010F5F1F4F61E3A62E62E0B62E2A
:10102000ED2CF12C8091CE0290E02091D402E816B4
:10103000F906ECF4D21628F4F701E456FD4F80814E
:1010400001C08FEF1F928F93BF92AF921F930F93A8
:101050000E948121B801CE0109960E945813D394B1
:101060000F900F900F900F900F900F90D9CFD21636
:1010700028F4F701E456FD4F808101C08FEF82957F
:101080008F701F928F9386E392E09F938F931F93AD
:101090000F930E948121B801CE0109960E94581336
:1010A0008091CF029091D0028770992701970F907D
:1010B0000F900F900F900F900F90049700F1809178
:1010C000D402D81628F4F701E456FD4F808101C000
:1010D0008FEF8F701F928F9386E392E09F938F9391
:1010E0001F930F930E948121B801CE0109960E949F
:1010F00058130F900F900F900F900F900F906BE37D
:1011000072E088EC94E00E9458136BE388EC94E062
:101110000E94451360E270E088EC94E00E94951212
:1011200088EC94E0009709F472C06EE372E00E94CC
:1011300058138091D5029091D602E091D702EE0F1C
:10114000FF0BE80FF91FEF5DFE4F6081718188ECA6
:1011500094E00E94EA126BE388EC94E00E9445134D
:1011600062E472E088EC94E00E9458138091D5020A
:101170009091D602E091D802EE0FFF0BE80FF91F15
:10118000EF5DFE4F6081718188EC94E00E94EA126D
:101190006BE388EC94E00E94451366E472E088EC0F
:1011A00094E00E9458138091D5029091D602E0916C
:1011B000D902EE0FFF0BE80FF91FEF5DFE4F6081C4
:1011C000718188EC94E00E94EA126BE388EC94E071
:1011D0000E9445136AE472E088EC94E00E94581380
:1011E0008091D5029091D602E091DA02EE0FFF0BCA
:1011F000E80FF91FEF5DFE4F6081718188EC94E08C
:101200000E94EA126BE388EC94E00E9445136BE3C2
:101210008EEC94E00E94451367E070E08EEC94E061
:101220000E9495128EEC94E0009789F06EE472E0D3
:101230000E9458136091DB027091DC028EEC94E006
:101240000E94EA126BE38EEC94E00E9445136FE378
:1012500072E08EEC94E00E9458134AE0B80180914D
:10126000CF029091D0020E949625F80101900020B3
:10127000E9F73197AF01401B510BB8018EEC94E0B8
:101280000E94BC126BE38EEC94E00E9445136EE268
:1012900072E08EEC94E00E9458136091D5048EECBD
:1012A00094E00E941A136BE38EEC94E00E944513C5
:1012B00063E08EEC94E00E9445136AE08EEC94E0CB
:1012C0000E94451388EC94E00E944212CE010996D8
:1012D0000E9442128EEC94E00E9442121092D404BA
:1012E00081E08093A104CE0109960E94B31305C149
:1012F0006091D9026F3F09F4CACC2091D8022F3FE8
:1013000009F4C5CC3091DA023F3F09F4C0CC80919A
:10131000D5029091D602FC01E65FFE4FE080F12CF1
:10132000A7014150510958A34F8F4091DD02A42FCE
:10133000440FBB0BB8A7AFA3D090DE02C090DF0272
:10134000DC011C9640E050E0E72F770FFF0BFBA776
:10135000EAA7462E660F55085DA64CA6632F330FED
:10136000770B7FA76EA7FC01E55FFE4F622E220F71
:1013700077084E155F050CF0A1C15D9061E070E04B
:10138000552011F060E070E02AA53BA562177307B5
:1013900009F07BC1252D30E04CA45DA42415350552
:1013A00009F477C16EA57FA52617370709F471C127
:1013B00060819A01261B31094FA058A4421653069A
:1013C0000CF077C1D092DE02C092DF02FC01E45F34
:1013D000FE4F40830E94620F2091D5023091D602C9
:1013E000D090DA02E090D802F090D902C090D702F3
:1013F000F901ED0DF11DD7FCFA954481F901EE0DCF
:10140000F11DE7FCFA95848190E0840F911DF901AC
:10141000EF0DF11DF7FCFA954481841B9109F90148
:10142000EC0DF11DC7FCFA9544811092DE02841B7D
:10143000910997FF03C0919581959109AC01990F8E
:10144000660B770B4F8F58A369A37AA3F901E65F68
:10145000FE4F608170E080E090E00E94C7252AE0A6
:1014600037ED43E25DE30E9426262B013C0120E09C
:1014700030E0A9010E94652020E030E040E05FE319
:1014800087FD0DC1C301B2010E94511F0E942F2090
:101490002F8D38A149A15AA16217730784079507B8
:1014A0000CF4F5CB1013F3CBCE1409F40CC1FD14DE
:1014B00009F409C1CF1409F406C1ED1409F403C1FC
:1014C000CD1409F400C1EF1409F4FDC0C10166E0B8
:1014D00070E00E94EE1E7093DC026093DB024D8888
:1014E0004110B3CA8091D404882339F08091A204BA
:1014F000882319F081E08093A104809195038823CB
:1015000009F4BAC08091A7049091A804019709F04A
:10151000B3C08091A1048111AFC080919E04883234
:1015200008F4AAC061E572E088EC94E00E945813C8
:101530006BE388EC94E00E94451310E08091C504B1
:10154000181790F5212F30E0C901880F991FFC0171
:10155000EB54FB4F7F0180819181892B19F1F901B7
:10156000EC56FC4F84818823E9F064E572E088EC56
:1015700094E00E945813612F88EC94E00E941A13A3
:101580006FE472E088EC94E00E945813D7016D91EB
:101590007C9188EC94E00E94EA126BE388EC94E082
:1015A0000E9445131F5FCACF63E272E088EC94E0AB
:1015B0000E9458136BE38EEC94E00E94451366E2A0
:1015C00072E08EEC94E00E94581360919403062E12
:1015D000000C770B8EEC94E00E94EA126BE38EEC29
:1015E00094E00E9445136EE272E08EEC94E00E945B
:1015F00058136091D5048EEC94E00E941A136BE3AB
:101600008EEC94E00E9445138091A304882359F046
:1016100064E271E08EEC94E00E9458136BE38EEC70
:1016200094E00E94451363E08EEC94E00E94451321
:101630006AE08EEC94E00E94451300919E040150F4
:1016400088EC94E00E94421210E0E12FF0E0EC56AA
:10165000FC4F648570E080E090E04AE00E948B11CE
:101660001F5F011790F78EEC94E00E9442121092D7
:10167000A20481E08093A1048091A2048111CBC0D7
:1016800084E993E00E94800FC6C06615770509F4CF
:1016900081CE4F8C58A04415550531F489CEC30135
:1016A000B2010E94501FF2CED11005C04083DD88E8
:1016B00002C0C12CD12C4F5F5F4F5BCED092DE02B7
:1016C000C092DF02E4CA012FE2CA1E141F040CF00C
:1016D00060C07092D802D3CAE92C9C2410CCEE20B2
:1016E00009F411CC8091D5029091D602FC01EA0D4B
:1016F000FB1D2485820F911D820F911DFC01EF5D62
:10170000FE4F40815181E091CE028091D402E817D2
:1017100098F58091D3022091CF023091D00287308A
:1017200051F42115310539F0EF5FE093CE02F0E07E
:10173000E456FD4F1082E091CE02F0E0E456FD4FFA
:1017400061E070E01416150614F060E070E0082EF9
:1017500001C0660F0A94EAF79081692B60832F5FBE
:101760003F4F3093D0022093CF029091D102891B3A
:1017700087FD87E08093D302E12CC5CBEE24E39470
:1017800099249394BCCB7092D9021F5F2E183F0806
:1017900079CA7092D702F9CFF801E55FFE4FF08267
:1017A000C092DE02C092DF0231977080022E000CE0
:1017B000330B0A2E000CBB0B0A2C000CBB08DF2CD1
:1017C000212C312C6DCA82179307D1F475CAC5013B
:1017D000B4010E94501FCDCA29E23CE54FE85DEB01
:1017E000C501B4010E94652087FFF8CA51E0252297
:1017F0003324C10161E08627782F7170972E34CB96
:101800008A179B0721F08A159B0509F02DCB812CA7
:1018100061E070E054CAAF960FB6F894DEBF0FBE19
:10182000CDBFDF91CF911F910F91FF90EF90DF908F
:10183000CF90BF90AF909F908F907F906F905F9070
:101840004F903F902F900895FC01918D828D9817B5
:1018500061F0828DDF01A80FB11D5D968C91928D94
:101860009F5F9F73928F90E008958FEF9FEF089591
:10187000FC01918D828D981731F0828DE80FF11D5A
:10188000858D90E008958FEF9FEF0895FC01918D75
:10189000228D892F90E0805C9F4F821B91098F736E
:1018A000992708958DEE92E00E94460C21E0892B45
:1018B00009F420E0822F0895FC01848DDF01A80F38
:1018C000B11DA35ABF4F2C91848D90E001968F7368
:1018D0009927848FA689B7892C93A089B1898C9187
:1018E00080648C93938D848D981306C00288F3894D
:1018F000E02D80818F7D80830895EF92FF920F937A
:101900001F93CF93DF93EC0181E0888F9B8D8C8DAB
:10191000981305C0E889F989808185FD24C0F62ED9
:101920000B8D10E00F5F1F4F0F731127E02E8C8D72
:10193000E8120CC00FB607FCFACFE889F98980815C
:1019400085FFF5CFCE010E945C0CF1CF8B8DFE019F
:10195000E80FF11DE35AFF4FF0820B8FEA89FB89F4
:101960008081806207C0EE89FF896083E889F989F8
:1019700080818064808381E090E0DF91CF911F912E
:101980000F91FF90EF900895CF93DF93EC01888D36
:101990008823C9F0EA89FB89808185FD05C0A88973
:1019A000B9898C9186FD0FC00FB607FCF5CF8081F9
:1019B00085FFF2CFA889B9898C9185FFEDCFCE0143
:1019C0000E945C0CE7CFDF91CF91089508950895B0
:1019D000FC01099480E00895CF93C1E08DEE92E080
:1019E0000E94460C892BB9F08DEE92E00E94240CE7
:1019F0008A3041F01CF4882329F007C08D3011F0A3
:101A0000833219F4C0939002E9CF682F8EE893E0F7
:101A10000E944513E3CFCF9108950E94520C81118B
:101A20000C94EC0C08951F920F920FB60F92112494
:101A30002F933F934F935F936F937F938F939F93D6
:101A4000AF93BF93EF93FF938DEE92E00E945C0CF7
:101A5000FF91EF91BF91AF919F918F917F916F9186
:101A60005F914F913F912F910F900FBE0F901F905C
:101A700018951F920F920FB60F9211242F938F93E8
:101A80009F93EF93FF93E091FD02F091FE0280811E
:101A9000E0910303F091040382FD12C090818091D4
:101AA00006038F5F8F7320910703821751F0E09137
:101AB0000603F0E0E351FD4F958F8093060301C0CC
:101AC0008081FF91EF919F918F912F910F900FBE89
:101AD0000F901F9018953FB7F8948091E90290916C
:101AE000EA02A091EB02B091EC0226B5A89B05C0DA
:101AF0002F3F19F00196A11DB11D3FBFBA2FA92F8D
:101B0000982F8827820F911DA11DB11DBC01CD0109
:101B100042E0660F771F881F991F4A95D1F70895F5
:101B20008F929F92AF92BF92CF92DF92EF92FF92ED
:101B30006B017C010E946B0D4B015C01C114D1044F
:101B4000E104F104F1F00E946B0DDC01CB01881976
:101B50009909AA09BB09883E9340A105B10570F314
:101B600021E0C21AD108E108F10888EE880E83E06E
:101B7000981EA11CB11CC114D104E104F10419F791
:101B8000DDCFFF90EF90DF90CF90BF90AF909F9010
:101B90008F900895CF92DF92EF92FF920F931F9351
:101BA0000E946B0D00918A0310918B0320918C038E
:101BB00030918D036B017C01C01AD10AE20AF30A4D
:101BC0009701860160938A0370938B0380938C0343
:101BD00090938D030A3511052105310578F181E0D7
:101BE000C8168DE7D806E104F10410F4960102C08E
:101BF00021E03DE74A9B03C0319521953109809151
:101C0000DD048233D8F48091DD048F5F8093DD049E
:101C10008091DE046091DC040E94CE1E9093DE046D
:101C2000E091DE04F0E0EE0FFF1FE052FB4F318346
:101C300020838091DE048F5F8093DE041F910F91DB
:101C4000FF90EF90DF90CF9008950F931F930E9425
:101C50006B0D00918A0310918B0320918C033091BE
:101C60008D03DC01CB01801B910BA20BB30B8230E7
:101C70009D47A105B10580F14A9903C02FEF32E8D5
:101C800002C021E03DE78091DD048233D8F48091E9
:101C9000DD048F5F8093DD048091DE046091DC04BD
:101CA0000E94CE1E9093DE04E091DE04F0E0EE0F81
:101CB000FF1FE052FB4F318320838091DE048F5F52
:101CC0008093DE040E946B0D60938A0370938B03F4
:101CD00080938C0390938D0320918F02EEEEF1E0C0
:101CE0009491EAEDF1E08491E6ECF1E0E491EE23E9
:101CF00009F43BC0992339F1933091F038F49130D5
:101D0000A9F0923001F594B59F7D12C0973091F003
:101D10009830A1F09430B9F4909180009F7D03C079
:101D2000909180009F77909380000DC094B59F772D
:101D300094BD09C09091B0009F7703C09091B0000E
:101D40009F7D9093B000F0E0EE0FFF1FED54FE4F2B
:101D5000A591B4919FB7F894EC91211103C080959F
:101D60008E2301C08E2B8C939FBF10928F021F91E8
:101D70000F9108951F920F920FB60F9211242F9377
:101D80003F938F939F93AF93BF9380918A029091DB
:101D90008B02A0918C02B0918D023091E80223E079
:101DA000230F2D3720F40196A11DB11D05C026E893
:101DB000230F0296A11DB11D2093E80280938A0291
:101DC00090938B02A0938C02B0938D028091E902D4
:101DD0009091EA02A091EB02B091EC020196A11D54
:101DE000B11D8093E9029093EA02A093EB02B093B5
:101DF000EC02BF91AF919F918F913F912F910F90E6
:101E00000FBE0F901F9018951F920F920FB60F9252
:101E100011242F933F934F935F936F937F938F93EF
:101E20009F93AF93BF93EF93FF93E0910201F091E3
:101E300003010995FF91EF91BF91AF919F918F9110
:101E40007F916F915F914F913F912F910F900FBEB6
:101E50000F901F9018951F920F920FB60F9211249A
:101E60002F933F934F935F936F937F938F939F93A2
:101E7000AF93BF93EF93FF93E0910001F0910101C5
:101E80000995FF91EF91BF91AF919F918F917F91B4
:101E90006F915F914F913F912F910F900FBE0F90D7
:101EA0001F901895FC0180AD2E2FDF019A2F921BF9
:101EB000981710F41D92FACF12AA14AA13AA87E059
:101EC00087AB0895FC0134969C01245F3F4F11922B
:101ED000E217F307E1F7411104C0FC01E65FFE4F92
:101EE0004081641760F4FC01E60FF11D2485FC01BC
:101EF000E20FF11D24812F5F24836F5FF2CF0895DD
:101F0000CF93DF93FC01E65FFE4F1082DC01AF5CF4
:101F1000BE4F1C92B8961082B097108231961182F3
:101F20001082B0962FEF2083FC012083EF5DFE4FDF
:101F3000EC012496119211921992EA17FB07D1F73E
:101F4000FC01E35FFE4F1082339626E930E03183D7
:101F500020833D964DEC5CEC6CE47EE34083518342
:101F60006283738372971082339610823196108247
:101F7000F1961082F4971082DF91CF910895FC01C1
:101F8000E65FFE4F4081A42FB0E0262F30E02A17F5
:101F90003B077CF4662369F06F3F59F0461B408392
:101FA00050E0B901645F7F4F680F791F0C960C9465
:101FB0004E2108951F920F920FB60F9211242F9366
:101FC0003F934F935F936F937F938F939F93AF93C1
:101FD000BF93EF93FF93E0918802F09189020995F6
:101FE000FF91EF91BF91AF919F918F917F916F91F1
:101FF0005F914F913F912F910F900FBE0F901F90C7
:1020000018950C94EF260C94E726CF93C82F8031B7
:1020100020F488E991E00E94CC116C2F70E080E000
:1020200090E040E1CF910C948B11CF93DF93C2E00D
:10203000D0E0FE01E857FE4F6491CE010E940110EE
:102040002196CB32D105A9F7C0E3D0E0C13321F40A
:1020500064E881E390E002C060E0CE010E940110DC
:102060002196C833D10591F786E592E0DF91CF91B3
:102070000C94CE118EBD0DB407FEFDCF8EB5089524
:10208000CF93DF932A981C99FECF8EE70E943A10D7
:10209000C0E3D0E0CE010E9403100E943A102196C6
:1020A000C833D105B9F72A9ADF91CF910895CF931C
:1020B000DF931F92CDB7DEB72A981C99FECF6983B4
:1020C0000E943A106981862F0E943A102A9A0F9036
:1020D000DF91CF9108952A981C99FECF862B0E94FC
:1020E0003A1080E00E943A102A9A089560EC84E346
:1020F0000C946B102A981C99FECF0E943A101C99E0
:10210000FECF2A9A089586E30E947A1061E070E07B
:1021100080E090E00C94900DE89886EE9CE090931F
:1021200001018093000180918E0281110C94831033
:102130000895CF93DF930E948310CEEFCF3FC1F07D
:1021400084E30E947A10DFEFDC0F8077803141F06A
:1021500061E070E080E090E00E94900DCD2FEECF26
:10216000C11106C08AE692E0DF91CF910C94CE11A6
:10217000DF91CF9108958AEC9DE0909301018093C7
:102180000001809169008C7F816080936900E89AEA
:1021900080918E0281110C9499100895CF93DF9352
:1021A0002A9A83E790E0FC013197F1F72A9801978A
:1021B000F1F72A9A8FEA90E00197F1F780E30E9405
:1021C0007A106AE070E080E090E00E94900D2A981A
:1021D00080E40E943A10C2E0D0E0CE010E940310D9
:1021E0000E943A102196CB32D105B9F72A9A83E2A0
:1021F00090E00197F1F70E94401061E070E080E00C
:1022000090E00E94900DDF91CF910C949910CF93A4
:10221000C82F803120F488E991E00E94CC116C2F06
:1022200070E080E090E040E1CF910C948B1190ED54
:10223000980F9A3070F09FE9980F963010F499EA51
:1022400005C09FEB980F963018F499EC980F01C0D9
:10225000982F892F08951F93CF93DF93C82FD0E035
:10226000BE018EE893E00E9484120E941711182F7D
:102270001295107FBE016F5F7F4F8EE893E00E9442
:1022800084120E941711810FDF91CF911F91089541
:10229000009769F0FC0101900020E9F73197AF0148
:1022A000481B590BBC018DEE92E00C944C1280E05F
:1022B00090E0089584E892E00C9448110F931F93E6
:1022C000CF93DF938C01C0E0D0E0F801EC0FFD1F4D
:1022D0006491662371F0E091ED02F091EE020190BD
:1022E000F081E02D8DEE92E00995892B11F0219679
:1022F000ECCFCE01DF91CF911F910F910895CF9335
:10230000DF930E945E11EC010E945A118C0F9D1FF9
:10231000DF91CF9108958F929F92AF92BF920F93CA
:102320001F93CF93DF93CDB7DEB7A1970FB6F89485
:10233000DEBF0FBECDBF19A2423008F44AE08E01C5
:102340000F5D1F4F842E912CA12CB12CA50194015F
:102350000E94021FE62FB901CA0101501109EA309B
:1023600014F4E05D01C0E95CD801EC93232B242B2D
:10237000252B61F7C8010E944811A1960FB6F89469
:10238000DEBF0FBECDBFDF91CF911F910F91BF90E8
:10239000AF909F908F9008950C944811CF93DF9346
:1023A0000E944811EC010E945A118C0F9D1FDF9171
:1023B000CF910895E091ED02F091EE020190F0814D
:1023C000E02D682F8DEE92E00994CF92DF92EF928C
:1023D000FF92CF93DF936C01990FEE08FF08F7FE91
:1023E00012C08DE20E94DA11EC0166277727CB013B
:1023F0006C197D098E099F094AE00E948B117C01AE
:10240000EC0EFD1E06C04AE0C701B6010E948B110A
:102410007C010E945A118E0D9F1DDF91CF91FF907C
:10242000EF90DF90CF900895CF92DF92EF92FF92DE
:10243000CF93DF936C01990FEE08FF08F7FE17C0EA
:102440008DE20E94DA11EC0166277727CB016C1927
:102450007D098E099F094AE00E948B118C0F9D1FF8
:10246000DF91CF91FF90EF90DF90CF9008954AE0F9
:10247000C701B601DF91CF91FF90EF90DF90CF9031
:102480000C948B11FC0144815581608171818DEE2A
:1024900092E00C944C120895CF92DF92EF92FF924B
:1024A0000F931F93CF93DF936C017A018B01C0E0F0
:1024B000D0E0CE15DF0589F0D8016D918D01D601F0
:1024C000ED91FC910190F081E02DC6010995892BD9
:1024D00011F47E0102C02196ECCFC701DF91CF91AC
:1024E0001F910F91FF90EF90DF90CF9008950E9481
:1024F0003421FC0180819181009711F00C944F25CB
:1025000060E070E0CB010895FC0124813581621701
:10251000730748F480819181009729F0FC01E60F50
:10252000F71F8081089580E008950F931F93CF9344
:10253000DF93EC0188819981009729F02A813B8102
:102540002617370788F48B016F5F7F4F0E946A2040
:10255000009761F0998388831B830A832C813D81D6
:10256000232B11F4FC01108281E001C080E0DF9197
:10257000CF911F910F910895EF92FF920F931F93A8
:10258000CF93DF93FC01248135816115710511F42E
:1025900080E019C041155105A9F07B01EC018A01C9
:1025A000020F131FB8010E949512882389F3288116
:1025B00039818C819D81B701820F931F0E94602118
:1025C0001D830C8381E0DF91CF911F910F91FF90CC
:1025D000EF900895EF92FF920F931F93CF93DF93A5
:1025E000CDB7DEB728970FB6F894DEBF0FBECDBFCC
:1025F0007C01CB014AE08E010F5F1F4FB8010E94A2
:102600007625F80101900020E9F73197AF01401BD2
:10261000510BB801C7010E94BC1228960FB6F8945E
:10262000DEBF0FBECDBFDF91CF911F910F91FF9005
:10263000EF900895EF92FF920F931F93CF93DF9344
:1026400000D000D0CDB7DEB77C01862F4AE08E01E6
:102650000F5F1F4FB80190E00E947625F8010190AE
:102660000020E9F73197AF01401B510BB801C701BA
:102670000E94BC120F900F900F900F90DF91CF919E
:102680001F910F91FF90EF900895CF93DF9300D0AB
:10269000CDB7DEB769831A8241E050E0BE016F5FBB
:1026A0007F4F0E94BC120F900F90DF91CF91089541
:1026B0006115710551F0FB0101900020E9F7319798
:1026C000AF01461B570B0C94BC1280E00895EF92AB
:1026D000FF920F931F93CF93DF93EC017B018A014D
:1026E000BA010E9495122881398181110DC02115EE
:1026F000310519F0C9010E94B724198218821D8280
:102700001C821B821A8206C01D830C83B701C9017B
:102710000E946021CE01DF91CF911F910F91FF9018
:10272000EF900895CF93DF93EC016115710559F097
:10273000FB0101900020E9F73197AF01461B570BD1
:102740000E9467130CC088819981009711F00E9444
:10275000B724198218821D821C821B821A82CE0124
:10276000DF91CF910895FC01808191810C94B72471
:10277000FC0111821082138212821582148261156B
:10278000710551F0FB0101900020E9F73197AF018D
:10279000461B570B0C9467130895BF92CF92DF929C
:1027A000EF92FF920F931F93CF93DF937C016B0106
:1027B0008A01E9012417350720F4812F8901C42FEC
:1027C000D82F66E872E0C7010E94B813D6011496AC
:1027D0008D919C91159708171907D0F48C179D07B8
:1027E00008F4EC01D601ED91FC911197EC0FFD1F5F
:1027F000B08010824D915C91BA01600F711FC701CA
:102800000E949213D601ED91FC91EC0FFD1FB08256
:10281000C701DF91CF911F910F91FF90EF90DF9053
:10282000CF90BF900895CF93DF93CDB7DEB7C05858
:10283000D1090FB6F894DEBF0FBECDBF789484B532
:10284000826084BD84B5816084BD85B5826085BDAC
:1028500085B5816085BD80916E00816080936E003A
:10286000109281008091810082608093810080912C
:1028700081008160809381008091800081608093DD
:1028800080008091B10084608093B1008091B0009D
:1028900081608093B00080917A00846080937A0098
:1028A00080917A00826080937A0080917A008160C2
:1028B00080937A0080917A00806880937A001092E9
:1028C000C100E091FD02F091FE0282E08083E09180
:1028D000FD02F091FE021082E091F902F091FA02FD
:1028E0001082E091FB02F091FC0280E18083109263
:1028F0000503E0910103F091020386E08083E091FB
:10290000FF02F0910003808180618083E091FF02EB
:10291000F0910003808188608083E091FF02F09154
:102920000003808180688083E091FF02F0910003C2
:1029300080818F7D80838AE191E00E94CE11529840
:10294000219A259A239A2498229A80E58CBD53983F
:102950002A9A2D9A2B9880E090E00E9403108333EE
:1029600039F481E090E00E9403108D3109F4D3C066
:1029700067E08FEF90E00E94011082EE91E00E94EC
:10298000CE1163E380E090E00E9401106DE181E0F0
:1029900090E00E9401100E9415108FEF90E00E94BD
:1029A0000310982F91709093970381FB992790F9CA
:1029B0009093950382FB882780F9809396030E9469
:1029C000CE1060E880EF0E946B10082F60E881EF66
:1029D0000E946B10182F86E291E00E94CC11612FAB
:1029E00070E080E090E04AE00E948B110E945A1152
:1029F00081E391E00E94CC11602F70E080E090E0D4
:102A00004AE00E948B110E945A1111501E3F40F063
:102A100088E690E00E947F110E945A1180E001C078
:102A200081E080938E028823C9F08CE391E00E94BC
:102A3000CE111E821D8288EE9CE09C838B838B814D
:102A40009C81AD81BE818093D8049093D904A093DA
:102A5000DA04B093DB0486E790E114C01E821D8285
:102A600088EE9CE09C838B838B819C81AD81BE81B1
:102A70008093D8049093D904A093DA04B093DB0434
:102A80008AEE9CE09093D7048093D604539A89E40D
:102A900091E00E94CE1162E370E080E090E00E943D
:102AA000900D80E1809381001092800082E08093FD
:102AB000930288E199E79093920280939102909318
:102AC00087008093860082E18093810085E29EE00A
:102AD000909389028093880281E080936F0068E27E
:102AE00070E08EE893E00E94951280918E02811131
:102AF00005C00E94BB108EEB90E014C060E888E037
:102B00000E946B10823361F460E880E00E946B10D9
:102B10008D3031F4EECF86E092E00E94CE113DCFB1
:102B200089E790E00E947F118E010F5F1F4F1E0109
:102B300027E6220E311C8DE08219ED968FAFED97BE
:102B400080919002882309F4EEC21092900260E016
:102B500070E08EE893E00E948412803549F48BE5A2
:102B600091E00E94CE118BEC97E00197F1F7CEC275
:102B70008F3309F054C00E94DA118DE791E00E9472
:102B80005E1186E50E94DA1180E20E94DA1182E588
:102B90000E94DA1180E20E94DA1184E70E94DA11C1
:102BA00080E20E94DA1188E50E94DA1180E20E9438
:102BB000DA1186E40E94DA1180E20E94DA1183E5DC
:102BC0000E94DA1180E20E94DA1180E50E94DA1197
:102BD00080E20E94DA1183E40E94DA1180E20E940E
:102BE000DA1182E70E94DA1180E20E94DA1187E5A9
:102BF0000E94DA1180E20E94DA1180918E0288230D
:102C000009F44EC288E70E94DA1180E20E94DA11CC
:102C100085E60E94DA1180E20E94DA1141C286350F
:102C200079F48EE591E00E94CC1180918E02882388
:102C300021F085E791E00E945E1187E791E032C2C2
:102C4000823569F48091440590914505009711F40F
:102C500088E495E0A801481B590BCA019DC1833542
:102C600009F01FC166E872E0CE018F599F4F0E94A4
:102C7000B8136EE170E0CE018F599F4F0E949512FC
:102C80000E948C10C12CD12CFF24FA94812C51E08D
:102C9000E4965FAFE49781E0E5968FAFE597A2E118
:102CA000EA2E992493946CEA71E0CE01855A9F4FE5
:102CB0000E94B8138091920390919303C816D9068D
:102CC00098F460908E0370908F036D966EAD7FAD1B
:102CD0006D97C3018C0D9D1D0E946721009721F007
:102CE0005C01A618B70803C0AA24AA94BA2CCE0186
:102CF000855A9F4F0E94B3132FEFA216B20609F414
:102D000016C43FEFC316D30609F411C49501A601FA
:102D10006EE873E0CE01855A9F4F0E94CD13A396B3
:102D20008EAD9FADA3970097F9F06D966EAD7FAD18
:102D30006D9761157105B1F0A5964EAD5FADA59784
:102D4000A1962EAD3FADA1974217530758F00E94B0
:102D50006021A1968EAD9FADA197A7969FAF8EAF34
:102D6000A79722C00E94B7246D968EAD9FAD6D9738
:102D7000A3969FAF8EAFA3976F968EAD9FAD6F97C3
:102D8000A5969FAF8EAFA597A1968EAD9FADA1974B
:102D9000A7969FAF8EAFA7976D961FAE1EAE6D978D
:102DA0006F961FAE1EAE6F97A1961FAE1EAEA19777
:102DB000CE01855A9F4F0E94B31365014FEFC41A8D
:102DC000D40A60E070E0CE018F599F4F0E948412B8
:102DD000833501F561E070E0CE018F599F4F0E946D
:102DE0008412833409F459C08D3441F4F394F8010A
:102DF000EF9CE00DF11D1124928255CF823509F030
:102E000052CFF394F801EF9CE00DF11D112482E004
:102E1000828343C0803509F0C7C262E070E0CE0112
:102E20008F599F4F0E9484128D3309F03CCF22E0CE
:102E300030E041E050E0BE016F597F4FCE01855A2E
:102E40009F4F0E94CD13CE01855A9F4F0E94791249
:102E5000B62ECE01855A9F4F0E94B313A7962EAD72
:102E60003FADA79743E050E0BE016F597F4FCE01C1
:102E7000855A9F4F0E94CD13CE01855A9F4F0E94C5
:102E80007912B9E0BF9DF0011124EB0DF11D3396CD
:102E9000EE0FFF1FE00FF11FF2C2E4961FAEE497A2
:102EA00002CF8437D1F58FB7F894C0908A02D090C2
:102EB0008B02E0908C02F0908D028FBFC701B601AB
:102EC00028EE33E040E050E00E94021FCA01B90141
:102ED0008090960290909702A0909802B0909902EC
:102EE000C814D904EA04FB0450F4209194023091F0
:102EF00095022F5F3F4F3093950220939402C0922A
:102F00009602D0929702E0929802F09299024AE0DB
:102F10000E948B110E945A11F9C08835B1F461E00A
:102F200070E08EE893E00E948412813511F40E94D3
:102F30008C1061E070E08EE893E00E94841285348A
:102F400009F0E4C00E94BB10E1C0863409F4DEC081
:102F5000833451F561E070E08EE893E00E948412C2
:102F6000282F8734E1F489ED90E00E945E11809172
:102F7000970390E00E94141284ED90E00E945E118D
:102F80008091950390E00E9414128FEC90E00E94D3
:102F90005E118091960390E00E94E511B7C08CEB22
:102FA000820F8230E8F45BC4873509F07EC061E0AF
:102FB00070E08EE893E00E948412F82EB3E57B2E39
:102FC0008711D8C462E070E08EE893E00E9484121A
:102FD000833309F0CFC480918E02811122C5CAC407
:102FE000822F220F990B0E943921892B09F453C497
:102FF00062E070E08EE893E00E948412082E000CDC
:10300000990B0E943921892B09F445C480918E02C5
:10301000882309F440C481E00E942B11F82E63E05C
:1030200070E08EE893E00E9484128E3679F464E0BA
:1030300070E08EE893E00E948412E82E082E000CC7
:10304000990B0E943921892B09F028C4FDE3FF1553
:1030500008F04DC4FEE3FF1260C487EE90E00E94CA
:103060005E112A981C99FECF8EEF0E943A107801CB
:10307000680138E0B32EB00E80E00E943A10D6010D
:103080008D936D01BA12F8CF2A9AF70181917F01D1
:103090000E9407118AEA91E00E94CC11BE10F5CF80
:1030A00086E892E00E94CE1131C0823709F017C540
:1030B00061E070E08EE893E00E948412082E000C1C
:1030C000990B0E943921892B09F494C562E070E0C4
:1030D0008EE893E00E948412082E000C990B0E9447
:1030E0003921892B09F044C585C586E892E00E9404
:1030F000CE110E94BB108EE893E00E9442120E9403
:103100005A11CE018F599F4F0E94B31380919002A4
:10311000811106C066E872E08EE893E00E94921387
:1031200081E080938F0299249394E3E0AE2EB12C3A
:103130008091DD04882309F434C18091DD0481503D
:103140008093DD048091DF046091DC040E94CE1E38
:103150009093DF04E091DF0481E08E0F8093DF0421
:10316000F0E0EE0FFF1FE052FB4F808191819093C2
:103170009B0280939A021092A104E0919E04EE2398
:1031800069F0F0E0EC56FC4F838590E0880F991FC2
:103190008B549B4F9093B0048093AF0420919A027C
:1031A00030919B02E091AD04F091AE043183208315
:1031B00080919E04882369F0E091AF04F091B004FF
:1031C0004081518142275327452F441F4427441FE4
:1031D00001C041E051E0211533480CF450E091E08A
:1031E0008E3F09F490E0952311F0411111C091E058
:1031F0008E3F09F090E09093A3040E9429018091F2
:10320000A10481112BC084E993E00E94800F26C0A5
:10321000883221F5B092A804A092A7042091D60488
:103220003091D704E091D804F091D9044091DA04A8
:103230005091DB04CA019595879540FF0AC0D901DA
:10324000A80FB91F4D915C91E40FF51F0190F0811B
:10325000E02D820F931F09958093D504C090AD0493
:10326000D090AE04D601ED90FC90B701F7FE04C0FB
:10327000662777276E197F09072E000C880B990B9C
:103280000E94C7252DEC3CEC4CE45EE30E94262610
:103290000E9436209B017093A5046093A404609162
:1032A000C504E5EBF4E0812C8616C1F08191919183
:1032B000AC014E255F2557FD0FC0009769F027012F
:1032C000481A590AC20157FE03C091958195910988
:1032D000281739070CF093C48394E6CF683051F572
:1032E00040E060E084E993E00E94620FE091C50451
:1032F000F0E0EC56FC4F8481833010F00E942901ED
:1033000060919E0470E0615071098091C6041616A8
:10331000170684F4FB01EC56FC4F9485981307C004
:103320006F5F7F4F84E993E00E94BF0F03C061503D
:103330007109EDCF8090C604E091AD04F091AE0428
:1033400080819181E82DF0E0EE0FFF1FEB54FB4FE1
:103350009183808381E0880D883019F08093C604C2
:1033600006C01092C6048093C5041092D4048091C4
:10337000C6049091C504981710F48093C5048091F9
:103380009E04E82FF0E0EC56FC4F84868F5F80931C
:103390009E048091A104882309F4CACE90928F02E2
:1033A000C7CE0E940D0DCCCB823509F561E070E0EF
:1033B000CE018F599F4F0E9484128D3309F073CC38
:1033C000A7962EAD3FADA79742E050E0BE016F59E2
:1033D0007F4FCE01855A9F4F0E94CD13CE01855A53
:1033E0009F4F0E947912E5966FAFE5974AC08434EB
:1033F00099F4F801EF9CE00DF11D1124A6968FAD14
:10340000A697992D981B892F8C0D8383A1E0AA1A6A
:10341000B108B582A48247CC833419F561E070E02D
:10342000CE018F599F4F0E9484128D3309F03BCCFF
:10343000A7962EAD3FADA79742E050E0BE016F5971
:103440007F4FCE01855A9F4F0E94CD13CE01855AE2
:103450009F4F0E947912F801EF9CE00DF11D11249D
:103460000EC0863409F01FCC61E070E0CE018F59A8
:103470009F4F0E9484128D3309F015CC08C07183D0
:103480006083CE01855A9F4F0E94B3130CCCA79640
:103490008EAD9FADA7979695879588248A94880EC0
:1034A0008250853008F0FFCB80918E02882309F48A
:1034B000FACB8AE991E00E94CC115101F2E06F2E23
:1034C000712C8A2D8219881568F5ED965FACED9701
:1034D0005A0C60E8852D0E946B10F50181935F0105
:1034E000B301CE018F599F4F0E9484120E94171181
:1034F000482E4294E0EF4E22B3016F5F7F4FCE0122
:103500008F599F4F0E9484120E941711480E642DFC
:10351000852D0E945710842D0E940510F2E06F0E39
:10352000711CCFCF86E892E00E94CE11BCCB809177
:103530008E02882329F18BE30E947A100E94831067
:103540009EEF9F3FE9F085E3EE969FAFEE970E94D6
:103550007A10EE969FADEE97EE24EA94E90E80770E
:10356000803241F061E070E080E090E00E94900DD8
:103570009E2DE7CF911104C08EEA91E00E94CE11FA
:10358000912CE5965FACE597951409F447C1E12CC1
:103590004E2C512CAD965FAE4EAEAD9722E1E29E21
:1035A00020011124F801E40DF51D8281823089F09B
:1035B00082E1AD964EAD5FADAD97849FF001859FE2
:1035C000F00D1124E00FF11F8281813009F08EC0CF
:1035D00069C056E0450E511C3801640C751CAF964D
:1035E0007FAE6EAEAF9724813581E1963FAF2EAFAF
:1035F000E197C3800E946B0D2B013C01D12CE19619
:103600004EAD5FADE1974C155D0508F443C0B601C2
:103610008EE893E00E9484128053AF96EEADFFAD2A
:10362000AF97E80FF11DE80FF11D2081318159019D
:1036300037FF04C0AA24BB24A21AB30AC058DF4F24
:103640002883C058D040C158DF4F3883CF57D0406F
:103650000E946B0DC058DF4F2881C058D040C15820
:10366000DF4F3881CF57D040641575058605970523
:1036700028F337FF02C05B9801C05B9AC501BB0C01
:10368000AA0BBB0B480E591E6A1E7B1E3FEFC31AC6
:10369000D30AB5CF0E946B0D641575058605970595
:1036A000C8F386CFA080B1805481E6965FAFE697DD
:1036B000D3800E946B0D2B013C019501BB0C440B88
:1036C000550BE3962CAF3DAF4EAF5FAFE397220FA4
:1036D000331F441F551FEA962CAF3DAF4EAF5FAF6F
:1036E000EA97E6962FADE6972D1530F45B98E394B4
:1036F000FE1408F04DCF85C06D2D70E08EE893E08C
:103700000E9484128A3314F097E301C090E3891B6E
:1037100044E050E0AD965FAF4EAFAD9748E0C42EA9
:10372000282F880F330BEC963FAF2EAFEC97A301F9
:103730009201AE961FAEAE97AC2CB12CEC968EAD2E
:103740009FADEC97A822B922A114B104F1F15B98C6
:10375000E3968CAD9DADAEADBFADE397280F391F9D
:103760004A1F5B1FC058DF4F2883C058D040C15844
:10377000DF4F3883CF57D040EE964FAFEE97EF969E
:103780005FAFEF970E946B0DC058DF4F2881C05884
:10379000D040C158DF4F3881CF57D040EE964FAD63
:1037A000EE97EF965FADEF97621773078407950763
:1037B000C8F2AE969FADAE97913049F081E0AE96DB
:1037C0008FAFAE97A114B10411F25B9AC1CFEA9604
:1037D0002CAD3DAD4EAD5FADEA97420E531E641E5B
:1037E000751EC694AD964EAD5FADAD974150510973
:1037F000AD965FAF4EAFAD97452B09F098CFD39400
:1038000070CFE4964FACE497442031F061E070E073
:1038100080E090E00E94900D9394B3CE882009F44C
:1038200068CC88EC91E00E94CC1161018CE0F82E0C
:10383000F2188C2D8219881508F057CCD6016D919D
:103840006D01862FEE966FAFEE970E940510EE96F3
:103850006FADEE978F2D8C0D0E945710EACF62E06E
:1038600070E08EE893E0C058DF4F2883C058D04006
:103870000E948412C058DF4F2881C058D040833541
:1038800009F4ECC1853509F4E3C1833409F0E3C1DF
:10389000E6E9F3E0E5C181E691E0AEC18E2D0E943C
:1038A0001711E82EEEE2EF1508F430CC8CE392E02D
:1038B0000E94CC118F2D0E9407118AED91E00E9489
:1038C000CC11E394E3948E2D0E9407118FE492E0D3
:1038D0000E94CC11D12CDE1408F0E2CB60E88D2DD3
:1038E0008F0D0E946B100E940711D394F4CFEEE26B
:1038F000EF1510F060E801C060EC8F2D0E946B1096
:10390000E82E8CE392E00E94CC118F2D0E940711CB
:103910008CED91E00E94CC1180C0F9E9FF12F6CB4A
:10392000F12CFF2061F020E1422EF41421F090E20E
:10393000592EF5100FC08AEA91E00E94CC1180EE5A
:1039400090E00E945E118F2D0E9407118DED90E096
:103950000E945E1160E88F2D0E946B100E9407117B
:103960008AEA91E00E94CC11F3948FE2682EF6105F
:10397000D8CF96CB8F2DFF0C990B0E943921892B24
:1039800009F4AAC062E070E08EE893E00E9484121D
:10399000082E000C990B0E943921892B09F49CC038
:1039A00063E070E08EE893E00E948412082E000C21
:1039B000990B0E943921892B09F48EC064E070E0D4
:1039C0008EE893E00E948412082E000C990B0E944E
:1039D0003921892B09F480C081E00E942B11F82E37
:1039E00083E00E942B11E82E682F8F2D90E00E941B
:1039F000011080918E02882309F488CB8EEF8F0D01
:103A00008E3308F083CB6E2D0E94571080EE91E02C
:103A10000E94CC118F2D0E9407118E2D0E9407113C
:103A20003FCB63E070E08EE893E00E948412F82EB2
:103A3000082E000C990B0E943921892B09F466CBC2
:103A40008F2D0E94171120E3280F2E3308F05ECB34
:103A5000822FC058DF4F2883C058D0400E947A1070
:103A6000E82E61E070E080E090E00E94900D8DE330
:103A70000E947A10F82E84E091E00E945E11C058F6
:103A8000DF4F2881C058D040822F0E94071187EF56
:103A900090E00E945E116E2D70E0F4E075956795E0
:103AA000FA95E1F7072E000C880B990B40E10E9474
:103AB0008B118EEE90E00E945E116F2D70E0A4E0FD
:103AC00075956795AA95E1F7072E000C880B990B61
:103AD00040E10E948B11E4CA8DE491E08DC08837EB
:103AE00009F07DC061E070E08EE893E00E948412EE
:103AF000082E000C990B0E943921892B09F47AC0F9
:103B000062E070E08EE893E00E948412082E000CC0
:103B1000990B0E943921892B09F46CC080918E0287
:103B2000882309F467C081E00E942B11D82E80E31E
:103B3000E82EF12C41E3E41204C06D2D81E390E006
:103B400002C060E0C7010E9401105FEFE51AF50AAC
:103B500088E3E816F10471F70E94401087E391E0D2
:103B60000E945E118D2D0E94051086E291E044C0F6
:103B700081E00E942B11E82E85E491E00E945E1105
:103B80008E2D0E94051063E070E08EE893E00E94A5
:103B90008412F12C8E36C9F482E491E00E945E1109
:103BA000C12CD12C8AEA91E00E94CC11C6018E0D65
:103BB0009F1D0E9403100E9405102FEFC21AD20A07
:103BC00030E1C316D10471F76BCA8EE391E00E9415
:103BD0005E11C7010E9403100E94051061CA85365C
:103BE00049F480918E02882329F00E9415100E94CA
:103BF000CE108CCA82E191E00E947F1187CA87FCB7
:103C00006DCB882D880F990B9C012B543B4F79016C
:103C1000D9016D917C91AB01770F660B770BF601A3
:103C200080819181092E000CAA0BBB0B2A013B015C
:103C3000480E591E6A1E7B1EC301B20122E030E00D
:103C400040E050E00E94241FD7012D933C9397CB76
:103C5000E5E9F3E005C0E0E0F0E002C0E7E9F3E009
:103C6000253419F481E0808301C01082809195038E
:103C7000682F660F90919603B4E09B9FC0011124BA
:103C8000862B60919703682B8FEF90E00E940110C4
:103C90003DCA8EE893E00E94B3138EEC94E00E943C
:103CA000B31388EC94E00C94B3130F931F93CF934A
:103CB000DF93EDEEF2E01382128288EE93E0A0E053
:103CC000B0E084839583A683B7838EE091E09183EF
:103CD000808385EC90E09587848784EC90E09787DB
:103CE000868780EC90E0918B808B81EC90E0938BC9
:103CF000828B82EC90E0958B848B86EC90E0978BA6
:103D0000868B118E128E138E148EECEDF4E082E30E
:103D10008083118213821282C9EAD4E0D093AE0468
:103D2000C093AD040BEA14E01093B0040093AF0409
:103D300066E872E088EC94E00E94B81366E872E0EE
:103D40008EEC94E00E94B8131092D7041092D6041F
:103D50001092D9041092D8041092DB041092DA0465
:103D6000F801118210821982188284E993E00E947E
:103D7000800F66E872E08EE893E00E94B8130E941C
:103D80006B0D60938A0370938B0380938C039093E5
:103D90008D03DF91CF911F910F910895991B79E0C9
:103DA00004C0991F961708F0961B881F7A95C9F7CB
:103DB00080950895AA1BBB1B51E107C0AA1FBB1F1A
:103DC000A617B70710F0A61BB70B881F991F5A95A7
:103DD000A9F780959095BC01CD01089597FB072E1A
:103DE00016F4009407D077FD09D00E94DA1E07FC74
:103DF00005D03EF4909581959F4F089570956195FB
:103E00007F4F0895A1E21A2EAA1BBB1BFD010DC016
:103E1000AA1FBB1FEE1FFF1FA217B307E407F5077A
:103E200020F0A21BB30BE40BF50B661F771F881F56
:103E3000991F1A9469F760957095809590959B01EC
:103E4000AC01BD01CF010895052E97FB1EF400942F
:103E50000E943B1F57FD07D00E94021F07FC03D0A2
:103E60004EF40C943B1F50954095309521953F4F53
:103E70004F4F5F4F089590958095709561957F4F56
:103E80008F4F9F4F08950E943427B7FF0895821BDC
:103E9000930B0895EE0FFF1F0590F491E02D099408
:103EA0005058BB27AA270E94681F0C94AD260E9479
:103EB0009F2638F00E94A62620F039F49F3F19F47F
:103EC00026F40C949C260EF4E095E7FB0C949626C1
:103ED000E92F0E94BE2658F3BA17620773078407BA
:103EE000950720F079F4A6F50C94E0260EF4E09501
:103EF0000B2EBA2FA02D0B01B90190010C01CA01A4
:103F0000A0011124FF27591B99F0593F50F4503E4E
:103F100068F11A16F040A22F232F342F4427585F40
:103F2000F3CF469537952795A795F0405395C9F758
:103F30007EF41F16BA0B620B730B840BBAF0915010
:103F4000A1F0FF0FBB1F661F771F881FC2F70EC0AF
:103F5000BA0F621F731F841F48F487957795679582
:103F6000B795F7959E3F08F0B0CF9395880F08F06E
:103F70009927EE0F9795879508950E94D11F0C946D
:103F8000AD260E94A62658F00E949F2640F029F4F4
:103F90005F3F29F00C94962651110C94E1260C9465
:103FA0009C260E94BE2668F39923B1F3552391F312
:103FB000951B550BBB27AA2762177307840738F098
:103FC0009F5F5F4F220F331F441FAA1FA9F335D0F5
:103FD0000E2E3AF0E0E832D091505040E695001CA9
:103FE000CAF72BD0FE2F29D0660F771F881FBB1F63
:103FF000261737074807AB07B0E809F0BB0B802D41
:10400000BF01FF2793585F4F3AF09E3F510578F06C
:104010000C9496260C94E1265F3FE4F3983ED4F38B
:10402000869577956795B795F7959F5FC9F7880F40
:10403000911D9695879597F90895E1E0660F771F92
:10404000881FBB1F621773078407BA0720F0621B23
:10405000730B840BBA0BEE1F88F7E09508950E944E
:1040600036206894B1110C94E12608950E94C6266A
:1040700088F09F5798F0B92F9927B751B0F0E1F029
:10408000660F771F881F991F1AF0BA95C9F714C0D9
:10409000B13091F00E94E026B1E008950C94E02642
:1040A000672F782F8827B85F39F0B93FCCF3869512
:1040B00077956795B395D9F73EF49095809570956F
:1040C00061957F4F8F4F9F4F08950E94022608F4FD
:1040D0008FEF0895A0E0B0E0E0E7F0E20C94012754
:1040E000EC01009721F4CB010E942224B8C0FC010E
:1040F000E60FF71F9C0122503109E217F30708F47D
:10410000ACC0D9010D911C91119706171707B0F09B
:104110000530110508F49FC0C8010497861797075A
:1041200008F499C002501109061B170B0193119353
:104130006D937C93CF010E94B7248DC05B01A01AC0
:10414000B10A4C01800E911EA0914605B091470521
:1041500040E050E0E12CF12C109709F44AC0A8157A
:10416000B905D1F56D907C901197630182E0C80E7E
:10417000D11CCA14DB0480F1A3014A195B096A014E
:1041800082E0C80ED11C1296BC9012971396AC9187
:10419000B5E0CB16D10440F0B282A38351834083B3
:1041A000D9016D937C930AC00E5F1F4FC301800F2E
:1041B000911FF90191838083EB2DFA2FE114F10413
:1041C00031F0D7011396FC93EE93129744C0F0930D
:1041D0004705E09346053FC08D919C911197481784
:1041E000590708F4AC017D0112960D90BC91A02DE9
:1041F000B3CF809144059091450588159905E1F468
:1042000046175707C8F48091040190910501009763
:1042100041F48DB79EB74091080150910901841B6C
:10422000950BE817F907C8F4F0934505E0934405AA
:10423000F901718360830FC0CB010E9422247C01AD
:10424000009759F0A801BE010E944521CE010E94AD
:10425000B724C70104C0CE0102C080E090E0CDB712
:10426000DEB7EEE00C941D2781E090E0F8940C940A
:10427000432791110C94932680538A5028F0865C32
:10428000806281568650B0F70895FB01DC0102C0C0
:1042900001900D9241505040D8F708956817790762
:1042A00068F4FB01DC01E40FF51FA40FB51F02C089
:1042B00002900E9241505040D8F708950C94452139
:1042C000FB01DC0101900D920020E1F70895FB0154
:1042D00051915523A9F0BF01DC014D9145174111C2
:1042E000E1F759F4CD010190002049F04D914015BE
:1042F0004111C9F3FB014111EFCF81E090E001973B
:104300000895AEE0B0E0E7E8F1E20C940B270D89E8
:104310001E8986E08C831A8309838FEF9FE79E8333
:104320008D83AE01475E5F4F6F89788DCE01019618
:104330000E94A4212F813885F801E20FF31F10821B
:104340002E96E4E00C942727ACE0B0E0EAEAF1E234
:104350000C94FD267C016B018A01FC0117821682F8
:10436000838181FFBDC1CE0101964C01F70193818C
:10437000F60193FD859193FF81916F01882309F4E4
:10438000ABC1853239F493FD859193FF81916F0123
:10439000853229F4B70190E00E948C23E7CF512C9D
:1043A000312C20E02032A0F48B3269F030F48032DE
:1043B00059F0833269F420612CC08D3239F080339A
:1043C00039F4216026C02260246023C0286021C007
:1043D00027FD27C030ED380F3A3078F426FF06C0AD
:1043E000FAE05F9E300D1124532E13C08AE0389EF0
:1043F000300D1124332E20620CC08E3221F426FDA4
:104400006BC1206406C08C3611F4206802C0883667
:1044100041F4F60193FD859193FF81916F01811124
:10442000C1CF982F9F7D9554933028F40C5F1F4F78
:10443000FFE3F9830DC0833631F0833771F08335A4
:1044400009F05BC022C0F801808189830E5F1F4F95
:1044500044244394512C540115C03801F2E06F0EEE
:10446000711CF801A080B18026FF03C0652D70E0AB
:1044700002C06FEF7FEFC5012C870E9481232C01C2
:1044800083012C852F77222E17C03801F2E06F0EA2
:10449000711CF801A080B18026FF03C0652D70E07B
:1044A00002C06FEF7FEFC5012C870E9476232C019D
:1044B0002C852068222E830123FC1BC0832D90E0D5
:1044C00048165906B0F4B70180E290E00E948C23B0
:1044D0003A94F4CFF50127FC859127FE81915F0185
:1044E000B70190E00E948C2331103A94F1E04F1A0A
:1044F00051084114510471F7E5C0843611F0893632
:1045000039F5F80127FF07C06081718182819381AD
:104510000C5F1F4F08C060817181072E000C880B53
:10452000990B0E5F1F4F2F76722E97FF09C0909543
:104530008095709561957F4F8F4F9F4F2068722EA9
:104540002AE030E0A4010E94C423A82EA81844C089
:10455000853729F42F7EB22E2AE030E025C0F22FD5
:10456000F97FBF2E8F36C1F018F4883579F0B4C0CA
:10457000803719F0883721F0AFC02F2F2061B22E7D
:10458000B4FE0DC08B2D8460B82E09C024FF0AC074
:104590009F2F9660B92E06C028E030E005C020E1CC
:1045A00030E002C020E132E0F801B7FE07C06081D0
:1045B0007181828193810C5F1F4F06C06081718180
:1045C00080E090E00E5F1F4FA4010E94C423A82E3C
:1045D000A818FB2DFF777F2E76FE0BC0372D3E7F70
:1045E000A51450F474FE0AC072FC08C0372D3E7E3C
:1045F00005C0BA2C372D03C0BA2C01C0B52C34FF2E
:104600000DC0FE01EA0DF11D8081803311F4397E69
:1046100009C032FF06C0B394B39404C0832F8678D8
:1046200009F0B39433FD13C030FF06C05A2CB31405
:1046300018F4530C5B18B32CB31468F4B70180E280
:1046400090E03C870E948C23B3943C85F5CFB31453
:1046500010F43B1801C0312C34FF12C0B70180E3C5
:1046600090E03C870E948C233C8532FF17C031FDCF
:1046700003C088E790E002C088E590E0B7010CC075
:10468000832F867859F031FF02C08BE201C080E2AF
:1046900037FD8DE2B70190E00E948C23A51438F419
:1046A000B70180E390E00E948C235A94F7CFAA943C
:1046B000F401EA0DF11D8081B70190E00E948C2386
:1046C000A110F5CF332009F451CEB70180E290E07C
:1046D0000E948C233A94F6CFF7018681978102C01D
:1046E0008FEF9FEF2C96E2E10C941927FC010590C7
:1046F000615070400110D8F7809590958E0F9F1FE4
:104700000895FC016150704001900110D8F7809528
:1047100090958E0F9F1F08950F931F93CF93DF9354
:10472000FB01238121FD03C08FEF9FEF28C022FFF3
:1047300016C046815781248135814217530744F4BE
:10474000A081B1819D012F5F3F4F318320838C93E6
:10475000268137812F5F3F4F3783268310C0EB01BF
:10476000092F182F0084F185E02D0995892BE1F69A
:104770008E819F8101969F838E83812F902FDF9161
:10478000CF911F910F910895FA01AA27283051F176
:10479000203181F1E8946F936E7F6E5F7F4F8F4F72
:1047A0009F4FAF4FB1E03ED0B4E03CD0670F781FD1
:1047B000891F9A1FA11D680F791F8A1F911DA11DB6
:1047C0006A0F711D811D911DA11D20D009F46894EF
:1047D0003F912AE0269F11243019305D3193DEF697
:1047E000CF010895462F4770405D4193B3E00FD04D
:1047F000C9F7F6CF462F4F70405D4A3318F0495D38
:1048000031FD4052419302D0A9F7EACFB4E0A6951A
:104810009795879577956795BA95C9F7009761053C
:10482000710508959B01AC010A2E06945795479592
:1048300037952795BA95C9F7620F731F841F951F87
:10484000A01D0895CF93DF938230910510F482E08C
:1048500090E0E0914605F091470520E030E0C0E0AF
:10486000D0E0309711F14081518148175907C0F0CD
:104870004817590761F482819381209719F09B832F
:104880008A832BC0909347058093460526C0211547
:10489000310519F04217530718F49A01BE01DF01E0
:1048A000EF010280F381E02DDCCF2115310509F104
:1048B000281B390B2430310590F412968D919C9170
:1048C00013976115710521F0FB019383828304C066
:1048D0009093470580934605FD01329644C0FD0143
:1048E000E20FF31F81939193225031092D933C9352
:1048F0003AC02091440530914505232B41F4209185
:10490000060130910701309345052093440520911D
:104910000401309105012115310541F42DB73EB751
:104920004091080150910901241B350BE091440589
:10493000F0914505E217F307A0F42E1B3F0B281753
:10494000390778F0AC014E5F5F4F2417350748F008
:104950004E0F5F1F509345054093440581939193FB
:1049600002C0E0E0F0E0CF01DF91CF9108950F9316
:104970001F93CF93DF93009709F48CC0FC0132970B
:104980001382128200914605109147050115110509
:1049900081F420813181820F931F20914405309151
:1049A00045052817390779F5F0934505E093440547
:1049B00071C0D80140E050E0AE17BF0750F4129626
:1049C0002D913C911397AD012115310509F1D901C4
:1049D000F3CF9D01DA013383228360817181860FD9
:1049E000971F8217930769F4EC0128813981260FFC
:1049F000371F2E5F3F4F318320838A819B819383B2
:104A00008283452B29F4F0934705E093460542C085
:104A10001396FC93EE931297ED01499159919E01E3
:104A2000240F351FE217F30771F480819181840F01
:104A3000951F029611969C938E9382819381139673
:104A40009C938E931297E0E0F0E0D80112968D913E
:104A50009C911397009719F0F8018C01F6CF8D9176
:104A60009C9198012E5F3F4F820F931F2091440528
:104A7000309145052817390769F4309729F41092C9
:104A800047051092460502C0138212821093450515
:104A900000934405DF91CF911F910F9108951F93CB
:104AA000FC0199278827BC01E89411911032E9F3A1
:104AB000193010F01E30C8F31B3251F01D3249F48A
:104AC000689406C00E948125610F711D811D911D92
:104AD000119110531A30B0F33EF490958095709573
:104AE00061957F4F8F4F9F4F1F910895BB274A308D
:104AF00031F4992322F4BDE2909581959F4F0C9457
:104B00009725592F482F372F262F660F771F881F7D
:104B1000991F660F771F881F991F620F731F841FCD
:104B2000951F660F771F881F991F0895BB27FB01EC
:104B30005527AA27880F991FAA1FA41710F0A41B96
:104B400083955051B9F7A05DAA3308F0A95DA193F0
:104B5000009779F7B111B1931192CB010C94B02564
:104B6000DC01FC01672F71917723E1F7329704C0D4
:104B70007C916D9370836291AE17BF07C8F308955F
:104B80000E94022608F481E00895E89409C097FB8A
:104B90003EF490958095709561957F4F8F4F9F4F14
:104BA0009923A9F0F92F96E9BB279395F695879558
:104BB00077956795B795F111F8CFFAF4BB0F11F41B
:104BC00060FF1BC06F5F7F4F8F4F9F4F16C08823C2
:104BD00011F096E911C0772321F09EE8872F762FF8
:104BE00005C0662371F096E8862F70E060E02AF039
:104BF0009A95660F771F881FDAF7880F9695879525
:104C000097F90895990F0008550FAA0BE0E8FEEFF9
:104C100016161706E807F907C0F012161306E40780
:104C2000F50798F0621B730B840B950B39F40A2679
:104C300061F0232B242B252B21F408950A2609F457
:104C4000A140A6958FEF811D811D08950E943926F0
:104C50000C94AD260E949F2638F00E94A62620F0D4
:104C6000952311F00C9496260C949C2611240C94F8
:104C7000E1260E94BE2670F3959FC1F3950F50E088
:104C8000551F629FF001729FBB27F00DB11D639FFE
:104C9000AA27F00DB11DAA1F649F6627B00DA11DA4
:104CA000661F829F2227B00DA11D621F739FB00D4A
:104CB000A11D621F839FA00D611D221F749F3327BA
:104CC000A00D611D231F849F600D211D822F762F53
:104CD0006A2F11249F5750409AF0F1F088234AF030
:104CE000EE0FFF1FBB1F661F771F881F915050409C
:104CF000A9F79E3F510580F00C9496260C94E1266E
:104D00005F3FE4F3983ED4F3869577956795B79522
:104D1000F795E7959F5FC1F7FE2B880F911D96953C
:104D2000879597F9089599278827089597F99F6798
:104D300080E870E060E008959FEF80EC0895002423
:104D40000A941616170618060906089500240A94F0
:104D500012161306140605060895092E0394000C76
:104D600011F4882352F0BB0F40F4BF2B11F460FF05
:104D700004C06F5F7F4F8F4F9F4F089557FD90582E
:104D8000440F551F59F05F3F71F04795880F97FB0F
:104D9000991F61F09F3F79F08795089512161306C9
:104DA0001406551FF2CF4695F1DF08C016161706F8
:104DB0001806991FF1CF869571056105089408952D
:104DC000E894BB2766277727CB0197F90895F999CF
:104DD000FECF92BD81BDF89A992780B50895262F00
:104DE000F999FECF1FBA92BD81BD20BD0FB6F894D0
:104DF000FA9AF99A0FBE019608952F923F924F9218
:104E00005F926F927F928F929F92AF92BF92CF925A
:104E1000DF92EF92FF920F931F93CF93DF93CDB763
:104E2000DEB7CA1BDB0B0FB6F894DEBF0FBECDBFDB
:104E300009942A88398848885F846E847D848C84AC
:104E40009B84AA84B984C884DF80EE80FD800C81B5
:104E50001B81AA81B981CE0FD11D0FB6F894DEBF98
:104E60000FBECDBFED010895A29FB001B39FC00159
:104E7000A39F700D811D1124911DB29F700D811D86
:104E80001124911D089510E0CEEFD0E004C0FE0182
:104E90000E944A1F2196CF3FD107C9F7F894FFCF50
:104EA000E60CE60C000048058000000000007D0CC8
:104EB0004C12460C240C380CC40C5573696E6720D8
:104EC000734649464F00434356657273696F6E3DA2
:104ED000004343506172746E756D3D004343313140
:104EE000303120666F756E64005374617274696E40
:104EF000672074696D65726A6F62004F4B005620BF
:104F0000332E332E312D646576205349474E414C64
:104F10006475696E6F20002D20636F6D70696C651C
:104F200064206174204D617220313020323031377D
:104F30002032323A35343A35300077726974652060
:104F40006E65772063637265672020003B004343F2
:104F5000313130313A2053657474696E672054588A
:104F6000206661696C6564006363726567207772AF
:104F7000697465206261636B20006E00203D200033
:104F80005700496E697420656570726F6D20746F8B
:104F90002064656661756C74732061667465722047
:104FA000666C6173680052656164696E6720766142
:104FB0006C75657320666F6D20656570726F6D002E
:104FC0004D5300443D0043503D0053503D00523D81
:104FD00000253032580025303158004D43004C4CEC
:104FE0003D004C483D00534C3D0053483D00433D7F
:104FF000004D550050006363466163746F727952CF
:105000006573657420646F6E6500434331313031E0
:105010003A2053657474696E67205258206661693E
:085020006C6564000D0A00003C
:00000001FF
