:100000000C946B000C94501D0C947D1D0C9493006B
:100010000C9493000C9493000C9493000C94930014
:100020000C9493000C9493000C9493000C94930004
:100030000C9493000C94B8120C9493000C949300BD
:100040000C94AA1D0C9493000C9402190C94501952
:100050000C9493000C9493000C9493000C949300D4
:100060000C9493000C94930020557365206F6E657B
:10007000206F66200000000000240027002A0000F6
:10008000000000250028002B0000000000230026AF
:10009000002900040404040404040402020202020D
:1000A000020303030303030102040810204080013C
:1000B00002040810200102040810200000000700BC
:1000C0000201000003040600000000000000000020
:1000D0000913BC1A021311241FBECFEFD8E0DEBFF4
:1000E000CDBF12E0A0E0B1E0ECEDF9E402C0059074
:1000F0000D92A837B107D9F714E0A8E7B2E001C024
:100100001D92A73DB107E1F710E0C4EDD0E004C0B7
:100110002297FE010E94A624C03DD107C9F70E9484
:10012000121B0C94E1240C9400000F931F93CF93A7
:10013000DF93689F8001699F100D789F100D112437
:10014000C8010E94B100EC01009729F060E070E066
:10015000A8010E94ED02CE01DF91CF911F910F9176
:100160000895CF93DF93BC018230910510F462E0D3
:1001700070E0A091D504B091D604ED01E0E0F0E08C
:1001800040E050E021C0888199818617970769F483
:100190008A819B81309719F09383828304C0909366
:1001A000D6048093D504FE0134C06817790738F46B
:1001B0004115510519F08417950708F4AC01FE01AB
:1001C0008A819B819C01E9012097E9F6411551053F
:1001D000A9F1CA01861B970B049708F4BA01E0E065
:1001E000F0E02AC08D919C91119784179507F9F43E
:1001F0006417750781F412968D919C91139730972F
:1002000019F09383828304C09093D6048093D5041D
:10021000FD0132964CC0CA01861B970BFD01E80F09
:10022000F91F6193719302978D939C9340C0FD01D8
:10023000828193819C01D9011097A1F68091D3040A
:100240009091D404892B41F480913302909134022F
:100250009093D4048093D304409135025091360298
:100260004115510541F44DB75EB78091310290912F
:100270003202481B590B2091D3043091D404CA0197
:10028000821B930B8617970780F0AB014E5F5F4F81
:100290008417950750F0420F531F5093D404409396
:1002A000D304F9016193719302C0E0E0F0E0CF0163
:1002B000DF91CF910895CF93DF93009709F450C059
:1002C000EC0122971B821A82A091D504B091D6042A
:1002D000109709F140E050E0AC17BD0708F1BB836F
:1002E000AA83FE0121913191E20FF31FAE17BF07E0
:1002F00079F48D919C911197280F391F2E5F3F4FF4
:100300003983288312968D919C9113979B838A83BE
:100310004115510571F4D093D604C093D50420C083
:1003200012968D919C911397AD01009711F0DC010D
:10033000D3CFFA01D383C28321913191E20FF31F0E
:10034000CE17DF0769F488819981280F391F2E5F46
:100350003F4FFA01318320838A819B81938382837B
:10036000DF91CF910895A0E0B0E0E9EBF1E00C94CB
:10037000AC246C01009729F4CB010E94B1006C0100
:10038000C1C08EEF882E8FEF982E8C0C9D1C86019D
:10039000060F171F0815190508F4B2C0F401A08153
:1003A000B181A617B707B8F0A530B10508F4AAC007
:1003B000CD0104978617970708F4A4C01297A61BCF
:1003C000B70BF801A193B193D4016D937C93CF0146
:1003D0000E945B0197C07B01EA1AFB0AEEEFFFEF78
:1003E000EE0EFF1E36016A0E7B1EC091D504D09121
:1003F000D60444245524AA24BB244AC0C615D705D4
:10040000E1F5488159814E155F05B8F1CA0104979D
:100410008E159F05B0F41296A40FB51FF401B18399
:10042000A0832A813B814114510431F0D2011396FB
:100430003C932E93129766C03093D6042093D50434
:1004400061C08A819B81F80193838283425050402E
:100450004E195F09518340834114510431F0D20198
:1004600013961C930E93129704C01093D604009316
:10047000D504F4017183608345C088819981A816F1
:10048000B90608F45C012E018A819B819C01E90177
:10049000209709F0B3CF8091D3049091D4048615AE
:1004A0009705E9F4A616B706D0F4209135023091ED
:1004B00036022115310541F42DB73EB78091310246
:1004C00090913202281B390B02171307C8F41093BE
:1004D000D4040093D304D4016D937C9313C0CB0157
:1004E0000E94B100EC01009759F0F4014081518164
:1004F000B6010E94D202C6010E945B016E0102C0D9
:10050000CC24DD24C601CDB7DEB7E0E10C94C824CD
:10051000FC0188279927E89421912032E9F32930BA
:1005200010F02E30C8F32B3241F02D3239F468949C
:1005300004C00E949703820F911D219120532A30FD
:10054000C0F31EF4909581959F4F08951F93FC0171
:1005500099278827BC01E89411911032E9F31930EA
:1005600010F01E30C8F31B3251F01D3249F468946C
:1005700006C00E948203610F711D811D911D1191A2
:1005800010531A30B0F33EF49095809570956195B4
:100590007F4F8F4F9F4F1F91089548E752E00E9471
:1005A0002F030895FB01DC0102C001900D92415020
:1005B0005040D8F708956817790768F4FB01DC010B
:1005C000E40FF51FA40FB51F02C002900E92415018
:1005D0005040D8F708950C94D202DC0101C06D930D
:1005E00041505040E0F70895FC018191861721F0B9
:1005F0008823D9F7992708953197CF010895FB01F2
:10060000DC0101900D920020E1F70895FB01DC016F
:100610004150504048F001900D920020C9F701C0B0
:100620001D9241505040E0F70895FB015191552330
:10063000A9F0BF01DC014D9145174111E1F759F4D3
:10064000CD010190002049F04D9140154111C9F3B1
:10065000FB014111EFCF81E090E0019708950097F1
:1006600031F4DA018D919C91009709F40EC0DC0100
:10067000FB013D912191222319F03217C9F3FACFE2
:10068000332331F4DA011D921C92882799270895AB
:100690001197AF93BF93FB013D912191321771F4F4
:1006A000332321F488279927119702C01E921196AF
:1006B000FA01A193B0839F918F910895222369F746
:1006C000EACFFB019F01E8944230C4F04532B4F414
:1006D0004A3029F497FB1EF4909581959F4F642F23
:1006E00077270E949024805D8A330CF0895D819386
:1006F000CB010097A1F716F45DE251931082C90176
:100700000C94CC05592F482F372F262F660F771FB3
:10071000881F991F660F771F881F991F620F731F0D
:10072000841F951F660F771F881F991F08957AE011
:10073000979F902D879F802D910D11240895FB0187
:100740009F01423074F0453264F4642F77270E9491
:100750009024805D8A330CF0895D8193CB010097F2
:10076000A1F71082C9010C94CC05AEE0B0E0EBEB30
:10077000F3E00C94B8240D891E8986E08C831A83DB
:1007800009838FEF9FE79E838D839E01275E3F4FF6
:10079000CE0101966F89788DA9010E94D9032F811E
:1007A0003885020F131FF80110822E96E4E00C9496
:1007B000D424ABE0B0E0EFEDF3E00C94AA243C01CC
:1007C0002B015A01FC0117821682838181FD03C02F
:1007D0006FEF7FEFC6C19AE0892E1E010894211C9D
:1007E000311CF3012381F20123FD859123FF8191C7
:1007F0002F01882309F4B2C1853239F423FD859194
:1008000023FF81912F01853229F490E0B3010E94EA
:10081000DC05E7CF982FFF24EE249924FFE1FF1594
:10082000D0F09B3269F09C3228F4903259F0933228
:1008300091F40EC09D3249F0903369F441E024C038
:1008400052E0F52A84E0F82A28C098E0F92A25C069
:10085000E0E1FE2A22C0F7FC29C0892F80538A30AC
:1008600070F4F6FE05C0989C902C1124980E15C0CB
:10087000E89CE02C1124E80EF0E2FF2A0EC09E3224
:1008800029F4F6FC6BC140E4F42A07C09C3619F445
:1008900050E8F52A02C0983649F4F20123FD9591FB
:1008A00023FF91912F01992309F0B8CF892F855407
:1008B000833018F08052833038F444E050E0A40EC6
:1008C000B51E5FE359830FC0933631F0933779F04B
:1008D000933509F056C020C0F5018081898342E03C
:1008E00050E0A40EB51E610101E010E012C0F50158
:1008F000C080D180F6FC03C06FEF7FEF02C0692D8E
:1009000070E042E050E0A40EB51EC6010E94C10591
:100910008C015FE7F52214C0F501C080D180F6FCA0
:1009200003C06FEF7FEF02C0692D70E042E050E03E
:10093000A40EB51EC6010E94B6058C0150E8F52A2A
:10094000F3FE07C01AC080E290E0B3010E94DC050C
:10095000EA948E2D90E008171907A8F30EC0F6014F
:10096000F7FC8591F7FE81916F0190E0B3010E9441
:10097000DC05E110EA94015010400115110579F7EA
:10098000EAC0943611F0993669F5F7FE08C0F50112
:10099000208131814281538184E090E00AC0F501D9
:1009A000808191819C01442737FD4095542F82E03E
:1009B00090E0A80EB91E9FE6F92257FF09C0509596
:1009C0004095309521953F4F4F4F5F4FE0E8FE2A0D
:1009D000CA01B901A1012AE030E00E940806D82E20
:1009E000D21840C0953729F41F2D1F7E2AE030E031
:1009F0001DC01F2D197F9F3661F0903720F4983568
:100A000009F0ACC00FC0903739F0983709F0A6C094
:100A100004C028E030E00AC0106114FD146020E139
:100A200030E004C014FD166020E132E017FF08C07A
:100A3000F501608171818281938144E050E008C0BA
:100A4000F50180819181BC0180E090E042E050E0BE
:100A5000A40EB51EA1010E940806D82ED2188FE759
:100A6000F82EF122F6FE0BC05EEFF522D91438F411
:100A7000F4FE07C0F2FC05C08FEEF82202C01D2D67
:100A800001C0192DF4FE0DC0FE01ED0DF11D808198
:100A9000803319F499EEF92208C01F5FF2FE05C0F9
:100AA00003C08F2D867809F01F5F0F2DF3FC14C053
:100AB000F0FE0FC01E1510F09D2C0BC09D2C9E0C3F
:100AC000911A1E2D06C080E290E0B3010E94DC0561
:100AD0001F5F1E15C0F304C01E1510F4E11A01C0FB
:100AE000EE2404FF0FC080E390E0B3010E94DC0518
:100AF00002FF1DC001FD03C088E790E00EC088E53D
:100B000090E00BC0802F867891F001FF02C08BE24D
:100B100001C080E2F7FC8DE290E0B3010E94DC05A9
:100B200006C080E390E0B3010E94DC059A94D914DA
:100B3000C0F3DA94F101ED0DF11D808190E0B30175
:100B40000E94DC05DD20A9F706C080E290E0B30139
:100B50000E94DC05EA94EE20C1F743CEF3016681E2
:100B60007781CB012B96E2E10C94C624FC01059021
:100B7000615070400110D8F7809590958E0F9F1F9F
:100B80000895FC016150704001900110D8F78095E4
:100B900090958E0F9F1F0895DC01FC01672F7191C6
:100BA0007723E1F7329704C07C916D937083629153
:100BB000AE17BF07C8F308950F931F93CF93DF932A
:100BC0008C01EB018B8181FF1BC082FF0DC02E8148
:100BD0003F818C819D812817390764F4E881F98170
:100BE0000193F983E88306C0E885F985802F09958C
:100BF000892B31F48E819F8101969F838E8302C061
:100C00000FEF1FEFC801DF91CF911F910F91089552
:100C1000FA01AA27283051F1203181F1E8946F932D
:100C20006E7F6E5F7F4F8F4F9F4FAF4FB1E03ED0D3
:100C3000B4E03CD0670F781F891F9A1FA11D680F71
:100C4000791F8A1F911DA11D6A0F711D811D911DA4
:100C5000A11D20D009F468943F912AE0269F112419
:100C60003019305D3193DEF6CF010895462F47707D
:100C7000405D4193B3E00FD0C9F7F6CF462F4F70D8
:100C8000405D4A3318F0495D31FD4052419302D036
:100C9000A9F7EACFB4E0A6959795879577956795DC
:100CA000BA95C9F700976105710508959B01AC01DC
:100CB0000A2E06945795479537952795BA95C9F703
:100CC000620F731F841F951FA01D0895DC011296EB
:100CD0002C91129717968C9117972817D8F5ED91AC
:100CE000FC911197E20FF11D862F992787FD9095B2
:100CF00016960C90169702C0880F991F0A94E2F777
:100D00002081282B208313968C9113978F5F139645
:100D10008C93139716962C91169714963C911497D2
:100D2000822F90E0831B910997FD04C0231B169628
:100D30002C93089587E016968C93169712968C91B3
:100D400012978F5F12968C931297ED91FC91E80F9A
:100D5000F11D10820895FC018781681710F08FEF54
:100D600008950190F081E02DE60FF11D8081089536
:100D7000DC0190E007C0ED91FC911197E90FF11DA6
:100D800010829F5F17968C9117979817A0F3129671
:100D90001C92129713961C92139787E016968C93C9
:100DA0000895FC01808191810E945B010895CF9399
:100DB000DF93EC01842F6C831D824F8390E061E010
:100DC00070E00E94950088839983CE010E94B80646
:100DD00047E0E7E0F0E061E070E00BC0CB0102C06B
:100DE000880F991F2A95E2F79C018D81822B8D83B4
:100DF0004150242F30E08C81DF01A81BB109A217DC
:100E0000B30764F3DF91CF910895CF93DF93DC01B3
:100E1000EB0115962D913C91169713968D919C910F
:100E200014972817390749F411968D919C911297C0
:100E300016969C938E93159706C02E5F3F4F16967D
:100E40003C932E9315971596ED91FC9116978881FA
:100E50009981918380838C918823F1F017962D914D
:100E60003C91189713968D919C91149728173907E8
:100E700029F411962D913C91129702C02E5F3F4F9D
:100E800015968D919C9116978217930739F41896B1
:100E90003C932E93179702C081E08C93DF91CF9102
:100EA0000895CF93DF93DC01EB018C91882359F1F6
:100EB00017962D913C91189713968D919C911497AC
:100EC0002817390749F411968D919C91129718961D
:100ED0009C938E93179706C02E5F3F4F18963C93B6
:100EE0002E9317971796ED91FC9118978081918119
:100EF0009983888315968D919C911697E817F90729
:100F000009F41C9281E0DF91CF9108955F926F9276
:100F10007F928F929F92AF92BF92CF92DF92EF9289
:100F2000FF920F931F93CF93DF93EC017C876B8726
:100F3000CC24DD24552453944B01AA2497FCA0947F
:100F4000BA2C31E0632E712C8B859C8562E070E0B9
:100F50000E9495009A838983009709F048C00894FD
:100F6000C11CD11C1D86C501B4010E9425237B0133
:100F70008C01B601882777FD8095982F0E94252344
:100F800020E030E040E251EC0E948A2220E030E094
:100F900040E85FE30E9426229B01AC01C801B70133
:100FA0000E94D9237B018C0120E030E040E050E03A
:100FB0000E94D52388234CF0C801B70120E030E01F
:100FC00040E05FE30E94262208C0C801B70120E08C
:100FD00030E040E05FE30E9425220E94F2227C87FD
:100FE0006B871616170624F07C866B8601C05D861B
:100FF0008D858823E1F46B857C85882777FD809536
:10100000982F0E9425237B018C01C501B4010E9409
:1010100025232DEC3CEC4CEC5DE30E94D9239B0195
:10102000AC01C801B7010E94D52387FF8DCF89810C
:101030009A81DF91CF911F910F91FF90EF90DF90F8
:10104000CF90BF90AF909F908F907F906F905F9068
:1010500008950F931F93CF93DF93EC018A010E94B1
:1010600086079C019A8389838D858823D9F08B8597
:101070009C850197880F991F820F931F9C838B83F8
:101080009E838D83F90102C0019311938B819C8112
:101090008E179F07C8F78D819E8198878F8318824E
:1010A0009A878987DF91CF911F910F910895FC0155
:1010B00012A2A185B2850384F485E02D20813181BF
:1010C0008D919C911197918380832D933C93DB01AB
:1010D0008D919C91918380830895BF92CF92DF92EE
:1010E000EF92FF920F931F93CF93DF93EC018B014D
:1010F000B9A040E021E0C22ED12C2DC0F901EE0FA5
:10110000FF1FE00FF11FD901AE0DBF1DAC19BD09C6
:10111000AA0FBB1FAC0FBD1F0190F081E02D5396AD
:101120008D919C915497E81BF90BF7FF03C0F09544
:10113000E195FF4F8D859E858E179F075CF02617E2
:10114000370711F4842F11C05F5F252F30E062173D
:101150007307A4F64F5F4B1538F4F8016081718175
:1011600051E0E42EFF24F1CF8FEFDF91CF911F915B
:101170000F91FF90EF90DF90CF90BF90089508956A
:1011800008950895FC018381948108954F925F92A0
:101190006F927F928F929F92AF92BF92CF92DF9287
:1011A000EF92FF920F931F93CF93DF93DC0113967F
:1011B0008D919C911497019709F081C091962C9183
:1011C00091972150822F992787FD9095885E9E4F99
:1011D0007D01E80EF91E88519140EC01CC0FDD1F16
:1011E0006396CA0FDB1F00E010E02C0165E1662E5C
:1011F00061E0762E6A0E7B1E55E2852E912C8A0EBA
:101200009B1E5BC05801A40CB51C68817981161621
:1012100017060CF44BC082E86F3F780709F446C00C
:1012200012968C911297C82EDD24C7FCD094F6013B
:10123000EE0FFF1FEA0FFB1F43895489CA0186275F
:10124000972797FF33C033E0440F551F3A95E1F7D6
:1012500088279927861B970B841795073CF1F70180
:101260008081873018F5F3014081F40130E00CC033
:10127000818190E08A159B0529F4808190E08C158E
:101280009D0521F03F5F3196341790F3341771F0CC
:1012900093962C93939782E090E014969C938E9370
:1012A0001397A25EBE4F3C9381E00DC0215008947D
:1012B000E108F10801501040229727FFA3CF8FEFDC
:1012C00093968C9380E0DF91CF911F910F91FF90C7
:1012D000EF90DF90CF90BF90AF909F908F907F90D6
:1012E0006F905F904F9008956F927F928F929F9230
:1012F000AF92BF92CF92DF92EF92FF920F931F9324
:10130000CF93DF93EC018FEF8A8389A0AA24AA945C
:10131000BA2C992405E1602E01E0702E6C0E7D1E22
:1013200074C08FEFA8168FEFB80689F5C92CDD249D
:10133000F601EE0FFF1FEC0FFD1F8389948997FDC7
:1013400026C0FE01EC0DFD1DE85EFE4F608170E0E1
:10135000882777FD8095982F0E9425237B018C019B
:10136000F301608170E0882777FD8095982F0E94B7
:1013700025232BE734E14EE25EE30E94D9239B0153
:10138000AC01C801B7010E94D5231816E4F1C92C9D
:10139000DD24F601EE0FFF1FEC0FFD1F23893489BA
:1013A00037FD30C0F501EE0FFF1FEC0FFD1F8389E5
:1013B00094892817390734F5FE01EC0DFD1DE85E10
:1013C000FE4F608170E0882777FD8095982F0E94FE
:1013D00025237B018C01F301608170E0882777FD74
:1013E0008095982F0E9425232BE734E14EE25EE39F
:1013F0000E94D9239B01AC01C801B7010E94D523EB
:1014000018160CF0650193945601981408F489CFCE
:10141000FFEFAF16FFEFBF0611F480E006C0AA820F
:1014200081E090E09C838B8381E0DF91CF911F91DD
:101430000F91FF90EF90DF90CF90BF90AF909F9073
:101440008F907F906F900895CF93DF93DC01A85E1B
:10145000BE4F1D921D921D921D921D921C92AD5168
:10146000B140442329F4AB5EBE4F4C91A551B1402D
:10147000ED01A59650E04B5D5F4F4A0F5B1F09C021
:101480008991FD01E80FF11DE85EFE4F80818F5FBD
:101490008083C417D507A1F7DF91CF910895CF932B
:1014A000DF93EC0160E040E00E94240ACB5EDE4F57
:1014B0008881C551D140883230F0CE010E94740934
:1014C000CE010E94C608DF91CF910895DC01ED9115
:1014D000FC910190F081E02D099508958F929F92E3
:1014E000AF92BF92CF92DF92EF92FF920F931F9332
:1014F000CF93DF936C01DC011296ED91FC91139771
:1015000081A1843008F4E2C0EB5EFE4F608170E0A0
:10151000882777FD8095982F0E94252329E23CE5B6
:101520004FE05EE30E94D9230E94F722762FAA247F
:10153000AA94BA2C8824992460E030E079C0A32FC3
:10154000B0E0FE01EA0FFB1FE85EFE4FE080E71609
:1015500008F46DC0AA0FBB1FAC0FBD1F53964D9171
:101560005C91549714161506A4F5F60125812F3FBA
:1015700069F0822F992787FD9095880F991FC80FD2
:10158000D91F8B899C89841795070CF4232FD601CA
:1015900015962C93159717962C9117972F3F89F036
:1015A0001296ED91FC911397822F992787FD9095C4
:1015B000880F991FE80FF91F8389948948175907E5
:1015C0000CF4232F6E0D8394A40EB51EF601278311
:1015D0002EC0D60114962C912F3F69F0822F9927A7
:1015E00087FD9095880F991FC80FD91F8B899C89FB
:1015F000481759070CF4232FF601248326812F3F27
:1016000081F00280F381E02D822F992787FD90954C
:10161000880F991FE80FF91F83899489841795070C
:101620000CF4232F6E199394D60116962C933F5FDA
:10163000F601C281D38189A1381708F480CF70E008
:10164000882777FD8095982F0E9425237B018C01A8
:10165000CB5EDE4F688170E0882777FD8095982FFC
:101660000E9425232AE037ED43EA5CE30E94D92358
:101670009B01AC01C801B7010E94D523181634F1B3
:10168000981421F5C50163E070E00E945B24D60147
:1016900019967C936E93189714969C9114979F3F7C
:1016A000A9F016968C9116978F3F81F0981771F0DC
:1016B00015962C9115972F3F49F017969C919F3FB7
:1016C00029F080E0291719F081E001C080E0DF9166
:1016D000CF911F910F91FF90EF90DF90CF90BF902F
:1016E000AF909F908F9008958F929F92AF92BF92EC
:1016F000CF92DF92EF92FF921F93DF93CF9300D0B0
:101700000F92CDB7DEB76C017B01DE011196E9E0E7
:10171000F1E083E001900D928150E1F7D601ED9167
:10172000FC91628183E0689FB0011124C7010E948F
:101730001B20E114F10499F110E05E010894A11C52
:10174000B11CF4E08F2EF1E09F2E23C0CF01612F5A
:101750000E94AB0600D000D000D0EDB7FEB73196A6
:10176000ADB7BEB71296BC92AE92119793828282A9
:10177000848315820E94B5038DB79EB706960FB677
:10178000F8949EBF0FBE8DBFC701B5010E94D42043
:101790001F5FD601ED91FC9182818117B8F60F9001
:1017A0000F900F90CF91DF911F91FF90EF90DF90FE
:1017B000CF90BF90AF909F908F900895FC018FEFD6
:1017C000848385838683878384E182878081918176
:1017D0000E94B80608950F931F938C01FC0111A27B
:1017E000148213828FEF8283878D90A10E94B806A6
:1017F000F80116861586148A138A168A158A108EA1
:10180000178A128E118E148E138E168E158E1F91BE
:101810000F910895CF93DF93EC010E94EB0BCB5E09
:10182000DE4F1882C551D14019A21CA21C821B8216
:101830008FEF8BA38A83FE01DE01A85EBE4F80E09E
:10184000148A138A1D928F5F32968630C9F71AA2C6
:1018500086E990E09E878D878AE999E9A9E9BEE348
:101860008F87988BA98BBA8BC25EDE4F1882289720
:1018700019921882DF91CF910895EF92FF920F9302
:101880001F938C01FC017383628388E090E00E94C7
:10189000321BF82EE92E61E04EE10E94D706F801D6
:1018A000F082E182C8010E94DE0B1F910F91FF9030
:1018B000EF900895EF92FF920F931F938C0187E5AD
:1018C00092E0F8019183808388E090E00E94321BCF
:1018D000F82EE92E62E041E00E94D706F801F78E6B
:1018E000E0A21086178216821582C801059692879B
:1018F0008187C80107969487838712A2C8010E9436
:10190000EB0B1F910F91FF90EF9008950F931F9392
:101910008C010E945A0C8BE492E0F8019183808341
:101920001682158210861782C801059692878187D4
:10193000C8010796948783878FEF83A3C8010E940D
:101940000A0C1F910F9108950F931F938C010E9411
:10195000860C8FE392E0F8019183808301591E4F3A
:10196000F80110821F910F9108951F93CF93DF9379
:10197000EC0110E040E096C0442309F5FD01E10FC1
:10198000F11D85A1282F30E08C81992787FD909546
:101990002817390789F08D81992787FD9095281799
:1019A000390709F0BBC008C08F81992787FD909542
:1019B0002817390709F075C0A25EBE4F1C93AA8193
:1019C000BB81412F50E0FD01E40FF51F85A1282FB9
:1019D00030E08C81992787FD90952817390741F0D1
:1019E0008D81992787FD90952817390709F09FC0A9
:1019F0004881598160E0220F331FA20FB31F539615
:101A00008D919C91549797FF61E0CA010E946606F0
:101A10003FC08F81992787FD90952817390709F0D6
:101A200090C0AB5EBE4F8C91A551B14090E0019744
:101A3000481759070CF085C0FD01E40FF51F86A17A
:101A4000282F30E02617370741F08F81992787FD2F
:101A500090952817390709F074C04881598160E0D2
:101A6000220F331FA20FB31F53968D919C91549751
:101A700097FF61E0CA010E9466061F5F09C0888166
:101A800099810E94B806EA81FB81E25EFE4F1083D5
:101A900041E007C020E0E881F98183818317C8F124
:101AA00037C01F5FAA81BB81FD01EB5EFE4F8081C5
:101AB000181708F461CF181721F5A25EBE4F8C915C
:101AC0008230F8F0181B1083EA81FB81E25EFE4F42
:101AD0006081EE51F14070E06B5D7F4F6E0F7F1FB4
:101AE000EB5EFE4F408150E04F5F5F4FCF01805F64
:101AF00090400E94DB02EA81FB81EA5EFE4F81E0BA
:101B0000808320E0E881F98193818A85981708F025
:101B100021E0822FDF91CF911F9108958E81992727
:101B200087FD90952817390709F03ECF45CF8E8164
:101B3000682F772767FD70952617370709F069CF5B
:101B400070CF3A85AB5EBE4F8C9190E0831B9109BC
:101B5000481759070CF493CF9DCFEF92FF920F9344
:101B60001F93DF93CF9300D000D0CDB7DEB78C01A9
:101B70000B5E1E4FD8018C910551114090E08F3EB5
:101B80009105ACF0095E1E4F81E0F801808307519A
:101B90001140D801ED91FC910680F781E02DC8013C
:101BA00009950A5E1E4FF801108206511140D801B6
:101BB00094961C9294971996ED91FC911A97208116
:101BC00031811B96ED91FC911C970190F081E02DE5
:101BD0000B5E1E4FD8014C910551114090917A0235
:101BE000D80191968C919197891710F491969C93B6
:101BF0000B5E1E4FD8018C91055111408823B1F026
:101C0000EE2480E090E0E227F327F7FF02C081E0B6
:101C100090E020E030E04F3E11F021E030E0822300
:101C20009323892B41F0EE24E39405C0F80111A21F
:101C300010927A02EE2481E090E09A8389831C82DC
:101C40001B82D8011996ED91FC911A9780819181A0
:101C50009C838B83C801BE016F5F7F4F0E946D081C
:101C6000F82E87FD2EC00B5E1E4FF80180810551B6
:101C70001140F801E80FF11DF5A2823030F084A187
:101C80008F1519F4C8010E940A0CEF2DFF27E7FDFC
:101C9000F095EE0FFF1FE00FF11F8B819C812389D0
:101CA0003489820F931F62E070E00E945B24748B82
:101CB000638BF801EB5EFE4F80818F5F8083FF2492
:101CC00019C0C80160E040E00E94240AD801919642
:101CD0008C91863069F480917A02F801E80FF11D49
:101CE000E85EFE4F8081823018F0EE24FF2404C0AD
:101CF000FF24F394EE2009F50B5E1E4FF80180815E
:101D000005511140883278F081E0D80192968C9389
:101D10009297ED91FC910680F781E02DC80109951D
:101D200010927A026FC0EE2041F4C8010E940A0CA2
:101D3000F80112A210927A020DC00B5E1E4FD8015C
:101D40008C9105511140883228F083E090E0F80131
:101D500094838383FF2009F455C00B5E1E4FD80186
:101D60004C910551114050917A02842F90E0849655
:101D7000F801E80FF91F20E030E0DC0195971BC067
:101D800080812F5F3F4F31978517A9F46F5F7F4F99
:101D9000461B0B5E1E4FF8014083055111406B5DE1
:101DA0007F4F600F711F50E04F5F5F4FC8018596F6
:101DB0000E94DB0207C0BD01621B730B8FEF6F3FF8
:101DC0007807F1F620917A02E22FF0E0EE0FFF1F84
:101DD000E00FF11F8B819C81948B838BD801AB5ECC
:101DE000BE4F8C91F801E80FF11D25A38F5F8C93F6
:101DF0002F5F20937A02263029F410927A02D801BC
:101E000091962C930F900F900F900F90CF91DF91A0
:101E10001F910F91FF90EF9008950F931F93CF9311
:101E2000DF938C01DC0192961C92929719960D908B
:101E3000BC91A02DEC01EB85FC85208131818D9139
:101E40009C911197918380832D933C93DB018D911D
:101E50009C9191838083C8010E94AD0D8AA1DF917E
:101E6000CF911F910F9108950F931F93CF93DF93FD
:101E70008C01EB01CB0167E070E00E941B202097F2
:101E800079F0CE016EE071E00E94D420F801608507
:101E90007185CE010E946420CE016BE30E94C120B7
:101EA000DF91CF911F910F9108950F931F93CF93BF
:101EB000DF938C01EB01CB0160E270E00E941B20FC
:101EC000209709F470C0CE0161E171E00E94D42036
:101ED000D8011296ED91FC91139714968C91992745
:101EE00087FD9095880F991FE80FF91F6389748902
:101EF000CE010E946420CE016BE30E94C120CE017E
:101F000065E171E00E94D420D8011296ED91FC9118
:101F1000139715968C91992787FD9095880F991F97
:101F2000E80FF91F63897489CE010E946420CE01F5
:101F30006BE30E94C120CE0169E171E00E94D420D0
:101F4000D8011296ED91FC91139716968C919927D2
:101F500087FD9095880F991FE80FF91F6389748991
:101F6000CE010E946420CE016BE30E94C120CE010D
:101F70006DE171E00E94D420D8011296ED91FC91A0
:101F8000139717968C91992787FD9095880F991F25
:101F9000E80FF91F63897489CE010E946420CE0185
:101FA0006BE30E94C120DF91CF911F910F910895A3
:101FB000CF93DF93FC01C081D181209731F0CE0116
:101FC0000E94D106CE010E942F1BDF91CF91089570
:101FD000CF92DF92EF92FF920F931F937A016901E4
:101FE00004EA14E0C8010E94D31CC801B7010E9492
:101FF000D31CC801B6010E94D31C1F910F91FF9002
:10200000EF90DF90CF900895EF92FF920F931F9380
:10201000CF93DF93EC01F62EE42E84EA94E0B9012D
:102020000E94D31C0BC0FE01EF0DF11D84EA94E069
:1020300065A14AE050E00E94391CF394EF1498F730
:1020400084EA94E0B8010E94D31CDF91CF911F91E4
:102050000F91FF90EF9008956F927F928F929F92D1
:10206000AF92BF92CF92DF92EF92FF920F931F93A6
:10207000DF93CF93CDB7DEB7A0970FB6F894DEBF4E
:102080000FBECDBF7C018C010B5E1E4FD8018C9121
:10209000883208F458C27E2C6F2CC7010E944F0A68
:1020A0004E010894811C911CC40160E071E00E9403
:1020B0001F21F8E0AF2EB12CAC0EBD1EC50160E0B3
:1020C00071E00E941F21F701838194818230910584
:1020D00009F039C12EE131E0E20EF31ED7016C9117
:1020E000E2EEFEEFEE0EFF1EE2E0AE2EA60ED701F0
:1020F00012968C91482F552747FD5095D801F7012E
:10210000EA0DF11D85A190E08417950769F426A1D9
:1021100030E0F70183A1992787FD909528173907AB
:1021200019F4AA9411E005C0A3948C91A81638F371
:1021300010E04A2D4F5F872D962D0E94240A11230F
:1021400089F08A2D90E02EE131E0E20EF31ED701F6
:102150002C91E2EEFEEFEE0EFF1E821B9109889796
:1021600044F4DCC0F701EB5EFE4F4081403F08F0D5
:10217000AAC08E010F5F1F4FC80160E071E00E948E
:102180003921CE01089660E071E00E943921C80132
:1021900062E00E94C120C80161E271E00E94D42087
:1021A000C8016BE30E94C120BB24680128C00B2D2D
:1021B00010E0F701E00FF11FE85EFE4F80818823F9
:1021C000E9F0C60160E50E94C120C6016B2D0E94A6
:1021D0009520C60164E271E00E94D420000F111F17
:1021E0000E0D1F1DD80153966D917C915497C60119
:1021F0000E946420C6016BE30E94C120B394F701E2
:1022000081A1B816A0F2CE01019666E271E00E94AB
:10221000D4208E01085F1F4FC8016BE30E94C120CC
:10222000C80169E271E00E94D420D70112966C9136
:10223000772767FD7095C8010E946420C8016BE391
:102240000E94C120C8016DE271E00E94D420F70114
:1022500063A1772767FD7095C8010E946420C801BB
:102260006BE30E94C12027E131E0E20EF31ED701AB
:102270008C91E9EEFEEFEE0EFF1E882349F0C801B7
:1022800061E371E00E94D420C8016BE30E94C12089
:102290008E01085F1F4FC80163E00E94C120C80182
:1022A0006AE00E94C120F701E25EFE4FC701608133
:1022B0004A2D9E012F5F3F4F0E94041081E0D701FD
:1022C00092968C931CC12EE131E0E20EF31ED701F1
:1022D0006C9122EE3EEFE20EF31E6230F8F08A2D92
:1022E00090E08F3E9105D4F0461B408370E06B5D1B
:1022F0007F4F6E0D7F1D50E04F5F5F4FC70185968A
:102300000E94DB0246E151E0E40EF51E81E0D701B8
:102310008C93EAEEFEEFEE0EFF1EF1C084EA94E02D
:1023200062E00E94821B84EA94E063E371E00E9411
:10233000BD1C84EA94E063E00E94821B872D962DE9
:102340000E940A0CDCC0019709F0D7C0D8018C911B
:10235000883208F4D2C0C40162E00E94C12066E164
:10236000C62ED12CCC0EDD1EC601B7010E943D0C3D
:10237000C6010E94DE0BC6010E946E0A882309F482
:10238000D3C0C6010E94B50C882309F4CDC08E01CC
:10239000015F1F4FC80160E071E00E941F21C8016A
:1023A00066E271E00E943921C601B8010E94740BF7
:1023B000C4016BE571E00E94D420C4016BE30E946C
:1023C000C120C601B4010E94550FC5016BE30E94F4
:1023D000C120C601B5010E94340FC50163E00E940F
:1023E000C120C5016AE00E94C120C701B401A80153
:1023F00095010E94E80FC8010E941F2275C00B2D95
:1024000010E0F701E00FF11FE85EFE4F80818823A6
:10241000E1F0C6016EE571E00E94D420C6016B2D8B
:102420000E949520C60164E271E00E94D420000F52
:10243000111F0E0D1F1DF80163897489C6010E94CA
:102440006420C6016BE30E94C120B394D70191962A
:102450008C91B816A0F2CE01019666E271E00E945E
:10246000D4208E01085F1F4FC8016BE30E94C1207A
:10247000C80169E271E00E94D420F70162817727E8
:1024800067FD7095C8010E946420C8016BE30E943B
:10249000C12027E131E0E20EF31ED7018C91E9EE75
:1024A000FEEFEE0EFF1E882349F0C80161E371E0E4
:1024B0000E94D420C8016BE30E94C1208E01085FF6
:1024C0001F4FC80163E00E94C120C8016AE00E945A
:1024D000C120F701EB5EFE4FC70160E040819E0125
:1024E0002F5F3F4F0E94041081E0D70192968C939A
:1024F000CE0146960E94D80F02C0F70112A226E133
:1025000031E0E20EF31ED7018C91882321F4872D50
:10251000962D0E940A0CCE0108960E941F22CE0121
:1025200001960E941F220FC08E010F5F1F4FC8012E
:1025300060E671E00E94D420C8016BE30E94C120D4
:10254000BB24680183CFA0960FB6F894DEBF0FBE00
:10255000CDBFCF91DF911F910F91FF90EF90DF9052
:10256000CF90BF90AF909F908F907F906F90089585
:102570001F920F920FB60F9211242F933F934F93F8
:102580005F936F937F938F939F93AF93BF93EF93DB
:10259000FF93E0917E02F0917F020995FF91EF9108
:1025A000BF91AF919F918F917F916F915F914F916B
:1025B0003F912F910F900FBE0F901F901895813073
:1025C0009105B1F46F5F7F4FE1F480E892E060E540
:1025D00070E040E050E00E9429088FE892E065ED4D
:1025E00071E00E941F2187E992E00E94A40C0895E7
:1025F000892B39F46F5F7F4F21F48FE892E00E94BE
:102600001F22089580E090E06FEF7FEF0E94DF12BD
:10261000089581E090E06FEF7FEF0E94DF12089550
:10262000FF920F931F93CF93DF93F82E04EA14E0E9
:10263000C80166ED71E00E94BD1CC8016F2D4AE023
:1026400050E00E94391CC80161EE71E00E94BD1C7F
:10265000CF2DD0E093E0CC0FDD1F9A95E1F7FE017E
:10266000E754FC4F60817181C8014AE050E00E944C
:102670008B1CC80165EE71E00E94BD1CC854DC4F84
:102680006881772767FD7095C8014AE050E00E9495
:102690008B1CC8016AEE71E00E94C01CDF91CF91D3
:1026A0001F910F91FF900895EF92FF920F931F9348
:1026B000DF93CF93CDB7DEB762970FB6F894DEBF46
:1026C0000FBECDBF8E01075F1F4F8FE892E0B801AC
:1026D0004AE050E023E030E00E94D41FC8016AEED7
:1026E00071E00E94CD020E948802F82EDE01119650
:1026F000EFE5F2E088E001900D928150E1F78FE87C
:1027000092E061E070E00E94601F813421F000E0FF
:1027100010E0EE2425C080E090E06AEE71E00E94B7
:10272000CD020E948802E82E80E090E06AEE71E01F
:102730000E94CD020E9488028C01EB829D838C83D3
:10274000EF2DF0E033E0EE0FFF1F3A95E1F7EA548A
:10275000FC4FDE01119688E00D9001928150E1F767
:102760008FE892E061E070E00E94601F823599F48A
:10277000EB821D830C83EF2DF0E023E0EE0FFF1FB3
:102780002A95E1F7EA54FC4FDE01119688E00D909E
:1027900001928150E1F78F2D0E9410138091060461
:1027A00090E001962F2D30E0821793071CF4F394EC
:1027B000F092060462960FB6F894DEBF0FBECDBF4E
:1027C000CF91DF911F910F91FF90EF9008950E949C
:1027D000F21D9B01AC018091070490910804A09127
:1027E0000904B0910A04281739074A075B0748F41F
:1027F00080910B0490910C04019690930C048093AB
:102800000B04209307043093080440930904509369
:102810000A04CA01B90128EE33E040E050E00E940A
:102820006E24C90108951F9311E017C084EA94E053
:102830000E94431A682F8A3049F08B301CF4882399
:1028400029F007C08D3011F0833219F410939602ED
:1028500004C08FE892E00E94C12084EA94E00E94C4
:10286000121A892B19F71F91089560918E028DE03D
:102870000E94FD1E10928E020895EF92FF921F9308
:10288000CF93DF937C018FE892E064E40E94CF1F36
:10289000182F25C08FE892E00E94601FC82FD0E05B
:1028A000CC0FDD1FCE0DDF1D60E08881998197FF81
:1028B00061E08BE00E94FD1E888199812FE18134C7
:1028C00092075CF068EE73E00E945B24882777FD36
:1028D0008095982F0E94261E02C00E944C1E1F5FEA
:1028E000612F70E080919302909194028617970770
:1028F00088F6DF91CF911F91FF90EF900895EF92AE
:10290000FF920F931F938C017B018BE061E00E948B
:10291000FD1E8091390290913A029C01029FC001F4
:10292000039F900D129F900D11240E944C1E8BE06E
:1029300060E00E94FD1E8091390290913A029C0154
:10294000E29EC001E39E900DF29E900D11240E9424
:102950004C1E1F910F91FF90EF90089580E00E9410
:102960003D1D089580E06DE278E141E050E00E9475
:102970001A1D08958FE892E061E070E00E94601FE8
:10298000813511F40E94AE148FE892E061E070E0AE
:102990000E94601F853411F40E94B21408952F9292
:1029A0003F924F925F926F927F928F929F92AF92DF
:1029B000BF92CF92DF92EF92FF920F931F93DF931C
:1029C000CF93CDB7DEB7ED970FB6F894DEBF0FBE4D
:1029D000CDBF8FE892E061E070E00E94601F823519
:1029E00009F0E6C07E010894E11CF11CC70165ED09
:1029F00071E00E941F218E01085F1F4FC8016AEE1F
:102A000071E00E941F218FE892E0B80142E050E09F
:102A10000E94931FB82EC8010E941F22AA2486E19B
:102A2000282E312C2C0E3D1E67010BE2402E512C1E
:102A30004C0E5D1E1DE1612E712C6C0E7D1EB4E2EC
:102A40008B2E912C8C0E9D1E3FC0C60162E070E063
:102A50000E94601F8D3309F099C0C301B60141E0A7
:102A600050E021E030E00E94B521C3010E94821FA6
:102A7000162FC3010E941F22C401B60143E050E09B
:102A80000E94FC21C4010E94821FE12FF0E0EE0FA2
:102A9000FF1FEC0DFD1D72AB61ABC40112C0C6017E
:102AA00062E070E00E94601F8D3369F4C201B601DC
:102AB00042E050E00E94FC21C2010E94821FA62E2B
:102AC000C2010E941F22B02E0B2D112707FD109569
:102AD00078010894E11CF11C8FE892E0B7010E9494
:102AE000601F843409F45BC08FE892E064E40E94C4
:102AF000CF1FE816F9060CF052C0CE010F966AEE11
:102B000071E00E941F210E5F1F4F8FE892E0BE010F
:102B1000615F7F4FA8010E94931F082FCE010F967F
:102B20000E941F22202F332727FD3095215030404F
:102B3000C1016FE872E0A7010E94B521C601B10191
:102B40000E940822C1010E941F22C60160E070E0BD
:102B50000E94601F8035D1F478CFC7010E943D14D8
:102B600062E070E080E090E00E94261E1F5F1A1570
:102B7000A0F30E94B21484EA94E06FE872E00E942D
:102B8000061DCE0101960E941F2212C0C60160E000
:102B900070E00E94601F823509F095CF80CF0E94BF
:102BA000AE1410E052E3E52EF12CEC0EFD1EDFCF4B
:102BB000ED960FB6F894DEBF0FBECDBFCF91DF917B
:102BC0001F910F91FF90EF90DF90CF90BF90AF904B
:102BD0009F908F907F906F905F904F903F902F903D
:102BE0000895EF92FF920F931F93CF93DF937C0191
:102BF0000E94AE1400E010E030C081E090E06FE190
:102C000070E00E947F14E70123C08133A1F0863475
:102C100069F08033E1F481E090E063E070E00E94CD
:102C20007F1481E090E063E070E00FC081E090E00D
:102C300063E070E004C083E090E061E070E00E9437
:102C40007F1483E090E061E070E00E947F142196A1
:102C500088818823D1F60F5F1F4F8091370290E063
:102C60000817190754F20E94B214DF91CF911F91F7
:102C70000F91FF90EF900895EF92FF920F931F93A3
:102C8000DF93CF93CDB7DEB7C854D0400FB6F894DA
:102C9000DEBF0FBECDBF8FE892E061E070E00E9422
:102CA000601F8437F9F48E010C5F1F4FC8016FE875
:102CB00072E042E050E00E94FC21C8017E010894CD
:102CC000E11CF11CB70143E050E020E030E00E943D
:102CD000D41FC8010E941F22C7010E94880280934E
:102CE000380226C08FE892E061E070E00E94601F29
:102CF000823729F58E01055F1F4FC8016FE872E02A
:102D000042E050E00E94FC21C8017E010894E11CD1
:102D1000F11CB70143E050E020E030E00E94D41FF6
:102D2000C8010E941F22C7010E94880280933702B7
:102D300084EA94E06FE872E00E94061DA5C08FE867
:102D400092E061E070E00E94601F833709F045C0A7
:102D50008DE061E00E94FD1E8E010E5E1F4FC801D6
:102D60006FE872E042E050E00E94FC21C801BE0121
:102D7000645C7F4F4DE050E020E030E00E94D41FC3
:102D8000C8010E941F2280919302909194020F9794
:102D9000A8F08E01075E1F4FC8016FE872E04EE099
:102DA00050E00E94FC21C8010E94821F70933A02E9
:102DB00060933902C8010E941F2206C084EA91E094
:102DC00090933A0280933902CE01CC960E94F1157D
:102DD0008DE060E00E94FD1EABCF8FE892E061E0E5
:102DE00070E00E94601F803709F04EC090E2E92E2B
:102DF000F12CEC0EFD1EC7016CEE71E00E941F214C
:102E00008E01095D1F4FC801609138024AE00E949F
:102E10008321C701B8010E94E420C8010E941F223B
:102E2000C70167EF71E00E94D4208E01025D1F4F41
:102E3000C801609137024AE00E948321C701B801AE
:102E40000E94E420C8010E941F22C70167EF71E0C1
:102E50000E94D4208E010B5C1F4F6091390270914B
:102E60003A02C8014AE00E945221C701B8010E94FB
:102E7000E420C8010E941F2284EA94E0B7010E9466
:102E8000061DC7010E941F22C85BDF4F0FB6F894D2
:102E9000DEBF0FBECDBFCF91DF911F910F91FF908D
:102EA000EF900895DF93CF9300D0CDB7DEB78FE8D2
:102EB00092E060E070E00E94601F8F3309F056C01E
:102EC00084EA94E06FE30E94821B84EA94E068E65F
:102ED00070E00E945F1B84EA94E066E50E94821B1A
:102EE00084EA94E060E20E94821B84EA94E069E64E
:102EF0000E94821B84EA94E060E20E94821B84EAC2
:102F000094E062E50E94821B84EA94E060E20E9401
:102F1000821B84EA94E064E70E94821B84EA94E0C6
:102F200060E20E94821B84EA94E068E50E94821BB2
:102F300084EA94E060E20E94821B84EA94E066E402
:102F40000E94821B84EA94E060E20E94821B84EA71
:102F500094E063E50E94821B84EA94E060E20E94B0
:102F6000821B84EA94E065ED71E00CC08FE892E08A
:102F700060E070E00E94601F863539F484EA94E0D6
:102F800069EF71E00E94C01C63C08FE892E060E0CE
:102F900070E00E94601F823571F48091D30490919B
:102FA000D404009711F487ED94E0BE016F5F7F4F6A
:102FB000681B790B31C08FE892E060E070E00E94FE
:102FC000601F893649F487E992E00E94C208892B84
:102FD00089F40E943C163CC08FE892E060E070E00B
:102FE0000E94601F833569F487E992E00E94C2085D
:102FF000892B21F081E0809396022AC00E94CF1491
:1030000027C08FE892E060E070E00E94601F843784
:1030100051F40E94E713BC0184EA94E04AE050E0D6
:103020000E949E1C15C08FE892E060E070E00E9454
:10303000601F883519F40E94BA140AC08FE892E024
:1030400060E070E00E94601F863411F40E94541307
:103050000F900F90CF91DF910895EF92FF920F9311
:103060001F93DF93CF9300D0CDB7DEB780910D04CF
:103070008823A1F48DE094E00E94211B892B71F03C
:103080000E94001E60931504709316048093170429
:10309000909318048DE094E00E942B1B0E94001E68
:1030A0007B018C0182E00E94301F9C0180911504FD
:1030B00090911604A0911704B0911804B801A701CB
:1030C000481B590B6A0B7B0BDB01CA01E09215040C
:1030D000F092160400931704109318044A35510512
:1030E00061057105E4F081305DE7950750E0A507C3
:1030F00050E0B50714F081E09DE79A838983232B84
:1031000039F089819A81909581959F4F9A8389831F
:1031100080E892E0BE016F5F7F4F0E9405070F902D
:103120000F90CF91DF911F910F91FF90EF90089535
:103130001F93809196028823F9F0109296020E94C4
:10314000521780919602882331F48FE892E065ED62
:1031500071E00E94392181E080938E020DC087E9E1
:1031600092E06AE174E00E94660A80931904882361
:1031700021F010938E0201C011E080E892E06AE134
:1031800074E00E945107882351F71F91089584EA43
:1031900094E040E051EE60E070E00E948B1982E024
:1031A00060E00E94911E8BE061E00E94911E8DE024
:1031B00061E00E94911EE1E8F0E080E180831092DE
:1031C000800082E080937D0288EA91E690937C0201
:1031D00080937B02909387008093860082E18083B6
:1031E00085E394E190937F0280937E0281E0809357
:1031F0006F000E94B2148FE892E064E170E00E94D8
:103200001B2008951F920F920FB60F9211242F9337
:103210003F934F938F939F93EF93FF938091C000C1
:1032200082FD1DC04091C60020915C0430915D0478
:103230002F5F3F4F2F73307080915E0490915F0439
:103240002817390771F0E0915C04F0915D04E45EA9
:10325000FB4F408330935D0420935C0402C0809157
:10326000C600FF91EF919F918F914F913F912F91C8
:103270000F900FBE0F901F901895E091B004F09141
:10328000B104E05CFF4F8191919120813181821BDB
:10329000930B8F739070892B11F00E941314089573
:1032A0001F920F920FB60F9211242F933F938F937B
:1032B0009F93EF93FF932091A0043091A1048091FC
:1032C000A2049091A3042817390731F48091C1001A
:1032D0008F7D8093C10014C0E091A204F091A304FB
:1032E000E05AFB4F20818091A2049091A3040196A3
:1032F0008F7390709093A3048093A2042093C600D0
:10330000FF91EF919F918F913F912F910F900FBE61
:103310000F901F901895AF92BF92DF92EF92FF929D
:103320000F931F93CF93DF93EC017A018B01DD2480
:10333000403081EE580780E0680780E0780711F0A0
:10334000DD24D39491E0A92EB12CEC89FD89DD20F8
:1033500069F0C50108A002C0880F991F0A94E2F71E
:10336000808360E079E08DE390E005C0108260E842
:1033700074E88EE190E0A80197010E946E2421502C
:10338000304040405040569547953795279580E10D
:103390002030380720F0DD2011F0DD24D6CFE88979
:1033A000F9893083EA89FB89208319A2EE89FF8994
:1033B000408121E030E0C9010C8C02C0880F991FC8
:1033C0000A94E2F7482B4083EE89FF894081C901C6
:1033D0000D8C02C0880F991F0A94E2F7482B408396
:1033E000EE89FF894081C9010E8C02C0880F991FA8
:1033F0000A94E2F7482B4083EE89FF8980810F8C85
:1034000002C0220F331F0A94E2F72095282320835D
:10341000DF91CF911F910F91FF90EF90DF90BF90C0
:10342000AF900895DC011C96ED91FC911D97E05C36
:10343000FF4F2191319180819181281B390B2F738E
:103440003070C9010895DC011C96ED91FC911D9727
:10345000E05CFF4F20813181E054F040DF01AE5B42
:10346000BF4F8D919C9111972817390719F42FEFB1
:103470003FEF07C08D919C91E80FF91F8081282FA5
:1034800030E0C9010895DC011C96ED91FC911D9777
:10349000E05CFF4F20813181E054F040DF01AE5B02
:1034A000BF4F8D919C9111972817390719F42FEF71
:1034B0003FEF10C08D919C911197E80FF91F20816B
:1034C0008D919C91119701968F73907011969C939A
:1034D0008E9330E0C9010895DC0191968C9191970B
:1034E000882339F05496ED91FC915597808186FFA1
:1034F000F9CF91961C920895CF93DF93EC01EE855E
:10350000FF85E05CFF4F20813181E054F0402F5F68
:103510003F4F2F733070DF01AE5BBF4F8D919C9199
:10352000119728173907D1F3E05CFF4F8081918113
:10353000E054F040E80FF91F6083EE85FF85E05C02
:10354000FF4F31832083EE89FF89208181E090E065
:103550000F8C02C0880F991F0A94E2F7282B208352
:1035600081E089A3EC89FD8980818064808381E08A
:1035700090E0DF91CF9108951092A7041092A604D5
:1035800088EE93E0A0E0B0E08093A8049093A904B3
:10359000A093AA04B093AB048BE692E09093A504A9
:1035A0008093A4048CE194E09093B1048093B004E0
:1035B00080E694E09093B3048093B20485EC90E0AD
:1035C0009093B5048093B40484EC90E09093B70496
:1035D0008093B60480EC90E09093B9048093B80493
:1035E00081EC90E09093BB048093BA0482EC90E06D
:1035F0009093BD048093BC0486EC90E09093BF044C
:103600008093BE0484E08093C00483E08093C1046F
:1036100087E08093C20485E08093C30481E08093B7
:10362000C4040895CF93DF930E94561E0E94C718CA
:10363000CDE3D9E10E9498182097E1F30E943D194B
:10364000F9CFFC0120E030E08081882311F421E0F3
:1036500030E0C9010895FC0181E0808308950E9453
:103660005B0108950E94B1000895CF92DF92EF921E
:10367000FF920F931F93CF93DF937C016B018A011D
:10368000C0E0D0E00FC0D6016D916D01D701ED9182
:10369000FC910190F081E02DC7010995C80FD91F59
:1036A000015010400115110571F7CE01DF91CF9146
:1036B0001F910F91FF90EF90DF90CF900895EF92C0
:1036C000FF920F931F93CF93DF937C018B01C0E098
:1036D000D0E0F8010F5F1F4F6491662359F0D701C6
:1036E000ED91FC910190F081E02DC7010995C80F83
:1036F000D91FEFCFCE01DF91CF911F910F91FF9096
:10370000EF900895DC01ED91FC910190F081E02DA6
:1037100009950895EF92FF920F931F938C01DC019E
:10372000ED91FC910190F081E02D6DE009957C0117
:10373000D801ED91FC910190F081E02DC8016AE083
:1037400009959C012E0D3F1DC9011F910F91FF90FE
:10375000EF900895CF93DF93EC016115710519F493
:1037600020E030E00FC0DB010D900020E9F7119759
:10377000A61BB70BE881F9810280F381E02DAD0132
:1037800009959C01C901DF91CF9108954F925F92F5
:103790007F928F929F92AF92BF92CF92DF92EF92E1
:1037A000FF920F931F93DF93CF93CDB7DEB7A1970F
:1037B0000FB6F894DEBF0FBECDBF2C01742ECB0127
:1037C000223008F42AE019A231E2C32ED12CCC0E0B
:1037D000DD1E822E9924AA24BB24672D752FA501F6
:1037E00094010E946E2479018A01C801B701A501E4
:1037F00094010E943C24472D461B0894C108D1081F
:103800004A3014F4405D01C0495CF6014083E11484
:10381000F1040105110521F07E2C5F2DC801DDCFDB
:10382000C201B6010E94AA1BA1960FB6F894DEBF92
:103830000FBECDBFCF91DF911F910F91FF90EF9001
:10384000DF90CF90BF90AF909F908F907F905F90D0
:103850004F900895DC012115310541F4ED91FC9163
:103860000190F081E02D642F099508950E94C61BF8
:103870000895EF92FF920F931F939A01E62EFF2473
:1038800000E010E0B801A7010E942A1C1F910F91CF
:10389000FF90EF900895CF92DF92EF92FF920F93F7
:1038A0001F93CF93DF93EC016A017B012115310552
:1038B00041F4E881F9810190F081E02D642F0995B0
:1038C0001FC02A303105D1F477FF17C0E881F98194
:1038D0000190F081E02D6DE209958C014427552778
:1038E000BA014C195D096E097F09CE012AE00E94D8
:1038F000C61B9801280F391F04C02AE00E94C61B6E
:103900009C01C901DF91CF911F910F91FF90EF9022
:10391000DF90CF900895EF92FF920F931F937B015A
:103920009A010027F7FC0095102FB801A7010E940B
:103930004B1C1F910F91FF90EF900895CF92DF9253
:10394000EF92FF920F931F936C017B019A01002766
:10395000F7FC0095102FB801A7010E944B1C8C01A9
:10396000C6010E948A1B080F191FC8011F910F91E1
:10397000FF90EF90DF90CF9008950E94AA1B0895CA
:10398000EF92FF920F931F937C010E94AA1B8C0160
:10399000C7010E948A1B080F191FC8011F910F91B0
:1039A000FF90EF900895AF92BF92CF92DF92EF9287
:1039B000FF920F931F93CF93DF935C016B01EE2473
:1039C000FF24C0E0D0E010C0D501ED91FC91008152
:1039D0001181C601BE010E94711F682FC501F80147
:1039E0000995E80EF91E2196F60184819581C81784
:1039F000D90750F3C701DF91CF911F910F91FF902D
:103A0000EF90DF90CF90BF90AF900895EF92FF922C
:103A10000F931F937C010E94D31C8C01C7010E944D
:103A20008A1B9C01200F311FC9011F910F91FF902C
:103A3000EF900895823000F5E82FF0E0EE0FFF1FC1
:103A4000EA53FB4F71836083882319F08130A1F41E
:103A500008C0809169008C7F842B80936900E89A6C
:103A6000089580916900440F551F440F551F837FAF
:103A7000842B80936900E99A0895823080F488232A
:103A800019F0813021F402C0E89801C0E998E82FCC
:103A9000F0E0EE0FFF1FEA53FB4F118210820895F2
:103AA0001F920F920FB60F9211242F933F934F93B3
:103AB0005F936F937F938F939F93AF93BF93EF9396
:103AC000FF938091C6049091C704892B29F0E0915F
:103AD000C604F091C7040995FF91EF91BF91AF9192
:103AE0009F918F917F916F915F914F913F912F9116
:103AF0000F900FBE0F901F9018951F920F920FB648
:103B00000F9211242F933F934F935F936F937F9363
:103B10008F939F93AF93BF93EF93FF938091C804CC
:103B20009091C904892B29F0E091C804F091C9044F
:103B30000995FF91EF91BF91AF919F918F917F91E7
:103B40006F915F914F913F912F910F900FBE0F900A
:103B50001F9018951F920F920FB60F9211242F935A
:103B60003F938F939F93AF93BF938091CE04909197
:103B7000CF04A091D004B091D1043091D204019629
:103B8000A11DB11D232F2D5F2D3720F02D5701963C
:103B9000A11DB11D2093D2048093CE049093CF0435
:103BA000A093D004B093D1048091CA049091CB0427
:103BB000A091CC04B091CD040196A11DB11D8093BC
:103BC000CA049093CB04A093CC04B093CD04BF91CE
:103BD000AF919F918F913F912F910F900FBE0F90BA
:103BE0001F9018958FB7F8942091CE043091CF0490
:103BF0004091D0045091D1048FBFB901CA010895FA
:103C00009FB7F8942091CA043091CB044091CC0422
:103C10005091CD0486B5A89B06C08F3F21F02F5F41
:103C20003F4F4F4F5F4F9FBF542F432F322F2227BD
:103C3000280F311D411D511D82E0220F331F441FEB
:103C4000551F8A95D1F7B901CA010895EF92FF92E5
:103C50000F931F93CF93DF937B018C010E94001E73
:103C6000EB010EC00E94001E6C1B7D0B685E734052
:103C7000C8F30894E108F10801091109C851DC4FA3
:103C8000E114F1040105110569F7DF91CF911F914E
:103C90000F91FF90EF900895019739F0880F991FC9
:103CA000880F991F02970197F1F70895789484B5CA
:103CB000826084BD84B5816084BD85B5826085BD28
:103CC00085B5816085BDEEE6F0E08081816080830E
:103CD000E1E8F0E0108280818260808380818160F1
:103CE0008083E0E8F0E0808181608083E1EBF0E0B8
:103CF000808184608083E0EBF0E08081816080835C
:103D0000EAE7F0E080818460808380818260808344
:103D10008081816080838081806880831092C1006F
:103D20000895CF93DF93482F50E0CA0189559F4FE4
:103D3000FC0134914D565F4FFA018491882369F15B
:103D400090E0880F991FFC01EB58FF4FA591B491AB
:103D5000FC01E158FF4FC591D491662351F42FB770
:103D6000F8948C91932F909589238C938881892343
:103D70000BC0623061F42FB7F8948C91932F90951B
:103D800089238C938881832B88832FBF06C09FB79C
:103D9000F8948C91832B8C939FBFDF91CF910895E2
:103DA000833071F0843028F48130A1F0823021F525
:103DB00014C08630B1F08730D1F08430E9F404C00B
:103DC000809180008F7703C0809180008F7D8093E9
:103DD0008000089584B58F7702C084B58F7D84BD3F
:103DE00008958091B0008F778093B00008958091FE
:103DF000B0008F7D8093B0000895FF920F931F93C2
:103E0000F62E482F50E0CA0185549F4FFC012491A3
:103E1000CA0189559F4FFC0114914D565F4FFA011D
:103E200004910023C9F0222319F0822F0E94D01E92
:103E3000E02FF0E0EE0FFF1FE158FF4FA591B49186
:103E40009FB7F894FF2021F48C911095812302C034
:103E50008C91812B8C939FBF1F910F91FF900895A0
:103E60000F931F93482F50E0CA0185549F4FFC01C8
:103E70002491CA0189559F4FFC0104914D565F4F13
:103E8000FA011491112319F420E030E015C0222327
:103E900019F0822F0E94D01E812F90E0880F991F69
:103EA00087579F4FFC01A591B4918C9120E030E0A1
:103EB000802311F021E030E0C9011F910F91089596
:103EC000FC01848195816817790748F40190F0819D
:103ED000E02D309721F0E60FF71F8081089580E0F4
:103EE0000895FC01848195816817790748F4019051
:103EF000F081E02D309721F0E60FF71F80810895C3
:103F000080E00895FC0180819181009729F420E0F0
:103F100030E040E050E004C00E94A6029B01AC01EA
:103F2000B901CA010895CF93DF93FC01DB018481BD
:103F300095814817590760F4C081D1816D917C91BA
:103F4000CE01840F951F0E9415039C01009719F460
:103F50002FEF3FEF02C02C1B3D0BC901DF91CF912A
:103F60000895CF93DF93FC01848195814817590709
:103F700068F4C081D181772767FD7095CE01840FE9
:103F8000951F0E94F4029C01009719F42FEF3FEF58
:103F900002C02C1B3D0BC901DF91CF91089540E079
:103FA00050E00E94B11F08950F931F93CF93DF93AA
:103FB000FC018B0141155105F9F061157105E1F026
:103FC000848195812817390718F0FB01108214C0ED
:103FD00041505040EC01C21BD30B4C175D0708F455
:103FE000EA0160817181620F731FC801AE010E94F6
:103FF0000603C00FD11F1882DF91CF911F910F913F
:1040000008950F931F93CF93DF93EC018B016F5FA4
:104010007F4F888199810E94B301009711F480E05D
:1040200005C0998388831B830A8381E0DF91CF9148
:104030001F910F910895CF93DF93EC0188819981AF
:10404000892B29F08A819B818617970760F4CE011E
:104050000E940120882341F08C819D81892B19F4D5
:10406000E881F981108281E0DF91CF910895EF928C
:10407000FF920F931F93CF93DF93EC017B016C8131
:104080007D81E114F104C1F04115510599F08A01D7
:10409000060F171FB8010E941B20882369F0888132
:1040A00099812C813D81820F931FB7010E94FF02ED
:1040B0001D830C8381E001C080E0DF91CF911F91CF
:1040C0000F91FF90EF900895EF92FF920F931F933F
:1040D000DF93CF93CDB7DEB727970FB6F894DEBF47
:1040E0000FBECDBF7C01CB018E010F5F1F4FB8010A
:1040F0004AE050E00E946103F80101900020E9F7D6
:104100003197E01BF10BC701B801AF010E943720C6
:1041100027960FB6F894DEBF0FBECDBFCF91DF91CB
:104120001F910F91FF90EF900895EF92FF920F93E0
:104130001F93DF93CF9300D000D0CDB7DEB77C01C3
:10414000862F90E08E010F5F1F4FB8014AE050E0CC
:104150000E946103F80101900020E9F73197E01B0C
:10416000F10BC701B801AF010E9437200F900F90EB
:104170000F900F90CF91DF911F910F91FF90EF90D3
:104180000895DF93CF9300D0CDB7DEB769831A824D
:10419000BE016F5F7F4F41E050E00E9437200F90DB
:1041A0000F90CF91DF9108956115710511F480E0B2
:1041B0000895DB010D900020E9F71197A61BB70BBE
:1041C000AD010E9437200895FB0160817181448117
:1041D00055810E9437200895CF93DF93EC018881A9
:1041E0009981009711F00E945B01198218821D824B
:1041F0001C821B821A82DF91CF910895EF92FF9269
:104200000F931F93CF93DF93EC017B018A01BA01D7
:104210000E941B20882321F4CE010E94EC2007C0BD
:104220001D830C8388819981B7010E94FF02CE0112
:10423000DF91CF911F910F91FF90EF900895CF9351
:10424000DF93EC01198218821B821A821D821C8264
:104250001E826115710551F0DB010D900020E9F718
:104260001197A61BB70BAD010E94FE20DF91CF91E5
:1042700008950F931F93182F092F6115710559F099
:10428000DB010D900020E9F71197A61BB70BAD01DC
:104290000E94FE2002C00E94EC20812F902F1F91CF
:1042A0000F910895EF92FF920F931F93DF93CF9397
:1042B000CDB7DEB762970FB6F894DEBF0FBECDBFA5
:1042C0008C01CB01F80111821082138212821582B7
:1042D000148216827E010894E11CF11CB70150E0A3
:1042E0000E946103C801B7010E94392162960FB68E
:1042F000F894DEBF0FBECDBFCF91DF911F910F911C
:10430000FF90EF900895EF92FF920F931F93DF932A
:10431000CF93CDB7DEB729970FB6F894DEBF0FBEA7
:10432000CDBF8C01862FF801118210821382128278
:1043300015821482168290E07E010894E11CF11C23
:10434000B70150E00E949F03C801B7010E943921C4
:1043500029960FB6F894DEBF0FBECDBFCF91DF9187
:104360001F910F91FF90EF900895BF92CF92DF922F
:10437000EF92FF920F931F93CF93DF93082FB92EE5
:104380006B017A01E9012417350710F4EA0179017C
:10439000802F9B2D60E372E00E941F21D6011496AE
:1043A0008D919C9115978E159F05D0F08C179D07C8
:1043B00008F4EC01D601ED91FC911197EC0FFD1F73
:1043C000108110826D917C916E0D7F1D802F9B2D31
:1043D0000E943921D601ED91FC91EC0FFD1F108355
:1043E000802F9B2DDF91CF911F910F91FF90EF9028
:1043F000DF90CF90BF9008950F931F938C01FB0126
:10440000248135810E94B521C8011F910F91089523
:10441000CF93DF93EC01FB018617970761F0608172
:1044200071816115710529F0448155810E94FE203A
:1044300002C00E94EC20CE01DF91CF910895FC01D3
:10444000808191810E945B0108955058BB27AA2763
:104450000ED071C162D130F067D120F031F49F3FAE
:1044600011F41EF457C10EF4E095E7FB4DC1E92F9E
:1044700073D180F3BA17620773078407950718F0A2
:1044800071F49EF58BC10EF4E0950B2EBA2FA02D82
:104490000B01B90190010C01CA01A0011124FF27F1
:1044A000591B99F0593F50F4503E68F11A16F040EC
:1044B000A22F232F342F4427585FF3CF46953795EB
:1044C0002795A795F0405395C9F77EF41F16BA0BB0
:1044D000620B730B840BBAF09150A1F0FF0FBB1F5E
:1044E000661F771F881FC2F70EC0BA0F621F731FA7
:1044F000841F48F4879577956795B795F7959E3F04
:1045000008F0B3CF9395880F08F09927EE0F979591
:10451000879508950CD00FC107D140F0FED030F040
:1045200021F45F3F19F0F0C0511139C1F3C014D12B
:1045300098F39923C9F35523B1F3951B550BBB276A
:10454000AA2762177307840738F09F5F5F4F220F17
:10455000331F441FAA1FA9F333D00E2E3AF0E0E810
:1045600030D091505040E695001CCAF729D0FE2F5C
:1045700027D0660F771F881FBB1F261737074807EE
:10458000AB07B0E809F0BB0B802DBF01FF279358A4
:104590005F4F2AF09E3F510568F0B6C000C15F3FF3
:1045A000ECF3983EDCF3869577956795B795F7958C
:1045B0009F5FC9F7880F911D9695879597F9089584
:1045C000E1E0660F771F881FBB1F62177307840720
:1045D000BA0720F0621B730B840BBA0BEE1F88F72F
:1045E000E095089504D06894B111D9C00895BCD065
:1045F00088F09F5790F0B92F9927B751A0F0D1F0CC
:10460000660F771F881F991F1AF0BA95C9F712C055
:10461000B13081F0C3D0B1E00895C0C0672F782FCA
:104620008827B85F39F0B93FCCF3869577956795C1
:10463000B395D9F73EF490958095709561957F4F2D
:104640008F4F9F4F0895E89409C097FB3EF49095D3
:104650008095709561957F4F8F4F9F4F9923A9F05B
:10466000F92F96E9BB279395F695879577956795EA
:10467000B795F111F8CFFAF4BB0F11F460FF1BC02E
:104680006F5F7F4F8F4F9F4F16C0882311F096E9C1
:1046900011C0772321F09EE8872F762F05C066236F
:1046A00071F096E8862F70E060E02AF09A95660F28
:1046B000771F881FDAF7880F9695879597F90895E1
:1046C000990F0008550FAA0BE0E8FEEF1616170623
:1046D000E807F907C0F012161306E407F50798F08B
:1046E000621B730B840B950B39F40A2661F0232BA4
:1046F000242B252B21F408950A2609F4A140A69520
:104700008FEF811D811D089597F99F6780E870E004
:1047100060E008959FEF80EC089500240A94161637
:10472000170618060906089500240A94121613069F
:10473000140605060895092E0394000C11F488232D
:1047400052F0BB0F40F4BF2B11F460FF04C06F5F49
:104750007F4F8F4F9F4F089557FD9058440F551F1F
:1047600059F05F3F71F04795880F97FB991F61F0F3
:104770009F3F79F087950895121613061406551F6A
:10478000F2CF4695F1DF08C0161617061806991FD6
:10479000F1CF86957105610508940895E894BB27CB
:1047A00066277727CB0197F908958ADF08F48FEF02
:1047B00008950BD0C0CFB1DF28F0B6DF18F09523F5
:1047C00009F0A2CFA7CF1124EACFC6DFA0F3959FAF
:1047D000D1F3950F50E0551F629FF001729FBB27E8
:1047E000F00DB11D639FAA27F00DB11DAA1F649F94
:1047F0006627B00DA11D661F829F2227B00DA11D47
:10480000621F739FB00DA11D621F839FA00D611DCC
:10481000221F749F3327A00D611D231F849F600DED
:10482000211D822F762F6A2F11249F5750408AF026
:10483000E1F088234AF0EE0FFF1FBB1F661F771FB2
:10484000881F91505040A9F79E3F510570F05CCFF2
:10485000A6CF5F3FECF3983EDCF38695779567959E
:10486000B795F795E7959F5FC1F7FE2B880F911DD0
:104870009695879597F90895629FD001739FF001EF
:10488000829FE00DF11D649FE00DF11D929FF00DE0
:10489000839FF00D749FF00D659FF00D9927729F17
:1048A000B00DE11DF91F639FB00DE11DF91FBD01A2
:1048B000CF011124089597FB092E07260AD077FD12
:1048C00004D02ED006D000201AF4709561957F4F49
:1048D0000895F6F7909581959F4F0895A1E21A2EBD
:1048E000AA1BBB1BFD010DC0AA1FBB1FEE1FFF1F94
:1048F000A217B307E407F50720F0A21BB30BE40BE4
:10490000F50B661F771F881F991F1A9469F760952A
:104910007095809590959B01AC01BD01CF010895E4
:10492000AA1BBB1B51E107C0AA1FBB1FA617B707D5
:1049300010F0A61BB70B881F991F5A95A9F78095F1
:104940009095BC01CD010895EE0FFF1F0590F491E5
:10495000E02D09942F923F924F925F926F927F9237
:104960008F929F92AF92BF92CF92DF92EF92FF927F
:104970000F931F93CF93DF93CDB7DEB7CA1BDB0B2B
:104980000FB6F894DEBF0FBECDBF09942A883988D0
:1049900048885F846E847D848C849B84AA84B984D7
:1049A000C884DF80EE80FD800C811B81AA81B981E3
:1049B000CE0FD11D0FB6F894DEBF0FBECDBFED01F7
:1049C000089510E0C4EDD0E004C0FE010E94A624CA
:0C49D0002296C63DD107C9F7F894FFCF2E
:1049DC000041530025303258003030003000433D48
:1049EC00004C4C3D004C483D00534C3D0053483D61
:1049FC00004D53003D00443D0043503D0053503D9D
:104A0C00004F00427566666572206F766572666C43
:104A1C006F77207768696C652070726F636573734C
:104A2C00696E67207369676E616C004D43005000BE
:104A3C004D550053796E633A2000202D3E2053795A
:104A4C006E63466163743A20002C20436C6F636B79
:104A5C003A20002C20546F6C3A20002C20506174AA
:104A6C00744C656E3A200020002C2050756C7365D8
:104A7C003A20002C20002C206D53746172743A2063
:104A8C00005369676E616C3A20002E2000205B0099
:104A9C005D005061747465726E3A20002050003ACB
:104AAC0020002A5B00005550442046696C746572E6
:104ABC00003B433D003B53463D003B004954506195
:104ACC0072616D733A200020005620332E312E3641
:104ADC00205349474E414C6475696E6F202D2063FD
:104AEC006F6D70696C6564206174204F6374202055
:104AFC003620323031352032303A32353A333100CB
:104B0C00002000D7040000063CA401000000000DAA
:104B1C000FBF08C0082C10000000000D0FBF08C00C
:104B2C00084F0A000000005708BF08C008C1080061
:104B3C0000000000000200000000007C1A351B126F
:084B4C001A431A231A6C1A0027
:00000001FF
