:100000000C9464000C94C71D0C94F41D0C948C008B
:100010000C948C000C948C000C948C000C948C0030
:100020000C948C000C948C000C948C000C948C0020
:100030000C948C000C94F8140C948C000C948C0090
:100040000C94211E0C948C000C94B2190C94001A80
:100050000C948C000C948C000C948C000C948C00F0
:100060000C948C000C948C000000000024002700ED
:100070002A0000000000250028002B0000000000DE
:1000800023002600290004040404040404040202DA
:100090000202020203030303030301020408102007
:1000A0004080010204081020010204081020000012
:1000B0000007000201000003040600000000000029
:1000C000000071156C1B6A1511241FBECFEFD8E01C
:1000D000DEBFCDBF12E0A0E0B1E0E2E4FBE402C08D
:1000E00005900D92AE38B107D9F715E0AEE8B2E051
:1000F00001C01D92AD36B107E1F710E0C6ECD0E0CB
:1001000004C02297FE010E945925C23CD107C9F7BD
:100110000E94C21B0C9494250C9400000F931F9313
:10012000CF93DF93689F8001699F100D789F100D1A
:100130001124C8010E94AA00EC01009729F060E098
:1001400070E0A8010E94E602CE01DF91CF911F91DD
:100150000F910895CF93DF93BC018230910510F485
:1001600062E070E0A0916B05B0916C05ED01E0E0FC
:10017000F0E040E050E021C0888199818617970720
:1001800069F48A819B81309719F09383828304C03C
:1001900090936C0580936B05FE0134C06817790756
:1001A00038F44115510519F08417950708F4AC018E
:1001B000FE018A819B819C01E9012097E9F64115A6
:1001C0005105A9F1CA01861B970B049708F4BA01DF
:1001D000E0E0F0E02AC08D919C911197841795077B
:1001E000F9F46417750781F412968D919C91139719
:1001F000309719F09383828304C090936C058093A9
:100200006B05FD0132964CC0CA01861B970BFD01A0
:10021000E80FF91F6193719302978D939C9340C0EF
:10022000FD01828193819C01D9011097A1F68091F3
:10023000690590916A05892B41F480910D02909196
:100240000E0290936A058093690540910F025091C8
:1002500010024115510541F44DB75EB780910B0274
:1002600090910C02481B590B2091690530916A0549
:10027000CA01821B930B8617970780F0AB014E5F74
:100280005F4F8417950750F0420F531F50936A0534
:1002900040936905F9016193719302C0E0E0F0E0D9
:1002A000CF01DF91CF910895CF93DF93009709F4A9
:1002B00050C0EC0122971B821A82A0916B05B0916D
:1002C0006C05109709F140E050E0AC17BD0708F14C
:1002D000BB83AA83FE0121913191E20FF31FAE1778
:1002E000BF0779F48D919C911197280F391F2E5FCC
:1002F0003F4F3983288312968D919C9113979B834E
:100300008A834115510571F4D0936C05C0936B0538
:1003100020C012968D919C911397AD01009711F01A
:10032000DC01D3CFFA01D383C28321913191E20F53
:10033000F31FCE17DF0769F488819981280F391FD1
:100340002E5F3F4FFA01318320838A819B81938303
:100350008283DF91CF910895A0E0B0E0E2EBF1E07D
:100360000C945F256C01009729F4CB010E94AA0030
:100370006C01C1C08EEF882E8FEF982E8C0C9D1CC7
:100380008601060F171F0815190508F4B2C0F401FD
:10039000A081B181A617B707B8F0A530B10508F460
:1003A000AAC0CD0104978617970708F4A4C0129736
:1003B000A61BB70BF801A193B193D4016D937C9365
:1003C000CF010E94540197C07B01EA1AFB0AEEEFAD
:1003D000FFEFEE0EFF1E36016A0E7B1EC0916B050D
:1003E000D0916C0544245524AA24BB244AC0C615C8
:1003F000D705E1F5488159814E155F05B8F1CA016D
:1004000004978E159F05B0F41296A40FB51FF40142
:10041000B183A0832A813B814114510431F0D20180
:1004200013963C932E93129766C030936C052093DD
:100430006B0561C08A819B81F8019383828342505E
:1004400050404E195F09518340834114510431F0EB
:10045000D20113961C930E93129704C010936C054F
:1004600000936B05F4017183608345C08881998195
:10047000A816B90608F45C012E018A819B819C01B3
:10048000E901209709F0B3CF8091690590916A0541
:1004900086159705E9F4A616B706D0F420910F0249
:1004A000309110022115310541F42DB73EB78091EE
:1004B0000B0290910C02281B390B02171307C8F48A
:1004C00010936A0500936905D4016D937C9313C062
:1004D000CB010E94AA00EC01009759F0F401408181
:1004E0005181B6010E94CB02C6010E9454016E01E7
:1004F00002C0CC24DD24C601CDB7DEB7E0E10C9408
:100500007B25FC0188279927E89421912032E9F383
:10051000293010F02E30C8F32B3241F02D3239F44F
:10052000689404C00E947903820F911D2191205389
:100530002A30C0F31EF4909581959F4F08951F9324
:10054000FC0199278827BC01E89411911032E9F346
:10055000193010F01E30C8F31B3251F01D3249F42F
:10056000689406C00E946403610F711D811D911D76
:10057000119110531A30B0F33EF490958095709518
:1005800061957F4F8F4F9F4F1F9108954EE852E026
:100590000E9411030895FB01DC0102C001900D923D
:1005A00041505040D8F708956817790768F4FB0167
:1005B000DC01E40FF51FA40FB51F02C002900E92DC
:1005C00041505040D8F708950C94CB02DC0101C093
:1005D0006D9341505040E0F70895FB01DC0101901C
:1005E0000D920020E1F70895FB01DC0141505040DD
:1005F00030F08D910190801919F40020B9F7881B13
:10060000990B0895FB01DC014150504048F00190E6
:100610000D920020C9F701C01D9241505040E0F7F3
:100620000895009731F4DA018D919C91009709F4B7
:100630000EC0DC01FB013D912191222319F03217FC
:10064000C9F3FACF332331F4DA011D921C928827C3
:10065000992708951197AF93BF93FB013D91219185
:10066000321771F4332321F488279927119702C098
:100670001E921196FA01A193B0839F918F910895D4
:10068000222369F7EACFFB019F01E8944230C4F0CE
:100690004532B4F44A3029F497FB1EF490958195C5
:1006A0009F4F642F77270E940E25805D8A330CF0C0
:1006B000895D8193CB010097A1F716F45DE2519318
:1006C0001082C9010C94AE05592F482F372F262FC1
:1006D000660F771F881F991F660F771F881F991F46
:1006E000620F731F841F951F660F771F881F991F46
:1006F00008957AE0979F902D879F802D910D11246A
:100700000895FB019F01423074F0453264F4642F78
:1007100077270E940E25805D8A330CF0895D8193D6
:10072000CB010097A1F71082C9010C94AE05AEE091
:10073000B0E0EDE9F3E00C946B250D891E8986E0AD
:100740008C831A8309838FEF9FE79E838D839E019D
:10075000275E3F4FCE0101966F89788DA9010E94D7
:10076000BB032F813885020F131FF80110822E96CC
:10077000E4E00C948725ABE0B0E0E1ECF3E00C940E
:100780005D253C012B015A01FC01178216828381F1
:1007900081FD03C06FEF7FEFC6C19AE0892E1E0175
:1007A0000894211C311CF3012381F20123FD859162
:1007B00023FF81912F01882309F4B2C1853239F4D6
:1007C00023FD859123FF81912F01853229F490E04B
:1007D000B3010E94BE05E7CF982FFF24EE24992491
:1007E000FFE1FF15D0F09B3269F09C3228F4903283
:1007F00059F0933291F40EC09D3249F0903369F470
:1008000041E024C052E0F52A84E0F82A28C098E0AC
:10081000F92A25C0E0E1FE2A22C0F7FC29C0892F71
:1008200080538A3070F4F6FE05C0989C902C1124F9
:10083000980E15C0E89CE02C1124E80EF0E2FF2A87
:100840000EC09E3229F4F6FC6BC140E4F42A07C0C6
:100850009C3619F450E8F52A02C0983649F4F201A2
:1008600023FD959123FF91912F01992309F0B8CF92
:10087000892F8554833018F08052833038F444E057
:1008800050E0A40EB51E5FE359830FC0933631F0DC
:10089000933779F0933509F056C020C0F501808177
:1008A000898342E050E0A40EB51E610101E010E032
:1008B00012C0F501C080D180F6FC03C06FEF7FEF5E
:1008C00002C0692D70E042E050E0A40EB51EC601E2
:1008D0000E94A3058C015FE7F52214C0F501C080DA
:1008E000D180F6FC03C06FEF7FEF02C0692D70E08E
:1008F00042E050E0A40EB51EC6010E9498058C018E
:1009000050E8F52AF3FE07C01AC080E290E0B30178
:100910000E94BE05EA948E2D90E008171907A8F3EF
:100920000EC0F601F7FC8591F7FE81916F0190E012
:10093000B3010E94BE05E110EA9401501040011578
:10094000110579F7EAC0943611F0993669F5F7FE8A
:1009500008C0F501208131814281538184E090E01B
:100960000AC0F501808191819C01442737FD4095A3
:10097000542F82E090E0A80EB91E9FE6F92257FF9F
:1009800009C050954095309521953F4F4F4F5F4F8F
:10099000E0E8FE2ACA01B901A1012AE030E00E9484
:1009A000EA05D82ED21840C0953729F41F2D1F7E96
:1009B0002AE030E01DC01F2D197F9F3661F090376F
:1009C00020F4983509F0ACC00FC0903739F0983753
:1009D00009F0A6C004C028E030E00AC0106114FD90
:1009E000146020E130E004C014FD166020E132E024
:1009F00017FF08C0F501608171818281938144E015
:100A000050E008C0F50180819181BC0180E090E058
:100A100042E050E0A40EB51EA1010E94EA05D82EC6
:100A2000D2188FE7F82EF122F6FE0BC05EEFF5220A
:100A3000D91438F4F4FE07C0F2FC05C08FEEF8229A
:100A400002C01D2D01C0192DF4FE0DC0FE01ED0DDB
:100A5000F11D8081803319F499EEF92208C01F5FDF
:100A6000F2FE05C003C08F2D867809F01F5F0F2DA1
:100A7000F3FC14C0F0FE0FC01E1510F09D2C0BC02F
:100A80009D2C9E0C911A1E2D06C080E290E0B301B1
:100A90000E94BE051F5F1E15C0F304C01E1510F492
:100AA000E11A01C0EE2404FF0FC080E390E0B3011F
:100AB0000E94BE0502FF1DC001FD03C088E790E053
:100AC0000EC088E590E00BC0802F867891F001FF82
:100AD00002C08BE201C080E2F7FC8DE290E0B3013E
:100AE0000E94BE0506C080E390E0B3010E94BE05EF
:100AF0009A94D914C0F3DA94F101ED0DF11D8081BF
:100B000090E0B3010E94BE05DD20A9F706C080E297
:100B100090E0B3010E94BE05EA94EE20C1F743CEF7
:100B2000F30166817781CB012B96E2E10C94792564
:100B3000FC010590615070400110D8F780959095A8
:100B40008E0F9F1F0895FC016150704001900110AD
:100B5000D8F7809590958E0F9F1F0895DC01FC01BA
:100B6000672F71917723E1F7329704C07C916D93E1
:100B700070836291AE17BF07C8F308950F931F9358
:100B8000CF93DF938C01EB018B8181FF1BC082FF30
:100B90000DC02E813F818C819D812817390764F417
:100BA000E881F9810193F983E88306C0E885F98536
:100BB000802F0995892B31F48E819F8101969F8327
:100BC0008E8302C00FEF1FEFC801DF91CF911F91FD
:100BD0000F910895FA01AA27283051F1203181F1AF
:100BE000E8946F936E7F6E5F7F4F8F4F9F4FAF4F35
:100BF000B1E03ED0B4E03CD0670F781F891F9A1F48
:100C0000A11D680F791F8A1F911DA11D6A0F711DFB
:100C1000811D911DA11D20D009F468943F912AE007
:100C2000269F11243019305D3193DEF6CF010895EF
:100C3000462F4770405D4193B3E00FD0C9F7F6CF20
:100C4000462F4F70405D4A3318F0495D31FD4052E8
:100C5000419302D0A9F7EACFB4E0A695979587957E
:100C600077956795BA95C9F700976105710508955D
:100C70009B01AC010A2E0694579547953795279509
:100C8000BA95C9F7620F731F841F951FA01D0895A1
:100C9000DC0112962C91129717968C9117972817B2
:100CA000D8F5ED91FC911197E20FF11D862F992750
:100CB00087FD909516960C90169702C0880F991F85
:100CC0000A94E2F72081282B208313968C911397A6
:100CD0008F5F13968C93139716962C9116971496F4
:100CE0003C911497822F90E0831B910997FD04C0DB
:100CF000231B16962C93089587E016968C931697CF
:100D000012968C9112978F5F12968C931297ED9199
:100D1000FC91E80FF11D10820895DC0114968C916E
:100D20001497689FA00111249A0183E035952795B7
:100D30008A95E1F717968C91179790E02817390755
:100D400014F08FEF089547705070ED91FC9111975A
:100D5000E20FF31F15962C9130E0042E02C035955A
:100D600027950A94E2F78081822390E027E030E023
:100D7000241B350B02C0959587952A95E2F70895B7
:100D8000DC0190E007C0ED91FC911197E90FF11D96
:100D900010829F5F17968C9117979817A0F3129661
:100DA0001C92129713961C92139787E016968C93B9
:100DB0000895CF93DF93EC01842F6C831D824F83C2
:100DC00090E061E070E00E948E0088839983CE01FC
:100DD0000E94C00647E0E7E0F0E061E070E00BC091
:100DE000CB0102C0880F991F2A95E2F79C018D81E3
:100DF000822B8D834150242F30E08C81DF01A81B92
:100E0000B109A217B30764F3DF91CF910895CF938F
:100E1000DF93DC01EB0115962D913C91169713960B
:100E20008D919C9114972817390749F411968D914B
:100E30009C91129716969C938E93159706C02E5FE1
:100E40003F4F16963C932E9315971596ED91FC9176
:100E50001697888199819183808317962D913C9173
:100E6000189713968D919C9114972817390729F498
:100E700011962D913C91129702C02E5F3F4F15960F
:100E80008D919C9116978217930739F48C91882342
:100E900021F018963C932E93179781E08C93DF9165
:100EA000CF910895CF93DF93DC01EB018C918823E0
:100EB00059F117962D913C91189713968D919C910D
:100EC00014972817390749F411968D919C91129720
:100ED00018969C938E93179706C02E5F3F4F1896D7
:100EE0003C932E9317971796ED91FC91189780815C
:100EF00091819983888315968D919C911697E81717
:100F0000F90709F41C9281E0DF91CF9108955F9277
:100F10006F927F928F929F92AF92BF92CF92DF9209
:100F2000EF92FF920F931F93CF93DF93EC017C8797
:100F30006B87CC24DD24552453944B01AA2497FCC1
:100F4000A094BA2C31E0632E712C8B859C8562E0D5
:100F500070E00E948E009A838983009709F048C050
:100F60000894C11CD11C1D86C501B4010E94CC236C
:100F70007B018C01B601882777FD8095982F0E9410
:100F8000CC2320E030E040E251EC0E94312320E00D
:100F900030E040E85FE30E94CD229B01AC01C80134
:100FA000B7010E9480247B018C0120E030E040E00A
:100FB00050E00E947C2488234CF0C801B70120E057
:100FC00030E040E05FE30E94CD2208C0C801B701D5
:100FD00020E030E040E05FE30E94CC220E949923B1
:100FE0007C876B871616170624F07C866B8601C0FB
:100FF0005D868D858823E1F46B857C85882777FD68
:101000008095982F0E94CC237B018C01C501B401EF
:101010000E94CC232DEC3CEC4CEC5DE30E94802440
:101020009B01AC01C801B7010E947C2487FF8DCFD2
:1010300089819A81DF91CF911F910F91FF90EF905D
:10104000DF90CF90BF90AF909F908F907F906F90E8
:101050005F9008950F931F93CF93DF93EC018A0164
:101060000E9487079C019A8389838D858823D9F004
:101070008B859C850197880F991F820F931F9C83F6
:101080008B839E838D83F90102C0019311938B8121
:101090009C818E179F07C8F78D819E8198878F83CB
:1010A00018829A878987DF91CF911F910F910895B8
:1010B0000895FC0117A6A085B1850284F385E02D73
:1010C000208131818D919C911197918380832D9303
:1010D0003C93DB018D919C91918380830895BF9215
:1010E000CF92DF92EF92FF920F931F93CF93DF93F4
:1010F000EC017B01BCA460E0B8EFCB2EBFEFDB2E90
:101100002BC0F901EE0FFF1FEE0DFF1DDA01A20F3C
:10111000B31FAC19BD09AA0FBB1FAC0FBD1F0190B7
:10112000F081E02D8D919C91E81BF90BF7FF03C036
:10113000F095E195FF4F8C859D858E179F075CF09C
:101140002017310711F4862F13C07F5F272F30E05F
:1011500002171307B4F66F5F6B1548F4F7010081AF
:10116000118171E0462F50E0440F551FEFCF8FEFF4
:10117000DF91CF911F910F91FF90EF90DF90CF9073
:10118000BF9008950895089508952F923F924F9229
:101190005F926F927F928F929F92AF92BF92CF9207
:1011A000DF92EF92FF920F931F93DF93CF93CDB710
:1011B000DEB72C970FB6F894DEBF0FBECDBFDC01B3
:1011C0009C968C919C978A83815089833D0134E25F
:1011D000832E31E0932E8A0E9B1E4424482F5527E0
:1011E00047FD50954C5D5E4FFD01E40FF51FFC83FC
:1011F000EB8344525140CA01880F991F880F991FF1
:1012000042968A0F9B1F9C878B87FD01ED5DFE4FE9
:10121000FE83ED83CD01C39698878F8381C0F30150
:1012200062897389FCE06D3C7F0708F071C05B0147
:1012300093E0AA0CBB1C9A95E1F7A60EB71ECB80D3
:10124000DC80EB84FC84598000E010E05FC0180172
:10125000240E351EF70120813181121613060CF47D
:101260004BC0F2E82F3F3F0709F446C0C90186276B
:10127000972797FF41C088279927821B930B8A15D0
:101280009B05D4F1F60180818730B0F5F4018081AF
:101290008A3090F1ED81FE8130818F8198859A8727
:1012A000898720E010C0E985FA858081841529F4BA
:1012B000818190E08215930541F02F5F89859A85A1
:1012C00001969A878987231770F32317A9F012963E
:1012D0004C92129713961C921397D1963C922E9291
:1012E000D09781E090E09E969C938E939D97A65D0B
:1012F000BE4F2C9381E019C05A940894C108D108BC
:1013000001501040ECEFFFEFEE0EFF1E57FE9FCF97
:10131000439484E090E0680E791E0894811C911C2F
:101320009A81491608F47BCF80E02C960FB6F8948A
:10133000DEBF0FBECDBFCF91DF911F910F91FF9008
:10134000EF90DF90CF90BF90AF909F908F907F9065
:101350006F905F904F903F902F900895EF92FF9283
:101360000F931F93CF93DF93EC010CA5BC0154E2C4
:10137000E52E51E0F52EE80EF91E10E0AFEFBFEFBD
:1013800040E050E01BC0342F252FFB018289938958
:101390008D5C9C4020F4F7018081181718F0812F94
:1013A0003A2F2B2F4F5F5F4F6C5F7F4F0894E11CEC
:1013B000F11C182F832F922F9C01D901401718F38D
:1013C000FFEFAF3FBF0799F0212F30E0FE01ED5D49
:1013D000FE4F808167E00E94022590E0880F991FF0
:1013E0002817390724F0BB83AA8381E001C080E07D
:1013F000DF91CF911F910F91FF90EF900895CF93C0
:10140000DF93DC01AC5DBE4F1D921D921D921D92BB
:101410001D921C92A952B14090E0ED01CD5DDE4FCE
:101420000DC0FD01E90FF11D83A9FD01E80FF11DBC
:10143000EC5DFE4F80818F5F80839F5F888198176E
:1014400080F3DF91CF910895CF93DF93EC010E9459
:10145000FF09CD5DDE4F8881C352D140883218F03C
:10146000CE010E94C508DF91CF910895DC01ED9176
:10147000FC910190F081E02D09950895AF92BF9203
:10148000CF92DF92EF92FF920F931F93DF93CF9350
:10149000CDB7DEB728970FB6F894DEBF0FBECDBF2D
:1014A0006C0109831A832B833C834D835E836F8396
:1014B00078874C815D81A22E41155105D9F0BB245E
:1014C000D6011296ED91FC911397EE0FFF1FEE0FD0
:1014D000FF1FEC0DFD1D22893389241B350B37FFBF
:1014E00003C0309521953F4FF6018485958582177D
:1014F000930714F0BB24B394D601D096ED91FC91E0
:10150000D197EE0FFF1FEE0FFF1FEC0DFD1D62893F
:101510007389882777FD8095982F0E94CC237B01C3
:101520008C01D6011296ED91FC911397EE0FFF1FDF
:10153000EE0FFF1FEC0DFD1D62897389882777FD73
:101540008095982F0E94CC239B01AC01C801B70164
:101550000E9431237B018C0120E030E040E050E02C
:101560000E947C2488234CF0C801B70120E030E0C1
:1015700040E05FE30E94CD2208C0C801B70120E02F
:1015800030E040E05FE30E94CC220E94992320E0FB
:1015900030E08A2D992787FD9095681B790B77FF9E
:1015A00003C0709561957F4F6430710514F421E09C
:1015B00030E08B2D90E02823392380E0232B09F0A5
:1015C00081E028960FB6F894DEBF0FBECDBFCF9155
:1015D000DF911F910F91FF90EF90DF90CF90BF9020
:1015E000AF900895CF93DF93EC011FA6A885B9852E
:1015F000EA85FB85208131818D919C9111979183A2
:1016000080832D933C93DB018D919C91918380830A
:101610008DA59EA5009719F0019799F40BC0E8815C
:10162000F9810280F381E02DCE0109958DA59EA55B
:10163000892B39F0E881F9810480F581E02DCE0114
:1016400009958FA5DF91CF910895CF93DF93EC019A
:101650008A819B81892B61F4109295021B821A82E8
:1016600010929102109292021092930210929402A0
:10167000E0919502E13350F59B0177FF03C030956F
:1016800021953F4FB901882777FD8095982F2091AC
:101690009102309192024091930250919402620F14
:1016A000731F841F951F6093910270939202809321
:1016B0009302909394022E2F2F5F2093950230E097
:1016C00040E050E00E9435253B832A83DF91CF9193
:1016D0000895FC0185E592E091838083CF01059612
:1016E00060E071E00E949B210895EF92FF920F93BA
:1016F0001F938C017B010E94690B89E192E0F80144
:1017000091838083F482E3821F910F91FF90EF9089
:101710000895EF92FF920F931F938C017B010E941B
:10172000690B8FE192E0F80191838083F482E38278
:101730001F910F91FF90EF900895CF92DF92FF924B
:101740000F931F93CF93DF936C01493008F048E06B
:10175000440F162FFF2400E0C62FD0E0C40FD11D88
:1017600014C0D6011396ED91FC91149780A991A90C
:10177000612F0E948D0690E00F2C02C0880F991FE8
:101780000A94E2F7082B1E5FF394812F90E08C17E8
:101790009D073CF3802FDF91CF911F910F91FF9018
:1017A000DF90CF90089548E00E949D0B089544E09B
:1017B0000E949D0B0895CF92DF92FF920F931F938B
:1017C000CF93DF936C01493008F048E0F42EFA948F
:1017D000162F00E0C62FD0E0C40FD11D14C0D601D3
:1017E0001396ED91FC91149780A991A9612F0E9405
:1017F0008D0690E00F2C02C0880F991F0A94E2F723
:10180000082B1F5FFA94812F90E08C179D073CF303
:10181000802FDF91CF911F910F91FF90DF90CF909C
:10182000089544E00E94DB0B0895BF92CF92DF92AF
:10183000EF92FF920F931F93CF93DF93EC01C62E8D
:10184000D42EB22E040F142F13C0CE01612F42E00C
:101850000E94DB0B8C1559F0812F90E08D199109B6
:101860002B2D30E0821793072CF480E007C01E5F19
:10187000101758F31D0DF701108381E0DF91CF9110
:101880001F910F91FF90EF90DF90CF90BF90089540
:10189000BF92CF92DF92EF92FF920F931F93CF935D
:1018A000DF93EC01EB81FC818281938121E08C3715
:1018B000920710F4DD2406C0DD248A5A914010F40A
:1018C000DD24D39400A8F1A9E02D8381843310F4A2
:1018D00010E004C010E0893308F411E0CC2EBD2ED6
:1018E000FE013C96CE0162E040E028E00CE07F0182
:1018F0000E94150C082F40E050E0812F90E02D2D24
:1019000030E082239323892B11F041E050E010E076
:10191000042315238C2D9B2D6C850E94110C90E0C7
:1019200020E030E0012B11F021E030E040E050E019
:101930008C3011F441E050E024233523232B09F0AF
:1019400091E0892FDF91CF911F910F91FF90EF9040
:10195000DF90CF90BF900895DF92EF92FF920F93A8
:101960001F93CF93DF93EC01EB81FC818281938104
:1019700021E0883B920710F4DD2406C0DD248D5160
:10198000924010F4DD24D39400A8F1A9E02D8381C6
:10199000863910F410E004C010E08D3D08F411E029
:1019A000FE013C96CE0162E040E028E101E27F01C9
:1019B0000E94150C082F40E050E0812F90E02D2D63
:1019C00030E082239323892B11F041E050E010E0B6
:1019D00004231523CE016C850E94D70B90E020E0F4
:1019E00030E0012B11F021E030E040E050E08A309F
:1019F00011F441E050E024233523232B09F091E03A
:101A0000892FDF91CF911F910F91FF90EF90DF9081
:101A100008954F925F927F928F929F92AF92BF9262
:101A2000CF92DF92EF92FF920F931F93DF93CF93AA
:101A3000CDB7DEB72A970FB6F894DEBF0FBECDBF85
:101A40007C010E94480C882311F490E08BC055E083
:101A5000C52ED12CCE0CDF1CD7011396ED91FC9135
:101A6000149700A8F1A9E02D638164501C968C9115
:101A7000681B6695669570E06D5F7F4FC6010E949A
:101A800053208E010C5F1F4FC80161E071E00E947E
:101A90009B21C601B8010E949E22C8010E94C0225B
:101AA000DE011196E9E0F1E083E001900D928150B2
:101AB000E1F7F70104850C5FAE2C7F2CBB244E01AF
:101AC0000894811C911C44E0442E41E0542E2FC008
:101AD0008A2D972D602F48E00E94DB0B182F00D035
:101AE00000D000D0EDB7FEB73196ADB7BEB71296B5
:101AF0009C928E92119753824282848315820E9417
:101B00009703B12688E09CE8B0FAB6940EF4B926A3
:101B10008A95D1F7EDB7FEB736960FB6F894FEBFAB
:101B20000FBEEDBFC601B4010E943A21085F202F0D
:101B300030E0D7011396ED91FC91149700A8F1A91C
:101B4000E02D838190E00897281739070CF4C0CF67
:101B50008A2D972D602F48E00E94DB0B90E0B8168D
:101B600009F491E0892F2A960FB6F894DEBF0FBED4
:101B7000CDBFCF91DF911F910F91FF90EF90DF903C
:101B8000CF90BF90AF909F908F907F905F904F903D
:101B90000895AF92BF92CF92DF92EF92FF920F9390
:101BA0001F93DF93CF93CDB7DEB727970FB6F89487
:101BB000DEBF0FBECDBFB82EA92E122FE82EF92EF4
:101BC000C701642F40E10E941922C12EDD248E013D
:101BD0000F5F1F4F10C0C8016CE071E00E94B5217B
:101BE000C801B7010E946421BC01C7010E949E2266
:101BF000C8010E94C622F701848195818C159D053C
:101C000050F38B2D9A2D27960FB6F894DEBF0FBE9A
:101C1000CDBFCF91DF911F910F91FF90EF90DF909B
:101C2000CF90BF90AF9008959F92AF92BF92CF9206
:101C3000DF92EF92FF920F931F93DF93CF93CDB775
:101C4000DEB72E970FB6F894DEBF0FBECDBF6C0186
:101C50000E94AC0C882309F463C0D6011396ED9161
:101C6000FC91149700A8F1A9E02D838190E01C96C7
:101C70002C91821B910960E170E00E9422257B017A
:101C8000E3E0EE0CFF1CEA95E1F775E0A72EB12C1E
:101C9000AC0CBD1C6E2D6695669570E06E5F7F4F37
:101CA000C5010E9453208E010F5F1F4FC8016E2D8A
:101CB00040E10E941922C501B8010E949E22C8017C
:101CC0000E94C022F60104859C2C1D2D68E0E62EA2
:101CD000F12CEC0EFD1E18C090E0801B910940977E
:101CE000F4F0C601602F0E94D30B482FC701692D65
:101CF000712F22E00E94C90DC501B7010E944A213F
:101D0000C7010E94C022005FD6011396ED91FC919D
:101D1000149700A8F1A9E02D83810817E8F281E06B
:101D20002E960FB6F894DEBF0FBECDBFCF91DF91D8
:101D30001F910F91FF90EF90DF90CF90BF90AF90E9
:101D40009F900895EF92FF920F931F93DF93CF938D
:101D500000D000D000D0CDB7DEB78C0180919002CA
:101D6000882319F010929002E6C0D8011896ED91E0
:101D7000FC9119971A96ED90FC901B97D7018D91C5
:101D80009C91208131818227932797FFC0C09E01BB
:101D90002F5F3F4F47E552E086E0DA010D90AD013D
:101DA000D9010D929D018150C1F760817181CB01F4
:101DB0009C0197FF03C0309521953F4FF801428168
:101DC00053810484F585E02DCA01880F991FD9013C
:101DD000A81BB90BCD01B7FF03C0909581959F4F0C
:101DE000E817F907ECF0CB0162E070E00E942225D1
:101DF000C8010E94250B81E090E09A838983D80175
:101E00001896ED91FC911997808191819C838B8329
:101E1000D0962D913C91D19760E08081918147C00F
:101E2000241B350B37FF03C0309521953F4FE21738
:101E3000F3070CF475C0D7018D919C9197FF03C0F7
:101E4000909581959F4F841B950B97FF03C09095AC
:101E500081959F4FE817F9070CF462C0C8010E94F2
:101E6000250BD8011A96ED91FC911B976081718129
:101E7000C8010E94250B82E090E09A838983F801D3
:101E8000A085B1858D919C9111979C838B838285D0
:101E90009385FC01808191819E838D8381E0809375
:101EA0009002F80120A931A960E08D919C9197FFE3
:101EB00061E0C9010E944806C801BE016F5F7F4F03
:101EC0000E946F0887FF37C0D8019C962C9126305E
:101ED000F0F4E22FF0E0DF01AA0FBB1FAA0FBB1F37
:101EE000A00FB11F8B819C8153969C938E93529728
:101EF0003596EE0FFF1FEE0FFF1FE00FF11F8D81D4
:101F00009E81918380832F5FF80124A714C0D8019C
:101F1000ED91FC910680F781E02DC80109950BC079
:101F2000D801ED91FC910680F781E02DC80109955B
:101F3000F80116A615A626960FB6F894DEBF0FBEBA
:101F4000CDBFCF91DF911F910F91FF90EF9008953A
:101F50000F931F938C01FC0114A616A615A61382DD
:101F6000128282A593A50E94C006F80115861486E8
:101F70001F910F910895CF93DF93EC010E94A80F5A
:101F8000CD5DDE4F1882C352D1401CA61AAA1EA6F0
:101F90001DA619AA18AA1B821A82FE01DE01AC5DD9
:101FA000BE4FCE014896138A128A1C923496E817C7
:101FB000F907C9F71FA686E990E09D878C878AE913
:101FC00099E9A9E9BEE38E879F87A88BB98BDF913A
:101FD000CF9108950F931F938C01FC0115861486F1
:101FE0000E94A80FF80180A991A90E94C0061F9124
:101FF0000F910895DC01D096ED91FC91D1978381EA
:10200000883220F081E09F968C930895CD010E9444
:10201000EA0F0895EF92FF920F931F93CF93DF93F0
:10202000EC01EA85FB8520813181E885F985808195
:1020300091818227932797FFC2C0C90162E070E0B7
:102040000E942225CE010E94250B6A817B8180E0BF
:1020500090E00E94CA232E853F85488959890E94B5
:10206000802420E030E040E251E40E9431237B01F3
:102070008C0120E030E040E050E00E947C24882386
:102080004CF0C801B70120E030E040E05FE30E947F
:10209000CD2208C0C801B70120E030E040E05FE396
:1020A0000E94CC220E9499239B016C877D87E88542
:1020B000F9850190F081E02DF7FF03C0F095E195DF
:1020C000FF4F8A819B81BC01660F771FA9019F0189
:1020D000261B370B37FF03C0309521953F4F421722
:1020E0005307DCF5E81BF90BF7FF03C0F095E1950A
:1020F000FF4F4E175F078CF57B836A8380E090E08B
:102100000E94CA232E853F85488959890E948024D0
:1021100020E030E040E251E40E9431237B018C0159
:1021200020E030E040E050E00E947C2488234CF026
:10213000C801B70120E030E040E05FE30E94CD221B
:1021400008C0C801B70120E030E040E05FE30E9432
:10215000CC220E9499237D876C87E885F9850190C0
:10216000F081E02DF7FF03C0F095E195FF4F2A8144
:102170003B814C855D85C901880F991FBF01681B94
:10218000790BCB0177FF03C0909581959F4F48173E
:1021900059075CF4CF01821B930B97FF03C0909506
:1021A00081959F4F481759072CF081E090E09EA73A
:1021B0008DA705C01EA61DA6CE010E94EA0FDF91C5
:1021C000CF911F910F91FF90EF900895EF92FF92A2
:1021D0000F931F938C0189E492E0F801918380832F
:1021E00088E090E00E94DF1BF82EE92E62E04AE0D2
:1021F0000E94D906F801F2A6E3A61782168215827C
:102200001482C801049691878087C8010696938737
:10221000828717A6C8010E94A80F1F910F91FF90F7
:10222000EF9008950F931F938C010E94E6108DE3A9
:1022300092E0F801918380831582148217821682BE
:10224000C801049691878087C80106969387828784
:10225000C8010E94BB0F1F910F9108950F931F9308
:102260008C010E94121181E392E0F8019183808336
:102270001F910F910895DF92EF92FF920F931F939A
:102280008C01D62E0E94E61085E292E0F80191833F
:10229000808380E090E0A0EAB0E486879787A08BF7
:1022A000B18B82A593A50E94540188E090E00E9422
:1022B000DF1BF82EE92E61E04CE10E94D906F801FF
:1022C000F0AAE1AAD2AA1F910F91FF90EF90DF90A0
:1022D0000895EF92FF920F931F93CF93DF93EC013A
:1022E000F62EE42E8AE395E0B9010E944A1D0BC048
:1022F000FE01EF0DF11D8AE395E063A94AE050E08D
:102300000E94C31CF394EF1498F78AE395E0B80198
:102310000E944A1DDF91CF911F910F91FF90EF9086
:1023200008952F923F924F925F926F927F928F9279
:102330009F92AF92BF92CF92DF92EF92FF920F9354
:102340001F93DF93CF93CDB7DEB766970FB6F894A0
:10235000DEBF0FBECDBF5C0123E231E0A20EB31E93
:10236000D5018C91EDEDFEEFAE0EBF1E883208F464
:10237000EAC1FA2C9B2CC5010E94240AD5011296B1
:102380008D919C911397892B39F4D0968D919C91C6
:10239000D197892B09F43AC1D501A55DBE4FEDE671
:1023A000F2E088E001900D928150E1F7D501AD5C3B
:1023B000BE4FE5E6F2E088E001900D928150E1F732
:1023C000D501A55CBE4FEDE5F2E088E001900D92ED
:1023D0008150E1F7D5011296ED91FC911397EE0F24
:1023E000FF1FEE0FFF1FEA0DFB1D22893389E3E477
:1023F000F1E0AE0EBF1E8FEFD5018D9383E0FD019E
:10240000819382EEDF018D93FD0121933193DF01F2
:102410001D925D0181E090E08D939C93E1EEFFEFD2
:10242000AE0EBF1ED5015C91E6EDFEEFAE0EBF1EF7
:10243000452F4E5FD50112966D917C911397AD5D3E
:10244000BE4FF501E40FF11D83A990E086179707B1
:1024500089F484A990E0F50120A931A98217930796
:1024600049F4342E3A94832D90E0851B9109889786
:1024700034F469C14E5F8C91481718F364C1ABE224
:102480006A2EA1E07A2E6A0C7B1CFF24F8E0CF2E86
:10249000D12CCC0EDD1E4E010894811C911CEAE269
:1024A0004E2EE1E05E2E4A0C5B1C22242394DE01BA
:1024B0001F96F30188E001900D928150E1F7C5016C
:1024C0000F85188929893A894B895C896D897E89AC
:1024D0000E943E0A882309F48BC0C60160E071E0C7
:1024E0000E949B21C60162E00E942721C6016DE483
:1024F0000E942721C6016F2D0E94FB20C6016BE3BD
:102500000E942721EE2427C00E2D10E0000F111F7E
:10251000000F111F0A0D1B1DD80152968D919C9121
:102520005397892BB9F0C60160E50E942721C601A7
:102530006E2D0E94FB20C60160E271E00E943A21EC
:10254000F80162897389C6010E94CA20C6016BE343
:102550000E942721E394D5019C968C918E15A0F6BC
:10256000C60162E271E00E943A21C40160E071E0BC
:102570000E949B21C4016BE30E942721C40165E2F4
:1025800071E00E943A21F50162817381C4010E94C9
:102590009C20C4016BE30E942721C40169E271E021
:1025A0000E943A21D501D0966D917C91D197C401BA
:1025B0000E94CA20C4016BE30E942721C40163E08A
:1025C0000E942721C4016AE00E942721C501F2016F
:1025D0006081432D960184010E946911D5019F9667
:1025E0002C92C4010E94C022C6010E94C02204C0D5
:1025F0008AE395E00E94141CF394E8E0F0E06E0E8C
:102600007F1EF4E0FF1609F052CF9DC08E010F5FD0
:102610001F4FC80160E071E00E949B21C80162E089
:102620000E942721C8016DE271E00E943A21C80191
:102630006BE30E942721DD24C02EE12E2DC00D2D3D
:1026400010E0000F111F000F111F0A0D1B1DD801F4
:1026500052968D919C915397892BE9F08C2D9E2D4C
:1026600060E371E00E943A218C2D9E2D6D2D0E9419
:10267000FB208C2D9E2D60E271E00E943A21F80132
:10268000628973898C2D9E2D0E94CA208C2D9E2DCF
:102690006BE30E942721D394D5019C968C918D15D4
:1026A00070F6CE01019662E271E00E943A218E013D
:1026B000085F1F4FC80160E071E00E949B21C801C4
:1026C0006BE30E942721F50182819381892B59F4C4
:1026D0008F2D992D0E94AE09882329F0C80165E24B
:1026E00071E00E943A2158E0E52EF12CEC0EFD1E1F
:1026F000D50112966D917C911397C7010E949C2081
:10270000C7016BE30E942721C70163E00E942721D4
:10271000C7016AE00E942721F501ED5DFE4FC5016A
:1027200060E040816E010894C11CD11C96018701B4
:102730000E94691181E0F50187A7C7010E94C022AC
:10274000C6010E94C02266960FB6F894DEBF0FBE87
:10275000CDBFCF91DF911F910F91FF90EF90DF9050
:10276000CF90BF90AF909F908F907F906F905F9031
:102770004F903F902F900895FF920F931F93DF93F8
:10278000CF9300D000D0CDB7DEB78C01DC01D2965C
:102790001C92D2971896ED91FC9119972081318166
:1027A0001A96ED91FC911B970190F081E02D0D5D43
:1027B0001E4FD8014C910352114090919602D801BE
:1027C0009C968C919C97891710F49C969C930D5D18
:1027D0001E4FD8018C91035211408823B1F0FF2481
:1027E00080E090E0E227F327F7FF02C081E090E06D
:1027F00020E030E04F3E11F021E030E082239323CF
:10280000892B41F0FF24F39405C0F80114A610921F
:102810009602FF2481E090E09A8389831C821B82C8
:10282000D8011896ED91FC911997808191819C8334
:102830008B83C801BE016F5F7F4F0E946F08982F86
:1028400087FD1AC00D5D1E4FF801808103521140B3
:10285000F801E80FF11D93AB823030F082A989179F
:1028600019F4C8010E94BB0FF801ED5DFE4F808195
:102870008F5F808390E015C0C8010E94FF09D801D6
:102880009C968C91863061F480919602F801E80F55
:10289000F11DEC5DFE4F8081823010F090E003C0AE
:1028A00091E0FF20D1F40D5D1E4FF80180810352AD
:1028B0001140883290F081E0D8019F968C939F97C9
:1028C000ED91FC910680F781E02DC8010995C801C2
:1028D0000E94BB0F109296025AC0992309F457C068
:1028E0000D5D1E4FF8014081035211405091960238
:1028F000842F90E0C296F801E80FF91F20E030E045
:10290000DC01D3971BC080812F5F3F4F3197851724
:10291000A9F46F5F7F4F461B0D5D1E4FD8014C938E
:10292000035211406D5C7F4F600F711F50E04F5F8D
:102930005F4FC801C3960E94D40207C0BD01621B4D
:10294000730B8FEF6F3F7807F1F620919602E22F1D
:10295000F0E0EE0FFF1FEE0FFF1FE00FF11F8B8166
:102960009C81938B828BD801AD5DBE4F8C91F80119
:10297000E80FF11D23AB8F5F8C932F5F209396029E
:10298000263029F410929602D8019C962C930F9031
:102990000F900F900F90CF91DF911F910F91FF90AB
:1029A00008950F931F93CF93DF938C01DC019F96C3
:1029B0001C929F9718960D90BC91A02DEC01EA8572
:1029C000FB85208131818D919C911197918380832A
:1029D0002D933C93DB018D919C9191838083C80161
:1029E0000E94BC138FA5DF91CF911F910F91089585
:1029F0001F920F920FB60F9211242F933F934F9374
:102A00005F936F937F938F939F93AF93BF93EF9356
:102A1000FF93E0919A02F0919B020995FF91EF914B
:102A2000BF91AF919F918F917F916F915F914F91E6
:102A30003F912F910F900FBE0F901F9018950F93FD
:102A40001F938130910541F56F5F7F4F09F03FC0C3
:102A50008CE992E064E670E040E050E00E942A08D1
:102A60008BEA92E066EA71E00E949B2182EB92E0A1
:102A70000E942E118CE494E061E00E943B118FE7EC
:102A800094E06CE474E00E94750B8CE894E06CE4D4
:102A900074E00E94890B1BC0892BC9F46F5F7F4FC4
:102AA000B1F405E512E010938D0400938C0481E9E4
:102AB00094E00E94C0221093800400937F0484E875
:102AC00094E00E94C0228BEA92E00E94C0221F91F3
:102AD0000F91089580E090E06FEF7FEF0E941F1547
:102AE000089581E090E06FEF7FEF0E941F15089539
:102AF000EF92FF920F931F93DF93CF93CDB7DEB783
:102B000062970FB6F894DEBF0FBECDBF8E01075F90
:102B10001F4F8BEA92E0B8014AE050E021E030E03C
:102B20000E94D61FC80167EA71E00E94C6020E9497
:102B30008102E82EDE011196E5E7F2E088E00190DF
:102B40000D928150E1F78BEA92E061E070E00E9423
:102B5000A31F813421F000E010E0FF2425C080E0B5
:102B600090E067EA71E00E94C6020E948102F82E9E
:102B700080E090E067EA71E00E94C6020E94810254
:102B80008C01FB829D838C83EE2DF0E093E0EE0FB1
:102B9000FF1F9A95E1F7E352FC4FDE01119688E0A2
:102BA0000D9001928150E1F78BEA92E061E070E0D4
:102BB0000E94A31F823599F4FB821D830C83EE2DA6
:102BC000F0E083E0EE0FFF1F8A95E1F7E352FC4F40
:102BD000DE01119688E00D9001928150E1F7629636
:102BE0000FB6F894DEBF0FBECDBFCF91DF911F911E
:102BF0000F91FF90EF9008958DE06091AA020E94DE
:102C0000401F1092AA020895EF92FF920F931F9314
:102C10008C017B018BE061E00E94401F80911302D8
:102C2000909114029C01029FC001039F900D129F7E
:102C3000900D11240E948F1E8BE060E00E94401FC7
:102C400080911302909114029C01E29EC001E39EC8
:102C5000900DF29E900D11240E948F1E1F910F91D6
:102C6000FF90EF90089580E00E94B41D089580E0E9
:102C700061EE78E141E050E00E94911D08958BEAF9
:102C800092E061E070E00E94A31F813511F40E9480
:102C900033168BEA92E061E070E00E94A31F853456
:102CA00011F40E9437160895EF92FF920F931F932D
:102CB000CF93DF937C010E94331600E010E030C018
:102CC00081E090E06FE170E00E940416E70123C00C
:102CD0008133A1F0863469F08033E1F481E090E043
:102CE00063E070E00E94041681E090E063E070E031
:102CF0000FC081E090E063E070E004C083E090E00A
:102D000061E070E00E94041683E090E061E070E012
:102D10000E940416219688818823D1F60F5F1F4FE9
:102D20008091110290E00817190754F20E9437169B
:102D3000DF91CF911F910F91FF90EF900895CF9267
:102D4000DF92EF92FF920F931F93DF93CF93CDB754
:102D5000DEB7C456D0400FB6F894DEBF0FBECDBF6D
:102D60006C018E010C5F1F4FC80169EA71E00E947F
:102D70009B21C601B8010E942620F82EC8010E949E
:102D8000C022FF20F1F08E01055F1F4FC801B60180
:102D900042E050E00E949222C8017E010894E11CAA
:102DA000F11CB70143E050E020E030E00E94D61F64
:102DB000C8010E94C022C7010E94810280931202B2
:102DC0002FC08E010E5E1F4FC8016CEA71E00E9499
:102DD0009B21C601B8010E942620F82EC8010E943E
:102DE000C022FF2019F18E01075E1F4FC801B601F6
:102DF00042E050E00E949222C8017E010894E11C4A
:102E0000F11CB70143E050E020E030E00E94D61F03
:102E1000C8010E94C022C7010E9481028093110252
:102E20008AE395E0B6010E947D1DB7C08E01005E69
:102E30001F4FC8016FEA71E00E949B21C601B801D3
:102E40000E942620F82EC8010E94C022FF2009F40B
:102E500043C08DE061E00E94401F8E01095D1F4F5D
:102E6000C801B60142E050E00E949222C801BE01B2
:102E7000685A7F4F4DE050E020E030E00E94D61FBE
:102E8000C8010E94C022F601848195810F97A0F0AD
:102E90008E01025D1F4FC801B6014EE050E00E9456
:102EA0009222C8010E94C51F7093140260931302FE
:102EB000C8010E94C02206C084EA91E090931402E7
:102EC00080931302CE01885A9F4F0E9454168DE0C2
:102ED00060E00E94401FA4CF8E010B5C1F4FC80111
:102EE00062EB71E00E949B21C601B8010E9426207E
:102EF000F82EC8010E94C022FF2009F44EC02CE326
:102F0000E22EF12CEC0EFD1EC70165EB71E00E9474
:102F10009B218E010D5B1F4FC801609112024AE098
:102F20000E941922C701B8010E944A21C8010E94CB
:102F3000C022C70160EC71E00E943A218E01065B5D
:102F40001F4FC801609111024AE00E941922C70177
:102F5000B8010E944A21C8010E94C022C70160EC4A
:102F600071E00E943A218E010F5A1F4F60911302A7
:102F700070911402C8014AE00E94E821C701B8011B
:102F80000E944A21C8010E94C0228AE395E0B7014D
:102F90000E947D1DC7010E94C022CC59DF4F0FB691
:102FA000F894DEBF0FBECDBFCF91DF911F910F917F
:102FB000FF90EF90DF90CF900895EF92FF920F93E4
:102FC0001F93DF93CF93CDB7DEB760970FB6F8941A
:102FD000DEBF0FBECDBF7C01CE01039666EA71E075
:102FE0000E949B21C70160E070E00E94A31F8F3305
:102FF000C1F58AE395E06FE30E940C1C8AE395E03B
:1030000062EC71E00E94341D8AE395E066E50E945F
:103010000C1C8AE395E060E20E940C1C8AE395E0B8
:1030200069E60E940C1C8AE395E060E20E940C1C99
:103030008AE395E064E70E940C1C8AE395E060E275
:103040000E940C1C8AE395E068E50E940C1C8AE350
:1030500095E060E20E940C1C8AE395E066EA71E06C
:103060000BC0C70160E070E00E94A31F863539F4F1
:103070008AE395E06EEC71E00E94371D4AC0C701FB
:1030800060E070E00E94A31F8235A1F48091690581
:1030900090916A05009711F48DE695E0BE016F5F8F
:1030A0007F4F681B790B8AE395E04AE050E00E946D
:1030B000151D2FC0C70160E070E00E94A31F893674
:1030C00071F48E01065F1F4FC801B7010E94B5223F
:1030D000C8010E949F16C8010E94C0221AC0C701E1
:1030E00060E070E00E94A31F843799F0C70160E0A0
:1030F00070E00E94A31F883519F40E943F1609C092
:10310000C70160E070E00E94A31F883511F40E949F
:103110007815CE0103960E94C02260960FB6F894EF
:10312000DEBF0FBECDBFCF91DF911F910F91FF90FA
:10313000EF9008950F931F93DF93CF93CDB7DEB732
:1031400027970FB6F894DEBF0FBECDBF8E010F5F7D
:103150001F4F26C08AE395E00E94F31A682F8A3039
:1031600049F08B301CF4882329F016C08D3011F003
:10317000833291F4C8016BEA72E00E94B522C80163
:103180000E94DD17C8010E94C0228BEA92E066EA25
:1031900071E00E94CF2104C08BEA92E00E942721B7
:1031A0008AE395E00E94C21A892BA1F627960FB6F2
:1031B000F894DEBF0FBECDBFCF91DF911F910F916D
:1031C0000895EF92FF920F931F93809199048823A3
:1031D000A1F489E994E00E94D11B892B71F00E942F
:1031E000691E6093A7047093A8048093A904909328
:1031F000AA0489E994E00E94DB1B0E94691E609387
:10320000AB047093AC048093AD049093AE0482E061
:103210000E94731FBC012091AB043091AC0440911B
:10322000AD045091AE048091A7049091A804A091A0
:10323000A904B091AA0479018A01E81AF90A0A0BD3
:103240001B0BD801C701E092A304F092A4040093E1
:10325000A5041093A6042093A7043093A8044093D8
:10326000A9045093AA0484369105A105B1050CF177
:1032700081300DE7900700E0A00700E0B00714F0F0
:1032800081E09DE79093A2048093A104672B59F0FD
:103290008091A1049091A204909581959F4F909365
:1032A000A2048093A1048CE992E061EA74E00E9498
:1032B00007071F910F91FF90EF9008951F9311E062
:1032C0000CC082EB92E060EB74E00E94360A8093BF
:1032D000AF04882311F01093AA028CE992E060EB0E
:1032E00074E00E945207882361F71F9108958AE3D2
:1032F00095E040E051EE60E070E00E943B1A82E011
:1033000060E00E94D41E8BE061E00E94D41E8DE03C
:1033100061E00E94D41EE1E8F0E080E18083109239
:10332000800082E08093990288EA91E69093980267
:1033300080939702909387008093860082E1808338
:103340008CEF95E190939B0280939A0281E08093A9
:103350006F000E9437168BEA92E064E170E00E94F1
:10336000532008951F920F920FB60F9211242F939E
:103370003F934F938F939F93EF93FF938091C00060
:1033800082FD1DC04091C6002091F2043091F304EB
:103390002F5F3F4F2F7330708091F4049091F504AC
:1033A0002817390771F0E091F204F091F304EE541C
:1033B000FB4F40833093F3042093F20402C08091CA
:1033C000C600FF91EF919F918F914F913F912F9167
:1033D0000F900FBE0F901F901895E0914605F09149
:1033E0004705E05CFF4F8191919120813181821BE3
:1033F000930B8F739070892B11F00E949A18089587
:103400001F920F920FB60F9211242F933F938F9319
:103410009F93EF93FF93209136053091370580916C
:103420003805909139052817390731F48091C1008A
:103430008F7D8093C10014C0E0913805F09139056B
:10344000EA50FB4F20818091380590913905019613
:103450008F73907090933905809338052093C60040
:10346000FF91EF919F918F913F912F910F900FBE00
:103470000F901F901895AF92BF92DF92EF92FF923C
:103480000F931F93CF93DF93EC017A018B01DD241F
:10349000403081EE580780E0680780E0780711F03F
:1034A000DD24D39491E0A92EB12CEC89FD89DD2097
:1034B00069F0C50108A002C0880F991F0A94E2F7BD
:1034C000808360E079E08DE390E005C0108260E8E1
:1034D00074E88EE190E0A80197010E943525215003
:1034E000304040405040569547953795279580E1AC
:1034F0002030380720F0DD2011F0DD24D6CFE88918
:10350000F9893083EA89FB89208319A2EE89FF8932
:10351000408121E030E0C9010C8C02C0880F991F66
:103520000A94E2F7482B4083EE89FF894081C90164
:103530000D8C02C0880F991F0A94E2F7482B408334
:10354000EE89FF894081C9010E8C02C0880F991F46
:103550000A94E2F7482B4083EE89FF8980810F8C23
:1035600002C0220F331F0A94E2F7209528232083FC
:10357000DF91CF911F910F91FF90EF90DF90BF905F
:10358000AF900895DC011C96ED91FC911D97E05CD5
:10359000FF4F2191319180819181281B390B2F732D
:1035A0003070C9010895DC011C96ED91FC911D97C6
:1035B000E05CFF4F20813181E054F040DF01AE5BE1
:1035C000BF4F8D919C9111972817390719F42FEF50
:1035D0003FEF07C08D919C91E80FF91F8081282F44
:1035E00030E0C9010895DC011C96ED91FC911D9716
:1035F000E05CFF4F20813181E054F040DF01AE5BA1
:10360000BF4F8D919C9111972817390719F42FEF0F
:103610003FEF10C08D919C911197E80FF91F208109
:103620008D919C91119701968F73907011969C9338
:103630008E9330E0C9010895DC0191968C919197A9
:10364000882339F05496ED91FC915597808186FF3F
:10365000F9CF91961C920895CF93DF93EC01EE85FC
:10366000FF85E05CFF4F20813181E054F0402F5F07
:103670003F4F2F733070DF01AE5BBF4F8D919C9138
:10368000119728173907D1F3E05CFF4F80819181B2
:10369000E054F040E80FF91F6083EE85FF85E05CA1
:1036A000FF4F31832083EE89FF89208181E090E004
:1036B0000F8C02C0880F991F0A94E2F7282B2083F1
:1036C00081E089A3EC89FD8980818064808381E029
:1036D00090E0DF91CF91089510923D0510923C0546
:1036E00088EE93E0A0E0B0E080933E0590933F0524
:1036F000A0934005B093410581E892E090933B058B
:1037000080933A0582EB94E09093470580934605B9
:1037100086EF94E0909349058093480585EC90E00E
:1037200090934B0580934A0584EC90E090934D056F
:1037300080934C0580EC90E090934F0580934E056C
:1037400081EC90E0909351058093500582EC90E0DD
:10375000909353058093520586EC90E09093550525
:103760008093540584E08093560583E08093570549
:1037700087E08093580585E08093590581E0809328
:103780005A050895CF93DF930E94991E0E947719DE
:10379000CDEED9E10E945E192097E1F30E94ED1968
:1037A000F9CFFC0120E030E08081882311F421E092
:1037B00030E0C9010895FC0181E0808308950E94F2
:1037C000AA000895CF92DF92EF92FF920F931F937A
:1037D000CF93DF937C016B018A01C0E0D0E00FC082
:1037E000D6016D916D01D701ED91FC910190F081B1
:1037F000E02DC7010995C80FD91F015010400115D0
:10380000110571F7CE01DF91CF911F910F91FF90BC
:10381000EF90DF90CF900895DC01ED91FC91019045
:10382000F081E02D09950895EF92FF920F931F9379
:103830008C01DC01ED91FC910190F081E02D6DE0B7
:1038400009957C01D801ED91FC910190F081E02D6A
:10385000C8016AE009959C012E0D3F1DC9011F9109
:103860000F91FF90EF900895CF93DF93EC016115D6
:10387000710519F420E030E00FC0DB010D9000204D
:10388000E9F71197A61BB70BE881F9810280F38154
:10389000E02DAD0109959C01C901DF91CF910895FB
:1038A0004F925F927F928F929F92AF92BF92CF92F0
:1038B000DF92EF92FF920F931F93DF93CF93CDB7D9
:1038C000DEB7A1970FB6F894DEBF0FBECDBF2C01B7
:1038D000742ECB01223008F42AE019A231E2C32E63
:1038E000D12CCC0EDD1E822E9924AA24BB24672D58
:1038F000752FA50194010E94352579018A01C8011F
:10390000B701A50194010E94E324472D461B0894AA
:10391000C108D1084A3014F4405D01C0495CF60189
:103920004083E114F1040105110521F07E2C5F2D87
:10393000C801DDCFC201B6010E94341CA1960FB6AA
:10394000F894DEBF0FBECDBFCF91DF911F910F91D5
:10395000FF90EF90DF90CF90BF90AF909F908F90AF
:103960007F905F904F900895DC012115310541F45F
:10397000ED91FC910190F081E02D642F099508955F
:103980000E94501C0895EF92FF920F931F939A018B
:10399000E62EFF2400E010E0B801A7010E94B41C4D
:1039A0001F910F91FF90EF900895CF92DF92EF92C9
:1039B000FF920F931F93CF93DF93EC016A017B017A
:1039C0002115310541F4E881F9810190F081E02D64
:1039D000642F09951FC02A303105D1F477FF17C035
:1039E000E881F9810190F081E02D6DE209958C016B
:1039F00044275527BA014C195D096E097F09CE018C
:103A00002AE00E94501C9801280F391F04C02AE0A8
:103A10000E94501C9C01C901DF91CF911F910F9111
:103A2000FF90EF90DF90CF900895CF92DF92EF92CA
:103A3000FF920F931F936C017B019A010027F7FC03
:103A40000095102FB801A7010E94D51C8C01C6015A
:103A50000E94141C080F191FC8011F910F91FF909D
:103A6000EF90DF90CF9008950E94341C0895EF925C
:103A7000FF920F931F937C010E94341C8C01C7019D
:103A80000E94141C080F191FC8011F910F91FF906D
:103A9000EF900895AF92BF92CF92DF92EF92FF9294
:103AA0000F931F93CF93DF935C016B01EE24FF24F0
:103AB000C0E0D0E010C0D501ED91FC9100811181F2
:103AC000C601BE010E94B41F682FC501F801099507
:103AD000E80EF91E2196F60184819581C817D90751
:103AE00050F3C701DF91CF911F910F91FF90EF909D
:103AF000DF90CF90BF90AF900895EF92FF920F9319
:103B00001F937C010E944A1D8C01C7010E94141C56
:103B10009C01200F311FC9011F910F91FF90EF9061
:103B20000895823000F5E82FF0E0EE0FFF1FE45A11
:103B3000FA4F71836083882319F08130A1F408C0A3
:103B4000809169008C7F842B80936900E89A0895A6
:103B500080916900440F551F440F551F837F842BAC
:103B600080936900E99A0895823080F4882319F0DF
:103B7000813021F402C0E89801C0E998E82FF0E014
:103B8000EE0FFF1FE45AFA4F1182108208951F9220
:103B90000F920FB60F9211242F933F934F935F9381
:103BA0006F937F938F939F93AF93BF93EF93FF9305
:103BB00080915C0590915D05892B29F0E0915C0571
:103BC000F0915D050995FF91EF91BF91AF919F91A4
:103BD0008F917F916F915F914F913F912F910F90B6
:103BE0000FBE0F901F9018951F920F920FB60F9255
:103BF00011242F933F934F935F936F937F938F93F2
:103C00009F93AF93BF93EF93FF9380915E05909145
:103C10005F05892B29F0E0915E05F0915F0509951C
:103C2000FF91EF91BF91AF919F918F917F916F9194
:103C30005F914F913F912F910F900FBE0F901F906A
:103C400018951F920F920FB60F9211242F933F9346
:103C50008F939F93AF93BF93809164059091650577
:103C6000A0916605B0916705309168050196A11D88
:103C7000B11D232F2D5F2D3720F02D570196A11D4B
:103C8000B11D209368058093640590936505A0930A
:103C90006605B09367058091600590916105A091DC
:103CA0006205B09163050196A11DB11D8093600569
:103CB00090936105A0936205B0936305BF91AF91A6
:103CC0009F918F913F912F910F900FBE0F901F905A
:103CD00018959FB7F8942091600530916105409147
:103CE00062055091630586B5A89B06C08F3F21F001
:103CF0002F5F3F4F4F4F5F4F9FBF542F432F322FA8
:103D00002227280F311D411D511D82E0220F331F34
:103D1000441F551F8A95D1F7B901CA01089501972B
:103D200039F0880F991F880F991F02970197F1F7B3
:103D30000895789484B5826084BD84B5816084BD23
:103D400085B5826085BD85B5816085BDEEE6F0E014
:103D5000808181608083E1E8F0E010828081826070
:103D60008083808181608083E0E8F0E080818160F1
:103D70008083E1EBF0E0808184608083E0EBF0E021
:103D8000808181608083EAE7F0E0808184608083C5
:103D9000808182608083808181608083808180686F
:103DA00080831092C1000895CF93DF93482F50E095
:103DB000CA0186569F4FFC0134914A575F4FFA0162
:103DC0008491882369F190E0880F991FFC01E859DC
:103DD000FF4FA591B491FC01EE58FF4FC591D491CE
:103DE000662351F42FB7F8948C91932F90958923E3
:103DF0008C93888189230BC0623061F42FB7F894CB
:103E00008C91932F909589238C938881832B888321
:103E10002FBF06C09FB7F8948C91832B8C939FBFC4
:103E2000DF91CF910895833071F0843028F4813090
:103E3000A1F0823021F514C08630B1F08730D1F086
:103E40008430E9F404C0809180008F7703C08091B2
:103E500080008F7D80938000089584B58F7702C0A5
:103E600084B58F7D84BD08958091B0008F77809355
:103E7000B00008958091B0008F7D8093B0000895C8
:103E8000FF920F931F93F62E482F50E0CA018255E0
:103E90009F4FFC012491CA0186569F4FFC0114914B
:103EA0004A575F4FFA0104910023C9F0222319F009
:103EB000822F0E94131FE02FF0E0EE0FFF1FEE583D
:103EC000FF4FA591B4919FB7F894FF2021F48C91F6
:103ED0001095812302C08C91812B8C939FBF1F91E1
:103EE0000F91FF9008950F931F93482F50E0CA0140
:103EF00082559F4FFC012491CA0186569F4FFC01B9
:103F000004914A575F4FFA011491112319F420E0EC
:103F100030E015C0222319F0822F0E94131F812F39
:103F200090E0880F991F84589F4FFC01A591B49190
:103F30008C9120E030E0802311F021E030E0C901D5
:103F40001F910F910895FC0184819581681779076D
:103F500048F40190F081E02D309721F0E60FF71F33
:103F60008081089580E00895FC018481958168171F
:103F7000790748F40190F081E02D309721F0E60FA9
:103F8000F71F8081089580E00895FC018081918170
:103F9000009729F420E030E040E050E004C00E94A7
:103FA0009F029B01AC01B901CA0108950F931F93B1
:103FB000CF93DF93FC018B0141155105F9F0611599
:103FC0007105E1F0848195812817390718F0FB010C
:103FD000108214C041505040EC01C21BD30B4C174F
:103FE0005D0708F4EA0160817181620F731FC801E7
:103FF000AE010E940203C00FD11F1882DF91CF9142
:104000001F910F910895FC01DB0114962D913C91B5
:10401000159784819581821B930B84179507A0F0D7
:1040200080819181009781F06D917C91611571057E
:1040300059F0840F951FA9010E94F4029C0180E0B1
:10404000232B19F481E0089580E00895FC01DB0141
:104050002481358114968D919C91159728173907E5
:1040600010F480E00895CF0140E050E00E9403206A
:1040700008950F931F93CF93DF93EC018B016F5F34
:104080007F4F888199810E94AC01009711F480E0F4
:1040900005C0998388831B830A8381E0DF91CF91D8
:1040A0001F910F910895CF93DF93EC01888199813F
:1040B000892B29F08A819B818617970760F4CE01AE
:1040C0000E943920882341F08C819D81892B19F42D
:1040D000E881F981108281E0DF91CF910895EF921C
:1040E000FF920F931F93CF93DF93EC017B016C81C1
:1040F0007D81E114F104C1F04115510599F08A0167
:10410000060F171FB8010E945320882369F0888189
:1041100099812C813D81820F931FB7010E94ED028E
:104120001D830C8381E001C080E0DF91CF911F915E
:104130000F91FF90EF900895EF92FF920F931F93CE
:10414000DF93CF9300D000D000D0CDB7DEB77C0195
:10415000CB018E010F5F1F4FB8014AE050E00E9473
:104160008103F80101900020E9F73197E01BF10B82
:10417000C701B801AF010E946F2026960FB6F894D0
:10418000DEBF0FBECDBFCF91DF911F910F91FF908A
:10419000EF900895EF92FF920F931F93DF93CF93C9
:1041A000CDB7DEB727970FB6F894DEBF0FBECDBFF1
:1041B0007C01CB018E010F5F1F4FB8014AE050E038
:1041C0000E944303F80101900020E9F73197E01BBA
:1041D000F10BC701B801AF010E946F2027960FB6FF
:1041E000F894DEBF0FBECDBFCF91DF911F910F912D
:1041F000FF90EF900895EF92FF920F931F93DF933C
:10420000CF9300D000D0CDB7DEB77C01862F90E0F1
:104210008E010F5F1F4FB8014AE050E00E94430338
:10422000F80101900020E9F73197E01BF10BC7017D
:10423000B801AF010E946F200F900F900F900F9068
:10424000CF91DF911F910F91FF90EF900895DF9331
:10425000CF9300D0CDB7DEB769831A82BE016F5FFE
:104260007F4F41E050E00E946F200F900F90CF9160
:10427000DF9108956115710511F480E00895DB0167
:104280000D900020E9F71197A61BB70BAD010E9416
:104290006F200895FB0160817181448155810E94E6
:1042A0006F200895CF93DF93EC0188819981009767
:1042B00011F00E945401198218821D821C821B82F7
:1042C0001A82DF91CF9108950F931F93182F092F12
:1042D000FB0160817181448155810E946F20882398
:1042E00021F4812F902F0E945221812F902F1F9116
:1042F0000F910895EF92FF920F931F93CF93DF9347
:10430000EC017B018A01BA010E945320882321F429
:10431000CE010E94522107C01D830C8388819981A0
:10432000B7010E94ED02CE01DF91CF911F910F9155
:10433000FF90EF900895CF93DF93EC0119821882DC
:104340001B821A821D821C821E826115710551F02A
:10435000DB010D900020E9F71197A61BB70BAD010B
:104360000E947A21DF91CF910895CF93DF93EC01E2
:10437000198218821B821A821D821C821E8261157C
:10438000710551F0DB010D900020E9F71197A61B94
:10439000B70BAD010E947A21DF91CF9108950F9361
:1043A0001F93182F092F6115710559F0DB010D902E
:1043B0000020E9F71197A61BB70BAD010E947A21E7
:1043C00002C00E945221812F902F1F910F910895BA
:1043D000EF92FF920F931F93DF93CF93CDB7DEB78A
:1043E00062970FB6F894DEBF0FBECDBF8C01CB0134
:1043F000F8011182108213821282158214821682B1
:104400007E010894E11CF11CB70150E00E944303B7
:10441000C801B7010E94CF2162960FB6F894DEBFA3
:104420000FBECDBFCF91DF911F910F91FF90EF9005
:104430000895EF92FF920F931F93DF93CF93CDB721
:10444000DEB729970FB6F894DEBF0FBECDBF8C0143
:10445000862FF80111821082138212821582148233
:10446000168290E07E010894E11CF11CB70150E037
:104470000E948103C801B7010E94CF2129960FB67F
:10448000F894DEBF0FBECDBFCF91DF911F910F918A
:10449000FF90EF900895BF92CF92DF92EF92FF923C
:1044A0000F931F93CF93DF93082FB92E6B017A01DF
:1044B000E9012417350710F4EA017901802F9B2DBB
:1044C0006AE072E00E949B21D60114968D919C9126
:1044D00015978E159F05D0F08C179D0708F4EC01F9
:1044E000D601ED91FC911197EC0FFD1F1081108208
:1044F0006D917C916E0D7F1D802F9B2D0E94CF2191
:10450000D601ED91FC91EC0FFD1F1083802F9B2DA8
:10451000DF91CF911F910F91FF90EF90DF90CF909F
:10452000BF9008950F931F938C01FB012481358167
:104530000E944B22C8011F910F910895CF93DF93E2
:10454000EC01FB018617970761F0608171816115AD
:10455000710529F0448155810E947A2102C00E9490
:104560005221CE01DF91CF910895FC01118210827A
:10457000138212821582148216820E949E2208954E
:10458000FC01808191810E9454010895FC01808189
:1045900091810E94540108955058BB27AA270ED03C
:1045A00071C162D130F067D120F031F49F3F11F436
:1045B0001EF457C10EF4E095E7FB4DC1E92F73D10E
:1045C00080F3BA17620773078407950718F071F430
:1045D0009EF58BC10EF4E0950B2EBA2FA02D0B018A
:1045E000B90190010C01CA01A0011124FF27591B38
:1045F00099F0593F50F4503E68F11A16F040A22F3E
:10460000232F342F4427585FF3CF469537952795AE
:10461000A795F0405395C9F77EF41F16BA0B620BAD
:10462000730B840BBAF09150A1F0FF0FBB1F661FF4
:10463000771F881FC2F70EC0BA0F621F731F841F37
:1046400048F4879577956795B795F7959E3F08F05D
:10465000B3CF9395880F08F09927EE0F979587951C
:1046600008950CD00FC107D140F0FED030F021F4F6
:104670005F3F19F0F0C0511139C1F3C014D198F364
:104680009923C9F35523B1F3951B550BBB27AA27D3
:1046900062177307840738F09F5F5F4F220F331F45
:1046A000441FAA1FA9F333D00E2E3AF0E0E830D011
:1046B00091505040E695001CCAF729D0FE2F27D014
:1046C000660F771F881FBB1F261737074807AB07E2
:1046D000B0E809F0BB0B802DBF01FF2793585F4F57
:1046E0002AF09E3F510568F0B6C000C15F3FECF371
:1046F000983EDCF3869577956795B795F7959F5F1C
:10470000C9F7880F911D9695879597F90895E1E06F
:10471000660F771F881FBB1F621773078407BA07CE
:1047200020F0621B730B840BBA0BEE1F88F7E09529
:10473000089504D06894B111D9C00895BCD088F010
:104740009F5790F0B92F9927B751A0F0D1F0660F7D
:10475000771F881F991F1AF0BA95C9F712C0B13098
:1047600081F0C3D0B1E00895C0C0672F782F8827AB
:10477000B85F39F0B93FCCF3869577956795B395D7
:10478000D9F73EF490958095709561957F4F8F4F46
:104790009F4F0895E89409C097FB3EF4909580954B
:1047A000709561957F4F8F4F9F4F9923A9F0F92FF7
:1047B00096E9BB279395F695879577956795B79575
:1047C000F111F8CFFAF4BB0F11F460FF1BC06F5F5B
:1047D0007F4F8F4F9F4F16C0882311F096E911C06D
:1047E000772321F09EE8872F762F05C0662371F08E
:1047F00096E8862F70E060E02AF09A95660F771FA2
:10480000881FDAF7880F9695879597F90895990F7D
:104810000008550FAA0BE0E8FEEF16161706E8078A
:10482000F907C0F012161306E407F50798F0621BAB
:10483000730B840B950B39F40A2661F0232B242B80
:10484000252B21F408950A2609F4A140A6958FEF9F
:10485000811D811D089597F99F6780E870E060E0F1
:1048600008959FEF80EC089500240A941616170609
:1048700018060906089500240A9412161306140651
:1048800005060895092E0394000C11F4882352F0B4
:10489000BB0F40F4BF2B11F460FF04C06F5F7F4F6C
:1048A0008F4F9F4F089557FD9058440F551F59F053
:1048B0005F3F71F04795880F97FB991F61F09F3F0D
:1048C00079F087950895121613061406551FF2CF36
:1048D0004695F1DF08C0161617061806991FF1CF86
:1048E00086957105610508940895E894BB276627AD
:1048F0007727CB0197F908958ADF08F48FEF0895A1
:104900000BD0C0CFB1DF28F0B6DF18F0952309F047
:10491000A2CFA7CF1124EACFC6DFA0F3959FD1F392
:10492000950F50E0551F629FF001729FBB27F00D5D
:10493000B11D639FAA27F00DB11DAA1F649F6627B2
:10494000B00DA11D661F829F2227B00DA11D621F01
:10495000739FB00DA11D621F839FA00D611D221FBB
:10496000749F3327A00D611D231F849F600D211D9F
:10497000822F762F6A2F11249F5750408AF0E1F042
:1049800088234AF0EE0FFF1FBB1F661F771F881F8B
:1049900091505040A9F79E3F510570F05CCFA6CFD3
:1049A0005F3FECF3983EDCF3869577956795B79576
:1049B000F795E7959F5FC1F7FE2B880F911D9695A0
:1049C000879597F90895629FD001739FF001829FA8
:1049D000E00DF11D649FE00DF11D929FF00D839F8E
:1049E000F00D749FF00D659FF00D9927729FB00D2B
:1049F000E11DF91F639FB00DE11DF91FBD01CF013E
:104A000011240895991B79E004C0991F961708F0A6
:104A1000961B881F7A95C9F780950895AA1BBB1B22
:104A200051E107C0AA1FBB1FA617B70710F0A61BAE
:104A3000B70B881F991F5A95A9F780959095BC01CF
:104A4000CD01089597FB092E07260AD077FD04D0E3
:104A5000E5DF06D000201AF4709561957F4F089528
:104A6000F6F7909581959F4F0895A1E21A2EAA1B03
:104A7000BB1BFD010DC0AA1FBB1FEE1FFF1FA2170E
:104A8000B307E407F50720F0A21BB30BE40BF50B0B
:104A9000661F771F881F991F1A9469F76095709594
:104AA000809590959B01AC01BD01CF010895EE0F5B
:104AB000FF1F0590F491E02D09942F923F924F92A1
:104AC0005F926F927F928F929F92AF92BF92CF929E
:104AD000DF92EF92FF920F931F93CF93DF93CDB7A7
:104AE000DEB7CA1BDB0B0FB6F894DEBF0FBECDBF1F
:104AF00009942A88398848885F846E847D848C84F0
:104B00009B84AA84B984C884DF80EE80FD800C81F8
:104B10001B81AA81B981CE0FD11D0FB6F894DEBFDB
:104B20000FBECDBFED01089510E0C6ECD0E004C08B
:104B3000FE010E9459252296C83CD107C9F7F89476
:024B4000FFCFA5
:104B4200004153002530325800303000300025300B
:104B520032780057303800573033004952005F0036
:104B62003D00443D0043503D0053503D004D550033
:104B7200500053796E633A2000202D3E2053796E07
:104B820063466163743A20002C20436C6F636B3A76
:104B920020002C20546F6C3A20002C205061747439
:104BA2004C656E3A200020002C2050756C73653ADB
:104BB20020002C20002C206D53746172743A200066
:104BC2005369676E616C3A20002E2000205B005D05
:104BD200005061747465726E3A20002050003A20D1
:104BE200002A5B002C00003B0069740069720069B6
:104BF20073006970004954506172616D733A20000C
:104C0200200020557365206F6E65206F6600562068
:104C1200322E357261772D6F7574205349474E419C
:104C22004C6475696E6F202D20636F6D70696C65C1
:104C32006420617420417072202039203230313575
:104C42002032323A34353A3331000020006D05000B
:104C520000063CA40100000000090D000000001441
:104C62000E00000000F20A0A10A20EFA0F00000065
:104C720000D114C208C308911100000000D114C26F
:104C820008C308240A000000005908C208C308C467
:104C920008000000005808000000000000FFFEEEBF
:104CA200F401000000FCF8EEF401000000FCF8EE54
:104CB200F4010000000000000000000200000000FB
:0E4CC200002C1BE21BC21AF31AD31A1C1B0093
:00000001FF
