:100000000C9477000C94A1140C94C8140C949F00C9
:100010000C949F000C949F000C949F000C949F00E4
:100020000C949F000C949F000C949F000C949F00D4
:100030000C949F000C9468080C949F000C949F00F3
:100040000C94EF140C949F000C94C5170C94F717A4
:100050000C949F000C949F000C949F000C949F00A4
:100060000C949F000C949F003B4D433D003B4D552D
:100070003D004D533D00556E737570706F72746521
:100080006420636F6D6D616E640020557365206F31
:100090006E65206F6620000000000800020100006D
:1000A0000304070000000000000000010204081023
:1000B00020408001020408102001020408102004DE
:1000C00004040404040404020202020202030303FF
:1000D00003030300000000250028002B000000009F
:1000E00000240027002A00000208271845081124D0
:1000F0001FBECFEFD8E0DEBFCDBF12E0A0E0B1E081
:10010000EAEDF9E402C005900D92A432B107D9F7E7
:1001100024E0A4E2B2E001C01D92AA3AB207E1F7DE
:1001200010E0CCEED0E004C02297FE010E94FD1E3C
:10013000C83ED107C9F70E946E180C94E0240C94B5
:100140000000609137028DE00E944A16109237023B
:100150000895CF92DF92EF92FF920F931F930E9428
:10016000451500912D0210912E0220912F02309101
:1001700030026B017C01C01AD10AE20AF30A97012E
:10018000860160932D0270932E0280932F0290932C
:1001900030020A3511052105310578F181E0C816D4
:1001A0008DE7D806E104F10410F4960102C021E0C5
:1001B0003DE74A9B03C031952195310980917A032F
:1001C0008931D8F480917A038F5F80937A0380918C
:1001D0007B03609179030E947F1E90937B03E091E3
:1001E0007B03F0E0EE0FFF1FE358FC4F31832083C9
:1001F00080917B038F5F80937B031F910F91FF9012
:10020000EF90DF90CF90089581E392E00E940C1A66
:1002100082E793E00E940C1A8CE693E00C940C1A8F
:10022000CF93DF93EC01FB01248135810E94801C78
:10023000CE01DF91CF91089541E050E069EA70E08E
:1002400080E00C946F1480E00C948F14CF93DF93B4
:100250001F92CDB7DEB72B9A20910601309107018E
:10026000482F429FC001439F900D112469830E9433
:10027000A2152B9880910601909107016981FC01DC
:100280006E9FC0016F9F900D11240F90DF91CF9151
:100290000C94A215EF92FF920F931F93CF93DF93CD
:1002A000F82EE92E0E94230100E010E020910801C1
:1002B00030E0021713072CF56FE181E00E94260160
:1002C000CF2DDE2D29912223C9F0213371F0263460
:1002D00049F02033B9F763E081E00E94260163E032
:1002E00081E009C063E081E002C061E083E00E9438
:1002F000260161E083E00E942601E4CF0F5F1F4FDB
:10030000D5CFDF91CF911F910F91FF90EF900C947B
:100310001C012F923F924F925F926F927F928F9229
:100320009F92AF92BF92CF92DF92EF92FF920F9384
:100330001F93CF93DF93A82E6B01342E252E4901F6
:100340000E9445152B013C01B12C00E010E0B801E2
:100350006A0D7B1DC616D70658F1C4010E94381CD1
:100360008053E32DF22DE80FF11DE80FF11DC08140
:10037000D1817E01D7FF04C0EE24FF24EC1AFD0AD0
:100380000E9445156415750586059705C8F3D7FFC6
:1003900002C02B9801C02B9AC701AA2797FDA095F0
:1003A000BA2F480E591E6A1E7B1E0F5F1F4FCFCFFC
:1003B0000E9445156415750586059705C8F3DF91FC
:1003C000CF911F910F91FF90EF90DF90CF90BF9052
:1003D000AF909F908F907F906F905F904F903F90E5
:1003E0002F9008953F924F925F926F927F928F92DB
:1003F0009F92AF92BF92CF92DF92EF92FF920F93B4
:100400001F93CF93DF93882E362E6A012B9A0E947A
:1004100045152B013C01982CEE24D7FCE094FE2CD2
:10042000391408F457C0692D70E081E392E00E940E
:10043000381C90ED980F9A3010F4892F01C0875323
:10044000981009C083FF02C02B9801C02B9A4C0C56
:100450005D1C6E1C7F1CC4E0D0E008E0A82EBB240D
:10046000A7FCB0940E94451564157505860597058F
:10047000C8F310E0C8018A219B21892B89F02B98B1
:100480004C0C5D1C6E1C7F1C0E9445156415750587
:100490008605970518F40E946D14F6CF2B9A10C0AC
:1004A0002B9A4C0C5D1C6E1C7F1C0E94451564151C
:1004B00075058605970518F40E946D14F6CF2B98E4
:1004C0004C0C5D1C6E1C7F1C15950795219751F6F1
:1004D0009394A6CF0E94451564157505860597056A
:1004E000C8F3DF91CF911F910F91FF90EF90DF90B4
:1004F000CF90BF90AF909F908F907F906F905F90C4
:100500004F903F900895CF92DF92EF92FF920F931A
:100510001F93CF93DF9300D000D000D0CDB7DEB7CC
:100520008C016B01FC01E080F1806DE071E0CE0197
:1005300001960E947A1AA701BE016F5F7F4F81E387
:1005400092E00E94641C7C01CE0101960E940C1A6C
:10055000FFEFEF16FF0601F1F801408151814F3F97
:10056000FFEF5F07C9F0970161E372E0CE010196EA
:100570000E94801CBE016F5F7F4FC6010E94C61A99
:10058000CE0101960E940C1A8FEFE81AF80AF801C2
:10059000F182E08281E001C080E026960FB6F894F7
:1005A000DEBF0FBECDBFDF91CF911F910F91FF90A6
:1005B000EF90DF90CF900895BF92CF92DF92EF92AD
:1005C000FF920F931F93CF93DF93CDB7DEB7C8563B
:1005D000D1090FB6F894DEBF0FBECDBF64E172E063
:1005E000CE018F599F4F0E947A1A6EE170E0CE01C2
:1005F0008F599F4F0E943D1AA9961FAE1EAEA99714
:100600000E9423011FEF01E042E1F42E59E0E52EA4
:1006100062E0D62ECC24C394BE016F597F4FCE0129
:1006200089599F4F0E948302882309F44FC060E0DC
:1006300070E0CE018F599F4F0E94381C833589F599
:1006400061E070E0CE018F599F4F0E94381C8334C7
:1006500019F361E070E0CE018F599F4F0E94381C62
:100660008D3459F41F5FE1E0F0E0EC0FFD1FF19EC7
:10067000E00DF11D1124C282CFCF61E070E0CE0108
:100680008F599F4F0E94381C823531F61F5FE1E081
:10069000F0E0EC0FFD1FF19EE00DF11D1124D28260
:1006A000BBCF60E070E0CE018F599F4F0E94381C95
:1006B000803509F068C062E070E0CE018F599F4F2D
:1006C0000E94381C8D3309F05EC082C0B12C32E12B
:1006D000C32EB016D1F1D12CED2CF12CCE9CA00163
:1006E000CF9C500D1124E1E0F0E0EC0FFD1FE40F72
:1006F000F51F8281823079F44A5F5F4F21E030E05C
:100700002C0F3D1F420F531F6481758121E332E09E
:1007100083810E948901CE9CF001CF9CF00D1124B1
:1007200081E090E08C0F9D1FE80FF91F82818130DE
:1007300031F440815181648183810E94F2012B98C0
:10074000D3941D1548F6B394C4CF0E941C0161E3F5
:1007500072E089E094E00E940919CE018F599F4F01
:100760000E940C1AC859DF4F0FB6F894DEBF0FBEB7
:10077000CDBFDF91CF911F910F91FF90EF90DF9050
:10078000CF90BF90089560E070E0CE018F599F4FE9
:100790000E94381C823509F050C061E070E0CE0143
:1007A0008F599F4F0E94381C8D3309F046C042E09C
:1007B00050E0BE016F597F4FCE01855A9F4F0E9476
:1007C0001001CE01855A9F4F0E94C51C062F82C082
:1007D00022E030E041E050E0BE016F597F4FCE0192
:1007E000855A9F4F0E94801CCE01855A9F4F0E94C0
:1007F000C51CB62ECE01855A9F4F0E940C1A43E0AD
:1008000050E0BE016F597F4FCE01855A9F4F0E9425
:100810001001CE01855A9F4F0E94C51CE19EF00138
:100820001124EB0DF11D3396EE0FFF1F21E030E098
:100830002C0F3D1FE20FF31F4BC060E070E0CE01B4
:100840008F599F4F0E94381C8434B9F4A9968EADFD
:100850009FADA997E1E0F0E0EC0FFD1FF19EE00DE8
:10086000F11D112421E0280FA6963FADA697231B6A
:100870002383029795838483CFCE60E070E0CE011E
:100880008F599F4F0E94381C833409F0C5CE61E018
:1008900070E0CE018F599F4F0E94381C8D3309F0B4
:1008A000BBCE42E050E0BE016F597F4FCE01855A6A
:1008B0009F4F0E941001CE01855A9F4F0E94C51C78
:1008C000E1E0F0E0EC0FFD1FF19EE00DF11D1124C1
:1008D00071836083CE01855A9F4F0E940C1A9CCE73
:1008E00062E770E089E094E00E94BB1860913B02EF
:1008F00070E04AE050E089E094E00E94C6196DE69D
:1009000070E089E094E00E94BB186091390270E0C9
:100910004AE050E089E094E00E94C61968E670E081
:1009200089E094E00E94BB1860913A0270E04AE0CE
:1009300050E089E094E00C94CE19CF93DF93CDB7CB
:10094000DEB7AE970FB6F894DEBF0FBECDBF61E045
:1009500070E081E392E00E94381C843729F161E065
:1009600070E081E392E00E94381C823721F542E07A
:1009700050E061E372E0CE0101960E94100120E098
:1009800030E043E050E0BE01675D7F4FCE0101964D
:100990000E943A1CCE0101960E940C1ACE01899643
:1009A0000E9401218093080161E372E089E094E0F4
:1009B0000E94091995C061E070E081E392E00E9415
:1009C000381C8337F1F42B9A42E050E061E372E087
:1009D000CE0189960E94100120E030E048E250E00C
:1009E000BE016F5F7F4FCE0189960E943A1CCE01F7
:1009F00089960E940C1ACE0101960E944A012B98FA
:100A0000D3CF61E070E081E392E00E94381C83362E
:100A1000A9F442E050E061E372E0CE0101960E9449
:100A20001001CE0101960E94C51C709307016093CE
:100A30000601CE0101960E940C1AB6CF61E070E06B
:100A400081E392E00E94381C803709F049C064E1DC
:100A500072E0CE0189960E947A1A64E170E0CE01BC
:100A600089960E943D1A6FE071E0CE0189960E943E
:100A7000D21A4AE060910801CE0101960E94EA1A5A
:100A8000BE016F5F7F4FCE0189960E946F1BCE0122
:100A900001960E940C1A67E971E0CE0189960E94C6
:100AA000761B60910601709107014AE0CE01019624
:100AB0000E94171BBE016F5F7F4FCE0189960E9477
:100AC0006F1BCE0101960E940C1ABE01675D7F4F1D
:100AD00089E094E00E940919CE0189960E940C1ABF
:100AE000AE960FB6F894DEBF0FBECDBFDF91CF91AB
:100AF0000895CF93DF9300D0CDB7DEB72091A60441
:100B00003091A7042115310511F42AEA34E0CE0111
:100B10000196821B930B0F900F90DF91CF91089558
:100B2000CF92DF92EF92FF920E9439156B017C0108
:100B300028EE33E040E050E00E94B31E8091260290
:100B400090912702A0912802B0912902C816D906D7
:100B5000EA06FB0648F48091240290912502019652
:100B60009093250280932402C0922602D0922702FD
:100B7000E0922802F0922902CA01B901FF90EF9099
:100B8000DF90CF9008956AE171E089E094E00E94DF
:100B90001B1961E070E080E090E00C94681561E062
:100BA00070E081E392E00E94381C813511F40E94CC
:100BB000230161E070E081E392E00E94381C8534FB
:100BC00011F40C941C010895262F220F330B94E08E
:100BD0004902B0011124682B622B81E090E00C9453
:100BE000E523CF93DF9361E070E081E392E00E9420
:100BF000381C873421F4DF91CF910C94700462E0AB
:100C000070E081E392E00E94381C833599F062E045
:100C100070E081E392E00E94381C853571F062E05B
:100C200070E081E392E00E94381C833441F4CAE30F
:100C3000D2E005C0CBE3D2E002C0C9E3D2E061E07C
:100C400070E081E392E00E94381C853419F481E061
:100C5000888309C061E070E081E392E00E94381C63
:100C6000843459F4188240913A026091390280919B
:100C70003B02DF91CF910C94E405DF91CF91089571
:100C800060E070E081E392E00E94381C803511F44E
:100C90000C94C30560E070E081E392E00E94381C90
:100CA0008F3309F072C06FE389E094E00E94EC1882
:100CB0006AE870E089E094E00E94BB1866E589E08C
:100CC00094E00E94EC1860E289E094E00E94EC1845
:100CD00069E689E094E00E94EC1860E289E094E023
:100CE0000E94EC1862E589E094E00E94EC1860E252
:100CF00089E094E00E94EC1864E789E094E00E94A7
:100D0000EC1860E289E094E00E94EC1868E589E064
:100D100094E00E94EC1860E289E094E00E94EC18F4
:100D200066E489E094E00E94EC1860E289E094E0D7
:100D30000E94EC1863E589E094E00E94EC1860E200
:100D400089E094E00E94EC1860E589E094E00E945C
:100D5000EC1860E289E094E00E94EC1863E489E01A
:100D600094E00E94EC1860E289E094E00E94EC18A4
:100D700067E489E094E00E94EC1860E289E094E086
:100D80000E94EC1864E172E00AC060E070E081E368
:100D900092E00E94381C863531F46DE171E089E003
:100DA00094E00C941B1960E070E081E392E00E94F3
:100DB000381C823549F40E9479054AE050E0BC01B4
:100DC00089E094E00C94CE1960E070E081E392E059
:100DD0000E94381C893641F488E392E00E94E908B9
:100DE000892B81F40C949D0460E070E081E392E033
:100DF0000E94381C833561F488E392E00E94E90880
:100E0000892B21F081E080932C0208950C94DC0260
:100E100060E070E081E392E00E94381C843751F476
:100E20000E949005AB01BC012AE030E089E094E02B
:100E30000C94FA1960E070E081E392E00E94381CA3
:100E4000883511F40C94CF0560E070E081E392E006
:100E50000E94381C8634D1F060E070E081E392E0BB
:100E60000E94381C833411F40C94F10560E070E0AA
:100E700081E392E00E94381C873411F40C947004D2
:100E800066E770E089E094E00C94F7180895CF933A
:100E900080912C02882389F010922C020E94400637
:100EA00080912C02811106C064E172E081E392E03E
:100EB0000E94D21A81E080933702C1E080917A03C8
:100EC000882349F180917A03815080937A0380913D
:100ED0007C03609179030E947F1E90937C03E091D4
:100EE0007C0381E08E0F80937C03F0E0EE0FFF1F08
:100EF000E358FC4F8081918190932B0280932A02CA
:100F00006AE272E088E392E00E9462138823B1F201
:100F1000C0933702D3CFCF910895EF92FF920F93F2
:100F20001F93CF93DF93EC017B018A0181E090E076
:100F30000E94DD23982F9170988381FB992790F967
:100F4000F701908382FB882780F9F8018083DF9185
:100F5000CF911F910F91FF90EF90089526E040E010
:100F600051EE60E070E089E094E00E94631760E079
:100F700082E00E94111661E08BE00E94111661E090
:100F80008DE00E94111680E1809381001092800014
:100F900082E08093B10388E199E79093B303809353
:100FA000B203909387008093860082E18093810052
:100FB00081EA90E09093B0038093AF0381E0809347
:100FC0006F0080E090E00E94DD238B3049F44AE31B
:100FD00052E069E372E08BE392E00E948D070AC061
:100FE0006BE080E090E00E94E52367E081E090E024
:100FF0000E94E5230E941C0164E170E081E392E01D
:101000000C943D1A0F931F93CF93DF9389E1809344
:10101000790310927A0310927C0310927B03CDE443
:10102000D3E0D0935203C09351030FE413E0109325
:1010300054030093530364E172E08CE693E00E9452
:101040007A1A64E172E082E793E00E947A1AF8016A
:10105000118210821982188288E392E00E94A70808
:1010600064E172E081E392E00E947A1A0E944515E1
:1010700060932D0270932E0280932F029093300282
:10108000DF91CF911F910F9108950C940401CF939C
:10109000C1E089E094E00E948016892BB9F089E0D4
:1010A00094E00E9499168A3041F01CF4882329F0BC
:1010B00007C08D3011F0833219F4C0932C02E9CFB0
:1010C000682F81E392E00E94861BE3CFCF910895C1
:1010D0001F920F920FB60F9211242F933F934F93AD
:1010E0005F936F937F938F939F93AF93BF93EF9390
:1010F000FF93E091AF03F091B0030995FF91EF9159
:10110000BF91AF919F918F917F916F915F914F911F
:101110003F912F910F900FBE0F901F90189508953B
:10112000FC01E65FFE4F4081A42FB0E0262F30E0A7
:101130002A173B075CF4461B408350E0B901645F0B
:101140007F4F680F791F0C960C944F210895FC0176
:10115000E65FFE4F1082B796108231961082B097EC
:101160001082319611821082B0962FEF2083FC01FD
:101170002083AC0120E030E0FA01EF5DFE4F1182E8
:101180001082FC01E20FF31F14822F5F3F4F4E5F6E
:101190005F4F2830310581F7FC01E35FFE4F10827D
:1011A000339626E930E0318320833D964DEC5CECAC
:1011B0006CE47EE340835183628373837297108271
:1011C0003396108231961082F1961082F497108235
:1011D000089580E090E008950F931F93CF93DF93DD
:1011E0008C01EB01D7FF04C0662777276C1B7D0BB2
:1011F000882777FD8095982F0E94681D2DEC3CEC88
:101200004CEC5DE30E941C1E0E943A1DAB01F801EC
:10121000E05FFE4F71836083B196908180E0891713
:10122000A9F0F801EF5DFE4F20813181BE01621B04
:10123000730B9B0177FF03C03195219531090E5F38
:101240001F4F421753071CF48F5FE9CF8FEFDF91D9
:10125000CF911F910F91089520E030E0FC01E20F43
:10126000F31F14822F5F3F4F28303105B9F741112A
:1012700004C0FC01E65FFE4F4081641760F4FC018E
:10128000E60FF11D2485FC01E20FF11D24812F5F83
:1012900024836F5FF2CF08952F923F924F925F9217
:1012A0006F927F928F929F92AF92BF92CF92DF9276
:1012B000EF92FF920F931F93CF93DF93CDB7DEB7DB
:1012C0002E970FB6F894DEBF0FBECDBF9E878D87D9
:1012D00040E060E00E942C09ED85FE85EF5CFE4F4A
:1012E0003080912C4D855E85435E5E4F5A874987DD
:1012F0008D859E85865F9E4F9C878B87931409F40E
:10130000C8C022242394290C822C292D30E0C90145
:10131000880F991FAD85BE858A0F9B1FFC01EF5D6D
:10132000FE4FFE83ED835D01A20EB31EF4E0AF0E0F
:10133000B11C4D815E8158874F83831409F4A7C087
:10134000882D90E09A838983880F991F9C838B83D3
:10135000FC01AD85BE85EA0FFB1FEF5DFE4F0081EE
:101360001181C80117FF04C088279927801B910BA2
:10137000BC01882777FD8095982F0E94681DE9851C
:10138000FA8520813181428153810E941C1E2B01EC
:101390003C01AD81BE81CD90DC907801EC18FD0858
:1013A000F7FE03C0F194E194F10820E030E040E062
:1013B0005FE3C301B2010E941C1E9B01AC01C3018B
:1013C000B2010E94D11C0E94351D6E157F050CF4E0
:1013D0005CC0EB85FC85208180E090E0821750F4B2
:1013E000ED85FE85E80FF91F3485381101C094861C
:1013F0000196F4CFD5012C91E981FA814D855E8566
:10140000E40FF51F448150E030E0B901640F751F0F
:1014100061157105C9F4049FC001059F900D149FCB
:10142000900D11240E949F1E8B01D6010E94F41E74
:1014300020E030E0A9010E94D51E020F131FAF81EA
:10144000B8850D931C9317C0B601882777FD80954A
:10145000982F222717FD2095322F600F711F821FB2
:10146000931F22E030E040E050E00E94D51EEF8163
:10147000F88531832083EB81FC814D855E85E40F07
:10148000F51FEF5DFE4F11821082839456CF922C90
:1014900035CF2E960FB6F894DEBF0FBECDBFDF91CD
:1014A000CF911F910F91FF90EF90DF90CF90BF9061
:1014B000AF909F908F907F906F905F904F903F90F4
:1014C0002F9008953F924F925F926F927F928F92EA
:1014D0009F92AF92BF92CF92DF92EF92FF920F93C3
:1014E0001F93CF93DF93EC018FEF8883FE01EF5CB6
:1014F000FE4F30806E0100E010E0EE24EA94FE2CF6
:101500004E0186EF881A8EEF980A031508F066C020
:10151000F601EF5DFE4F5F01FFEFEF16FF0629F5C5
:10152000F5018081918197FD20C0FE01E00FF11F40
:10153000648170E080E090E00E94681D2B013C0116
:10154000F401608170E080E090E00E94681D2BE76C
:1015500034E14EE25EE30E941C1E9B01AC01C3011C
:10156000B2010E94181E181694F1F50120813181F4
:1015700037FD2EC0C701880F991F8C0F9D1FFC01DE
:10158000EF5DFE4F80819181281739070CF5FE0130
:10159000E00FF11F648170E080E090E00E94681D20
:1015A0002B013C01F401608170E080E090E00E943A
:1015B000681D2BE734E14EE25EE30E941C1E9B0196
:1015C000AC01C301B2010E94181E18160CF4780178
:1015D0000F5F1F4FF2E0CF0ED11C97CF8FEFE816B1
:1015E000F80641F0E882CD5EDE4F81E090E099831D
:1015F000888301C080E0DF91CF911F910F91FF9010
:10160000EF90DF90CF90BF90AF909F908F907F90A2
:101610006F905F904F903F9008958F929F92AF92FE
:10162000BF92CF92DF92EF92FF920F931F93CF93CF
:10163000DF93FC018C010D5E1E4FD8018D919C91B2
:101640001197019709F07DC05E96BC90BA94B7E0FF
:10165000AB2E6F01B6EFCB1ABEEFDB0AB7FC71C041
:101660002B2D332727FD3095C901880F991F8E0F29
:101670009F1FDC01AF5DBE4FCD91DC91D7FF5FC0F6
:10168000D195C195D109C83682E4D80708F057C072
:10169000E080FF24E7FCF094C701880F991F8E0FAC
:1016A0009F1FDC01AF5DBE4F8D909C90CE01B401B9
:1016B0000E948B1E6832710508F041C0A89CC001D1
:1016C000A99C900D11248C179D07C8F5DF01A20F6E
:1016D000B31F14968C918250863088F5D6014C91B8
:1016E00050E0BA0161507109912C892D90E0861764
:1016F000970784F4DF01A80FB91F1D96CC911D97A1
:10170000D0E0C217D307C9F41C96AC91B0E0AE1577
:10171000BF0599F4485251098417950784F4DF01F5
:10172000AD5CBE4FBC9282E090E0D8018D939C935B
:10173000E55FFE4F908281E009C09394D6CFBA94C2
:101740008DCFED5CFE4F8FEF808380E0DF91CF91F6
:101750001F910F91FF90EF90DF90CF90BF90AF90CF
:101760009F908F9008950F931F93CF93DF938A01DB
:10177000E90189E094E00E94DE18B80189E094E074
:101780000E94DE18BE0189E094E0DF91CF911F91A5
:101790000F910C94DE18EF92FF920F931F93CF934B
:1017A000DF93EC01F62EE42EB90189E094E00E946B
:1017B000DE18EF1460F0FE01EF0DF11D4AE050E07D
:1017C000648589E094E00E94F319F394F2CFB801A4
:1017D00089E094E00E94DE1880E0DF91CF911F91B4
:1017E0000F91FF90EF90089570E0FC0123AD332737
:1017F00027FD30956217730751F024AD332727FD7D
:10180000309581E06217730719F080E0089581E058
:10181000089570E0FC0125AD332727FD3095621750
:10182000730751F026AD332727FD309581E062170D
:10183000730719F080E0089581E008957F928F92F8
:101840009F92AF92BF92CF92DF92EF92FF920F934F
:101850001F93CF93DF9300D01F92CDB7DEB77C01EB
:101860006B0120E330E340E029833A834B83FC01A2
:1018700063A974A976956795769567956E5F7F4F96
:10188000C6010E943D1AC114D10409F478C0712C1C
:101890008E010F5F1F4F8FEC882E81E0982EF7018D
:1018A00042A950E0272D30E0A72CBB24A7FCB09420
:1018B00080AD90E024173507ECF4A816B9062CF497
:1018C000F701EA0DFB1D808101C08FEF1F928F93FE
:1018D0009F928F921F930F930E94E921B801C60136
:1018E0000E94761B73940F900F900F900F900F90A3
:1018F0000F90D5CFA816B90624F4EA0DFB1D808100
:1019000001C08FEF82958F701F928F9384ED91E0CD
:101910009F938F931F930F930E94E921B801C601F3
:101920000E94761BF70183A994A9877099270197D4
:101930000F900F900F900F900F900F900497F8F06A
:1019400080AD90E0A816B90624F4EA0DFB1D808155
:1019500001C08FEF8F701F928F9384ED91E09F9362
:101960008F931F930F930E94E921B801C6010E9433
:10197000761B0F900F900F900F900F900F900F907D
:101980000F900F90DF91CF911F910F91FF90EF90EB
:10199000DF90CF90BF90AF909F908F907F900895F1
:1019A0000F931F93CF93DF938C01EB0160E270E004
:1019B000CE010E943D1A209709F468C069ED71E0DC
:1019C000CE010E94761BF80181AD92AD23AD220FAE
:1019D000330B820F931FFC01EF5DFE4F608171811D
:1019E000CE010E94C51B6BE3CE010E94861B6DEDEC
:1019F00071E0CE010E94761BF80181AD92AD24AD5D
:101A0000220F330B820F931FFC01EF5DFE4F6081AD
:101A10007181CE010E94C51B6BE3CE010E94861B23
:101A200061EE71E0CE010E94761BF80181AD92ADAE
:101A300025AD220F330B820F931FFC01EF5DFE4F8C
:101A400060817181CE010E94C51B6BE3CE010E94B3
:101A5000861B65EE71E0CE010E94761BF80181AD18
:101A600092AD26AD220F330B820F931FFC01EF5D69
:101A7000FE4F60817181CE010E94C51B6BE3CE01D8
:101A8000DF91CF911F910F910C94861BDF91CF9125
:101A90001F910F9108950F931F93CF93DF938C01A4
:101AA000EB0167E070E0CE010E943D1A2097A1F0A3
:101AB00069EE71E0CE010E94761BF801FF9660810D
:101AC0007181CE010E94C51B6BE3CE01DF91CF91E6
:101AD0001F910F910C94861BDF91CF911F910F9155
:101AE00008950F931F93CF93DF938C01EB016AED61
:101AF00071E0CE010E94761BF80163A974A9CE01A2
:101B00000E94F61B6BE3CE01DF91CF911F910F91E5
:101B10000C94861B4F925F926F927F928F929F924E
:101B2000AF92BF92CF92DF92EF92FF920F931F93EB
:101B3000CF93DF93EC0109AD1AAD58018FECA81AD1
:101B40008EEFB80AD5018C91843008F4D3C06801B7
:101B5000B6EFCB1ABEEFDB0AF601608170E080E0E1
:101B600090E00E94681D2AE037ED43E25DE30E94A9
:101B70001C1E0E943A1DF62FE0E080E090E0912CC0
:101B8000812CEE24EA94FE2CD5012C91E21708F06A
:101B90006AC04E2F50E0D801A40FB51F14962C91A7
:101BA0002F1708F45EC0440F551F400F511FDA0174
:101BB000AF5DBE4F6D917C9130E01616170654F55F
:101BC000820F931F8394E60EF71E4CAD4F3F69F0D2
:101BD000242F220F330B200F311FD901AF5DBE4FD1
:101BE0002D913C91261737070CF44E2F4CAF4EAD7C
:101BF0004F3F69F0242F220F330B200F311FD901E3
:101C0000AF5DBE4F2D913C91621773070CF44E2FC0
:101C10004EAF27C0821B930B93944BAD4F3F69F09F
:101C2000242F220F330B200F311FD901AF5DBE4F80
:101C30002D913C91621773070CF44E2F4BAF4DADB5
:101C40004F3F69F0242F220F330B200F311FD90192
:101C5000AF5DBE4F2D913C91261737070CF44E2FE8
:101C60004DAFEF5F91CFBC0197FF03C071956195B8
:101C70007109882777FD8095982F0E94681D2B0198
:101C80003C01F601608170E080E090E00E94681DF8
:101C90002AE037ED43EA5CE30E941C1E9B01AC0185
:101CA000C301B2010E94181E181624F1981022C018
:101CB000FE01FF96C70163E070E00E949F1E7183E2
:101CC00060833BAD3F3FB1F09DAD9F3F99F0391729
:101CD00089F02CAD2F3F71F08EAD8F3F59F0281752
:101CE00049F0321739F0981729F0381719F081E0C8
:101CF000291301C080E0DF91CF911F910F91FF90D8
:101D0000EF90DF90CF90BF90AF909F908F907F909B
:101D10006F905F904F900895FC0180AD2E2FDF01F2
:101D20009A2F921B981710F41D92FACF12AA14AA98
:101D300013AA87E087AB08952FEFFC0123AF24AFF0
:101D400025AF26AFEE5BFF4F10823196108234979D
:101D500011821082329624E120830C948C0E2F92F3
:101D60003F924F925F926F927F928F929F92AF922B
:101D7000BF92CF92DF92EF92FF920F931F93CF9378
:101D8000DF93EC0189AD9AADFC01E25FFE4F10825A
:101D900033971082312C7E0182E4E80EF11C44243A
:101DA00043948E010D5B1F4F4E0191E4890E911CEF
:101DB000C9ACDAACF601E65FFE4F8081381608F058
:101DC000B6C0F7018081811110C0F601E30DF11D4D
:101DD000B4846B2DCE010E94F40B8111F3C06B2DE6
:101DE000CE010E94090C8111EDC0F701B08069ACF1
:101DF0007AACBB2089F1F801808181112DC0C3012B
:101E0000865F9E4F6C01F301E30DF11DA4846A2DE2
:101E1000CE010E94F40B811105C0F60180813816B5
:101E200008F4DBC0232DF60180813816A8F4C30125
:101E30008A0D911D8A0D911DFC01EF5DFE4F5180B1
:101E4000551C5524551CF301E55FFE4F30802319C6
:101E500009F0BFC0F8014082F8018081882309F4AD
:101E600064C0BB2009F461C0C32CD12C5301AC0C5D
:101E7000BD1CF5012484622DCE010E94F40B882341
:101E800011F054241CC0622DCE010E94090C282E92
:101E9000882309F4A4C0F301E65FFE4F208130E0FF
:101EA00021503109C216D3060CF099C0F5016585A1
:101EB000CE010E94090C882309F491C03394F801E3
:101EC0008081882391F18AA998AD891770F56FA94F
:101ED0004BA95CA9673049F44115510531F08F5F7A
:101EE0008AABFE01E80FF11D10822AA9862F90E02F
:101EF000FE01E20FF11D252D332727FD3095062E1B
:101F000001C0220F0A94EAF73081322B30834F5FF1
:101F10005F4F5CAB4BAB2DA9821B910997FD03C0B2
:101F2000621B6FAB02C0F7E0FFAB339441CF329638
:101F300030828EEF381236C089AD9AADFC01E65F73
:101F4000FE4F20812E3F71F5DC01A55FBE4F6C91E5
:101F50006230D0F0DE01AF5BBF4F2C9127FD2F5FC9
:101F60002595332727FD30954BA95CA92417350704
:101F700058F40E94900889AD9AADFC01E25FFE4FD3
:101F800021E02083F2960CC061110CC0DC01A05C42
:101F9000BE4F21E02C931082E9ADFAADE25FFE4F17
:101FA00020830EC0FE01EF5BFF4F2081332727FD0A
:101FB000309581E04BA95CA94217530708F065C032
:101FC00080E063C0F601E55FFE4F3082F70140829A
:101FD0000CCF20FF3FCF33943DCF339414CFF40187
:101FE0002081332727FD30958BA99CA98217930761
:101FF000D0F4222081F0F301E65FFE4F808190E073
:102000000197C816D9063CF4F5016585CE010E94FA
:10201000090C882371F1F7011082F8011082CE01BA
:102020000E948C0E4CCFF301E45FFE4F308209AD6D
:102030001AADF801EC0DFD1D6485CE010E94090C5E
:10204000882319F0FDEF3F16C9F089AD9AADFC0168
:10205000E45FFE4F60810E949008E9ADFAADE25F57
:10206000FE4F81E08083F4012081332727FD3095E6
:10207000A1CFF301E55FFE4F3080CDCFF801E45FE3
:10208000FE4F808181508083E0CFDF91CF911F91FF
:102090000F91FF90EF90DF90CF90BF90AF909F9007
:1020A0008F907F906F905F904F903F902F9008950A
:1020B0002F923F924F925F926F927F928F929F9258
:1020C000AF92BF92CF92DF92EF92FF920F931F9346
:1020D000CF93DF93CDB7DEB72B970FB6F894DEBF63
:1020E0000FBECDBF7C013C0180EC681A8EEF780AF0
:1020F000F3018081811105C0F6978081883208F450
:10210000BFC24701F3EF8F1AFEEF9F0AF40110825E
:10211000C7010E944C0940E060E0C7010E942C0901
:10212000C7010E94620A1701FDEE2F1AFEEF3F0A57
:10213000F10180819181019719F4C7010E940D0B73
:10214000F7018381882309F425C1F1018081918100
:10215000029709F01FC16701F6EFCF1AFEEFDF0A01
:10216000F6017081783208F415C12701F5EF4F1A96
:10217000FEEF5F0AF20160815701F4EFAF1AFEEF44
:10218000BF0A82E0860FF5018083872F90E00197D8
:10219000D701AD5CBE4FF5011081E12FF0E0E817EB
:1021A000F907F4F4EE0DFF1D458550E02C9133271F
:1021B00027FD30954217530779F4448550E0F70125
:1021C0002081332727FD30954217530729F41150FA
:1021D000F501108311E005C01E5FF5011083DBCF10
:1021E00010E0F5018081781708F47083F5014081D3
:1021F000C7010E942C09112351F0F501808190E064
:10220000F2012081821B9109889734F4C0C0F60145
:1022100080818E3F08F0A8C06701FCECCF1AFEEF6A
:10222000DF0A64E172E0C6010E94D21A8701065CEF
:102230001E4F64E172E0C8010E94D21A62E0C6013A
:102240000E94861B6CEE71E0C6010E94761B6BE358
:10225000C6010E94861B20E0C7018F5C9E4F9887B5
:102260008F83EF81F8858081281778F5422F50E021
:10227000F701E40FF51F8481882329F160E5C60189
:102280002B8729875A870E94861B2B85622FC601C0
:102290000E94991B6AEE71E0C6010E94761B498577
:1022A0005A85CA01880F991F8E0D9F1DFC01EF5D95
:1022B000FE4F60817181C6010E94C51B6BE3C601A0
:1022C0000E94861B2B852F5FCCCF6FEE71E0C6017D
:1022D0000E94761B6BE3C8010E94861B62EF71E0CF
:1022E000C8010E94761BF7016081772767FD709512
:1022F000C8010E94C51B6BE3C8010E94861B66EFE4
:1023000071E0C8010E94761BF701ED5CFE4F608111
:10231000772767FD7095C8010E94C51B6BE3C80154
:102320000E94861BF701E15FFE4F8081882349F000
:102330006AEF71E0C8010E94761B6BE3C8010E943E
:10234000861B63E0C8010E94861B6AE0C8010E94E8
:10235000861B9601F5014081F2016081C7010E9450
:10236000CB0B81E0F40111C0F2016081623078F0A2
:10237000F501808190E08D3F91054CF0C7010E94EE
:10238000900881E0F701E25FFE4F808303C0C70140
:102390000E94A708F4018081811172C1F701818137
:1023A000811104C08281882309F46AC16701FCECB1
:1023B000CF1AFEEFDF0A64E172E0C6010E94D21A72
:1023C0008701065C1E4F64E172E0C8010E94D21AC8
:1023D00062E0C6010E94861BF7018281882309F40E
:1023E000BAC08091F803811143C082E38093EC036B
:1023F00081E08093E9031092EA0384EB93E00E946A
:102400008C0E2091E90387E090E0821B9109709186
:10241000EA0367E041E050E0262F30E0821793079F
:102420004CF49A01062E01C0220F0A94EAF7722B8F
:102430006150F2CF7093EA038FEF8093EF038093A4
:10244000F0038093F1038093F2031092F60310924D
:10245000F703F092EE03E092ED0384EB93E00E9429
:102460009C0E81E08093F8038FE898E00E946A1840
:10247000F3018081811107C084EB93E00E949C0EE0
:1024800081E18093F503F3018081882309F450C032
:1024900084EB93E00E94AF0E882309F44FC064E1FF
:1024A00072E0CE0101960E947A1A6FEE71E0CE01C1
:1024B00001960E94D21ABE016F5F7F4F84EB93E0BA
:1024C0000E941E0C6FEF71E0C6010E94761B6BE349
:1024D000C6010E94861BB60184EB93E00E94D00CDB
:1024E0006BE3C8010E94861BB80184EB93E00E9455
:1024F0004B0DB80184EB93E00E94710D63E0C801BD
:102500000E94861B6AE0C8010E94861B9801AE01EA
:102510004F5F5F4FB601C7010E94B30BF3011082FA
:1025200081E0F4018083CE0101960E940C1A13C051
:1025300084EB93E00E948A0D8111AACFF301808180
:10254000882349F0F701E25FFE4F8081882319F06C
:1025500081E0F4018083F7018181882309F490C030
:10256000F10180819181019709F08AC0F401808195
:10257000811186C05701F6EFAF1AFEEFBF0AF501D1
:102580008081883208F47CC06CEF71E0C6010E9443
:10259000761B6BE3C6010E94861B312C3701FFECD2
:1025A0006F1AFEEF7F0AF3018081381648F5432C3D
:1025B000512CF701E40DF51D84818823F9F068ECB6
:1025C00071E0C6010E94761B632DC6010E94991B13
:1025D0006AEE71E0C6010E94761BC201880F991F46
:1025E0008E0D9F1DFC01EF5DFE4F60817181C60164
:1025F0000E94C51B6BE3C6010E94861B3394D3CF98
:102600006FEE71E0C6010E94761B6BE3C8010E9469
:10261000861B62EF71E0C8010E94761BF7016081A2
:10262000772767FD7095C8010E94C51B6BE3C80141
:102630000E94861BF701E15FFE4F8081882349F0ED
:102640006AEF71E0C8010E94761B6BE3C8010E942B
:10265000861B63E0C8010E94861B6AE0C8010E94D5
:10266000861BF50140814150960160E0C7010E9440
:10267000CB0BF701E25FFE4F108281E0F401808313
:10268000F701E25FFE4F8081811103C0C7010E9404
:10269000A7082B960FB6F894DEBF0FBECDBFDF9113
:1026A000CF911F910F91FF90EF90DF90CF90BF904F
:1026B000AF909F908F907F906F905F904F903F90E2
:1026C0002F9008957F928F929F92AF92BF92CF9258
:1026D000DF92EF92FF920F931F93CF93DF93EC0162
:1026E0004C0123EF821A2EEF920AD4011C928C0126
:1026F000065F1E4FF8018081882381F0FE01E80FFC
:10270000F11D2385CE01820F911D820F911D8F5DDA
:102710009E4FFE01E55EFE4F91838083DB012D918C
:102720003C915E01B7EEAB1ABEEFBB0AD501ED914D
:10273000FC9131832083F8014081442319F1FE018B
:10274000E55EFE4F0190F081E02D8081918182272E
:10275000932797FF02C04E3F61F4FE01E15FFE4FF9
:1027600081E04E3F09F080E08083CE010E94581046
:1027700009C0483239F483E090E0FE01ED5EFE4F7F
:1027800091838083D501ED91FC9160817181CE01AF
:102790000E94EC08782E87FD27C0E82EEE0CFF087B
:1027A000EC0EFD1EBFEDEB1ABEEFFB0AF7016081D8
:1027B0007181882777FD8095982FD501ED91FC9147
:1027C00020813181442737FD4095542F620F731FBC
:1027D000841F951F22E030E040E050E00E94D51EAB
:1027E000F7013183208362C07E01FFECEF1AFEEF18
:1027F000FF0AD7018C91FE01EE5CFE4F6F0188301D
:1028000071F540E060E0CE010E942C09D7018C9167
:10281000FE01E80FF11D8481833018F0CE010E9483
:102820005810F801208180E090E030E0A90141508B
:1028300051092C0F3D1FBA01680F791F1616170694
:1028400074F4F901E80FF91FF3850197D601EC91B3
:10285000FE13F1CF6F5F7F4FCE010E949008F6010B
:102860007080D501ED91FC9120813181CE01870DE1
:10287000911D870D911DFC01EF5DFE4F318320837B
:1028800081E0870D883019F0F601808308C0D601F9
:102890001C92F7018083FE01E05CFE4F1082D6019E
:1028A0008C91F7019081981708F48083D8018C915E
:1028B000C80FD11D7C868F5F8C93F4018081DF91DE
:1028C000CF911F910F91FF90EF90DF90CF90BF902D
:1028D000AF909F908F907F900895089508958230D3
:1028E000E8F4E82FF0E0EE0FFF1FE75FFE4F718383
:1028F0006083813041F0809169008C7F842B8093CC
:102900006900E89A089580916900440F551F440FAB
:10291000551F837F842B80936900E99A0895823044
:1029200078F4813011F0E89801C0E998E82FF0E0E0
:10293000EE0FFF1FE75FFE4F8EE694E191838083E9
:1029400008951F920F920FB60F9211242F933F9369
:102950004F935F936F937F938F939F93AF93BF93A7
:10296000EF93FF93E0910901F0910A010995FF911E
:10297000EF91BF91AF919F918F917F916F915F91F7
:102980004F913F912F910F900FBE0F901F90189570
:102990001F920F920FB60F9211242F933F934F93D4
:1029A0005F936F937F938F939F93AF93BF93EF93B7
:1029B000FF93E0910B01F0910C010995FF91EF91CC
:1029C000BF91AF919F918F917F916F915F914F9147
:1029D0003F912F910F900FBE0F901F9018951F924F
:1029E0000F920FB60F9211242F933F938F939F93C3
:1029F000AF93BF938091010490910204A0910304CE
:102A0000B09104043091000423E0230F2D3720F40B
:102A10000196A11DB11D05C026E8230F0296A11D38
:102A2000B11D209300048093010490930204A093AD
:102A30000304B09304048091050490910604A091CE
:102A40000704B09108040196A11DB11D80930504EF
:102A500090930604A0930704B0930804BF91AF912C
:102A60009F918F913F912F910F900FBE0F901F90CC
:102A700018952FB7F8946091010470910204809129
:102A80000304909104042FBF08953FB7F8948091F8
:102A9000050490910604A0910704B091080426B59E
:102AA000A89B05C02F3F19F00196A11DB11D3FBF86
:102AB0006627782F892F9A2F620F711D811D911D16
:102AC00042E0660F771F881F991F4A95D1F7089536
:102AD0008F929F92AF92BF92CF92DF92EF92FF922E
:102AE0006B017C010E9445154B015C01C114D104AE
:102AF000E104F104F1F00E946D140E94451568197B
:102B000079098A099B09683E73408105910570F334
:102B100021E0C21AD108E108F10888EE880E83E0AE
:102B2000981EA11CB11CC114D104E104F10429F7C1
:102B3000DDCFFF90EF90DF90CF90BF90AF909F9050
:102B40008F9008958230910538F0880F991F880F73
:102B5000991F05970197F1F70895789484B58260DD
:102B600084BD84B5816084BD85B5826085BD85B531
:102B7000816085BDEEE6F0E0808181608083E1E8E0
:102B8000F0E0108280818260808380818160808318
:102B9000E0E8F0E0808181608083E1EBF0E080811B
:102BA00084608083E0EBF0E0808181608083EAE7ED
:102BB000F0E0808184608083808182608083808176
:102BC000816080838081806880831092C100089535
:102BD000833081F028F4813099F08230A1F008959B
:102BE0008730A9F08830B9F08430D1F4809180002A
:102BF0008F7D03C0809180008F778093800008953F
:102C000084B58F7702C084B58F7D84BD089580918F
:102C1000B0008F7703C08091B0008F7D8093B000AB
:102C20000895CF93DF9390E0FC01E555FF4F249189
:102C3000FC01E154FF4F8491882349F190E0880F13
:102C4000991FFC01E352FF4FA591B4918D529F4F04
:102C5000FC01C591D4919FB7611108C0F8948C9183
:102C6000209582238C93888182230AC0623051F49C
:102C7000F8948C91322F309583238C938881822B0A
:102C8000888304C0F8948C91822B8C939FBFDF9132
:102C9000CF9108950F931F93CF93DF931F92CDB7DA
:102CA000DEB7282F30E0F901E956FF4F8491F90192
:102CB000E555FF4F1491F901E154FF4F04910023B2
:102CC000C9F0882321F069830E94E8156981E02F0B
:102CD000F0E0EE0FFF1FED52FF4FA591B4919FB7AB
:102CE000F8948C91611103C01095812301C0812B50
:102CF0008C939FBF0F90DF91CF911F910F910895FB
:102D0000FC01818D228D90E0805C9F4F821B910998
:102D10008F7399270895FC01918D828D981731F05A
:102D2000828DE80FF11D858D90E008958FEF9FEF64
:102D30000895FC01918D828D981761F0828DDF01DD
:102D4000A80FB11D5D968C91928D9F5F9F73928F9E
:102D500090E008958FEF9FEF08958DE198E1892B22
:102D600049F087E498E0892B29F00E941D18811111
:102D70000C9447080895FC01848DDF01A80FB11D54
:102D8000A35ABF4F2C91848D90E001968F739927A1
:102D9000848FA689B7892C93A089B1898C9180648E
:102DA0008C93938D848D981306C00288F389E02D4F
:102DB00080818F7D80830895CF93DF93EC01888D90
:102DC0008823C9F0EA89FB89808185FD05C0A8892F
:102DD000B9898C9186FD0FC00FB607FCF5CF8081B5
:102DE00085FFF2CFA889B9898C9185FFEDCFCE01FF
:102DF0000E94BB16E7CFDF91CF910895CF92DF926B
:102E0000FF920F931F93CF93DF931F92CDB7DEB73F
:102E10006C0181E0D60158968C9358975B969C91F3
:102E20005B975C968C915C97981307C05096ED91D8
:102E3000FC915197808185FD2EC0F601038D10E035
:102E40000F5F1F4F0F731127F02EF601848DF812BC
:102E500011C00FB607FCF9CFD6015096ED91FC9149
:102E60005197808185FFF1CFC60169830E94BB160F
:102E70006981EBCF838DE80FF11DE35AFF4F60832B
:102E8000D6015B960C935B975296ED91FC9153970C
:102E9000808180620CC0D6015696ED91FC915797C7
:102EA00060835096ED91FC9151978081806480837E
:102EB00081E090E00F90DF91CF911F910F91FF90F3
:102EC000DF90CF900895BF92CF92DF92EF92FF9262
:102ED000CF93DF93EC016A017B01B22EE889F98977
:102EE00082E08083411581EE580761057105A1F0EC
:102EF00060E079E08DE390E0A70196010E94B31EA7
:102F00002150310941095109569547953795279523
:102F1000211580E1380798F0E889F989108260E886
:102F200074E88EE190E0A70196010E94B31E215043
:102F30003109410951095695479537952795EC85F3
:102F4000FD853083EE85FF852083188EEC89FD8911
:102F5000B082EA89FB89808180618083EA89FB896C
:102F6000808188608083EA89FB8980818068808392
:102F7000EA89FB8980818F7D8083DF91CF91FF90EB
:102F8000EF90DF90CF90BF9008951F920F920FB6F1
:102F90000F9211242F938F939F93EF93FF93E091C0
:102FA0001904F0911A048081E0911F04F09120042B
:102FB00082FD12C09081809122048F5F8F732091D7
:102FC0002304821751F0E0912204F0E0E75FFB4F09
:102FD000958F8093220401C08081FF91EF919F9192
:102FE0008F912F910F900FBE0F901F9018951F92E9
:102FF0000F920FB60F9211242F933F934F935F932D
:103000006F937F938F939F93AF93BF93EF93FF93B0
:1030100089E094E00E94BB16FF91EF91BF91AF91C0
:103020009F918F917F916F915F914F913F912F91E0
:103030000F900FBE0F901F90189589E094E00E94AA
:10304000801621E0892B09F420E0822F0895109248
:103050000C0410920B0488EE93E0A0E0B0E08093A3
:103060000D0490930E04A0930F04B093100486E017
:1030700092E090930A048093090485EC90E0909389
:1030800016048093150484EC90E0909318048093C8
:10309000170480EC90E090931A048093190481EC5B
:1030A00090E090931C0480931B0482EC90E090933A
:1030B0001E0480931D0486EC90E09093200480937E
:1030C0001F041092220410922304109224041092E0
:1030D0002504089580E090E0089508950E94AD15BC
:1030E0000E946D180E94AE07CDEAD6E10E94470704
:1030F0002097E1F30E94AD16F9CFCF92DF92EF92C5
:10310000FF920F931F93CF93DF937C016A01EB0132
:1031100000E010E00C151D0571F06991D701ED91EB
:10312000FC910190F081E02DC7010995892B19F0E0
:103130000F5F1F4FEFCFC801DF91CF911F910F910C
:10314000FF90EF90DF90CF9008956115710581F0A9
:10315000DB010D900020E9F7AD0141505109461BFC
:10316000570BDC01ED91FC910280F381E02D099475
:1031700080E090E00895EF92FF920F931F93CF931A
:10318000DF938C017B01C0E0D0E0F701EC0FFD1F65
:103190006491662359F0F801A081B181ED91FC9111
:1031A000C8010995892B11F02196EFCFCE01DF914F
:1031B000CF911F910F91FF90EF900895DC01ED9159
:1031C000FC91DB0114964D915C9115976D917C916A
:1031D0000280F381E02D0994DC01ED91FC910190D6
:1031E000F081E02D099462E172E00C94A5180F9330
:1031F0001F93CF93DF93EC010E94BB188C01CE018B
:103200000E94F318800F911FDF91CF911F910F91B2
:1032100008950F931F93CF93DF93EC010E94DE1864
:103220008C01CE010E94F318800F911FDF91CF9186
:103230001F910F9108950F931F93CF93DF93EC018C
:103240000E94A5188C01CE010E94F318800F911FD7
:10325000DF91CF911F910F9108958F929F92AF921E
:10326000BF92DF92EF92FF920F931F93CF93DF9362
:10327000CDB7DEB7A1970FB6F894DEBF0FBECDBFB6
:103280007C01F42FD52ECB0119A2223008F42AE0BC
:103290008E010F5D1F4F822E912CA12CB12C6F2F10
:1032A0007D2DA50194010E94B31EF22FD32ECA01D9
:1032B000015011096A3014F4E0E301C0E7E3E60FBE
:1032C000D801EC93232B242B252B49F7B801C701F8
:1032D0000E94A518A1960FB6F894DEBF0FBECDBF11
:1032E000DF91CF911F910F91FF90EF90DF90BF90F2
:1032F000AF909F908F900895CF92DF92EF92FF92C0
:103300000F931F93CF93DF93EC016A017B0121158B
:10331000310579F4E881F9810190F081E02D642F85
:10332000DF91CF911F910F91FF90EF90DF90CF90A1
:1033300009942A303105E9F477FF1AC06DE20E9442
:10334000EC188C0144275527BA014C195D096E0908
:103350007F092AE0CE010E942D19800F911FDF9175
:10336000CF911F910F91FF90EF90DF90CF90089534
:103370002AE0B701A601CE01DF91CF911F910F91F5
:10338000FF90EF90DF90CF900C942D199A01AB0134
:10339000662757FD6095762F0C947C190F931F9329
:1033A000CF93DF93EC019A01AB01662757FD60953F
:1033B000762F0E947C198C01CE010E94F318800F99
:1033C000911FDF91CF911F910F9108952115310524
:1033D00041F4DC01ED91FC910190F081E02D642F2E
:1033E00009940C942D199A01462F50E060E070E08A
:1033F0000C94E6190F931F93CF93DF93EC010E9477
:10340000E6198C01CE010E94F318800F911FDF9105
:10341000CF911F910F910895FC01808191810C94AF
:10342000A81FCF93DF93EC0188819981009711F059
:103430000E94A81F198218821D821C821B821A8278
:10344000DF91CF9108950F931F93CF93DF93EC01FA
:103450008B016F5F7F4F888199810E943720009791
:1034600031F0998388831B830A8381E001C080E067
:10347000DF91CF911F910F910895CF93DF93EC01CE
:1034800088819981892B29F08A819B8186179707EA
:1034900060F4CE010E94231A882341F08C819D8123
:1034A000892B19F4E881F981108281E0DF91CF91B5
:1034B0000895EF92FF920F931F93CF93DF93EC0148
:1034C0007B018A01BA010E943D1A811104C0CE011C
:1034D0000E94111A07C01D830C83B701888199814E
:1034E0000E946121CE01DF91CF911F910F91FF903A
:1034F000EF900895FC0111821082138212821582CE
:1035000014826115710559F0FB0101900020E9F763
:10351000AF0141505109461B570B0C94591A08959D
:103520000F931F93CF93DF938C01EB01FC018081FC
:103530009181009799F0428153812C813D814217FE
:10354000530750F0688179810E9461218C819D81AF
:10355000F8019583848313C00E94A81F88819981F4
:10356000F801918380838A819B81938382838C81FC
:103570009D8195838483198218821B821A821D8201
:103580001C82DF91CF911F910F910895CF93DF930C
:10359000EC018617970711F00E94901ACE01DF9177
:1035A000CF910895CF93DF93EC016115710561F020
:1035B000FB0101900020E9F7AF0141505109461B82
:1035C000570B0E94591A02C00E94111ACE01DF91B6
:1035D000CF9108950F931F93CF93DF93CDB7DEB7AD
:1035E00029970FB6F894DEBF0FBECDBF8C01862F92
:1035F000F80111821082138212821582148250E027
:10360000BE016F5F7F4F90E00E94C421BE016F5FDB
:103610007F4FC8010E94D21A29960FB6F894DEBFD8
:103620000FBECDBFDF91CF911F910F9108950F93E2
:103630001F93CF93DF93CDB7DEB762970FB6F894A1
:10364000DEBF0FBECDBF8C01CB01F801118210820D
:10365000138212821582148250E0BE016F5F7F4F89
:103660000E949121BE016F5F7F4FC8010E94D21A54
:1036700062960FB6F894DEBF0FBECDBFDF91CF913B
:103680001F910F910895EF92FF920F931F93CF9385
:10369000DF93EC017B010C811D816115710511F433
:1036A00080E016C04115510591F0040F151FB801B7
:1036B0000E943D1A8823A1F3288139818C819D8144
:1036C000B701820F931F0E9461211D830C8381E04B
:1036D000DF91CF911F910F91FF90EF900895FB0123
:1036E00044815581608171810C94431B6115710582
:1036F00059F0FB0101900020E9F7AF014150510959
:10370000461B570B0C94431B80E00895CF93DF9327
:1037100000D0CDB7DEB769831A8241E050E0BE0128
:103720006F5F7F4F0E94431B0F900F90DF91CF91EF
:103730000895EF92FF920F931F93CF93DF9300D0E2
:1037400000D0CDB7DEB77C01862F4AE08E010F5F37
:103750001F4FB80190E00E949C21F80101900020C9
:10376000E9F7AF0141505109401B510BB801C701A6
:103770000E94431B0F900F900F900F90DF91CF91FD
:103780001F910F91FF90EF900895EF92FF920F938A
:103790001F93CF93DF93CDB7DEB728970FB6F8947A
:1037A000DEBF0FBECDBF7C01CB014AE08E010F5FB3
:1037B0001F4FB8010E949C21F80101900020E9F7F9
:1037C000AF0141505109401B510BB801C7010E9484
:1037D000431B28960FB6F894DEBF0FBECDBFDF9116
:1037E000CF911F910F91FF90EF900895EF92FF926C
:1037F0000F931F93CF93DF93CDB7DEB727970FB605
:10380000F894DEBF0FBECDBF7C01CB014AE08E0134
:103810000F5F1F4FB8010E94CF21F80101900020D7
:10382000E9F7AF0141505109401B510BB801C701E5
:103830000E94431B27960FB6F894DEBF0FBECDBF84
:10384000DF91CF911F910F91FF90EF900895FC01B0
:10385000248135816217730748F480819181009734
:1038600029F0FC01E60FF71F8081089580E008959C
:103870000C94271C0F931F93CF93DF93EB014115FB
:103880005105E9F02097D9F0FC0164817581261774
:103890003707A0F4621B730B8A01015011096017EE
:1038A000710708F48B01FC0160817181620F731F45
:1038B000A801CE010E946821C00FD11F1882DF919C
:1038C000CF911F910F910895CF93DF93FC018481D5
:1038D00095814817590778F4C081D181FB01608137
:1038E0007181CE01840F951F0E947721009719F0F6
:1038F0008C1B9D0B02C08FEF9FEFDF91CF9108953E
:10390000BF92CF92DF92EF92FF920F931F93CF93CC
:10391000DF936C017B01EA0189012417350720F44C
:103920008D2FE901042F182F64E172E0C6010E9477
:103930007A1AD70114968D919C911597C817D907BB
:10394000C8F48017910708F48C01D701ED91FC9120
:103950001197E00FF11FB08010826D917C916C0F78
:103960007D1FC6010E94D21AD701ED91FC91E00F94
:10397000F11FB082C601DF91CF911F910F91FF908F
:10398000EF90DF90CF90BF900895FC0180819181EE
:10399000009711F00C941F2160E070E0CB010895B6
:1039A0005058BB27AA270ED009C1FAD030F0FFD05B
:1039B00020F031F49F3F11F41EF4EFC00EF4E095B7
:1039C000E7FBE5C0E92F0BD180F3BA176207730755
:1039D0008407950718F071F49EF523C10EF4E09565
:1039E0000B2EBA2FA02D0B01B90190010C01CA01B9
:1039F000A0011124FF27591B99F0593F50F4503E64
:103A000068F11A16F040A22F232F342F4427585F55
:103A1000F3CF469537952795A795F0405395C9F76D
:103A20007EF41F16BA0B620B730B840BBAF0915025
:103A3000A1F0FF0FBB1F661F771F881FC2F70EC0C4
:103A4000BA0F621F731F841F48F487957795679597
:103A5000B795F7959E3F08F0B3CF9395880F08F080
:103A60009927EE0F97958795089504D06894B11122
:103A7000D9C00895BCD088F09F5790F0B92F9927EE
:103A8000B751A0F0D1F0660F771F881F991F1AF069
:103A9000BA95C9F712C0B13081F0C3D0B1E0089532
:103AA000C0C0672F782F8827B85F39F0B93FCCF3B3
:103AB000869577956795B395D9F73EF4909580955F
:103AC000709561957F4F8F4F9F4F0895E89409C07F
:103AD00097FB3EF490958095709561957F4F8F4F41
:103AE0009F4F9923A9F0F92F96E9BB279395F69557
:103AF000879577956795B795F111F8CFFAF4BB0FD5
:103B000011F460FF1BC06F5F7F4F8F4F9F4F16C038
:103B1000882311F096E911C0772321F09EE8872FC2
:103B2000762F05C0662371F096E8862F70E060E07E
:103B30002AF09A95660F771F881FDAF7880F9695F7
:103B4000879597F90895990F0008550FAA0BE0E89B
:103B5000FEEF16161706E807F907C0F0121613064F
:103B6000E407F50798F0621B730B840B950B39F48F
:103B70000A2661F0232B242B252B21F408950A26F5
:103B800009F4A140A6958FEF811D811D089597F935
:103B90009F6780E870E060E008959FEF80EC0895F3
:103BA00000240A941616170618060906089500241C
:103BB0000A9412161306140605060895092E039496
:103BC000000C11F4882352F0BB0F40F4BF2B11F40A
:103BD00060FF04C06F5F7F4F8F4F9F4F089557FD69
:103BE0009058440F551F59F05F3F71F04795880F6B
:103BF00097FB991F61F09F3F79F087950895121602
:103C000013061406551FF2CF4695F1DF08C01616AD
:103C100017061806991FF1CF86957105610508945E
:103C20000895E894BB2766277727CB0197F9089575
:103C30008ADF08F48FEF08950BD0C0CFB1DF28F0F2
:103C4000B6DF18F0952309F0A2CFA7CF1124EACF51
:103C5000C6DFA0F3959FD1F3950F50E0551F629FEB
:103C6000F001729FBB27F00DB11D639FAA27F00DD5
:103C7000B11DAA1F649F6627B00DA11D661F829FFC
:103C80002227B00DA11D621F739FB00DA11D621FE1
:103C9000839FA00D611D221F749F3327A00D611DFE
:103CA000231F849F600D211D822F762F6A2F1124E0
:103CB0009F5750408AF0E1F088234AF0EE0FFF1F33
:103CC000BB1F661F771F881F91505040A9F79E3F6A
:103CD000510570F05CCFA6CF5F3FECF3983EDCF36C
:103CE000869577956795B795F795E7959F5FC1F7A7
:103CF000FE2B880F911D9695879597F90895991B2E
:103D000079E004C0991F961708F0961B881F7A95D2
:103D1000C9F780950895AA1BBB1B51E107C0AA1FD4
:103D2000BB1FA617B70710F0A61BB70B881F991F5C
:103D30005A95A9F780959095BC01CD01089597FB00
:103D4000072E16F4009407D077FD09D00E948B1E31
:103D500007FC05D03EF4909581959F4F089570958E
:103D600061957F4F0895A1E21A2EAA1BBB1BFD018E
:103D70000DC0AA1FBB1FEE1FFF1FA217B307E4074A
:103D8000F50720F0A21BB30BE40BF50B661F771FA2
:103D9000881F991F1A9469F7609570958095909582
:103DA0009B01AC01BD01CF010895052E97FB1EF4C8
:103DB00000940E94EC1E57FD07D00E94B31E07FC22
:103DC00003D04EF40C94EC1E5095409530952195FF
:103DD0003F4F4F4F5F4F0895909580957095619537
:103DE0007F4F8F4F9F4F08950E94011FB7FF089587
:103DF000821B930B0895EE0FFF1F0590F491E02DA9
:103E00000994A29FB001B39FC001A39F700D811DB3
:103E10001124911DB29F700D811D1124911D0895D3
:103E2000CF93DF938230910510F482E090E0E0912F
:103E3000A804F091A90420E030E0A0E0B0E03097C1
:103E400039F14081518148175907B8F0481759078F
:103E500071F482819381109729F013969C938E932D
:103E600012972CC09093A9048093A80427C0211511
:103E7000310531F04217530718F0A901DB0101C0E9
:103E8000EF019A01BD01DF010280F381E02DD7CF60
:103E900021153105F9F0281B390B2430310580F448
:103EA0008A819B816115710521F0FB0193838283D7
:103EB00004C09093A9048093A804FE01329644C0E4
:103EC000FE01E20FF31F8193919322503109398350
:103ED00028833AC02091A6043091A704232B41F4F3
:103EE00020910201309103013093A7042093A6048E
:103EF00020910001309101012115310541F42DB7C8
:103F00003EB74091040150910501241B350BE0910F
:103F1000A604F091A704E217F307A0F42E1B3F0BB1
:103F20002817390778F0AC014E5F5F4F241735072B
:103F300048F04E0F5F1F5093A7044093A60481934F
:103F4000919302C0E0E0F0E0CF01DF91CF910895BE
:103F5000CF93DF93009709F487C0FC013297138257
:103F60001282C091A804D091A904209781F42081E5
:103F70003181280F391F8091A6049091A7048217E0
:103F8000930779F5F093A704E093A6046DC0DE01D2
:103F900020E030E0AE17BF0750F412964D915C91CF
:103FA00013979D014115510509F1DA01F3CFB38350
:103FB000A28340815181840F951F8A179B0771F45A
:103FC0008D919C911197840F951F02969183808308
:103FD00012968D919C9113979383828321153105BD
:103FE00029F4F093A904E093A8043EC0D9011396E4
:103FF000FC93EE9312974D915D91A40FB51FEA17B4
:10400000FB0779F480819181840F951F0296D90175
:1040100011969C938E938281938113969C938E9399
:104020001297E0E0F0E08A819B81009719F0FE0191
:10403000EC01F9CFCE01029628813981820F931FBE
:104040002091A6043091A7042817390769F4309706
:1040500029F41092A9041092A80402C013821282BB
:10406000D093A704C093A604DF91CF910895A0E058
:10407000B0E0EDE3F0E20C94AD24EC01CB0120972D
:1040800019F40E94101FB8C0FE01E60FF71F9E0131
:1040900022503109E217F30708F4ACC0D9010D91A1
:1040A0001C91119706171707B8F00530110508F491
:1040B0009FC0A801445051094617570708F498C0FB
:1040C00002501109061B170B019311936D937C93FA
:1040D000CF010E94A81F8CC05B01A01AB10A4E013B
:1040E000800E911EA091A804B091A904612C712C9E
:1040F00060E070E0109709F449C0A815B905C9F54A
:10410000ED90FC901197670142E0C40ED11CCA14D7
:10411000DB0478F147018A189B08640142E0C40E71
:10412000D11C1296BC9012971396AC91B5E0CB16A9
:10413000D10440F0B282A38391828082D9018D9311
:104140009C9309C00E5F1F4F0E0D1F1DF9011183B7
:104150000083EB2DFA2F6115710531F0DB01139609
:10416000FC93EE93129744C0F093A904E093A80443
:104170003FC06D917C9111976616770608F43B015C
:10418000BD0112960D90BC91A02DB4CF6091A604F4
:104190007091A70468157905E9F468167906D0F4DA
:1041A00040910001509101014115510541F44DB775
:1041B0005EB76091040170910501461B570BE4172F
:1041C000F507C0F4F093A704E093A604F9019183E6
:1041D00080830EC00E94101F7C01009759F0A80137
:1041E000BE010E944621CE010E94A81FC70104C043
:1041F000CE0102C080E090E0CDB7DEB7EEE00C94D7
:10420000C924FC0188279927E89421912032E9F3F9
:10421000293010F02E30C8F32B3241F02D3239F412
:10422000689404C00E94BC21820F911D21912053EB
:104230002A30C0F31EF4909581959F4F08951F93E7
:10424000FC0199278827BC01E89411911032E9F309
:10425000193010F01E30C8F31B3251F01D3249F4F2
:10426000689406C00E94A721610F711D811D911DD8
:10427000119110531A30B0F33EF4909580957095DB
:1042800061957F4F8F4F9F4F1F910895FB01DC0178
:1042900002C001900D9241505040D8F70895681720
:1042A000790768F4FB01DC01E40FF51FA40FB51FCB
:1042B00002C002900E9241505040D8F708950C94DD
:1042C0004621FB01DC0101900D920020E1F70895E9
:1042D000FB01DC014150504048F001900D9200205C
:1042E000C9F701C01D9241505040E0F70895FB010D
:1042F00051915523A9F0BF01DC014D9145174111A2
:10430000E1F759F4CD010190002049F04D9140159D
:104310004111C9F3FB014111EFCF81E090E001971A
:1043200008954532510520F4423010F00C949C2140
:10433000FB011082CB010895BB274A3031F4992349
:1043400022F4BDE2909581959F4F0C94D021592F76
:10435000482F372F262F660F771F881F991F660F4C
:10436000771F881F991F620F731F841F951F660F89
:10437000771F881F991F08957AE0979F902D879F38
:10438000802D910D112408954532510520F44230BD
:1043900010F00C94CF21FB011082CB010895BB27B4
:1043A000FB015527AA27880F991FAA1FA41710F0F1
:1043B000A41B83955051B9F7A05DAA3308F0A95DFD
:1043C000A193009779F7B111B1931192CB010C949D
:1043D0000924AEE0B0E0EFEEF1E20C94B7240D89D1
:1043E0001E8986E08C831A8309838FEF9FE79E8363
:1043F0008D83AE01475E5F4F6F89788DCE01019648
:104400000E940B22EF81F885E00FF11F10822E969B
:10441000E4E00C94D324ACE0B0E0E1E1F2E20C94EF
:10442000A9247C016B018A01FC0117821682838119
:1044300081FFBDC1CE0101964C01F7019381F601C8
:1044400093FD859193FF81916F01882309F4ABC19E
:10445000853239F493FD859193FF81916F01853207
:1044600029F4B70190E00E941924E7CF512C312C98
:1044700020E02032A0F48B3269F030F4803259F021
:10448000833269F420612CC08D3239F0803339F4E5
:10449000216026C02260246023C0286021C027FD3F
:1044A00027C030ED380F3A3078F426FF06C0FAE026
:1044B0005F9E300D1124532E13C08AE0389E300DBC
:1044C0001124332E20620CC08E3221F426FD6BC1E4
:1044D000206406C08C3611F4206802C0883641F48E
:1044E000F60193FD859193FF81916F018111C1CFF9
:1044F000982F9F7D9554933028F40C5F1F4FFFE356
:10450000F9830DC0833631F0833771F0833509F0BC
:104510005BC022C0F801808189830E5F1F4F442455
:104520004394512C540115C03801F2E06F0E711CF8
:10453000F801A080B18026FF03C0652D70E002C0A5
:104540006FEF7FEFC5012C870E94FE232C018301B2
:104550002C852F77222E17C03801F2E06F0E711CC8
:10456000F801A080B18026FF03C0652D70E002C075
:104570006FEF7FEFC5012C870E94F3232C012C8560
:104580002068222E830123FC1BC0832D90E0481657
:104590005906B0F4B70180E290E00E9419243A94E1
:1045A000F4CFF50127FC859127FE81915F01B701CA
:1045B00090E00E94192431103A94F1E04F1A51080A
:1045C0004114510471F7E5C0843611F0893639F58C
:1045D000F80127FF07C060817181828193810C5FA0
:1045E0001F4F08C060817181882777FD8095982FC3
:1045F0000E5F1F4F2F76B22E97FF09C090958095C2
:10460000709561957F4F8F4F9F4F2068B22E2AE0A3
:1046100030E0A4010E944B24A82EA81844C085377E
:1046200029F42F7EB22E2AE030E025C0F22FF97F48
:10463000BF2E8F36C1F018F4883579F0B4C08037BA
:1046400019F0883721F0AFC02F2F2061B22EB4FEB1
:104650000DC08B2D8460B82E09C024FF0AC09F2F87
:104660009660B92E06C028E030E005C020E130E0B9
:1046700002C020E132E0F801B7FE07C0608171811D
:10468000828193810C5F1F4F06C06081718180E041
:1046900090E00E5F1F4FA4010E944B24A82EA81883
:1046A000FB2DFF77BF2EB6FE0BC02B2D2E7FA51442
:1046B00050F4B4FE0AC0B2FC08C02B2D2E7E05C0FB
:1046C0007A2C2B2D03C07A2C01C0752C24FF0DC031
:1046D000FE01EA0DF11D8081803311F4297E09C0AD
:1046E00022FF06C07394739404C0822F867809F069
:1046F000739423FD13C020FF06C05A2C731418F4C2
:10470000530C5718732C731468F4B70180E290E0CF
:104710002C870E94192473942C85F5CF731410F400
:10472000371801C0312C24FF12C0B70180E390E09C
:104730002C870E9419242C8522FF17C021FF03C05B
:1047400088E590E002C088E790E0B7010CC0822FB6
:10475000867859F021FD02C080E201C08BE227FD7E
:104760008DE2B70190E00E941924A51438F4B70136
:1047700080E390E00E9419245A94F7CFAA94F401A0
:10478000EA0DF11D8081B70190E00E941924A1106B
:10479000F5CF332009F451CEB70180E290E00E94BA
:1047A00019243A94F6CFF7018681978102C08FEFE2
:1047B0009FEF2C96E2E10C94C524F999FECF92BDAF
:1047C00081BDF89A992780B50895262FF999FECFD3
:1047D0001FBA92BD81BD20BD0FB6F894FA9AF99A1E
:1047E0000FBE01960895FC010590615070400110C4
:1047F000D8F7809590958E0F9F1F0895FC0161500A
:10480000704001900110D8F7809590958E0F9F1FF2
:104810000895DC01FC01672F71917723E1F732974E
:1048200004C07C916D9370836291AE17BF07C8F38B
:1048300008950F931F93CF93DF93182F092FEB0148
:104840008B8181FD03C08FEF9FEF20C082FF10C0DE
:104850004E815F812C813D81421753077CF4E881B2
:10486000F9819F012F5F3F4F39832883108306C052
:10487000E885F985812F0995892B29F72E813F81BC
:104880002F5F3F4F3F832E83812F902FDF91CF915A
:104890001F910F910895FA01AA27283051F1203174
:1048A00081F1E8946F936E7F6E5F7F4F8F4F9F4FC4
:1048B000AF4FB1E03ED0B4E03CD0670F781F891F06
:1048C0009A1FA11D680F791F8A1F911DA11D6A0FD4
:1048D000711D811D911DA11D20D009F468943F9187
:1048E0002AE0269F11243019305D3193DEF6CF0186
:1048F0000895462F4770405D4193B3E00FD0C9F74C
:10490000F6CF462F4F70405D4A3318F0495D31FDB8
:104910004052419302D0A9F7EACFB4E0A69597950B
:10492000879577956795BA95C9F7009761057105E1
:1049300008959B01AC010A2E06945795479537952B
:104940002795BA95C9F7620F731F841F951FA01D85
:1049500008952F923F924F925F926F927F928F9223
:104960009F92AF92BF92CF92DF92EF92FF920F93FE
:104970001F93CF93DF93CDB7DEB7CA1BDB0B0FB608
:10498000F894DEBF0FBECDBF09942A8839884888C5
:104990005F846E847D848C849B84AA84B984C8845B
:1049A000DF80EE80FD800C811B81AA81B981CE0F52
:1049B000D11D0FB6F894DEBF0FBECDBFED01089537
:1049C00010E0CCEED0E004C0FE010E94FD1E229655
:0A49D000CE3ED107C9F7F894FFCFDF
:1049DA000000AA0480002C01066E146E143B0049E4
:1049EA0054506172616D733A20004F4B0056203368
:1049FA002E322E302D623234205349474E414C64B8
:104A0A0075696E6F202D20636F6D70696C65642007
:104A1A006174204D617920313420323031362030B2
:104A2A00303A30363A33310053796E633A200020F7
:104A3A002D3E2053796E63466163743A20002C2020
:104A4A00436C6F636B3A20002C20546F6C3A200041
:104A5A002C20506174744C656E3A20002C205075DD
:104A6A006C73653A20002C20002C206D53746172FF
:104A7A00743A20002C204D43443A20005369676E53
:104A8A00616C3A20002E2000205B005D00506174AA
:104A9A007465726E3A20002050002A5B002C0025B3
:104AAA003032580025303158004C4C3D004C483DBE
:104ABA0000534C3D0053483D00433D004D530044D4
:104ACA003D0043503D0053503D004F004D55004DB1
:104ADA00430000000000FE167D18801699168B16FA
:104AEA00DC160D0A006E616E00696E66006F7666EE
:044AFA00002E00008A
:00000001FF
