:100000000C9405010C9499220C94CA220C94FB22A6
:100010000C942C230C945D230C948E230C94BF23FE
:100020000C94F0230C9432010C9432010C943201A4
:100030000C9432010C9432010C9432010C94320174
:100040000C9432010C9432010C9432010C94320164
:100050000C9412160C9432010C9432010C9421244D
:100060000C9432010C94231B0C946F1C0C943201E1
:100070000C9432010C9432010C9432010C94320134
:100080000C9432010C9432010C9432010C94320124
:100090000C94631B0C94AE1C0C9432010C94320132
:1000A0000C9432010C9432010C9432010C94320104
:1000B0000C9432010C9432010C9432010C943201F4
:1000C0000C9432010C9432010C9432010C94A31B59
:1000D0000C94ED1C0C9432010C94E31B0C942C1D1D
:1000E0000C94320100002100240027002A002D007A
:1000F0003000330001010000040107010A01000083
:100100002200250028002B002E00310034000201BF
:100110000000050108010B0100002000230026005B
:1001200029002C002F00320000010000030106010D
:10013000090105050505070508080808020202026D
:100140000A0A080804040404010101010101010173
:100150000303030303030303040707070C0C0C0C3E
:100160000C0C0C0C02020202060606060606060627
:100170000B0B0B0B0B0B0B0B0102102020080810B4
:100180002040102040800201020108040201010207
:1001900004081020408080402010080402018004E0
:1001A000020180402010080402010804020101023B
:1001B0000408102040800102040810204080000044
:1001C000090A02080B0C0D070603040100000000D9
:1001D000000000000000000000000000000000001F
:1001E0000000000000000000000011100F000000DF
:1001F00000000000000000000000000000000000FF
:100200000000000091169F1E8A1611241FBECFEF1A
:10021000D1E2DEBFCDBF00E00CBF13E0A0E0B2E052
:10022000EAE7F8E500E00BBF02C007900D92AE3898
:10023000B107D9F71BBE18E0AEE8B3E001C01D92CC
:10024000A737B107E1F712E0C8E0D2E004C0229777
:10025000FE010E94F52BC430D107C9F70E94D51FBB
:100260000C94302C0C9400000F931F93CF93DF93CA
:10027000689F8001699F100D789F100D1124C8019F
:100280000E945001EC01009729F060E070E0A801A5
:100290000E948C03CE01DF91CF911F910F910895A1
:1002A000CF93DF93BC018230910510F462E070E0DF
:1002B000A0917508B0917608ED01E0E0F0E040E033
:1002C00050E021C0888199818617970769F48A8157
:1002D0009B81309719F09383828304C090937608B2
:1002E00080937508FE0134C06817790738F441150A
:1002F000510519F08417950708F4AC01FE018A81B5
:100300009B819C01E9012097E9F641155105A9F16E
:10031000CA01861B970B049708F4BA01E0E0F0E0ED
:100320002AC08D919C91119784179507F9F4641751
:10033000750781F412968D919C911397309719F05F
:100340009383828304C09093760880937508FD019F
:1003500032964CC0CA01861B970BFD01E80FF91FAE
:100360006193719302978D939C9340C0FD018281AC
:1003700093819C01D9011097A1F680917308909107
:100380007408892B41F480910D0390910E03909392
:1003900074088093730840910F0350911003411526
:1003A000510541F44DB75EB780910B0390910C035A
:1003B000481B590B2091730830917408CA01821BA5
:1003C000930B8617970780F0AB014E5F5F4F841742
:1003D000950750F0420F531F5093740840937308D1
:1003E000F9016193719302C0E0E0F0E0CF01DF9189
:1003F000CF910895CF93DF93009709F450C0EC019B
:1004000022971B821A82A0917508B09176081097E6
:1004100009F140E050E0AC17BD0708F1BB83AA83A7
:10042000FE0121913191E20FF31FAE17BF0779F45E
:100430008D919C911197280F391F2E5F3F4F398363
:10044000288312968D919C9113979B838A834115E3
:10045000510571F4D0937608C093750820C01296A8
:100460008D919C911397AD01009711F0DC01D3CFD2
:10047000FA01D383C28321913191E20FF31FCE178A
:10048000DF0769F488819981280F391F2E5F3F4F5C
:10049000FA01318320838A819B8193838283DF9158
:1004A000CF910895A0E0B0E0E8E5F2E00C94FB2BDA
:1004B0006C01009729F4CB010E9450016C01C1C06E
:1004C0008EEF882E8FEF982E8C0C9D1C8601060FC8
:1004D000171F0815190508F4B2C0F401A081B181F5
:1004E000A617B707B8F0A530B10508F4AAC0CD012A
:1004F00004978617970708F4A4C01297A61BB70B9A
:10050000F801A193B193D4016D937C93CF010E9424
:10051000FA0197C07B01EA1AFB0AEEEFFFEFEE0E3D
:10052000FF1E36016A0E7B1EC0917508D0917608B9
:1005300044245524AA24BB244AC0C615D705E1F596
:10054000488159814E155F05B8F1CA0104978E158F
:100550009F05B0F41296A40FB51FF401B183A083D8
:100560002A813B814114510431F0D20113963C930E
:100570002E93129766C0309376082093750861C059
:100580008A819B81F80193838283425050404E19A7
:100590005F09518340834114510431F0D201139615
:1005A0001C930E93129704C010937608009375085D
:1005B000F4017183608345C088819981A816B906CA
:1005C00008F45C012E018A819B819C01E90120973E
:1005D00009F0B3CF80917308909174088615970540
:1005E000E9F4A616B706D0F420910F03309110035A
:1005F0002115310541F42DB73EB780910B03909141
:100600000C03281B390B02171307C8F41093740846
:1006100000937308D4016D937C9313C0CB010E94A7
:100620005001EC01009759F0F40140815181B6016D
:100630000E947103C6010E94FA016E0102C0CC241F
:10064000DD24C601CDB7DEB7E0E10C94172CFC0128
:1006500088279927E89421912032E9F3293010F076
:100660002E30C8F32B3241F02D3239F4689404C097
:100670000E941F04820F911D219120532A30C0F344
:100680001EF4909581959F4F08951F93FC01992723
:100690008827BC01E89411911032E9F3193010F069
:1006A0001E30C8F31B3251F01D3249F4689406C065
:1006B0000E940A04610F711D811D911D119110533B
:1006C0001A30B0F33EF490958095709561957F4F08
:1006D0008F4F9F4F1F9108954EE853E00E94B7033C
:1006E0000895FB01DC0102C001900D924150504081
:1006F000D8F708956817790768F4FB01DC01E40F67
:10070000F51FA40FB51F02C002900E924150504039
:10071000D8F708950C947103DC0101C06D9341502A
:100720005040E0F70895FB01DC0101900D9200209C
:10073000E1F70895FB01DC014150504030F08D910C
:100740000190801919F40020B9F7881B990B0895BE
:10075000FB01DC014150504048F001900D92002017
:10076000C9F701C01D9241505040E0F7089500972D
:1007700031F4DA018D919C91009709F40EC0DC01EF
:10078000FB013D912191222319F03217C9F3FACFD1
:10079000332331F4DA011D921C928827992708959A
:1007A0001197AF93BF93FB013D912191321771F4E3
:1007B000332321F488279927119702C01E9211969E
:1007C000FA01A193B0839F918F910895222369F735
:1007D000EACFFB019F01E8944230C4F04532B4F403
:1007E0004A3029F497FB1EF4909581959F4F642F12
:1007F00077270E94BD2B805D8A330CF0895D819341
:10080000CB010097A1F716F45DE251931082C90164
:100810000C945406592F482F372F262F660F771F19
:10082000881F991F660F771F881F991F620F731FFC
:10083000841F951F660F771F881F991F08957AE000
:10084000979F902D879F802D910D11240895FB0176
:100850009F01423074F0453264F4642F77270E9480
:10086000BD2B805D8A330CF0895D8193CB010097AD
:10087000A1F71082C9010C945406AEE0B0E0E3E4A5
:10088000F4E00C94072C0E891F8986E08C831A8370
:1008900009838FEF9FE79E838D839E01265E3F4FE6
:1008A000CE010196688D798DA9010E9461042F8186
:1008B0003885020F131FF80110822E96E4E00C9485
:1008C000232CABE0B0E0E7E6F4E00C94F92B3C011C
:1008D0002B015A01FC0117821682838181FD03C01E
:1008E0006FEF7FEFC6C19AE0892E1E010894211C8C
:1008F000311CF3012381F20123FD859123FF8191B6
:100900002F01882309F4B2C1853239F423FD859182
:1009100023FF81912F01853229F490E0B3010E94D9
:100920006406E7CF982FFF24EE249924FFE1FF15FA
:10093000D0F09B3269F09C3228F4903259F0933217
:1009400091F40EC09D3249F0903369F441E024C027
:1009500052E0F52A84E0F82A28C098E0F92A25C058
:10096000E0E1FE2A22C0F7FC29C0892F80538A309B
:1009700070F4F6FE05C0989C902C1124980E15C0BA
:10098000E89CE02C1124E80EF0E2FF2A0EC09E3213
:1009900029F4F6FC6BC140E4F42A07C09C3619F434
:1009A00050E8F52A02C0983649F4F20123FD9591EA
:1009B00023FF91912F01992309F0B8CF892F8554F6
:1009C000833018F08052833038F444E050E0A40EB5
:1009D000B51E5FE359830FC0933631F0933779F03A
:1009E000933509F056C020C0F5018081898342E02B
:1009F00050E0A40EB51E610101E010E012C0F50147
:100A0000C080D180F6FC03C06FEF7FEF02C0692D7C
:100A100070E042E050E0A40EB51EC6010E944906F7
:100A20008C015FE7F52214C0F501C080D180F6FC8F
:100A300003C06FEF7FEF02C0692D70E042E050E02D
:100A4000A40EB51EC6010E943E068C0150E8F52A90
:100A5000F3FE07C01AC080E290E0B3010E94640672
:100A6000EA948E2D90E008171907A8F30EC0F6013E
:100A7000F7FC8591F7FE81916F0190E0B3010E9430
:100A80006406E110EA94015010400115110579F750
:100A9000EAC0943611F0993669F5F7FE08C0F50101
:100AA000208131814281538184E090E00AC0F501C8
:100AB000808191819C01442737FD4095542F82E02D
:100AC00090E0A80EB91E9FE6F92257FF09C0509585
:100AD0004095309521953F4F4F4F5F4FE0E8FE2AFC
:100AE000CA01B901A1012AE030E00E949006D82E87
:100AF000D21840C0953729F41F2D1F7E2AE030E020
:100B00001DC01F2D197F9F3661F0903720F4983556
:100B100009F0ACC00FC0903739F0983709F0A6C083
:100B200004C028E030E00AC0106114FD146020E128
:100B300030E004C014FD166020E132E017FF08C069
:100B4000F501608171818281938144E050E008C0A9
:100B5000F50180819181BC0180E090E042E050E0AD
:100B6000A40EB51EA1010E949006D82ED2188FE7C0
:100B7000F82EF122F6FE0BC05EEFF522D91438F400
:100B8000F4FE07C0F2FC05C08FEEF82202C01D2D56
:100B900001C0192DF4FE0DC0FE01ED0DF11D808187
:100BA000803319F499EEF92208C01F5FF2FE05C0E8
:100BB00003C08F2D867809F01F5F0F2DF3FC14C042
:100BC000F0FE0FC01E1510F09D2C0BC09D2C9E0C2E
:100BD000911A1E2D06C080E290E0B3010E946406C7
:100BE0001F5F1E15C0F304C01E1510F4E11A01C0EA
:100BF000EE2404FF0FC080E390E0B3010E9464067E
:100C000002FF1DC001FD03C088E790E00EC088E52B
:100C100090E00BC0802F867891F001FF02C08BE23C
:100C200001C080E2F7FC8DE290E0B3010E9464060F
:100C300006C080E390E0B3010E9464069A94D91440
:100C4000C0F3DA94F101ED0DF11D808190E0B30164
:100C50000E946406DD20A9F706C080E290E0B3019F
:100C60000E946406EA94EE20C1F743CEF301668148
:100C70007781CB012B96E2E10C94152CFC010590B9
:100C8000615070400110D8F7809590958E0F9F1F8E
:100C90000895FC016150704001900110D8F78095D3
:100CA00090958E0F9F1F0895DC01FC01672F7191B5
:100CB0007723E1F7329704C07C916D937083629142
:100CC000AE17BF07C8F308950F931F93CF93DF9319
:100CD0008C01EB018B8181FF1BC082FF0DC02E8137
:100CE0003F818C819D812817390764F4E881F9815F
:100CF0000193F983E88306C0E885F985802F19956B
:100D0000892B31F48E819F8101969F838E8302C04F
:100D10000FEF1FEFC801DF91CF911F910F91089541
:100D2000FA01AA27283051F1203181F1E8946F931C
:100D30006E7F6E5F7F4F8F4F9F4FAF4FB1E03ED0C2
:100D4000B4E03CD0670F781F891F9A1FA11D680F60
:100D5000791F8A1F911DA11D6A0F711D811D911D93
:100D6000A11D20D009F468943F912AE0269F112408
:100D70003019305D3193DEF6CF010895462F47706C
:100D8000405D4193B3E00FD0C9F7F6CF462F4F70C7
:100D9000405D4A3318F0495D31FD4052419302D025
:100DA000A9F7EACFB4E0A6959795879577956795CB
:100DB000BA95C9F700976105710508959B01AC01CB
:100DC0000A2E06945795479537952795BA95C9F7F2
:100DD000620F731F841F951FA01D0895DC011296DA
:100DE0002C91129717968C9117972817D8F5ED919B
:100DF000FC911197E20FF11D862F992787FD9095A1
:100E000016960C90169702C0880F991F0A94E2F765
:100E10002081282B208313968C9113978F5F139634
:100E20008C93139716962C91169714963C911497C1
:100E3000822F90E0831B910997FD04C0231B169617
:100E40002C93089587E016968C93169712968C91A2
:100E500012978F5F12968C931297ED91FC91E80F89
:100E6000F11D10820895DC0114968C911497689FEF
:100E7000A00111249A01359527953595279535952B
:100E8000279517968C91179790E028173907ECF45F
:100E900047705070ED91FC911197E20FF31F15967A
:100EA0002C9130E0042E02C0359527950A94E2F784
:100EB0008081822390E027E030E0241B350B02C0C4
:100EC000959587952A95E2F708958FEF0895DC01AF
:100ED00017968C911797882369F090E0ED91FC911B
:100EE0001197E90FF11D10829F5F17968C9117974C
:100EF0009817A0F312961C92129713961C921397B0
:100F000087E016968C930895CF93DF93EC01842F9E
:100F10006C831D824F8390E061E070E00E94340199
:100F200088839983CE010E9467078C8147E050E057
:100F3000481B510947305105A1F037E087E090E0A8
:100F40002D8161E070E0FB0102C0EE0FFF1F8A956A
:100F5000E2F72E2B2D833150832F90E0481759074D
:100F600094F3DF91CF910895CF93DF93FC01EB01D0
:100F7000858196812381348182179307C1F002967F
:100F800096838583A581B6818881998111969C93EA
:100F90008E93878190858217930771F00296A81728
:100FA000B90779F081E08083DF91CF910895818145
:100FB000928196838583E6CF81819281A817B907B4
:100FC00089F78081882371F3B087A783EBCFCF9314
:100FD000DF93DC01EB018C91882309F117962D91A9
:100FE0003C91189713968D919C9114972817390767
:100FF000E1F02E5F3F4F18963C932E93179717966C
:10100000ED91FC9118978081918199838883159641
:101010008D919C911697E817F90721F081E0DF91F7
:10102000CF9108951C9281E0FACF11968D919C91F9
:10103000129718969C938E931797E1CF2F923F9219
:101040004F925F926F927F928F929F92AF92BF92D8
:10105000CF92DF92EF92FF920F931F93CF93DF9384
:101060006C01FC0163877487EB01662477241B0104
:10107000442437FC4094542CCE0162E070E00E947E
:101080003401F601928381830097C9F081E0F60173
:101090008587F60181819281DF91CF911F910F9118
:1010A000FF90EF90DF90CF90BF90AF909F908F9088
:1010B0007F906F905F904F903F902F90089508948D
:1010C000611C711C1586C201B1010E947B2A4B0173
:1010D0005C01B301882777FD8095982F0E947B2AB9
:1010E00020E030E040E251EC0E94E02920E030E0D6
:1010F00040E85FE30E947C299B01AC01C501B4017B
:101100000E942F2B7B018C0120E030E040E050E07A
:101110000E942B2B88238CF1C801B70120E030E01E
:1011200040E05FE30E947C290E94482AF601748710
:101130006387161617068CF5F6018585882309F056
:10114000A8CFC385D485BE01882777FD8095982FC9
:101150000E947B2A7B018C01C501B4012DEC3CEC83
:101160004CEC5DE30E942F2B9B01AC01C801B70141
:101170000E942B2B87FF80CF8CCFC801B70120E0C6
:1011800030E040E05FE30E947B290E94482AF6019C
:1011900074876387161617067CF281E090E09487C7
:1011A0008387CACF0F931F93CF93DF93EC018A01FC
:1011B0000E941E08AC019A8389838D858823E9F0FB
:1011C0002B853C8521503040220F331F240F351FC3
:1011D0003C832B833E832D83FA012417350730F09F
:1011E000C901019311938E179F07D8F78D819E81B6
:1011F00098878F8318829A878987DF91CF911F9173
:101200000F9108950895FC0117A6A085B185028469
:10121000F385E02D208131818D919C9111979183EF
:1012200080832D933C93DB018D919C9191838083EE
:1012300008955F926F927F928F929F92AF92BF922A
:10124000CF92DF92EF92FF920F931F93CF93DF9392
:101250008C017B01FC0154A4552039F1FB01608114
:1012600071813C01AA24BB24B8EF8B2EBFEF9B2ECB
:101270005A2D1616170684F4F801C484D584F70194
:1012800022813381F30182899389281B390B37FD31
:101290004EC0C216D3065CF40894A11CB11C84E0B5
:1012A00090E0680E791EA51418F38FEF30C06130FE
:1012B000710561F141E0E501CC0FDD1F06C0CE16DE
:1012C000DF0654F32617370709F14F5F242F30E06C
:1012D000621773070CF3F901EE0FFF1FEE0DFF1DF0
:1012E000DE01A20FB31FA819B909AA0FBB1FA00FD7
:1012F000B11F0190F081E02D8D919C91E81BF90BBD
:10130000F7FFDDCFF095E195FF4FD9CF852FDF9126
:10131000CF911F910F91FF90EF90DF90CF90BF90F2
:10132000AF909F908F907F906F905F9008953095D1
:1013300021953F4FAECF0895089508954F925F9243
:101340006F927F928F929F92AF92BF92CF92DF92D5
:10135000FF920F931F93CF93DF936C01FC0184A541
:10136000815087FD81C0082F112707FD1095D801F6
:10137000AA0FBB1FAA0FBB1F5296AC0DBD1D0C5D63
:101380001E4FE601C00FD11F04521140F82E60E03D
:1013900070E023E2422E21E0522E4C0C5D1C93E3C0
:1013A000692E712C6C0C7D1C07C0FA941497219740
:1013B00061507040F7FC58C05B01A00EB11E4D910A
:1013C0005C9111971416150684F3F2E84F3F5F07FE
:1013D00061F3F60182809380F401EE0FFF1FEE0FA0
:1013E000FF1FEC0DFD1D22893389C9018427952734
:1013F00097FFDBCFC901880F991F880F991F880FAE
:10140000991F820F931F22273327241B350B281780
:1014100039075CF28881873040F6F201308133234E
:1014200021F2F30120E004C02F5F3196231750F41E
:10143000808190E088169906B9F7818190E08A153D
:101440009B0591F7231709F4B0CFF601B1AAA0AA22
:1014500082E090E096A785A78AE291E0C80ED91EA7
:10146000F601208381E001C080E0DF91CF911F91E0
:101470000F91FF90DF90CF90BF90AF909F908F9093
:101480007F906F905F904F900895FF920F931F93FE
:10149000CF93DF938C01FC01F4A4FF20E1F1DC0188
:1014A000AC5DBE4F30E06FEF7FEF40E050E002C038
:1014B000322FBE01EA01828993898D5C9C4018F429
:1014C0002C91321710F0232FEB014F5F5F4F3496B2
:1014D00011964F1568F38FEFCF3FD807E1F030E05A
:1014E000F801ED5DFE4F808167E00E94B12B90E036
:1014F000880F991F2817390774F0F801D383C28326
:1015000081E090E096A785A781E0DF91CF911F91C0
:101510000F91FF90089580E0DF91CF911F910F917F
:10152000FF900895CF93DF93DC01AC5DBE4F1D9219
:101530001D921D921D921D921C92A952B140ED0167
:10154000CD5DDE4F8881882389F090E0FD01E90FB1
:10155000F11D83A9FD01E80FF11DEC5DFE4F8081B7
:101560008F5F80839F5F8881981780F3DF91CF9191
:101570000895CF93DF93EC010E94920ACD5DDE4F78
:101580008881C352D140883230F0CE010E94450A92
:10159000CE010E949E09DF91CF910895DC01ED916B
:1015A000FC910190F081E02D199508959F92AF92E2
:1015B000BF92CF92DF92EF92FF920F931F93DF9330
:1015C000CF93CDB7DEB728970FB6F894DEBF0FBE26
:1015D000CDBFDC0109831A83822F2B833C834D838B
:1015E0005E836F8378872C813D81982E211531058C
:1015F00009F06DC01296ED91FC911397EE0FFF1F4D
:10160000EE0FFF1FEA0FFB1FC288D38881E0A82ED0
:10161000B12CD096ED91FC91D197EE0FFF1FEE0FFC
:10162000FF1FEA0FFB1F62897389882777FD80956A
:10163000982F0E947B2A7B018C01B601882777FDB9
:101640008095982F0E947B2A9B01AC01C801B701AD
:101650000E94E0297B018C0120E030E040E050E076
:101660000E942B2B88230CF460C0C801B70120E036
:1016700030E040E05FE30E947C290E94482A40E07D
:1016800020E030E0892D992787FD9095681B790B24
:1016900077FD56C06430710514F421E030E02A2152
:1016A0003B21232B09F041E0842F28960FB6F894B4
:1016B000DEBF0FBECDBFCF91DF911F910F91FF9085
:1016C000EF90DF90CF90BF90AF909F9008951296CB
:1016D000ED91FC911397EE0FFF1FEE0FFF1FEA0F26
:1016E000FB1FC288D38840E050E0C601821B930BE9
:1016F0009C0197FD29C01C968D919C911D97821786
:1017000093075CF4CA0181709070009711F45C013A
:1017100080CF81E090E05C017CCF41E050E0CA01E5
:1017200081709070009799F3F4CFC801B70120E061
:1017300030E040E05FE30E947B290E94482A9FCF6F
:10174000709561957F4FA6CF309521953F4F1C96A0
:101750008D919C911D9782179307A4F2DECFCF93B2
:10176000DF93EC011FA6A885B985EA85FB8520815A
:1017700031818D919C911197918380832D933C931E
:10178000DB018D919C91918380838DA59EA500970F
:10179000B1F4E881F9810280F381E02DCE01199541
:1017A0008DA59EA5892B39F0E881F9810480F5810A
:1017B000E02DCE0119958FA5DF91CF910895039764
:1017C00099F38FA5DF91CF910895EF92FF920F9338
:1017D0001F93CF93DF93EC018A819B81892BD9F5ED
:1017E0001B821A821092910310929203109293031B
:1017F00010929403E1E0F1E0EF2EF12C012D112D78
:101800009B0177FD33C0B901882777FD8095982F1C
:10181000209191033091920340919303509194034E
:10182000620F731F841F951F60939103709392033F
:101830008093930390939403E0939503A8019701F9
:101840000E94D12B3B832A83DF91CF911F910F916F
:10185000FF90EF900895809195038133A8F7E82FCA
:10186000EF5FEE2EFF2400E010E0CACF3095219507
:101870003F4FC9CFFC0185E593E091838083CF0181
:10188000059660E072E00E9442280895EF92FF9270
:101890000F931F938C017B010E943A0C89E193E026
:1018A000F80191838083F482E3821F910F91FF906E
:1018B000EF900895EF92FF920F931F938C017B019D
:1018C0000E943A0C8FE193E0F80191838083F482C7
:1018D000E3821F910F91FF90EF900895CF92DF92D6
:1018E000FF920F931F93CF93DF936C01493008F061
:1018F00048E0862F90E0440FEC01C40FD11D8C17F7
:101900009D072CF5162F00E0FF24D6011396ED91CC
:10191000FC91149780A991A9612F0E94330790E050
:10192000002E02C0880F991F0A94E2F7F82A1E5F62
:101930000F5F812F90E08C179D073CF38F2DDF9177
:10194000CF911F910F91FF90DF90CF900895FF24CA
:10195000F5CF48E00E946E0C089544E00E946E0CA2
:101960000895CF92DF92FF920F931F93CF93DF934F
:101970006C01493008F048E0862F90E0EC01C40F7C
:10198000D11D8C179D0734F5042F0150162FFF240D
:10199000D6011396ED91FC91149780A991A9612F1E
:1019A0000E94330790E0002E02C0880F991F0A940E
:1019B000E2F7F82A1F5F0150812F90E08C179D07F6
:1019C0003CF38F2DDF91CF911F910F91FF90DF900E
:1019D000CF900895FF24F5CF44E00E94B10C089504
:1019E000BF92CF92DF92EF92FF920F931F93CF930C
:1019F000DF93EC01D62EC42EB22E040F401700F553
:101A0000142F03C01E5F1017E0F4CE01612F42E0D7
:101A10000E94B10C8D15B1F3812F90E08C199109C2
:101A20002B2D30E08217930764F480E0DF91CF9193
:101A30001F910F91FF90EF90DF90CF90BF9008958E
:101A4000142F1C0DF701108381E0F0CFCF92DF92AD
:101A5000EF92FF920F931F93CF93DF93EC01EB81F3
:101A6000FC818281938121E08C379207C0F520E0D0
:101A700030E000A8F1A9E02D8381843310F0893390
:101A8000D8F1CC24DD24FE013C96CE0162E040E09A
:101A900028E00CE07F010E94F00C082FCE016C853D
:101AA0000E94EC0C90E020E030E010E00C211D21C1
:101AB000012B11F021E030E040E050E08C3019F1D2
:101AC00024233523232B09F091E0892FDF91CF9137
:101AD0001F910F91FF90EF90DF90CF90089520E03D
:101AE0008A5A914020F481E0282730E0C2CF21E0DB
:101AF00081E0282730E0BDCFC9018170907020FDC2
:101B000005C06C01C0CF41E050E0DACF81E090E049
:101B10006C01B9CFCF92DF92EF92FF920F931F9398
:101B2000CF93DF93EC01EB81FC818281938121E0F3
:101B3000883B9207C0F520E030E000A8F1A9E02D35
:101B40008381863910F08D3DD8F1CC24DD24FE014F
:101B50003C96CE0162E040E028E101E27F010E9474
:101B6000F00C082FCE016C850E94AD0C90E020E0B7
:101B700030E010E00C211D21012B11F021E030E0BC
:101B800040E050E08A3019F124233523232B09F05B
:101B900091E0892FDF91CF911F910F91FF90EF90EE
:101BA000DF90CF90089520E08D51924020F481E0A5
:101BB000282730E0C2CF21E081E0282730E0BDCFE8
:101BC000C9018170907020FD05C06C01C0CF41E05B
:101BD00050E0DACF81E090E06C01B9CF5F926F9274
:101BE0007F928F929F92AF92BF92CF92DF92EF92AD
:101BF000FF920F931F93DF93CF93CDB7DEB72A9752
:101C00000FB6F894DEBF0FBECDBF7C010E94260D3B
:101C10008823C1F490E0892F2A960FB6F894DEBF8E
:101C20000FBECDBFCF91DF911F910F91FF90EF902D
:101C3000DF90CF90BF90AF909F908F907F906F90EC
:101C40005F900895B5E08B2E912C8E0C9F1CD701D0
:101C50001396ED91FC91149700A8F1A9E02D6381F2
:101C600064501C968C91681B6695669570E06D5F5C
:101C70007F4FC4010E94E8268E010C5F1F4FC801F0
:101C800061E072E00E944228C401B8010E944A2922
:101C9000C8010E946F295E010894A11CB11CD501E6
:101CA000E9E0F2E083E001900D928150E1F7F70165
:101CB00004850C5F202F30E00380F481E02D00A824
:101CC000F1A9E02D838190E00897281739070CF0DF
:101CD00051C05E2CCF2CDD24A4E06A2EA2E07A2E27
:101CE000852D9C2D602F48E00E94B10C182F00D04C
:101CF00000D0EDB7FEB73196ADB7BEB71296BC9225
:101D0000AE92119773826282848315820E943D0491
:101D1000D12688E09CE8D0FAD6940EF4D9268A958C
:101D2000D1F7EDB7FEB736960FB6F894FEBF0FBEEB
:101D3000EDBFC401B5010E94DA27085F202F30E013
:101D4000D7011396ED91FC91149700A8F1A9E02D0D
:101D5000838190E00897281739070CF4C1CFC70199
:101D6000602F48E00E94B10C90E08D1509F053CF30
:101D700091E051CFDD24F3CFAF92BF92CF92DF92AB
:101D8000EF92FF920F931F93DF93CF93CDB7DEB700
:101D900027970FB6F894DEBF0FBECDBFB82EA92E81
:101DA000122FE82EF92EC701642F40E10E94C428AB
:101DB000C12EDD24F701848195818C159D05C8F421
:101DC0008E010F5F1F4FC8016CE072E00E945C281B
:101DD000C801B7010E940428BC01C7010E944A291A
:101DE000C8010E947529F701848195818C159D0594
:101DF00050F38B2D9A2D27960FB6F894DEBF0FBEA9
:101E0000CDBFCF91DF911F910F91FF90EF90DF90A9
:101E1000CF90BF90AF9008959F92AF92BF92CF9214
:101E2000DF92EF92FF920F931F93DF93CF93CDB783
:101E3000DEB72E970FB6F894DEBF0FBECDBF6C0194
:101E40000E948A0D882391F42E960FB6F894DEBF77
:101E50000FBECDBFCF91DF911F910F91FF90EF90FB
:101E6000DF90CF90BF90AF909F900895D6011396CA
:101E7000ED91FC91149700A8F1A9E02D8381282F02
:101E800030E01C968C91281B310937FD69C079011F
:101E9000F594E794F594E794F594E794F594E79432
:101EA000EE0CFF1CEE0CFF1CEE0CFF1C95E0A92EA7
:101EB000B12CAC0CBD1C6E2D6695669570E06E5F06
:101EC0007F4FC5010E94E8268E010F5F1F4FC8019A
:101ED0006E2D40E10E94C428C501B8010E944A2924
:101EE000C8010E946F29F60104850380F481E02D6A
:101EF00000A8F1A9E02D8381081780F590E0801BF0
:101F0000910940975CF19C2C1D2D88E0E82EF12C66
:101F1000EC0EFD1E05C090E0801B91094097F4F087
:101F2000C601602F0E94A90C482FC701692D712F8F
:101F300022E00E94BC0EC501B7010E94EA27C7013A
:101F40000E946F29005FD6011396ED91FC911497C2
:101F500000A8F1A9E02D83810817E8F281E074CF91
:101F6000215F3F4F94CFCF92DF92EF92FF920F937A
:101F70001F93DF93CF9300D000D0CDB7DEB78C0195
:101F800080919003882309F09CC0D8011896ED91A8
:101F9000FC9119971A966D917C911B97DB018D919D
:101FA0009C91208131818227932797FF73C07E0106
:101FB0000894E11CF11C970147E553E086E0DA0143
:101FC0000D90AD01D9010D929D018150C1F7A08105
:101FD000B181CD019C0197FDD6C0F80142815381AA
:101FE000C484D584CA01880F991FF901E81BF90B35
:101FF000CF01F7FDC4C0C816D9060CF465C09D0119
:10200000B7FDBAC035952795C801B9010E94E50B07
:1020100081E090E09A838983D8011896ED91FC9134
:102020001997808191819C838B83D0962D913C91CF
:10203000D19760E08081918197FF61E0C9010E94A2
:10204000EE06C801B7010E94190987FF2BC0D8010D
:102050009C962C912630F0F4E22FF0E0DF01AA0FDD
:10206000BB1FAA0FBB1FA00FB11F8B819C81539672
:102070009C938E9352973596EE0FFF1FEE0FFF1F26
:10208000E00FF11F8D819E81918380832F5FF80186
:1020900024A708C0D801ED91FC910680F781E02DBE
:1020A000C801199526960FB6F894DEBF0FBECDBFB6
:1020B000CF91DF911F910F91FF90EF90DF90CF9024
:1020C000089510929003EECF241B350B37FD48C0C6
:1020D000C216D306CCF1FB018081918197FD48C0E7
:1020E000841B950B97FD40C0C816D9066CF1C8013A
:1020F000BD010E94E50BD8011A96ED91FC911B974A
:1021000060817181C8010E94E50B82E090E09A83B2
:102110008983F801A085B1858D919C9111979C834D
:102120008B8382859385FC01808191819E838D8341
:1021300081E080939003F80120A931A960E08D919E
:102140009C9197FD7BCF79CFD801ED91FC910680D2
:10215000F781E02DC8011995F80116A615A6A2CFA2
:10216000309521953F4FB4CF909581959F4FBCCF2F
:10217000909581959F4FB4CF2F5F3F4F43CF909560
:1021800081959F4F38CF309521953F4F26CF0F93A4
:102190001F938C01FC0114A616A615A613821282A9
:1021A00082A593A50E946707F801158614861F91E2
:1021B0000F910895CF93DF93EC010E94C710CD5D7E
:1021C000DE4F1882C352D1401CA61AAA1EA61DA615
:1021D00019AA18AA1B821A82FE01DE01AC5DBE4F4D
:1021E000CE014896138A128A1C923496E817F90792
:1021F000C9F71FA686E990E09D878C878AE999E94F
:10220000A9E9BEE38E879F87A88BB98BDF91CF9119
:1022100008950F931F938C01FC01158614860E946C
:10222000C710F80180A991A90E9467071F910F911B
:102230000895DC01D096ED91FC91D197838188328D
:1022400020F081E09F968C930895CD010E940911A2
:102250000895AF92BF92CF92DF92EF92FF920F93C9
:102260001F93CF93DF93EC01EA85FB856081718139
:10227000E885F985808191818627972797FD0BC096
:10228000DF91CF911F910F91FF90EF90DF90CF9052
:10229000BF90AF90089577FDB1C075956795CE0159
:1022A0000E94E50BCA80DB80B60180E090E00E94CE
:1022B000792A2E853F85488959890E942F2B20E055
:1022C00030E040E251E40E94E0297B018C0120E0F3
:1022D00030E040E050E00E942B2B88230CF47BC0C0
:1022E000C801B70120E030E040E05FE30E947C29B4
:1022F0000E94482A9B016C877D87A884B984D501F8
:102300006D917C9177FD76C0C601880F991FA90158
:102310009B01281B390B37FD69C0421753072CF06E
:1023200083E090E09EA78DA7ABCF6C197D0977FD68
:1023300073C046175707A4F79B838A83BC0180E0CC
:1023400090E00E94792A2E853F85488959890E940C
:102350002F2B20E030E040E251E40E94E0297B0195
:102360008C0120E030E040E050E00E942B2B8823DD
:102370000CF447C0C801B70120E030E040E05FE363
:102380000E947C290E94482AFB016C877D87D50129
:102390004D915C9157FD44C06A817B819F01CB01C7
:1023A000880F991FFA01E81BF90BCF01F7FD3CC01C
:1023B000281739070CF0B4CFCA01861B970B97FD7D
:1023C00037C0281739070CF0ABCF1EA61DA6CE01CB
:1023D0000E94091155CFC801B70120E030E040E06C
:1023E0005FE30E947B290E94482A84CF3095219583
:1023F0003F4F93CF709561957F4F86CF6F5F7F4F33
:102400004CCFC801B70120E030E040E05FE30E941C
:102410007B290E94482AB8CF709561957F4F89CF5C
:10242000509541955F4FB8CF909581959F4FC0CF04
:10243000909581959F4FC5CFEF92FF920F931F9379
:102440008C0189E493E0F8019183808388E090E037
:102450000E94F71FF82EE92E62E04AE00E948407EE
:10246000F801F2A6E3A61782168215821482C8012B
:10247000049691878087C80106969387828717A65E
:10248000C8010E94C7101F910F91FF90EF9008950F
:102490000F931F938C010E941C128DE393E0F801AF
:1024A000918380831582148217821682C801049654
:1024B00091878087C801069693878287C8010E940A
:1024C000DA101F910F910895CF93DF93EC010E94D2
:1024D000481281E393E099838883DE01A55DBE4FB6
:1024E000EDE6F3E088E001900D928150E1F7DE0126
:1024F000AD5CBE4FE5E6F3E088E001900D928150BF
:10250000E1F7DE01A55CBE4FEDE5F3E088E0019068
:102510000D928150E1F7EA81FB81EE0FFF1FEE0F74
:10252000FF1FEC0FFD1F22893389CD5BDE4F8FEF3C
:10253000899383E0899382EE899329933993199241
:1025400081E090E099838883DF91CF910895DF92B5
:10255000EF92FF920F931F938C01D62E0E941C12B4
:1025600085E293E0F8019183808380E090E0A0EA27
:10257000B0E486879787A08BB18B82A593A50E9434
:10258000FA0188E090E00E94F71FF82EE92E61E042
:102590004CE10E948407F801F0AAE1AAD2AA1F9197
:1025A0000F91FF90EF90DF900895EF92FF920F93BD
:1025B0001F93CF93DF93EC01F62EE42E82ED97E08C
:1025C000B9010E944E20EF1468F0FE01EF0DF11DDD
:1025D00082ED97E063A94AE050E00E943321F39432
:1025E000EF1498F782ED97E0B8010E944E20DF913A
:1025F000CF911F910F91FF90EF9008952F923F92EE
:102600004F925F926F927F928F929F92AF92BF9202
:10261000CF92DF92EF92FF920F931F93DF93CF93AE
:10262000CDB7DEB767970FB6F894DEBF0FBECDBF4C
:102630006C0123E2822E21E0922E880E991EF40175
:1026400080818832C8F467960FB6F894DEBF0FBE5B
:10265000CDBFCF91DF911F910F91FF90EF90DF9051
:10266000CF90BF90AF909F908F907F906F905F9032
:102670004F903F902F9008957C2C6D2CC6010E94A6
:10268000B90AF60185A596A58230910509F484C0A2
:102690000197C9F25E010894A11CB11CC50160E05C
:1026A00072E00E944228C50162E00E94C627C5016F
:1026B0006DE272E00E94DA27C5016BE30E94C62733
:1026C000FF2405C0F394F60184A58F1550F10F2D5A
:1026D00010E0000F111F000F111F0C0D1D1DF80140
:1026E00082899389892B71F3C50160E372E00E94AE
:1026F000DA27C5016F2D0E949A27C50160E272E0BA
:102700000E94DA27F80162897389C5010E9469274E
:10271000C5016BE30E94C627F394F60184A58F15CB
:10272000B0F6C50162E272E00E94DA27F8E0EF2E0F
:10273000F12CEC0EFD1EC70160E072E00E94422801
:10274000C7016BE30E94C627F601628173816115A0
:10275000710509F40DC1C7010E943C27C7016BE355
:102760000E94C627C70163E00E94C627C7016AE02E
:102770000E94C627C60160E0F401408195018701EF
:102780000E94D51281E0F60187A7C7010E946F2938
:10279000C5010E946F2957CF9AE2492E91E0592E28
:1027A0004C0C5D1CF2015081452F4E5FF601628199
:1027B000738106C04E5FF4018081481708F043CF53
:1027C000F601E40FF11D83A990E08617970791F7B2
:1027D00084A990E0F60120A931A98217930751F747
:1027E00041504F8B842F90E0851B910988970CF402
:1027F0002ACF8BE2682E81E0782E6C0C7D1CEE24B3
:102800000FE0202E312C2C0E3D1E18E0A12EB12CF5
:10281000AC0EBD1E4E010894811C911CD101F30128
:1028200088E001900D928150E1F7C6010F8518896B
:1028300029893A894B895C896D897E890E94D60AEB
:10284000882309F441C0C50160E072E00E9442287B
:10285000C50162E00E94C627C5016DE40E94C6273B
:10286000C5016E2D0E949A27C5016BE30E94C62701
:10287000FF2405C0F394F60184A58F1598F10F2D60
:1028800010E0000F111F000F111F0C0D1D1DF8018E
:1028900082899389892B71F3C50160E50E94C6275F
:1028A000C5016F2D0E949A27C50160E272E00E9467
:1028B000DA27F80162897389C5010E946927C50179
:1028C0006BE30E94C627D6CF82ED97E00E942E20B0
:1028D000E39488E090E0680E791E94E0E91609F030
:1028E0009DCFB1CEC50162E272E00E94DA27C40139
:1028F00060E072E00E944228C4016BE30E94C62798
:10290000C40165E272E00E94DA27F60162817381F8
:10291000C4010E943C27C4016BE30E94C627C40186
:1029200069E272E00E94DA27F60160A971A9C40188
:102930000E946927C4016BE30E94C627C40163E0BB
:102940000E94C627C4016AE00E94C627C601F201A0
:1029500060814F89950184010E94D51221E0F60122
:1029600027A7C4010E946F29C5010E946F29B0CF1B
:10297000872D962D0E94450A882329F0C70165E21C
:1029800072E00E94DA27F60162817381E4CEDF9261
:10299000EF92FF920F931F93DF93CF9300D00F928C
:1029A000CDB7DEB78C01DC01D2961C92D297189677
:1029B0000D90BC91A02D2D913C911197FC01828529
:1029C0009385FC016081718183E2E82E81E0F82E1D
:1029D000E00EF11EF701408190919603F80184A565
:1029E000891710F4F80194A7442309F4BBC0DD242F
:1029F00080E090E06227732777FDDDC020E030E0C3
:102A00004F3E11F021E030E082239323892B09F01F
:102A1000B5C081E090E09A8389831C821B828D91EE
:102A20009C919C838B83C801BE016F5F7F4F0E9486
:102A30001909282F87FD6AC0F7018081F801E80F86
:102A4000F11D23AB982F823020F082A9821709F460
:102A5000BAC09F5FF701908390E0DD2009F46BC05E
:102A6000992309F447C0F701D080AD2DB0E0BD0136
:102A700061507040FFEF6F3F7F0709F493C05091A2
:102A80009603F801E60FF71F83A9851709F479C0AB
:102A9000D196F801EA0FFB1F20E030E0D39707C082
:102AA00080812F5F3F4F3197851709F46AC06150CD
:102AB0007040CD01821B930B8F5F9F4F89F7E52FED
:102AC000F0E0EE0FFF1FEE0FFF1FE00FF11F8B81F5
:102AD0009C81938B828BD7018C91F801E80FF11DBB
:102AE00053AB8F5F8C93E52FEF5FE0939603E63057
:102AF00009F45BC00F900F900F900F90CF91DF9172
:102B00001F910F91FF90EF90DF900895C8010E94F0
:102B1000920AD8019C968C91863009F05AC0509147
:102B20009603F801E50FF11DEC5DFE4F80818230C8
:102B300008F44FC090E0F7018081883208F490CF0C
:102B400081E0D8019F968C939F97ED91FC91068030
:102B5000F781E02DC8011995C8010E94DA10109282
:102B60009603C8CFD8019C961C929C97109296030E
:102B7000DD2418960D90BC91A02D4BCFDD24D3946D
:102B800048CF6F5F7F4F4D2D461BD7014C936D5C37
:102B90007F4F600F711F50E04F5F5F4FC801C396BA
:102BA0000E947A03509196038ACF10929603D8011F
:102BB0009C96EC939FCF81E090E020E030E04F3E88
:102BC00009F020CF21CFC8010E94DA10D7019C91D3
:102BD00040CF91E042CF0F931F93CF93DF938C01AF
:102BE000DC019F961C929F9718960D90BC91A02D8A
:102BF000EC01EA85FB85208131818D919C911197B3
:102C0000918380832D933C93DB018D919C919183E3
:102C10008083C8010E94C7148FA5DF91CF911F91B7
:102C20000F9108951F920F920FB60F920BB60F924D
:102C300011242F933F934F935F936F937F938F93C1
:102C40009F93AF93BF93EF93FF93E0919A03F0911B
:102C50009B031995FF91EF91BF91AF919F918F9138
:102C60007F916F915F914F913F912F910F900BBE8C
:102C70000F900FBE0F901F9018950F931F938130E8
:102C8000910541F0892B19F46F5F7F4F51F11F912E
:102C90000F9108956F5F7F4FD1F78CE993E064E661
:102CA00070E040E050E00E94D2088BEA93E066EAD0
:102CB00072E00E94422882EB93E00E9464128CE44E
:102CC00095E061E00E94A7128FE795E06CE475E063
:102CD0000E94460C8CE895E06CE475E00E945A0C6A
:102CE000D6CF05E513E010938D0500938C0581E99F
:102CF00095E00E946F291093800500937F0584E87A
:102D000095E00E946F298BEA93E00E946F291F9142
:102D10000F91089580E090E06FEF7FEF0E943D16E5
:102D2000089581E090E06FEF7FEF0E943D160895D7
:102D3000CF92DF92EF92FF920F931F93DF93CF9387
:102D4000CDB7DEB762970FB6F894DEBF0FBECDBF2A
:102D50008E01075F1F4F8BEA93E0B8014AE050E015
:102D600021E030E00E946126C80167EA72E00E941B
:102D70006C030E942703E82E6E010894C11CD11C2D
:102D8000D601E5E7F3E088E001900D928150E1F78C
:102D90008BEA93E061E070E00E942C26813471F1AF
:102DA00000E010E0FF248BEA93E061E070E00E9415
:102DB0002C26823579F062960FB6F894DEBF0FBEEE
:102DC000CDBFCF91DF911F910F91FF90EF90DF90DA
:102DD000CF900895FB821D830C83EE2DF0E0EE0F63
:102DE000FF1FEE0FFF1FEE0FFF1FE352FB4FD60139
:102DF00088E00D9001928150E1F7DDCF80E090E016
:102E000067EA72E00E946C030E942703F82E80E0BC
:102E100090E067EA72E00E946C030E9427038C0135
:102E2000FB829D838C83EE2DF0E0EE0FFF1FEE0FF3
:102E3000FF1FEE0FFF1FE352FB4FD60188E00D90FE
:102E400001928150E1F7AFCF8DE06091AA030E941B
:102E5000BE251092AA030895EF92FF920F931F933D
:102E60008C017B018BE061E00E94BE258091130301
:102E7000909114039C01029FC001039F900D129F2B
:102E8000900D11240E9490248BE060E00E94BE25EA
:102E900080911303909114039C01E29EC001E39E74
:102EA000900DF29E900D11240E9490241F910F917D
:102EB000FF90EF90089580E00E946F22089580E0D7
:102EC00060E47AE141E050E00E94EE2108958BEA4F
:102ED00093E061E070E00E942C26813561F08BEA7E
:102EE00093E061E070E00E942C26853409F008959B
:102EF0000E945F1708950E945B17F1CFEF92FF9237
:102F00000F931F93CF93DF937C010E945B178091F7
:102F100011038823E1F100E010E081E090E06FE12F
:102F200070E00E942C17F7018081882341F1E701AE
:102F300014C08634A9F1803361F481E090E063E04D
:102F400070E00E942C1781E090E063E070E00E9446
:102F50002C1789812196882391F0813351F783E0E2
:102F600090E061E070E00E942C1783E090E061E067
:102F700070E00E942C1789812196882371F70F5FDA
:102F80001F4F8091110390E00817190734F20E9437
:102F90005F17DF91CF911F910F91FF90EF900895F0
:102FA00081E090E063E070E00E942C1783E090E005
:102FB00061E070E00E942C17CCCFCF92DF92EF92AD
:102FC000FF920F931F93DF93CF93CDB7DEB7C45615
:102FD000D0400FB6F894DEBF0FBECDBF6C018E019E
:102FE0000C5F1F4FC80169EA72E00E944228C601C7
:102FF000B8010E94B726F82EC8010E946F29FF2051
:1030000009F08EC08E010E5E1F4FC8016CEA72E09F
:103010000E944228C601B8010E94B726F82EC801B6
:103020000E946F29FF2009F049C08E01005E1F4FEA
:10303000C8016FEA72E00E944228C601B8010E94EE
:10304000B726F82EC8010E946F29FF2009F48BC013
:103050008DE061E00E94BE258E01095D1F4FC80111
:10306000B60142E050E00E943E2938E5E32EF12C03
:10307000EC0EFD1EC801B7014DE050E020E030E04D
:103080000E946126C8010E946F29F6018481958102
:103090000F9708F0CAC084EA91E0909314038093DC
:1030A0001303C7010E947E178DE060E00E94BE25D9
:1030B00082ED97E0B6010E948A2022C08E01075E51
:1030C0001F4FC801B60142E050E00E943E29C801EE
:1030D0007E010894E11CF11CB70143E050E020E0C0
:1030E00030E00E946126C8010E946F29C7010E943A
:1030F00027038093110382ED97E0B6010E948A2096
:10310000CC59DF4F0FB6F894DEBF0FBECDBFCF91C5
:10311000DF911F910F91FF90EF90DF90CF90089576
:103120008E01055F1F4FC801B60142E050E00E94CA
:103130003E29C8017E010894E11CF11CB70143E05F
:1031400050E020E030E00E946126C8010E946F2913
:10315000C7010E9427038093120382ED97E0B60116
:103160000E948A20CDCF8E010B5C1F4FC80162EBFD
:1031700072E00E944228C601B8010E94B726F82ECC
:10318000C8010E946F29FF2009F4BACF2CE3E22E78
:10319000F12CEC0EFD1EC70165EB72E00E94422887
:1031A0008E010D5B1F4FC801609112034AE00E941F
:1031B000C428C701B8010E94EA27C8010E946F29EC
:1031C000C70160EC72E00E94DA278E01065B1F4F98
:1031D000C801609111034AE00E94C428C701B801E8
:1031E0000E94EA27C8010E946F29C70160EC72E0C3
:1031F0000E94DA278E010F5A1F4F609113037091BE
:103200001403C8014AE00E949328C701B8010E9434
:10321000EA27C8010E946F2982ED97E0B7010E945A
:103220008A20C7010E946F296BCF8E01025D1F4F5C
:10323000C801B6014EE050E00E943E29C8010E943C
:103240004E267093140360931303C8010E946F29E4
:1032500028CFCF92DF92EF92FF920F931F93DF93CD
:10326000CF93CDB7DEB760970FB6F894DEBF0FBE31
:10327000CDBF7C0143E0C42ED12CCC0EDD1EC60197
:1032800066EA72E00E944228C70160E070E00E9496
:103290002C268F3309F454C0C70160E070E00E940F
:1032A0002C26863509F486C0C70160E070E00E94D4
:1032B0002C26823521F5809173089091740800972F
:1032C00009F48DC0BE016F5F7F4F681B790B82EDE3
:1032D00097E04AE050E00E948A21C6010E946F29CF
:1032E00060960FB6F894DEBF0FBECDBFCF91DF91D1
:1032F0001F910F91FF90EF90DF90CF900895C7013D
:1033000060E070E00E942C26893609F45AC0C7019B
:1033100060E070E00E942C268437F9F2C70160E07B
:1033200070E00E942C26883509F45CC0C70160E07B
:1033300070E00E942C26883581F60E949816CDCF29
:1033400082ED97E06FE30E94262082ED97E062EC29
:1033500072E00E94A92182ED97E066E50E94262096
:1033600082ED97E060E20E94262082ED97E069E618
:103370000E94262082ED97E060E20E94262082EDE6
:1033800097E064E70E94262082ED97E060E20E94C9
:10339000262082ED97E068E50E94262082ED97E0E6
:1033A00060E20E94262082ED97E066EA72E00E94C9
:1033B000C82193CF82ED97E06EEC72E00E94C821A5
:1033C0008CCF8E01065F1F4FC801B7010E94642990
:1033D000C8010E94DD17C8010E946F297ECF87E7D0
:1033E00098E070CF0E94671778CF0F931F93DF93F9
:1033F000CF93CDB7DEB727970FB6F894DEBF0FBED9
:10340000CDBF8E010F5F1F4F82ED97E00E94FA1D26
:10341000892B11F182ED97E00E942C1E682F8A30D3
:1034200021F08B3024F5882331F5C8016BEA73E075
:103430000E946429C8010E942919C8010E946F29AD
:103440008BEA93E066EA72E00E94762882ED97E0CC
:103450000E94FA1D892BF1F627960FB6F894DEBF6D
:103460000FBECDBFCF91DF911F910F9108958D3089
:10347000E1F28332D1F28BEA93E00E94C627C4CFF7
:10348000EF92FF920F931F9380919905882309F47F
:1034900069C00E9469246093AB057093AC0580936A
:1034A000AD059093AE0582E00E94F425BC01209109
:1034B000AB053091AC054091AD055091AE058091C2
:1034C000A7059091A805A091A905B091AA05790139
:1034D0008A01E81AF90A0A0B1B0BD801C701E0920E
:1034E000A305F092A4050093A5051093A6052093CB
:1034F000A7053093A8054093A9055093AA058436E3
:103500009105A105B105A4F081300DE7900700E019
:10351000A00700E0B007ECF49093A2058093A1050A
:10352000672B59F48CE993E061EA75E00E94B407D7
:103530001F910F91FF90EF9008958091A1059091B8
:10354000A205909581959F4F9093A2058093A10528
:10355000E9CF81E09DE79093A2058093A105672BB9
:1035600009F3EBCF89E995E00E94E91F892B09F463
:1035700090CF0E9469246093A7057093A80580935B
:10358000A9059093AA0589E995E00E94F31F81CFD0
:103590001F9311E08CE993E060EB75E00E94E70770
:1035A0008823A1F082EB93E060EB75E00E94CE0AE5
:1035B0008093AF05882371F31093AA038CE993E0FD
:1035C00060EB75E00E94E707882361F71F9108957B
:1035D00082ED97E040E051EE60E070E00E946B1DEC
:1035E00082E060E00E94FC248BE061E00E94FC2409
:1035F0008DE061E00E94FC24E1E8F0E080E180835E
:103600001092800082E08093990388EA91E690937B
:10361000980380939703909387008093860082E1BC
:10362000808384E297E190939B0380939A0381E0E7
:1036300080936F000E945F178BEA93E064E170E073
:103640000E94E82608951F920F920FB60F920BB6B4
:103650000F9211242F933F934F938F939F93EF9348
:10366000FF938091C00082FD2AC04091C600209146
:10367000F2053091F3052F5F3F4F2F73307080912B
:10368000F4059091F5052817390759F0E091F205F6
:10369000F091F305EE54FA4F40833093F3052093F5
:1036A000F205FF91EF919F918F914F913F912F9153
:1036B0000F900BBE0F900FBE0F901F90189580912A
:1036C000C600EFCF08951F920F920FB60F920BB660
:1036D0000F9211242F933F934F938F939F93EF93C8
:1036E000FF938091C80082FD2AC04091CE002091B6
:1036F0007A0630917B062F5F3F4F2F733070809199
:103700007C0690917D062817390759F0E0917A06DA
:10371000F0917B06E65CF94F408330937B06209363
:103720007A06FF91EF919F918F914F913F912F9149
:103730000F900BBE0F900FBE0F901F9018958091A9
:10374000CE00EFCF08951F920F920FB60F920BB6D7
:103750000F9211242F933F934F938F939F93EF9347
:10376000FF938091D00082FD2AC04091D600209125
:103770000207309103072F5F3F4F2F733070809106
:103780000407909105072817390759F0E0910207BF
:10379000F0910307EE53F94F4083309303072093D2
:1037A0000207FF91EF919F918F914F913F912F9140
:1037B0000F900BBE0F900FBE0F901F901895809129
:1037C000D600EFCF08951F920F920FB60F920BB64F
:1037D0000F9211242F933F934F938F939F93EF93C7
:1037E000FF938091300182FD2AC0409136012091E3
:1037F0008A0730918B072F5F3F4F2F733070809176
:103800008C0790918D072817390759F0E0918A07A6
:10381000F0918B07E65BF84F408330938B07209342
:103820008A07FF91EF919F918F914F913F912F9137
:103830000F900BBE0F900FBE0F901F9018958091A8
:103840003601EFCFE091DE07F091DF07E05CFF4F3C
:103850008191919120813181821B930B8F739070A4
:10386000892BD1F5E0910008F0910108E05CFF4F51
:103870008191919120813181821B930B8F73907084
:10388000892B39F5E0912208F0912308E05CFF4F85
:103890008191919120813181821B930B8F73907064
:1038A000892BA1F4E0914408F0914508E05CFF4FBA
:1038B0008191919120813181821B930B8F73907044
:1038C000892B09F408950E94E21B08950E94A21B0F
:1038D000E9CF0E94621BD6CF0E94F519C3CF1F9279
:1038E0000F920FB60F920BB60F9211242F933F93A6
:1038F0008F939F93EF93FF93209136063091370675
:1039000080913806909139062817390709F1E0911E
:103910003806F0913906EA50FA4F20818091380636
:103920009091390601968F73907090933906809329
:1039300038062093C600FF91EF919F918F913F91A0
:103940002F910F900BBE0F900FBE0F901F901895E8
:103950008091C1008F7D8093C100EDCF1F920F92A7
:103960000FB60F920BB60F9211242F933F938F93A4
:103970009F93EF93FF932091BE063091BF068091F5
:10398000C0069091C1062817390709F1E091C006D9
:10399000F091C106E258F94F20818091C0069091C4
:1039A000C10601968F7390709093C1068093C006F4
:1039B0002093CE00FF91EF919F918F913F912F9196
:1039C0000F900BBE0F900FBE0F901F901895809117
:1039D000C9008F7D8093C900EDCF1F920F920FB663
:1039E0000F920BB60F9211242F933F938F939F93B7
:1039F000EF93FF9320914607309147078091480746
:103A0000909149072817390709F1E0914807F0918B
:103A10004907EA5FF84F2081809148079091490754
:103A200001968F7390709093490780934807209375
:103A3000D600FF91EF919F918F913F912F910F9021
:103A40000BBE0F900FBE0F901F9018958091D10064
:103A50008F7D8093D100EDCF1F920F920FB60F9202
:103A60000BB60F9211242F933F938F939F93EF9355
:103A7000FF932091CE073091CF078091D00790918E
:103A8000D1072817390709F1E091D007F091D10744
:103A9000E257F84F20818091D0079091D10701968D
:103AA0008F7390709093D1078093D0072093360145
:103AB000FF91EF919F918F913F912F910F900BBEAE
:103AC0000F900FBE0F901F901895809131018F7D40
:103AD00080933101EDCFDF92EF92FF920F931F930E
:103AE000CF93DF93EC017A018B01DD24403081EE2E
:103AF000580780E0680780E0780721F1DD24D3943F
:103B0000EC89FD8981E090E008A002C0880F991F30
:103B10000A94E2F7808360E079E08DE390E0A80109
:103B200097010E94D12B2150304040405040569583
:103B300047953795279580E120303807D0F0DD2074
:103B4000C1F0DD24EC89FD89108260E874E88EE123
:103B500090E0A80197010E94D12B215030404040B5
:103B60005040569547953795279580E12030380786
:103B700030F7E889F9893083EA89FB89208319A223
:103B8000EE89FF89408121E030E0C9010C8C02C040
:103B9000880F991F0A94E2F7482B4083EE89FF892A
:103BA0004081C9010D8C02C0880F991F0A94E2F769
:103BB000482B4083EE89FF894081C9010E8C02C0E9
:103BC000880F991F0A94E2F7482B4083EE89FF89FA
:103BD00080810F8C02C0220F331F0A94E2F72095D8
:103BE00028232083DF91CF911F910F91FF90EF90B9
:103BF000DF900895DC011C96ED91FC911D97E05C2F
:103C0000FF4F2191319180819181281B390B2F73B6
:103C10003070C9010895DC011C96ED91FC911D974F
:103C2000E05CFF4F20813181E054F040DF01AE5B6A
:103C3000BF4F8D919C9111972817390749F08D91AD
:103C40009C91E80FF91F8081282F30E0C901089569
:103C50002FEF3FEFC9010895DC011C96ED91FC9117
:103C60001D97E05CFF4F20813181E054F040DF017F
:103C7000AE5BBF4F8D919C9111972817390791F03A
:103C80008D919C911197E80FF91F20818D919C9146
:103C9000119701968F73907011969C938E9330E0DC
:103CA000C90108952FEF3FEFC9010895FC0181A1DB
:103CB000882311F411A20895A489B5898C9186FFF7
:103CC000FDCF11A20895CF93DF93EC01AE85BF85A0
:103CD000AD01405C5F4FFA01208131812F5F3F4F82
:103CE0002F733070FD01EE5BFF4F808191812817AB
:103CF0003907D9F3FA0180819181A80FB91F6C931C
:103D0000EE85FF85E05CFF4F31832083EE89FF89DC
:103D1000208181E090E00F8C02C0880F991F0A94E7
:103D2000E2F7282B208381E089A3EC89FD8980813B
:103D30008064808381E090E0DF91CF9108951F93AC
:103D40001092D5071092D40728EE33E040E050E0FF
:103D50002093D6073093D7074093D8075093D907BD
:103D600061E873E07093D3076093D20782EB95E02C
:103D70009093DF078093DE0786EF95E09093E1074D
:103D80008093E00785EC90E09093E3078093E2074F
:103D900084EC90E09093E5078093E40780EC90E05A
:103DA0009093E7078093E60781EC90E09093E90712
:103DB0008093E80782EC90E09093EB078093EA070A
:103DC00086EC90E09093ED078093EC0714E010935D
:103DD000EE07B3E0B093EF07A7E0A093F007F5E09C
:103DE000F093F107E1E0E093F2071092F7071092E9
:103DF000F6072093F8073093F9074093FA0750939A
:103E0000FB077093F5076093F4078AE396E09093BD
:103E10000108809300088EE796E090930308809352
:103E200002088DEC90E090930508809304088CECD8
:103E300090E0909307088093060888EC90E09093B8
:103E400009088093080889EC90E090930B08809310
:103E50000A088AEC90E090930D0880930C088EEC91
:103E600090E090930F0880930E0810931008B09381
:103E70001108A0931208F0931308E093140810920D
:103E800019081092180820931A0830931B084093C1
:103E90001C0850931D08709317086093160882EC55
:103EA00096E0909323088093220886E097E0909311
:103EB00025088093240885ED90E09093270880934F
:103EC000260884ED90E0909329088093280880EDDF
:103ED00090E090932B0880932A0881ED90E09093D6
:103EE0002D0880932C0882ED90E090932F0880930A
:103EF0002E0886ED90E0909331088093300810935F
:103F00003208B0933308A0933408F0933508E09357
:103F1000360810923B0810923A0820933C083093E0
:103F20003D0840933E0850933F08709339086093D2
:103F300038088AE497E090934508809344088EE817
:103F400097E0909347088093460885E391E090932B
:103F500049088093480884E391E090934B0880934C
:103F60004A0880E391E090934D0880934C0881E3E8
:103F700091E090934F0880934E0882E391E09093F4
:103F800051088093500886E391E090935308809302
:103F9000520810935408B0935508A0935608F09314
:103FA0005708E09358081F9108950E949A240E9490
:103FB000E81A0E94C81A82E29CE1892B29F00E942B
:103FC000221C0E94C81AFBCF0E94C81A0E94C81A5D
:103FD000FBCFFC0120E030E08081882311F421E058
:103FE00030E0C9010895FC0181E0808308950E94BA
:103FF00050010895CF92DF92EF92FF920F931F939B
:10400000CF93DF937C016B01EA0141155105D9F093
:1040100000E010E0D6016D916D01D701ED91FC91AA
:104020000190F081E02DC7011995080F191F219704
:1040300089F7C801DF91CF911F910F91FF90EF9009
:10404000DF90CF90089500E010E0F3CFDC01ED9118
:10405000FC910190F081E02D19950895EF92FF9267
:104060000F931F938C01DC01ED91FC910190F08185
:10407000E02D6DE019957C01D801ED91FC91019046
:10408000F081E02DC8016AE019959C012E0D3F1DBD
:10409000C9011F910F91FF90EF900895AF92BF92C9
:1040A000CF92DF92EF92FF920F931F93CF93DF9304
:1040B0005C017B01DB0114968D919C911597892BF6
:1040C00031F1CC24DD24C0E0D0E0D501ED91FC91AC
:1040D00000811181C701BE010E943D26682FC501E4
:1040E000F8011995C80ED91E2196F7018481958192
:1040F000C817D90750F3C601DF91CF911F910F91D7
:10410000FF90EF90DF90CF90BF90AF900895CC24B8
:10411000DD24F1CFEF92FF920F931F937C010E9459
:104120004E208C01C7010E942E209C01200F311FC0
:10413000C9011F910F91FF90EF9008954F925F92E8
:104140007F928F929F92AF92BF92CF92DF92EF9227
:10415000FF920F931F93DF93CF93CDB7DEB7A19755
:104160000FB6F894DEBF0FBECDBF2C01742ECB016D
:10417000223008F460C0822E9924AA24BB2419A2FC
:1041800021E2C22ED12CCC0EDD1E0BC0405DF6010B
:104190004083E114F1040105110501F17E2C5F2D2E
:1041A000C801672D752FA50194010E94D12B7901BB
:1041B0008A01C801B701A50194010E94922B472DE5
:1041C000461B0894C108D1084A3004F3495CF60143
:1041D0004083E114F1040105110501F7C114D10474
:1041E00081F1D6010D900020E9F71197AC19BD09B6
:1041F000F20180819181FC0122813381C201B601EB
:10420000AD01F90119959C01C901A1960FB6F89469
:10421000DEBF0FBECDBFCF91DF911F910F91FF90F9
:10422000EF90DF90CF90BF90AF909F908F907F9056
:104230005F904F9008953AE0832E912CA12CB12CE1
:104240009ECF20E030E0E0CFDC012115310519F0F0
:104250000E949E200895ED91FC910190F081E02D47
:10426000642F19950895EF92FF920F931F939A016F
:10427000E62EFF2400E010E0B801A7010E942421EF
:104280001F910F91FF90EF900895CF92DF92EF92E0
:10429000FF920F931F93CF93DF93EC016A017B0191
:1042A00021153105B9F02A30310539F477FD1BC0ED
:1042B0002AE00E949E209C0103C00E949E209C0137
:1042C000C901DF91CF911F910F91FF90EF90DF9087
:1042D000CF900895E881F9810190F081E02D642F5D
:1042E00019959C01EDCFE881F9810190F081E02DD5
:1042F0006DE219958C0144275527BA014C195D09C7
:104300006E097F09CE012AE00E949E209801280FA5
:10431000391FD6CFCF92DF92EF92FF920F931F9368
:104320006C017B019A010027F7FC0095102FB80162
:10433000A7010E9445218C01C6010E942E20080F72
:10434000191FC8011F910F91FF90EF90DF90CF9040
:104350000895CF93DF93EC016115710599F0DB01AE
:104360000D900020E9F71197A61BB70BE881F981A2
:104370000280F381E02DAD0119959C01C901DF9107
:10438000CF91089520E030E0C901DF91CF910895E9
:104390000F931F93CF93DF93EC0161157105D9F053
:1043A000DB010D900020E9F71197A61BB70BE88100
:1043B000F9810280F381E02DAD0119958C01CE01C8
:1043C0000E942E209801280F391FC901DF91CF913B
:1043D0001F910F91089500E010E0F1CF883098F51B
:1043E000E82FF0E0EE0FFF1FE65AF74F718360836E
:1043F0008330B1F1843040F1853009F44BC0853011
:1044000070F48091690042955295507F5427407F07
:1044100054278F7C842B80936900EA9A0895863014
:1044200059F1873081F480916A00002456954795B0
:104430000794569547950794542F402D8F73842BDE
:1044400080936A00EF9A08958130E9F1823098F103
:10445000809169008C7F842B80936900E89A08958D
:1044600080916900440F551F440F551F837F842B93
:1044700080936900E99A089580916A004295529567
:10448000507F5427407F54278F7C842B80936A0071
:10449000EE9A0895809169000024569547950794F7
:1044A000569547950794542F402D8F73842B8093F6
:1044B0006900EB9A089580916A008C7F842B809329
:1044C0006A00EC9A089580916A00440F551F440FCA
:1044D000551F837F842B80936A00ED9A089588305E
:1044E00088F48330B1F0843070F4813001F182308F
:1044F000E0F0E898E82FF0E0EE0FFF1FE65AF74FE4
:10450000118210820895853071F0853020F4EA9888
:10451000F1CFE998EFCF863021F0873059F7EF9847
:10452000E9CFEE98E7CFEB98E5CFEC98E3CFED98A5
:10453000E1CF1F920F920FB60F920BB60F9211247C
:104540002F933F934F935F936F937F938F939F939B
:10455000AF93BF93EF93FF9380915E0890915F08B4
:10456000892B29F0E0915E08F0915F081995FF9181
:10457000EF91BF91AF919F918F917F916F915F91DB
:104580004F913F912F910F900BBE0F900FBE0F9048
:104590001F9018951F920F920FB60F920BB60F92A5
:1045A00011242F933F934F935F936F937F938F9338
:1045B0009F93AF93BF93EF93FF9380916008909187
:1045C0006108892B29F0E0916008F0916108199544
:1045D000FF91EF91BF91AF919F918F917F916F91DB
:1045E0005F914F913F912F910F900BBE0F900FBE97
:1045F0000F901F9018951F920F920FB60F920BB647
:104600000F9211242F933F934F935F936F937F9358
:104610008F939F93AF93BF93EF93FF938091620823
:1046200090916308892B29F0E0916208F09163086A
:104630001995FF91EF91BF91AF919F918F917F91CC
:104640006F915F914F913F912F910F900BBE0F9003
:104650000FBE0F901F9018951F920F920FB60F92DA
:104660000BB60F9211242F933F934F935F936F9349
:104670007F938F939F93AF93BF93EF93FF9380911B
:10468000640890916508892B29F0E0916408F09105
:1046900065081995FF91EF91BF91AF919F918F910F
:1046A0007F916F915F914F913F912F910F900BBE32
:1046B0000F900FBE0F901F9018951F920F920FB67C
:1046C0000F920BB60F9211242F933F934F935F934A
:1046D0006F937F938F939F93AF93BF93EF93FF93CA
:1046E00080915A0890915B08892B29F0E0915A0833
:1046F000F0915B081995FF91EF91BF91AF919F9158
:104700008F917F916F915F914F913F912F910F907A
:104710000BBE0F900FBE0F901F9018951F920F9217
:104720000FB60F920BB60F9211242F933F934F9316
:104730005F936F937F938F939F93AF93BF93EF9309
:10474000FF9380915C0890915D08892B29F0E0919E
:104750005C08F0915D081995FF91EF91BF91AF91C1
:104760009F918F917F916F915F914F913F912F9189
:104770000F900BBE0F900FBE0F901F9018951F92B9
:104780000F920FB60F920BB60F9211242F933F93F7
:104790004F935F936F937F938F939F93AF93BF9349
:1047A000EF93FF938091660890916708892B29F019
:1047B000E0916608F09167081995FF91EF91BF911C
:1047C000AF919F918F917F916F915F914F913F91A9
:1047D0002F910F900BBE0F900FBE0F901F9018954A
:1047E0001F920F920FB60F920BB60F9211242F93B8
:1047F0003F934F935F936F937F938F939F93AF9369
:10480000BF93EF93FF938091680890916908892B7B
:1048100029F0E0916808F09169081995FF91EF91EE
:10482000BF91AF919F918F917F916F915F914F91C8
:104830003F912F910F900BBE0F900FBE0F901F90C6
:1048400018951F920F920FB60F9211242F933F933A
:104850008F939F93AF93BF9380916E0890916F0851
:10486000A0917008B0917108309172080196A11D55
:10487000B11D232F2D5F2D3720F02D570196A11D3F
:10488000B11D2093720880936E0890936F08A093D7
:104890007008B093710880916A0890916B08A0919C
:1048A0006C08B0916D080196A11DB11D80936A0836
:1048B00090936B08A0936C08B0936D08BF91AF9173
:1048C0009F918F913F912F910F900FBE0F901F904E
:1048D00018959FB7F89420916A0830916B08409121
:1048E0006C0850916D0886B5A89B06C08F3F21F0DB
:1048F0002F5F3F4F4F4F5F4F9FBF542F432F322F9C
:104900002227280F311D411D511D220F331F441F27
:10491000551F220F331F441F551FB901CA010895A7
:10492000019739F0880F991F880F991F02970197F7
:10493000F1F70895789484B5826084BD84B5816070
:1049400084BD85B5826085BD85B5816085BDEEE697
:10495000F0E0808181608083E1E8F0E01082808176
:1049600082608083808181608083E0E8F0E08081E4
:1049700081608083E1EBF0E0808184608083E0EB04
:10498000F0E0808181608083E1E9F0E080818260F5
:104990008083808181608083E0E9F0E080818160B4
:1049A0008083E1EAF0E080818260808380818160A1
:1049B0008083E0EAF0E0808181608083E1E2F1E0E1
:1049C000808182608083808181608083E0E2F1E089
:1049D000808181608083EAE7F0E080818460808369
:1049E0008081826080838081816080838081806813
:1049F00080831092C1000895CF93DF93482F50E039
:104A0000CA0188589E4FFC0134914E5C5E4FFA01FA
:104A100084918823B9F090E0880F991FFC01EC5134
:104A2000FF4FA591B491FC01E250FF4FC591D49185
:104A3000662359F06230B9F09FB7F8948C91832BBC
:104A40008C939FBFDF91CF9108952FB7F8948C91ED
:104A5000932F909589238C938881892388832FBFF6
:104A6000DF91CF9108952FB7F8948C91932F909563
:104A700089238C938881832B88832FBFE3CF893050
:104A800009F45EC08A3070F08D3009F45FC08E305A
:104A9000D0F0803109F46CC0813109F463C08F30EB
:104AA000C9F10895843009F445C08530B8F08730E5
:104AB000B9F1883048F58630A1F78091B0008F7742
:104AC0008093B00008958B3009F446C08C30B0F06C
:104AD0008091A0008F7D8093A0000895823031F1F5
:104AE000833030F48130E9F684B58F7784BD089542
:104AF000809180008F77809380000895809190004E
:104B0000877F809390000895809190008F778093A5
:104B100090000895809120018F778093200108955F
:104B20008091B0008F7D8093B000089584B58F7D13
:104B300084BD0895809180008F7D809380000895CA
:104B4000809190008F7D8093900008958091A000C7
:104B5000877F8093A00008958091A0008F77809335
:104B6000A000089580912001877F809320010895FF
:104B7000809120018F7D809320010895FF920F93F3
:104B80001F93F62E482F50E0CA0182549E4FFC011D
:104B90002491CA0188589E4FFC0104914E5C5E4FDF
:104BA000FA011491112399F02223D1F4E12FF0E0BE
:104BB000EE0FFF1FE250FF4FA591B4919FB7F894FD
:104BC000FF2049F48C91009580238C939FBF1F9107
:104BD0000F91FF9008958C91802B8C939FBFF7CFFE
:104BE000822F0E943F25E2CF0F931F93482F50E062
:104BF000CA0182549E4FFC012491CA0188589E4FDD
:104C0000FC0104914E5C5E4FFA0114911123D1F026
:104C10002223F1F4812F90E0880F991F885E9E4F28
:104C2000FC01A591B4918C9120E030E0802321F427
:104C3000C9011F910F91089521E030E0C9011F9132
:104C40000F91089520E030E0C9011F910F91089560
:104C5000822F0E943F25DECFFC0184819581681759
:104C6000790748F40190F081E02D309721F0E60FAC
:104C7000F71F8081089580E00895FC01848195816B
:104C80006817790748F40190F081E02D309721F002
:104C9000E60FF71F8081089580E00895FC01808170
:104CA0009181009739F00E9445039B01AC01B90145
:104CB000CA01089520E030E040E050E0B901CA01A7
:104CC00008950F931F93CF93DF93FC018B01CA01CB
:104CD00041155105D1F061157105B9F04481558137
:104CE00024173507B8F40197EA01C21BD30B8C17C0
:104CF0009D07B8F060817181620F731FC801AE011A
:104D00000E94A803C00FD11F1882DF91CF911F917D
:104D10000F910895FB011082DF91CF911F910F91A8
:104D20000895EC01E7CFFC01DB0114962D913C9135
:104D3000159784819581821B930B8417950798F0B2
:104D400080819181009779F06D917C916115710559
:104D500051F0840F951FA9010E949A039C0180E0E5
:104D6000232B19F0089580E0089581E00895FC0157
:104D7000DB012481358114968D919C91159728171C
:104D8000390710F480E00895CF0140E050E00E9420
:104D9000932608950F931F93CF93DF93EC018B011C
:104DA0006F5F7F4F888199810E945202009751F076
:104DB000998388831B830A8381E0DF91CF911F91C0
:104DC0000F91089580E0DF91CF911F910F91089589
:104DD000CF93DF93EC0188819981892B29F08A8117
:104DE0009B818617970780F4CE010E94CA268823EC
:104DF00041F08C819D81892B39F4E881F981108201
:104E000081E0DF91CF91089581E0DF91CF91089506
:104E1000EF92FF920F931F93CF93DF93EC018B01DF
:104E20006C817D810115110599F04115510541F401
:104E300081E0DF91CF911F910F91FF90EF90089546
:104E40007A01E60EF71EB7010E94E826882341F496
:104E500080E0DF91CF911F910F91FF90EF90089527
:104E6000888199812C813D81820F931FB8010E9416
:104E70009303FD82EC82DCCFEF92FF920F931F939E
:104E8000DF93CF9300D000D0CDB7DEB77C01CB014C
:104E90008E010F5F1F4FB8014AE050E00E942704C7
:104EA000F80101900020E9F73197E01BF10BC701F1
:104EB000B801AF010E94082726960FB6F894DEBF0E
:104EC0000FBECDBFCF91DF911F910F91FF90EF905B
:104ED0000895EF92FF920F931F93DF93CF93CDB777
:104EE000DEB727970FB6F894DEBF0FBECDBF7C01AB
:104EF000CB018E010F5F1F4FB8014AE050E00E94C6
:104F0000E903F80101900020E9F73197E01BF10B6C
:104F1000C701B801AF010E94082727960FB6F89481
:104F2000DEBF0FBECDBFCF91DF911F910F91FF90DC
:104F3000EF900895EF92FF920F931F93DF93CF931B
:104F400000D00F92CDB7DEB77C01862F90E08E01A6
:104F50000F5F1F4FB8014AE050E00E94E903F801DB
:104F600001900020E9F73197E01BF10BC701B80170
:104F7000AF010E9408270F900F900F900F90CF91D4
:104F8000DF911F910F91FF90EF900895DF93CF93E2
:104F90000F920F92CDB7DEB769831A82BE016F5FA1
:104FA0007F4F41E050E00E9408270F900F90CF9173
:104FB000DF9108956115710559F0DB010D90002016
:104FC000E9F71197A61BB70BAD010E9408270895BA
:104FD00080E00895FB0160817181448155810E94C8
:104FE00008270895CF93DF93EC018881998100977A
:104FF00011F00E94FA01198218821D821C821B8204
:105000001A82DF91CF9108950F931F93182F092FC4
:10501000FB0160817181448155810E9408278823AA
:1050200021F4812F902F0E94F227812F902F1F9122
:105030000F910895EF92FF920F931F93CF93DF93F9
:10504000EC017B018A01BA010E94E826882379F0ED
:105050001D830C8388819981B7010E949303CE013F
:10506000DF91CF911F910F91FF90EF900895CE01A6
:105070000E94F227CE01DF91CF911F910F91FF90F7
:10508000EF900895CF93DF93EC01198218821B8271
:105090001A821D821C821E826115710551F0DB018E
:1050A0000D900020E9F71197A61BB70BAD010E94E8
:1050B0001A28DF91CF910895CF93DF93EC011982E5
:1050C00018821B821A821D821C821E826115710544
:1050D00051F0DB010D900020E9F71197A61BB70BEB
:1050E000AD010E941A28DF91CF9108950F931F936D
:1050F000182F092F6115710579F0DB010D90002043
:10510000E9F71197A61BB70BAD010E941A28812F52
:10511000902F1F910F9108950E94F227812F902FB9
:105120001F910F910895EF92FF920F931F93DF93BA
:10513000CF93CDB7DEB762970FB6F894DEBF0FBE40
:10514000CDBF8C01CB01F801118210821382128233
:105150001582148216827E010894E11CF11CB701AD
:1051600050E00E94E903C801B7010E9476286296C8
:105170000FB6F894DEBF0FBECDBFCF91DF911F9168
:105180000F91FF90EF900895EF92FF920F931F936E
:10519000DF93CF93CDB7DEB729970FB6F894DEBF74
:1051A0000FBECDBF8C01862FF801118210821382B1
:1051B000128215821482168290E07E010894E11C0E
:1051C000F11CB70150E00E942704C801B7010E94FA
:1051D000762829960FB6F894DEBF0FBECDBFCF91CB
:1051E000DF911F910F91FF90EF900895BF92CF92A2
:1051F000DF92EF92FF920F931F93CF93DF93082FCD
:10520000B92E6B017A01E9012417350710F4EA0180
:105210007901802F9B2D6AE073E00E944228D6011D
:1052200014968D919C9115978E159F05C8F08C173B
:105230009D0710F1D601ED91FC911197EC0FFD1F28
:10524000108110826D917C916E0D7F1D802F9B2DA2
:105250000E947628D601ED91FC91EC0FFD1F108382
:10526000802F9B2DDF91CF911F910F91FF90EF9099
:10527000DF90CF90BF900895EC01DCCF0F931F9388
:105280008C01FB01248135810E94F628C8011F9101
:105290000F910895CF93DF93EC01FB0186179707D9
:1052A00049F0608171816115710541F0448155813A
:1052B0000E941A28CE01DF91CF9108950E94F22713
:1052C000CE01DF91CF910895FC01118210821382EB
:1052D00012821582148216820E944A290895FC01C6
:1052E000808191810E94FA010895FC018081918161
:1052F0000E94FA0108955058BB27AA270ED071C109
:1053000062D130F067D120F031F49F3F11F41EF4E8
:1053100057C10EF4E095E7FB4DC1E92F73D180F33F
:10532000BA17620773078407950718F071F49EF5A2
:105330008BC10EF4E0950B2EBA2FA02D0B01B901F5
:1053400090010C01CA01A0011124FF27591B99F0FB
:10535000593F50F4503E68F11A16F040A22F232F07
:10536000342F4427585FF3CF469537952795A79557
:10537000F0405395C9F77EF41F16BA0B620B730BFE
:10538000840BBAF09150A1F0FF0FBB1F661F771F6F
:10539000881FC2F70EC0BA0F621F731F841F48F424
:1053A000879577956795B795F7959E3F08F0B3CFAA
:1053B0009395880F08F09927EE0F97958795089594
:1053C0000CD00FC107D140F0FED030F021F45F3F88
:1053D00019F0F0C0511139C1F3C014D198F39923D9
:1053E000C9F35523B1F3951B550BBB27AA276217A9
:1053F0007307840738F09F5F5F4F220F331F441FEE
:10540000AA1FA9F333D00E2E3AF0E0E830D0915025
:105410005040E695001CCAF729D0FE2F27D0660F12
:10542000771F881FBB1F261737074807AB07B0E851
:1054300009F0BB0B802DBF01FF2793585F4F2AF067
:105440009E3F510568F0B6C000C15F3FECF3983E47
:10545000DCF3869577956795B795F7959F5FC9F7C4
:10546000880F911D9695879597F90895E1E0660F4D
:10547000771F881FBB1F621773078407BA0720F0C6
:10548000621B730B840BBA0BEE1F88F7E09508952F
:1054900004D06894B111D9C00895BCD088F09F574A
:1054A00090F0B92F9927B751A0F0D1F0660F771F70
:1054B000881F991F1AF0BA95C9F712C0B13081F050
:1054C000C3D0B1E00895C0C0672F782F8827B85F98
:1054D00039F0B93FCCF3869577956795B395D9F7B1
:1054E0003EF490958095709561957F4F8F4F9F4FBB
:1054F0000895E89409C097FB3EF4909580957095C7
:1055000061957F4F8F4F9F4F9923A9F0F92F96E90F
:10551000BB279395F695879577956795B795F11184
:10552000F8CFFAF4BB0F11F460FF1BC06F5F7F4F21
:105530008F4F9F4F16C0882311F096E911C0772333
:1055400021F09EE8872F762F05C0662371F096E83C
:10555000862F70E060E02AF09A95660F771F881F0B
:10556000DAF7880F9695879597F90895990F0008AF
:10557000550FAA0BE0E8FEEF16161706E807F90725
:10558000C0F012161306E407F50798F0621B730BC0
:10559000840B950B39F40A2661F0232B242B252B41
:1055A00021F408950A2609F4A140A6958FEF811DE4
:1055B000811D089597F99F6780E870E060E0089585
:1055C0009FEF80EC089500240A941616170618061B
:1055D0000906089500240A941216130614060506F7
:1055E0000895092E0394000C11F4882352F0BB0F88
:1055F00040F4BF2B11F460FF04C06F5F7F4F8F4FEB
:105600009F4F089557FD9058440F551F59F05F3F25
:1056100071F04795880F97FB991F61F09F3F79F0D4
:1056200087950895121613061406551FF2CF469556
:10563000F1DF08C0161617061806991FF1CF8695D8
:105640007105610508940895E894BB2766277727BC
:10565000CB0197F908958ADF08F48FEF08950BD0F6
:10566000C0CFB1DF28F0B6DF18F0952309F0A2CF44
:10567000A7CF1124EACFC6DFA0F3959FD1F3950FF2
:1056800050E0551F629FF001729FBB27F00DB11DC6
:10569000639FAA27F00DB11DAA1F649F6627B00D56
:1056A000A11D661F829F2227B00DA11D621F739F3F
:1056B000B00DA11D621F839FA00D611D221F749F4D
:1056C0003327A00D611D231F849F600D211D822F94
:1056D000762F6A2F11249F5750408AF0E1F08823DB
:1056E0004AF0EE0FFF1FBB1F661F771F881F9150E8
:1056F0005040A9F79E3F510570F05CCFA6CF5F3FA9
:10570000ECF3983EDCF3869577956795B795F7951A
:10571000E7959F5FC1F7FE2B880F911D96958795A2
:1057200097F90895629FD001739FF001829FE00D69
:10573000F11D649FE00DF11D929FF00D839FF00D10
:10574000749FF00D659FF00D9927729FB00DE11DBC
:10575000F91F639FB00DE11DF91FBD01CF01112499
:105760000895991B79E004C0991F961708F0961BBD
:10577000881F7A95C9F780950895AA1BBB1B51E134
:1057800007C0AA1FBB1FA617B70710F0A61BB70BB1
:10579000881F991F5A95A9F780959095BC01CD0156
:1057A0000895A1E21A2EAA1BBB1BFD010DC0AA1F62
:1057B000BB1FEE1FFF1FA217B307E407F50720F07A
:1057C000A21BB30BE40BF50B661F771F881F991FF5
:1057D0001A9469F760957095809590959B01AC013E
:1057E000BD01CF010895EE0FFF1F0590F491E02D4C
:1057F00019942F923F924F925F926F927F928F9265
:105800009F92AF92BF92CF92DF92EF92FF920F934F
:105810001F93CF93DF93CDB7DEB7CA1BDB0B0FB659
:10582000F894DEBF0FBECDBF19942A883988488806
:105830005F846E847D848C849B84AA84B984C884AC
:10584000DF80EE80FD800C811B81AA81B981CE0FA3
:10585000D11D0FB6F894DEBF0FBECDBFED01089588
:1058600012E0C8E0D2E004C0FE010E94F52B2296AF
:0A587000CA30D107C9F7F894FFCF42
:10587A0000415300253032580030300030002530C6
:10588A0032780057303800573033004952005F00F1
:10589A003D00443D0043503D0053503D004D5500EE
:1058AA00500053796E633A2000202D3E2053796EC2
:1058BA0063466163743A20002C20436C6F636B3A31
:1058CA0020002C20546F6C3A20002C2050617474F4
:1058DA004C656E3A200020002C2050756C73653A96
:1058EA0020002C20002C206D53746172743A200021
:1058FA005369676E616C3A20002E2000205B005DC0
:10590A00005061747465726E3A20002050003A208B
:10591A00002A5B002C00003B006974006972006970
:10592A0073006970004954506172616D733A2000C6
:10593A00200020557365206F6E65206F6600562023
:10594A00322E357261772D6F7574205349474E4157
:10595A004C6475696E6F202D20636F6D70696C657C
:10596A006420617420417072203133203230313525
:10597A002032313A33303A343000002000770800C0
:10598A0000063CA40100000000EE0D000000000C1F
:10599A000F00000000AF0B2911B30F19110000000E
:1059AA0000EB159B099C09FE1200000000EB159BF9
:1059BA00099C09B90A0000000003099B099C099D7A
:1059CA0009000000000209000000000000FFFEEECE
:1059DA00F401000000FCF8F68A02000000FCF8EE70
:1059EA00F4010000000000000000000200000000B6
:0E59FA0000631EFA1FFA1D2C1E0B1E561E0007
:00000001FF
