:100000000C946B000C94E61D0C94131E0C9493003E
:100010000C9493000C9493000C9493000C94930014
:100020000C9493000C9493000C9493000C94930004
:100030000C9493000C9404130C9493000C94930070
:100040000C94401E0C9493000C94AE190C94FC1963
:100050000C9493000C9493000C9493000C949300D4
:100060000C9493000C94930020557365206F6E657B
:10007000206F66200000000000240027002A0000F6
:10008000000000250028002B0000000000230026AF
:10009000002900040404040404040402020202020D
:1000A000020303030303030102040810204080013C
:1000B00002040810200102040810200000000700BC
:1000C0000201000003040600000000000000000020
:1000D0006813681B611311241FBECFEFD8E0DEBF89
:1000E000CDBF12E0A0E0B1E0E8E3FAE402C0059081
:1000F0000D92A833B107D9F714E0A8E3B2E001C02C
:100100001D92A63EB107E1F710E0C4EDD0E004C0B7
:100110002297FE010E94D424C03DD107C9F70E9456
:10012000BE1B0C940F250C9400000F931F93CF93CC
:10013000DF93689F8001699F100D789F100D112437
:10014000C8010E94B100EC01009729F060E070E066
:10015000A8010E94E802CE01DF91CF911F910F917B
:100160000895CF93DF93BC018230910510F462E0D3
:1001700070E0A091E404B091E504ED01E0E0F0E06E
:1001800040E050E021C0888199818617970769F483
:100190008A819B81309719F09383828304C0909366
:1001A000E5048093E404FE0134C06817790738F44D
:1001B0004115510519F08417950708F4AC01FE01AB
:1001C0008A819B819C01E9012097E9F6411551053F
:1001D000A9F1CA01861B970B049708F4BA01E0E065
:1001E000F0E02AC08D919C91119784179507F9F43E
:1001F0006417750781F412968D919C91139730972F
:1002000019F09383828304C09093E5048093E404FF
:10021000FD0132964CC0CA01861B970BFD01E80F09
:10022000F91F6193719302978D939C9340C0FD01D8
:10023000828193819C01D9011097A1F68091E204FB
:100240009091E304892B41F48091FD019091FE018E
:100250009093E3048093E2044091FF0150910002E7
:100260004115510541F44DB75EB78091FB01909166
:10027000FC01481B590B2091E2043091E304CA01B0
:10028000821B930B8617970780F0AB014E5F5F4F81
:100290008417950750F0420F531F5093E304409387
:1002A000E204F9016193719302C0E0E0F0E0CF0154
:1002B000DF91CF910895CF93DF93009709F450C059
:1002C000EC0122971B821A82A091E404B091E5040C
:1002D000109709F140E050E0AC17BD0708F1BB836F
:1002E000AA83FE0121913191E20FF31FAE17BF07E0
:1002F00079F48D919C911197280F391F2E5F3F4FF4
:100300003983288312968D919C9113979B838A83BE
:100310004115510571F4D093E504C093E40420C065
:1003200012968D919C911397AD01009711F0DC010D
:10033000D3CFFA01D383C28321913191E20FF31F0E
:10034000CE17DF0769F488819981280F391F2E5F46
:100350003F4FFA01318320838A819B81938382837B
:10036000DF91CF910895A0E0B0E0E9EBF1E00C94CB
:10037000DA246C01009729F4CB010E94B1006C01D2
:10038000C1C08EEF882E8FEF982E8C0C9D1C86019D
:10039000060F171F0815190508F4B2C0F401A08153
:1003A000B181A617B707B8F0A530B10508F4AAC007
:1003B000CD0104978617970708F4A4C01297A61BCF
:1003C000B70BF801A193B193D4016D937C93CF0146
:1003D0000E945B0197C07B01EA1AFB0AEEEFFFEF78
:1003E000EE0EFF1E36016A0E7B1EC091E404D09112
:1003F000E50444245524AA24BB244AC0C615D705C5
:10040000E1F5488159814E155F05B8F1CA0104979D
:100410008E159F05B0F41296A40FB51FF401B18399
:10042000A0832A813B814114510431F0D2011396FB
:100430003C932E93129766C03093E5042093E40416
:1004400061C08A819B81F80193838283425050402E
:100450004E195F09518340834114510431F0D20198
:1004600013961C930E93129704C01093E504009307
:10047000E404F4017183608345C088819981A816E2
:10048000B90608F45C012E018A819B819C01E90177
:10049000209709F0B3CF8091E2049091E304861590
:1004A0009705E9F4A616B706D0F42091FF01309124
:1004B00000022115310541F42DB73EB78091FB01B3
:1004C0009091FC01281B390B02171307C8F41093F5
:1004D000E3040093E204D4016D937C9313C0CB0139
:1004E0000E94B100EC01009759F0F4014081518164
:1004F000B6010E94CD02C6010E945B016E0102C0DE
:10050000CC24DD24C601CDB7DEB7E0E10C94F6249F
:10051000FC0188279927E89421912032E9F32930BA
:1005200010F02E30C8F32B3241F02D3239F468949C
:1005300004C00E946003820F911D219120532A3034
:10054000C0F31EF4909581959F4F08951F93FC0171
:1005500099278827BC01E89411911032E9F31930EA
:1005600010F01E30C8F31B3251F01D3249F468946C
:1005700006C00E944B03610F711D811D911D1191D9
:1005800010531A30B0F33EF49095809570956195B4
:100590007F4F8F4F9F4F1F910895FB01DC0102C0D9
:1005A00001900D9241505040D8F70895681779078F
:1005B00068F4FB01DC01E40FF51FA40FB51F02C0B6
:1005C00002900E9241505040D8F708950C94CD02FD
:1005D000DC0101C06D9341505040E0F70895FC01EB
:1005E0008191861721F08823D9F7992708953197AB
:1005F000CF010895FB01DC0101900D920020E1F78D
:100600000895FB01DC014150504048F001900D92EB
:100610000020C9F701C01D9241505040E0F70895F5
:10062000FB0151915523A9F0BF01DC014D91451704
:100630004111E1F759F4CD010190002049F04D91AD
:1006400040154111C9F3FB014111EFCF81E090E06A
:1006500001970895FB019F01E8944230C4F04532B0
:10066000B4F44A3029F497FB1EF4909581959F4F7E
:10067000642F77270E948924805D8A330CF0895D7E
:100680008193CB010097A1F716F45DE2519310829C
:10069000C9010C949505592F482F372F262F660F27
:1006A000771F881F991F660F771F881F991F620F7A
:1006B000731F841F951F660F771F881F991F08954A
:1006C0007AE0979F902D879F802D910D112408959A
:1006D000FB019F01423074F0453264F4642F7727A8
:1006E0000E948924805D8A330CF0895D8193CB015F
:1006F0000097A1F71082C9010C949505AEE0B0E017
:10070000E4E8F3E00C94E6240D891E8986E08C83EE
:100710001A8309838FEF9FE79E838D839E01275E57
:100720003F4FCE0101966F89788DA9010E94A203E7
:100730002F813885020F131FF80110822E96E4E0F6
:100740000C940225ABE0B0E0E8EAF3E00C94D82486
:100750003C012B015A01FC0117821682838181FD25
:1007600003C06FEF7FEFC6C19AE0892E1E01089487
:10077000211C311CF3012381F20123FD859123FF0C
:1007800081912F01882309F4B2C1853239F423FD08
:10079000859123FF81912F01853229F490E0B301E7
:1007A0000E94A505E7CF982FFF24EE249924FFE1AE
:1007B000FF15D0F09B3269F09C3228F4903259F04A
:1007C000933291F40EC09D3249F0903369F441E0C8
:1007D00024C052E0F52A84E0F82A28C098E0F92ADB
:1007E00025C0E0E1FE2A22C0F7FC29C0892F8053F2
:1007F0008A3070F4F6FE05C0989C902C1124980E57
:1008000015C0E89CE02C1124E80EF0E2FF2A0EC08F
:100810009E3229F4F6FC6BC140E4F42A07C09C36F2
:1008200019F450E8F52A02C0983649F4F20123FD84
:10083000959123FF91912F01992309F0B8CF892F2A
:100840008554833018F08052833038F444E050E00F
:10085000A40EB51E5FE359830FC0933631F0933772
:1008600079F0933509F056C020C0F5018081898365
:1008700042E050E0A40EB51E610101E010E012C09C
:10088000F501C080D180F6FC03C06FEF7FEF02C09E
:10089000692D70E042E050E0A40EB51EC6010E9432
:1008A0008A058C015FE7F52214C0F501C080D18074
:1008B000F6FC03C06FEF7FEF02C0692D70E042E0ED
:1008C00050E0A40EB51EC6010E947F058C0150E8C1
:1008D000F52AF3FE07C01AC080E290E0B3010E943F
:1008E000A505EA948E2D90E008171907A8F30EC00D
:1008F000F601F7FC8591F7FE81916F0190E0B3015D
:100900000E94A505E110EA9401501040011511055F
:1009100079F7EAC0943611F0993669F5F7FE08C008
:10092000F501208131814281538184E090E00AC049
:10093000F501808191819C01442737FD4095542F1A
:1009400082E090E0A80EB91E9FE6F92257FF09C089
:1009500050954095309521953F4F4F4F5F4FE0E8C0
:10096000FE2ACA01B901A1012AE030E00E94D105A6
:10097000D82ED21840C0953729F41F2D1F7E2AE0AB
:1009800030E01DC01F2D197F9F3661F0903720F495
:10099000983509F0ACC00FC0903739F0983709F09E
:1009A000A6C004C028E030E00AC0106114FD146045
:1009B00020E130E004C014FD166020E132E017FFB2
:1009C00008C0F501608171818281938144E050E02B
:1009D00008C0F50180819181BC0180E090E042E097
:1009E00050E0A40EB51EA1010E94D105D82ED21848
:1009F0008FE7F82EF122F6FE0BC05EEFF522D91438
:100A000038F4F4FE07C0F2FC05C08FEEF82202C0F5
:100A10001D2D01C0192DF4FE0DC0FE01ED0DF11DBF
:100A20008081803319F499EEF92208C01F5FF2FE2D
:100A300005C003C08F2D867809F01F5F0F2DF3FCD2
:100A400014C0F0FE0FC01E1510F09D2C0BC09D2C85
:100A50009E0C911A1E2D06C080E290E0B3010E9408
:100A6000A5051F5F1E15C0F304C01E1510F4E11A82
:100A700001C0EE2404FF0FC080E390E0B3010E94A8
:100A8000A50502FF1DC001FD03C088E790E00EC070
:100A900088E590E00BC0802F867891F001FF02C0BE
:100AA0008BE201C080E2F7FC8DE290E0B3010E948E
:100AB000A50506C080E390E0B3010E94A5059A94C5
:100AC000D914C0F3DA94F101ED0DF11D808190E0AD
:100AD000B3010E94A505DD20A9F706C080E290E0E1
:100AE000B3010E94A505EA94EE20C1F743CEF301BD
:100AF00066817781CB012B96E2E10C94F424FC0112
:100B00000590615070400110D8F7809590958E0F38
:100B10009F1F0895FC016150704001900110D8F7AB
:100B2000809590958E0F9F1F0895DC01FC01672F23
:100B300071917723E1F7329704C07C916D937083B4
:100B40006291AE17BF07C8F308950F931F93CF9319
:100B5000DF938C01EB018B8181FF1BC082FF0DC0F5
:100B60002E813F818C819D812817390764F4E881AB
:100B7000F9810193F983E88306C0E885F985802F20
:100B80000995892B31F48E819F8101969F838E83F5
:100B900002C00FEF1FEFC801DF91CF911F910F919E
:100BA0000895FA01AA27283051F1203181F1E89403
:100BB0006F936E7F6E5F7F4F8F4F9F4FAF4FB1E050
:100BC0003ED0B4E03CD0670F781F891F9A1FA11D4B
:100BD000680F791F8A1F911DA11D6A0F711D811D4C
:100BE000911DA11D20D009F468943F912AE0269F11
:100BF00011243019305D3193DEF6CF010895462F70
:100C00004770405D4193B3E00FD0C9F7F6CF462F50
:100C10004F70405D4A3318F0495D31FD40524193B9
:100C200002D0A9F7EACFB4E0A69597958795779576
:100C30006795BA95C9F700976105710508959B01FD
:100C4000AC010A2E06945795479537952795BA9586
:100C5000C9F7620F731F841F951FA01D0895DC0143
:100C600012962C91129717968C9117972817D8F5F2
:100C7000ED91FC911197E20FF11D862F992787FDC9
:100C8000909516960C90169702C0880F991F0A949B
:100C9000E2F72081282B208313968C9113978F5F86
:100CA00013968C93139716962C91169714963C9145
:100CB0001497822F90E0831B910997FD04C0231B9A
:100CC00016962C93089587E016968C931697129695
:100CD0008C9112978F5F12968C931297ED91FC91E5
:100CE000E80FF11D10820895FC018781681710F04C
:100CF0008FEF08950190F081E02DE60FF11D8081C6
:100D00000895DC0190E007C0ED91FC911197E90F87
:100D1000F11D10829F5F17968C9117979817A0F37B
:100D200012961C92129713961C92139787E01696B0
:100D30008C930895FC01808191810E945B0108954C
:100D4000CF93DF93EC01842F6C831D824F8390E05F
:100D500061E070E00E94950088839983CE010E9433
:100D6000810647E0E7E0F0E061E070E00BC0CB0116
:100D700002C0880F991F2A95E2F79C018D81822B72
:100D80008D834150242F30E08C81DF01A81BB109F5
:100D9000A217B30764F3DF91CF910895FC0112A26B
:100DA000A185B2850384F485E02D208131818D9168
:100DB0009C911197918380832D933C93DB018D91BE
:100DC0009C91918380830895BF92CF92DF92EF929E
:100DD000FF920F931F93CF93DF93EC018B01B9A088
:100DE00040E021E0C22ED12C2DC0F901EE0FFF1FF3
:100DF000E00FF11FD901AE0DBF1DAC19BD09AA0F3F
:100E0000BB1FAC0FBD1F0190F081E02D53968D915B
:100E10009C915497E81BF90BF7FF03C0F095E195FF
:100E2000FF4F8D859E858E179F075CF0261737072D
:100E300011F4842F11C05F5F252F30E06217730714
:100E4000A4F64F5F4B1538F4F8016081718151E0D1
:100E5000E42EFF24F1CF8FEFDF91CF911F910F91FF
:100E6000FF90EF90DF90CF90BF9008950895089580
:100E70000895FC018381948108952F923F924F92AF
:100E80005F926F927F929F92AF92BF92CF92DF92CA
:100E9000EF92FF920F931F93DF93CF9300D000D078
:100EA000CDB7DEB79C838B83DC0113968D919C912B
:100EB0001497019709F0A3C091962C919197215016
:100EC000822F992787FD9095885E9E4F5D01A80E21
:100ED000B91E885191408C01000F111F0D5E1F4FEC
:100EE0000A0F1B1F922ECC24DD249A83898375E17F
:100EF000272E71E0372E2A0E3B1E65E2462E512C1E
:100F00004A0E5B1E7AC069807A806C0C7D1CF801E9
:100F100020813181121613060CF466C0EE24FF24E2
:100F2000E21AF30AF9E6EF16F2E4FF06ACF0AB8141
:100F3000BC811296EC911297FF27E7FDF095EE0F1A
:100F4000FF1FEA0FFB1F63897489C7010E949D245C
:100F5000683271050CF048C0EB81FC818281682FFA
:100F6000772767FD7095FB01EE0FFF1F4B815C81BA
:100F7000E40FF51F438954892427352737FF34C0F0
:100F8000CA0133E0880F991F3A95E1F7841B950B4E
:100F9000E816F9064CF1D5018C91873028F5F1015E
:100FA0004081F20130E00CC0818190E08615970508
:100FB00029F4808190E08617970721F03F5F3196F2
:100FC000341790F3341781F0AB81BC8193969C92D7
:100FD000939782E090E014969C938E931397A25E71
:100FE000BE4F3C9381E010C09A940894A108B108C8
:100FF0000894C108D1080250104097FE84CF8FEFAB
:10100000EB81FC8183A380E00F900F900F900F90F5
:10101000CF91DF911F910F91FF90EF90DF90CF90D4
:10102000BF90AF909F907F906F905F904F903F9058
:101030002F9008956F927F928F929F92AF92BF925E
:10104000CF92DF92EF92FF920F931F93CF93DF9394
:10105000EC018FEF8A8389A0AA24AA94BA2C992440
:1010600005E1602E01E0702E6C0E7D1E74C08FEFC6
:10107000A8168FEFB80689F5C92CDD24F601EE0F0E
:10108000FF1FEC0FFD1F8389948997FD26C0FE0189
:10109000EC0DFD1DE85EFE4F608170E0882777FD56
:1010A0008095982F0E9453237B018C01F30160816E
:1010B00070E0882777FD8095982F0E9453232BE7B7
:1010C00034E14EE25EE30E9407249B01AC01C801BB
:1010D000B7010E9403241816E4F1C92CDD24F6019F
:1010E000EE0FFF1FEC0FFD1F2389348937FD30C041
:1010F000F501EE0FFF1FEC0FFD1F83899489281760
:10110000390734F5FE01EC0DFD1DE85EFE4F6081F0
:1011100070E0882777FD8095982F0E9453237B01EC
:101120008C01F301608170E0882777FD8095982F0E
:101130000E9453232BE734E14EE25EE30E94072432
:101140009B01AC01C801B7010E94032418160CF0E2
:10115000650193945601981408F489CFFFEFAF16F8
:10116000FFEFBF0611F480E006C0AA8281E090E0A4
:101170009C838B8381E0DF91CF911F910F91FF9032
:10118000EF90DF90CF90BF90AF909F908F907F9027
:101190006F900895DC01A85EBE4F1D921D921D92B6
:1011A0001D921D921C92AD51B140442399F4AB5E47
:1011B000BE4F4C91A551B1400DC0FD01E60FF11D90
:1011C00085A1FD01E80FF11DE85EFE4F80818F5F74
:1011D00080836F5F641788F308952F923F924F9238
:1011E0005F926F927F928F929F92AF92BF92CF92B7
:1011F000DF92EF92FF920F931F93DF93CF9300D074
:101200000F92CDB7DEB76C0160E040E00E94CA08E3
:10121000442475E1272E71E0372E2C0C3D1CC1C0F3
:10122000242D2F5F2983522E842D90E04C01880CB1
:10123000991C8C0C9D1C43E150E0840E951E3601D8
:10124000680E791E88E191E0680E791EA4C0A52C75
:10125000BB24F501EE0FFF1FEC0DFD1D2389348922
:101260003B832A8337FF03C0309521953F4FB90157
:10127000882777FD8095982F0E945323F6012785B4
:101280003089418952890E9407247B018C01F40135
:10129000808191812A813B81281B390B3B832A83E2
:1012A00037FF05C0309521953F4F3B832A83C80106
:1012B000B70120E030E040E05FE30E9407249B019B
:1012C000AC01C801B7010E94BC220E9420234A81C0
:1012D0005B81641775070CF45DC090E008C0F601EF
:1012E000E90FF11D85A1851509F445A29F5FF10164
:1012F00080819817A0F3F3018081082F10E0F60198
:10130000EA0DFB1DE85EFE4F8081282F30E0C90109
:10131000800F911FF501EE0FFF1F892B29F5EC0DB2
:10132000FD1D83899489AC01249FC001259F900DE8
:10133000349F900D112460E070E00E949D249B0179
:10134000F40180819181AC01049FC001059F900D43
:10135000149F900D112460E070E00E949D24260FE0
:10136000371F318320830FC0EC0DFD1D83899489C5
:10137000F40120813181820F931F62E070E00E94AE
:101380009D2471836083AA0CBB1CAC0CBD1CF501B1
:10139000148A138A5394F60181A1581608F457CF82
:1013A0004980F60181A1481608F43ACF0F900F90BA
:1013B0000F90CF91DF911F910F91FF90EF90DF90F1
:1013C000CF90BF90AF909F908F907F906F905F90E5
:1013D0004F903F902F900895CF93DF93EC010E94A0
:1013E000ED08CE0160E040E00E94CA08CB5EDE4F0F
:1013F0008881C551D140883230F0CE010E941A0850
:10140000CE010E943D07DF91CF910895DC01ED915F
:10141000FC910190F081E02D099508958F929F92A3
:10142000AF92BF92CF92DF92EF92FF920F931F93F2
:10143000CF93DF936C01DC011296ED91FC91139731
:1014400081A1843008F4E2C0EB5EFE4F608170E061
:10145000882777FD8095982F0E9453232AE037ED47
:1014600043E25DE30E9407240E942523762FAA24ED
:10147000AA94BA2C8824992460E030E079C0A32F84
:10148000B0E0FE01EA0FFB1FE85EFE4FE080E716CA
:1014900008F46DC0AA0FBB1FAC0FBD1F53964D9132
:1014A0005C91549714161506A4F5F60125812F3F7B
:1014B00069F0822F992787FD9095880F991FC80F93
:1014C000D91F8B899C89841795070CF4232FD6018B
:1014D00015962C93159717962C9117972F3F89F0F7
:1014E0001296ED91FC911397822F992787FD909585
:1014F000880F991FE80FF91F8389948948175907A6
:101500000CF4232F6E0D8394A40EB51EF6012783D1
:101510002EC0D60114962C912F3F69F0822F992767
:1015200087FD9095880F991FC80FD91F8B899C89BB
:10153000481759070CF4232FF601248326812F3FE7
:1015400081F00280F381E02D822F992787FD90950D
:10155000880F991FE80FF91F8389948984179507CD
:101560000CF4232F6E199394D60116962C933F5F9B
:10157000F601C281D38189A1381708F480CF70E0C9
:10158000882777FD8095982F0E9453237B018C013B
:10159000CB5EDE4F688170E0882777FD8095982FBD
:1015A0000E9453232AE037ED43EA5CE30E940724BC
:1015B0009B01AC01C801B7010E940324181634F145
:1015C000981421F5C50163E070E00E949D24D601C6
:1015D00019967C936E93189714969C9114979F3F3D
:1015E000A9F016968C9116978F3F81F0981771F09D
:1015F00015962C9115972F3F49F017969C919F3F78
:1016000029F080E0291719F081E001C080E0DF9126
:10161000CF911F910F91FF90EF90DF90CF90BF90EF
:10162000AF909F908F9008958F929F92AF92BF92AC
:10163000CF92DF92EF92FF921F93DF93CF9300D070
:101640000F92CDB7DEB76C017B01DE011196E9E0A8
:10165000F1E083E001900D928150E1F7D601ED9128
:10166000FC91628183E0689FB0011124C7010E9450
:10167000B120E114F10499F110E05E010894A11C7D
:10168000B11C74E0872E71E0972E23C0CF01612F2B
:101690000E94740600D000D000D0EDB7FEB731969E
:1016A000ADB7BEB71296BC92AE921197938282826A
:1016B000848315820E947E038DB79EB706960FB66F
:1016C000F8949EBF0FBE8DBFC701B5010E946A216D
:1016D0001F5FD601ED91FC9182818117B8F60F90C2
:1016E0000F900F90CF91DF911F91FF90EF90DF90BF
:1016F000CF90BF90AF909F908F900895FC018FEF97
:10170000848385838683878384E182878081918136
:101710000E94810608950F931F938C01FC0111A272
:10172000148213828FEF8283878D90A10E9481069D
:10173000F80116861586148A138A168A158A108E61
:10174000178A128E118E148E138E168E158E1F917F
:101750000F910895CF93DF93EC010E948B0BCB5E2A
:10176000DE4F1882C551D14019A21CA21C821B82D7
:101770008FEF8BA38A83FE01DE01A85EBE4F80E05F
:10178000148A138A1D928F5F32968630C9F71AA287
:1017900086E990E09E878D878AE999E9A9E9BEE309
:1017A0008F87988BA98BBA8BC25EDE4F18822897E1
:1017B0001992188228961882DF91CF910895EF929E
:1017C000FF920F931F938C01FC017383628388E067
:1017D00090E00E94DE1BF82EE92E61E04EE10E94AF
:1017E000A006F801F082E182C8010E947E0B1F91E1
:1017F0000F91FF90EF900895EF92FF920F931F9338
:101800008C0180E292E0F8019183808388E090E08F
:101810000E94DE1BF82EE92E62E041E00E94A00645
:10182000F801F78EE0A21086178216821582C80191
:10183000059692878187C80107969487838712A2AD
:10184000C8010E948B0B1F910F91FF90EF9008959C
:101850000F931F938C010E94FC0B84E192E0F8012E
:10186000918380831682158210861782C80105969F
:1018700092878187C8010796948783878FEF83A318
:10188000C8010E94AA0B1F910F910895CF92DF9279
:10189000EF92FF920F931F938C010E94280C88E017
:1018A00092E0F8019183808350E2C52E51E0D52E5D
:1018B000C00ED11E40E0E42E41E0F42EC601B70177
:1018C0000E94B521095D1E4FC801B7010E94B521D4
:1018D000C60166E470E00E94B120C80164E170E0D6
:1018E0000E94B1201F910F91FF90EF90DF90CF9059
:1018F0000895AF92BF92CF92DF92EF92FF920F9333
:101900001F93CF93DF93EC01EA81FB81EA5EFE4FE8
:1019100010823896108210E000E0FF24CC24C3949B
:10192000EAC0002309F5FD01E10FF11D85A1282F73
:1019300030E08C81992787FD90952817390789F029
:101940008D81992787FD90952817390709F016C1D1
:1019500008C08F81992787FD90952817390709F0CE
:10196000C9C0A25EBE4F1C93FF20C1F5AA81BB81F6
:101970008C81482F552747FD50959D012B5E3E4F8A
:10198000FD01E10FF11D85A1682F70E06417750757
:1019900059F08D81992787FD90956817790709F08F
:1019A000F6C002C01F5FECCF912FAB5EBE4F8C9193
:1019B000A551B140181710F001E09CC0660F771FC9
:1019C0006A0F7B1FFB016489A25EBE4F1C91911BB5
:1019D00009F4E3C090FFE1C01F5FDFC0AA81BB81B3
:1019E000412F50E0FD01E40FF51F85A1682F70E045
:1019F0008C81992787FD90956817790741F08D8133
:101A0000992787FD90956817790709F0CBC0DC24EA
:101A100025C08F81992787FD90956817790709F070
:101A2000CBC0AB5EBE4F8C91A551B14090E0019709
:101A3000481759070CF0C0C0FD01E40FF51F86A13F
:101A4000282F30E02E153F0541F08F81992787FD23
:101A500090952817390709F0AFC01F5F01E0FF24F8
:101A6000F39443C06E157F0539F08F81992787FD68
:101A7000909568177907E9F4AB5EBE4F8C91A5513C
:101A8000B14090E00197481759079CF44A0F5B1F3B
:101A9000FA0186A1282F30E02E153F0551F08F81E5
:101AA000992787FD90952817390719F0A25EBE4F38
:101AB0001C91C5010E94810600E0FF2416C0A15EB2
:101AC000BE4F1C93EA81FB81DF01AB5EBE4FE15E3E
:101AD000FE4F8C919081891B8C93EA81FB81E15EA2
:101AE000FE4F6081EF51F1401FC0888199816D2DBB
:101AF0000E942F061F5FAA81BB81FD01EB5EFE4F96
:101B00008081181708F40DCF181721F5A25EBE4F7B
:101B10008C918230F8F0181B1083EA81FB81E25E21
:101B2000FE4F6081EE51F14070E06B5D7F4F6E0FB4
:101B30007F1FEB5EFE4F408150E04F5F5F4FCF0154
:101B4000805F90400E94D602EA81FB81EA5EFE4FF0
:101B500081E0808320E0E881F98193818A8598176C
:101B600008F021E0822FDF91CF911F910F91FF901C
:101B7000EF90DF90CF90BF90AF9008958E8199271E
:101B800087FD90952817390709F0E3CEEACEF901D1
:101B90008081181708F008CF05CFD62EDD1CDD2474
:101BA000DD1C1CCF8E81E82EFF24E7FCF0946E151F
:101BB0007F0509F02ECF35CFA880B980F50193813C
:101BC0008A85981708F44ECF7ACFEF92FF920F9341
:101BD0001F93DF93CF9300D000D0CDB7DEB78C0139
:101BE0000B5E1E4FD8018C910551114090E08F3E45
:101BF00091057CF0095E1E4F81E0F801808307515A
:101C00001140D801ED91FC910680F781E02DC801CB
:101C10000995F80114A20184F285E02D208131811B
:101C2000D8011B96ED91FC911C970190F081E02D5D
:101C30000B5E1E4FD8014C91055111409091380216
:101C4000D80191968C919197891710F491969C9355
:101C50000B5E1E4FD8018C91055111408823B1F0C5
:101C6000EE2480E090E0E227F327F7FF02C081E056
:101C700090E020E030E04F3E11F021E030E08223A0
:101C80009323892B41F0EE24E39405C0F80111A2BF
:101C900010923802EE2481E090E09A8389831C82BE
:101CA0001B82D8011996ED91FC911A978081918140
:101CB0009C838B83C801BE016F5F7F4F0E94E40647
:101CC000F82E87FD2EC00B5E1E4FF8018081055156
:101CD0001140F801E80FF11DF5A2823030F084A127
:101CE0008F1519F4C8010E94AA0BEF2DFF27E7FDFD
:101CF000F095EE0FFF1FE00FF11F8B819C81238970
:101D00003489820F931F62E070E00E949D24748BDF
:101D1000638BF801EB5EFE4F80818F5F8083FF2431
:101D200019C0C80160E040E00E94CA08D80191963D
:101D30008C91863069F480913802F801E80FF11D2A
:101D4000E85EFE4F8081823018F0EE24FF2404C04C
:101D5000FF24F394EE2009F50B5E1E4FF8018081FD
:101D600005511140883278F081E0D80192968C9329
:101D70009297ED91FC910680F781E02DC8010995BD
:101D8000109238026FC0EE2041F4C8010E94AA0BE5
:101D9000F80112A2109238020DC00B5E1E4FD8013E
:101DA0008C9105511140883228F083E090E0F801D1
:101DB00094838383FF2009F455C00B5E1E4FD80126
:101DC0004C910551114050913802842F90E0849637
:101DD000F801E80FF91F20E030E0DC0195971BC007
:101DE00080812F5F3F4F31978517A9F46F5F7F4F39
:101DF000461B0B5E1E4FF8014083055111406B5D81
:101E00007F4F600F711F50E04F5F5F4FC801859695
:101E10000E94D60207C0BD01621B730B8FEF6F3F9C
:101E20007807F1F620913802E22FF0E0EE0FFF1F65
:101E3000E00FF11F8B819C81948B838BD801AB5E6B
:101E4000BE4F8C91F801E80FF11D25A38F5F8C9395
:101E50002F5F20933802263029F410923802D801DF
:101E600091962C930F900F900F900F90CF91DF9140
:101E70001F910F91FF90EF9008950F931F93CF93B1
:101E8000DF938C01DC0192961C92929719960D902B
:101E9000BC91A02DEC01EB85FC85208131818D91D9
:101EA0009C911197918380832D933C93DB018D91BD
:101EB0009C9191838083C8010E94E50D8AA1DF91E6
:101EC000CF911F910F9108950F931F93CF93DF939D
:101ED0008C01EB01CB0167E070E00E94B1202097FC
:101EE00079F0CE016EE071E00E946A21F801608510
:101EF0007185CE010E94FA20CE016BE30E9457212A
:101F0000DF91CF911F910F9108950F931F93CF935E
:101F1000DF938C01EB01CB0160E270E00E94B12005
:101F2000209709F470C0CE0161E171E00E946A213E
:101F3000D8011296ED91FC91139714968C919927E4
:101F400087FD9095880F991FE80FF91F63897489A1
:101F5000CE010E94FA20CE016BE30E945721CE01F0
:101F600065E171E00E946A21D8011296ED91FC9121
:101F7000139715968C91992787FD9095880F991F37
:101F8000E80FF91F63897489CE010E94FA20CE01FF
:101F90006BE30E945721CE0169E171E00E946A2142
:101FA000D8011296ED91FC91139716968C91992772
:101FB00087FD9095880F991FE80FF91F6389748931
:101FC000CE010E94FA20CE016BE30E945721CE0180
:101FD0006DE171E00E946A21D8011296ED91FC91A9
:101FE000139717968C91992787FD9095880F991FC5
:101FF000E80FF91F63897489CE010E94FA20CE018F
:102000006BE30E945721DF91CF911F910F910895AB
:10201000CF93DF93FC01C081D181209731F0CE01B5
:102020000E949A06CE010E94DB1BDF91CF9108959A
:10203000CF92DF92EF92FF920F931F937A01690183
:1020400003EB14E0C8010E94691DC801B7010E949A
:10205000691DC801B6010E94691D1F910F91FF9073
:10206000EF90DF90CF900895BF92CF92DF92EF92E2
:10207000FF920F931F93CF93DF936C01F62EB42E34
:10208000E80183EB94E0B9010E94691DEE2417C0BA
:1020900086010F0D111D83EB94E0F80165A14AE064
:1020A00050E00E94E51CF80185A1E82688E09CE844
:1020B000E0FAE6940EF4E9268A95D1F7F394BF147A
:1020C00038F783EB94E0BE010E94691D8E2DDF91ED
:1020D000CF911F910F91FF90EF90DF90CF90BF9025
:1020E00008956F927F928F929F92AF92BF92CF92FC
:1020F000DF92EF92FF920F931F93DF93CF93CDB7B1
:10210000DEB762970FB6F894DEBF0FBECDBF7C017D
:102110008C010B5E1E4FD8018C91883208F45FC28F
:102120007E2C6F2CC7010E94EC09F70183819481FA
:102130008230910509F044C1D701A15EBE4F2EE166
:1021400031E0E20EF31EF701808122EE3EEFE20E57
:10215000F31E8E5F8C93BD01FB0140816701C40EAD
:10216000D11CF60125A130E0F7018281992787FD76
:1021700090952817390781F4F60126A130E0F70180
:1021800083A1992787FD90952817390729F4415095
:102190004C93BB24B39409C0942F9E5FFB019083A2
:1021A000F80180819817C0F2BB2425E131E0E20EEE
:1021B000F31ED7019C91EBEEFEEFEE0EFF1EF70132
:1021C000E15EFE4F8081981708F490838701025EDC
:1021D0001E4F8FE1C82E81E0D82ECE0CDF1C872D3C
:1021E000962DD8016C91F60140810E94CA08BB204F
:1021F00051F0D6018C9190E0F8012081821B910969
:10220000889744F4D8C0F701EB5EFE4F4081403F11
:1022100008F0ACC0B0E2AB2EB1E0BB2EAE0CBF1CE0
:10222000C50160E071E00E94CF21A7E2CA2EA1E0C3
:10223000DA2ECE0CDF1CC60160E071E00E94CF21D7
:10224000C50162E00E945721C50161E271E00E9470
:102250006A21C5016BE30E945721992428C0092DEA
:1022600010E0F701E00FF11FE85EFE4F8081882348
:10227000E9F0C50160E50E945721C501692D0E9462
:102280002B21C50164E271E00E946A21000F111F39
:102290000E0D1F1DD80153966D917C915497C50169
:1022A0000E94FA20C5016BE30E9457219394F70125
:1022B00081A19816A0F2C50166E271E00E946A2130
:1022C000C6016BE30E945721C60169E271E00E94DA
:1022D0006A21D70112966C91772767FD7095C60128
:1022E0000E94FA20C6016BE30E945721C6016DE2ED
:1022F00071E00E946A21F70163A1772767FD70955D
:10230000C6010E94FA20C6016BE30E94572127E113
:1023100031E0E20EF31ED7018C91E9EEFEEFEE0EF6
:10232000FF1E882349F0C60161E371E00E946A2123
:10233000C6016BE30E945721C60163E00E9457214A
:10234000C6016AE00E945721F701E25EFE4FD70105
:10235000A15EBE4FC70160814C91950186010E942C
:10236000341081E0D70192968C9321C1D8012C9131
:10237000223008F1D6018C9190E08F3E9105DCF07F
:10238000421B4083622F70E06B5D7F4F6E0D7F1D9F
:1023900050E04F5F5F4FC70185960E94D602E6E18D
:1023A000F1E0EE0EFF1E81E0D7018C93EAEEFEEF26
:1023B000EE0EFF1EFCC0872D962D0E94AA0BF7C0C3
:1023C000019709F0F2C0D8018C91883208F4EDC071
:1023D000E0E2AE2EE1E0BE2EAE0CBF1CC50160E017
:1023E00071E00E94CF2177E2C72E71E0D72ECE0C8C
:1023F000DF1CC60160E071E00E94CF21C50162E0F0
:102400000E94572168E0862E912C8C0E9D1EC401DF
:10241000B7010E94DF0BC4010E947E0B81E18A8B11
:10242000C4010E940E0A882309F4CEC0C4010E9490
:10243000790C882309F4C8C08E010F5F1F4FC801B3
:1024400060E071E00E94B521C80166E271E00E947F
:10245000CF21C401B8010E94140BC50163E371E0F0
:102460000E946A21C5016BE30E945721C401B50196
:102470000E94850FC6016BE30E945721C401B6017B
:102480000E94640FC60163E00E945721C6016AE002
:102490000E945721C701B501A80196010E9418109A
:1024A000C8010E94B52278C0092D10E0F701E00FA5
:1024B000F11FE85EFE4F80818823E1F0C50166E3ED
:1024C00071E00E946A21C501692D0E942B21C5017E
:1024D00064E271E00E946A21000F111F0E0D1F1DA2
:1024E000F80163897489C5010E94FA20C5016BE374
:1024F0000E9457219394D70191968C919816A0F23F
:10250000C50166E271E00E946A21C6016BE30E9488
:102510005721C60169E271E00E946A21F7016281D8
:10252000772767FD7095C6010E94FA20C6016BE30C
:102530000E94572127E131E0E20EF31ED7018C9172
:10254000E9EEFEEFEE0EFF1E882349F0C60161E3BF
:1025500071E00E946A21C6016BE30E945721C60107
:1025600063E00E945721C6016AE00E945721C7011B
:1025700060E025E131E0E20EF31ED7014C919501B8
:1025800086010E9434100894E11CF11CF7011082AE
:102590002AEE3EEFE20EF31E81E0D70192968C9375
:1025A000CE0108960E94081002C0F70112A226E18F
:1025B00031E0E20EF31ED7018C91882381F4872D40
:1025C000962D0E94AA0B0BC0C50168E371E00E9422
:1025D0006A21C5016BE30E94572199248CCF629632
:1025E0000FB6F894DEBF0FBECDBFCF91DF911F9124
:1025F0000F91FF90EF90DF90CF90BF90AF909F90A2
:102600008F907F906F9008951F920F920FB60F9248
:1026100011242F933F934F935F936F937F938F93E7
:102620009F93AF93BF93EF93FF93E0913C02F091A0
:102630003D020995FF91EF91BF91AF919F918F91CD
:102640007F916F915F914F913F912F910F900FBEAE
:102650000F901F90189581309105D9F46F5F7F4FCF
:1026600079F580E580933E0210923F0280913F020F
:1026700080934102809141028093400283EE92E078
:102680006DEA71E00E94B5218BEE92E00E94460C4B
:102690000895892BA9F46F5F7F4F91F488E092E051
:1026A0009093EC028093EB0282E194E00E94B522C9
:1026B0008BE094E00E94B52283EE92E00E94B52266
:1026C000089580E090E06FEF7FEF0E942B13089554
:1026D00081E090E06FEF7FEF0E942B13089583EB72
:1026E00094E06EEA71E00E94561D61E070E080E0C7
:1026F00090E00E94BC1E08950E94881E9B01AC01C0
:102700008091190490911A04A0911B04B0911C04AB
:10271000281739074A075B0748F480911D049091F8
:102720001E04019690931E0480931D0420931904A7
:1027300030931A0440931B0450931C04CA01B9013E
:1027400028EE33E040E050E00E94B024C901089533
:102750001F9311E017C083EB94E00E94EF1A682FDB
:102760008A3049F08B301CF4882329F007C08D3063
:1027700011F0833219F41093EA0204C083EE92E060
:102780000E94572183EB94E00E94BE1A892B19F70F
:102790001F9108956091E2028DE00E94931F1092B4
:1027A000E2020895AF92BF92CF92DF92EF92FF9232
:1027B0000F931F93DF93CF93CDB7DEB72E970FB64E
:1027C000F894DEBF0FBECDBF6C015B018E010F5FC1
:1027D0001F4FC80161EB71E00E94B521F6014081F5
:1027E000518183EE92E0B8010E9429207C01C8014A
:1027F0000E94B522FFEFEF16FFEFFF06F9F0F6019A
:1028000040815181FFEF4F3F5F07C1F08E01085FAC
:102810001F4FC80163EE72E097010E944B22C50171
:10282000B8010E949E22C8010E94B5220894E11CB2
:10283000F11CF601F182E08281E001C080E02E9679
:102840000FB6F894DEBF0FBECDBFCF91DF911F91C1
:102850000F91FF90EF90DF90CF90BF90AF900895D1
:102860008F929F92BF92CF92DF92EF92FF920F933F
:102870001F93CF93DF937C016B018BE061E00E949B
:10288000931FC70164E40E94652092E0B92EB80E40
:102890003AC0C7010E94F61F982F90539A3010F447
:1028A000892F01C0875398E000E010E0882E99241A
:1028B00087FC9094C92FD0E0CE01882199218C17F4
:1028C0009D0751F48BE060E00E94931FC6010E94B7
:1028D000E21E8BE061E009C08BE061E00E94931F83
:1028E000C6010E94E21E8BE060E00E94931FC601B9
:1028F0000E94E21ED595C7959C2F0F5F1F4F043095
:102900001105C1F6B3946B2D70E0F70184819581B8
:102910006817790708F4BDCFDF91CF911F910F9110
:10292000FF90EF90DF90CF90BF909F908F90089591
:102930008F929F92BF92CF92DF92EF92FF920F936E
:102940001F93DF93CF93CDB7DEB727970FB6F894D9
:10295000DEBF0FBECDBF7C014B0164E40E94652049
:1029600032E0B32EB80E6E010894C11CD11C37C0E2
:10297000C601B701A9012F5F3F4F0E944B22C6013C
:102980000E941820162FC6010E94B522012F10E0C8
:10299000000F111F080D191D60E0F8018081918161
:1029A00097FF61E08BE00E94931FF8018081918185
:1029B00097FF03C0909581959F4FFFE181349F075A
:1029C0005CF068EE73E00E949D24882777FD809577
:1029D000982F0E94BC1E02C00E94E21EB3942B2DB1
:1029E00030E0F701848195812817390708F4C0CFBA
:1029F00027960FB6F894DEBF0FBECDBFCF91DF9103
:102A00001F910F91FF90EF90DF90CF90BF909F901C
:102A10008F900895EF92FF920F931F93082FE62E49
:102A20008BE061E00E94931F10E080910202909180
:102A300003029C01029FC001039F900D129F900D05
:102A400011240E94E21E8BE060E00E94931FFF248D
:102A500080910202909103029C01E29EC001E39EDC
:102A6000900DF29E900D11240E94E21E1F910F9175
:102A7000FF90EF90089580E00E94D31D089580E0BC
:102A80006CE978E141E050E00E94B01D089583EECA
:102A900092E061E070E00E94F61F813511F40E941F
:102AA0003B1583EE92E061E070E00E94F61F8534F2
:102AB00011F40E943F1508952F923F924F925F921A
:102AC0006F927F928F929F92AF92BF92CF92DF923E
:102AD000EF92FF920F931F93DF93CF93CDB7DEB7A3
:102AE000E3970FB6F894DEBF0FBECDBFF3E0EF2E35
:102AF000F12CEC0EFD1EC7016DEA71E00E94B521BC
:102B0000C7016EE170E00E94B1201A8219828E0125
:102B10000A5D1F4F8CE0F80111928A95E9F70E9437
:102B20003B15442443945524EFE16E2E712C6C0E1A
:102B30007D1E0AAB1BAB78E1872E912C8C0E9D1E5F
:102B40006AE0A62EB12CAC0EBD1E51E1C52ED12CD3
:102B5000CC0EDD1E9BC0C70160E070E00E94F61F36
:102B60008335E1F4C70161E070E00E94F61F833411
:102B700011F400E08BC0C70161E070E00E94F61F15
:102B80008D3411F401E082C0C70161E070E00E9461
:102B9000F61F823509F07AC002E078C0C70160E014
:102BA00070E00E94F61F803509F0A3C0C70162E003
:102BB00070E00E94F61F8D3309F09BC0C501B7017C
:102BC00041E050E022E030E00E944B22C5010E942B
:102BD0001820162FC5010E94B522C601B70143E097
:102BE00050E00E949222C6010E941820E12FF0E0DE
:102BF000EE0FFF1F21E030E02C0F3D1FE20FF31F0F
:102C000076A365A3C60140C0C70161E070E00E94E1
:102C1000F61F8D3309F075C0C401B70142E050E0E2
:102C20000E949222C4010E941820462EC4012CC08A
:102C3000023031F4C7016AA97BA90E94981406C02A
:102C4000013021F4C701B1010E9430148BE060E033
:102C50000E94931F1BC0C70160E070E00E94F61F36
:102C60008334A1F4C70161E070E00E94F61F8D3348
:102C700069F4C301B70142E050E00E949222C3010F
:102C80000E9418201B01C3010E94B522CE010196AB
:102C9000B7010E94D213882309F05DCF83E090E052
:102CA0009A8389835394541488F30E943F1583EBCD
:102CB00094E063EE72E00E949C1DC7010E94B52261
:102CC000E3960FB6F894DEBF0FBECDBFCF91DF9174
:102CD0001F910F91FF90EF90DF90CF90BF90AF903A
:102CE0009F908F907F906F905F904F903F902F902C
:102CF0000895C70160E070E00E94F61F823509F474
:102D000083CFC70160E070E00E94F61F843409F4AD
:102D10008FCFA1CFEF92FF920F931F93CF93DF93AB
:102D20007C010E943B1500E010E024C081E06FE1CF
:102D30000E940A15E70119C0813371F0863449F009
:102D4000803391F481E063E00E940A1581E063E042
:102D500009C081E063E002C083E061E00E940A15DF
:102D600083E061E00E940A1521968881882321F77B
:102D70000F5F1F4F8091010290E008171907B4F20E
:102D80000E943F15DF91CF911F910F91FF90EF901F
:102D90000895EF92FF920F931F93DF93CF93CDB7D8
:102DA000DEB7EA970FB6F894DEBF0FBECDBF83EE55
:102DB00092E061E070E00E94F61F843731F183EE0B
:102DC00092E061E070E00E94F61F823729F58E01E3
:102DD0000C5F1F4FC80163EE72E042E050E00E94BA
:102DE0009222C8017E010894E11CF11CB70143E066
:102DF00050E020E030E00E946A20C8010E94B52225
:102E0000C7010E9488028093010283EB94E063EE85
:102E100072E00E949C1D97C083EE92E061E070E03A
:102E20000E94F61F833731F58DE061E00E94931F09
:102E30008E01055F1F4FC80163EE72E042E050E073
:102E40000E949222BEE2EB2EF12CEC0EFD1EC80178
:102E5000B7014DE050E020E030E00E946A20C80158
:102E60000E94B522C7010E948A168DE060E00E9490
:102E7000931FCBCF83EE92E061E070E00E94F61FDB
:102E80008336A9F48E010E5E1F4FC80163EE72E017
:102E900042E050E00E949222C8010E9418207093E4
:102EA000030260930202C8010E94B522AECF83EEF6
:102EB00092E061E070E00E94F61F803709F043C0A5
:102EC000A9E1EA2EF12CEC0EFD1EC7016DEA71E0BE
:102ED0000E94B521C70164E170E00E94B120C701E2
:102EE00063EB71E00E94CF218E01005E1F4FC8018D
:102EF000609101024AE00E941922C701B8010E94B4
:102F00007A21C8010E94B522C7016EEB71E00E94D0
:102F10006A218E01095D1F4F6091020270910302C8
:102F2000C8014AE00E94E821C701B8010E947A2145
:102F3000C8010E94B52283EB94E0B7010E949C1D5A
:102F4000C7010E94B522EA960FB6F894DEBF0FBE05
:102F5000CDBFCF91DF911F910F91FF90EF9008951A
:102F6000DF93CF9300D0CDB7DEB783EE92E060E081
:102F700070E00E94F61F803519F40E946F13D7C0CD
:102F800083EE92E060E070E00E94F61F8F3309F05C
:102F900060C083EB94E06FE30E942E1C83EB94E00F
:102FA00068E670E00E940B1C83EB94E066E50E94EB
:102FB0002E1C83EB94E060E20E942E1C83EB94E0D5
:102FC00069E60E942E1C83EB94E060E20E942E1CB6
:102FD00083EB94E062E50E942E1C83EB94E060E2B8
:102FE0000E942E1C83EB94E064E70E942E1C83EB6E
:102FF00094E060E20E942E1C83EB94E068E50E945E
:103000002E1C83EB94E060E20E942E1C83EB94E084
:1030100066E40E942E1C83EB94E060E20E942E1C6A
:1030200083EB94E063E50E942E1C83EB94E060E266
:103030000E942E1C83EB94E060E50E942E1C83EB23
:1030400094E060E20E942E1C83EB94E06DEA71E054
:103050000CC083EE92E060E070E00E94F61F8635BF
:1030600039F483EB94E060EC71E00E94561D5FC080
:1030700083EE92E060E070E00E94F61F823571F40A
:103080008091E2049091E304009711F486EE94E0BD
:10309000BE016F5F7F4F681B790B31C083EE92E0FA
:1030A00060E070E00E94F61F893649F48BEE92E0F2
:1030B0000E943907892B89F40E94C91638C083EE13
:1030C00092E060E070E00E94F61F833569F48BEEB9
:1030D00092E00E943907892B21F081E08093EA0277
:1030E00026C00E945C1523C083EE92E060E070E091
:1030F0000E94F61F843751F40E947C13BC0183EBBD
:1031000094E04AE050E00E94371D11C083EE92E047
:1031100060E070E00E94F61F883519F40E944715A0
:1031200006C083EE92E060E070E00E94F61F0F9010
:103130000F90CF91DF910895AF92BF92CF92DF921F
:10314000EF92FF920F931F9380911F048823A1F4A5
:103150008FE194E00E94CD1B892B71F00E94961E96
:1031600060932704709328048093290490932A0481
:103170008FE194E00E94D71B0E94961E7B018C0178
:1031800082E00E94C61FAC01809127049091280420
:10319000A0912904B0912A0457016801A81AB90A1C
:1031A000CA0ADB0AD601C501E0922704F09228047E
:1031B0000093290410932A048A359105A105B105CD
:1031C00094F181302DE7920720E0A20720E0B207BA
:1031D0001CF021E03DE701C09501452B19F0309529
:1031E00021953F4F80913F028035E8F480913F0266
:1031F0008F5F80933F028091400260913E0290E099
:1032000070E00E94892480934002E0914002F0E047
:10321000EE0FFF1FEE5BFD4F318320838091400254
:103220008F5F809340021F910F91FF90EF90DF908E
:10323000CF90BF90AF900895FF920F931F93DF93AD
:10324000CF9300D0CDB7DEB78091EA028823D1F1C9
:103250001092EA020E94B0178091EA02882331F4AA
:1032600083EE92E06DEA71E00E94CF2181E08093CD
:10327000E20228C080913F02815080933F028091FA
:10328000410260913E0290E070E00E9489248093A8
:10329000410280914102E82FF0E0EE0FFF1FEE5B4C
:1032A000FD4F208131818F5F809341023A832983D2
:1032B0008BEE92E0B8010E94060A882341F0F0925A
:1032C000E20205C08E010F5F1F4FFF24F39480912F
:1032D0003F02882379F60F900F90CF91DF911F91D5
:1032E0000F91FF90089583EB94E040E051EE60E091
:1032F00070E00E94371A82E060E00E94271F8BE096
:1033000061E00E94271F8DE061E00E94271FE1E835
:10331000F0E080E180831092800082E080933B02A5
:1033200088EA91E690933A0280933902909387005D
:103330008093860082E180838AEC93E190933D0242
:1033400080933C0281E080936F000E943F1583EEE2
:1033500092E064E170E00E94B12008951F920F9204
:103360000FB60F9211242F933F934F938F939F93F8
:10337000EF93FF938091C00082FD1DC04091C60075
:1033800020916B0430916C042F5F3F4F2F7330708E
:1033900080916D0490916E042817390771F0E091C7
:1033A0006B04F0916C04E55DFB4F408330936C043B
:1033B00020936B0402C08091C600FF91EF919F9112
:1033C0008F914F913F912F910F900FBE0F901F90B3
:1033D0001895E091BF04F091C004E05CFF4F81912B
:1033E000919120813181821B930B8F739070892B77
:1033F00011F00E94A81308951F920F920FB60F921A
:1034000011242F933F938F939F93EF93FF932091DA
:10341000AF043091B0048091B1049091B2042817A8
:10342000390731F48091C1008F7D8093C10014C0B1
:10343000E091B104F091B204E159FB4F20818091F9
:10344000B1049091B20401968F7390709093B2047E
:103450008093B1042093C600FF91EF919F918F91CB
:103460003F912F910F900FBE0F901F901895AF9224
:10347000BF92DF92EF92FF920F931F93CF93DF9350
:10348000EC017A018B01DD24403081EE580780E0A9
:10349000680780E0780711F0DD24D39491E0A92E2D
:1034A000B12CEC89FD89DD2069F0C50108A002C0BE
:1034B000880F991F0A94E2F7808360E079E08DE33A
:1034C00090E005C0108260E874E88EE190E0A80109
:1034D00097010E94B0242150304040405040569502
:1034E00047953795279580E12030380720F0DD207B
:1034F00011F0DD24D6CFE889F9893083EA89FB8988
:10350000208319A2EE89FF89408121E030E0C901C2
:103510000C8C02C0880F991F0A94E2F7482B408355
:10352000EE89FF894081C9010D8C02C0880F991F67
:103530000A94E2F7482B4083EE89FF894081C90154
:103540000E8C02C0880F991F0A94E2F7482B408323
:10355000EE89FF8980810F8C02C0220F331F0A94ED
:10356000E2F7209528232083DF91CF911F910F91BF
:10357000FF90EF90DF90BF90AF900895DC011C9614
:10358000ED91FC911D97E05CFF4F2191319180817D
:103590009181281B390B2F733070C9010895DC010C
:1035A0001C96ED91FC911D97E05CFF4F20813181CD
:1035B000E054F040DF01AE5BBF4F8D919C911197BD
:1035C0002817390719F42FEF3FEF07C08D919C9111
:1035D000E80FF91F8081282F30E0C9010895DC0130
:1035E0001C96ED91FC911D97E05CFF4F208131818D
:1035F000E054F040DF01AE5BBF4F8D919C9111977D
:103600002817390719F42FEF3FEF10C08D919C91C7
:103610001197E80FF91F20818D919C9111970196C8
:103620008F73907011969C938E9330E0C90108952A
:10363000DC0191968C919197882339F05496ED9105
:10364000FC915597808186FFF9CF91961C92089541
:10365000CF93DF93EC01EE85FF85E05CFF4F208187
:103660003181E054F0402F5F3F4F2F733070DF0106
:10367000AE5BBF4F8D919C91119728173907D1F3FD
:10368000E05CFF4F80819181E054F040E80FF91F2A
:103690006083EE85FF85E05CFF4F31832083EE89F8
:1036A000FF89208181E090E00F8C02C0880F991F74
:1036B0000A94E2F7282B208381E089A3EC89FD8915
:1036C00080818064808381E090E0DF91CF910895D4
:1036D0001092B6041092B50488EE93E0A0E0B0E03A
:1036E0008093B7049093B804A093B904B093BA043C
:1036F0008CE292E09093B4048093B3048BE294E064
:103700009093C0048093BF048FE694E09093C2042A
:103710008093C10485EC90E09093C4048093C3042B
:1037200084EC90E09093C6048093C50480EC90E014
:103730009093C8048093C70481EC90E09093CA04EE
:103740008093C90482EC90E09093CC048093CB04E6
:1037500086EC90E09093CE048093CD0484E0809337
:10376000CF0483E08093D00487E08093D10485E088
:103770008093D20481E08093D3040895CF93DF93A4
:103780000E94EC1E0E947319C9EED9E10E941C1917
:103790002097E1F30E94E919F9CFFC0120E030E025
:1037A0008081882311F421E030E0C9010895FC01F3
:1037B00081E0808308950E945B0108950E94B1001A
:1037C0000895CF92DF92EF92FF920F931F93CF93C2
:1037D000DF937C016B018A01C0E0D0E00FC0D6010D
:1037E0006D916D01D701ED91FC910190F081E02D7B
:1037F000C7010995C80FD91F0150104001151105C7
:1038000071F7CE01DF91CF911F910F91FF90EF9053
:10381000DF90CF900895EF92FF920F931F93CF9375
:10382000DF937C018B01C0E0D0E0F8010F5F1F4FF8
:103830006491662359F0D701ED91FC910190F081DC
:10384000E02DC7010995C80FD91FEFCFCE01DF9139
:10385000CF911F910F91FF90EF900895DC01ED91B2
:10386000FC910190F081E02D09950895EF92FF926F
:103870000F931F938C01DC01ED91FC910190F0817D
:10388000E02D6DE009957C01D801ED91FC9101904E
:10389000F081E02DC8016AE009959C012E0D3F1DC5
:1038A000C9011F910F91FF90EF900895CF93DF937F
:1038B000EC016115710519F420E030E00FC0DB0167
:1038C0000D900020E9F71197A61BB70BE881F9814D
:1038D0000280F381E02DAD0109959C01C901DF91C2
:1038E000CF9108954F925F927F928F929F92AF9265
:1038F000BF92CF92DF92EF92FF920F931F93DF93CD
:10390000CF93CDB7DEB7A1970FB6F894DEBF0FBE49
:10391000CDBF2C01742ECB01223008F42AE019A26D
:1039200031E2C32ED12CCC0EDD1E822E9924AA2486
:10393000BB24672D752FA50194010E94B024790145
:103940008A01C801B701A50194010E946A24472D8C
:10395000461B0894C108D1084A3014F4405D01C0E8
:10396000495CF6014083E114F1040105110521F0E1
:103970007E2C5F2DC801DDCFC201B6010E94561C0E
:10398000A1960FB6F894DEBF0FBECDBFCF91DF91E9
:103990001F910F91FF90EF90DF90CF90BF90AF906D
:1039A0009F908F907F905F904F900895DC0121153C
:1039B000310541F4ED91FC910190F081E02D642FEF
:1039C000099508950E94721C0895EF92FF920F933B
:1039D0001F939A01E62EFF2400E010E0B801A70132
:1039E0000E94D61C1F910F91FF90EF900895CF92E7
:1039F000DF92EF92FF920F931F93CF93DF93EC012F
:103A00006A017B012115310541F4E881F9810190BA
:103A1000F081E02D642F09951FC02A303105D1F4C3
:103A200077FF17C0E881F9810190F081E02D6DE208
:103A300009958C0144275527BA014C195D096E0977
:103A40007F09CE012AE00E94721C9801280F391FBD
:103A500004C02AE00E94721C9C01C901DF91CF9131
:103A60001F910F91FF90EF90DF90CF900895CF922C
:103A7000DF92EF92FF920F931F936C017B019A01EB
:103A80000027F7FC0095102FB801A7010E94F71C32
:103A90008C01C6010E94361C080F191FC8011F9116
:103AA0000F91FF90EF90DF90CF900895EF92FF92EB
:103AB0000F931F937C010E94561C8C01C7010E942A
:103AC000361C080F191FC8011F910F91FF90EF902E
:103AD0000895AF92BF92CF92DF92EF92FF920F9331
:103AE0001F93CF93DF935C016B01EE24FF24C0E0B2
:103AF000D0E010C0D501ED91FC9100811181C6018B
:103B0000BE010E940720682FC501F8010995E80E43
:103B1000F91E2196F60184819581C817D90750F3C3
:103B2000C701DF91CF911F910F91FF90EF90DF9030
:103B3000CF90BF90AF900895EF92FF920F931F9395
:103B40007C010E94691D8C01C7010E94361C9C01EA
:103B5000200F311FC9011F910F91FF90EF90089521
:103B6000823000F5E82FF0E0EE0FFF1FEB52FB4F25
:103B700071836083882319F08130A1F408C080919B
:103B800069008C7F842B80936900E89A0895809166
:103B90006900440F551F440F551F837F842B80936A
:103BA0006900E99A0895823080F4882319F0813001
:103BB00021F402C0E89801C0E998E82FF0E0EE0F88
:103BC000FF1FEB52FB4F1182108208951F920F923C
:103BD0000FB60F9211242F933F934F935F936F93E0
:103BE0007F938F939F93AF93BF93EF93FF938091B6
:103BF000D5049091D604892B29F0E091D504F09159
:103C0000D6040995FF91EF91BF91AF919F918F914C
:103C10007F916F915F914F913F912F910F900FBEC8
:103C20000F901F9018951F920F920FB60F921124AC
:103C30002F933F934F935F936F937F938F939F93B4
:103C4000AF93BF93EF93FF938091D7049091D804E3
:103C5000892B29F0E091D704F091D8040995FF91C0
:103C6000EF91BF91AF919F918F917F916F915F91F4
:103C70004F913F912F910F900FBE0F901F9018956D
:103C80001F920F920FB60F9211242F933F938F9391
:103C90009F93AF93BF938091DD049091DE04A09138
:103CA000DF04B091E0043091E1040196A11DB11D43
:103CB000232F2D5F2D3720F02D570196A11DB11D0B
:103CC0002093E1048093DD049093DE04A093DF044D
:103CD000B093E0048091D9049091DA04A091DB04C0
:103CE000B091DC040196A11DB11D8093D90490937D
:103CF000DA04A093DB04B093DC04BF91AF919F91F1
:103D00008F913F912F910F900FBE0F901F9018959C
:103D10008FB7F8942091DD043091DE044091DF04E8
:103D20005091E0048FBFB901CA0108959FB7F8947C
:103D30002091D9043091DA044091DB045091DC04E5
:103D400086B5A89B06C08F3F21F02F5F3F4F4F4F96
:103D50005F4F9FBF542F432F322F2227280F311D33
:103D6000411D511D82E0220F331F441F551F8A95AC
:103D7000D1F7B901CA010895EF92FF920F931F93F3
:103D8000CF93DF937B018C010E94961EEB010EC046
:103D90000E94961E6C1B7D0B685E7340C8F30894EE
:103DA000E108F10801091109C851DC4FE114F104DF
:103DB0000105110569F7DF91CF911F910F91FF90D8
:103DC000EF900895019739F0880F991F880F991F78
:103DD00002970197F1F70895789484B5826084BDC5
:103DE00084B5816084BD85B5826085BD85B58160FF
:103DF00085BDEEE6F0E0808181608083E1E8F0E05F
:103E00001082808182608083808181608083E0E88D
:103E1000F0E0808181608083E1EBF0E0808184606C
:103E20008083E0EBF0E0808181608083EAE7F0E06E
:103E300080818460808380818260808380818160D2
:103E400080838081806880831092C1000895CF9321
:103E5000DF93482F50E0CA0189559F4FFC013491F0
:103E60004D565F4FFA018491882369F190E0880FE5
:103E7000991FFC01EB58FF4FA591B491FC01E1584B
:103E8000FF4FC591D491662351F42FB7F8948C91CC
:103E9000932F909589238C93888189230BC062305E
:103EA00061F42FB7F8948C91932F909589238C937C
:103EB0008881832B88832FBF06C09FB7F8948C918D
:103EC000832B8C939FBFDF91CF910895833071F046
:103ED000843028F48130A1F0823021F514C086307E
:103EE000B1F08730D1F08430E9F404C080918000D3
:103EF0008F7703C0809180008F7D8093800008952C
:103F000084B58F7702C084B58F7D84BD089580917C
:103F1000B0008F778093B00008958091B0008F7DBE
:103F20008093B0000895FF920F931F93F62E482FB1
:103F300050E0CA0185549F4FFC012491CA01895564
:103F40009F4FFC0114914D565F4FFA0104910023DD
:103F5000C9F0222319F0822F0E94661FE02FF0E0A3
:103F6000EE0FFF1FE158FF4FA591B4919FB7F89452
:103F7000FF2021F48C911095812302C08C91812B1C
:103F80008C939FBF1F910F91FF9008950F931F93E4
:103F9000482F50E0CA0185549F4FFC012491CA016B
:103FA00089559F4FFC0104914D565F4FFA011491C2
:103FB000112319F420E030E015C0222319F0822FDC
:103FC0000E94661F812F90E0880F991F87579F4F8F
:103FD000FC01A591B4918C9120E030E0802311F098
:103FE00021E030E0C9011F910F910895FC01848107
:103FF00095816817790748F40190F081E02D30979A
:1040000021F0E60FF71F8081089580E00895FC01FC
:10401000848195816817790748F40190F081E02D3B
:10402000309721F0E60FF71F8081089580E0089512
:10403000FC0180819181009729F420E030E040E08C
:1040400050E004C00E94A6029B01AC01B901CA0164
:104050000895CF93DF93FC01DB018481958148179C
:10406000590760F4C081D1816D917C91CE01840F9C
:10407000951F0E9410039C01009719F42FEF3FEF4A
:1040800002C02C1B3D0BC901DF91CF910895CF9346
:10409000DF93FC01848195814817590768F4C0813A
:1040A000D181772767FD7095CE01840F951F0E94FF
:1040B000EF029C01009719F42FEF3FEF02C02C1B79
:1040C0003D0BC901DF91CF91089540E050E00E947F
:1040D000472008950F931F93CF93DF93FC018B012B
:1040E00041155105F9F061157105E1F08481958163
:1040F0002817390718F0FB01108214C041505040B6
:10410000EC01C21BD30B4C175D0708F4EA01608178
:104110007181620F731FC801AE010E940103C00FBD
:10412000D11F1882DF91CF911F910F9108950F93A6
:104130001F93CF93DF93EC018B016F5F7F4F8881DB
:1041400099810E94B301009711F480E005C0998322
:1041500088831B830A8381E0DF91CF911F910F91A8
:104160000895CF93DF93EC0188819981892B29F001
:104170008A819B818617970760F4CE010E94972061
:10418000882341F08C819D81892B19F4E881F98184
:10419000108281E0DF91CF910895EF92FF920F930B
:1041A0001F93CF93DF93EC017B016C817D81E11440
:1041B000F104C1F04115510599F08A01060F171F4E
:1041C000B8010E94B120882369F0888199812C81EF
:1041D0003D81820F931FB7010E94FA021D830C8359
:1041E00081E001C080E0DF91CF911F910F91FF909E
:1041F000EF900895EF92FF920F931F93DF93CF9369
:10420000CDB7DEB727970FB6F894DEBF0FBECDBF90
:104210007C01CB018E010F5F1F4FB8014AE050E0D7
:104220000E942A03F80101900020E9F73197E01B72
:10423000F10BC701B801AF010E94CD2027960FB640
:10424000F894DEBF0FBECDBFCF91DF911F910F91CC
:10425000FF90EF900895EF92FF920F931F93DF93DB
:10426000CF9300D000D0CDB7DEB77C01862F90E091
:104270008E010F5F1F4FB8014AE050E00E942A03F1
:10428000F80101900020E9F73197E01BF10BC7011D
:10429000B801AF010E94CD200F900F900F900F90AA
:1042A000CF91DF911F910F91FF90EF900895DF93D1
:1042B000CF9300D0CDB7DEB769831A82BE016F5F9E
:1042C0007F4F41E050E00E94CD200F900F90CF91A2
:1042D000DF9108956115710511F480E00895DB0107
:1042E0000D900020E9F71197A61BB70BAD010E94B6
:1042F000CD200895FB0160817181448155810E9428
:10430000CD200895CF93DF93EC01888199810097A8
:1043100011F00E945B01198218821D821C821B828F
:104320001A82DF91CF910895EF92FF920F931F931E
:10433000CF93DF93EC017B018A01BA010E94B12087
:10434000882321F4CE010E94822107C01D830C83A3
:1043500088819981B7010E94FA02CE01DF91CF9145
:104360001F910F91FF90EF900895CF93DF93EC0191
:10437000198218821B821A821D821C821E8261157C
:10438000710551F0DB010D900020E9F71197A61B94
:10439000B70BAD010E949421DF91CF9108950F9347
:1043A0001F93182F092F6115710559F0DB010D902E
:1043B0000020E9F71197A61BB70BAD010E949421CD
:1043C00002C00E948221812F902F1F910F9108958A
:1043D000EF92FF920F931F93DF93CF93CDB7DEB78A
:1043E00062970FB6F894DEBF0FBECDBF8C01CB0134
:1043F000F8011182108213821282158214821682B1
:104400007E010894E11CF11CB70150E00E942A03D0
:10441000C801B7010E94CF2162960FB6F894DEBFA3
:104420000FBECDBFCF91DF911F910F91FF90EF9005
:104430000895EF92FF920F931F93DF93CF93CDB721
:10444000DEB729970FB6F894DEBF0FBECDBF8C0143
:10445000862FF80111821082138212821582148233
:10446000168290E07E010894E11CF11CB70150E037
:104470000E946803C801B7010E94CF2129960FB698
:10448000F894DEBF0FBECDBFCF91DF911F910F918A
:10449000FF90EF900895BF92CF92DF92EF92FF923C
:1044A0000F931F93CF93DF93082FB92E6B017A01DF
:1044B000E9012417350710F4EA017901802F9B2DBB
:1044C0006AEF71E00E94B521D60114968D919C91FE
:1044D00015978E159F05D0F08C179D0708F4EC01F9
:1044E000D601ED91FC911197EC0FFD1F1081108208
:1044F0006D917C916E0D7F1D802F9B2D0E94CF2191
:10450000D601ED91FC91EC0FFD1F1083802F9B2DA8
:10451000DF91CF911F910F91FF90EF90DF90CF909F
:10452000BF9008950F931F938C01FB012481358167
:104530000E944B22C8011F910F910895CF93DF93E2
:10454000EC01FB018617970761F0608171816115AD
:10455000710529F0448155810E94942102C00E9476
:104560008221CE01DF91CF910895FC01808191815C
:104570000E945B0108955058BB27AA270ED009C19D
:10458000FAD030F0FFD020F031F49F3F11F41EF448
:10459000EFC00EF4E095E7FBE5C0E92F0BD180F307
:1045A000BA17620773078407950718F071F49EF530
:1045B00023C10EF4E0950B2EBA2FA02D0B01B901EB
:1045C00090010C01CA01A0011124FF27591B99F089
:1045D000593F50F4503E68F11A16F040A22F232F95
:1045E000342F4427585FF3CF469537952795A795E5
:1045F000F0405395C9F77EF41F16BA0B620B730B8C
:10460000840BBAF09150A1F0FF0FBB1F661F771FFC
:10461000881FC2F70EC0BA0F621F731F841F48F4B1
:10462000879577956795B795F7959E3F08F0B3CF37
:104630009395880F08F09927EE0F97958795089521
:1046400004D06894B111D9C00895BCD088F09F57A8
:1046500090F0B92F9927B751A0F0D1F0660F771FCE
:10466000881F991F1AF0BA95C9F712C0B13081F0AE
:10467000C3D0B1E00895C0C0672F782F8827B85FF6
:1046800039F0B93FCCF3869577956795B395D9F70F
:104690003EF490958095709561957F4F8F4F9F4F19
:1046A0000895E89409C097FB3EF490958095709525
:1046B00061957F4F8F4F9F4F9923A9F0F92F96E96E
:1046C000BB279395F695879577956795B795F111E3
:1046D000F8CFFAF4BB0F11F460FF1BC06F5F7F4F80
:1046E0008F4F9F4F16C0882311F096E911C0772392
:1046F00021F09EE8872F762F05C0662371F096E89B
:10470000862F70E060E02AF09A95660F771F881F69
:10471000DAF7880F9695879597F90895990F00080D
:10472000550FAA0BE0E8FEEF16161706E807F90783
:10473000C0F012161306E407F50798F0621B730B1E
:10474000840B950B39F40A2661F0232B242B252B9F
:1047500021F408950A2609F4A140A6958FEF811D42
:10476000811D089597F99F6780E870E060E00895E3
:104770009FEF80EC089500240A9416161706180679
:104780000906089500240A94121613061406050655
:104790000895092E0394000C11F4882352F0BB0FE6
:1047A00040F4BF2B11F460FF04C06F5F7F4F8F4F49
:1047B0009F4F089557FD9058440F551F59F05F3F84
:1047C00071F04795880F97FB991F61F09F3F79F033
:1047D00087950895121613061406551FF2CF4695B5
:1047E000F1DF08C0161617061806991FF1CF869537
:1047F0007105610508940895E894BB27662777271B
:10480000CB0197F908958ADF08F48FEF08950BD054
:10481000C0CFB1DF28F0B6DF18F0952309F0A2CFA2
:10482000A7CF1124EACFC6DFA0F3959FD1F3950F50
:1048300050E0551F629FF001729FBB27F00DB11D24
:10484000639FAA27F00DB11DAA1F649F6627B00DB4
:10485000A11D661F829F2227B00DA11D621F739F9D
:10486000B00DA11D621F839FA00D611D221F749FAB
:104870003327A00D611D231F849F600D211D822FF2
:10488000762F6A2F11249F5750408AF0E1F0882339
:104890004AF0EE0FFF1FBB1F661F771F881F915046
:1048A0005040A9F79E3F510570F05CCFA6CF5F3F07
:1048B000ECF3983EDCF3869577956795B795F79579
:1048C000E7959F5FC1F7FE2B880F911D9695879501
:1048D00097F90895629FD001739FF001829FE00DC8
:1048E000F11D649FE00DF11D929FF00D839FF00D6F
:1048F000749FF00D659FF00D9927729FB00DE11D1B
:10490000F91F639FB00DE11DF91FBD01CF011124F7
:104910000895AA1BBB1B51E107C0AA1FBB1FA61706
:10492000B70710F0A61BB70B881F991F5A95A9F758
:1049300080959095BC01CD01089597FB092E07261F
:104940000AD077FD04D0E5DF06D000201AF4709578
:1049500061957F4F0895F6F7909581959F4F089543
:10496000A1E21A2EAA1BBB1BFD010DC0AA1FBB1F73
:10497000EE1FFF1FA217B307E407F50720F0A21BE5
:10498000B30BE40BF50B661F771F881F991F1A9452
:1049900069F760957095809590959B01AC01BD017C
:1049A000CF010895EE0FFF1F0590F491E02D0994BB
:1049B0002F923F924F925F926F927F928F929F922F
:1049C000AF92BF92CF92DF92EF92FF920F931F931D
:1049D000CF93DF93CDB7DEB7CA1BDB0B0FB6F894CE
:1049E000DEBF0FBECDBF09942A88398848885F840E
:1049F0006E847D848C849B84AA84B984C884DF807F
:104A0000EE80FD800C811B81AA81B981CE0FD11D62
:104A10000FB6F894DEBF0FBECDBFED01089510E0D4
:104A2000C4EDD0E004C0FE010E94D4242296C63D0D
:084A3000D107C9F7F894FFCF8C
:104A38000041530025303258003030003000433DEB
:104A4800004C4C3D004C483D00534C3D0053483D04
:104A5800004D53003D00443D0043503D0053503D40
:104A6800004F004D430050004D550053796E633A96
:104A78002000202D3E2053796E63466163743A20EE
:104A8800002C20436C6F636B3A20002C20546F6C11
:104A98003A20002C20506174744C656E3A20002036
:104AA800002C2050756C73653A20002C20002C20B7
:104AB8006D53746172743A20005369676E616C3A81
:104AC80020002E2000205B005D0050617474657228
:104AD8006E3A20002050003A20002A5B00004F4B1D
:104AE800003B004954506172616D733A2000200008
:104AF8005620332E322E302D6237205349474E41EF
:104B08004C6475696E6F202D20636F6D70696C65DC
:104B1800642061742044656320313220323031359D
:104B28002030303A30393A353900002000E60400A8
:104B380000062C01000000003D0F360737077110F2
:104B4800000000003D0F36073707EC0900000000A1
:104B5800CE0636073707380700000000281BE11B80
:084B6800BE1AEF1ACF1A181B48
:00000001FF
