:100000000C946B000C94071F0C94341F0C949300F9
:100010000C9493000C9493000C9493000C94930014
:100020000C9493000C9493000C9493000C94930004
:100030000C9493000C94B9130C9493000C949300BB
:100040000C94611F0C9493000C94B91A0C94071B28
:100050000C9493000C9493000C9493000C949300D4
:100060000C9493000C94930020557365206F6E657B
:10007000206F66200000000000240027002A0000F6
:10008000000000250028002B0000000000230026AF
:10009000002900040404040404040402020202020D
:1000A000020303030303030102040810204080013C
:1000B00002040810200102040810200000000700BC
:1000C0000201000003040600000000000000000020
:1000D0001E14731C171411241FBECFEFD8E0DEBF0F
:1000E000CDBF12E0A0E0B1E0EAE7FCE402C0059079
:1000F0000D92A235B107D9F715E0A2E5B2E001C033
:100100001D92A335B107E1F710E0C4EDD0E004C0C3
:100110002297FE010E94F525C03DD107C9F70E9434
:10012000C91C0C9430260C9400000F931F93CF939E
:10013000DF93689F8001699F100D789F100D112437
:10014000C8010E94B100EC01009729F060E070E066
:10015000A8010E94ED02CE01DF91CF911F910F9176
:100160000895CF93DF93BC018230910510F462E0D3
:1001700070E0A0915105B0915205ED01E0E0F0E092
:1001800040E050E021C0888199818617970769F483
:100190008A819B81309719F09383828304C0909366
:1001A000520580935105FE0134C06817790738F471
:1001B0004115510519F08417950708F4AC01FE01AB
:1001C0008A819B819C01E9012097E9F6411551053F
:1001D000A9F1CA01861B970B049708F4BA01E0E065
:1001E000F0E02AC08D919C91119784179507F9F43E
:1001F0006417750781F412968D919C91139730972F
:1002000019F09383828304C0909352058093510523
:10021000FD0132964CC0CA01861B970BFD01E80F09
:10022000F91F6193719302978D939C9340C0FD01D8
:10023000828193819C01D9011097A1F680914F058D
:1002400090915005892B41F480910E0290910F02FC
:100250009093500580934F054091100250911102E8
:100260004115510541F44DB75EB780910C02909154
:100270000D02481B590B20914F0530915005CA01C2
:10028000821B930B8617970780F0AB014E5F5F4F81
:100290008417950750F0420F531F50935005409319
:1002A0004F05F9016193719302C0E0E0F0E0CF01E6
:1002B000DF91CF910895CF93DF93009709F450C059
:1002C000EC0122971B821A82A0915105B091520530
:1002D000109709F140E050E0AC17BD0708F1BB836F
:1002E000AA83FE0121913191E20FF31FAE17BF07E0
:1002F00079F48D919C911197280F391F2E5F3F4FF4
:100300003983288312968D919C9113979B838A83BE
:100310004115510571F4D0935205C093510520C089
:1003200012968D919C911397AD01009711F0DC010D
:10033000D3CFFA01D383C28321913191E20FF31F0E
:10034000CE17DF0769F488819981280F391F2E5F46
:100350003F4FFA01318320838A819B81938382837B
:10036000DF91CF910895A0E0B0E0E9EBF1E00C94CB
:10037000FB256C01009729F4CB010E94B1006C01B0
:10038000C1C08EEF882E8FEF982E8C0C9D1C86019D
:10039000060F171F0815190508F4B2C0F401A08153
:1003A000B181A617B707B8F0A530B10508F4AAC007
:1003B000CD0104978617970708F4A4C01297A61BCF
:1003C000B70BF801A193B193D4016D937C93CF0146
:1003D0000E945B0197C07B01EA1AFB0AEEEFFFEF78
:1003E000EE0EFF1E36016A0E7B1EC0915105D091A4
:1003F000520544245524AA24BB244AC0C615D70557
:10040000E1F5488159814E155F05B8F1CA0104979D
:100410008E159F05B0F41296A40FB51FF401B18399
:10042000A0832A813B814114510431F0D2011396FB
:100430003C932E93129766C030935205209351053A
:1004400061C08A819B81F80193838283425050402E
:100450004E195F09518340834114510431F0D20198
:1004600013961C930E93129704C010935205009399
:100470005105F4017183608345C088819981A81674
:10048000B90608F45C012E018A819B819C01E90177
:10049000209709F0B3CF80914F05909150058615B4
:1004A0009705E9F4A616B706D0F420911002309112
:1004B00011022115310541F42DB73EB780910C0290
:1004C00090910D02281B390B02171307C8F41093E3
:1004D000500500934F05D4016D937C9313C0CB015D
:1004E0000E94B100EC01009759F0F4014081518164
:1004F000B6010E94D202C6010E945B016E0102C0D9
:10050000CC24DD24C601CDB7DEB7E0E10C9417267C
:10051000FC0188279927E89421912032E9F32930BA
:1005200010F02E30C8F32B3241F02D3239F468949C
:1005300004C00E949703820F911D219120532A30FD
:10054000C0F31EF4909581959F4F08951F93FC0171
:1005500099278827BC01E89411911032E9F31930EA
:1005600010F01E30C8F31B3251F01D3249F468946C
:1005700006C00E948203610F711D811D911D1191A2
:1005800010531A30B0F33EF49095809570956195B4
:100590007F4F8F4F9F4F1F91089542E552E00E9479
:1005A0002F030895FB01DC0102C001900D92415020
:1005B0005040D8F708956817790768F4FB01DC010B
:1005C000E40FF51FA40FB51F02C002900E92415018
:1005D0005040D8F708950C94D202DC0101C06D930D
:1005E00041505040E0F70895FC018191861721F0B9
:1005F0008823D9F7992708953197CF010895FB01F2
:10060000DC0101900D920020E1F70895FB01DC016F
:100610004150504048F001900D920020C9F701C0B0
:100620001D9241505040E0F70895FB015191552330
:10063000A9F0BF01DC014D9145174111E1F759F4D3
:10064000CD010190002049F04D9140154111C9F3B1
:10065000FB014111EFCF81E090E0019708950097F1
:1006600031F4DA018D919C91009709F40EC0DC0100
:10067000FB013D912191222319F03217C9F3FACFE2
:10068000332331F4DA011D921C92882799270895AB
:100690001197AF93BF93FB013D912191321771F4F4
:1006A000332321F488279927119702C01E921196AF
:1006B000FA01A193B0839F918F910895222369F746
:1006C000EACFFB019F01E8944230C4F04532B4F414
:1006D0004A3029F497FB1EF4909581959F4F642F23
:1006E00077270E94AA25805D8A330CF0895D81936B
:1006F000CB010097A1F716F45DE251931082C90176
:100700000C94CC05592F482F372F262F660F771FB3
:10071000881F991F660F771F881F991F620F731F0D
:10072000841F951F660F771F881F991F08957AE011
:10073000979F902D879F802D910D11240895FB0187
:100740009F01423074F0453264F4642F77270E9491
:10075000AA25805D8A330CF0895D8193CB010097D7
:10076000A1F71082C9010C94CC05AEE0B0E0EBEB30
:10077000F3E00C9407260D891E8986E08C831A838A
:1007800009838FEF9FE79E838D839E01275E3F4FF6
:10079000CE0101966F89788DA9010E94D9032F811E
:1007A0003885020F131FF80110822E96E4E00C9496
:1007B0002326ABE0B0E0EFEDF3E00C94F9253C012B
:1007C0002B015A01FC0117821682838181FD03C02F
:1007D0006FEF7FEFC6C19AE0892E1E010894211C9D
:1007E000311CF3012381F20123FD859123FF8191C7
:1007F0002F01882309F4B2C1853239F423FD859194
:1008000023FF81912F01853229F490E0B3010E94EA
:10081000DC05E7CF982FFF24EE249924FFE1FF1594
:10082000D0F09B3269F09C3228F4903259F0933228
:1008300091F40EC09D3249F0903369F441E024C038
:1008400052E0F52A84E0F82A28C098E0F92A25C069
:10085000E0E1FE2A22C0F7FC29C0892F80538A30AC
:1008600070F4F6FE05C0989C902C1124980E15C0CB
:10087000E89CE02C1124E80EF0E2FF2A0EC09E3224
:1008800029F4F6FC6BC140E4F42A07C09C3619F445
:1008900050E8F52A02C0983649F4F20123FD9591FB
:1008A00023FF91912F01992309F0B8CF892F855407
:1008B000833018F08052833038F444E050E0A40EC6
:1008C000B51E5FE359830FC0933631F0933779F04B
:1008D000933509F056C020C0F5018081898342E03C
:1008E00050E0A40EB51E610101E010E012C0F50158
:1008F000C080D180F6FC03C06FEF7FEF02C0692D8E
:1009000070E042E050E0A40EB51EC6010E94C10591
:100910008C015FE7F52214C0F501C080D180F6FCA0
:1009200003C06FEF7FEF02C0692D70E042E050E03E
:10093000A40EB51EC6010E94B6058C0150E8F52A2A
:10094000F3FE07C01AC080E290E0B3010E94DC050C
:10095000EA948E2D90E008171907A8F30EC0F6014F
:10096000F7FC8591F7FE81916F0190E0B3010E9441
:10097000DC05E110EA94015010400115110579F7EA
:10098000EAC0943611F0993669F5F7FE08C0F50112
:10099000208131814281538184E090E00AC0F501D9
:1009A000808191819C01442737FD4095542F82E03E
:1009B00090E0A80EB91E9FE6F92257FF09C0509596
:1009C0004095309521953F4F4F4F5F4FE0E8FE2A0D
:1009D000CA01B901A1012AE030E00E940806D82E20
:1009E000D21840C0953729F41F2D1F7E2AE030E031
:1009F0001DC01F2D197F9F3661F0903720F4983568
:100A000009F0ACC00FC0903739F0983709F0A6C094
:100A100004C028E030E00AC0106114FD146020E139
:100A200030E004C014FD166020E132E017FF08C07A
:100A3000F501608171818281938144E050E008C0BA
:100A4000F50180819181BC0180E090E042E050E0BE
:100A5000A40EB51EA1010E940806D82ED2188FE759
:100A6000F82EF122F6FE0BC05EEFF522D91438F411
:100A7000F4FE07C0F2FC05C08FEEF82202C01D2D67
:100A800001C0192DF4FE0DC0FE01ED0DF11D808198
:100A9000803319F499EEF92208C01F5FF2FE05C0F9
:100AA00003C08F2D867809F01F5F0F2DF3FC14C053
:100AB000F0FE0FC01E1510F09D2C0BC09D2C9E0C3F
:100AC000911A1E2D06C080E290E0B3010E94DC0561
:100AD0001F5F1E15C0F304C01E1510F4E11A01C0FB
:100AE000EE2404FF0FC080E390E0B3010E94DC0518
:100AF00002FF1DC001FD03C088E790E00EC088E53D
:100B000090E00BC0802F867891F001FF02C08BE24D
:100B100001C080E2F7FC8DE290E0B3010E94DC05A9
:100B200006C080E390E0B3010E94DC059A94D914DA
:100B3000C0F3DA94F101ED0DF11D808190E0B30175
:100B40000E94DC05DD20A9F706C080E290E0B30139
:100B50000E94DC05EA94EE20C1F743CEF3016681E2
:100B60007781CB012B96E2E10C941526FC010590D0
:100B7000615070400110D8F7809590958E0F9F1F9F
:100B80000895FC016150704001900110D8F78095E4
:100B900090958E0F9F1F0895DC01FC01672F7191C6
:100BA0007723E1F7329704C07C916D937083629153
:100BB000AE17BF07C8F308950F931F93CF93DF932A
:100BC0008C01EB018B8181FF1BC082FF0DC02E8148
:100BD0003F818C819D812817390764F4E881F98170
:100BE0000193F983E88306C0E885F985802F09958C
:100BF000892B31F48E819F8101969F838E8302C061
:100C00000FEF1FEFC801DF91CF911F910F91089552
:100C1000FA01AA27283051F1203181F1E8946F932D
:100C20006E7F6E5F7F4F8F4F9F4FAF4FB1E03ED0D3
:100C3000B4E03CD0670F781F891F9A1FA11D680F71
:100C4000791F8A1F911DA11D6A0F711D811D911DA4
:100C5000A11D20D009F468943F912AE0269F112419
:100C60003019305D3193DEF6CF010895462F47707D
:100C7000405D4193B3E00FD0C9F7F6CF462F4F70D8
:100C8000405D4A3318F0495D31FD4052419302D036
:100C9000A9F7EACFB4E0A6959795879577956795DC
:100CA000BA95C9F700976105710508959B01AC01DC
:100CB0000A2E06945795479537952795BA95C9F703
:100CC000620F731F841F951FA01D0895DC011296EB
:100CD0002C91129717968C9117972817D8F5ED91AC
:100CE000FC911197E20FF11D862F992787FD9095B2
:100CF00016960C90169702C0880F991F0A94E2F777
:100D00002081282B208313968C9113978F5F139645
:100D10008C93139716962C91169714963C911497D2
:100D2000822F90E0831B910997FD04C0231B169628
:100D30002C93089587E016968C93169712968C91B3
:100D400012978F5F12968C931297ED91FC91E80F9A
:100D5000F11D10820895FC018781681710F08FEF54
:100D600008950190F081E02DE60FF11D8081089536
:100D7000DC0190E007C0ED91FC911197E90FF11DA6
:100D800010829F5F17968C9117979817A0F3129671
:100D90001C92129713961C92139787E016968C93C9
:100DA0000895FC01808191810E945B010895CF9399
:100DB000DF93EC01842F6C831D824F8390E061E010
:100DC00070E00E94950088839983CE010E94B80646
:100DD00047E0E7E0F0E061E070E00BC0CB0102C06B
:100DE000880F991F2A95E2F79C018D81822B8D83B4
:100DF0004150242F30E08C81DF01A81BB109A217DC
:100E0000B30764F3DF91CF910895FC0112A2A1858D
:100E1000B2850384F485E02D208131818D919C91F0
:100E20001197918380832D933C93DB018D919C914D
:100E30009183808308957F928F929F92AF92BF9209
:100E4000CF92DF92EF92FF920F931F93CF93DF9396
:100E50008C017B01FC0171A0772021F1FB016081F5
:100E600071814C01C0E0D0E021E0A22EB12C5C2FBA
:100E70001616170684F4F801C584D684F70122817A
:100E80003381F40183899489281B390B37FD49C0CC
:100E9000C216D3064CF4219682E090E0880E991E8B
:100EA000C71528F38FEF2FC06130710559F141E06C
:100EB00006C0CE16DF067CF32617370719F14F5F01
:100EC000242F30E06217730734F3F901EE0FFF1F90
:100ED000EE0DFF1DD901AC0FBD1FAA19BB09AA0F4A
:100EE000BB1FA00FB11F0190F081E02D53968D9193
:100EF0009C915497E81BF90BF7FFDBCFF095E19538
:100F0000FF4FD7CF852FDF91CF911F910F91FF908A
:100F1000EF90DF90CF90BF90AF909F908F907F9099
:100F20000895309521953F4FB3CF089508950895C2
:100F3000FC018381948108952F923F924F925F929A
:100F40006F927F928F929F92AF92BF92CF92DF92D9
:100F5000EF92FF920F931F93DF93CF9300D000D0B7
:100F6000CDB7DEB75C01DC0113968D919C9114978F
:100F70000197E1F08FEFD50193968C9380E00F906D
:100F80000F900F900F90CF91DF911F910F91FF90D5
:100F9000EF90DF90CF90BF90AF909F908F907F9019
:100FA0006F905F904F903F902F90089591968C9105
:100FB000815087FDDFCF882E992487FC9094F4011F
:100FC000EE0FFF1F7396EA0DFB1DFC83EB8328E1F8
:100FD00031E0820E931E6501C80CD91CA8EEBEEF4D
:100FE0008A0E9B1E482F00E010E075E1272E71E06D
:100FF000372E2A0C3B1CF501B596FA83E9830DC008
:101000004150EB81FC813297FC83EB830894C1084B
:10101000D1080150104047FDADCF2801480C591CA4
:10102000AB81BC812D913C91121613064CF3EE243A
:10103000FF24E21AF30AB9E6EB16B2E4FB060CF061
:1010400048C0F5018281682E772467FC7094F30113
:10105000EE0FFF1FEA0DFB1D0388F489E02D2E27FC
:101060003F2737FFCDCFEE0FFF1FEE0FFF1FEE0F15
:10107000FF1FEE16FF0624F2F6018081873008F08C
:10108000BFCFD1013C91332309F4BACFE981FA8172
:1010900020E004C02F5F3196231750F4818190E047
:1010A00084159505B9F7808190E08615970591F72D
:1010B000231709F4A5CFF50143A382E090E09483C0
:1010C00083838EE191E0A80EB91ED5012C9381E0B7
:1010D00056CFD50112968C91682E772467FC7094B8
:1010E000F301EE0FFF1FEA0DFB1D0388F489E02DCD
:1010F000C701BF010E94BE25683271050CF080CF88
:10110000AECF2F923F924F925F926F927F928F92CB
:101110009F92AF92BF92CF92DF92EF92FF920F9386
:101120001F93DF93CF9300D000D00F92CDB7DEB7DF
:101130001C018FEFF1018283F1A1F983FF2309F4F0
:10114000BDC018E1412E11E0512E420C531C41014B
:10115000AA24AA94BA2CCC24DD2491012B5E3E4F04
:101160003B832A833FEFA3163FEFB30609F452C037
:101170003601F4010388F489E02DFD83EC83F7FD4B
:1011800077C0F501EE0FFF1FE20DF31D83899489EF
:101190002C813D81281739070CF06AC0F101EC0D54
:1011A000FD1DE85EFE4F608170E0882777FD809529
:1011B000982F0E9474247B018C01EA81FB8160815D
:1011C00070E0882777FD8095982F0E9474242BE784
:1011D00034E14EE25EE30E9428259B01AC01C80188
:1011E000B7010E94242518160CF042C00894C11CB7
:1011F000D11C0894411C511C22E030E0820E931E49
:101200003981C316B8F553013FEFA3163FEFB3067C
:1012100009F0AECF3601F4010388F489E02DFD8397
:10122000EC83F7FD25C0F201608170E0882777FD2F
:101230008095982F0E9474247B018C01EA81FB81A8
:10124000608170E0882777FD8095982F0E94742434
:101250002BE734E14EE25EE30E9428259B01AC01BE
:10126000C801B7010E94242518160CF4BFCF89CFFE
:101270003501BCCF8FEF68168FEF7806F9F0F101DA
:10128000628281E090E09483838381E00F900F90ED
:101290000F900F900F90CF91DF911F910F91FF90C2
:1012A000EF90DF90CF90BF90AF909F908F907F9006
:1012B0006F905F904F903F902F90089580E0E6CF21
:1012C000DC01A85EBE4F1D921D921D921D921D92C3
:1012D0001C92AD51B140442399F4AB5EBE4F4C918A
:1012E000A551B1400DC0FD01E60FF11D85A1FD0125
:1012F000E80FF11DE85EFE4F80818F5F80836F5F96
:10130000641788F308952F923F924F925F926F92E5
:101310007F928F929F92AF92BF92CF92DF92EF9285
:10132000FF920F931F93DF93CF93CDB7DEB728972C
:101330000FB6F894DEBF0FBECDBF6C0160E040E099
:101340000E9460096624D6019196BC91BA83F60189
:10135000EB5EFE4FFE83ED83EA816E1608F0BDC0A2
:10136000F62DFF5FF9832A81F21708F0B1C0862DB0
:1013700090E07F2E1C01220C331C2C0C3D1C43E101
:1013800050E0240E351ED601A80FB91FA85EBE4F2F
:10139000BC83AB83A72CBB242501440C551CF60150
:1013A000E40DF51D2389348938872F8337FDBEC0AE
:1013B000B901882777FD8095982F0E947424D60163
:1013C0001F962D913D914D915C9152970E94282539
:1013D0007B018C01F1018080918020E030E040E0D1
:1013E0005FE30E9428259B01AC01C801B7010E9460
:1013F000DD230E9441242F8138852819390937FDC2
:1014000091C0621773070CF45EC0AD81BE818C91F0
:101410008823F9F090E006C09F5FED81FE81808116
:10142000981768F4F601E90FF11D85A18715A1F75A
:1014300065A29F5FED81FE818081981798F3D101AD
:101440008D909C90F601E40DF51D23893489388731
:101450002F83AB81BC818C91E82FF0E0AC0CBD1CDC
:1014600028E131E0A20EB31ED5018C91282F30E087
:10147000C9018E0F9F1F892B09F048C04F815885E5
:10148000429FC001439F900D529F900D112460E038
:1014900070E00E94BE259B018E9EC0018F9E900D24
:1014A0009E9E900D112460E070E00E94BE25260FE4
:1014B000371FD1012D933C934C0C5D1CD2015496E7
:1014C0001C921E9253977394BA817B1608F462CFD4
:1014D0006980EA816E1608F443CF28960FB6F89417
:1014E000DEBF0FBECDBFCF91DF911F910F91FF9057
:1014F000EF90DF90CF90BF90AF909F908F907F90B4
:101500006F905F904F903F902F9008958F819885B6
:10151000880D991D97FD0EC095958795F1019183D2
:101520008083CACF309521953F4F6BCF3095219561
:101530003F4F3ECF0196F0CFCF93DF93EC010E9457
:101540008309CE0160E040E00E946009CB5EDE4F7F
:101550008881C551D140883230F0CE010E94810887
:10156000CE010E949C07DF91CF910895DC01ED919F
:10157000FC910190F081E02D099508956F927F9282
:101580009F92AF92BF92CF92DF92EF920F93DF9331
:10159000CF9300D000D0CDB7DEB76C01FC016280E4
:1015A0007380F30181A1843008F495C085E191E056
:1015B000680E791EF30160818BEE9EEF680E791E36
:1015C00070E0882777FD8095982F0E9474242AE088
:1015D00037ED43E25DE30E9428250E944624762FE2
:1015E000AA24AA94BA2C00E0992460E030E0A32F4A
:1015F000B0E0F301EA0FFB1FE85EFE4FE080E71664
:10160000C8F1AA0FBB1FA60DB71D53964D915C9153
:101610005497141615060CF078C0F60125812F3F5B
:1016200009F46AC0E22FFF27E7FDF095EE0FFF1FD8
:10163000E60DF71D83899489841795070CF45CC027
:10164000F601258327812F3F09F45DC0E22FFF2794
:10165000E7FDF095EE0FFF1FE60DF71D83899489D6
:10166000481759070CF44FC06E0D0F5FA40EB51E3E
:10167000F60127833F5FF30181A1381708F4B7CF44
:1016800070E0882777FD8095982F0E9474246983E5
:101690007A838B839C8385E191E0680E791EF30148
:1016A000608170E0882777FD8095982F0E947424D0
:1016B0002AE037ED43EA5CE30E9428259B01AC0158
:1016C00069817A818B819C810E94242518161CF0E7
:1016D000091509F445C080E00F900F900F900F900E
:1016E000CF91DF910F91EF90DF90CF90BF90AF90AF
:1016F0009F907F906F900895232FF6012583278177
:101700002F3F09F0A3CF232FAFCFF60124812F3F26
:1017100029F1E22FFF27E7FDF095EE0FFF1FE60D01
:10172000F71D8389948948175907C4F0F60124836B
:1017300026812F3F69F0E22FFF27E7FDF095EE0F9E
:10174000FF1FE60DF71D83899489841795070CF414
:10175000232F6E199394F60126838CCF232FE6CF87
:10176000C50163E070E00E94BE25F60171876087C5
:1017700094819F3F09F4AFCF86818F3F09F4ABCFAF
:10178000981709F4A8CF25812F3F09F4A4CF97819A
:101790009F3F09F4A0CF80E0291709F49DCF81E095
:1017A0009BCF8F929F92AF92BF92CF92DF92EF9298
:1017B000FF921F93DF93CF9300D00F92CDB7DEB788
:1017C0007C016B015E010894A11CB11CD501E9E00C
:1017D000F1E083E001900D928150E1F7D701ED91A6
:1017E000FC91628183E0689FB0011124C6010E94D0
:1017F000D221C114D10489F1D701ED91FC9110E0FF
:1018000084E0882E81E0982ECF01612F0E94AB06E4
:1018100000D000D000D0EDB7FEB73196ADB7BEB75F
:101820001296BC92AE921197938282828483158223
:101830000E94B5038DB79EB706960FB6F8949EBF6B
:101840000FBE8DBFC601B5010E948B221F5FD7015D
:10185000ED91FC9182818117B8F60F900F900F9057
:10186000CF91DF911F91FF90EF90DF90CF90BF90CD
:10187000AF909F908F900895FC018FEF84838583B4
:101880008683878384E18287808191810E94B80664
:1018900008950F931F938C01FC0111A214821382EF
:1018A0008FEF8283878D90A10E94B806F80116867B
:1018B0001586148A138A168A158A108E178A128E34
:1018C000118E148E138E168E158E1F910F91089502
:1018D000CF93DF93EC010E94490CCB5EDE4F188260
:1018E000C551D14019A21CA21C821B828FEF8BA371
:1018F0008A83FE01DE01A85EBE4F80E0148A138A4F
:101900001D928F5F32968630C9F71AA286E990E061
:101910009E878D878AE999E9A9E9BEE38F87988B2D
:10192000A98BBA8BC25EDE4F188228971992188253
:1019300028961882DF91CF910895EF92FF920F932E
:101940001F938C01FC017383628388E090E00E9406
:10195000E91CF82EE92E61E04EE10E94D706F8015D
:10196000F082E182C8010E943C0C1F910F91FF9010
:10197000EF900895EF92FF920F931F938C0181E3F4
:1019800092E0F8019183808388E090E00E94E91C56
:10199000F82EE92E62E041E00E94D706F801F78EAA
:1019A000E0A21086178216821582C80105969287DA
:1019B0008187C80107969487838712A2C8010E9475
:1019C000490C1F910F91FF90EF9008950F931F9373
:1019D0008C010E94BA0C85E292E0F8019183808329
:1019E0001682158210861782C80105969287818714
:1019F000C8010796948783878FEF83A3C8010E944D
:101A0000680C1F910F910895AF92BF92CF92DF9211
:101A1000EF92FF920F931F938C010E94E60C89E1D5
:101A200092E0F8019183808361E7A62E61E0B62EF3
:101A3000A00EB11E50E0E52E51E0F52EC501B70114
:101A40000E94D62248E7C42E41E0D42EC00ED11EFB
:101A5000C601B7010E94D622C50166E470E00E946B
:101A6000D221C60164E170E00E94D22100591E4FCC
:101A7000F80110821F910F91FF90EF90DF90CF90AF
:101A8000BF90AF900895FF920F931F93CF93DF9372
:101A90008C01DC011296ED91FC911397E25EFE4FF2
:101AA00010821296CD91DC911397DE01AB5EBE4F92
:101AB000FC90FF2009F4E2C0FF2460E04CC04F2DF1
:101AC00050E0FE01E40FF51F85A1282F30E0D8017A
:101AD00014968C911497992787FD909528173907AC
:101AE00009F46BC015968C91992787FD909528175E
:101AF000390709F462C0D80116968C91682F7727B0
:101B000067FD70952617370709F489C0D801179625
:101B10008C91992787FD90952817390709F47FC084
:101B2000D801ED91FC91119793811A968C91981799
:101B300008F0D0C0CF010E94B80660E0D80112962C
:101B4000CD91DC911397F394DE01AB5EBE4F8C9187
:101B5000F81608F04FC0662309F0B1CF4F2D50E0C2
:101B6000FE01E40FF51F85A1282F30E0F8018481E4
:101B7000992787FD909528173907C1F08581992706
:101B800087FD90952817390789F0F80186819927F4
:101B900087FD90952817390749F0D80117968C9141
:101BA000992787FD90952817390769F6C25EDE4FA1
:101BB000F882F801C281D38184CFF801408151813C
:101BC00060E0220F331FC20FD31F8B899C8997FFC0
:101BD00061E0CA010E94660661E0D8011296CD91CB
:101BE000DC911397F394DE01AB5EBE4F8C91F81637
:101BF00008F4B1CF8F1509F441C020E0D801ED9170
:101C0000FC91119793811A968C91981708F021E016
:101C1000822FDF91CF911F910F91FF900895CB5E9E
:101C2000DE4F8881C551D14090E001974817590790
:101C30000CF076CF86A1282F30E06217730749F0A9
:101C4000F8018781992787FD90952817390709F0B2
:101C500067CFD8014D915C9160E0220F331FC20F16
:101C6000D31F8B899C8997FF61E0CA010E94660699
:101C7000F39461E0F801C281D38165CFC25EDE4F8B
:101C80008881823008F4B9CFF81AFC92D8011296F4
:101C9000ED91FC911397E25EFE4F6081EE51F140B1
:101CA00070E06B5D7F4F6E0F7F1FEB5EFE4F4081DC
:101CB00050E04F5F5F4FCF01805F90400E94DB029A
:101CC000D8011296ED91FC911397EA5EFE4F81E0E8
:101CD000808393CFC15EDE4FF882D8011296ED91DA
:101CE000FC911397DF01AB5EBE4FE15EFE4F8C911E
:101CF0009081891B8C93D8011296ED91FC911397DA
:101D0000E15EFE4F6081EF51F14070E06B5D7F4F0F
:101D10006E0F7F1FEB5EFE4F408150E04F5F5F4FC5
:101D2000CF01805F90400E94DB02D8011296ED91B6
:101D3000FC911397EA5EFE4F81E0808320E05FCF45
:101D4000CF92DF92EF92FF920F931F93DF93CF9387
:101D500000D000D0CDB7DEB78C0135E1C32E31E025
:101D6000D32EC80ED91ED6018C9190E08F3E9105DE
:101D70000CF0F5C0F80114A2A185B2852D913C911B
:101D8000119783859485FC0160817181F601408102
:101D900090915402F80181A1891710F4F80191A3E0
:101DA000442309F4CDC0EE2480E090E0622773273D
:101DB00077FD0DC120E030E04F3E11F021E030E032
:101DC00082239323892B09F0C7C081E090E09A8396
:101DD00089831C821B828D919C919C838B83C8017B
:101DE000BE016F5F7F4F0E941B07F82E87FDFEC06C
:101DF000F6018081F801E80FF11DF5A2823020F094
:101E000084A18F1509F4EBC0EF2DFF27E7FDF095B6
:101E1000EE0FFF1FE00FF11F2B813C818389948916
:101E2000280F391F37FDDFC035952795348B238B5D
:101E3000D6018C918F5F8C93FF24EE2009F46CC047
:101E4000F6018081883238F083E090E0D801149662
:101E50009C938E931397FF2009F445C0F601F08000
:101E6000AF2DB0E0BD0161507040FFEF6F3F7F07C5
:101E700009F496C050915402F801E60FF71F85A1AE
:101E8000851709F47CC09396F801EA0FFB1F20E048
:101E900030E0959707C080812F5F3F4F31978517BE
:101EA00009F46DC061507040CD01821B930B8F5FB0
:101EB0009F4F89F7E52FF0E0EE0FFF1FE00FF11FB6
:101EC0008B819C81948B838BD6018C91F801E80FD8
:101ED000F11D55A38F5F8C93E52FEF5FE0935402C4
:101EE000E63009F460C00F900F900F900F90CF91E3
:101EF000DF911F910F91FF90EF90DF90CF900895A9
:101F000050915402E50FF11DE85EFE4F8081823052
:101F100008F476C0EE24FF24D6018C91883208F0B4
:101F200048C0EE2009F097CFC8010E94680CD80184
:101F300092961C9210925402FF2009F08FCFD3CFBB
:101F4000D80191961C92919710925402EE24199602
:101F50000D90BC91A02D39CFEE24E39436CF095ECD
:101F60001E4F81E0F801808307511140D801ED91A7
:101F7000FC910680F781E02DC8010995FBCE6F5FCB
:101F80007F4F4F2D461BD6014C936B5D7F4F600FEB
:101F9000711F50E04F5F5F4FC80185960E94DB02C2
:101FA0005091540287CF10925402D8019196EC932D
:101FB0009ACF81E0F80182A30190F081E02D0680A4
:101FC000F781E02DC8010995109254028CCF81E071
:101FD00090E020E030E04F3E09F0F0CEF1CEC801B5
:101FE0000E94680C11CF2F5F3F4F1ECFC80160E0E9
:101FF00040E00E946009F80181A1863009F480CF99
:10200000FF24F3941ACF0F931F93CF93DF938C0188
:10201000DC0192961C92929719960D90BC91A02D7E
:10202000EC01EB85FC85208131818D919C9111978C
:10203000918380832D933C93DB018D919C919183BF
:102040008083C8010E94A00E8AA1DF91CF911F91C9
:102050000F9108950F931F93CF93DF938C01EB01A2
:10206000CB0167E070E00E94D221209779F0CE0189
:102070006EE071E00E948B22F80160857185CE01CF
:102080000E941B22CE016BE30E947822DF91CF9148
:102090001F910F9108950F931F93CF93DF938C019E
:1020A000EB01CB0160E270E00E94D221209709F49D
:1020B00070C0CE0161E171E00E948B22D8011296BE
:1020C000ED91FC91139714968C91992787FD90952B
:1020D000880F991FE80FF91F63897489CE010E9448
:1020E0001B22CE016BE30E947822CE0165E171E0F4
:1020F0000E948B22D8011296ED91FC9113971596B0
:102100008C91992787FD9095880F991FE80FF91FEB
:1021100063897489CE010E941B22CE016BE30E9469
:102120007822CE0169E171E00E948B22D8011296DB
:10213000ED91FC91139716968C91992787FD9095B8
:10214000880F991FE80FF91F63897489CE010E94D7
:102150001B22CE016BE30E947822CE016DE171E07B
:102160000E948B22D8011296ED91FC91139717963D
:102170008C91992787FD9095880F991FE80FF91F7B
:1021800063897489CE010E941B22CE016BE30E94F9
:102190007822DF91CF911F910F910895CF93DF9314
:1021A000FC01C081D181209731F0CE010E94D1067F
:1021B000CE010E94E61CDF91CF910895CF92DF926D
:1021C000EF92FF920F931F937A01690100E215E0ED
:1021D000C8010E948A1EC801B7010E948A1EC80158
:1021E000B6010E948A1E1F910F91FF90EF90DF9021
:1021F000CF900895AF92BF92DF92EF92FF920F932C
:102200001F93CF93DF93EC01F62ED42E580180E27A
:1022100095E0B9010E948A1EDF1458F1EE248E0168
:102220000F0D111D80E295E0F80165A14AE050E034
:102230000E94F01DF80185A1E82688E09CE8E0FAFC
:10224000E6940EF4E9268A95D1F7F394DF1438F773
:102250001E2D80E295E0B5010E948A1E812FDF913C
:10226000CF911F910F91FF90EF90DF90BF90AF90B3
:10227000089510E0EECF2F923F924F925F926F92AF
:102280007F928F929F92AF92BF92CF92DF92EF9206
:10229000FF920F931F93DF93CF93CDB7DEB7629773
:1022A0000FB6F894DEBF0FBECDBF7C018C010B5E74
:1022B0001E4FF80180818832C8F462960FB6F894F8
:1022C000DEBF0FBECDBFCF91DF911F910F91FF9069
:1022D000EF90DF90CF90BF90AF909F908F907F90C6
:1022E0006F905F904F903F902F9008953E2C2F2C31
:1022F000C7010E949C0AF701838194818230910575
:1023000009F480C0019779F0F70112A226E131E0CB
:10231000E20EF31EF7018081882379F6832D922D3A
:102320000E94680CCACFF8018081883268F3B1E757
:102330008B2EB1E09B2E8E0C9F1CC40160E071E0DF
:102340000E94F022A8E76A2EA1E07A2E6E0C7F1C74
:10235000C30160E071E00E94F022C40162E00E94CB
:102360007822F8E04F2E512C4C0E5D1EC201B701B1
:102370000E949D0CC2010E943C0C81E18A8BC2012B
:102380000E94BE0A882309F0ACC1C40168E371E071
:102390000E948B22C4016BE30E947822F70191A175
:1023A000992309F460C1BB2404C0B394B91608F0A2
:1023B0005AC1CB2CDD24F701EC0DFD1DE85EFE4F6C
:1023C0008081882391F3C40166E371E00E948B222F
:1023D000C4016B2D0E944C22C40164E271E00E9492
:1023E0008B22CC0CDD1CCE0CDF1CF60163897489BA
:1023F000C4010E941B22C4016BE30E947822F701F2
:1024000091A1D3CF4FE1A42E41E0B42EAE0CBF1C5E
:102410003EE1432E31E0532E4E0C5F1CF2018081D1
:102420008E5FF5018083F7018281682F772767FD32
:10243000709508C0842F8E5FF5018083F80140817C
:102440008417E0F4F5014081F701E40FF11D85A147
:1024500090E08617970771F726A130E0F70183A176
:10246000992787FD90952817390721F74150F501E5
:102470004083F8014081DD24D39401C0DD24F501BF
:102480008081481708F465C0482F832D922DF201F2
:1024900060810E946009DD2009F05EC0F801408182
:1024A000403F08F068C021E7822E21E0922E8E0C7A
:1024B0009F1CC40160E071E00E94F02298E7692E41
:1024C00091E0792E6E0C7F1CC30160E071E00E94E8
:1024D000F022C40162E00E947822C40161E271E04E
:1024E0000E948B22C4016BE30E947822F70191A124
:1024F000992309F462C0DD2404C0D394D91608F0EE
:102500005CC00D2D10E0F701E00FF11FE85EFE4FFB
:102510008081882391F3C40160E50E947822C40180
:102520006D2D0E944C22C40164E271E00E948B2256
:10253000000F111F0E0D1F1DF80163897489C4015E
:102540000E941B22C4016BE30E947822F70191A133
:10255000D4CFF501408399CFF501808190E0F2015D
:102560002081821B910988970CF09DCF832D922D9D
:102570000E94680CCBCEF20120812230B8F3F50125
:10258000808190E08F3E91058CF3421BF8014083DF
:10259000622F70E06B5D7F4F6E0D7F1D50E04F5FCF
:1025A0005F4FC70185960E94DB0226E131E0E20E13
:1025B000F31E81E0F701808380CEC40166E271E002
:1025C0000E948B22C3016BE30E947822C30169E25F
:1025D00071E00E948B22F7016281772767FD709579
:1025E000C3010E941B22C3016BE30E947822C30136
:1025F0006DE271E00E948B22F70163A1772767FDEE
:102600007095C3010E941B22C3016BE30E947822D4
:1026100027E131E0E20EF31EF701808129EE3EEF63
:10262000E20EF31E8823A9F4C30163E00E9478221E
:10263000C3016AE00E947822C701F2016081F501BE
:102640004081940183010E94FA1081E0F70182A386
:102650005DCEC30161E371E00E948B22C3016BE395
:102660000E947822E1CFC40166E271E00E948B22D1
:10267000C3016BE30E947822C30169E271E00E940A
:102680008B22F7016281772767FD7095C3010E9455
:102690001B22C3016BE30E94782227E131E0E20EA6
:1026A000F31EF701808129EE3EEFE20EF31E882330
:1026B00009F055C0C30163E00E947822C3016AE0BB
:1026C0000E947822C70160E0F801408194018301F3
:1026D0000E94FA1081E0F70182A3C2010E94CE108D
:1026E00015CEC2010E94430D882309F44ECE8E01FF
:1026F0000F5F1F4FC80160E071E00E94D622C80141
:1027000066E271E00E94F022C201B8010E94D10B82
:10271000C40163E371E00E948B22C4016BE30E9459
:102720007822C201B4010E944B10C3016BE30E94E6
:102730007822C201B3010E942A10C30163E00E9403
:102740007822C3016AE00E947822C701B401A8017F
:1027500093010E94DE10C8010E94D623BBCFC301A3
:1027600061E371E00E948B22C3016BE30E94782237
:10277000A1CF1F920F920FB60F9211242F933F9368
:102780004F935F936F937F938F939F93AF93BF9379
:10279000EF93FF93E0915802F09159020995FF9150
:1027A000EF91BF91AF919F918F917F916F915F91C9
:1027B0004F913F912F910F900FBE0F901F90189542
:1027C0008130910531F0892B19F46F5F7F4FE1F073
:1027D00008956F5F7F4FE1F780E580935A02109272
:1027E0005B0280915B0280935D0280915D02809329
:1027F0005C028FEF92E06DEA71E00E94D62287E0E2
:1028000093E00E94040D089589E192E090930803FB
:10281000809307038FE794E00E94D62388E794E033
:102820000E94D6238FEF92E00E94D623089580E085
:1028300090E06FEF7FEF0E94E013089581E090E059
:102840006FEF7FEF0E94E0130895FF920F931F93A5
:10285000CF93DF93F82E00E215E0C8016EEA71E035
:102860000E94741EC8016F2D4AE050E00E94F01DC6
:10287000C80169EB71E00E94741ECF2DD0E0CC0F2F
:10288000DD1FCC0FDD1FCC0FDD1FC95FDC4FCD5D21
:10289000DE4F68817981C8014AE050E00E94421E03
:1028A000C8016DEB71E00E94741EFE0162917727F2
:1028B00067FD7095C8014AE050E00E94421EC801C1
:1028C00062EC71E00E94771EDF91CF911F910F9112
:1028D000FF900895AF92BF92CF92DF92EF92FF9256
:1028E0000F931F93DF93CF93CDB7DEB762970FB6E9
:1028F000F894DEBF0FBECDBF8E01075F1F4F8FEF75
:1029000092E0B8014AE050E023E030E00E948B21E1
:10291000C80162EC71E00E94CD020E948802D82EAC
:102920005E010894A11CB11CD501E9E3F2E088E046
:1029300001900D928150E1F78FEF92E061E070E03D
:102940000E941721813409F43EC00D2D10E0EE24C1
:10295000FF24CC248FEF92E061E070E00E94172109
:102960008235F1F08D2D0E9425148091770490E03E
:102970000196801791071CF4D394D0927704629645
:102980000FB6F894DEBF0FBECDBFCF91DF911F9180
:102990000F91FF90EF90DF90CF90BF90AF90089590
:1029A000CB82FD82EC82F801EE0FFF1FEE0FFF1FBE
:1029B000EE0FFF1FE95DFB4FD50188E00D900192FE
:1029C0008150E1F7CFCF80E090E062EC71E00E94AF
:1029D000CD020E948802C82E80E090E062EC71E097
:1029E0000E94CD020E9488027C010D2D10E0CB8256
:1029F0009D838C83F801EE0FFF1FEE0FFF1FEE0F7C
:102A0000FF1FE95DFB4FD50188E00D9001928150D9
:102A1000E1F7A0CF0E94A91F9B01AC018091860421
:102A200090918704A0918804B091890428173907F0
:102A30004A075B0748F480918A0490918B040196C1
:102A400090938B0480938A042093860430938704A8
:102A50004093880450938904CA01B90128EE33E0F9
:102A600040E050E00E94D125C90108951F9311E074
:102A700080E295E00E94C91B892BA9F080E295E0D5
:102A80000E94FA1B682F8A30A1F08B3074F48823DF
:102A900081F08FEF92E00E94782280E295E00E9420
:102AA000C91B892B59F71F9108958D3011F083327E
:102AB00081F710930603DCCF6091FE028DE00E9447
:102AC000B4201092FE0208956F927F928F929F928F
:102AD000AF92BF92DF92EF92FF920F931F93DF931B
:102AE000CF93CDB7DEB72E970FB6F894DEBF0FBEEB
:102AF000CDBF3C018FEF92E064E40E94862152E05A
:102B0000D52ED80E5E010894A11CB11C48E0842E7D
:102B1000912C8C0E9D1EED2CFF24C50162EC71E002
:102B20000E94D6228FEF92E0B5014D2D50E00E9419
:102B30004A218C01C5010E94D623E016F1060CF053
:102B40003EC00894E11CF11CC4016FEF72E04D2DF2
:102B500050E097010E946C23C4010E943921162F76
:102B6000C4010E94D623012F10E0000F111F060D93
:102B7000171D60E0F8018081918197FF61E08BE093
:102B80000E94B420F8018081918197FD14C0FFE17B
:102B900081349F0764F068EE73E00E94BE258827A9
:102BA00077FD8095982F0E94DD1FD394B4CF0E94AB
:102BB0000320D394B0CF909581959F4FE8CF8BE0C1
:102BC00060E00E94B4202E960FB6F894DEBF0FBED0
:102BD000CDBFCF91DF911F910F91FF90EF90DF90CC
:102BE000BF90AF909F908F907F906F900895EF92DD
:102BF000FF920F931F93082FE62E8BE061E00E9457
:102C0000B42010E080911302909114029C01029F65
:102C1000C001039F900D129F900D11240E9403206C
:102C20008BE060E00E94B420FF2480911302909119
:102C300014029C01E29EC001E39E900DF29E900D55
:102C400011240E9403201F910F91FF90EF9008958F
:102C500080E00E94F41E089580E064EA79E141E09A
:102C600050E00E94D11E08958FEF92E061E070E085
:102C70000E941721813561F08FEF92E061E070E0F2
:102C80000E941721853409F008950E942C1608959A
:102C90000E942816F1CF2F923F924F925F926F922F
:102CA0007F928F929F92BF92CF92DF92EF92FF928C
:102CB0000F931F93DF93CF93CDB7DEB7ED970FB68A
:102CC000F894DEBF0FBECDBF8FEF92E061E070E001
:102CD0000E9417218235C1F0ED960FB6F894DEBF41
:102CE0000FBECDBFCF91DF911F910F91FF90EF905D
:102CF000DF90CF90BF909F908F907F906F905F906C
:102D00004F903F902F90089582E3482E512C4C0E07
:102D10005D1E8CE0F20111928A95E9F76E0108942C
:102D2000C11CD11CC6016DEA71E00E94D6228E0141
:102D3000085F1F4FC80162EC71E00E94D6228FEF3E
:102D400092E0B80142E050E00E944A21F82EC8010A
:102D50000E94D623BB240FE0602E712C6C0E7D1ECA
:102D600016E1812E912C8C0E9D1EB4E22B2E312C5F
:102D70002C0E3D1EEF2CFF24E7FCF09487010F5F23
:102D80001F4F8FEF92E0B8010E941721843409F49D
:102D900055C08FEF92E064E40E948621081719075E
:102DA0000CF04CC0C30162EC71E00E94D62282E0BC
:102DB00090E0E80EF91E8FEF92E0B301A7010E94A8
:102DC0004A21F82EC3010E94D6232F2D332727FD39
:102DD0003095C4016FEF72E0A8010E946C23C60118
:102DE000B4010E94BF23C4010E94D623C60160E043
:102DF00070E00E9417218035F1F1C60160E070E0BB
:102E00000E941721823509F0B5CFC60161E070E05C
:102E10000E9417218D3309F0ADCFCE018B96B601FC
:102E200042E050E00E94B323CE018B960E943921EC
:102E3000B62ECE018B960E94D6239CCF0E942816D8
:102E4000BB2069F000E0C2010E94641562E070E0FE
:102E500080E090E00E94DD1F0F5F0B15A0F30E9441
:102E60002C1680E295E06FEF72E00E94BD1EC60155
:102E70000E94D62331CFC60162E070E00E94172184
:102E80008D3309F0BACFCE014D96B60141E050E046
:102E900022E030E00E946C23CE014D960E94392141
:102EA000162FCE014D960E94D623C101B60143E0F4
:102EB00050E00E94B323C1010E943921E12FF0E0CC
:102EC000EE0FFF1FEC0DFD1D72AB61ABC1010E9447
:102ED000D62350CFEF92FF920F931F93CF93DF93A0
:102EE0007C010E94281680911202882391F100E053
:102EF00010E081E06FE10E94F715F70180818823DF
:102F000001F1E70110C0863469F1803341F481E0BA
:102F100063E00E94F71581E063E00E94F715898164
:102F20002196882371F0813371F783E061E00E947C
:102F3000F71583E061E00E94F715898121968823C7
:102F400091F70F5F1F4F8091120290E00817190749
:102F500084F20E942C16DF91CF911F910F91FF9068
:102F6000EF90089581E063E00E94F71583E061E04F
:102F70000E94F715D4CFEF92FF920F931F93DF9328
:102F8000CF93CDB7DEB7EA970FB6F894DEBF0FBE8A
:102F9000CDBF8FEF92E061E070E00E94172184378F
:102FA00009F44EC08FEF92E061E070E00E941721BB
:102FB000823741F18FEF92E061E070E00E941721CB
:102FC000833709F444C08FEF92E061E070E00E9423
:102FD0001721833609F467C08FEF92E061E070E05B
:102FE0000E941721803709F479C0EA960FB6F89449
:102FF000DEBF0FBECDBFCF91DF911F910F91FF902C
:10300000EF9008958E010C5F1F4FC8016FEF72E0C3
:1030100042E050E00E94B323C8017E010894E11C05
:10302000F11CB70143E050E020E030E00E948B212A
:10303000C8010E94D623C7010E9488028093120211
:1030400080E295E06FEF72E00E94BD1ECECF8DE072
:1030500061E00E94B4208E01055F1F4FC8016FEF31
:1030600072E042E050E00E94B3232EE2E22EF12C07
:10307000EC0EFD1EC801B7014DE050E020E030E04D
:103080000E948B21C8010E94D623C7010E946A17A3
:103090008DE060E00E94B42080E295E06FEF72E086
:1030A0000E94BD1EA2CF8E010E5E1F4FC8016FEFA2
:1030B00072E042E050E00E94B323C8010E9439212F
:1030C0007093140260931302C8010E94D62380E219
:1030D00095E06FEF72E00E94BD1E87CF99E1E92E67
:1030E000F12CEC0EFD1EC7016DEA71E00E94D622A4
:1030F000C70164E170E00E94D221C70164EC71E075
:103100000E94F0228E01005E1F4FC80160911202E2
:103110004AE00E943A23C701B8010E949B22C801DD
:103120000E94D623C7016FEC71E00E948B228E01B2
:10313000095D1F4F6091130270911402C8014AE0AB
:103140000E940923C701B8010E949B22C8010E9466
:10315000D62380E295E0B7010E94BD1EC7010E9400
:10316000D62343CFDF93CF9300D0CDB7DEB78FEF19
:1031700092E060E070E00E9417218F3309F457C09D
:103180008FEF92E060E070E00E941721863509F42D
:10319000AAC08FEF92E060E070E00E9417218235B4
:1031A000B9F480914F0590915005009709F4B9C08A
:1031B000BE016F5F7F4F681B790B80E295E04AE0AC
:1031C00050E00E94551E0F900F90CF91DF9108950F
:1031D0008FEF92E060E070E00E941721893609F4D9
:1031E0008DC08FEF92E060E070E00E941721833580
:1031F00009F48EC08FEF92E060E070E00E9417212A
:10320000843709F491C08FEF92E060E070E00E9493
:103210001721883509F495C08FEF92E060E070E0E7
:103220000E941721863479F60E946A14CCCF80E27E
:1032300095E06FE30E94391D80E295E068E670E05A
:103240000E94161D80E295E066E50E94391D80E22D
:1032500095E060E20E94391D80E295E069E60E94F7
:10326000391D80E295E060E20E94391D80E295E020
:1032700062E50E94391D80E295E060E20E94391DFE
:1032800080E295E064E70E94391D80E295E060E20B
:103290000E94391D80E295E068E50E94391D80E2B8
:1032A00095E060E20E94391D80E295E066E40E94AC
:1032B000391D80E295E060E20E94391D80E295E0D0
:1032C00063E50E94391D80E295E060E20E94391DAD
:1032D00080E295E06DEA71E00E94771E0F900F90FA
:1032E000CF91DF91089580E295E061ED71E00E9459
:1032F000771E0F900F90CF91DF91089587E093E0B4
:103300000E949807892BD1F081E0809306035BCF60
:1033100087E093E00E949807892BB1F70E944B1633
:1033200052CF83E595E044CF0E940A15BC0180E2AC
:1033300095E04AE050E00E94551E45CF0E94BB1721
:1033400042CF0E9434163FCFEF92FF920F931F930C
:10335000CF93DF9380918C04882309F45EC00E9490
:10336000B71F7B018C0182E00E94E7209C018091C5
:10337000940490919504A0919604B0919704B8019B
:10338000A701481B590B6A0B7B0BDB01CA01E092BA
:103390009404F092950400939604109397044A3590
:1033A00051056105710584F181305DE7950750E0B5
:1033B000A50750E0B5077CF1C1E0DDE7232B19F04C
:1033C000D095C195DF4F80915B028035E8F4809104
:1033D0005B028F5F80935B0280915C0260915A0276
:1033E00090E070E00E94AA2580935C02E0915C026C
:1033F000F0E0EE0FFF1FE25AFD4FD183C0838091B2
:103400005C028F5F80935C02DF91CF911F910F91DF
:10341000FF90EF900895EC01D1CF8CE894E00E94EA
:10342000D81C892B09F49BCF0E94B71F609394048A
:103430007093950480939604909397048CE894E09D
:103440000E94E21C8CCFFF920F931F93DF93CF93C8
:1034500000D0CDB7DEB7809106038823E1F58E0159
:103460000F5F1F4FFF24F39480915B02882359F173
:1034700080915B02815080935B0280915D0260913C
:103480005A0290E070E00E94AA2580935D0280912C
:103490005D02E82FF0E0EE0FFF1FE25AFD4F2081A2
:1034A00031818F5F80935D023A83298387E093E0C7
:1034B000B8010E94B60A8823B9F2F092FE02809108
:1034C0005B028823A9F60F900F90CF91DF911F9197
:1034D0000F91FF900895109206030E94B2188091F8
:1034E0000603882321F081E08093FE02B8CF8FEF9E
:1034F00092E06DEA71E00E94F022F5CF80E295E063
:1035000040E051EE60E070E00E94421B82E060E02B
:103510000E9448208BE061E00E9448208DE061E03D
:103520000E944820E1E8F0E080E180831092800072
:1035300082E08093570288EA91E690935602809346
:103540005502909387008093860082E180838CE50A
:1035500095E1909359028093580281E080936F0027
:103560000E942C168FEF92E064E170E00E94D2215D
:1035700008951F920F920FB60F9211242F933F932D
:103580004F938F939F93EF93FF938091C00082FDA1
:103590001DC04091C6002091D8043091D9042F5FFE
:1035A0003F4F2F7330708091DA049091DB0428171D
:1035B000390771F0E091D804F091D904E856FB4F37
:1035C00040833093D9042093D80402C08091C60070
:1035D000FF91EF919F918F914F913F912F910F907C
:1035E0000FBE0F901F901895E0912C05F0912D05BE
:1035F000E05CFF4F8191919120813181821B930B7F
:103600008F739070892B11F00E94361508951F92C8
:103610000F920FB60F9211242F933F938F939F9386
:10362000EF93FF9320911C0530911D0580911E059D
:1036300090911F052817390731F48091C1008F7DC3
:103640008093C10014C0E0911E05F0911F05E45263
:10365000FB4F208180911E0590911F0501968F736D
:10366000907090931F0580931E052093C600FF91D4
:10367000EF919F918F913F912F910F900FBE0F90DF
:103680001F901895AF92BF92DF92EF92FF920F9327
:103690001F93CF93DF93EC017A018B01DD2440303F
:1036A00081EE580780E0680780E0780711F0DD249C
:1036B000D39491E0A92EB12CEC89FD89DD2069F02D
:1036C000C50108A002C0880F991F0A94E2F7808301
:1036D00060E079E08DE390E005C0108260E874E876
:1036E0008EE190E0A80197010E94D1252150304041
:1036F00040405040569547953795279580E12030BA
:10370000380720F0DD2011F0DD24D6CFE889F989D3
:103710003083EA89FB89208319A2EE89FF894081E1
:1037200021E030E0C9010C8C02C0880F991F0A9477
:10373000E2F7482B4083EE89FF894081C9010D8C57
:1037400002C0880F991F0A94E2F7482B4083EE8944
:10375000FF894081C9010E8C02C0880F991F0A940D
:10376000E2F7482B4083EE89FF8980810F8C02C0ED
:10377000220F331F0A94E2F7209528232083DF913C
:10378000CF911F910F91FF90EF90DF90BF90AF907E
:103790000895DC011C96ED91FC911D97E05CFF4FB4
:1037A0002191319180819181281B390B2F733070C9
:1037B000C9010895DC011C96ED91FC911D97E05C18
:1037C000FF4F20813181E054F040DF01AE5BBF4FFD
:1037D0008D919C9111972817390719F42FEF3FEF1E
:1037E00007C08D919C91E80FF91F8081282F30E050
:1037F000C9010895DC011C96ED91FC911D97E05CD8
:10380000FF4F20813181E054F040DF01AE5BBF4FBC
:103810008D919C9111972817390719F42FEF3FEFDD
:1038200010C08D919C911197E80FF91F20818D9107
:103830009C91119701968F73907011969C938E9323
:1038400030E0C9010895DC0191968C91919788230D
:1038500039F05496ED91FC915597808186FFF9CF10
:1038600091961C920895CF93DF93EC01EE85FF852E
:10387000E05CFF4F20813181E054F0402F5F3F4FEB
:103880002F733070DF01AE5BBF4F8D919C9111970C
:1038900028173907D1F3E05CFF4F80819181E05414
:1038A000F040E80FF91F6083EE85FF85E05CFF4F75
:1038B00031832083EE89FF89208181E090E00F8CA5
:1038C00002C0880F991F0A94E2F7282B208381E019
:1038D00089A3EC89FD8980818064808381E090E008
:1038E000DF91CF910895109223051092220588EE62
:1038F00093E0A0E0B0E08093240590932505A09389
:103900002605B093270585E492E0909321058093E6
:10391000200588E994E090932D0580932C058CED8B
:1039200094E090932F0580932E0585EC90E0909382
:1039300031058093300584EC90E0909333058093BB
:10394000320580EC90E0909335058093340581EC4E
:1039500090E0909337058093360582EC90E0909349
:1039600039058093380586EC90E090933B05809371
:103970003A0584E080933C0583E080933D0587E031
:1039800080933E0585E080933F0581E0809340056C
:103990000895CF93DF930E940D200E947E1AC4EFFA
:1039A000DAE10E94231A2097E1F30E94F41AF9CF7A
:1039B000FC0120E030E08081882311F421E030E038
:1039C000C9010895FC0181E0808308950E945B0194
:1039D00008950E94B1000895CF92DF92EF92FF9276
:1039E0000F931F93CF93DF937C016B018A01C0E09B
:1039F000D0E00FC0D6016D916D01D701ED91FC9122
:103A00000190F081E02DC7010995C80FD91F015021
:103A100010400115110571F7CE01DF91CF911F9173
:103A20000F91FF90EF90DF90CF900895EF92FF926B
:103A30000F931F93CF93DF937C018B01C0E0D0E005
:103A4000F8010F5F1F4F6491662359F0D701ED9184
:103A5000FC910190F081E02DC7010995C80FD91F95
:103A6000EFCFCE01DF91CF911F910F91FF90EF909B
:103A70000895DC01ED91FC910190F081E02D099514
:103A80000895EF92FF920F931F938C01DC01ED914B
:103A9000FC910190F081E02D6DE009957C01D80149
:103AA000ED91FC910190F081E02DC8016AE009954B
:103AB0009C012E0D3F1DC9011F910F91FF90EF90AA
:103AC0000895CF93DF93EC016115710519F420E09F
:103AD00030E00FC0DB010D900020E9F71197A61B25
:103AE000B70BE881F9810280F381E02DAD010995E2
:103AF0009C01C901DF91CF9108954F925F927F920F
:103B00008F929F92AF92BF92CF92DF92EF92FF92ED
:103B10000F931F93DF93CF93CDB7DEB7A1970FB667
:103B2000F894DEBF0FBECDBF2C01742ECB01223026
:103B300008F42AE019A231E2C32ED12CCC0EDD1EEE
:103B4000822E9924AA24BB24672D752FA5019401E8
:103B50000E94D12579018A01C801B701A50194010C
:103B60000E948B25472D461B0894C108D1084A3076
:103B700014F4405D01C0495CF6014083E114F10496
:103B80000105110521F07E2C5F2DC801DDCFC2019A
:103B9000B6010E94611DA1960FB6F894DEBF0FBE5C
:103BA000CDBFCF91DF911F910F91FF90EF90DF90EC
:103BB000CF90BF90AF909F908F907F905F904F90ED
:103BC0000895DC012115310541F4ED91FC9101903E
:103BD000F081E02D642F099508950E947D1D0895C0
:103BE000EF92FF920F931F939A01E62EFF2400E0BD
:103BF00010E0B801A7010E94E11D1F910F91FF90F5
:103C0000EF900895CF92DF92EF92FF920F931F9360
:103C1000CF93DF93EC016A017B012115310541F45B
:103C2000E881F9810190F081E02D642F09951FC092
:103C30002A303105D1F477FF17C0E881F98101906E
:103C4000F081E02D6DE209958C0144275527BA01DA
:103C50004C195D096E097F09CE012AE00E947D1D85
:103C60009801280F391F04C02AE00E947D1D9C0185
:103C7000C901DF91CF911F910F91FF90EF90DF90DD
:103C8000CF900895EF92FF920F931F937B019A01BB
:103C90000027F7FC0095102FB801A7010E94021E13
:103CA0001F910F91FF90EF900895CF92DF92EF92C6
:103CB000FF920F931F936C017B019A010027F7FC81
:103CC0000095102FB801A7010E94021E8C01C601A9
:103CD0000E94411D080F191FC8011F910F91FF90ED
:103CE000EF90DF90CF9008950E94611D0895EF92AC
:103CF000FF920F931F937C010E94611D8C01C701ED
:103D00000E94411D080F191FC8011F910F91FF90BC
:103D1000EF900895AF92BF92CF92DF92EF92FF9211
:103D20000F931F93CF93DF935C016B01EE24FF246D
:103D3000C0E0D0E010C0D501ED91FC91008111816F
:103D4000C601BE010E942821682FC501F80109950E
:103D5000E80EF91E2196F60184819581C817D907CE
:103D600050F3C701DF91CF911F910F91FF90EF901A
:103D7000DF90CF90BF90AF900895EF92FF920F9396
:103D80001F937C010E948A1E8C01C7010E94411D65
:103D90009C01200F311FC9011F910F91FF90EF90DF
:103DA0000895823000F5E82FF0E0EE0FFF1FEE5B84
:103DB000FA4F71836083882319F08130A1F408C021
:103DC000809169008C7F842B80936900E89A089524
:103DD00080916900440F551F440F551F837F842B2A
:103DE00080936900E99A0895823080F4882319F05D
:103DF000813021F402C0E89801C0E998E82FF0E092
:103E0000EE0FFF1FEE5BFA4F1182108208951F9292
:103E10000F920FB60F9211242F933F934F935F93FE
:103E20006F937F938F939F93AF93BF93EF93FF9382
:103E30008091420590914305892B29F0E09142053C
:103E4000F09143050995FF91EF91BF91AF919F913B
:103E50008F917F916F915F914F913F912F910F9033
:103E60000FBE0F901F9018951F920F920FB60F92D2
:103E700011242F933F934F935F936F937F938F936F
:103E80009F93AF93BF93EF93FF93809144059091DD
:103E90004505892B29F0E0914405F09145050995E8
:103EA000FF91EF91BF91AF919F918F917F916F9112
:103EB0005F914F913F912F910F900FBE0F901F90E8
:103EC00018951F920F920FB60F9211242F933F93C4
:103ED0008F939F93AF93BF9380914A0590914B0529
:103EE000A0914C05B0914D0530914E050196A11D54
:103EF000B11D232F2D5F2D3720F02D570196A11DC9
:103F0000B11D20934E0580934A0590934B05A093D5
:103F10004C05B0934D058091460590914705A091C1
:103F20004805B09149050196A11DB11D8093460534
:103F300090934705A0934805B0934905BF91AF9171
:103F40009F918F913F912F910F900FBE0F901F90D7
:103F500018958FB7F89420914A0530914B05409100
:103F60004C0550914D058FBFB901CA0108959FB707
:103F7000F8942091460530914705409148055091AD
:103F8000490586B5A89B06C08F3F21F02F5F3F4FA4
:103F90004F4F5F4F9FBF542F432F322F2227280FA1
:103FA000311D411D511D82E0220F331F441F551F3B
:103FB0008A95D1F7B901CA010895EF92FF920F9344
:103FC0001F93CF93DF937B018C010E94B71FEB01FE
:103FD0000EC00E94B71F6C1B7D0B685E7340C8F358
:103FE0000894E108F10801091109C851DC4FE114F6
:103FF000F1040105110569F7DF91CF911F910F9130
:10400000FF90EF900895019739F0880F991F880F5E
:10401000991F02970197F1F70895789484B582600B
:1040200084BD84B5816084BD85B5826085BD85B55C
:10403000816085BDEEE6F0E0808181608083E1E80B
:10404000F0E0108280818260808380818160808343
:10405000E0E8F0E0808181608083E1EBF0E0808146
:1040600084608083E0EBF0E0808181608083EAE718
:10407000F0E08081846080838081826080838081A1
:10408000816080838081806880831092C100089560
:10409000CF93DF93482F50E0CA0189559F4FFC0111
:1040A00034914D565F4FFA018491882369F190E075
:1040B000880F991FFC01EB58FF4FA591B491FC01AB
:1040C000E158FF4FC591D491662351F42FB7F8946E
:1040D0008C91932F909589238C93888189230BC091
:1040E000623061F42FB7F8948C91932F90958923C7
:1040F0008C938881832B88832FBF06C09FB7F89449
:104100008C91832B8C939FBFDF91CF910895833047
:1041100071F0843028F48130A1F0823021F514C090
:104120008630B1F08730D1F08430E9F404C080915A
:1041300080008F7703C0809180008F7D8093800006
:10414000089584B58F7702C084B58F7D84BD0895AE
:104150008091B0008F778093B00008958091B00077
:104160008F7D8093B0000895FF920F931F93F62EDA
:10417000482F50E0CA0185549F4FFC012491CA0189
:1041800089559F4FFC0114914D565F4FFA010491E0
:104190000023C9F0222319F0822F0E948720E02FEC
:1041A000F0E0EE0FFF1FE158FF4FA591B4919FB7CC
:1041B000F894FF2021F48C911095812302C08C91FA
:1041C000812B8C939FBF1F910F91FF9008950F93A8
:1041D0001F93482F50E0CA0185549F4FFC01249142
:1041E000CA0189559F4FFC0104914D565F4FFA015A
:1041F0001491112319F420E030E015C0222319F0A6
:10420000822F0E948720812F90E0880F991F875767
:104210009F4FFC01A591B4918C9120E030E0802368
:1042200011F021E030E0C9011F910F910895FC01C8
:10423000848195816817790748F40190F081E02D19
:10424000309721F0E60FF71F8081089580E00895F0
:10425000FC01848195816817790748F40190F08109
:10426000E02D309721F0E60FF71F8081089580E060
:104270000895FC0180819181009729F420E030E0CD
:1042800040E050E004C00E94A6029B01AC01B901CD
:10429000CA010895CF93DF93FC01DB0184819581EE
:1042A0004817590760F4C081D1816D917C91CE018E
:1042B000840F951F0E9415039C01009719F42FEF9E
:1042C0003FEF02C02C1B3D0BC901DF91CF91089538
:1042D000CF93DF93FC01848195814817590768F4D7
:1042E000C081D181772767FD7095CE01840F951F1E
:1042F0000E94F4029C01009719F42FEF3FEF02C0D7
:104300002C1B3D0BC901DF91CF91089540E050E097
:104310000E94682108950F931F93CF93DF93FC01B0
:104320008B0141155105F9F061157105E1F08481AA
:1043300095812817390718F0FB01108214C04150ED
:104340005040EC01C21BD30B4C175D0708F4EA0187
:1043500060817181620F731FC801AE010E94060364
:10436000C00FD11F1882DF91CF911F910F91089537
:104370000F931F93CF93DF93EC018B016F5F7F4F00
:10438000888199810E94B301009711F480E005C0F3
:10439000998388831B830A8381E0DF91CF911F91EA
:1043A0000F910895CF93DF93EC0188819981892B38
:1043B00029F08A819B818617970760F4CE010E94BD
:1043C000B821882341F08C819D81892B19F4E881E3
:1043D000F981108281E0DF91CF910895EF92FF92F1
:1043E0000F931F93CF93DF93EC017B016C817D8151
:1043F000E114F104C1F04115510599F08A01060F4D
:10440000171FB8010E94D221882369F08881998101
:104410002C813D81820F931FB7010E94FF021D83F3
:104420000C8381E001C080E0DF91CF911F910F915B
:10443000FF90EF900895EF92FF920F931F93DF93F9
:10444000CF93CDB7DEB727970FB6F894DEBF0FBE78
:10445000CDBF7C01CB018E010F5F1F4FB8014AE039
:1044600050E00E946103F80101900020E9F73197C4
:10447000E01BF10BC701B801AF010E94EE212796A6
:104480000FB6F894DEBF0FBECDBFCF91DF911F9165
:104490000F91FF90EF900895EF92FF920F931F936B
:1044A000DF93CF9300D000D0CDB7DEB77C01862F4D
:1044B00090E08E010F5F1F4FB8014AE050E00E946C
:1044C0006103F80101900020E9F73197E01BF10B3F
:1044D000C701B801AF010E94EE210F900F900F901D
:1044E0000F90CF91DF911F910F91FF90EF90089562
:1044F000DF93CF9300D0CDB7DEB769831A82BE01B8
:104500006F5F7F4F41E050E00E94EE210F900F90CF
:10451000CF91DF9108956115710511F480E0089540
:10452000DB010D900020E9F71197A61BB70BAD0139
:104530000E94EE210895FB016081718144815581C3
:104540000E94EE210895CF93DF93EC018881998139
:10455000009711F00E945B01198218821D821C8253
:104560001B821A82DF91CF910895EF92FF920F93F1
:104570001F93CF93DF93EC017B018A01BA010E9464
:10458000D221882321F4CE010E94A32207C01D83DB
:104590000C8388819981B7010E94FF02CE01DF91CF
:1045A000CF911F910F91FF90EF900895CF93DF93DC
:1045B000EC01198218821B821A821D821C821E82C3
:1045C0006115710551F0DB010D900020E9F711979D
:1045D000A61BB70BAD010E94B522DF91CF910895C4
:1045E0000F931F93182F092F6115710559F0DB01E7
:1045F0000D900020E9F71197A61BB70BAD010E94A3
:10460000B52202C00E94A322812F902F1F910F91EB
:104610000895EF92FF920F931F93DF93CF93CDB73F
:10462000DEB762970FB6F894DEBF0FBECDBF8C0128
:10463000CB01F8011182108213821282158214823A
:1046400016827E010894E11CF11CB70150E00E9423
:104650006103C801B7010E94F02262960FB6F89478
:10466000DEBF0FBECDBFCF91DF911F910F91FF90A5
:10467000EF900895EF92FF920F931F93DF93CF93E4
:10468000CDB7DEB729970FB6F894DEBF0FBECDBF0A
:104690008C01862FF80111821082138212821582FA
:1046A0001482168290E07E010894E11CF11CB7018F
:1046B00050E00E949F03C801B7010E94F022299692
:1046C0000FB6F894DEBF0FBECDBFCF91DF911F9123
:1046D0000F91FF90EF900895BF92CF92DF92EF92EB
:1046E000FF920F931F93CF93DF93082FB92E6B0187
:1046F0007A01E9012417350710F4EA017901802FC6
:104700009B2D6BE072E00E94D622D60114968D910B
:104710009C9115978E159F05D0F08C179D0708F476
:10472000EC01D601ED91FC911197EC0FFD1F10816A
:1047300010826D917C916E0D7F1D802F9B2D0E94AC
:10474000F022D601ED91FC91EC0FFD1F1083802F1C
:104750009B2DDF91CF911F910F91FF90EF90DF90F4
:10476000CF90BF9008950F931F938C01FB0124817C
:1047700035810E946C23C8011F910F910895CF933A
:10478000DF93EC01FB018617970761F0608171816F
:104790006115710529F0448155810E94B52202C03E
:1047A0000E94A322CE01DF91CF910895FC01808168
:1047B00091810E945B0108955058BB27AA270ED013
:1047C00009C1FAD030F0FFD020F031F49F3F11F44E
:1047D0001EF4EFC00EF4E095E7FBE5C0E92F0BD126
:1047E00080F3BA17620773078407950718F071F40E
:1047F0009EF523C10EF4E0950B2EBA2FA02D0B01D0
:10480000B90190010C01CA01A0011124FF27591B15
:1048100099F0593F50F4503E68F11A16F040A22F1B
:10482000232F342F4427585FF3CF4695379527958C
:10483000A795F0405395C9F77EF41F16BA0B620B8B
:10484000730B840BBAF09150A1F0FF0FBB1F661FD2
:10485000771F881FC2F70EC0BA0F621F731F841F15
:1048600048F4879577956795B795F7959E3F08F03B
:10487000B3CF9395880F08F09927EE0F97958795FA
:10488000089504D06894B111D9C00895BCD088F0BF
:104890009F5790F0B92F9927B751A0F0D1F0660F2C
:1048A000771F881F991F1AF0BA95C9F712C0B13047
:1048B00081F0C3D0B1E00895C0C0672F782F88275A
:1048C000B85F39F0B93FCCF3869577956795B39586
:1048D000D9F73EF490958095709561957F4F8F4FF5
:1048E0009F4F0895E89409C097FB3EF490958095FA
:1048F000709561957F4F8F4F9F4F9923A9F0F92FA6
:1049000096E9BB279395F695879577956795B79523
:10491000F111F8CFFAF4BB0F11F460FF1BC06F5F09
:104920007F4F8F4F9F4F16C0882311F096E911C01B
:10493000772321F09EE8872F762F05C0662371F03C
:1049400096E8862F70E060E02AF09A95660F771F50
:10495000881FDAF7880F9695879597F90895990F2C
:104960000008550FAA0BE0E8FEEF16161706E80739
:10497000F907C0F012161306E407F50798F0621B5A
:10498000730B840B950B39F40A2661F0232B242B2F
:10499000252B21F408950A2609F4A140A6958FEF4E
:1049A000811D811D089597F99F6780E870E060E0A0
:1049B00008959FEF80EC089500240A9416161706B8
:1049C00018060906089500240A9412161306140600
:1049D00005060895092E0394000C11F4882352F063
:1049E000BB0F40F4BF2B11F460FF04C06F5F7F4F1B
:1049F0008F4F9F4F089557FD9058440F551F59F002
:104A00005F3F71F04795880F97FB991F61F09F3FBB
:104A100079F087950895121613061406551FF2CFE4
:104A20004695F1DF08C0161617061806991FF1CF34
:104A300086957105610508940895E894BB2766275B
:104A40007727CB0197F908958ADF08F48FEF08954F
:104A50000BD0C0CFB1DF28F0B6DF18F0952309F0F6
:104A6000A2CFA7CF1124EACFC6DFA0F3959FD1F341
:104A7000950F50E0551F629FF001729FBB27F00D0C
:104A8000B11D639FAA27F00DB11DAA1F649F662761
:104A9000B00DA11D661F829F2227B00DA11D621FB0
:104AA000739FB00DA11D621F839FA00D611D221F6A
:104AB000749F3327A00D611D231F849F600D211D4E
:104AC000822F762F6A2F11249F5750408AF0E1F0F1
:104AD00088234AF0EE0FFF1FBB1F661F771F881F3A
:104AE00091505040A9F79E3F510570F05CCFA6CF82
:104AF0005F3FECF3983EDCF3869577956795B79525
:104B0000F795E7959F5FC1F7FE2B880F911D96954E
:104B1000879597F90895629FD001739FF001829F56
:104B2000E00DF11D649FE00DF11D929FF00D839F3C
:104B3000F00D749FF00D659FF00D9927729FB00DD9
:104B4000E11DF91F639FB00DE11DF91FBD01CF01EC
:104B500011240895AA1BBB1B51E107C0AA1FBB1F4C
:104B6000A617B70710F0A61BB70B881F991F5A95F9
:104B7000A9F780959095BC01CD01089597FB092E6A
:104B800007260AD077FD04D0E5DF06D000201AF40E
:104B9000709561957F4F0895F6F7909581959F4F99
:104BA0000895A1E21A2EAA1BBB1BFD010DC0AA1F6E
:104BB000BB1FEE1FFF1FA217B307E407F50720F086
:104BC000A21BB30BE40BF50B661F771F881F991F01
:104BD0001A9469F760957095809590959B01AC014A
:104BE000BD01CF010895EE0FFF1F0590F491E02D58
:104BF00009942F923F924F925F926F927F928F9281
:104C00009F92AF92BF92CF92DF92EF92FF920F935B
:104C10001F93CF93DF93CDB7DEB7CA1BDB0B0FB665
:104C2000F894DEBF0FBECDBF09942A883988488822
:104C30005F846E847D848C849B84AA84B984C884B8
:104C4000DF80EE80FD800C811B81AA81B981CE0FAF
:104C5000D11D0FB6F894DEBF0FBECDBFED01089594
:104C600010E0C4EDD0E004C0FE010E94F5252296BC
:0A4C7000C63DD107C9F7F894FFCF45
:104C7A000041530025303258003030003000433DA7
:104C8A00004C4C3D004C483D00534C3D0053483DC0
:104C9A00004D53003D00443D0043503D0053503DFC
:104CAA00004F004D430050004D550053796E633A52
:104CBA002000202D3E2053796E63466163743A20AA
:104CCA00002C20436C6F636B3A20002C20546F6CCD
:104CDA003A20002C20506174744C656E3A200020F2
:104CEA00002C2050756C73653A20002C20002C2073
:104CFA006D53746172743A20005369676E616C3A3D
:104D0A0020002E2000205B005D00506174746572E3
:104D1A006E3A20002050003A20002A5B00005550CD
:104D2A00442046696C746572003B433D003B534620
:104D3A003D003B004954506172616D733A20002076
:104D4A00005620332E322E302D6232205349474EE0
:104D5A00414C6475696E6F202D20636F6D70696CAC
:104D6A006564206174204E6F762020352032303100
:104D7A00352032323A35333A3132000020005305B9
:104D8A000000062C01000000000310950796073B5F
:104D9A0011000000000310950796079C0A00000006
:104DAA000005079507960797070000000000000214
:104DBA000000000000331CEC1CC91BFA1BDA1B2381
:024DCA001C00CB
:00000001FF
