:100000000C9477000C94D7130C94FE130C949F005F
:100010000C949F000C949F000C949F000C949F00E4
:100020000C949F000C949F000C949F000C949F00D4
:100030000C949F000C9454080C949F000C949F0007
:100040000C9425140C949F000C94E9160C941B1727
:100050000C949F000C949F000C949F000C949F00A4
:100060000C949F000C949F003B4D433D003B4D552D
:100070003D004D533D00556E737570706F72746521
:100080006420636F6D6D616E640020557365206F31
:100090006E65206F6620000000000800020100006D
:1000A0000304070000000000000000010204081023
:1000B00020408001020408102001020408102004DE
:1000C00004040404040404020202020202030303FF
:1000D00003030300000000250028002B000000009F
:1000E00000240027002A0000EE074B1731081124D6
:1000F0001FBECFEFD8E0DEBFCDBF12E0A0E0B1E081
:10010000E6EEF7E402C005900D92AE31B107D9F7E3
:1001100024E0AEE1B2E001C01D92AD39B207E1F7D3
:1001200010E0CCEED0E004C02297FE010E94121E27
:10013000C83ED107C9F70E9492170C94E6230C948D
:100140000000609131028DE00E946E151092310224
:100150000895CF92DF92EF92FF920F931F930E9428
:100160007B140091270210912802209129023091DE
:100170002A026B017C01C01AD10AE20AF30A970134
:10018000860160932702709328028093290290933E
:100190002A020A3511052105310578F181E0C816DA
:1001A0008DE7D806E104F10410F4960102C021E0C5
:1001B0003DE74A9B03C031952195310980916E033B
:1001C0008931D8F480916E038F5F80936E038091A4
:1001D0006F0360916D030E947D1D90936F03E0910A
:1001E0006F03F0E0EE0FFF1FEF58FC4F31832083C9
:1001F00080916F038F5F80936F031F910F91FF902A
:10020000EF90DF90CF9008958BE292E00E943A1930
:1002100086E693E00E943A1980E693E00C943A193E
:10022000CF93DF93EC01FB01248135810E947D1B7C
:10023000CE01DF91CF91089541E050E069EA70E08E
:1002400080E00C94A51380E00C94C513CF93DF934A
:100250001F92CDB7DEB72B9A20910601309107018E
:10026000482F429FC001439F900D112469830E9433
:10027000C6142B9880910601909107016981FC01B9
:100280006E9FC0016F9F900D11240F90DF91CF9151
:100290000C94C614EF92FF920F931F93CF93DF93AA
:1002A000F82EE92E0E94230100E010E020910801C1
:1002B00030E0021713072CF56FE181E00E94260160
:1002C000CF2DDE2D29912223C9F0213371F0263460
:1002D00049F02033B9F763E081E00E94260163E032
:1002E00081E009C063E081E002C061E083E00E9438
:1002F000260161E083E00E942601E4CF0F5F1F4FDB
:10030000D5CFDF91CF911F910F91FF90EF900C947B
:100310001C012F923F924F925F926F927F928F9229
:100320009F92AF92BF92CF92DF92EF92FF920F9384
:100330001F93CF93DF93A82E6B01342E252E4901F6
:100340000E947B142B013C01B12C00E010E0B801AD
:100350006A0D7B1DC616D70658F1C4010E94351BD5
:100360008053E32DF22DE80FF11DE80FF11DC08140
:10037000D1817E01D7FF04C0EE24FF24EC1AFD0AD0
:100380000E947B146415750586059705C8F3D7FF91
:1003900002C02B9801C02B9AC701AA2797FDA095F0
:1003A000BA2F480E591E6A1E7B1E0F5F1F4FCFCFFC
:1003B0000E947B146415750586059705C8F3DF91C7
:1003C000CF911F910F91FF90EF90DF90CF90BF9052
:1003D000AF909F908F907F906F905F904F903F90E5
:1003E0002F9008954F925F926F927F928F929F927B
:1003F000AF92BF92CF92DF92EF92FF920F931F9333
:10040000CF93DF93982E862E2A012B9A0E947B147D
:100410006B017C01662457FC6094762C891408F4E7
:1004200046C0692D70E08BE292E00E94351B90ED92
:10043000980F9A3010F4892F01C08753C4E0D0E0A0
:1004400008E0A82EBB24A7FCB0940E947B146C1576
:100450007D058E059F05C8F310E098012A213B21F8
:10046000232B71F02B98C40CD51CE61CF71C0E94A2
:100470007B146C157D058E059F05C8F32B9A0DC066
:100480002B9AC40CD51CE61CF71C0E947B146C151F
:100490007D058E059F05C8F32B98C40CD51CE61C62
:1004A000F71C15950795219781F69394B7CF0E9475
:1004B0007B146C157D058E059F05C8F3DF91CF91E8
:1004C0001F910F91FF90EF90DF90CF90BF90AF9072
:1004D0009F908F907F906F905F904F900895CF92F4
:1004E000DF92EF92FF920F931F93CF93DF9300D091
:1004F00000D000D0CDB7DEB78C016B01FC01E080ED
:10050000F1806DE071E0CE0101960E94A819A7016B
:10051000BE016F5F7F4F8BE292E00E94611B7C0106
:10052000CE0101960E943A19FFEFEF16FF0601F186
:10053000F801408151814F3FFFEF5F07C9F09701FC
:100540006BE272E0CE0101960E947D1BBE016F5FDF
:100550007F4FC6010E94F419CE0101960E943A19FC
:100560008FEFE81AF80AF801F182E08281E001C019
:1005700080E026960FB6F894DEBF0FBECDBFDF91A8
:10058000CF911F910F91FF90EF90DF90CF90089542
:10059000BF92CF92DF92EF92FF920F931F93CF9370
:1005A000DF93CDB7DEB7C856D1090FB6F894DEBFDA
:1005B0000FBECDBF6FE072E0CE018F599F4F0E94FA
:1005C000A8196EE170E0CE018F599F4F0E946B1900
:1005D000A9961FAE1EAEA9970E9423011FEF01E04E
:1005E00042E1F42E59E0E52E62E0D62ECC24C394ED
:1005F000BE016F597F4FCE0189599F4F0E946F02F4
:10060000882309F44FC060E070E0CE018F599F4FFE
:100610000E94351B833589F561E070E0CE018F596A
:100620009F4F0E94351B833419F361E070E0CE01C7
:100630008F599F4F0E94351B8D3459F41F5FE1E0A5
:10064000F0E0EC0FFD1FF19EE00DF11D1124C282C0
:10065000CFCF61E070E0CE018F599F4F0E94351BD4
:10066000823531F61F5FE1E0F0E0EC0FFD1FF19EF7
:10067000E00DF11D1124D282BBCF60E070E0CE010D
:100680008F599F4F0E94351B803509F068C062E08A
:1006900070E0CE018F599F4F0E94351B8D3309F0BA
:1006A0005EC082C0B12C32E1C32EB016D1F1D12C84
:1006B000ED2CF12CCE9CA001CF9C500D1124E1E03B
:1006C000F0E0EC0FFD1FE40FF51F8281823079F41A
:1006D0004A5F5F4F21E030E02C0F3D1F420F531F58
:1006E000648175812BE232E083810E948901CE9C76
:1006F000F001CF9CF00D112481E090E08C0F9D1F44
:10070000E80FF91F8281813031F440815181648189
:1007100083810E94F2012B98D3941D1548F6B3945F
:10072000C4CF0E941C016BE272E08CEF93E00E9448
:100730002D18CE018F599F4F0E943A19C859DF4F8B
:100740000FB6F894DEBF0FBECDBFDF91CF911F91E2
:100750000F91FF90EF90DF90CF90BF90089560E0F1
:1007600070E0CE018F599F4F0E94351B823509F0F2
:1007700050C061E070E0CE018F599F4F0E94351B41
:100780008D3309F046C042E050E0BE016F597F4F03
:10079000CE01855A9F4F0E941001CE01855A9F4F6E
:1007A0000E94C21B062F82C022E030E041E050E0F0
:1007B000BE016F597F4FCE01855A9F4F0E947D1B0E
:1007C000CE01855A9F4F0E94C21BB62ECE01855A7C
:1007D0009F4F0E943A1943E050E0BE016F597F4F8E
:1007E000CE01855A9F4F0E941001CE01855A9F4F1E
:1007F0000E94C21BE19EF0011124EB0DF11D339606
:10080000EE0FFF1F21E030E02C0F3D1FE20FF31F22
:100810004BC060E070E0CE018F599F4F0E94351BA6
:100820008434B9F4A9968EAD9FADA997E1E0F0E0CC
:10083000EC0FFD1FF19EE00DF11D112421E0280FAA
:10084000A6963FADA697231B2383029795838483A7
:10085000CFCE60E070E0CE018F599F4F0E94351BD4
:10086000833409F0C5CE61E070E0CE018F599F4F0F
:100870000E94351B8D3309F0BBCE42E050E0BE0133
:100880006F597F4FCE01855A9F4F0E941001CE01B4
:10089000855A9F4F0E94C21BE1E0F0E0EC0FFD1F64
:1008A000F19EE00DF11D112471836083CE01855A04
:1008B0009F4F0E943A199CCE62E770E08CEF93E064
:1008C0000E94DF176091350270E04AE050E08CEF43
:1008D00093E00E94F4186DE670E08CEF93E00E94C4
:1008E000DF176091330270E04AE050E08CEF93E054
:1008F0000E94F41868E670E08CEF93E00E94DF1726
:100900006091340270E04AE050E08CEF93E00C9488
:10091000FC18CF93DF93CDB7DEB7AE970FB6F89440
:10092000DEBF0FBECDBF61E070E08BE292E00E94BF
:10093000351B843729F161E070E08BE292E00E9480
:10094000351B823721F542E050E06BE272E0CE01C8
:1009500001960E94100120E030E043E050E0BE012B
:10096000675D7F4FCE0101960E94371BCE01019635
:100970000E943A19CE0189960E94072080930801AF
:100980006BE272E08CEF93E00E942D1895C061E05D
:1009900070E08BE292E00E94351B8337F1F42B9AD2
:1009A00042E050E06BE272E0CE0189960E941001B5
:1009B00020E030E048E250E0BE016F5F7F4FCE01A3
:1009C00089960E94371BCE0189960E943A19CE0162
:1009D00001960E944A012B98D3CF61E070E08BE230
:1009E00092E00E94351B8336A9F442E050E06BE2AE
:1009F00072E0CE0101960E941001CE0101960E9484
:100A0000C21B7093070160930601CE0101960E94FC
:100A10003A19B6CF61E070E08BE292E00E94351B9C
:100A2000803709F049C06FE072E0CE0189960E94DC
:100A3000A81964E170E0CE0189960E946B196FE0FD
:100A400071E0CE0189960E94001A4AE06091080187
:100A5000CE0101960E94181ABE016F5F7F4FCE0132
:100A600089960E949D1ACE0101960E943A1967E963
:100A700071E0CE0189960E94A41A609106017091DE
:100A800007014AE0CE0101960E94451ABE016F5F40
:100A90007F4FCE0189960E949D1ACE0101960E9439
:100AA0003A19BE01675D7F4F8CEF93E00E942D18CD
:100AB000CE0189960E943A19AE960FB6F894DEBF21
:100AC0000FBECDBFDF91CF910895CF93DF9300D0BC
:100AD000CDB7DEB72091990430919A0421153105E4
:100AE00011F42DE934E0CE010196821B930B0F9097
:100AF0000F90DF91CF910895CF92DF92EF92FF9206
:100B00000E946F146B017C0128EE33E040E050E05E
:100B10000E94B11D8091200290912102A091220299
:100B2000B0912302C816D906EA06FB0648F4809164
:100B30001E0290911F02019690931F0280931E0245
:100B4000C0922002D0922102E0922202F09223026F
:100B5000CA01B901FF90EF90DF90CF9008956AE14C
:100B600071E08CEF93E00E943F1861E070E080E05C
:100B700090E00C949E1461E070E08BE292E00E94A1
:100B8000351B813511F40E94230161E070E08BE296
:100B900092E00E94351B853411F40C941C010895D9
:100BA000262F220F330B94E04902B0011124682B49
:100BB000622B81E090E00C94EB22CF93DF9361E015
:100BC00070E08BE292E00E94351B873421F4DF91C4
:100BD000CF910C945C0462E070E08BE292E00E94A2
:100BE000351B833599F062E070E08BE292E00E9461
:100BF000351B853571F062E070E08BE292E00E9477
:100C0000351B833441F4C4E3D2E005C0C5E3D2E030
:100C100002C0C3E3D2E061E070E08BE292E00E94A8
:100C2000351B853419F481E0888309C061E070E0E8
:100C30008BE292E00E94351B843459F41882409173
:100C400034026091330280913502DF91CF910C9490
:100C5000D005DF91CF91089560E070E08BE292E0E3
:100C60000E94351B803511F40C94AF0560E070E0F4
:100C70008BE292E00E94351B8F3309F072C06FE364
:100C80008CEF93E00E9410186AE870E08CEF93E01C
:100C90000E94DF1766E58CEF93E00E94101860E277
:100CA0008CEF93E00E94101869E68CEF93E00E94AD
:100CB000101860E28CEF93E00E94101862E58CEF50
:100CC00093E00E94101860E28CEF93E00E941018ED
:100CD00064E78CEF93E00E94101860E28CEF93E0E1
:100CE0000E94101868E58CEF93E00E94101860E2F3
:100CF0008CEF93E00E94101866E48CEF93E00E9462
:100D0000101860E28CEF93E00E94101863E58CEFFE
:100D100093E00E94101860E28CEF93E00E9410189C
:100D200060E58CEF93E00E94101860E28CEF93E096
:100D30000E94101863E48CEF93E00E94101860E2A8
:100D40008CEF93E00E94101867E48CEF93E00E9410
:100D5000101860E28CEF93E00E9410186FE072E0D0
:100D60000AC060E070E08BE292E00E94351B86359D
:100D700031F46DE171E08CEF93E00C943F1860E08A
:100D800070E08BE292E00E94351B823549F40E94AC
:100D900065054AE050E0BC018CEF93E00C94FC1830
:100DA00060E070E08BE292E00E94351B893641F4EE
:100DB00082E392E00E94D508892B81F40C94890487
:100DC00060E070E08BE292E00E94351B833561F4B5
:100DD00082E392E00E94D508892B21F081E0809384
:100DE000260208950C94C80260E070E08BE292E065
:100DF0000E94351B843751F40E947C05AB01BC0175
:100E00002AE030E08CEF93E00C94281960E070E069
:100E10008BE292E00E94351B883511F40C94BB05DF
:100E200060E070E08BE292E00E94351B8634D1F0E6
:100E300060E070E08BE292E00E94351B833411F495
:100E40000C94DD0560E070E08BE292E00E94351BBF
:100E5000873411F40C945C0466E770E08CEF93E047
:100E60000C941B180895CF9380912602882389F053
:100E7000109226020E942C0680912602811106C043
:100E80006FE072E08BE292E00E94001A81E08093B2
:100E90003102C1E080916E03882349F180916E0395
:100EA000815080936E038091700360916D030E9466
:100EB0007D1D90937003E091700381E08E0F80930D
:100EC0007003F0E0EE0FFF1FEF58FC4F808191811F
:100ED000909325028093240264E272E082E392E020
:100EE0000E9483138823B1F2C0933102D3CFCF91F4
:100EF0000895EF92FF920F931F93CF93DF93EC012E
:100F00007B018A0181E090E00E94E322982F91709A
:100F1000988381FB992790F9F701908382FB8827BA
:100F200080F9F8018083DF91CF911F910F91FF909D
:100F3000EF90089526E040E051EE60E070E08CEF25
:100F400093E00E94871660E082E00E94351561E020
:100F50008BE00E94351561E08DE00E94351580E13F
:100F6000809381001092800082E08093A50388E145
:100F700099E79093A7038093A603909387008093AB
:100F8000860082E18093810081EA90E09093A4033F
:100F90008093A30381E080936F0080E090E00E9443
:100FA000E3228B3049F444E352E063E372E085E3EB
:100FB00092E00E9479070AC06BE080E090E00E9416
:100FC000EB2267E081E090E00E94EB220E941C018E
:100FD00064E170E08BE292E00C946B190F931F9325
:100FE000CF93DF9389E180936D0310926E0310928B
:100FF000700310926F03C5E4D3E0D0934A03C0930B
:10100000490307E413E010934C0300934B036FE094
:1010100072E080E693E00E94A8196FE072E086E635
:1010200093E00E94A819F801118210821982188297
:1010300082E392E00E9493086FE072E08BE292E01C
:101040000E94A8190E947B146093270270932802C3
:101050008093290290932A02DF91CF911F910F91E3
:1010600008950C940401CF93C1E08CEF93E00E94AB
:10107000A415892BB9F08CEF93E00E94BD158A303E
:1010800041F01CF4882329F007C08D3011F0833221
:1010900019F4C0932602E9CF682F8BE292E00E94F8
:1010A000B41AE3CFCF9108951F920F920FB60F920B
:1010B00011242F933F934F935F936F937F938F935D
:1010C0009F93AF93BF93EF93FF93E091A303F091AE
:1010D000A4030995FF91EF91BF91AF919F918F91DB
:1010E0007F916F915F914F913F912F910F900FBE24
:1010F0000F901F9018950895FC01E85FFE4F408106
:10110000A42FB0E0262F30E02A173B075CF4461BE3
:10111000408350E0B901665F7F4F680F791F0A96E0
:101120000C9455200895FC01E85FFE4F1082B396A1
:101130001082319610827C97108231961182108233
:101140007C962FEF2083FC012083AC0120E030E06F
:10115000FA01E15EFE4F11821082FC01E20FF31FE3
:1011600014822F5F3F4F4E5F5F4F2630310581F76E
:10117000FC01E55FFE4F1082339626E930E03183B3
:1011800020833D964DEC5CEC6CE47EE34083518320
:101190006283738372971082339610823196108225
:1011A000BD961082F0971082089580E090E0089537
:1011B000CF93DF93FC01E55DFE4FD081C0E07D97CA
:1011C000CD17C1F0DC01A15EBE4F2D913C91AB016A
:1011D000421B530B9A0157FF03C0319521953109EA
:1011E0000296408151814217530714F08C2F03C09F
:1011F000CF5FE6CF8FEFDF91CF910895FC0114828E
:1012000015821682178210861186411104C0DC01F6
:10121000A85FBE4F4C91641780F4DF01A60FB11D8B
:101220001A968C91DF01A80FB11D14968C9114971A
:101230008F5F14968C936F5FEECF08952F923F923D
:101240004F925F926F927F928F929F92AF92BF92D6
:10125000CF92DF92EF92FF920F931F93CF93DF9382
:10126000CDB7DEB72E970FB6F894DEBF0FBECDBF59
:101270009E878D8740E060E00E94FE08ED85FE8538
:10128000E55DFE4F40814983712C8D859E85855E8D
:101290009E4F9A878987AD85BE85A85FBE4FBC8764
:1012A000AB878981781609F4CCC0B1E0B70DBA8359
:1012B0006B2E272D30E0C901880F991FED85FE8523
:1012C0008E0F9F1FAC01415E5E4F5E834D832F01E9
:1012D000420E531E54E0450E511C8D819E8198870D
:1012E0008F835981651609F4AAC0262C312CD101AF
:1012F000AA0FBB1FBC83AB83FD014D855E85E40F48
:10130000F51FE15EFE4F00811181C80117FF04C087
:1013100088279927801B910BBC01882777FD809532
:10132000982F0E94661CA985BA852D913D914D91FB
:101330005C910E941A1D4B015C01ED81FE81C08011
:10134000D1807801EC18FD08F7FE03C0F194E19418
:10135000F10820E030E040E05FE3C501B4010E9405
:101360001A1D9B01AC01C501B4010E94CF1B0E9454
:10137000331C6E157F050CF460C0AB85BC852C91C9
:1013800080E090E0821750F4ED85FE85E80FF91FAC
:101390003285361101C072860196F4CFD201EC91EC
:1013A000AD85BE85A20DB31D14962C91332727FD64
:1013B0003095FF27E7FDF095BF01620F731F6115A0
:1013C0007105D1F4029FC001039F900D129F900DF3
:1013D00011240E949D1D8B019601DF010E94F21DC8
:1013E00020E030E0A9010E94D31D020F131FEF81FE
:1013F000F8851183008317C0B601882777FD809593
:10140000982F222717FD2095322F600F711F821F02
:10141000931F22E030E040E050E00E94D31DAF81F6
:10142000B8852D933C93EB81FC814D855E85E40F5F
:10143000F51FE15EFE4F11821082639452CF7A80D5
:1014400030CF2E960FB6F894DEBF0FBECDBFDF9122
:10145000CF911F910F91FF90EF90DF90CF90BF90B1
:10146000AF909F908F907F906F905F904F903F9044
:101470002F9008953F924F925F926F927F928F923A
:101480009F92AF92BF92CF92DF92EF92FF920F9313
:101490001F93CF93DF93EC018FEF8883FE01E55D0F
:1014A000FE4F30806E0100E010E0EE24EA94FE2C46
:1014B0004E0188EF881A8EEF980A031508F06AC06B
:1014C000F601E15EFE4F5F01FFEFEF16FF0639F513
:1014D000F5018081918197FD22C0FE01E00FF11F8F
:1014E0006481772767FD7095872F972F0E94661C70
:1014F0002B013C01F401608170E080E090E00E94EB
:10150000661C2BE734E14EE25EE30E941A1D9B014C
:10151000AC01C301B2010E94161D1816A4F1F50119
:101520002081318137FD30C0C701880F991F8C0F92
:101530009D1FFC01E15EFE4F8081918128173907D4
:101540001CF5FE01E00FF11F6481772767FD7095A0
:10155000872F972F0E94661C2B013C01F4016081AC
:1015600070E080E090E00E94661C2BE734E14EE2E0
:101570005EE30E941A1D9B01AC01C301B2010E94EF
:10158000161D18160CF478010F5F1F4FF2E0CF0EF6
:10159000D11C93CF8FEFE816F80641F0E882CF5EBA
:1015A000DE4F81E090E09983888301C080E0DF9185
:1015B000CF911F910F91FF90EF90DF90CF90BF9050
:1015C000AF909F908F907F906F905F904F903F90E3
:1015D00008958F929F92AF92BF92CF92DF92EF9237
:1015E000FF920F931F93CF93DF93FC018C010F5E4B
:1015F0001E4FD8018D919C911197019709F07DC0E4
:101600005A96BC90BA94B7E0AB2E6F01B8EFCB1AE4
:10161000BEEFDB0AB7FC71C02B2D332727FD3095B9
:10162000C901880F991F8E0F9F1FDC01A15EBE4F5D
:10163000CD91DC91D7FF5FC0D195C195D109C83656
:1016400082E4D80708F057C0E080FF24E7FCF0945C
:10165000C701880F991F8E0F9F1FDC01A15EBE4F2F
:101660008D909C90CE01B4010E94891D6832710555
:1016700008F041C0A89CC001A99C900D11248C17B2
:101680009D07C8F5DF01A20FB31F14968C918250FD
:10169000863088F5D6014C9150E0BA01615071094D
:1016A000912C892D90E08617970784F4DF01A80F0D
:1016B000B91F1B96CC911B97D0E0C217D307C9F472
:1016C0001A96AC91B0E0AE15BF0599F44852510995
:1016D0008417950784F4DF01A35DBE4FBC9282E0BE
:1016E00090E0D8018D939C93E75FFE4F908281E05C
:1016F00009C09394D6CFBA948DCFE35DFE4F8FEFA0
:10170000808380E0DF91CF911F910F91FF90EF9048
:10171000DF90CF90BF90AF909F908F9008950F93E0
:101720001F93CF93DF938A01E9018CEF93E00E942E
:101730000218B8018CEF93E00E940218BE018CEFF2
:1017400093E0DF91CF911F910F910C940218EF92CB
:10175000FF920F931F93CF93DF93EC01F62EE42EAD
:10176000B9018CEF93E00E940218EF1460F0FE01C3
:10177000EF0DF11D4AE050E062858CEF93E00E948E
:101780002119F394F2CFB8018CEF93E00E94021874
:1017900080E0DF91CF911F910F91FF90EF9008951E
:1017A00070E0FC0122AD332727FD309562177307E7
:1017B00051F023AD332727FD309581E06217730781
:1017C00019F080E0089581E0089570E0FC0124ADF7
:1017D000332727FD30956217730751F025AD332766
:1017E00027FD309581E06217730719F080E00895B6
:1017F00081E008959F92AF92BF92CF92DF92EF92D5
:10180000FF920F931F93CF93DF9300D01F92CDB71A
:10181000DEB78C017B0120E330E340E029833A838B
:101820004B83FC0162A9F3E06F9FB0011124C70153
:101830000E946B19E114F10449F1912C8FECA82E50
:1018400081E0B82ECE0101966C01F80182A99816AC
:10185000E8F4F80187A9981620F4E90DF11D8081BC
:1018600001C08FEF1F928F93BF92AF92DF92CF9202
:101870000E94EF20B601C7010E94A41A93940F9012
:101880000F900F900F900F900F90DFCF0F900F9051
:101890000F90DF91CF911F910F91FF90EF90DF900C
:1018A000CF90BF90AF909F9008950F931F93CF93C9
:1018B000DF938C01EB0160E270E0CE010E946B19B6
:1018C000209709F468C064ED71E0CE010E94A41A6B
:1018D000F80180AD91AD22AD220F330B820F931F23
:1018E000FC01E15EFE4F60817181CE010E94F31A1E
:1018F0006BE3CE010E94B41A68ED71E0CE010E9444
:10190000A41AF80180AD91AD23AD220F330B820FE5
:10191000931FFC01E15EFE4F60817181CE010E9448
:10192000F31A6BE3CE010E94B41A6CED71E0CE01A4
:101930000E94A41AF80180AD91AD24AD220F330BA3
:10194000820F931FFC01E15EFE4F60817181CE0129
:101950000E94F31A6BE3CE010E94B41A60EE71E0AC
:10196000CE010E94A41AF80180AD91AD25AD220FE1
:10197000330B820F931FFC01E15EFE4F608171818A
:10198000CE010E94F31A6BE3CE01DF91CF911F913C
:101990000F910C94B41ADF91CF911F910F9108957C
:1019A0000F931F93CF93DF938C01EB0167E070E0FF
:1019B000CE010E946B19209799F064EE71E0CE0180
:1019C0000E94A41AF80166AD77ADCE010E94F31A09
:1019D0006BE3CE01DF91CF911F910F910C94B41A5C
:1019E000DF91CF911F910F9108954F925F926F9267
:1019F0007F928F929F92AF92BF92CF92DF92EF929F
:101A0000FF920F931F93CF93DF93EC0108AD19ADB5
:101A1000580185EDA81A8EEFB80AF501808184304F
:101A200008F4CCC06801F8EFCF1AFEEFDF0AF60128
:101A3000608170E080E090E00E94661C2AE037ED53
:101A400043E25DE30E941A1D0E94381C40E050E012
:101A5000912C812CEE24EA94FE2C262F30E0F50107
:101A60008081481708F06BC0642F70E0F801E60F22
:101A7000F71FE4818E2F992787FD90958217930792
:101A80000CF45BC0660F771F600F711FDB01A15E56
:101A9000BE4F6D917C91161617064CF55E0F839420
:101AA000E60EF71EEBADEF3F69F08E2F880F990B16
:101AB000800F911FDC01A15EBE4F8D919C91861716
:101AC00097070CF4E42FEBAFEDADEF3F69F08E2FED
:101AD000880F990B800F911FDC01A15EBE4F8D9185
:101AE0009C91681779070CF4E42FEDAF26C05E1BBC
:101AF0009394EAADEF3F69F08E2F880F990B800F1A
:101B0000911FDC01A15EBE4F8D919C9168177907F2
:101B10000CF4E42FEAAFECADEF3F69F08E2F880FA5
:101B2000990B800F911FDC01A15EBE4F8D919C919E
:101B3000861797070CF4E42FECAF4F5F90CF652F1B
:101B400070E080E090E00E94661C2B013C01F601F1
:101B5000608170E080E090E00E94661C2AE037ED32
:101B600043EA5CE30E941A1D9B01AC01C301B20170
:101B70000E94161D181614F1981020C0C70163E0CA
:101B800070E00E949D1D7FAF6EAF3AAD3F3FB1F058
:101B90009CAD9F3F99F0391789F02BAD2F3F71F025
:101BA0008DAD8F3F59F0281749F0321739F098174B
:101BB00029F0381719F081E0291301C080E0DF9186
:101BC000CF911F910F91FF90EF90DF90CF90BF903A
:101BD000AF909F908F907F906F905F904F900895FF
:101BE000FC0187A92E2FDF019A2F921B981710F462
:101BF0001D92FACF12AA13AA87E086AB08952FEFA1
:101C0000FC0122AF23AF24AF25AFE05CFF4F24E1FE
:101C100020830C94F00D2F923F924F925F926F921F
:101C20007F928F929F92AF92BF92CF92DF92EF926C
:101C3000FF920F931F93CF93DF93EC0188AD99AD83
:101C4000FC01E45FFE4F108233971082212C7E014D
:101C500021E4E20EF11C442443948E010E5B1F4FDD
:101C60004E0180E4880E911CC8ACD9ACF601E85F47
:101C7000FE4F8081281608F0B2C0F70180818111E3
:101C800010C0F601E20DF11DB2846B2DCE010E9451
:101C9000D00B8111F4C06B2DCE010E94E50B811198
:101CA000EEC0F701B08068AC79ACBB2089F1F801D7
:101CB000808181112DC0C301885F9E4F6C01F301AB
:101CC000E20DF11DA2846A2DCE010E94D00B81117C
:101CD00005C0F6018081281608F4DCC0222DF6012B
:101CE00080812816A8F4C3018A0D911D8A0D911DCB
:101CF000FC01E15EFE4F5180551C5524551CF3013B
:101D0000E75FFE4F2080221909F0C0C0F801408231
:101D1000F8018081882309F460C0BB2009F45DC00C
:101D2000C22CD12C5301AC0CBD1CF5013284632DA7
:101D3000CE010E94D00B882311F054241CC0632DC7
:101D4000CE010E94E50B382E882309F4A5C0F301CB
:101D5000E85FFE4F208130E021503109C216D306E2
:101D60000CF09AC0F5016385CE010E94E50B882333
:101D700009F492C02394F8018081882371F18AA923
:101D80009FA9891750F54EA95BA9473041F4552307
:101D900031F08F5F8AABFE01E80FF11D10822AA996
:101DA000842F90E0FE01E20FF11D252D332727FD42
:101DB0003095042E01C0220F0A94EAF73081322BAD
:101DC00030835F5F5BAB2CA9821B910997FD03C039
:101DD000421B4EAB02C0F7E0FEAB239445CF3296D8
:101DE000208288AD99AD2EEF221224C0FC01E85F5D
:101DF000FE4F20812E3FF1F4319660816230D0F0A9
:101E00004BA950E0FE01E05CFF4F208127FD2F5FD2
:101E10002595332727FD3095241735075CF40E945C
:101E20007C0888AD99ADFC01E45FFE4F21E0208382
:101E3000BE9614C0FC01E85FFE4F2081221210C044
:101E4000DC01A75FBE4F2C9121110AC0D19621E081
:101E50002C931082E8ADF9ADE45FFE4F20830DC0F6
:101E60004BA950E0C05CDF4F2881332727FD309518
:101E700081E0421753070CF067C080E065C0F601AF
:101E8000E75FFE4F2082F70140820BCF20FF3ECF5D
:101E900023943CCF239413CF8BA990E0F4012081AD
:101EA000332727FD309582179307D4F4332081F030
:101EB000F301E85FFE4F808190E00197C816D906D4
:101EC0003CF4F5016385CE010E94E50B882381F186
:101ED000F7011082F8011082CE010E94F00D4BCF65
:101EE000F301E65FFE4F208208AD19ADF801EC0D5D
:101EF000FD1D6285CE010E94E50B882319F0FDEFE0
:101F00002F16D9F088AD99ADFC01E65FFE4F6081D8
:101F10000E947C08E8ADF9ADE45FFE4F81E080836C
:101F20004BA950E0F4012081332727FD3095A1CF44
:101F3000F301E75FFE4F2080CBCFF801E65FFE4F55
:101F4000808181508083DECFDF91CF911F910F91EF
:101F5000FF90EF90DF90CF90BF90AF909F908F90C9
:101F60007F906F905F904F903F902F9008953F9299
:101F70004F925F926F927F928F929F92AF92BF9299
:101F8000CF92DF92EF92FF920F931F93CF93DF9345
:101F9000CDB7DEB728970FB6F894DEBF0FBECDBF22
:101FA0007C015C0186ECA81A8EEFB80AF5018081ED
:101FB000811105C0F2978081883208F4A8C24701D8
:101FC000F5EF8F1AFEEF9F0AF4011082C7010E94FD
:101FD0001E0940E060E0C7010E94FE08C7010E94A0
:101FE0003A0AC7010E94E90AF7018381882309F4AC
:101FF0001EC1EF5EFE4F80819181029709F017C1EB
:102000006701F8EFCF1AFEEFDF0AF6017081783230
:1020100008F40DC13701F7EF6F1AFEEF7F0AF301E5
:1020200060815701F6EFAF1AFEEFBF0A82E0860F1C
:10203000F5018083872F90E00197D701A35DBE4F04
:10204000F5011081212F30E028173907FCF4F70142
:10205000E20FF31F438550E02C91332727FD309585
:102060004217530779F4428550E0F7012081332766
:1020700027FD30954217530729F41150F5011083BD
:1020800011E005C01E5FF5011083DACF10E0F50105
:102090008081781708F47083F5014081C7010E94A0
:1020A000FE08112351F0F501808190E0F3012081B9
:1020B000821B9109889734F4B6C0F60180818E3F67
:1020C00008F09EC06701F2EDCF1AFEEFDF0A6FE065
:1020D00072E0C6010E94001A87010C5C1E4F6FE07F
:1020E00072E0C8010E94001A62E0C6010E94B41AA0
:1020F00067EE71E0C6010E94A41A6BE3C6010E945C
:10210000B41A312CC701855D9E4F98878F83EF816C
:10211000F8858081381638F5432C512CF701E40DF1
:10212000F51D84818823E9F060E5C6010E94B41A98
:10213000632DC6010E94C71A65EE71E0C6010E94B8
:10214000A41A440C551C4E0C5F1CF201E15EFE4FBC
:1021500060817181C6010E94F31A6BE3C6010E947F
:10216000B41A3394D4CF6AEE71E0C6010E94A41A67
:102170006BE3C8010E94B41A6DEE71E0C8010E94C1
:10218000A41AF7016081772767FD7095C8010E9446
:10219000F31A6BE3C8010E94B41A61EF71E0C80141
:1021A0000E94A41AF701E35DFE4F6081772767FD67
:1021B0007095C8010E94F31A6BE3C8010E94B41A1B
:1021C000F701E35FFE4F8081882349F065EF71E0FE
:1021D000C8010E94A41A6BE3C8010E94B41A63E00C
:1021E000C8010E94B41A6AE0C8010E94B41A96019C
:1021F000F5014081F3016081C7010E94A70B82C1F4
:10220000F3016081623078F0F501808190E08D3FCC
:1022100091054CF0C7010E947C0881E0F701E45F62
:10222000FE4F808374C1C7010E94930870C1F701FB
:102230008181811104C08281882309F466C167010C
:10224000F2EDCF1AFEEFDF0A6FE072E0C6010E94E6
:10225000001A87010C5C1E4F6FE072E0C8010E94FB
:10226000001A62E0C6010E94B41AF7018281882335
:1022700009F4B5C08091EB03811143C082E38093E0
:10228000DF0381E08093DC031092DD0388EA93E0B2
:102290000E94F00D2091DC0387E090E0821B910901
:1022A0007091DD0367E041E050E0262F30E08217B7
:1022B00093074CF49A01062E01C0220F0A94EAF704
:1022C000722B6150F2CF7093DD038FEF8093E203A6
:1022D0008093E3038093E4038093E5031092E90382
:1022E0001092EA03F092E103E092E00388EA93E0BF
:1022F0000E94FF0D81E08093EB038BE798E00E9442
:102300008E17F5018081811107C088EA93E00E9451
:10231000FF0D81E18093E803F5018081882309F4B2
:102320004BC088EA93E00E940B0E882309F44AC050
:102330006FE072E0CE0101960E94A8196AEE71E08A
:10234000CE0101960E94001ABE016F5F7F4F88EA9E
:1023500093E00E94FA0B6AEF71E0C6010E94A41A92
:102360006BE3C6010E94B41AB60188EA93E00E94AA
:10237000550C6BE3C8010E94B41AB80188EA93E0D7
:102380000E94D00C63E0C8010E94B41A6AE0C80140
:102390000E94B41A9801AE014F5F5F4FB601C701AA
:1023A0000E948F0BF501108281E0F4018083CE0141
:1023B00001960E943A1913C088EA93E00E94F50C36
:1023C0008111AFCFF5018081882349F0F701E45FE7
:1023D000FE4F8081882319F081E0F4018083F701AA
:1023E0008181882309F493C0EF5EFE4F8081918143
:1023F000019709F08CC0F4018081811188C05701D8
:10240000F8EFAF1AFEEFBF0AF5018081883208F4B9
:102410007EC067EF71E0C6010E94A41A6BE3C6019B
:102420000E94B41A312C3701F5ED6F1AFEEF7F0AC6
:10243000F3018081381648F5432C512CF701E40D47
:10244000F51D84818823F9F068EC71E0C6010E94D3
:10245000A41A632DC6010E94C71A65EE71E0C60179
:102460000E94A41AC201880F991F8E0D9F1DFC01A6
:10247000E15EFE4F60817181C6010E94F31A6BE339
:10248000C6010E94B41A3394D3CF6AEE71E0C6013C
:102490000E94A41A6BE3C8010E94B41A6DEE71E0A9
:1024A000C8010E94A41AF7016081772767FD709523
:1024B000C8010E94F31A6BE3C8010E94B41AF70125
:1024C000E35FFE4F8081882349F065EF71E0C8012A
:1024D0000E94A41A6BE3C8010E94B41A63E0C80109
:1024E0000E94B41A6AE0C8010E94B41AF501408142
:1024F0004150960160E0C7010E94A70BF701E45F1D
:10250000FE4F108281E0F4018CCEF4011082F701BD
:10251000E45FFE4F8081811103C0C7010E949308D0
:1025200028960FB6F894DEBF0FBECDBFDF91CF91D6
:102530001F910F91FF90EF90DF90CF90BF90AF90E1
:102540009F908F907F906F905F904F903F900895F5
:102550007F928F929F92AF92BF92CF92DF92EF9233
:10256000FF920F931F93CF93DF93EC016C0128EF41
:10257000C21A2EEFD20AD6014C91FC01E75EFE4F43
:10258000A081B1815C01E9EEAE1AEEEFBE0AF50161
:10259000208131818D919C91D9012D913C9182278F
:1025A0009327991F9927991F81E04E3F09F480E0F6
:1025B00098238E01045D1E4FF80180817E01F5EDA8
:1025C000EF1AFEEFFF0AD7012C91281708F48C931D
:1025D00091110CC0FE01E35FFE4F81E04E3F09F018
:1025E00080E08083CE010E94B70F09C0483238F0E6
:1025F00083E090E0FE01EF5EFE4F91838083D50182
:10260000ED91FC9180809180B401CE010E94D808A8
:10261000782E87FD20C0082F000F110B0C0F1D1FF7
:10262000015E1E4FF80160817181882777FD8095DA
:10263000982FAA2497FCA094BA2C680D791D8A1DA6
:102640009B1D22E030E040E050E00E94D31DD80105
:102650002D933C9343C0F6012081D7019C9080E0EC
:1026600090E030E0A901415051092C0F3D1FBA0103
:10267000680F791FB6E09B1212C06F3FEFEF7E0725
:1026800071F0F901E80FF91FF1850197D801EC917C
:10269000FE13EDCF6F5F7F4FCE010E947C08D80103
:1026A0007C90D501ED91FC9120813181CE01870D87
:1026B000911D870D911DFC01E15EFE4F318320834A
:1026C00081E0870D863011F0F80103C0D8011C921B
:1026D000F7018083FE01E65CFE4F1082D6018C91EB
:1026E000C80FD11D7A868F5F8C93DF91CF911F9198
:1026F0000F91FF90EF90DF90CF90BF90AF909F90A1
:102700008F907F900895CF93DF93EC01C55FDE4FEC
:102710001882FC01E75EFE4F0190F081E02D2081E0
:102720003181DC01A95EBE4F0D90BC91A02D2D938F
:102730003C93DB012D913C91318320830E94A812B0
:102740008881DF91CF91089508958230E8F4E82FD1
:10275000F0E0EE0FFF1FE75FFE4F71836083813073
:1027600041F0809169008C7F842B80936900E89A06
:10277000089580916900440F551F440F551F837FB2
:10278000842B80936900E99A0895823078F481302F
:1027900011F0E89801C0E998E82FF0E0EE0FFF1F74
:1027A000E75FFE4F84EA93E19183808308951F924F
:1027B0000F920FB60F9211242F933F934F935F9375
:1027C0006F937F938F939F93AF93BF93EF93FF93F9
:1027D000E0910901F0910A010995FF91EF91BF91F4
:1027E000AF919F918F917F916F915F914F913F91A9
:1027F0002F910F900FBE0F901F9018951F920F9260
:102800000FB60F9211242F933F934F935F936F93C3
:102810007F938F939F93AF93BF93EF93FF93E09139
:102820000B01F0910C010995FF91EF91BF91AF91D0
:102830009F918F917F916F915F914F913F912F91D8
:102840000F900FBE0F901F9018951F920F920FB60A
:102850000F9211242F933F938F939F93AF93BF9326
:102860008091F4039091F503A091F603B091F703E2
:102870003091F30323E0230F2D3720F40196A11D9F
:10288000B11D05C026E8230F0296A11DB11D20939E
:10289000F3038093F4039093F503A093F603B093AE
:1028A000F7038091F8039091F903A091FA03B09196
:1028B000FB030196A11DB11D8093F8039093F903CA
:1028C000A093FA03B093FB03BF91AF919F918F91B7
:1028D0003F912F910F900FBE0F901F9018952FB71B
:1028E000F8946091F4037091F5038091F603909150
:1028F000F7032FBF08953FB7F8948091F8039091A4
:10290000F903A091FA03B091FB0326B5A89B05C07B
:102910002F3F19F00196A11DB11D3FBF6627782FEB
:10292000892F9A2F620F711D811D911D42E0660F44
:10293000771F881F991F4A95D1F70895CF92DF928C
:10294000EF92FF92CF93DF936B017C010E947B1487
:10295000EB01C114D104E104F10489F00E94CD1B04
:102960000E947B146C1B7D0B683E734090F381E0EA
:10297000C81AD108E108F108C851DC4FEACFDF914D
:10298000CF91FF90EF90DF90CF9008958230910526
:1029900038F0880F991F880F991F05970197F1F755
:1029A0000895789484B5826084BD84B5816084BDC7
:1029B00085B5826085BD85B5816085BDEEE6F0E0B8
:1029C000808181608083E1E8F0E010828081826014
:1029D0008083808181608083E0E8F0E08081816095
:1029E0008083E1EBF0E0808184608083E0EBF0E0C5
:1029F000808181608083EAE7F0E080818460808369
:102A00008081826080838081816080838081806812
:102A100080831092C1000895833081F028F48130C2
:102A200099F08230A1F008958730A9F08830B9F08C
:102A30008430D1F4809180008F7D03C0809180002C
:102A40008F7780938000089584B58F7702C084B516
:102A50008F7D84BD08958091B0008F7703C08091F1
:102A6000B0008F7D8093B0000895CF93DF9390E006
:102A7000FC01E555FF4F2491FC01E154FF4F849187
:102A8000882349F190E0880F991FFC01E352FF4F22
:102A9000A591B4918D529F4FFC01C591D4919FB7E0
:102AA000611108C0F8948C91209582238C938881C1
:102AB00082230AC0623051F4F8948C91322F309501
:102AC00083238C938881822B888304C0F8948C9113
:102AD000822B8C939FBFDF91CF9108950F931F930B
:102AE000CF93DF931F92CDB7DEB7282F30E0F901E7
:102AF000E956FF4F8491F901E555FF4F1491F90113
:102B0000E154FF4F04910023C9F0882321F0698329
:102B10000E940C156981E02FF0E0EE0FFF1FED52CF
:102B2000FF4FA591B4919FB7F8948C91611103C0A8
:102B30001095812301C0812B8C939FBF0F90DF9153
:102B4000CF911F910F910895FC01818D228D90E00E
:102B5000805C9F4F821B91098F7399270895FC0118
:102B6000918D828D981731F0828DE80FF11D858D42
:102B700090E008958FEF9FEF0895FC01918D828D75
:102B8000981761F0828DDF01A80FB11D5D968C91C1
:102B9000928D9F5F9F73928F90E008958FEF9FEFCC
:102BA000089581E497E1892B49F083E398E0892B2C
:102BB00029F00E94411781110C9433080895FC01FB
:102BC000848DDF01A80FB11DA35ABF4F2C91848DB6
:102BD00090E001968F739927848FA689B7892C93EB
:102BE000A089B1898C9180648C93938D848D981386
:102BF00006C00288F389E02D80818F7D808308954F
:102C0000CF93DF93EC01888D8823C9F0EA89FB8993
:102C1000808185FD05C0A889B9898C9186FD0FC08A
:102C20000FB607FCF5CF808185FFF2CFA889B9895F
:102C30008C9185FFEDCFCE010E94DF15E7CFDF91AC
:102C4000CF910895CF92DF92FF920F931F93CF936E
:102C5000DF931F92CDB7DEB76C0181E0D6015896A5
:102C60008C9358975B969C915B975C968C915C9744
:102C7000981307C05096ED91FC915197808185FD86
:102C80002EC0F601038D10E00F5F1F4F0F73112749
:102C9000F02EF601848DF81211C00FB607FCF9CFA3
:102CA000D6015096ED91FC915197808185FFF1CF2F
:102CB000C60169830E94DF156981EBCF838DE80F20
:102CC000F11DE35AFF4F6083D6015B960C935B972F
:102CD0005296ED91FC915397808180620CC0D60191
:102CE0005696ED91FC91579760835096ED91FC912B
:102CF000519780818064808381E090E00F90DF9124
:102D0000CF911F910F91FF90DF90CF900895BF92C8
:102D1000CF92DF92EF92FF92CF93DF93EC016A01A3
:102D20007B01B22EE889F98982E08083411581EE2A
:102D3000580761057105A1F060E079E08DE390E04E
:102D4000A70196010E94B11D215031094109510985
:102D50005695479537952795211580E1380798F0C6
:102D6000E889F989108260E874E88EE190E0A701B3
:102D700096010E94B11D2150310941095109569512
:102D8000479537952795EC85FD853083EE85FF8542
:102D90002083188EEC89FD89B082EA89FB898081C5
:102DA00080618083EA89FB89808188608083EA89E9
:102DB000FB89808180688083EA89FB8980818F7D9F
:102DC0008083DF91CF91FF90EF90DF90CF90BF9005
:102DD00008951F920F920FB60F9211242F938F9385
:102DE0009F93EF93FF93E0910C04F0910D04808189
:102DF000E0911204F091130482FD12C09081809141
:102E000015048F5F8F7320911604821751F0E091A3
:102E10001504F0E0E450FC4F958F8093150401C039
:102E20008081FF91EF919F918F912F910F900FBE15
:102E30000F901F9018951F920F920FB60F921124AA
:102E40002F933F934F935F936F937F938F939F93B2
:102E5000AF93BF93EF93FF938CEF93E00E94DF1546
:102E6000FF91EF91BF91AF919F918F917F916F9162
:102E70005F914F913F912F910F900FBE0F901F9038
:102E800018958CEF93E00E94A41521E0892B09F49A
:102E900020E0822F08951092FF031092FE0388EE27
:102EA00093E0A0E0B0E08093000490930104A0932D
:102EB0000204B093030481E092E09093FD038093B9
:102EC000FC0385EC90E0909309048093080484EC63
:102ED00090E090930B0480930A0480EC90E0909330
:102EE0000D0480930C0481EC90E090930F04809388
:102EF0000E0482EC90E0909311048093100486EC11
:102F000090E0909313048093120410921504109291
:102F100016041092170410921804089580E090E0AF
:102F2000089508950E94D1140E9491170E949A0753
:102F3000C1EDD5E10E9433072097E1F30E94D1153E
:102F4000F9CFCF92DF92EF92FF920F931F93CF931F
:102F5000DF937C016A01EB0100E010E00C151D0518
:102F600071F06991D701ED91FC910190F081E02D14
:102F7000C7010995892B19F00F5F1F4FEFCFC801CB
:102F8000DF91CF911F910F91FF90EF90DF90CF9045
:102F900008956115710581F0DB010D900020E9F7BE
:102FA000AD0141505109461B570BDC01ED91FC91DD
:102FB0000280F381E02D099480E090E00895EF9283
:102FC000FF920F931F93CF93DF938C017B01C0E09F
:102FD000D0E0F701EC0FFD1F6491662359F0F80172
:102FE000A081B181ED91FC91C8010995892B11F067
:102FF0002196EFCFCE01DF91CF911F910F91FF90DE
:10300000EF900895DC01ED91FC91DB0114964D9158
:103010005C9115976D917C910280F381E02D09946C
:10302000DC01ED91FC910190F081E02D09946DE0BF
:1030300072E00C94C9170F931F93CF93DF93EC01A9
:103040000E94DF178C01CE010E941718800F911F7C
:10305000DF91CF911F910F9108950F931F93CF93FD
:10306000DF93EC010E9402188C01CE010E94171818
:10307000800F911FDF91CF911F910F9108950F93B2
:103080001F93CF93DF93EC010E94C9178C01CE01EF
:103090000E941718800F911FDF91CF911F910F9100
:1030A00008958F929F92AF92BF92CF92DF92EF924C
:1030B000FF920F931F93CF93DF93CDB7DEB7A19706
:1030C0000FB6F894DEBF0FBECDBF7C01C42EE52F36
:1030D000CB01D22E19A221E02D1510F02AE0D22E1C
:1030E0008E010F5D1F4F8D2C912CA12CB12C6C2DBE
:1030F0007E2FA50194010E94B11D8C2DD29E8019B6
:103100001124015011098A3014F4805D01C0895CDA
:10311000F8018083211531054105510521F0C22EAA
:10312000E32FCA01E4CFB801C7010E94C917A196D5
:103130000FB6F894DEBF0FBECDBFDF91CF911F91C8
:103140000F91FF90EF90DF90CF90BF90AF909F9046
:103150008F900895CF92DF92EF92FF920F931F937B
:10316000CF93DF93EC016A017B012115310579F4DE
:10317000E881F9810190F081E02D642FDF91CF91FA
:103180001F910F91FF90EF90DF90CF9009942A301C
:103190003105E9F477FF1AC06DE20E9410188C0126
:1031A00044275527BA014C195D096E097F092AE0A9
:1031B000CE010E945118800F911FDF91CF911F9176
:1031C0000F91FF90EF90DF90CF9008952AE0B70124
:1031D000A601CE01DF91CF911F910F91FF90EF904B
:1031E000DF90CF900C9451189A01AB01662757FDE0
:1031F0006095762F0C94AA180F931F93CF93DF93AB
:10320000EC019A01AB01662757FD6095762F0E946D
:10321000AA188C01CE010E941718800F911FDF9110
:10322000CF911F910F9108952115310541F4DC01D3
:10323000ED91FC910190F081E02D642F09940C94A4
:1032400051189A01462F50E060E070E00C94141978
:103250000F931F93CF93DF93EC010E9414198C01FD
:10326000CE010E941718800F911FDF91CF911F91FF
:103270000F910895FC01808191810C94AE1ECF9333
:10328000DF93EC0188819981009711F00E94AE1EB6
:10329000198218821D821C821B821A82DF91CF91B3
:1032A00008950F931F93CF93DF93EC018B016F5F12
:1032B0007F4F888199810E943D1F009731F099834B
:1032C00088831B830A8381E001C080E0DF91CF9176
:1032D0001F910F910895CF93DF93EC01888199811D
:1032E000892B29F08A819B818617970760F4CE018C
:1032F0000E945119882341F08C819D81892B19F4FA
:10330000E881F981108281E0DF91CF910895EF92F9
:10331000FF920F931F93CF93DF93EC017B018A0100
:10332000BA010E946B19811104C0CE010E943F199D
:1033300007C01D830C83B701888199810E94672093
:10334000CE01DF91CF911F910F91FF90EF900895E3
:10335000FC0111821082138212821582148261157F
:10336000710559F0FB0101900020E9F7AF014150D0
:103370005109461B570B0C94871908950F931F93FF
:10338000CF93DF938C01EB01FC0180819181009749
:1033900099F0428153812C813D814217530750F0AF
:1033A000688179810E9467208C819D81F8019583D5
:1033B000848313C00E94AE1E88819981F801918395
:1033C00080838A819B81938382838C819D81958375
:1033D0008483198218821B821A821D821C82DF91CB
:1033E000CF911F910F910895CF93DF93EC01861732
:1033F000970711F00E94BE19CE01DF91CF91089579
:10340000CF93DF93EC016115710561F0FB01019031
:103410000020E9F7AF0141505109461B570B0E94AC
:10342000871902C00E943F19CE01DF91CF91089504
:103430000F931F93CF93DF93CDB7DEB729970FB6C6
:10344000F894DEBF0FBECDBF8C01862FF80111822C
:103450001082138212821582148250E0BE016F5FC7
:103460007F4F90E00E94CA20BE016F5F7F4FC8016E
:103470000E94001A29960FB6F894DEBF0FBECDBF8A
:10348000DF91CF911F910F9108950F931F93CF93C9
:10349000DF93CDB7DEB762970FB6F894DEBF0FBEED
:1034A000CDBF8C01CB01F8011182108213821282F0
:1034B0001582148250E0BE016F5F7F4F0E949720FB
:1034C000BE016F5F7F4FC8010E94001A62960FB65F
:1034D000F894DEBF0FBECDBFDF91CF911F910F914A
:1034E0000895EF92FF920F931F93CF93DF93EC0118
:1034F0007B010C811D816115710511F480E016C0FE
:103500004115510591F0040F151FB8010E946B1968
:103510008823A1F3288139818C819D81B701820F95
:10352000931F0E9467201D830C8381E0DF91CF9160
:103530001F910F91FF90EF900895FB0144815581F9
:10354000608171810C94711A6115710559F0FB014C
:1035500001900020E9F7AF0141505109461B570B7C
:103560000C94711A80E00895CF93DF9300D0CDB70B
:10357000DEB769831A8241E050E0BE016F5F7F4F82
:103580000E94711A0F900F90DF91CF910895EF92E2
:10359000FF920F931F93CF93DF9300D000D0CDB74E
:1035A000DEB77C01862F4AE08E010F5F1F4FB80106
:1035B00090E00E94A220F80101900020E9F7AF01FD
:1035C00041505109401B510BB801C7010E94711AAB
:1035D0000F900F900F900F90DF91CF911F910F914F
:1035E000FF90EF900895EF92FF920F931F93CF9368
:1035F000DF93CDB7DEB728970FB6F894DEBF0FBEC6
:10360000CDBF7C01CB014AE08E010F5F1F4FB80197
:103610000E94A220F80101900020E9F7AF0141507B
:103620005109401B510BB801C7010E94711A28961D
:103630000FB6F894DEBF0FBECDBFDF91CF911F91C3
:103640000F91FF90EF900895FC012481358162175E
:10365000730748F480819181009729F0FC01E60FFF
:10366000F71F8081089580E008950C94241B0F9328
:103670001F93CF93DF93EB0141155105E9F020979C
:10368000D9F0FC016481758126173707A0F4621B0D
:10369000730B8A01015011096017710708F48B013F
:1036A000FC0160817181620F731FA801CE010E942D
:1036B0006E20C00FD11F1882DF91CF911F910F9103
:1036C0000895CF93DF93FC018481958148175907B2
:1036D00078F4C081D181FB0160817181CE01840FBA
:1036E000951F0E947D20009719F08C1B9D0B02C036
:1036F0008FEF9FEFDF91CF910895BF92CF92DF922E
:10370000EF92FF920F931F93CF93DF936C017B0196
:10371000EA0189012417350720F48D2FE901042FD0
:10372000182F6FE072E0C6010E94A819D701149605
:103730008D919C911597C817D907C8F480179107E8
:1037400008F48C01D701ED91FC911197E00FF11F66
:10375000B08010826D917C916C0F7D1FC6010E941C
:10376000001AD701ED91FC91E00FF11FB082C60164
:10377000DF91CF911F910F91FF90EF90DF90CF904D
:10378000BF900895FC0180819181009711F00C9405
:10379000252060E070E0CB01089508955058BB27C4
:1037A000AA270ED009C1FAD030F0FFD020F031F4B2
:1037B0009F3F11F41EF4EFC00EF4E095E7FBE5C067
:1037C000E92F0BD180F3BA176207730784079507B7
:1037D00018F071F49EF523C10EF4E0950B2EBA2F6C
:1037E000A02D0B01B90190010C01CA01A001112407
:1037F000FF27591B99F0593F50F4503E68F11A16B3
:10380000F040A22F232F342F4427585FF3CF469543
:1038100037952795A795F0405395C9F77EF41F1665
:10382000BA0B620B730B840BBAF09150A1F0FF0F2F
:10383000BB1F661F771F881FC2F70EC0BA0F621F1B
:10384000731F841F48F4879577956795B795F7950B
:103850009E3F08F0B3CF9395880F08F09927EE0F9D
:1038600097958795089504D06894B111D9C00895AB
:10387000BCD088F09F5790F0B92F9927B751A0F08E
:10388000D1F0660F771F881F991F1AF0BA95C9F7F4
:1038900012C0B13081F0C3D0B1E00895C0C0672F2D
:1038A000782F8827B85F39F0B93FCCF386957795A4
:1038B0006795B395D9F73EF490958095709561958D
:1038C0007F4F8F4F9F4F0895E89409C097FB3EF4B8
:1038D00090958095709561957F4F8F4F9F4F99235D
:1038E000A9F0F92F96E9BB279395F69587957795DB
:1038F0006795B795F111F8CFFAF4BB0F11F460FF9B
:103900001BC06F5F7F4F8F4F9F4F16C0882311F0F2
:1039100096E911C0772321F09EE8872F762F05C006
:10392000662371F096E8862F70E060E02AF09A95A1
:10393000660F771F881FDAF7880F9695879597F996
:103940000895990F0008550FAA0BE0E8FEEF161630
:103950001706E807F907C0F012161306E407F50783
:1039600098F0621B730B840B950B39F40A2661F0F7
:10397000232B242B252B21F408950A2609F4A1409A
:10398000A6958FEF811D811D089597F99F6780E8A7
:1039900070E060E008959FEF80EC089500240A94A1
:1039A0001616170618060906089500240A9412161A
:1039B0001306140605060895092E0394000C11F44D
:1039C000882352F0BB0F40F4BF2B11F460FF04C0FA
:1039D0006F5F7F4F8F4F9F4F089557FD9058440F53
:1039E000551F59F05F3F71F04795880F97FB991F5E
:1039F00061F09F3F79F0879508951216130614061B
:103A0000551FF2CF4695F1DF08C0161617061806A7
:103A1000991FF1CF86957105610508940895E89482
:103A2000BB2766277727CB0197F908958ADF08F42B
:103A30008FEF08950BD0C0CFB1DF28F0B6DF18F0BC
:103A4000952309F0A2CFA7CF1124EACFC6DFA0F3B8
:103A5000959FD1F3950F50E0551F629FF001729F23
:103A6000BB27F00DB11D639FAA27F00DB11DAA1F42
:103A7000649F6627B00DA11D661F829F2227B00D8F
:103A8000A11D621F739FB00DA11D621F839FA00D1A
:103A9000611D221F749F3327A00D611D231F849F6A
:103AA000600D211D822F762F6A2F11249F575040C1
:103AB0008AF0E1F088234AF0EE0FFF1FBB1F661F5C
:103AC000771F881F91505040A9F79E3F510570F015
:103AD0005CCFA6CF5F3FECF3983EDCF386957795FD
:103AE0006795B795F795E7959F5FC1F7FE2B880F10
:103AF000911D9695879597F90895991B79E004C0D3
:103B0000991F961708F0961B881F7A95C9F780951C
:103B10000895AA1BBB1B51E107C0AA1FBB1FA61714
:103B2000B70710F0A61BB70B881F991F5A95A9F766
:103B300080959095BC01CD01089597FB072E16F452
:103B4000009407D077FD09D00E94891D07FC05D09D
:103B50003EF4909581959F4F0895709561957F4FA4
:103B60000895A1E21A2EAA1BBB1BFD010DC0AA1FBE
:103B7000BB1FEE1FFF1FA217B307E407F50720F0D6
:103B8000A21BB30BE40BF50B661F771F881F991F51
:103B90001A9469F760957095809590959B01AC019A
:103BA000BD01CF010895052E97FB1EF400940E94DD
:103BB000EA1D57FD07D00E94B11D07FC03D04EF44B
:103BC0000C94EA1D50954095309521953F4F4F4FED
:103BD0005F4F089590958095709561957F4F8F4FB9
:103BE0009F4F08950E94FA1D332312F48A1B9B0BEA
:103BF0000C940B1EA29FB001B39FC001A39F700D38
:103C0000811D1124911DB29F700D811D1124911DE4
:103C100008950E94FA1DB7FF0895821B930B089523
:103C2000EE0FFF1F0590F491E02D0994CF93DF93E1
:103C30008230910510F482E090E0E0919B04F091D5
:103C40009C0420E030E0A0E0B0E0309739F1408102
:103C5000518148175907B8F04817590771F4828104
:103C60009381109729F013969C938E9312972CC0F2
:103C700090939C0480939B0427C02115310531F05B
:103C80004217530718F0A901DB0101C0EF019A01A7
:103C9000BD01DF010280F381E02DD7CF2115310571
:103CA000F9F0281B390B2430310580F48A819B817F
:103CB0006115710521F0FB019383828304C0909309
:103CC0009C0480939B04FE01329644C0FE01E20FE7
:103CD000F31F8193919322503109398328833AC08D
:103CE0002091990430919A04232B41F420910201F0
:103CF0003091030130939A0420939904209100019C
:103D0000309101012115310541F42DB73EB74091A5
:103D1000040150910501241B350BE0919904F091A9
:103D20009A04E217F307A0F42E1B3F0B281739075C
:103D300078F0AC014E5F5F4F2417350748F04E0F07
:103D40005F1F50939A04409399048193919302C00A
:103D5000E0E0F0E0CF01DF91CF910895CF93DF93C2
:103D6000009709F487C0FC01329713821282C09138
:103D70009B04D0919C04209781F420813181280FED
:103D8000391F8091990490919A048217930779F5CD
:103D9000F0939A04E09399046DC0DE0120E030E0D6
:103DA000AE17BF0750F412964D915C9113979D0189
:103DB0004115510509F1DA01F3CFB383A2834081A4
:103DC0005181840F951F8A179B0771F48D919C91E7
:103DD0001197840F951F02969183808312968D917F
:103DE0009C911397938382832115310529F4F093D5
:103DF0009C04E0939B043EC0D9011396FC93EE9380
:103E000012974D915D91A40FB51FEA17FB0779F446
:103E100080819181840F951F0296D90111969C9300
:103E20008E938281938113969C938E931297E0E0F8
:103E3000F0E08A819B81009719F0FE01EC01F9CF37
:103E4000CE01029628813981820F931F2091990417
:103E500030919A042817390769F4309729F41092A1
:103E60009C0410929B0402C013821282D0939A0485
:103E7000C0939904DF91CF910895A0E0B0E0E3E40E
:103E8000FFE10C94B323EC01CB01209719F40E94BD
:103E9000161EB8C0FE01E60FF71F9E012250310921
:103EA000E217F30708F4ACC0D9010D911C911197EA
:103EB00006171707B8F00530110508F49FC0A801D0
:103EC000445051094617570708F498C00250110989
:103ED000061B170B019311936D937C93CF010E94E6
:103EE000AE1E8CC05B01A01AB10A4E01800E911E5D
:103EF000A0919B04B0919C04612C712C60E070E057
:103F0000109709F449C0A815B905C9F5ED90FC90C2
:103F10001197670142E0C40ED11CCA14DB0478F18A
:103F200047018A189B08640142E0C40ED11C129616
:103F3000BC9012971396AC91B5E0CB16D10440F02B
:103F4000B282A38391828082D9018D939C9309C010
:103F50000E5F1F4F0E0D1F1DF90111830083EB2D06
:103F6000FA2F6115710531F0DB011396FC93EE9386
:103F7000129744C0F0939C04E0939B043FC06D9162
:103F80007C9111976616770608F43B01BD011296E5
:103F90000D90BC91A02DB4CF6091990470919A04BA
:103FA00068157905E9F468167906D0F440910001A6
:103FB000509101014115510541F44DB75EB7609133
:103FC000040170910501461B570BE417F507C0F477
:103FD000F0939A04E0939904F901918380830EC0D1
:103FE0000E94161E7C01009759F0A801BE010E9494
:103FF0004C20CE010E94AE1EC70104C0CE0102C0FB
:1040000080E090E0CDB7DEB7EEE00C94CF23FC016A
:1040100088279927E89421912032E9F3293010F07C
:104020002E30C8F32B3241F02D3239F4689404C09D
:104030000E94C220820F911D219120532A30C0F38B
:104040001EF4909581959F4F08951F93FC01992729
:104050008827BC01E89411911032E9F3193010F06F
:104060001E30C8F31B3251F01D3249F4689406C06B
:104070000E94AD20610F711D811D911D1191105382
:104080001A30B0F33EF490958095709561957F4F0E
:104090008F4F9F4F1F910895FB01DC0102C00190DB
:1040A0000D9241505040D8F708956817790768F489
:1040B000FB01DC01E40FF51FA40FB51F02C0029045
:1040C0000E9241505040D8F708950C944C20FB01BB
:1040D000DC0101900D920020E1F70895FB01DC0165
:1040E0004150504048F001900D920020C9F701C0A6
:1040F0001D9241505040E0F70895FB015191552326
:10410000A9F0BF01DC014D9145174111E1F759F4C8
:10411000CD010190002049F04D9140154111C9F3A6
:10412000FB014111EFCF81E090E001970895453206
:10413000510520F4423010F00C94A220FB011082B3
:10414000CB010895BB274A3031F4992322F4BDE214
:10415000909581959F4F0C94D620592F482F372F3B
:10416000262F660F771F881F991F660F771F881FDE
:10417000991F620F731F841F951F660F771F881F7B
:10418000991F08957AE0979F902D879F802D910D1C
:10419000112408954532510520F4423010F00C945A
:1041A000D520FB011082CB010895BB27FB015527C9
:1041B000AA27880F991FAA1FA41710F0A41B839584
:1041C0005051B9F7A05DAA3308F0A95DA1930097FB
:1041D00079F7B111B1931192CB010C940F23AEE09A
:1041E000B0E0E5EFF0E20C94BD230D891E8986E076
:1041F0008C831A8309838FEF9FE79E838D83AE01A3
:10420000475E5F4F6F89788DCE0101960E94112124
:10421000EF81F885E00FF11F10822E96E4E00C94F8
:10422000D923ACE0B0E0E7E1F1E20C94AF237C01EC
:104230006B018A01FC0117821682838181FFBDC157
:10424000CE0101964C01F7019381F60193FD859112
:1042500093FF81916F01882309F4ABC1853239F452
:1042600093FD859193FF81916F01853229F4B70108
:1042700090E00E941F23E7CF512C312C20E0203208
:10428000A0F48B3269F030F4803259F0833269F453
:1042900020612CC08D3239F0803339F4216026C082
:1042A0002260246023C0286021C027FD27C030ED94
:1042B000380F3A3078F426FF06C0FAE05F9E300DE2
:1042C0001124532E13C08AE0389E300D1124332E52
:1042D00020620CC08E3221F426FD6BC1206406C022
:1042E0008C3611F4206802C0883641F4F60193FD43
:1042F000859193FF81916F018111C1CF982F9F7D8F
:104300009554933028F40C5F1F4FFFE3F9830DC0E1
:10431000833631F0833771F0833509F05BC022C0FA
:10432000F801808189830E5F1F4F44244394512CF0
:10433000540115C03801F2E06F0E711CF801A08025
:10434000B18026FF03C0652D70E002C06FEF7FEFE4
:10435000C5012C870E9404232C0183012C852F7713
:10436000222E17C03801F2E06F0E711CF801A080F8
:10437000B18026FF03C0652D70E002C06FEF7FEFB4
:10438000C5012C870E94F9222C012C852068222E41
:10439000830123FC1BC0832D90E048165906B0F41E
:1043A000B70180E290E00E941F233A94F4CFF50118
:1043B00027FC859127FE81915F01B70190E00E9463
:1043C0001F2331103A94F1E04F1A5108411451045F
:1043D00071F7E5C0843611F0893639F5F80127FF09
:1043E00007C060817181828193810C5F1F4F08C07B
:1043F00060817181882777FD8095982F0E5F1F4F10
:104400002F76B22E97FF09C0909580957095619593
:104410007F4F8F4F9F4F2068B22E2AE030E0A401DB
:104420000E945123A82EA81844C0853729F42F7E56
:10443000B22E2AE030E025C0F22FF97FBF2E8F3652
:10444000C1F018F4883579F0B4C0803719F0883796
:1044500021F0AFC02F2F2061B22EB4FE0DC08B2DE6
:104460008460B82E09C024FF0AC09F2F9660B92E21
:1044700006C028E030E005C020E130E002C020E1C5
:1044800032E0F801B7FE07C06081718182819381BB
:104490000C5F1F4F06C06081718180E090E00E5F6D
:1044A0001F4FA4010E945123A82EA818FB2DFF77AF
:1044B000BF2EB6FE0BC02B2D2E7FA51450F4B4FEDC
:1044C0000AC0B2FC08C02B2D2E7E05C07A2C2B2DE5
:1044D00003C07A2C01C0752C24FF0DC0FE01EA0D2B
:1044E000F11D8081803311F4297E09C022FF06C0AE
:1044F0007394739404C0822F867809F0739423FD1B
:1045000013C020FF06C05A2C731418F4530C57180C
:10451000732C731468F4B70180E290E02C870E943A
:104520001F2373942C85F5CF731410F4371801C032
:10453000312C24FF12C0B70180E390E02C870E9449
:104540001F232C8522FF17C021FF03C088E590E0C0
:1045500002C088E790E0B7010CC0822F867859F03E
:1045600021FD02C080E201C08BE227FD8DE2B70190
:1045700090E00E941F23A51438F4B70180E390E077
:104580000E941F235A94F7CFAA94F401EA0DF11D5B
:104590008081B70190E00E941F23A110F5CF332046
:1045A00009F451CEB70180E290E00E941F233A94B3
:1045B000F6CFF7018681978102C08FEF9FEF2C968F
:1045C000E2E10C94CB23F999FECF92BD81BDF89A1C
:1045D000992780B50895262FF999FECF1FBA92BD6D
:1045E00081BD20BD0FB6F894FA9AF99A0FBE0196D4
:1045F0000895FC010590615070400110D8F7809536
:1046000090958E0F9F1F0895FC016150704001909E
:104610000110D8F7809590958E0F9F1F0895DC01AB
:10462000FC01672F71917723E1F7329704C07C91E9
:104630006D9370836291AE17BF07C8F308950F930F
:104640001F93CF93DF93182F092FEB018B8181FDEF
:1046500003C08FEF9FEF20C082FF10C04E815F81AB
:104660002C813D81421753077CF4E881F9819F0139
:104670002F5F3F4F39832883108306C0E885F98573
:10468000812F0995892B29F72E813F812F5F3F4F7D
:104690003F832E83812F902FDF91CF911F910F9118
:1046A0000895FA01AA27283051F1203181F1E894C8
:1046B0006F936E7F6E5F7F4F8F4F9F4FAF4FB1E015
:1046C0003ED0B4E03CD0670F781F891F9A1FA11D10
:1046D000680F791F8A1F911DA11D6A0F711D811D11
:1046E000911DA11D20D009F468943F912AE0269FD6
:1046F00011243019305D3193DEF6CF010895462F35
:104700004770405D4193B3E00FD0C9F7F6CF462F15
:104710004F70405D4A3318F0495D31FD405241937E
:1047200002D0A9F7EACFB4E0A6959795879577953B
:104730006795BA95C9F700976105710508959B01C2
:10474000AC010A2E06945795479537952795BA954B
:10475000C9F7620F731F841F951FA01D08952F9224
:104760003F924F925F926F927F928F929F92AF9201
:10477000BF92CF92DF92EF92FF920F931F93CF934E
:10478000DF93CDB7DEB7CA1BDB0B0FB6F894DEBFE5
:104790000FBECDBF09942A88398848885F846E840B
:1047A0007D848C849B84AA84B984C884DF80EE8055
:1047B000FD800C811B81AA81B981CE0FD11D0FB65E
:1047C000F894DEBF0FBECDBFED01089510E0CCEE32
:1047D000D0E004C0FE010E94121E2296CE3ED107F8
:0647E000C9F7F894FFCFB9
:1047E60000009D0480002C0106A413A4133B00497D
:1047F60054506172616D733A20004F4B005620335E
:104806002E322E302D623139205349474E414C64A9
:1048160075696E6F202D20636F6D70696C656420FD
:104826006174204D617220323920323031362032A7
:10483600333A32303A30390053796E633A200020E9
:104846002D3E2053796E63466163743A20002C2016
:10485600436C6F636B3A20002C20546F6C3A200037
:104866002C20506174744C656E3A20002C205075D3
:104876006C73653A20002C20002C206D53746172F5
:10488600743A20002C204D43443A20005369676E49
:10489600616C3A20002E2000205B005D00506174A0
:1048A6007465726E3A20002050002A5B002C0025A9
:1048B600303258004C4C3D004C483D00534C3D00B6
:1048C60053483D00433D004D5300443D0043503D99
:1048D6000053503D004F004D55004D430000000071
:1048E600002216A117A415BD15AF1500160D0A0056
:0E48F6006E616E00696E66006F7666002E00C1
:00000001FF
