:100000000C9470000C94371D0C94641D0C94980093
:100010000C9498000C9498000C9498000C94980000
:100020000C9498000C9498000C9498000C949800F0
:100030000C9498000C94D7140C9498000C9498008D
:100040000C94911D0C9498000C94F6180C9444197F
:100050000C9498000C9498000C9498000C949800C0
:100060000C9498000C9498003F20557365206F6E97
:1000700065206F6620562052206920742058510058
:1000800000000000240027002A00000000002500D6
:1000900028002B0000000000230026002900040493
:1000A0000404040404040202020202020303030320
:1000B00003030102040810204080010204081020FC
:1000C00001020408102000000007000201000003E4
:1000D000040600000000000000005015B01A491589
:1000E00011241FBECFEFD8E0DEBFCDBF12E0A0E0ED
:1000F000B1E0EEE2FAE402C005900D92A438B10737
:10010000D9F715E0A4E8B2E001C01D92A136B1070D
:10011000E1F710E0CEEDD0E004C02297FE010E948E
:10012000CF24CA3DD107C9F70E94061B0C940A25AB
:100130000C9400000F931F93CF93DF93689F80016F
:10014000699F100D789F100D1124C8010E94B60000
:10015000EC01009729F060E070E0A8010E94ED0238
:10016000CE01DF91CF911F910F910895CF93DF932F
:10017000BC018230910510F462E070E0A0915F054F
:10018000B0916005ED01E0E0F0E040E050E021C01A
:10019000888199818617970769F48A819B813097B6
:1001A00019F09383828304C09093600580935F0568
:1001B000FE0134C06817790738F44115510519F06C
:1001C0008417950708F4AC01FE018A819B819C018C
:1001D000E9012097E9F641155105A9F1CA01861BED
:1001E000970B049708F4BA01E0E0F0E02AC08D9183
:1001F0009C91119784179507F9F46417750781F49A
:1002000012968D919C911397309719F09383828366
:1002100004C09093600580935F05FD0132964CC049
:10022000CA01861B970BFD01E80FF91F61937193BB
:1002300002978D939C9340C0FD01828193819C0124
:10024000D9011097A1F680915D0590915E05892BEB
:1002500041F4809105029091060290935E0580938F
:100260005D0540910702509108024115510541F486
:100270004DB75EB78091030290910402481B590B61
:1002800020915D0530915E05CA01821B930B861794
:10029000970780F0AB014E5F5F4F8417950750F0D2
:1002A000420F531F50935E0540935D05F901619322
:1002B000719302C0E0E0F0E0CF01DF91CF910895AB
:1002C000CF93DF93009709F450C0EC0122971B8273
:1002D0001A82A0915F05B0916005109709F140E086
:1002E00050E0AC17BD0708F1BB83AA83FE01219142
:1002F0003191E20FF31FAE17BF0779F48D919C91F6
:100300001197280F391F2E5F3F4F3983288312968C
:100310008D919C9113979B838A834115510571F4AC
:10032000D0936005C0935F0520C012968D919C917B
:100330001397AD01009711F0DC01D3CFFA01D383FD
:10034000C28321913191E20FF31FCE17DF0769F4C9
:1003500088819981280F391F2E5F3F4FFA01318321
:1003600020838A819B8193838283DF91CF9108953B
:10037000A0E0B0E0EEEBF1E00C94D5246C01009726
:1003800029F4CB010E94B6006C01C1C08EEF882E0B
:100390008FEF982E8C0C9D1C8601060F171F0815D9
:1003A000190508F4B2C0F401A081B181A617B707FE
:1003B000B8F0A530B10508F4AAC0CD01049786179E
:1003C000970708F4A4C01297A61BB70BF801A193D6
:1003D000B193D4016D937C93CF010E94600197C0CB
:1003E0007B01EA1AFB0AEEEFFFEFEE0EFF1E36016D
:1003F0006A0E7B1EC0915F05D09160054424552490
:10040000AA24BB244AC0C615D705E1F54881598105
:100410004E155F05B8F1CA0104978E159F05B0F41B
:100420001296A40FB51FF401B183A0832A813B81EA
:100430004114510431F0D20113963C932E9312973C
:1004400066C03093600520935F0561C08A819B81FF
:10045000F80193838283425050404E195F095183C3
:1004600040834114510431F0D20113961C930E9332
:10047000129704C01093600500935F05F401718327
:10048000608345C088819981A816B90608F45C018B
:100490002E018A819B819C01E901209709F0B3CF4D
:1004A00080915D0590915E0586159705E9F4A61685
:1004B000B706D0F4209107023091080221153105CA
:1004C00041F42DB73EB78091030290910402281B9E
:1004D000390B02171307C8F410935E0500935D05EE
:1004E000D4016D937C9313C0CB010E94B600EC0144
:1004F000009759F0F40140815181B6010E94D20267
:10050000C6010E9460016E0102C0CC24DD24C60138
:10051000CDB7DEB7E0E10C94F124FC0188279927E0
:10052000E89421912032E9F3293010F02E30C8F3FD
:100530002B3241F02D3239F4689404C00E945703E5
:10054000820F911D219120532A30C0F31EF4909503
:1005500081959F4F08951F93FC0199278827BC011F
:10056000E89411911032E9F3193010F01E30C8F3FD
:100570001B3251F01D3249F4689406C00E944203B8
:10058000610F711D811D911D119110531A30B0F32F
:100590003EF490958095709561957F4F8F4F9F4F5A
:1005A0001F910895FB01DC0102C001900D924150A2
:1005B0005040D8F708956817790768F4FB01DC010B
:1005C000E40FF51FA40FB51F02C002900E92415018
:1005D0005040D8F708950C94D202DC0101C06D930D
:1005E00041505040E0F70895FB01DC018D910190EE
:1005F00080190110D9F3990B0895FB01DC010190DA
:100600000D920020E1F70895FB01DC0141505040BC
:1006100030F08D910190801919F40020B9F7881BF2
:10062000990B0895FB01DC014150504048F00190C6
:100630000D920020C9F701C01D9241505040E0F7D3
:100640000895FB019F01E8944230C4F04532B4F4B0
:100650004A3029F497FB1EF4909581959F4F642FA3
:1006600077270E948424805D8A330CF0895D819312
:10067000CB010097A1F716F45DE251931082C901F6
:100680000C948C05592F482F372F262F660F771F74
:10069000881F991F660F771F881F991F620F731F8E
:1006A000841F951F660F771F881F991F08957AE092
:1006B000979F902D879F802D910D11240895FB0108
:1006C0009F01423074F0453264F4642F77270E9412
:1006D0008424805D8A330CF0895D8193CB0100977F
:1006E000A1F71082C9010C948C05AEE0B0E0EBE7F5
:1006F000F3E00C94E1240D891E8986E08C831A8333
:1007000009838FEF9FE79E838D839E01275E3F4F76
:10071000CE0101966F89788DA9010E9499032F81DE
:100720003885020F131FF80110822E96E4E00C9416
:10073000FD24ABE0B0E0EFE9F3E00C94D3243C01FE
:100740002B015A01FC0117821682838181FD03C0AF
:100750006FEF7FEFC6C19AE0892E1E010894211C1D
:10076000311CF3012381F20123FD859123FF819147
:100770002F01882309F4B2C1853239F423FD859114
:1007800023FF81912F01853229F490E0B3010E946B
:100790009C05E7CF982FFF24EE249924FFE1FF1555
:1007A000D0F09B3269F09C3228F4903259F09332A9
:1007B00091F40EC09D3249F0903369F441E024C0B9
:1007C00052E0F52A84E0F82A28C098E0F92A25C0EA
:1007D000E0E1FE2A22C0F7FC29C0892F80538A302D
:1007E00070F4F6FE05C0989C902C1124980E15C04C
:1007F000E89CE02C1124E80EF0E2FF2A0EC09E32A5
:1008000029F4F6FC6BC140E4F42A07C09C3619F4C5
:1008100050E8F52A02C0983649F4F20123FD95917B
:1008200023FF91912F01992309F0B8CF892F855487
:10083000833018F08052833038F444E050E0A40E46
:10084000B51E5FE359830FC0933631F0933779F0CB
:10085000933509F056C020C0F5018081898342E0BC
:1008600050E0A40EB51E610101E010E012C0F501D8
:10087000C080D180F6FC03C06FEF7FEF02C0692D0E
:1008800070E042E050E0A40EB51EC6010E94810552
:100890008C015FE7F52214C0F501C080D180F6FC21
:1008A00003C06FEF7FEF02C0692D70E042E050E0BF
:1008B000A40EB51EC6010E9476058C0150E8F52AEB
:1008C000F3FE07C01AC080E290E0B3010E949C05CD
:1008D000EA948E2D90E008171907A8F30EC0F601D0
:1008E000F7FC8591F7FE81916F0190E0B3010E94C2
:1008F0009C05E110EA94015010400115110579F7AB
:10090000EAC0943611F0993669F5F7FE08C0F50192
:10091000208131814281538184E090E00AC0F50159
:10092000808191819C01442737FD4095542F82E0BE
:1009300090E0A80EB91E9FE6F92257FF09C0509516
:100940004095309521953F4F4F4F5F4FE0E8FE2A8D
:10095000CA01B901A1012AE030E00E94C805D82EE1
:10096000D21840C0953729F41F2D1F7E2AE030E0B1
:100970001DC01F2D197F9F3661F0903720F49835E8
:1009800009F0ACC00FC0903739F0983709F0A6C015
:1009900004C028E030E00AC0106114FD146020E1BA
:1009A00030E004C014FD166020E132E017FF08C0FB
:1009B000F501608171818281938144E050E008C03B
:1009C000F50180819181BC0180E090E042E050E03F
:1009D000A40EB51EA1010E94C805D82ED2188FE71B
:1009E000F82EF122F6FE0BC05EEFF522D91438F492
:1009F000F4FE07C0F2FC05C08FEEF82202C01D2DE8
:100A000001C0192DF4FE0DC0FE01ED0DF11D808118
:100A1000803319F499EEF92208C01F5FF2FE05C079
:100A200003C08F2D867809F01F5F0F2DF3FC14C0D3
:100A3000F0FE0FC01E1510F09D2C0BC09D2C9E0CBF
:100A4000911A1E2D06C080E290E0B3010E949C0521
:100A50001F5F1E15C0F304C01E1510F4E11A01C07B
:100A6000EE2404FF0FC080E390E0B3010E949C05D8
:100A700002FF1DC001FD03C088E790E00EC088E5BD
:100A800090E00BC0802F867891F001FF02C08BE2CE
:100A900001C080E2F7FC8DE290E0B3010E949C056A
:100AA00006C080E390E0B3010E949C059A94D9149B
:100AB000C0F3DA94F101ED0DF11D808190E0B301F6
:100AC0000E949C05DD20A9F706C080E290E0B301FA
:100AD0000E949C05EA94EE20C1F743CEF3016681A3
:100AE0007781CB012B96E2E10C94EF24FC01059079
:100AF000615070400110D8F7809590958E0F9F1F20
:100B00000895FC016150704001900110D8F7809564
:100B100090958E0F9F1F0895DC01FC01672F719146
:100B20007723E1F7329704C07C916D9370836291D3
:100B3000AE17BF07C8F308950F931F93CF93DF93AA
:100B40008C01EB018B8181FF1BC082FF0DC02E81C8
:100B50003F818C819D812817390764F4E881F981F0
:100B60000193F983E88306C0E885F985802F09950C
:100B7000892B31F48E819F8101969F838E8302C0E1
:100B80000FEF1FEFC801DF91CF911F910F910895D3
:100B9000FA01AA27283051F1203181F1E8946F93AE
:100BA0006E7F6E5F7F4F8F4F9F4FAF4FB1E03ED054
:100BB000B4E03CD0670F781F891F9A1FA11D680FF2
:100BC000791F8A1F911DA11D6A0F711D811D911D25
:100BD000A11D20D009F468943F912AE0269F11249A
:100BE0003019305D3193DEF6CF010895462F4770FE
:100BF000405D4193B3E00FD0C9F7F6CF462F4F7059
:100C0000405D4A3318F0495D31FD4052419302D0B6
:100C1000A9F7EACFB4E0A69597958795779567955C
:100C2000BA95C9F700976105710508959B01AC015C
:100C30000A2E06945795479537952795BA95C9F783
:100C4000620F731F841F951FA01D0895DC0112966B
:100C50002C91129717968C9117972817D8F5ED912C
:100C6000FC911197E20FF11D862F992787FD909532
:100C700016960C90169702C0880F991F0A94E2F7F7
:100C80002081282B208313968C9113978F5F1396C6
:100C90008C93139716962C91169714963C91149753
:100CA000822F90E0831B910997FD04C0231B1696A9
:100CB0002C93089587E016968C93169712968C9134
:100CC00012978F5F12968C931297ED91FC91E80F1B
:100CD000F11D10820895DC0114968C911497689F81
:100CE000A00111249A0183E0359527958A95E1F7B3
:100CF00017968C91179790E02817390714F08FEF0B
:100D0000089547705070ED91FC911197E20FF31F19
:100D100015962C9130E0042E02C0359527950A9443
:100D2000E2F78081822390E027E030E0241B350B3E
:100D300002C0959587952A95E2F70895DC0190E029
:100D400007C0ED91FC911197E90FF11D10829F5F93
:100D500017968C9117979817A0F312961C921297DA
:100D600013961C92139787E016968C930895CF9351
:100D7000DF93EC01842F6C831D824F8390E061E050
:100D800070E00E949A0088839983CE010E949E069B
:100D900047E0E7E0F0E061E070E00BC0CB0102C0AB
:100DA000880F991F2A95E2F79C018D81822B8D83F4
:100DB0004150242F30E08C81DF01A81BB109A2171C
:100DC000B30764F3DF91CF910895CF93DF93DC01F4
:100DD000EB0115962D913C91169713968D919C9150
:100DE00014972817390749F411968D919C91129701
:100DF00016969C938E93159706C02E5F3F4F1696BE
:100E00003C932E9315971596ED91FC91169788813A
:100E100099819183808317962D913C911897139611
:100E20008D919C9114972817390729F411962D91CB
:100E30003C91129702C02E5F3F4F15968D919C9169
:100E400016978217930739F48C91882321F018960E
:100E50003C932E93179781E08C93DF91CF91089567
:100E6000CF93DF93DC01EB018C91882359F1179626
:100E70002D913C91189713968D919C91149728175A
:100E8000390749F411968D919C91129718969C936D
:100E90008E93179706C02E5F3F4F18963C932E9364
:100EA00017971796ED91FC911897808191819983FE
:100EB000888315968D919C911697E817F90709F488
:100EC0001C9281E0DF91CF9108955F926F927F92A3
:100ED0008F929F92AF92BF92CF92DF92EF92FF924A
:100EE0000F931F93CF93DF93EC017C876B87CC2408
:100EF000DD24552453944B01AA2497FCA094BA2CCA
:100F000031E0632E712C8B859C8562E070E00E943D
:100F10009A009A838983009709F048C00894C11CFD
:100F2000D11C1D86C501B4010E944E237B018C019A
:100F3000B601882777FD8095982F0E944E2320E0E8
:100F400030E040E251EC0E94B32220E030E040E883
:100F50005FE30E944F229B01AC01C801B7010E94D0
:100F600002247B018C0120E030E040E050E00E9450
:100F7000FE2388234CF0C801B70120E030E040E0B8
:100F80005FE30E944F2208C0C801B70120E030E0B3
:100F900040E05FE30E944E220E941B237C876B8708
:100FA0001616170624F07C866B8601C05D868D853B
:100FB0008823E1F46B857C85882777FD8095982FC1
:100FC0000E944E237B018C01C501B4010E944E2377
:100FD0002DEC3CEC4CEC5DE30E9402249B01AC0147
:100FE000C801B7010E94FE2387FF8DCF89819A81B6
:100FF000DF91CF911F910F91FF90EF90DF90CF90F5
:10100000BF90AF909F908F907F906F905F9008956A
:101010000F931F93CF93DF93EC018A010E94650722
:101020009C019A8389838D858823D9F08B859C8543
:101030000197880F991F820F931F9C838B839E8338
:101040008D83F90102C0019311938B819C818E17CE
:101050009F07C8F78D819E8198878F8318829A8712
:101060008987DF91CF911F910F9108950895FC0119
:1010700017A6A085B1850284F385E02D20813181FA
:101080008D919C911197918380832D933C93DB01EB
:101090008D919C91918380830895BF92CF92DF922E
:1010A000EF92FF920F931F93CF93DF93EC017B019D
:1010B000BCA460E0B8EFCB2EBFEFDB2E2BC0F90154
:1010C000EE0FFF1FEE0DFF1DDA01A20FB31FAC19CB
:1010D000BD09AA0FBB1FAC0FBD1F0190F081E02D11
:1010E0008D919C91E81BF90BF7FF03C0F095E195FA
:1010F000FF4F8C859D858E179F075CF02017310769
:1011000011F4862F13C07F5F272F30E002171307DB
:10111000B4F66F5F6B1548F4F7010081118171E03F
:10112000462F50E0440F551FEFCF8FEFDF91CF9147
:101130001F910F91FF90EF90DF90CF90BF90089597
:101140000895089508952F923F924F925F926F9263
:101150007F928F929F92AF92BF92CF92DF92EF9247
:10116000FF920F931F93DF93CF93CDB7DEB72C97EA
:101170000FB6F894DEBF0FBECDBFDC019C968C91FC
:101180009C978A83815089833D0134E2832E31E02C
:10119000932E8A0E9B1E4424482F552747FD5095B9
:1011A0004C5D5E4FFD01E40FF51FFC83EB83445261
:1011B0005140CA01880F991F880F991F42968A0FC4
:1011C0009B1F9C878B87FD01ED5DFE4FFE83ED83AA
:1011D000CD01C39698878F8381C0F301628973899B
:1011E000FCE06D3C7F0708F071C05B0193E0AA0C46
:1011F000BB1C9A95E1F7A60EB71ECB80DC80EB8472
:10120000FC84598000E010E05FC01801240E351EF8
:10121000F70120813181121613060CF44BC0F2E85D
:101220002F3F3F0709F446C0C9018627972797FF3C
:1012300041C088279927821B930B8A159B05D4F1FF
:10124000F60180818730B0F5F40180818A3090F119
:10125000ED81FE8130818F8198859A87898720E092
:1012600010C0E985FA858081841529F4818190E098
:101270008215930541F02F5F89859A8501969A879B
:101280008987231770F32317A9F012964C921297AF
:1012900013961C921397D1963C922E92D09781E090
:1012A00090E09E969C938E939D97A65DBE4F2C9347
:1012B00081E019C05A940894C108D1080150104027
:1012C000ECEFFFEFEE0EFF1E57FE9FCF439484E03E
:1012D00090E0680E791E0894811C911C9A81491631
:1012E00008F47BCF80E02C960FB6F894DEBF0FBEDB
:1012F000CDBFCF91DF911F910F91FF90EF90DF90C5
:10130000CF90BF90AF909F908F907F906F905F90A5
:101310004F903F902F900895CF93DF93DC01AC5D09
:10132000BE4F1D921D921D921D921D921C92A9529C
:10133000B14090E0ED01CD5DDE4F0DC0FD01E90F44
:10134000F11D83A9FD01E80FF11DEC5DFE4F8081C9
:101350008F5F80839F5F8881981780F3DF91CF91A3
:101360000895CF93DF93EC010E948C09CD5DDE4F91
:101370008881C352D140883218F0CE010E94A30860
:10138000DF91CF9108954F925F927F928F929F92BB
:10139000AF92BF92CF92DF920F93DF93CF9300D0A3
:1013A00000D0CDB7DEB72C014B016B30710524F4B2
:1013B00061E0A62EB12C03C053E0A52EB12CD201C2
:1013C0009C967C90620100E03CC0F60162897389C2
:1013D000882777FD8095982F0E944E2369837A8312
:1013E0008B839C83D2011296ED91FC911397EE0FA3
:1013F000FF1FEE0FFF1FE40DF51D6289738988271B
:1014000077FD8095982F0E944E239B01AC01698146
:101410007A818B819C810E94B3220E941B23C4018C
:10142000861B970B97FF03C0909581959F4FE4E033
:10143000F0E0CE0EDF1EA816B90614F0802F04C00F
:101440000F5F071510F28FEF0F900F900F900F9016
:10145000CF91DF910F91DF90CF90BF90AF909F9091
:101460008F907F905F904F900895EF92FF920F932F
:101470001F93CF93DF937C01EB0111E001E00FC0DC
:10148000EE0FFF1FEC0FFD1F60817181C7010E94ED
:10149000C30987FF02C010E001C011700F5FE02F89
:1014A000F0E0888199818E179F0754F7812FDF9193
:1014B000CF911F910F91FF90EF900895DC01ED9176
:1014C000FC910190F081E02D099508958F929F92F3
:1014D000AF92BF92CF92DF92EF92FF920F931F9342
:1014E000DF93CF93CDB7DEB72E970FB6F894DEBF5C
:1014F0000FBECDBF6C010F83188729873A874B87B2
:101500005C876D877E874A855B85A22E902E812E13
:1015100041155105D9F0BB24D6011296ED91FC91ED
:101520001397EE0FFF1FEE0FFF1FEC0DFD1D22891D
:101530003389241B350B37FF03C0309521953F4F6E
:10154000F601848595858217930714F0BB24B39424
:10155000D601D096ED91FC91D197EE0FFF1FEE0FC3
:10156000FF1FEC0DFD1D62897389882777FD80952B
:10157000982F0E944E237B018C01D6011296ED918B
:10158000FC911397EE0FFF1FEE0FFF1FEC0DFD1DDB
:1015900062897389882777FD8095982F0E944E2352
:1015A0009B01AC01C801B7010E94B3227B018C01F1
:1015B00020E030E040E050E00E94FE2388234CF021
:1015C000C801B70120E030E040E05FE30E944F2215
:1015D00008C0C801B70120E030E040E05FE30E94AE
:1015E0004E220E941B2320E030E08A2D992787FDA0
:1015F0009095681B790B77FF03C0709561957F4FBD
:101600006430710514F421E030E0EB2CFF24E22279
:10161000F322DE011196E5E5F2E086E001900D92FD
:101620008150E1F781E090E09C838B83892D99279D
:1016300087FD90959E838D83BC2CAD2CC601BE0189
:101640006F5F7F4F0E94350A20E030E0EF2811F0F5
:1016500021E030E0082F10E002231323882D992782
:1016600087FD90959E838D838B2D9A2DBE016F5F94
:101670007F4F0E94350A40E020E030E0012B11F05E
:1016800021E030E090E028233923232B09F041E0CA
:10169000842F2E960FB6F894DEBF0FBECDBFCF912C
:1016A000DF911F910F91FF90EF90DF90CF90BF904F
:1016B000AF909F908F900895CF93DF93EC011FA67A
:1016C000A885B985EA85FB85208131818D919C9122
:1016D0001197918380832D933C93DB018D919C9195
:1016E000918380838DA59EA5009719F0019799F4A9
:1016F0000BC0E881F9810280F381E02DCE010995CC
:101700008DA59EA5892B39F0E881F9810480F581AA
:10171000E02DCE0109958FA5DF91CF910895CF934C
:10172000DF93EC018A819B81892B61F410928902FD
:101730001B821A82109285021092860210928702F2
:1017400010928802E0918902E13350F59B0177FF06
:1017500003C0309521953F4FB901882777FD8095CB
:10176000982F2091850230918602409187025091F6
:101770008802620F731F841F951F60938502709308
:10178000860280938702909388022E2F2F5F2093EA
:10179000890230E040E050E00E94AB243B832A8382
:1017A000DF91CF910895FC018DE492E091838083D5
:1017B000CF01059660E071E00E941D210895EF922F
:1017C000FF920F931F938C017B010E94D30B81E149
:1017D00092E0F80191838083F482E3821F910F915C
:1017E000FF90EF900895EF92FF920F931F938C015B
:1017F0007B010E94D30B87E192E0F8019183808303
:10180000F482E3821F910F91FF90EF900895CF92A1
:10181000DF92FF920F931F93CF93DF936C014930B8
:1018200008F048E0440F162FFF2400E0C62FD0E058
:10183000C40FD11D14C0D6011396ED91FC911497DD
:1018400080A991A9612F0E946B0690E00F2C02C025
:10185000880F991F0A94E2F7082B1E5FF394812FDB
:1018600090E08C179D073CF3802FDF91CF911F9163
:101870000F91FF90DF90CF90089548E00E94070CF1
:10188000089544E00E94070C0895CF92DF92FF92E2
:101890000F931F93CF93DF936C01493008F048E01A
:1018A000F42EFA94162F00E0C62FD0E0C40FD11DFD
:1018B00014C0D6011396ED91FC91149780A991A9BB
:1018C000612F0E946B0690E00F2C02C0880F991FB9
:1018D0000A94E2F7082B1F5FFA94812F90E08C178F
:1018E0009D073CF3802FDF91CF911F910F91FF90C7
:1018F000DF90CF90089544E00E94450C0895BF9278
:10190000CF92DF92EF92FF920F931F93CF93DF93CB
:10191000EC01C62ED42EB22E040F142F13C0CE010C
:10192000612F42E00E94450C8C1559F0812F90E008
:101930008D1991092B2D30E0821793072CF480E04C
:1019400007C01E5F101758F31D0DF701108381E0CB
:10195000DF91CF911F910F91FF90EF90DF90CF908B
:10196000BF900895BF92CF92DF92EF92FF920F93B4
:101970001F93CF93DF93EC01EB81FC8182819381F4
:1019800021E08C37920710F4DD2406C0DD248A5A4A
:10199000914010F4DD24D39400A8F1A9E02D8381B7
:1019A000843310F410E004C010E0893308F411E02F
:1019B000CC2EBD2EFE013C96CE0162E040E028E038
:1019C0000CE07F010E947F0C082F40E050E0812F47
:1019D00090E02D2D30E082239323892B11F041E0FC
:1019E00050E010E0042315238C2D9B2D6C850E9464
:1019F0007B0C90E020E030E0012B11F021E030E0A2
:101A000040E050E08C3011F441E050E024233523D5
:101A1000232B09F091E0892FDF91CF911F910F9136
:101A2000FF90EF90DF90CF90BF900895DF92EF92FC
:101A3000FF920F931F93CF93DF93EC01EB81FC8117
:101A40008281938121E0883B920710F4DD2406C057
:101A5000DD248D51924010F4DD24D39400A8F1A927
:101A6000E02D8381863910F410E004C010E08D3D34
:101A700008F411E0FE013C96CE0162E040E028E16E
:101A800001E27F010E947F0C082F40E050E0812F8F
:101A900090E02D2D30E082239323892B11F041E03B
:101AA00050E010E004231523CE016C850E94410C08
:101AB00090E020E030E0012B11F021E030E040E048
:101AC00050E08A3011F441E050E024233523232BE9
:101AD00009F091E0892FDF91CF911F910F91FF9035
:101AE000EF90DF9008954F925F927F928F929F9236
:101AF000AF92BF92CF92DF92EF92FF920F931F931C
:101B0000DF93CF93CDB7DEB72A970FB6F894DEBF39
:101B10000FBECDBF7C010E94B20C882311F490E06F
:101B20008BC055E0C52ED12CCE0CDF1CD7011396EF
:101B3000ED91FC91149700A8F1A9E02D6381645008
:101B40001C968C91681B6695669570E06D5F7F4F63
:101B5000C6010E94D51F8E010C5F1F4FC80161E0B6
:101B600071E00E941D21C601B8010E942022C80117
:101B70000E944222DE011196E9E0F1E083E001904B
:101B80000D928150E1F7F70104850C5FAE2C7F2C9C
:101B9000BB244E010894811C911C44E0442E41E07A
:101BA000542E2FC08A2D972D602F48E00E94450C9F
:101BB000182F00D000D000D0EDB7FEB73196ADB7EA
:101BC000BEB712969C928E92119753824282848362
:101BD00015820E947503B12688E09CE8B0FAB6949D
:101BE0000EF4B9268A95D1F7EDB7FEB736960FB643
:101BF000F894FEBF0FBEEDBFC601B4010E94BC2029
:101C0000085F202F30E0D7011396ED91FC911497D7
:101C100000A8F1A9E02D838190E0089728173907E3
:101C20000CF4C0CF8A2D972D602F48E00E94450C00
:101C300090E0B81609F491E0892F2A960FB6F8942F
:101C4000DEBF0FBECDBFCF91DF911F910F91FF90EF
:101C5000EF90DF90CF90BF90AF909F908F907F904C
:101C60005F904F900895AF92BF92CF92DF92EF9224
:101C7000FF920F931F93DF93CF93CDB7DEB72797D4
:101C80000FB6F894DEBF0FBECDBFB82EA92E122F0F
:101C9000E82EF92EC701642F40E10E949B21C12E3E
:101CA000DD248E010F5F1F4F10C0C8016CE071E092
:101CB0000E943721C801B7010E94E620BC01C7017C
:101CC0000E942022C8010E944822F7018481958148
:101CD0008C159D0550F38B2D9A2D27960FB6F894F1
:101CE000DEBF0FBECDBFCF91DF911F910F91FF904F
:101CF000EF90DF90CF90BF90AF9008959F92AF92FA
:101D0000BF92CF92DF92EF92FF920F931F93DF93D8
:101D1000CF93CDB7DEB72E970FB6F894DEBF0FBEC8
:101D2000CDBF6C010E94160D882309F463C0D60153
:101D30001396ED91FC91149700A8F1A9E02D8381F1
:101D400090E01C962C91821B910960E170E00E944A
:101D500098247B01E3E0EE0CFF1CEA95E1F775E0C7
:101D6000A72EB12CAC0CBD1C6E2D6695669570E04F
:101D70006E5F7F4FC5010E94D51F8E010F5F1F4F01
:101D8000C8016E2D40E10E949B21C501B8010E944F
:101D90002022C8010E944222F60104859C2C1D2DA0
:101DA00068E0E62EF12CEC0EFD1E18C090E0801BC2
:101DB00091094097F4F0C601602F0E943D0C482F16
:101DC000C701692D712F22E00E94330EC501B701B2
:101DD0000E94CC20C7010E944222005FD6011396C8
:101DE000ED91FC91149700A8F1A9E02D83810817CB
:101DF000E8F281E02E960FB6F894DEBF0FBECDBF9D
:101E0000CF91DF911F910F91FF90EF90DF90CF90D6
:101E1000BF90AF909F900895EF92FF920F931F9302
:101E2000DF93CF9300D000D000D0CDB7DEB78C01C8
:101E300080918402882319F010928402E6C0D801B0
:101E40001896ED91FC9119971A96ED90FC901B97BE
:101E5000D7018D919C91208131818227932797FF13
:101E6000C0C09E012F5F3F4F4FE452E086E0DA0191
:101E70000D90AD01D9010D929D018150C1F7608196
:101E80007181CB019C0197FF03C0309521953F4F95
:101E9000F801428153810484F585E02DCA01880F41
:101EA000991FD901A81BB90BCD01B7FF03C09095AD
:101EB00081959F4FE817F907ECF0CB0162E070E0E5
:101EC0000E949824C8010E948F0B81E090E09A83C1
:101ED0008983D8011896ED91FC91199780819181A1
:101EE0009C838B83D0962D913C91D19760E080812B
:101EF000918147C0241B350B37FF03C030952195D6
:101F00003F4FE217F3070CF475C0D7018D919C91F8
:101F100097FF03C0909581959F4F841B950B97FF6A
:101F200003C0909581959F4FE817F9070CF462C0A4
:101F3000C8010E948F0BD8011A96ED91FC911B9756
:101F400060817181C8010E948F0B82E090E09A83CA
:101F50008983F801A085B1858D919C9111979C830F
:101F60008B8382859385FC01808191819E838D8303
:101F700081E080938402F80120A931A960E08D916D
:101F80009C9197FF61E0C9010E942606C801BE012D
:101F90006F5F7F4F0E944D0887FF37C0D8019C9626
:101FA0002C912630F0F4E22FF0E0DF01AA0FBB1FE6
:101FB000AA0FBB1FA00FB11F8B819C8153969C93CE
:101FC0008E9352973596EE0FFF1FEE0FFF1FE00F17
:101FD000F11F8D819E81918380832F5FF80124A75B
:101FE00014C0D801ED91FC910680F781E02DC80165
:101FF00009950BC0D801ED91FC910680F781E02D89
:10200000C8010995F80116A615A626960FB6F894EC
:10201000DEBF0FBECDBFCF91DF911F910F91FF901B
:10202000EF9008950F931F938C01FC0114A616A640
:1020300015A61382128282A593A50E949E06F8011E
:10204000158614861F910F910895CF93DF93EC01AD
:102050000E941210CD5DDE4F1882C352D1401CA6E3
:102060001AAA1EA61DA619AA18AA1B821A82FE0168
:10207000DE01AC5DBE4FCE014896138A128A1C92D7
:102080003496E817F907C9F71FA686E990E09D87FF
:102090008C878AE999E9A9E9BEE38E879F87A88B97
:1020A000B98BDF91CF9108950F931F938C01FC01A1
:1020B000158614860E941210F80180A991A90E9429
:1020C0009E061F910F910895DC01D096ED91FC9131
:1020D000D1978381883220F081E09F968C93089578
:1020E000CD010E9454100895EF92FF920F931F9319
:1020F000CF93DF93EC01EA85FB8520813181E88570
:10210000F985808191818227932797FFC2C0C901F9
:1021100062E070E00E949824CE010E948F0B6A81D9
:102120007B8180E090E00E944C232E853F8548898A
:1021300059890E94022420E030E040E251E40E94EC
:10214000B3227B018C0120E030E040E050E00E94AF
:10215000FE2388234CF0C801B70120E030E040E0C6
:102160005FE30E944F2208C0C801B70120E030E0C1
:1021700040E05FE30E944E220E941B239B016C877C
:102180007D87E885F9850190F081E02DF7FF03C098
:10219000F095E195FF4F8A819B81BC01660F771F07
:1021A000A9019F01261B370B37FF03C030952195EE
:1021B0003F4F42175307DCF5E81BF90BF7FF03C04D
:1021C000F095E195FF4F4E175F078CF57B836A838F
:1021D00080E090E00E944C232E853F8548895989F4
:1021E0000E94022420E030E040E251E40E94B32249
:1021F0007B018C0120E030E040E050E00E94FE23B3
:1022000088234CF0C801B70120E030E040E05FE3F4
:102210000E944F2208C0C801B70120E030E040E032
:102220005FE30E944E220E941B237D876C87E88516
:10223000F9850190F081E02DF7FF03C0F095E1955D
:10224000FF4F2A813B814C855D85C901880F991F0D
:10225000BF01681B790BCB0177FF03C09095819577
:102260009F4F481759075CF4CF01821B930B97FFD0
:1022700003C0909581959F4F481759072CF081E036
:1022800090E09EA78DA705C01EA61DA6CE010E94A8
:102290005410DF91CF911F910F91FF90EF9008950F
:1022A000EF92FF920F931F938C0181E492E0F8016B
:1022B0009183808388E090E00E94231BF82EE92E12
:1022C00062E04AE00E94B706F801F2A6E3A6178290
:1022D000168215821482C801049691878087C801EE
:1022E00006969387828717A6C8010E9412101F9135
:1022F0000F91FF90EF9008950F931F938C010E9410
:10230000501185E392E0F801918380831582148255
:1023100017821682C801049691878087C8010696A5
:1023200093878287C8010E9425101F910F910895FD
:102330000F931F938C010E947C1189E292E0F801B7
:10234000918380831F910F910895DF92EF92FF9206
:102350000F931F938C01D62E0E9450118DE192E0B5
:10236000F8019183808380E090E0A0EAB0E4868762
:102370009787A08BB18B82A593A50E94600188E00E
:1023800090E00E94231BF82EE92E61E04CE10E94B0
:10239000B706F801F0AAE1AAD2AA1F910F91FF9007
:1023A000EF90DF900895EF92FF920F931F93CF93DA
:1023B000DF93EC01F62EE42E8EE295E0B9010E9447
:1023C000BA1C0BC0FE01EF0DF11D8EE295E063A972
:1023D0004AE050E00E94361CF394EF1498F78EE226
:1023E00095E0B8010E94BA1CDF91CF911F910F9127
:1023F000FF90EF9008952F923F924F925F926F92CD
:102400007F928F929F92AF92BF92CF92DF92EF9284
:10241000FF920F931F93DF93CF93CDB7DEB7A797AC
:102420000FB6F894DEBF0FBECDBF7C0123E231E0D2
:10243000E20EF31ED7018C91EDEDFEEFEE0EFF1EC6
:10244000883208F45FC1C7010E94B109D701129612
:102450008D919C911397892B39F4D0968D919C91F5
:10246000D197892B09F44EC1D701A55DBE4FEBE68C
:10247000F2E088E001900D928150E1F7D701AD5C68
:10248000BE4FE3E6F2E088E001900D928150E1F763
:10249000D701A55CBE4FEBE5F2E088E001900D921C
:1024A0008150E1F7D7011296ED91FC911397EE0F51
:1024B000FF1FEE0FFF1FEE0DFF1D22893389E3E49E
:1024C000F1E0EE0EFF1E8FEFD7018D9383E0FD014B
:1024D000819382EEDF018D93FD0121933193DF0122
:1024E0001D927D0181E090E08D939C93E1EEFFEFE2
:1024F000EE0EFF1ED7014C91E6EDFEEFEE0EFF1E35
:102500004E5FD70112966D917C911397AD5DBE4FD2
:10251000F701E40FF11D83A990E08617970751F5A5
:1025200084A990E0F70120A931A98217930711F53A
:1025300041504DA3ABE26A2EA1E07A2E6E0C7F1CB7
:10254000CC245E010894A11CB11CF8E08F2E912CC4
:102550008C0E9D1E9701265D3E4F3FA32EA3EFE0FC
:102560002E2E312C2C0E3D1E76E1472E512C4C0E7A
:102570005D1E05C04E5F8C91481750F2C3C0DE014E
:102580005D96F30188E001900D928150E1F7C7015B
:102590000D8D1E8D2F8D38A149A15AA16BA17CA153
:1025A0000E94660A882309F4A0C0C50160E071E0BA
:1025B0000E941D21C50162E00E94A920C5016DE4B1
:1025C0000E94A920C5016C2D0E947D20C5016BE3EE
:1025D0000E94A920DD242DC00D2D10E0F801EE0F82
:1025E000FF1FEE0FFF1FEE0DFF1D82899389892BC0
:1025F00021F0C50160E50E94A920C5016D2D0E9452
:102600007D20C50160E271E00E94BC20000F111F17
:10261000000F111F0E0D1F1DD80152966D917C9158
:102620005397C5010E944C20C5016BE30E94A9206D
:10263000D394F70184A58D1578F6C50162E271E0A7
:102640000E94BC20C40160E071E00E941D21C40111
:102650006BE30E94A920C40165E271E00E94BC20E6
:10266000D70112966D917C911397C4010E941E2090
:10267000C4016BE30E94A920C40169E271E00E94D9
:10268000BC20F70160A971A9C4010E944C20C401BB
:102690006BE30E94A920C40163E00E94A920C40149
:1026A0006AE00E94A920AEA1BFA11C91C101B501A1
:1026B0000E943722C201B4010E943722C701612F54
:1026C0004DA1910182010E94D311C2010E944222B8
:1026D000C1010E94422221E0F70127A7C4010E9404
:1026E0004222C5010E94422204C08EE295E00E946F
:1026F000731BC39488E090E0680E791E94E0C916BD
:1027000009F03DCFA7960FB6F894DEBF0FBECDBF40
:10271000CF91DF911F910F91FF90EF90DF90CF90BD
:10272000BF90AF909F908F907F906F905F904F90F1
:102730003F902F900895FF920F931F93DF93CF93B5
:1027400000D000D0CDB7DEB78C01DC01D2961C9250
:10275000D2971896ED91FC911997208131811A96A4
:10276000ED91FC911B970190F081E02D0D5D1E4FC6
:10277000D8014C910352114090918A02D8019C9645
:102780008C919C97891710F49C969C930D5D1E4F1D
:10279000D8018C91035211408823B1F0FF2480E0CE
:1027A00090E0E227F327F7FF02C081E090E020E00D
:1027B00030E04F3E11F021E030E082239323892B5B
:1027C00041F0FF24F39405C0F80114A610928A0288
:1027D000FF2481E090E09A8389831C821B82D801C8
:1027E0001896ED91FC911997808191819C838B8340
:1027F000C801BE016F5F7F4F0E944D08982F87FD73
:102800001AC00D5D1E4FF801808103521140F8017E
:10281000E80FF11D93AB823030F082A9891719F4CB
:10282000C8010E942510F801ED5DFE4F80818F5F89
:10283000808390E015C0C8010E948C09D8019C9645
:102840008C91863061F480918A02F801E80FF11DC5
:10285000EC5DFE4F8081823010F090E003C091E08B
:10286000FF20D1F40D5D1E4FF8018081035211400D
:10287000883290F081E0D8019F968C939F97ED91DC
:10288000FC910680F781E02DC8010995C8010E94DE
:10289000251010928A025AC0992309F457C00D5D81
:1028A0001E4FF80140810352114050918A02842F3B
:1028B00090E0C296F801E80FF91F20E030E0DC015B
:1028C000D3971BC080812F5F3F4F31978517A9F4A5
:1028D0006F5F7F4F461B0D5D1E4FD8014C93035217
:1028E00011406D5C7F4F600F711F50E04F5F5F4F75
:1028F000C801C3960E94DB0207C0BD01621B730BB7
:102900008FEF6F3F7807F1F620918A02E22FF0E017
:10291000EE0FFF1FEE0FFF1FE00FF11F8B819C8159
:10292000938B828BD801AD5DBE4F8C91F801E80F7F
:10293000F11D23AB8F5F8C932F5F20938A0226308B
:1029400029F410928A02D8019C962C930F900F9034
:102950000F900F90CF91DF911F910F91FF900895ED
:102960000F931F93CF93DF938C01DC019F961C92F2
:102970009F9718960D90BC91A02DEC01EA85FB85E0
:10298000208131818D919C911197918380832D932A
:102990003C93DB018D919C9191838083C8010E94BF
:1029A0009B138FA5DF91CF911F910F9108951F92D7
:1029B0000F920FB60F9211242F933F934F935F9373
:1029C0006F937F938F939F93AF93BF93EF93FF93F7
:1029D000E0918E02F0918F020995FF91EF91BF91E6
:1029E000AF919F918F917F916F915F914F913F91A7
:1029F0002F910F900FBE0F901F9018950F931F935C
:102A00008130910541F56F5F7F4F09F03FC080E94C
:102A100092E068EC70E040E050E00E9408088FE926
:102A200092E061EA71E00E941D2186EA92E00E9434
:102A3000981180E494E061E00E94A51183E794E09E
:102A400060E474E00E94DF0B80E894E060E474E0EE
:102A50000E94F30B1BC0892BC9F46F5F7F4FB1F449
:102A60000DE412E0109381040093800485E894E063
:102A70000E944222109374040093730488E794E048
:102A80000E9442228FE992E00E9442221F910F9100
:102A9000089580E090E06FEF7FEF0E94FE140895AC
:102AA00081E090E06FEF7FEF0E94FE1408958DE0CB
:102AB00060919E020E94B01E10929E020895EF92B5
:102AC000FF920F931F938C017B018BE061E00E94CA
:102AD000B01E80910B0290910C029C01029FC001DC
:102AE000039F900D129F900D11240E94FF1D8BE0FB
:102AF00060E00E94B01E80910B0290910C029C013C
:102B0000E29EC001E39E900DF29E900D11240E9462
:102B1000FF1D1F910F91FF90EF90089580E00E949C
:102B2000241D089580E065E278E141E050E00E94D4
:102B3000011D0895EF92FF920F931F93CF93DF93A0
:102B40007C010E948E1500E010E030C081E090E032
:102B50006FE170E00E945F15E70123C08133A1F0AF
:102B6000863469F08033E1F481E090E063E070E066
:102B70000E945F1581E090E063E070E00FC081E0AB
:102B800090E063E070E004C083E090E061E070E01A
:102B90000E945F1583E090E061E070E00E945F15A5
:102BA000219688818823D1F60F5F1F4F80910902FB
:102BB00090E00817190754F20E949215DF91CF9107
:102BC0001F910F91FF90EF900895CF92DF92EF92B7
:102BD000FF920F931F93DF93CF93CDB7DEB7C45609
:102BE000D0400FB6F894DEBF0FBECDBF6C018E0192
:102BF0000C5F1F4FC80162EA71E00E941D21C601EF
:102C0000B8010E94A81FF82EC8010E944222FF208E
:102C1000F1F08E01055F1F4FC801B60142E050E0A0
:102C20000E941422C8017E010894E11CF11CB70126
:102C300043E050E020E030E00E94351FC8010E94D0
:102C40004222C7010E948D0280930A022FC08E018A
:102C50000E5E1F4FC80165EA71E00E941D21C6018A
:102C6000B8010E94A81FF82EC8010E944222FF202E
:102C700019F18E01075E1F4FC801B60142E050E016
:102C80000E941422C8017E010894E11CF11CB701C6
:102C900043E050E020E030E00E94351FC8010E9470
:102CA0004222C7010E948D02809309028EE295E0C4
:102CB000B6010E94ED1CB7C08E01005E1F4FC80117
:102CC00068EA71E00E941D21C601B8010E94A81F98
:102CD000F82EC8010E944222FF2009F443C08DE073
:102CE00061E00E94B01E8E01095D1F4FC801B60150
:102CF00042E050E00E941422C801BE01685A7F4F92
:102D00004DE050E020E030E00E94351FC8010E94F5
:102D10004222F601848195810F97A0F08E01025D19
:102D20001F4FC801B6014EE050E00E941422C801B6
:102D30000E94241F70930C0260930B02C8010E9432
:102D4000422206C084EA91E090930C0280930B0229
:102D5000CE01885A9F4F0E949A158DE060E00E9434
:102D6000B01EA4CF8E010B5C1F4FC8016BEA71E04F
:102D70000E941D21C601B8010E94A81FF82EC8019B
:102D80000E944222FF2009F44EC08CE3E82EF12C71
:102D9000EC0EFD1EC7016EEA71E00E941D218E013E
:102DA0000D5B1F4FC80160910A024AE00E949B21FF
:102DB000C701B8010E94CC20C8010E944222C7016D
:102DC00069EB71E00E94BC208E01065B1F4FC801B9
:102DD000609109024AE00E949B21C701B8010E944C
:102DE000CC20C8010E944222C70169EB71E00E9419
:102DF000BC208E010F5A1F4F60910B0270910C0284
:102E0000C8014AE00E946A21C701B8010E94CC2093
:102E1000C8010E9442228EE295E0B7010E94ED1C9B
:102E2000C7010E944222CC59DF4F0FB6F894DEBF93
:102E30000FBECDBFCF91DF911F910F91FF90EF900B
:102E4000DF90CF900895CF92DF92FF920F931F9360
:102E5000DF93CF93CDB7DEB7E3970FB6F894DEBF1D
:102E60000FBECDBF6C01CE01039661EA71E00E94F6
:102E70001D21C6016BEB71E00E94621F882339F0AF
:102E80008EE295E068E670E00E94931B85C08E019B
:102E9000065F1F4FC8016DEB71E00E941D21C60146
:102EA000B8010E94A81FF82EC8010E944222FF20EC
:102EB00039F08EE295E06FEB71E00E94A71C6CC0C8
:102EC0008E010F5E1F4FC80169EF71E00E941D2146
:102ED000C601B8010E94A81FF82EC8010E94422214
:102EE000FF20A1F080915D0590915E05009711F49F
:102EF00081E695E0BE016F5F7F4F681B790B8EE224
:102F000095E04AE050E00E94881C46C08E01085EB1
:102F10001F4FC8016BEF71E00E941D21C601B8016F
:102F20000E94A81FF82EC8010E944222FF2071F0C3
:102F30008E01015E1F4FC801B6010E943722C801F1
:102F40000E94E515C8010E94422226C08E010A5D3A
:102F50001F4FC8016DEF71E00E941D21C601B8012D
:102F60000E94A81FF82EC8010E944222FF20A1F44F
:102F70008E01035D1F4FC8016FEF71E00E941D219C
:102F8000C601B8010E94A81FF82EC8010E94422263
:102F9000FF2011F00E948E15CE0103960E9442225E
:102FA000E3960FB6F894DEBF0FBECDBFCF91DF9191
:102FB0001F910F91FF90DF90CF9008950F931F9373
:102FC000DF93CF93CDB7DEB727970FB6F894DEBF68
:102FD0000FBECDBF8E010F5F1F4F26C08EE295E062
:102FE0000E94371A682F8A3049F08B301CF48823EE
:102FF00029F016C08D3011F0833291F4C8016FE9C9
:1030000072E00E943722C8010E942317C8010E9463
:1030100042228FE992E061EA71E00E94512104C0EE
:103020008FE992E00E94A9208EE295E00E94061AA4
:10303000892BA1F627960FB6F894DEBF0FBECDBF41
:10304000CF91DF911F910F910895EF92FF920F930F
:103050001F9380918D048823A1F48DE894E00E9451
:10306000151B892B71F00E94D91D60939B047093EE
:103070009C0480939D0490939E048DE894E00E94AC
:103080001F1B0E94D91D60939F047093A00480931E
:10309000A1049093A20482E00E94E31EBC0120914F
:1030A0009F043091A0044091A1045091A20480910A
:1030B0009B0490919C04A0919D04B0919E04790181
:1030C0008A01E81AF90A0A0B1B0BD801C701E09222
:1030D0009704F09298040093990410939A04209313
:1030E0009B0430939C0440939D0450939E0484362B
:1030F0009105A105B1050CF181300DE7900700E0C5
:10310000A00700E0B00714F081E09DE790939604DB
:1031100080939504672B59F08091950490919604C3
:10312000909581959F4F909396048093950480E9A4
:1031300092E065E974E00E94E5061F910F91FF900F
:10314000EF9008951F9311E00CC086EA92E064EAC4
:1031500074E00E945E0A8093A304882311F0109308
:103160009E0280E992E064EA74E00E9430078823BE
:1031700061F71F9108958EE295E040E051EE60E026
:1031800070E00E947F1982E060E00E94441E8BE0A4
:1031900061E00E94441E8DE061E00E94441EE1E86F
:1031A000F0E080E180831092800082E080938D02C5
:1031B00088EA91E690938C0280938B02909387002B
:1031C0008093860082E1808387E595E190938F026A
:1031D00080938E0281E080936F000E9492158FE9A8
:1031E00092E064E170E00E94D51F08951F920F9253
:1031F0000FB60F9211242F933F934F938F939F936A
:10320000EF93FF938091C00082FD1DC04091C600E6
:103210002091E6043091E7042F5F3F4F2F73307009
:103220008091E8049091E9042817390771F0E09142
:10323000E604F091E704EA55FB4F40833093E7043E
:103240002093E60402C08091C600FF91EF919F9108
:103250008F914F913F912F910F900FBE0F901F9024
:103260001895E0913A05F0913B05E05CFF4F8191A4
:10327000919120813181821B930B8F739070892BE8
:1032800011F00E94DE1708951F920F920FB60F9251
:1032900011242F933F938F939F93EF93FF9320914C
:1032A0002A0530912B0580912C0590912D0528172A
:1032B000390731F48091C1008F7D8093C10014C023
:1032C000E0912C05F0912D05E651FB4F2081809176
:1032D0002C0590912D0501968F73907090932D057C
:1032E00080932C052093C600FF91EF919F918F91C1
:1032F0003F912F910F900FBE0F901F901895AF9296
:10330000BF92DF92EF92FF920F931F93CF93DF93C1
:10331000EC017A018B01DD24403081EE580780E01A
:10332000680780E0780711F0DD24D39491E0A92E9E
:10333000B12CEC89FD89DD2069F0C50108A002C02F
:10334000880F991F0A94E2F7808360E079E08DE3AB
:1033500090E005C0108260E874E88EE190E0A8017A
:1033600097010E94AB242150304040405040569578
:1033700047953795279580E12030380720F0DD20EC
:1033800011F0DD24D6CFE889F9893083EA89FB89F9
:10339000208319A2EE89FF89408121E030E0C90134
:1033A0000C8C02C0880F991F0A94E2F7482B4083C7
:1033B000EE89FF894081C9010D8C02C0880F991FD9
:1033C0000A94E2F7482B4083EE89FF894081C901C6
:1033D0000E8C02C0880F991F0A94E2F7482B408395
:1033E000EE89FF8980810F8C02C0220F331F0A945F
:1033F000E2F7209528232083DF91CF911F910F9131
:10340000FF90EF90DF90BF90AF900895DC011C9685
:10341000ED91FC911D97E05CFF4F219131918081EE
:103420009181281B390B2F733070C9010895DC017D
:103430001C96ED91FC911D97E05CFF4F208131813E
:10344000E054F040DF01AE5BBF4F8D919C9111972E
:103450002817390719F42FEF3FEF07C08D919C9182
:10346000E80FF91F8081282F30E0C9010895DC01A1
:103470001C96ED91FC911D97E05CFF4F20813181FE
:10348000E054F040DF01AE5BBF4F8D919C911197EE
:103490002817390719F42FEF3FEF10C08D919C9139
:1034A0001197E80FF91F20818D919C91119701963A
:1034B0008F73907011969C938E9330E0C90108959C
:1034C000DC0191968C919197882339F05496ED9177
:1034D000FC915597808186FFF9CF91961C920895B3
:1034E000CF93DF93EC01EE85FF85E05CFF4F2081F9
:1034F0003181E054F0402F5F3F4F2F733070DF0178
:10350000AE5BBF4F8D919C91119728173907D1F36E
:10351000E05CFF4F80819181E054F040E80FF91F9B
:103520006083EE85FF85E05CFF4F31832083EE8969
:10353000FF89208181E090E00F8C02C0880F991FE5
:103540000A94E2F7282B208381E089A3EC89FD8986
:1035500080818064808381E090E0DF91CF91089545
:10356000109231051092300588EE93E0A0E0B0E0B3
:103570008093320590933305A0933405B0933505BD
:1035800087E792E090932F0580932E0586EA94E0DA
:1035900090933B0580933A058AEE94E090933D0525
:1035A00080933C0585EC90E090933F0580933E0529
:1035B00084EC90E0909341058093400580EC90E08E
:1035C000909343058093420581EC90E090934505EC
:1035D0008093440582EC90E09093470580934605E4
:1035E00086EC90E0909349058093480584E08093B1
:1035F0004A0583E080934B0587E080934C0585E086
:1036000080934D0581E080934E050895CF93DF931D
:103610000E94091E0E94BB18C1E3D9E10E94A218B2
:103620002097E1F30E943119F9CFFC0120E030E04E
:103630008081882311F421E030E0C9010895FC0164
:1036400081E0808308950E94B6000895CF92DF92B2
:10365000EF92FF920F931F93CF93DF937C016B0147
:103660008A01C0E0D0E00FC0D6016D916D01D70195
:10367000ED91FC910190F081E02DC7010995C80FF3
:10368000D91F015010400115110571F7CE01DF91CE
:10369000CF911F910F91FF90EF90DF90CF90089501
:1036A000EF92FF920F931F93CF93DF937C018B01D7
:1036B000C0E0D0E0F8010F5F1F4F6491662359F01E
:1036C000D701ED91FC910190F081E02DC7010995A2
:1036D000C80FD91FEFCFCE01DF91CF911F910F916E
:1036E000FF90EF900895EF92FF920F931F938C013C
:1036F000DC01ED91FC910190F081E02D6DE00995E8
:103700007C01D801ED91FC910190F081E02DC80180
:103710006AE009959C012E0D3F1DC9011F910F9173
:10372000FF90EF900895EF92FF920F931F937C010B
:103730000E94501B8C01C7010E94731B9C01200F2B
:10374000311FC9011F910F91FF90EF900895CF9302
:10375000DF93EC016115710519F420E030E00FC032
:10376000DB010D900020E9F71197A61BB70BE8814C
:10377000F9810280F381E02DAD0109959C01C90119
:10378000DF91CF9108954F925F927F928F929F9297
:10379000AF92BF92CF92DF92EF92FF920F931F935F
:1037A000DF93CF93CDB7DEB7A1970FB6F894DEBF06
:1037B0000FBECDBF2C01742ECB01223008F42AE0BD
:1037C00019A231E2C32ED12CCC0EDD1E822E9924FB
:1037D000AA24BB24672D752FA50194010E94AB2458
:1037E00079018A01C801B701A50194010E946524ED
:1037F000472D461B0894C108D1084A3014F4405D97
:1038000001C0495CF6014083E114F1040105110592
:1038100021F07E2C5F2DC801DDCFC201B6010E94D0
:10382000A71BA1960FB6F894DEBF0FBECDBFCF91F8
:10383000DF911F910F91FF90EF90DF90CF90BF909D
:10384000AF909F908F907F905F904F900895DC0194
:103850002115310541F4ED91FC910190F081E02DAD
:10386000642F099508950E94C31B0895EF92FF925B
:103870000F931F939A01E62EFF2400E010E0B80199
:10388000A7010E94271C1F910F91FF90EF900895B0
:10389000CF92DF92EF92FF920F931F93CF93DF931C
:1038A000EC016A017B012115310541F4E881F981C0
:1038B0000190F081E02D642F09951FC02A30310559
:1038C000D1F477FF17C0E881F9810190F081E02DF4
:1038D0006DE209958C0144275527BA014C195D0901
:1038E0006E097F09CE012AE00E94C31B9801280FB0
:1038F000391F04C02AE00E94C31B9C01C901DF914B
:10390000CF911F910F91FF90EF90DF90CF9008958E
:10391000CF92DF92EF92FF920F931F936C017B0186
:103920009A010027F7FC0095102FB801A7010E940B
:10393000481C8C01C6010E94731B080F191FC80187
:103940001F910F91FF90EF90DF90CF900895EF922D
:10395000FF920F931F937C010E94A71B8C01C7014C
:103960000E94731B080F191FC8011F910F91FF9030
:10397000EF900895AF92BF92CF92DF92EF92FF92B5
:103980000F931F93CF93DF935C016B01EE24FF2411
:10399000C0E0D0E010C0D501ED91FC910081118113
:1039A000C601BE010E94131F682FC501F8010995C9
:1039B000E80EF91E2196F60184819581C817D90772
:1039C00050F3C701DF91CF911F910F91FF90EF90BE
:1039D000DF90CF90BF90AF900895EF92FF920F933A
:1039E0001F937C010E94BA1C8C01C7010E94731BAB
:1039F0009C01200F311FC9011F910F91FF90EF9083
:103A00000895823000F5E82FF0E0EE0FFF1FE05B35
:103A1000FA4F71836083882319F08130A1F408C0C4
:103A2000809169008C7F842B80936900E89A0895C7
:103A300080916900440F551F440F551F837F842BCD
:103A400080936900E99A0895823080F4882319F000
:103A5000813021F402C0E89801C0E998E82FF0E035
:103A6000EE0FFF1FE05BFA4F1182108208951F9244
:103A70000F920FB60F9211242F933F934F935F93A2
:103A80006F937F938F939F93AF93BF93EF93FF9326
:103A90008091500590915105892B29F0E0915005B6
:103AA000F09151050995FF91EF91BF91AF919F91D1
:103AB0008F917F916F915F914F913F912F910F90D7
:103AC0000FBE0F901F9018951F920F920FB60F9276
:103AD00011242F933F934F935F936F937F938F9313
:103AE0009F93AF93BF93EF93FF9380915205909173
:103AF0005305892B29F0E0915205F0915305099562
:103B0000FF91EF91BF91AF919F918F917F916F91B5
:103B10005F914F913F912F910F900FBE0F901F908B
:103B200018951F920F920FB60F9211242F933F9367
:103B30008F939F93AF93BF938091580590915905B0
:103B4000A0915A05B0915B0530915C050196A11DCD
:103B5000B11D232F2D5F2D3720F02D570196A11D6C
:103B6000B11D20935C058093580590935905A0934F
:103B70005A05B0935B058091540590915505A0912D
:103B80005605B09157050196A11DB11D80935405AE
:103B900090935505A0935605B0935705BF91AF91EB
:103BA0009F918F913F912F910F900FBE0F901F907B
:103BB00018959FB7F8942091540530915505409180
:103BC00056055091570586B5A89B06C08F3F21F03A
:103BD0002F5F3F4F4F4F5F4F9FBF542F432F322FC9
:103BE0002227280F311D411D511D82E0220F331F56
:103BF000441F551F8A95D1F7B901CA01089501974D
:103C000039F0880F991F880F991F02970197F1F7D4
:103C10000895789484B5826084BD84B5816084BD44
:103C200085B5826085BD85B5816085BDEEE6F0E035
:103C3000808181608083E1E8F0E010828081826091
:103C40008083808181608083E0E8F0E08081816012
:103C50008083E1EBF0E0808184608083E0EBF0E042
:103C6000808181608083EAE7F0E0808184608083E6
:103C70008081826080838081816080838081806890
:103C800080831092C1000895CF93DF93482F50E0B6
:103C9000CA018E549F4FFC01349142565F4FFA0186
:103CA0008491882369F190E0880F991FFC01E05806
:103CB000FF4FA591B491FC01E657FF4FC591D491F8
:103CC000662351F42FB7F8948C91932F9095892304
:103CD0008C93888189230BC0623061F42FB7F894EC
:103CE0008C91932F909589238C938881832B888343
:103CF0002FBF06C09FB7F8948C91832B8C939FBFE6
:103D0000DF91CF910895833071F0843028F48130B1
:103D1000A1F0823021F514C08630B1F08730D1F0A7
:103D20008430E9F404C0809180008F7703C08091D3
:103D300080008F7D80938000089584B58F7702C0C6
:103D400084B58F7D84BD08958091B0008F77809376
:103D5000B00008958091B0008F7D8093B0000895E9
:103D6000FF920F931F93F62E482F50E0CA018A53FB
:103D70009F4FFC012491CA018E549F4FFC01149166
:103D800042565F4FFA0104910023C9F0222319F033
:103D9000822F0E94831EE02FF0E0EE0FFF1FE657F8
:103DA000FF4FA591B4919FB7F894FF2021F48C9117
:103DB0001095812302C08C91812B8C939FBF1F9102
:103DC0000F91FF9008950F931F93482F50E0CA0161
:103DD0008A539F4FFC012491CA018E549F4FFC01CE
:103DE000049142565F4FFA011491112319F420E017
:103DF00030E015C0222319F0822F0E94831E812FEC
:103E000090E0880F991F8C569F4FFC01A591B491AB
:103E10008C9120E030E0802311F021E030E0C901F6
:103E20001F910F910895FC0184819581681779078E
:103E300048F40190F081E02D309721F0E60FF71F54
:103E40008081089580E00895FC0180819181009730
:103E500029F420E030E040E050E004C00E94AB02D2
:103E60009B01AC01B901CA0108950F931F93CF9331
:103E7000DF93FC018B0141155105F9F061157105C6
:103E8000E1F0848195812817390718F0FB01108231
:103E900014C041505040EC01C21BD30B4C175D07BE
:103EA00008F4EA0160817181620F731FC801AE01DD
:103EB0000E941203C00FD11F1882DF91CF911F9172
:103EC0000F910895DC01FB0114968D919C9115973B
:103ED000892B31F461157105A9F090E0808108C04B
:103EE0000D90BC91A02D6115710529F490E08C9185
:103EF000882349F407C0CD010E94F4029C0190E0A0
:103F0000232B09F491E0892F0895FC01DB0114961D
:103F10002D913C91159784819581821B930B841779
:103F20009507A0F080819181009781F06D917C913F
:103F30006115710559F0840F951FA9010E940403B2
:103F40009C0180E0232B19F481E0089580E008951E
:103F5000FC01DB012481358114968D919C9115978C
:103F60002817390710F480E00895CF0140E050E0B1
:103F70000E94851F08950F931F93CF93DF93EC0149
:103F80008B016F5F7F4F888199810E94B8010097F4
:103F900011F480E005C0998388831B830A8381E044
:103FA000DF91CF911F910F910895CF93DF93EC0193
:103FB00088819981892B29F08A819B8186179707AF
:103FC00060F4CE010E94BB1F882341F08C819D814B
:103FD000892B19F4E881F981108281E0DF91CF917A
:103FE0000895EF92FF920F931F93CF93DF93EC010D
:103FF0007B016C817D81E114F104C1F04115510513
:1040000099F08A01060F171FB8010E94D51F882357
:1040100069F0888199812C813D81820F931FB701BE
:104020000E94FD021D830C8381E001C080E0DF91CE
:10403000CF911F910F91FF90EF900895EF92FF9213
:104040000F931F93DF93CF9300D000D000D0CDB754
:10405000DEB77C01CB018E010F5F1F4FB8014AE034
:1040600050E00E945F03F80101900020E9F73197CA
:10407000E01BF10BC701B801AF010E94F11F2696AA
:104080000FB6F894DEBF0FBECDBFCF91DF911F9169
:104090000F91FF90EF900895EF92FF920F931F936F
:1040A000DF93CF93CDB7DEB727970FB6F894DEBF77
:1040B0000FBECDBF7C01CB018E010F5F1F4FB8013A
:1040C0004AE050E00E942103F80101900020E9F746
:1040D0003197E01BF10BC701B801AF010E94F11F3E
:1040E00027960FB6F894DEBF0FBECDBFCF91DF91FC
:1040F0001F910F91FF90EF900895EF92FF920F9311
:104100001F93DF93CF9300D000D0CDB7DEB77C01F3
:10411000862F90E08E010F5F1F4FB8014AE050E0FC
:104120000E942103F80101900020E9F73197E01B7C
:10413000F10BC701B801AF010E94F11F0F900F9062
:104140000F900F90CF91DF911F910F91FF90EF9003
:104150000895DF93CF9300D0CDB7DEB769831A827D
:10416000BE016F5F7F4F41E050E00E94F11F0F9052
:104170000F90CF91DF9108956115710511F480E0E2
:104180000895DB010D900020E9F71197A61BB70BEE
:10419000AD010E94F11F0895FB016081718144818E
:1041A00055810E94F11F0895CF93DF93EC01888120
:1041B0009981009711F00E946001198218821D8276
:1041C0001C821B821A82DF91CF9108950F931F9357
:1041D000182F092FFB0160817181448155810E9454
:1041E000F11F882321F4812F902F0E94D420812F4A
:1041F000902F1F910F910895EF92FF920F931F93AD
:10420000CF93DF93EC017B018A01BA010E94D51F95
:10421000882321F4CE010E94D42007C01D830C8383
:1042200088819981B7010E94FD02CE01DF91CF9173
:104230001F910F91FF90EF900895CF93DF93EC01C2
:10424000198218821B821A821D821C821E826115AD
:10425000710551F0DB010D900020E9F71197A61BC5
:10426000B70BAD010E94FC20DF91CF910895CF9351
:10427000DF93EC01198218821B821A821D821C8234
:104280001E826115710551F0DB010D900020E9F7E8
:104290001197A61BB70BAD010E94FC20DF91CF91B7
:1042A00008950F931F93182F092F6115710559F069
:1042B000DB010D900020E9F71197A61BB70BAD01AC
:1042C0000E94FC2002C00E94D420812F902F1F91B9
:1042D0000F910895EF92FF920F931F93DF93CF9367
:1042E000CDB7DEB762970FB6F894DEBF0FBECDBF75
:1042F0008C01CB01F8011182108213821282158287
:10430000148216827E010894E11CF11CB70150E072
:104310000E942103C801B7010E94512162960FB685
:10432000F894DEBF0FBECDBFCF91DF911F910F91EB
:10433000FF90EF900895EF92FF920F931F93DF93FA
:10434000CF93CDB7DEB729970FB6F894DEBF0FBE77
:10435000CDBF8C01862FF801118210821382128248
:1043600015821482168290E07E010894E11CF11CF3
:10437000B70150E00E945F03C801B7010E945121BC
:1043800029960FB6F894DEBF0FBECDBFCF91DF9157
:104390001F910F91FF90EF900895BF92CF92DF92FF
:1043A000EF92FF920F931F93CF93DF93082FB92EB5
:1043B0006B017A01E9012417350710F4EA0179014C
:1043C000802F9B2D62E072E00E941D21D601149681
:1043D0008D919C9115978E159F05D0F08C179D0798
:1043E00008F4EC01D601ED91FC911197EC0FFD1F43
:1043F000108110826D917C916E0D7F1D802F9B2D01
:104400000E945121D601ED91FC91EC0FFD1F10830C
:10441000802F9B2DDF91CF911F910F91FF90EF90F7
:10442000DF90CF90BF9008950F931F938C01FB01F5
:10443000248135810E94CD21C8011F910F910895DB
:10444000CF93DF93EC01FB018617970761F0608142
:1044500071816115710529F0448155810E94FC200C
:1044600002C00E94D420CE01DF91CF910895FC01BB
:1044700011821082138212821582148216820E9487
:1044800020220895FC01808191810E94600108959D
:10449000FC01808191810E94600108955058BB27E2
:1044A000AA270ED071C162D130F067D120F031F46B
:1044B0009F3F11F41EF457C10EF4E095E7FB4DC188
:1044C000E92F73D180F3BA17620773078407950742
:1044D00018F071F49EF58BC10EF4E0950B2EBA2FF7
:1044E000A02D0B01B90190010C01CA01A0011124FA
:1044F000FF27591B99F0593F50F4503E68F11A16A6
:10450000F040A22F232F342F4427585FF3CF469536
:1045100037952795A795F0405395C9F77EF41F1658
:10452000BA0B620B730B840BBAF09150A1F0FF0F22
:10453000BB1F661F771F881FC2F70EC0BA0F621F0E
:10454000731F841F48F4879577956795B795F795FE
:104550009E3F08F0B3CF9395880F08F09927EE0F90
:104560009795879508950CD00FC107D140F0FED0E4
:1045700030F021F45F3F19F0F0C0511139C1F3C0A0
:1045800014D198F39923C9F35523B1F3951B550B17
:10459000BB27AA2762177307840738F09F5F5F4F16
:1045A000220F331F441FAA1FA9F333D00E2E3AF057
:1045B000E0E830D091505040E695001CCAF729D071
:1045C000FE2F27D0660F771F881FBB1F26173707C0
:1045D0004807AB07B0E809F0BB0B802DBF01FF27F0
:1045E00093585F4F2AF09E3F510568F0B6C000C156
:1045F0005F3FECF3983EDCF3869577956795B7952A
:10460000F7959F5FC9F7880F911D9695879597F944
:104610000895E1E0660F771F881FBB1F62177307BD
:104620008407BA0720F0621B730B840BBA0BEE1FD2
:1046300088F7E095089504D06894B111D9C0089521
:10464000BCD088F09F5790F0B92F9927B751A0F0B0
:10465000D1F0660F771F881F991F1AF0BA95C9F716
:1046600012C0B13081F0C3D0B1E00895C0C0672F4F
:10467000782F8827B85F39F0B93FCCF386957795C6
:104680006795B395D9F73EF49095809570956195AF
:104690007F4F8F4F9F4F0895E89409C097FB3EF4DA
:1046A00090958095709561957F4F8F4F9F4F99237F
:1046B000A9F0F92F96E9BB279395F69587957795FD
:1046C0006795B795F111F8CFFAF4BB0F11F460FFBD
:1046D0001BC06F5F7F4F8F4F9F4F16C0882311F015
:1046E00096E911C0772321F09EE8872F762F05C029
:1046F000662371F096E8862F70E060E02AF09A95C4
:10470000660F771F881FDAF7880F9695879597F9B8
:104710000895990F0008550FAA0BE0E8FEEF161652
:104720001706E807F907C0F012161306E407F507A5
:1047300098F0621B730B840B950B39F40A2661F019
:10474000232B242B252B21F408950A2609F4A140BC
:10475000A6958FEF811D811D089597F99F6780E8C9
:1047600070E060E008959FEF80EC089500240A94C3
:104770001616170618060906089500240A9412163C
:104780001306140605060895092E0394000C11F46F
:10479000882352F0BB0F40F4BF2B11F460FF04C01C
:1047A0006F5F7F4F8F4F9F4F089557FD9058440F75
:1047B000551F59F05F3F71F04795880F97FB991F80
:1047C00061F09F3F79F0879508951216130614063D
:1047D000551FF2CF4695F1DF08C0161617061806CA
:1047E000991FF1CF86957105610508940895E894A5
:1047F000BB2766277727CB0197F908958ADF08F44E
:104800008FEF08950BD0C0CFB1DF28F0B6DF18F0DE
:10481000952309F0A2CFA7CF1124EACFC6DFA0F3DA
:10482000959FD1F3950F50E0551F629FF001729F45
:10483000BB27F00DB11D639FAA27F00DB11DAA1F64
:10484000649F6627B00DA11D661F829F2227B00DB1
:10485000A11D621F739FB00DA11D621F839FA00D3C
:10486000611D221F749F3327A00D611D231F849F8C
:10487000600D211D822F762F6A2F11249F575040E3
:104880008AF0E1F088234AF0EE0FFF1FBB1F661F7E
:10489000771F881F91505040A9F79E3F510570F037
:1048A0005CCFA6CF5F3FECF3983EDCF3869577951F
:1048B0006795B795F795E7959F5FC1F7FE2B880F32
:1048C000911D9695879597F90895629FD001739FE2
:1048D000F001829FE00DF11D649FE00DF11D929F9C
:1048E000F00D839FF00D749FF00D659FF00D9927DB
:1048F000729FB00DE11DF91F639FB00DE11DF91FFF
:10490000BD01CF0111240895AA1BBB1B51E107C0B3
:10491000AA1FBB1FA617B70710F0A61BB70B881F4F
:10492000991F5A95A9F780959095BC01CD010895DE
:1049300097FB092E07260AD077FD04D0E5DF06D0C5
:1049400000201AF4709561957F4F0895F6F79095C1
:1049500081959F4F0895A1E21A2EAA1BBB1BFD0152
:104960000DC0AA1FBB1FEE1FFF1FA217B307E4074E
:10497000F50720F0A21BB30BE40BF50B661F771FA6
:10498000881F991F1A9469F7609570958095909586
:104990009B01AC01BD01CF010895EE0FFF1F0590F3
:1049A000F491E02D09942F923F924F925F926F9273
:1049B0007F928F929F92AF92BF92CF92DF92EF92AF
:1049C000FF920F931F93CF93DF93CDB7DEB7CA1B30
:1049D000DB0B0FB6F894DEBF0FBECDBF09942A885B
:1049E000398848885F846E847D848C849B84AA8403
:1049F000B984C884DF80EE80FD800C811B81AA8190
:104A0000B981CE0FD11D0FB6F894DEBF0FBECDBF5A
:104A1000ED01089510E0CEEDD0E004C0FE010E944B
:0E4A2000CF242296C03ED107C9F7F894FFCFED
:104A2E000041530025303258003030003000253020
:104A3E0032780057303800573033004952005F004B
:104A4E003D00443D0043503D0053503D0053796EB0
:104A5E00633A2000202D3E2053796E6346616374C5
:104A6E003A20002C20436C6F636B3A20002C2054AC
:104A7E006F6C3A20002C20506174744C656E3A2095
:104A8E000020002C2050756C73653A20002C2000FD
:104A9E002C206D53746172743A20005369676E61F5
:104AAE006C3A20002E2000205B005D005061747473
:104ABE0065726E3A20002050003A20002A5B002CCE
:104ACE0000006974006972006973006970004954CE
:104ADE00506172616D733A200020003F00560056FF
:104AEE0020322E357478747374205349474E414CDE
:104AFE006475696E6F202D20636F6D70696C6564CF
:104B0E0020617420417072202037203230313520E0
:104B1E0031313A33363A333000520069007400585E
:104B2E00510000200061050000063CA401000000B9
:104B3E0000730D000000007E0E000000005C0B7480
:104B4E00100C0F641000000000B014A008A108FBA8
:104B5E001100000000B014A008A108B10900000067
:104B6E00003708A008A108A20800000000360800BF
:104B7E000000000000020000000000FFFEEEF40145
:104B8E00000000FCF8EEF401000000FCF8EEF40169
:104B9E0000000000000000701A261B061A371A17B4
:044BAE001A601A006F
:00000001FF
