:100000000C9405010C94FB190C942C1A0C945D1A99
:100010000C948E1A0C94BF1A0C94F01A0C94211B99
:100020000C94521B0C9432010C9432010C9432014A
:100030000C9432010C9432010C9432010C94320174
:100040000C9432010C9432010C9432010C94320164
:100050000C945E0D0C9432010C9432010C94831BB1
:100060000C9432010C9485120C94D1130C9432012F
:100070000C9432010C9432010C9432010C94320134
:100080000C9432010C9432010C9432010C94320124
:100090000C94C5120C9410140C9432010C9432017F
:1000A0000C9432010C9432010C9432010C94320104
:1000B0000C9432010C9432010C9432010C943201F4
:1000C0000C9432010C9432010C9432010C940513FF
:1000D0000C944F140C9432010C9445130C948E1410
:1000E0000C94320100002100240027002A002D007A
:1000F0003000330001010000040107010A01000083
:100100002200250028002B002E00310034000201BF
:100110000000050108010B0100002000230026005B
:1001200029002C002F00320000010000030106010D
:10013000090105050505070508080808020202026D
:100140000A0A080804040404010101010101010173
:100150000303030303030303040707070C0C0C0C3E
:100160000C0C0C0C02020202060606060606060627
:100170000B0B0B0B0B0B0B0B0102102020080810B4
:100180002040102040800201020108040201010207
:1001900004081020408080402010080402018004E0
:1001A000020180402010080402010804020101023B
:1001B0000408102040800102040810204080000044
:1001C000090A02080B0C0D070603040100000000D9
:1001D000000000000000000000000000000000001F
:1001E0000000000000000000000011100F000000DF
:1001F00000000000000000000000000000000000FF
:1002000000000000B40D0116AD0D11241FBECFEF8C
:10021000D1E2DEBFCDBF00E00CBF13E0A0E0B2E052
:10022000ECE3F7E400E00BBF02C007900D92AE369E
:10023000B107D9F71BBE17E0AEE6B3E001C01D92CF
:10024000A33EB107E1F712E0C8E0D2E004C0229774
:10025000FE010E945623C430D107C9F70E94371708
:100260000C9491230C9400000F931F93CF93DF9372
:10027000689F8001699F100D789F100D1124C8019F
:100280000E945001EC01009729F060E070E0A801A5
:100290000E948C03CE01DF91CF911F910F910895A1
:1002A000CF93DF93BC018230910510F462E070E0DF
:1002B000A091E107B091E207ED01E0E0F0E040E05D
:1002C00050E021C0888199818617970769F48A8157
:1002D0009B81309719F09383828304C09093E20747
:1002E0008093E107FE0134C06817790738F441159F
:1002F000510519F08417950708F4AC01FE018A81B5
:100300009B819C01E9012097E9F641155105A9F16E
:10031000CA01861B970B049708F4BA01E0E0F0E0ED
:100320002AC08D919C91119784179507F9F4641751
:10033000750781F412968D919C911397309719F05F
:100340009383828304C09093E2078093E107FD01C9
:1003500032964CC0CA01861B970BFD01E80FF91FAE
:100360006193719302978D939C9340C0FD018281AC
:1003700093819C01D9011097A1F68091DF0790919C
:10038000E007892B41F4809102039091030390933D
:10039000E0078093DF074091040350910503411566
:1003A000510541F44DB75EB7809100039091010370
:1003B000481B590B2091DF073091E007CA01821BCF
:1003C000930B8617970780F0AB014E5F5F4F841742
:1003D000950750F0420F531F5093E0074093DF07FB
:1003E000F9016193719302C0E0E0F0E0CF01DF9189
:1003F000CF910895CF93DF93009709F450C0EC019B
:1004000022971B821A82A091E107B091E207109710
:1004100009F140E050E0AC17BD0708F1BB83AA83A7
:10042000FE0121913191E20FF31FAE17BF0779F45E
:100430008D919C911197280F391F2E5F3F4F398363
:10044000288312968D919C9113979B838A834115E3
:10045000510571F4D093E207C093E10720C01296D2
:100460008D919C911397AD01009711F0DC01D3CFD2
:10047000FA01D383C28321913191E20FF31FCE178A
:10048000DF0769F488819981280F391F2E5F3F4F5C
:10049000FA01318320838A819B8193838283DF9158
:1004A000CF910895A0E0B0E0E8E5F2E00C945C2381
:1004B0006C01009729F4CB010E9450016C01C1C06E
:1004C0008EEF882E8FEF982E8C0C9D1C8601060FC8
:1004D000171F0815190508F4B2C0F401A081B181F5
:1004E000A617B707B8F0A530B10508F4AAC0CD012A
:1004F00004978617970708F4A4C01297A61BB70B9A
:10050000F801A193B193D4016D937C93CF010E9424
:10051000FA0197C07B01EA1AFB0AEEEFFFEFEE0E3D
:10052000FF1E36016A0E7B1EC091E107D091E207E3
:1005300044245524AA24BB244AC0C615D705E1F596
:10054000488159814E155F05B8F1CA0104978E158F
:100550009F05B0F41296A40FB51FF401B183A083D8
:100560002A813B814114510431F0D20113963C930E
:100570002E93129766C03093E2072093E10761C083
:100580008A819B81F80193838283425050404E19A7
:100590005F09518340834114510431F0D201139615
:1005A0001C930E93129704C01093E2070093E10787
:1005B000F4017183608345C088819981A816B906CA
:1005C00008F45C012E018A819B819C01E90120973E
:1005D00009F0B3CF8091DF079091E007861597056A
:1005E000E9F4A616B706D0F4209104033091050370
:1005F0002115310541F42DB73EB78091000390914C
:100600000103281B390B02171307C8F41093E007E6
:100610000093DF07D4016D937C9313C0CB010E943C
:100620005001EC01009759F0F40140815181B6016D
:100630000E947103C6010E94FA016E0102C0CC241F
:10064000DD24C601CDB7DEB7E0E10C947823FC01D0
:1006500088279927E89421912032E9F3293010F076
:100660002E30C8F32B3241F02D3239F4689404C097
:100670000E941F04820F911D219120532A30C0F344
:100680001EF4909581959F4F08951F93FC01992723
:100690008827BC01E89411911032E9F3193010F069
:1006A0001E30C8F31B3251F01D3249F4689406C065
:1006B0000E940A04610F711D811D911D119110533B
:1006C0001A30B0F33EF490958095709561957F4F08
:1006D0008F4F9F4F1F9108954EE653E00E94B7033E
:1006E0000895FB01DC0102C001900D924150504081
:1006F000D8F708956817790768F4FB01DC01E40F67
:10070000F51FA40FB51F02C002900E924150504039
:10071000D8F708950C947103DC0101C06D9341502A
:100720005040E0F70895FB01DC0101900D9200209C
:10073000E1F70895FB01DC014150504030F08D910C
:100740000190801919F40020B9F7881B990B0895BE
:10075000FB01DC014150504048F001900D92002017
:10076000C9F701C01D9241505040E0F7089500972D
:1007700031F4DA018D919C91009709F40EC0DC01EF
:10078000FB013D912191222319F03217C9F3FACFD1
:10079000332331F4DA011D921C928827992708959A
:1007A0001197AF93BF93FB013D912191321771F4E3
:1007B000332321F488279927119702C01E9211969E
:1007C000FA01A193B0839F918F910895222369F735
:1007D000EACFFB019F01E8944230C4F04532B4F403
:1007E0004A3029F497FB1EF4909581959F4F642F12
:1007F00077270E944023805D8A330CF0895D8193C6
:10080000CB010097A1F716F45DE251931082C90164
:100810000C943D04592F482F372F262F660F771F32
:10082000881F991F660F771F881F991F620F731FFC
:10083000841F951F660F771F881F991F08957AE000
:10084000979F902D879F802D910D11240895FB0176
:100850009F01423074F0453264F4642F77270E9480
:100860004023805D8A330CF0895D8193CB01009732
:10087000A1F71082C9010C943D04DC01FC01672F33
:1008800071917723E1F7329704C07C916D93708367
:100890006291AE17BF07C8F30895DC0117968C91DB
:1008A0001797882369F090E0ED91FC911197E90F7B
:1008B000F11D10829F5F17968C9117979817A0F3E0
:1008C00012961C92129713961C92139787E0169615
:1008D0008C930895CF93DF93EC01842F6C831D825A
:1008E0004F8390E061E070E00E9434018883998337
:1008F000CE010E944D048C8147E050E0481B510915
:1009000047305105A1F037E087E090E02D8161E0AC
:1009100070E0FB0102C0EE0FFF1F8A95E2F72E2B5D
:100920002D833150832F90E04817590794F3DF91BE
:10093000CF910895CF93DF93FC01EB0185819681E0
:100940002381348182179307C1F0029696838583B1
:10095000A581B6818881998111969C938E93878118
:1009600090858217930771F00296A817B90779F05E
:1009700081E08083DF91CF91089581819281968378
:100980008583E6CF81819281A817B90789F7808195
:10099000882371F3B087A783EBCFCF93DF93DC017C
:1009A000EB018C91882309F117962D913C911897B2
:1009B00013968D919C91149728173907E1F02E5FBB
:1009C0003F4F18963C932E9317971796ED91FC91F5
:1009D0001897808191819983888315968D919C9138
:1009E0001697E817F90721F081E0DF91CF9108957C
:1009F0001C9281E0FACF11968D919C9112971896D6
:100A00009C938E931797E1CF2F923F924F925F92D4
:100A10006F927F928F929F92AF92BF92CF92DF920E
:100A2000EF92FF920F931F93CF93DF936C01FC0122
:100A300063877487EB01662477241B01442437FC09
:100A40004094542CCE0162E070E00E943401F60123
:100A5000928381830097C9F081E0F6018587F601D2
:100A600081819281DF91CF911F910F91FF90EF9043
:100A7000DF90CF90BF90AF909F908F907F906F90BE
:100A80005F904F903F902F9008950894611C711CC7
:100A90001586C201B1010E94E8214B015C01B3013E
:100AA000882777FD8095982F0E94E82120E030E08C
:100AB00040E251EC0E944D2120E030E040E85FE34D
:100AC0000E94E9209B01AC01C501B4010E949C2257
:100AD0007B018C0120E030E040E050E00E94982251
:100AE00088238CF1C801B70120E030E040E05FE3EB
:100AF0000E94E9200E94B521F601748763871616CB
:100B000017068CF5F6018585882309F0A8CFC385E3
:100B1000D485BE01882777FD8095982F0E94E82113
:100B20007B018C01C501B4012DEC3CEC4CEC5DE388
:100B30000E949C229B01AC01C801B7010E9498222F
:100B400087FF80CF8CCFC801B70120E030E040E0C4
:100B50005FE30E94E8200E94B521F6017487638755
:100B6000161617067CF281E090E094878387CACF3F
:100B70000F931F93CF93DF93EC018A010E9404052A
:100B8000AC019A8389838D858823E9F02B853C8588
:100B900021503040220F331F240F351F3C832B83FD
:100BA0003E832D83FA012417350730F0C9010193E4
:100BB00011938E179F07D8F78D819E8198878F8319
:100BC00018829A878987DF91CF911F910F9108959D
:100BD000FC0117A6A085B1850284F385E02D208154
:100BE00031818D919C911197918380832D933C93BA
:100BF000DB018D919C919183808308955F926F9228
:100C00007F928F929F92AF92BF92CF92DF92EF929C
:100C1000FF920F931F93CF93DF938C017B01FC0115
:100C200054A4552039F1FB01608171813C01AA2453
:100C3000BB24B8EF8B2EBFEF9B2E5A2D161617062E
:100C400084F4F801C484D584F70122813381F3014F
:100C500082899389281B390B37FD4EC0C216D306F3
:100C60005CF40894A11CB11C84E090E0680E791E2D
:100C7000A51418F38FEF30C06130710561F141E0C8
:100C8000E501CC0FDD1F06C0CE16DF0654F3261794
:100C9000370709F14F5F242F30E0621773070CF319
:100CA000F901EE0FFF1FEE0DFF1DDE01A20FB31FB6
:100CB000A819B909AA0FBB1FA00FB11F0190F0819D
:100CC000E02D8D919C91E81BF90BF7FFDDCFF0959E
:100CD000E195FF4FD9CF852FDF91CF911F910F91D4
:100CE000FF90EF90DF90CF90BF90AF909F908F904C
:100CF0007F906F905F900895309521953F4FAECFD4
:100D00000895089508954F925F926F927F928F9207
:100D10009F92AF92BF92CF92DF92FF920F931F9359
:100D2000CF93DF936C01FC0185A596A50197B1F0E7
:100D30008FEF9FEFF60191AB80AB80E0DF91CF9119
:100D40001F910F91FF90DF90CF90BF90AF909F9039
:100D50008F907F906F905F904F90089584A5815001
:100D600087FDE6CF082F112707FD1095D801AA0FA0
:100D7000BB1FAA0FBB1F5296AC0DBD1D0C5D1E4FB5
:100D8000E601C00FD11F04521140F82E60E070E060
:100D900023E2422E21E0522E4C0C5D1C93E3692E7F
:100DA000712C6C0C7D1C07C0FA941497219761502C
:100DB0007040F7FCBDCF5B01A00EB11E4D915C9160
:100DC00011971416150684F3F2E84F3F5F0761F39D
:100DD000F60182809380F401EE0FFF1FEE0FFF1FDC
:100DE000EC0DFD1D22893389C9018427952797FFC2
:100DF000DBCFC901880F991F880F991F880F991F92
:100E0000820F931F22273327241B350B28173907FE
:100E10005CF28881873040F6F2013081332321F281
:100E2000F30120E004C02F5F3196231750F4818135
:100E300090E08A159B05B9F7808190E088169906A5
:100E400091F7231709F4B0CFF601B1AAA0AA82E066
:100E500090E096A785A78AE291E0C80ED91EF60118
:100E6000208381E06BCF2F923F924F925F926F92DF
:100E70007F928F929F92AF92BF92CF92DF92EF922A
:100E8000FF920F931F93DF93CF9300D00F920F9297
:100E9000CDB7DEB71C018FEF9FEFF1019383828303
:100EA000F4A5F983FF2309F4C0C054E2452E51E0B4
:100EB000552E420C531C4101AA24AA94BA2CCC24CE
:100EC000DD2491012D5D3E4F3B832A833FEFA31626
:100ED0003FEFB30609F454C03601F4010288F389E8
:100EE000E02DFD83EC83F7FD79C0F501EE0FFF1FC8
:100EF000EE0FFF1FE20DF31D828993892C813D8146
:100F0000281739070CF06AC0F101EC0DFD1DEC5DEE
:100F1000FE4F608170E0882777FD8095982F0E94B2
:100F2000E8217B018C01EA81FB81608170E08827E8
:100F300077FD8095982F0E94E8212BE734E14EE25F
:100F40005EE30E949C229B01AC01C801B7010E9494
:100F5000982218160CF042C00894C11CD11C0894A9
:100F6000411C511C24E030E0820E931E3981C316CF
:100F7000B8F553013FEFA3163FEFB30609F0ACCF2E
:100F80003601F4010288F389E02DFD83EC83F7FD3F
:100F900025C0F201608170E0882777FD8095982F49
:100FA0000E94E8217B018C01EA81FB81608170E075
:100FB000882777FD8095982F0E94E8212BE734E160
:100FC0004EE25EE30E949C229B01AC01C801B70186
:100FD0000E94982218160CF4BFCF87CF3501BCCFE2
:100FE0008FEF68168FEF780601F1F101738262824C
:100FF00081E090E096A785A781E00F900F900F9079
:101000000F900F90CF91DF911F910F91FF90EF9074
:10101000DF90CF90BF90AF909F908F907F906F9018
:101020005F904F903F902F90089580E0E6CFCF9350
:10103000DF93DC01AC5DBE4F1D921D921D921D928F
:101040001D921C92A952B140ED01CD5DDE4F888109
:10105000882389F090E0FD01E90FF11D83A9FD01CE
:10106000E80FF11DEC5DFE4F80818F5F80839F5FF5
:101070008881981780F3DF91CF910895CF93DF9304
:10108000EC010E941708CD5DDE4F8881C352D1402C
:10109000883230F0CE010E943307CE010E948306D1
:1010A000DF91CF910895DC01ED91FC910190F081E9
:1010B000E02D199508959F92AF92BF92CF92DF9243
:1010C000EF92FF920F931F93DF93CF93CDB7DEB7CD
:1010D00028970FB6F894DEBF0FBECDBFDC010983A1
:1010E0001A83822F2B833C834D835E836F837887A3
:1010F0002C813D81982E2115310509F06DC0129685
:10110000ED91FC911397EE0FFF1FEE0FFF1FEA0FFB
:10111000FB1FC288D38821E0A22EB12CD096ED917E
:10112000FC91D197EE0FFF1FEE0FFF1FEA0FFB1F81
:1011300062897389882777FD8095982F0E94E8211E
:101140007B018C01B601882777FD8095982F0E943E
:10115000E8219B01AC01C801B7010E944D217B0130
:101160008C0120E030E040E050E00E94982288238B
:101170000CF456C0C801B70120E030E040E05FE366
:101180000E94E9200E94B52140E020E030E0892D56
:10119000992787FD9095681B790B77FD4CC06430CB
:1011A000710514F421E030E02A213B21232B09F0C2
:1011B00041E0842F28960FB6F894DEBF0FBECDBF56
:1011C000CF91DF911F910F91FF90EF90DF90CF9023
:1011D000BF90AF909F9008958FEF2F3F380779F120
:1011E0001296ED91FC911397EE0FFF1FEE0FFF1F6C
:1011F000EA0FFB1FC288D388C601821B930B9C0198
:1012000097FD2CC0AA24BB241C968D919C911D9700
:10121000821793070CF482CF01E0A02EB12C7ECF71
:10122000C801B70120E030E040E05FE30E94E82021
:101230000E94B521A9CF709561957F4FB0CF1296CE
:10124000ED91FC911397EE0FFF1FEE0FFF1FEA0FBA
:10125000FB1FC288D38820E030E0D4CF30952195A1
:101260003F4FD0CF0F931F938C01FC0114A616A6FD
:1012700015A68FEF9FEF9383828382A593A50E948B
:101280004D04F801158614861F910F910895CF9390
:10129000DF93EC010E943209CD5DDE4F1882C3520C
:1012A000D1401CA61AAA1EA61DA68FEF9FEF99ABD0
:1012B00088AB9B838A83FE01DE01AC5DBE4F80E07C
:1012C000138A128A1D928F5F34968630C9F71FA643
:1012D00086E990E09D878C878AE999E9A9E9BEE3D0
:1012E0008E879F87A88BB98BC65DDE4F1882DF91F2
:1012F000CF910895EF92FF920F931F938C0186E296
:1013000093E0F8019183808388E090E00E94591770
:10131000F82EE92E62E041E00E946A04F801F2A68C
:10132000E3A61782168215821482C801049691875B
:101330008087C80106969387828717A6C8010E94F6
:1013400032091F910F91FF90EF9008950F931F9313
:101350008C010E947A098AE193E0F80191838083ED
:101360001582148217821682C8010496918780879D
:10137000C8010696938782878FEF9FEF91AB80AB72
:10138000C8010E9447091F910F9108950F931F9361
:101390008C010E94A6098EE093E0F801918380837E
:1013A00005581E4FF80110821F910F910895EF927A
:1013B000FF920F931F93CF93DF93EC01F62EE42E51
:1013C0008EE397E0B9010E94B017EF1468F0FE01B8
:1013D000EF0DF11D8EE397E063A94AE050E00E9413
:1013E0009518F394EF1498F78EE397E0B8010E94F4
:1013F000B017DF91CF911F910F91FF90EF9008955B
:101400002F923F924F925F926F927F928F929F9214
:10141000AF92BF92CF92DF92EF92FF920F931F9302
:10142000DF93CF93CDB7DEB7E2970FB6F894DEBF68
:101430000FBECDBF2C0123E2222E21E0322E280E3A
:10144000391EF10180818832C8F4E2960FB6F89413
:10145000DEBF0FBECDBFCF91DF911F910F91FF90E7
:10146000EF90DF90CF90BF90AF909F908F907F9044
:101470006F905F904F903F902F900895C2010E940F
:101480003E08F20185A596A58230910531F00197BD
:1014900009F46DC0F20117A6D8CF9AE2692E91E047
:1014A000792E640C751CF3015081452F4E5FF201BB
:1014B0006281738105C04E5FF1018081481728F673
:1014C000F201E40FF11D83A990E08617970799F7C1
:1014D00084A990E0F20120A931A98217930759F756
:1014E000F42EFA948F2D90E0851B910988970CF4C7
:1014F000ACCF8BE7882E81E0982E840C951CF401EC
:101500008081882309F4A1CFAA2408E0202E312C61
:101510002C0E3D1E6E010894C11CD11CBB24B3943B
:10152000EA2DF0E0EE0FFF1FEE0FFF1FEE0FFF1F83
:10153000E40DF51DDE019B96E55DFE4F88E0019010
:101540000D928150E1F7C2010BA51CA52DA53EA56A
:101550004FA558A969A97AA90E945B08882309F0B8
:101560003FC0A394F4018081A816D0F26ECFCE01C3
:10157000019660E072E00E94A41FEE2406C0E3948E
:10158000F20184A58E1508F4B1C00E2D10E0000FF5
:10159000111F000F111F040D151DF8018289938979
:1015A000892B69F3CE0101966BE172E00E943C1F2A
:1015B000CE0101966E2D0E94FC1ECE0101966EE0BA
:1015C00072E00E943C1FF80162897389CE01019686
:1015D0000E94CB1ECE0101966BE30E94281FCFCF45
:1015E000C10160E072E00E94A41FC10162E00E949C
:1015F000281FC1016DE40E94281FC1016A2D0E94AD
:10160000FC1EC1016BE30E94281FEE2405C0E39479
:10161000F20184A58E1528F10E2D10E0000F111F88
:10162000000F111F040D151DF80182899389892B64
:1016300071F3C10160E50E94281FC1016E2D0E9457
:10164000FC1EC1016EE072E00E943C1FF80162893D
:101650007389C1010E94CB1EC1016BE30E94281F48
:10166000D6CFC10160E172E00E943C1FC60160E07C
:1016700072E00E94A41FC6016BE30E94281FC601EE
:1016800063E172E00E943C1FF20162817381C60136
:101690000E949E1EC6016BE30E94281FC60167E1DF
:1016A00072E00E943C1FF20160A971A9C6010E946C
:1016B000CB1EC6016BE30E94281FC60163E00E9497
:1016C000281FC6016AE00E94281FC201F301608141
:1016D0004F2D910186010E94D709F201B7A6C601DC
:1016E0000E94DC20C1010E94DC203BCFCE0101968C
:1016F00060E172E00E943C1FF8E0EF2EF12CEC0E4E
:10170000FD1EC70160E072E00E94A41FC7016BE3E9
:101710000E94281FC70163E172E00E943C1FF20192
:1017200062817381C7010E949E1EC7016BE30E9404
:10173000281FC70163E00E94281FC7016AE00E94BA
:10174000281FEFE06E2E712C6C0E7D1EC30162E02F
:101750000E943E207DE1872E912C8C0E9D1EC4019F
:10176000B3010E94D12066E1A62EB12CAC0EBD1EA5
:10177000C5016DE172E00E94A41FC401B5010E9481
:10178000661F6C018E010C5D1F4FC8016BE30E9448
:101790003E20C601B8010E94661FBE016F5F7F4FE9
:1017A0000E94661FBC01CE0101960E94AC20C801B8
:1017B0000E94DC20C5010E94DC20C4010E94E220BE
:1017C000C3010E94DC20C20160E0F10140819E0162
:1017D0002F5F3F4F87010E94D70981E0F20187A761
:1017E000C7010E94DC20CE0101960E94DC202DCE94
:1017F000CF92DF92EF92FF920F931F93DF93CF93DD
:1018000000D00F92CDB7DEB78C0183E2E82E81E0E5
:10181000F82EE00EF11ED7018C91813F08F0D5C063
:10182000F80112AAA085B1852D913C91119782856E
:101830009385FC0160817181F70140819091700373
:10184000F80184A5891710F4F80194A7442309F43A
:10185000ADC0CC2480E090E06227732777FDEDC017
:1018600020E030E04F3E11F021E030E0822393236E
:10187000892B09F0A7C081E090E09A8389831C82BC
:101880001B828D919C919C838B83C801BE016F5FED
:101890007F4F0E94FE05282F87FDDDC0F701808164
:1018A000F801E80FF11D23AB982F823020F082A9B8
:1018B000821709F4CAC09F5FF7019083DD24CC2012
:1018C00009F464C0DD2009F447C0D701DC90AD2DD8
:1018D000B0E0BD0161507040EFEF6F3F7E0709F44B
:1018E00091C050917003F801E60FF71F83A9851787
:1018F00009F477C0D196F801EA0FFB1F20E030E031
:10190000D39707C080812F5F3F4F3197851709F428
:1019100068C061507040CD01821B930B8F5F9F4F59
:1019200089F7E52FF0E0EE0FFF1FEE0FFF1FE00F2E
:10193000F11F8B819C81938B828BD7018C91F80155
:10194000E80FF11D53AB8F5F8C93E52FEF5FE093B2
:101950007003E63009F459C00F900F900F900F906C
:10196000CF91DF911F910F91FF90EF90DF90CF907B
:10197000089550917003F801E50FF11DEC5DFE4FE5
:101980008081823008F470C0CC24DD24F70180818E
:10199000883208F040C0CC2009F094CFC8010E94E2
:1019A0004709F80117A6109270038CCFD8019C96B6
:1019B0001C929C9710927003CC2418960D90BC91A9
:1019C000A02D59CFCC24C39456CFD801ED91FC91D2
:1019D0000680F781E02DC8011995C8010E944709CA
:1019E0001FCF6F5F7F4F4D2D461BD7014C936D5C12
:1019F0007F4F600F711F50E04F5F5F4FC801C3966C
:101A00000E947A03509170038CCF10927003D8011A
:101A10009C96EC93A1CF81E0D8019F968C939F97E1
:101A2000ED91FC910680F781E02DC8011995C80160
:101A30000E944709109270038FCF81E090E020E070
:101A400030E04F3E09F010CF11CFC8010E94470986
:101A5000D7019C9130CFC8010E941708D8019C96ED
:101A60008C91863009F485CFDD24D39428CF0F9351
:101A70001F93CF93DF938C01DC019F961C929F975D
:101A800018960D90BC91A02DEC01EA85FB85208174
:101A900031818D919C911197918380832D933C93FB
:101AA000DB018D919C9191838083C8010E94F80B8A
:101AB0008FA5DF91CF911F910F9108951F920F92E3
:101AC0000FB60F920BB60F9211242F933F934F93A3
:101AD0005F936F937F938F939F93AF93BF93EF9396
:101AE000FF93E0917403F09175031995FF91EF91C5
:101AF000BF91AF919F918F917F916F915F914F9126
:101B00003F912F910F900BBE0F900FBE0F901F9023
:101B100018958130910531F0892B19F46F5F7F4F53
:101B2000B9F008956F5F7F4FE1F786E793E060E5D6
:101B300070E040E050E00E94B80585E893E064E979
:101B400072E00E94A41F8CE893E00E94C6090895E9
:101B500085E893E00E94DC20089580E090E06FEF3C
:101B60007FEF0E94890D089581E090E06FEF7FEF95
:101B70000E94890D0895CF92DF92EF92FF920F930A
:101B80001F93DF93CF93CDB7DEB762970FB6F8946C
:101B9000DEBF0FBECDBF8E01075F1F4F85E893E00C
:101BA000B8014AE050E021E030E00E94C31DC801C6
:101BB00065E972E00E946C030E942703E82E6E0123
:101BC0000894C11CD11CD601EEE2F3E088E001903C
:101BD0000D928150E1F785E893E061E070E00E94AA
:101BE0008E1D813471F100E010E0FF2485E893E060
:101BF00061E070E00E948E1D823579F062960FB62A
:101C0000F894DEBF0FBECDBFCF91DF911F910F9132
:101C1000FF90EF90DF90CF900895FB821D830C839F
:101C2000EE2DF0E0EE0FFF1FEE0FFF1FEE0FFF1F78
:101C3000E954FB4FD60188E00D9001928150E1F705
:101C4000DDCF80E090E065E972E00E946C030E94C5
:101C50002703F82E80E090E065E972E00E946C03B3
:101C60000E9427038C01FB829D838C83EE2DF0E084
:101C7000EE0FFF1FEE0FFF1FEE0FFF1FE954FB4F8C
:101C8000D60188E00D9001928150E1F7AFCF8DE051
:101C9000609184030E94201D109284030895EF92A6
:101CA000FF920F931F938C017B018BE061E00E94F8
:101CB000201D80910803909109039C01029FC0019F
:101CC000039F900D129F900D11240E94F21B8BE038
:101CD00060E00E94201D80910803909109039C01FF
:101CE000E29EC001E39E900DF29E900D11240E9491
:101CF000F21B1F910F91FF90EF90089580E00E94DA
:101D0000D119089580E065E671E141E050E00E945C
:101D10005019089585E893E061E070E00E948E1DFF
:101D2000813561F085E893E061E070E00E948E1DEE
:101D3000853409F008950E94820E08950E947E0E57
:101D4000F1CFEF92FF920F931F93CF93DF937C011C
:101D50000E947E0E809106038823E1F100E010E0EE
:101D600081E090E06FE170E00E944F0EF70180810A
:101D7000882341F1E70114C08634A9F1803361F46E
:101D800081E090E063E070E00E944F0E81E090E01F
:101D900063E070E00E944F0E89812196882391F0C4
:101DA000813351F783E090E061E070E00E944F0ED4
:101DB00083E090E061E070E00E944F0E89812196FF
:101DC000882371F70F5F1F4F8091060390E008177B
:101DD000190734F20E94820EDF91CF911F910F916B
:101DE000FF90EF90089581E090E063E070E00E9442
:101DF0004F0E83E090E061E070E00E944F0ECCCF88
:101E0000CF92DF92EF92FF920F931F93DF93CF93C6
:101E1000CDB7DEB7C456D0400FB6F894DEBF0FBEC4
:101E2000CDBF6C018E010C5F1F4FC80167E972E0E6
:101E30000E94A41FC601B8010E94191EF82EC801F5
:101E40000E94DC20FF2009F08EC08E010E5E1F4F25
:101E5000C8016AE972E00E94A41FC601B8010E948D
:101E6000191EF82EC8010E94DC20FF2009F049C08D
:101E70008E01005E1F4FC8016DE972E00E94A41F31
:101E8000C601B8010E94191EF82EC8010E94DC206C
:101E9000FF2009F48BC08DE061E00E94201D8E01BF
:101EA000095D1F4FC801B60142E050E00E94A0202A
:101EB00038E5E32EF12CEC0EFD1EC801B7014DE014
:101EC00050E020E030E00E94C31DC8010E94DC20E9
:101ED000F601848195810F9708F0CAC084EA91E0E9
:101EE0009093090380930803C7010E94A10E8DE01F
:101EF00060E00E94201D8EE397E0B6010E94EC177F
:101F000022C08E01075E1F4FC801B60142E050E0BB
:101F10000E94A020C8017E010894E11CF11CB701B9
:101F200043E050E020E030E00E94C31DC8010E9461
:101F3000DC20C7010E942703809306038EE397E00D
:101F4000B6010E94EC17CC59DF4F0FB6F894DEBFF4
:101F50000FBECDBFCF91DF911F910F91FF90EF90FA
:101F6000DF90CF9008958E01055F1F4FC801B60125
:101F700042E050E00E94A020C8017E010894E11CCC
:101F8000F11CB70143E050E020E030E00E94C31DA7
:101F9000C8010E94DC20C7010E9427038093070329
:101FA0008EE397E0B6010E94EC17CDCF8E010B5C5B
:101FB0001F4FC80160EA72E00E94A41FC601B80169
:101FC0000E94191EF82EC8010E94DC20FF2009F48F
:101FD000BACF2CE3E22EF12CEC0EFD1EC70163EA12
:101FE00072E00E94A41F8E010D5B1F4FC80160911B
:101FF00007034AE00E940C20C701B8010E944C1F51
:10200000C8010E94DC20C7016EEA72E00E943C1FFA
:102010008E01065B1F4FC801609106034AE00E94D3
:102020000C20C701B8010E944C1FC8010E94DC208F
:10203000C7016EEA72E00E943C1F8E010F5A1F4FCB
:102040006091080370910903C8014AE00E94DB1FF8
:10205000C701B8010E944C1FC8010E94DC208EE31A
:1020600097E0B7010E94EC17C7010E94DC206BCFFC
:102070008E01025D1F4FC801B6014EE050E00E9484
:10208000A020C8010E94B01D70930903609308034B
:10209000C8010E94DC2028CFEF92FF920F931F937C
:1020A000DF93CF93CDB7DEB729970FB6F894DEBF95
:1020B0000FBECDBF7C0160E070E00E948E1D8F33AB
:1020C00009F44FC0C70160E070E00E948E1D8635A4
:1020D00009F495C0C70160E070E00E948E1D823552
:1020E000F9F48091DF079091E007009709F49CC014
:1020F000BE016F5F7F4F681B790B8EE397E04AE06C
:1021000050E00E94EC1829960FB6F894DEBF0FBE7F
:10211000CDBFCF91DF911F910F91FF90EF90089568
:10212000C70160E070E00E948E1D893609F46EC020
:10213000C70160E070E00E948E1D843721F3C70163
:1021400060E070E00E948E1D883509F470C0C70100
:1021500060E070E00E948E1D8634A9F60E94BB0DDF
:10216000D2CF8EE397E06FE30E9488178EE397E06B
:1021700060EB72E00E940B198EE397E066E50E9427
:1021800088178EE397E060E20E9488178EE397E05D
:1021900069E60E9488178EE397E060E20E94881744
:1021A0008EE397E062E50E9488178EE397E060E295
:1021B0000E9488178EE397E064E70E9488178EE3F9
:1021C00097E060E20E9488178EE397E068E50E943E
:1021D00088178EE397E060E20E9488178EE397E00D
:1021E00066E40E9488178EE397E060E20E948817F9
:1021F0008EE397E064E972E00E942A1984CF8EE3AF
:1022000097E06DEB72E00E942A197DCF8E010D5F81
:102210001F4FC801B7010E94C620C8010E94000FCD
:10222000C8010E94DC206FCF83EE97E061CF0E944F
:102230008A0E69CF0F931F93DF93CF93CDB7DEB78D
:1022400027970FB6F894DEBF0FBECDBF8E010F5F8C
:102250001F4F8EE397E00E945C15892B11F18EE3EE
:1022600097E00E948E15682F8A3021F08B3024F57C
:10227000882331F5C80165E873E00E94C620C801D3
:102280000E944C10C8010E94DC2085E893E064E9BC
:1022900072E00E94BE1F8EE397E00E945C15892BBE
:1022A000F1F627960FB6F894DEBF0FBECDBFCF91E3
:1022B000DF911F910F9108958D30E1F28332D1F2B9
:1022C00085E893E00E94281FC4CFEF92FF920F93FE
:1022D0001F9380910805882309F469C00E94CB1BD5
:1022E00060931A0570931B0580931C0590931D0540
:1022F00082E00E94561DBC0120911A0530911B05F9
:1023000040911C0550911D0580911605909117056F
:10231000A0911805B091190579018A01E81AF90A06
:102320000A0B1B0BD801C701E0921205F0921305AE
:102330000093140510931505209316053093170587
:10234000409318055093190584369105A105B105F0
:10235000A4F081300DE7900700E0A00700E0B0078F
:10236000ECF49093110580931005672B59F486E7E0
:1023700093E060E175E00E949A041F910F91FF9035
:10238000EF90089580911005909111059095819599
:102390009F4F9093110580931005E9CF81E09DE751
:1023A0009093110580931005672B09F3EBCF88E01C
:1023B00095E00E944B17892B09F490CF0E94CB1B0C
:1023C000609316057093170580931805909319056F
:1023D00088E095E00E94551781CFFF920F931F93DD
:1023E000DF93CF930F920F92CDB7DEB78E010F5FC1
:1023F0001F4FFF24F39486E793E0B8010E94CD04B9
:10240000882381F08CE893E0B8010E945308882368
:1024100091F3F092840386E793E0B8010E94CD0423
:10242000882381F70F900F90CF91DF911F910F912B
:10243000FF9008958EE397E040E051EE60E070E099
:102440000E94CD1482E060E00E945E1C8BE061E09F
:102450000E945E1C8DE061E00E945E1C80E1809322
:1024600081001092800082E08093730388EA91E6F5
:1024700090937203809371039093870080938600FA
:1024800082E18093810087E49EE0909375038093BE
:10249000740381E080936F00A7EBB4E0E6E5F3E01E
:1024A00088E001900D928150E1F7AFEBB4E0EEE4EB
:1024B000F3E088E001900D928150E1F7A7ECB4E0E1
:1024C000E6E4F3E088E001900D928150E1F7AFEC93
:1024D000B4E0EEE3F3E088E001900D928150E1F783
:1024E000A7EDB4E0E6E3F3E088E001900D928150BF
:1024F000E1F785E0809307050E94820E85E893E06E
:1025000064E170E00E944A1E08951F920F920FB678
:102510000F920BB60F9211242F933F934F938F93EB
:102520009F93EF93FF938091C00082FD2AC040915A
:10253000C60020915E0530915F052F5F3F4F2F73DE
:10254000307080916005909161052817390759F026
:10255000E0915E05F0915F05E25EFA4F40833093B3
:102560005F0520935E05FF91EF919F918F914F91B1
:102570003F912F910F900BBE0F900FBE0F901F90A9
:1025800018958091C600EFCF08951F920F920FB655
:102590000F920BB60F9211242F933F934F938F936B
:1025A0009F93EF93FF938091C80082FD2AC04091D2
:1025B000CE002091E6053091E7052F5F3F4F2F7346
:1025C00030708091E8059091E9052817390759F096
:1025D000E091E605F091E705EA55FA4F4083309324
:1025E000E7052093E605FF91EF919F918F914F9121
:1025F0003F912F910F900BBE0F900FBE0F901F9029
:1026000018958091CE00EFCF08951F920F920FB6CC
:102610000F920BB60F9211242F933F934F938F93EA
:102620009F93EF93FF938091D00082FD2AC0409149
:10263000D60020916E0630916F062F5F3F4F2F73AB
:10264000307080917006909171062817390759F003
:10265000E0916E06F0916F06E25DF94F4083309392
:102660006F0620936E06FF91EF919F918F914F918E
:102670003F912F910F900BBE0F900FBE0F901F90A8
:1026800018958091D600EFCF08951F920F920FB644
:102690000F920BB60F9211242F933F934F938F936A
:1026A0009F93EF93FF938091300182FD2AC0409168
:1026B00036012091F6063091F7062F5F3F4F2F73BA
:1026C00030708091F8069091F9062817390759F073
:1026D000E091F606F091F706EA54F94F4083309303
:1026E000F7062093F606FF91EF919F918F914F91FE
:1026F0003F912F910F900BBE0F900FBE0F901F9028
:10270000189580913601EFCFE0914A07F0914B0781
:10271000E05CFF4F8191919120813181821B930B6D
:102720008F739070892BD1F5E0916C07F0916D0754
:10273000E05CFF4F8191919120813181821B930B4D
:102740008F739070892B39F5E0918E07F0918F0788
:10275000E05CFF4F8191919120813181821B930B2D
:102760008F739070892BA1F4E091B007F091B107BD
:10277000E05CFF4F8191919120813181821B930B0D
:102780008F739070892B09F408950E944413089563
:102790000E940413E9CF0E94C412D6CF0E941A11DE
:1027A000C3CF1F920F920FB60F920BB60F92112448
:1027B0002F933F938F939F93EF93FF932091A205C5
:1027C0003091A3058091A4059091A505281739079C
:1027D00009F1E091A405F091A505EE59FA4F208189
:1027E0008091A4059091A50501968F7390709093A8
:1027F000A5058093A4052093C600FF91EF919F91BA
:102800008F913F912F910F900BBE0F900FBE0F90A5
:102810001F9018958091C1008F7D8093C100EDCFEE
:102820001F920F920FB60F920BB60F9211242F9397
:102830003F938F939F93EF93FF9320912A063091BC
:102840002B0680912C0690912D062817390709F147
:10285000E0912C06F0912D06E651FA4F20818091EF
:102860002C0690912D0601968F73907090932D06F3
:1028700080932C062093CE00FF91EF919F918F9132
:102880003F912F910F900BBE0F900FBE0F901F9096
:1028900018958091C9008F7D8093C900EDCF1F925C
:1028A0000F920FB60F920BB60F9211242F933F93F6
:1028B0008F939F93EF93FF932091B2063091B306CD
:1028C0008091B4069091B5062817390709F1E09177
:1028D000B406F091B506EE58F94F20818091B40608
:1028E0009091B50601968F7390709093B506809382
:1028F000B4062093D600FF91EF919F918F913F9165
:102900002F910F900BBE0F900FBE0F901F90189538
:102910008091D1008F7D8093D100EDCF1F920F92D7
:102920000FB60F920BB60F9211242F933F938F93F4
:102930009F93EF93FF9320913A0730913B0780914B
:102940003C0790913D072817390709F1E0913C07B2
:10295000F0913D07E650F94F208180913C0790911E
:102960003D0701968F73907090933D0780933C07CD
:1029700020933601FF91EF919F918F913F912F917D
:102980000F900BBE0F900FBE0F901F901895809167
:1029900031018F7D80933101EDCFDF92EF92FF9275
:1029A0000F931F93CF93DF93EC017A018B01DD240A
:1029B000403081EE580780E0680780E0780721F119
:1029C000DD24D394EC89FD8981E090E008A002C069
:1029D000880F991F0A94E2F7808360E079E08DE325
:1029E00090E0A80197010E941E23215030404040F2
:1029F0005040569547953795279580E12030380708
:102A0000D0F0DD20C1F0DD24EC89FD89108260E882
:102A100074E88EE190E0A80197010E941E232150E6
:102A2000304040405040569547953795279580E176
:102A30002030380730F7E889F9893083EA89FB8943
:102A4000208319A2EE89FF89408121E030E0C9018D
:102A50000C8C02C0880F991F0A94E2F7482B408320
:102A6000EE89FF894081C9010D8C02C0880F991F32
:102A70000A94E2F7482B4083EE89FF894081C9011F
:102A80000E8C02C0880F991F0A94E2F7482B4083EE
:102A9000EE89FF8980810F8C02C0220F331F0A94B8
:102AA000E2F7209528232083DF91CF911F910F918A
:102AB000FF90EF90DF900895DC011C96ED91FC9162
:102AC0001D97E05CFF4F2191319180819181281BFE
:102AD000390B2F733070C9010895DC011C96ED91FC
:102AE000FC911D97E05CFF4F20813181E054F04064
:102AF000DF01AE5BBF4F8D919C911197281739076D
:102B000049F08D919C91E80FF91F8081282F30E0CA
:102B1000C90108952FEF3FEFC9010895DC011C960C
:102B2000ED91FC911D97E05CFF4F20813181E054D5
:102B3000F040DF01AE5BBF4F8D919C91119728173C
:102B4000390791F08D919C911197E80FF91F208121
:102B50008D919C91119701968F73907011969C9313
:102B60008E9330E0C90108952FEF3FEFC90108951A
:102B7000FC0181A1882311F411A20895A489B589CB
:102B80008C9186FFFDCF11A20895CF93DF93EC01C6
:102B9000AE85BF85AD01405C5F4FFA012081318178
:102BA0002F5F3F4F2F733070FD01EE5BFF4F808131
:102BB000918128173907D9F3FA0180819181A80FF3
:102BC000B91F6C93EE85FF85E05CFF4F3183208356
:102BD000EE89FF89208181E090E00F8C02C0880F90
:102BE000991F0A94E2F7282B208381E089A3EC89BE
:102BF000FD8980818064808381E090E0DF91CF91C6
:102C000008951F93109241071092400728EE33E079
:102C100040E050E02093420730934307409344073D
:102C20005093450762E673E070933F0760933E0759
:102C30008EE195E090934B0780934A0782E695E0FA
:102C400090934D0780934C0785EC90E090934F074D
:102C500080934E0784EC90E0909351078093500747
:102C600080EC90E0909353078093520781EC90E0C2
:102C7000909355078093540782EC90E09093570708
:102C80008093560786EC90E09093590780935807FD
:102C900014E010935A07B3E0B0935B07A7E0A0934A
:102CA0005C07F5E0F0935D07E1E0E0935E071092CA
:102CB000630710926207209364073093650740937F
:102CC000660750936707709361076093600786EA11
:102CD00095E090936D0780936C078AEE95E0909352
:102CE0006F0780936E078DEC90E09093710780934F
:102CF00070078CEC90E0909373078093720788ECD8
:102D000090E0909375078093740789EC90E090931E
:102D10007707809376078AEC90E090937907809309
:102D200078078EEC90E090937B0780937A0710935E
:102D30007C07B0937D07A0937E07F0937F07E09315
:102D4000800710928507109284072093860730939E
:102D50008707409388075093890770938307609390
:102D600082078EE296E090938F0780938E0782E72A
:102D700096E0909391078093900785ED90E0909373
:102D800093078093920784ED90E09093950780934A
:102D9000940780ED90E0909397078093960781EDDC
:102DA00090E0909399078093980782ED90E090933C
:102DB0009B0780939A0786ED90E090939D07809300
:102DC0009C0710939E07B0939F07A093A007F093D2
:102DD000A107E093A2071092A7071092A6072093DD
:102DE000A8073093A9074093AA075093AB077093A5
:102DF000A5076093A40786EB96E09093B1078093B4
:102E0000B0078AEF96E09093B3078093B20785E30B
:102E100091E09093B5078093B40784E391E0909399
:102E2000B7078093B60780E391E09093B90780934A
:102E3000B80781E391E09093BB078093BA0782E3E0
:102E400091E09093BD078093BC0786E391E0909357
:102E5000BF078093BE071093C007B093C107A0932C
:102E6000C207F093C307E093C4071F9108950E941F
:102E7000FC1B0E941A120E94ED1184E893E1892B39
:102E800029F00E9484130E94ED11FBCF0E94ED11E6
:102E90000E94ED11FBCFFC0120E030E0808188230F
:102EA00011F421E030E0C9010895FC0181E0808344
:102EB00008950E9450010895CF92DF92EF92FF9201
:102EC0000F931F93CF93DF937C016B01EA014115B0
:102ED0005105D9F000E010E0D6016D916D01D701E8
:102EE000ED91FC910190F081E02DC7011995080F3B
:102EF000191F219789F7C801DF91CF911F910F9179
:102F0000FF90EF90DF90CF90089500E010E0F3CFB6
:102F1000DC01ED91FC910190F081E02D199508956F
:102F2000EF92FF920F931F938C01DC01ED91FC91C6
:102F30000190F081E02D6DE019957C01D801ED91B3
:102F4000FC910190F081E02DC8016AE019959C0187
:102F50002E0D3F1DC9011F910F91FF90EF90089515
:102F6000AF92BF92CF92DF92EF92FF920F931F9397
:102F7000CF93DF935C017B01DB0114968D919C91D3
:102F80001597892B31F1CC24DD24C0E0D0E0D501A8
:102F9000ED91FC9100811181C701BE010E949F1D2E
:102FA000682FC501F8011995C80ED91E2196F701A1
:102FB00084819581C817D90750F3C601DF91CF915D
:102FC0001F910F91FF90EF90DF90CF90BF90AF9047
:102FD0000895CC24DD24F1CFEF92FF920F931F933D
:102FE0007C010E94B0178C01C7010E9490179C01C0
:102FF000200F311FC9011F910F91FF90EF9008958D
:103000004F925F927F928F929F92AF92BF92CF9298
:10301000DF92EF92FF920F931F93DF93CF93CDB781
:10302000DEB7A1970FB6F894DEBF0FBECDBF2C015F
:10303000742ECB01223008F460C0822E9924AA2479
:10304000BB2419A221E2C22ED12CCC0EDD1E0BC056
:10305000405DF6014083E114F1040105110501F121
:103060007E2C5F2DC801672D752FA50194010E944C
:103070001E2379018A01C801B701A50194010E94AC
:10308000FF22472D461B0894C108D1084A3004F39B
:10309000495CF6014083E114F1040105110501F7D3
:1030A000C114D10481F1D6010D900020E9F71197E8
:1030B000AC19BD09F20180819181FC01228133812B
:1030C000C201B601AD01F90119959C01C901A19692
:1030D0000FB6F894DEBF0FBECDBFCF91DF911F9129
:1030E0000F91FF90EF90DF90CF90BF90AF909F90A7
:1030F0008F907F905F904F9008953AE0832E912CAF
:10310000A12CB12C9ECF20E030E0E0CFDC012115D6
:10311000310519F00E9400180895ED91FC9101907D
:10312000F081E02D642F19950895EF92FF920F938F
:103130001F939A01E62EFF2400E010E0B801A701DA
:103140000E9486181F910F91FF90EF900895CF92E3
:10315000DF92EF92FF920F931F93CF93DF93EC01D7
:103160006A017B0121153105B9F02A30310539F4A6
:1031700077FD1BC02AE00E9400189C0103C00E943A
:1031800000189C01C901DF91CF911F910F91FF9011
:10319000EF90DF90CF900895E881F9810190F08160
:1031A000E02D642F19959C01EDCFE881F981019004
:1031B000F081E02D6DE219958C0144275527BA0165
:1031C0004C195D096E097F09CE012AE00E940018A2
:1031D0009801280F391FD6CFCF92DF92EF92FF923E
:1031E0000F931F936C017B019A010027F7FC009558
:1031F000102FB801A7010E94A7188C01C6010E94D8
:103200009017080F191FC8011F910F91FF90EF90A1
:10321000DF90CF900895CF93DF93EC016115710596
:1032200099F0DB010D900020E9F71197A61BB70B71
:10323000E881F9810280F381E02DAD0119959C01AF
:10324000C901DF91CF91089520E030E0C901DF91FD
:10325000CF9108950F931F93CF93DF93EC016115E6
:103260007105D9F0DB010D900020E9F71197A61B3D
:10327000B70BE881F9810280F381E02DAD0119954A
:103280008C01CE010E9490179801280F391FC901A7
:10329000DF91CF911F910F91089500E010E0F1CFE1
:1032A000883098F5E82FF0E0EE0FFF1FEA53F84F53
:1032B000718360838330B1F1843040F1853009F44B
:1032C0004BC0853070F48091690042955295507FD3
:1032D0005427407F54278F7C842B80936900EA9A7F
:1032E0000895863059F1873081F480916A00002476
:1032F000569547950794569547950794542F402D1A
:103300008F73842B80936A00EF9A08958130E9F1DE
:10331000823098F1809169008C7F842B80936900C2
:10332000E89A089580916900440F551F440F551F76
:10333000837F842B80936900E99A089580916A00C5
:1033400042955295507F5427407F54278F7C842B81
:1033500080936A00EE9A0895809169000024569542
:1033600047950794569547950794542F402D8F7392
:10337000842B80936900EB9A089580916A008C7F7A
:10338000842B80936A00EC9A089580916A00440F20
:10339000551F440F551F837F842B80936A00ED9A3D
:1033A0000895883088F48330B1F0843070F481302F
:1033B00001F18230E0F0E898E82FF0E0EE0FFF1F17
:1033C000EA53F84F118210820895853071F08530EC
:1033D00020F4EA98F1CFE998EFCF863021F08730DA
:1033E00059F7EF98E9CFEE98E7CFEB98E5CFEC9857
:1033F000E3CFED98E1CF1F920F920FB60F920BB66D
:103400000F9211242F933F934F935F936F937F936A
:103410008F939F93AF93BF93EF93FF938091CA07CE
:103420009091CB07892B29F0E091CA07F091CB0747
:103430001995FF91EF91BF91AF919F918F917F91DE
:103440006F915F914F913F912F910F900BBE0F9015
:103450000FBE0F901F9018951F920F920FB60F92EC
:103460000BB60F9211242F933F934F935F936F935B
:103470007F938F939F93AF93BF93EF93FF9380912D
:10348000CC079091CD07892B29F0E091CC07F091E2
:10349000CD071995FF91EF91BF91AF919F918F91BA
:1034A0007F916F915F914F913F912F910F900BBE44
:1034B0000F900FBE0F901F9018951F920F920FB68E
:1034C0000F920BB60F9211242F933F934F935F935C
:1034D0006F937F938F939F93AF93BF93EF93FF93DC
:1034E0008091CE079091CF07892B29F0E091CE07EC
:1034F000F091CF071995FF91EF91BF91AF919F91F7
:103500008F917F916F915F914F913F912F910F908C
:103510000BBE0F900FBE0F901F9018951F920F9229
:103520000FB60F920BB60F9211242F933F934F9328
:103530005F936F937F938F939F93AF93BF93EF931B
:10354000FF938091D0079091D107892B29F0E091CA
:10355000D007F091D1071995FF91EF91BF91AF91ED
:103560009F918F917F916F915F914F913F912F919B
:103570000F900BBE0F900FBE0F901F9018951F92CB
:103580000F920FB60F920BB60F9211242F933F9309
:103590004F935F936F937F938F939F93AF93BF935B
:1035A000EF93FF938091C6079091C707892B29F06D
:1035B000E091C607F091C7071995FF91EF91BF9170
:1035C000AF919F918F917F916F915F914F913F91BB
:1035D0002F910F900BBE0F900FBE0F901F9018955C
:1035E0001F920F920FB60F920BB60F9211242F93CA
:1035F0003F934F935F936F937F938F939F93AF937B
:10360000BF93EF93FF938091C8079091C907892BCF
:1036100029F0E091C807F091C9071995FF91EF9142
:10362000BF91AF919F918F917F916F915F914F91DA
:103630003F912F910F900BBE0F900FBE0F901F90D8
:1036400018951F920F920FB60F920BB60F9211247E
:103650002F933F934F935F936F937F938F939F939A
:10366000AF93BF93EF93FF938091D2079091D307CD
:10367000892B29F0E091D207F091D3071995FF919A
:10368000EF91BF91AF919F918F917F916F915F91DA
:103690004F913F912F910F900BBE0F900FBE0F9047
:1036A0001F9018951F920F920FB60F920BB60F92A4
:1036B00011242F933F934F935F936F937F938F9337
:1036C0009F93AF93BF93EF93FF938091D407909113
:1036D000D507892B29F0E091D407F091D5071995EA
:1036E000FF91EF91BF91AF919F918F917F916F91DA
:1036F0005F914F913F912F910F900BBE0F900FBE96
:103700000F901F9018951F920F920FB60F921124D1
:103710002F933F938F939F93AF93BF938091DA073B
:103720009091DB07A091DC07B091DD073091DE07B7
:103730000196A11DB11D232F2D5F2D3720F02D5790
:103740000196A11DB11D2093DE078093DA079093A7
:10375000DB07A093DC07B093DD078091D60790913B
:10376000D707A091D807B091D9070196A11DB11D27
:103770008093D6079093D707A093D807B093D90723
:10378000BF91AF919F918F913F912F910F900FBE5D
:103790000F901F9018959FB7F8942091D6073091FD
:1037A000D7074091D8075091D90786B5A89B06C086
:1037B0008F3F21F02F5F3F4F4F4F5F4F9FBF542FE1
:1037C000432F322F2227280F311D411D511D220F5B
:1037D000331F441F551F220F331F441F551FB901AC
:1037E000CA010895019739F0880F991F880F991F12
:1037F00002970197F1F70895789484B5826084BDAB
:1038000084B5816084BD85B5826085BD85B58160E4
:1038100085BDEEE6F0E0808181608083E1E8F0E044
:103820001082808182608083808181608083E0E873
:10383000F0E0808181608083E1EBF0E08081846052
:103840008083E0EBF0E0808181608083E1E9F0E05B
:10385000808182608083808181608083E0E9F0E004
:10386000808181608083E1EAF0E0808182608083F2
:10387000808181608083E0EAF0E0808181608083E4
:10388000E1E2F1E0808182608083808181608083D9
:10389000E0E2F1E0808181608083EAE7F0E080810E
:1038A0008460808380818260808380818160808366
:1038B0008081806880831092C1000895CF93DF9348
:1038C000482F50E0CA0188589E4FFC0134914E5C4D
:1038D0005E4FFA0184918823B9F090E0880F991F18
:1038E000FC01EC51FF4FA591B491FC01E250FF4F58
:1038F000C591D491662359F06230B9F09FB7F8941E
:103900008C91832B8C939FBFDF91CF9108952FB71C
:10391000F8948C91932F909589238C938881892397
:1039200088832FBFDF91CF9108952FB7F8948C91A2
:10393000932F909589238C938881832B88832FBF25
:10394000E3CF893009F45EC08A3070F08D3009F41D
:103950005FC08E30D0F0803109F46CC0813109F441
:1039600063C08F30C9F10895843009F445C08530B3
:10397000B8F08730B9F1883048F58630A1F78091EA
:10398000B0008F778093B00008958B3009F446C063
:103990008C30B0F08091A0008F7D8093A0000895BE
:1039A000823031F1833030F48130E9F684B58F779D
:1039B00084BD0895809180008F7780938000089562
:1039C00080919000877F809390000895809190006F
:1039D0008F77809390000895809120018F77809356
:1039E000200108958091B0008F7D8093B0000895EC
:1039F00084B58F7D84BD0895809180008F7D8093F4
:103A000080000895809190008F7D809390000895AC
:103A10008091A000877F8093A00008958091A000EE
:103A20008F778093A000089580912001877F8093F5
:103A300020010895809120018F7D809320010895B9
:103A4000FF920F931F93F62E482F50E0CA01825425
:103A50009E4FFC012491CA0188589E4FFC0104919D
:103A60004E5C5E4FFA011491112399F02223D1F498
:103A7000E12FF0E0EE0FFF1FE250FF4FA591B49150
:103A80009FB7F894FF2049F48C91009580238C9384
:103A90009FBF1F910F91FF9008958C91802B8C9365
:103AA0009FBFF7CF822F0E94A11CE2CF0F931F93DD
:103AB000482F50E0CA0182549E4FFC012491CA0154
:103AC00088589E4FFC0104914E5C5E4FFA011491A0
:103AD0001123D1F02223F1F4812F90E0880F991F58
:103AE000885E9E4FFC01A591B4918C9120E030E05E
:103AF000802321F4C9011F910F91089521E030E046
:103B0000C9011F910F91089520E030E0C9011F9174
:103B10000F910895822F0E94A11CDECFFC018481A9
:103B200095816817790748F40190F081E02D30976E
:103B300021F0E60FF71F8081089580E00895FC01D1
:103B4000848195816817790748F40190F081E02D10
:103B5000309721F0E60FF71F8081089580E00895E7
:103B6000FC0180819181009739F00E9445039B01FF
:103B7000AC01B901CA01089520E030E040E050E016
:103B8000B901CA0108950F931F93CF93DF93FC01EE
:103B90008B01CA0141155105D1F061157105B9F0CC
:103BA0004481558124173507B8F40197EA01C21BF7
:103BB000D30B8C179D07B8F060817181620F731F62
:103BC000C801AE010E94A803C00FD11F1882DF9167
:103BD000CF911F910F910895FB011082DF91CF913A
:103BE0001F910F910895EC01E7CFFC01DB011496C2
:103BF0002D913C91159784819581821B930B84179D
:103C0000950798F080819181009779F06D917C9172
:103C10006115710551F0840F951FA9010E949A0347
:103C20009C0180E0232B19F0089580E0089581E045
:103C30000895FC01DB012481358114968D919C91BE
:103C400015972817390710F480E00895CF0140E058
:103C500050E00E94F51D08950F931F93CF93DF93BB
:103C6000EC018B016F5F7F4F888199810E94520226
:103C7000009751F0998388831B830A8381E0DF9149
:103C8000CF911F910F91089580E0DF91CF911F9107
:103C90000F910895CF93DF93EC0188819981892B4F
:103CA00029F08A819B818617970780F4CE010E94B4
:103CB0002C1E882341F08C819D81892B39F4E88169
:103CC000F981108281E0DF91CF91089581E0DF9149
:103CD000CF910895EF92FF920F931F93CF93DF93AD
:103CE000EC018B016C817D810115110599F0411565
:103CF000510541F481E0DF91CF911F910F91FF9029
:103D0000EF9008957A01E60EF71EB7010E944A1E51
:103D1000882341F480E0DF91CF911F910F91FF90B4
:103D2000EF900895888199812C813D81820F931FA6
:103D3000B8010E949303FD82EC82DCCFEF92FF92E8
:103D40000F931F93DF93CF9300D000D0CDB7DEB792
:103D50007C01CB018E010F5F1F4FB8014AE050E09C
:103D60000E942704F80101900020E9F73197E01B39
:103D7000F10BC701B801AF010E946A1E26960FB66B
:103D8000F894DEBF0FBECDBFCF91DF911F910F9191
:103D9000FF90EF900895EF92FF920F931F93DF93A0
:103DA000CF93CDB7DEB727970FB6F894DEBF0FBE1F
:103DB000CDBF7C01CB018E010F5F1F4FB8014AE0E0
:103DC00050E00E94E903F80101900020E9F73197E3
:103DD000E01BF10BC701B801AF010E946A1E2796D4
:103DE0000FB6F894DEBF0FBECDBFCF91DF911F910C
:103DF0000F91FF90EF900895EF92FF920F931F9312
:103E0000DF93CF9300D00F92CDB7DEB77C01862F22
:103E100090E08E010F5F1F4FB8014AE050E00E9412
:103E2000E903F80101900020E9F73197E01BF10B5D
:103E3000C701B801AF010E946A1E0F900F900F904A
:103E40000F90CF91DF911F910F91FF90EF90089508
:103E5000DF93CF930F920F92CDB7DEB769831A82AB
:103E6000BE016F5F7F4F41E050E00E946A1E0F90DD
:103E70000F90CF91DF9108956115710559F0DB0125
:103E80000D900020E9F71197A61BB70BAD010E941A
:103E90006A1E089580E00895FB016081718144816C
:103EA00055810E946A1E0895CF93DF93EC018881AB
:103EB0009981009711F00E94FA01198218821D82DF
:103EC0001C821B821A82DF91CF9108950F931F935A
:103ED000182F092FFB0160817181448155810E9457
:103EE0006A1E882321F4812F902F0E94541F812F56
:103EF000902F1F910F910895EF92FF920F931F93B0
:103F0000CF93DF93EC017B018A01BA010E944A1E24
:103F1000882379F01D830C8388819981B7010E94E1
:103F20009303CE01DF91CF911F910F91FF90EF90FE
:103F30000895CE010E94541FCE01DF91CF911F91B1
:103F40000F91FF90EF900895CF93DF93EC011982CA
:103F500018821B821A821D821C821E8261157105C5
:103F600051F0DB010D900020E9F71197A61BB70B6C
:103F7000AD010E947C1FDF91CF9108950F931F9395
:103F8000182F092F6115710579F0DB010D900020C4
:103F9000E9F71197A61BB70BAD010E947C1F812F7B
:103FA000902F1F910F9108950E94541F812F902FE1
:103FB0001F910F910895EF92FF920F931F93DF933C
:103FC000CF93CDB7DEB762970FB6F894DEBF0FBEC2
:103FD000CDBF8C01CB01F8011182108213821282B5
:103FE0001582148216827E010894E11CF11CB7012F
:103FF00050E00E94E903C801B7010E94BE1F62960B
:104000000FB6F894DEBF0FBECDBFCF91DF911F91E9
:104010000F91FF90EF900895EF92FF920F931F93EF
:10402000DF93CF93CDB7DEB729970FB6F894DEBFF5
:104030000FBECDBF8C01862FF80111821082138232
:10404000128215821482168290E07E010894E11C8F
:10405000F11CB70150E00E942704C801B7010E947B
:10406000BE1F29960FB6F894DEBF0FBECDBFCF910D
:10407000DF911F910F91FF90EF900895DF93CF9301
:104080000F920F92CDB7DEB7FC011182108213821E
:10409000128215821482168269831A82BE016F5FB2
:1040A0007F4F0E94BE1F0F900F90CF91DF91089518
:1040B000BF92CF92DF92EF92FF920F931F93CF9315
:1040C000DF93082FB92E6B017A01E9012417350718
:1040D00010F4EA017901802F9B2D6FEF72E00E94AE
:1040E000A41FD60114968D919C9115978E159F054E
:1040F000C8F08C179D0710F1D601ED91FC91119736
:10410000EC0FFD1F108110826D917C916E0D7F1D53
:10411000802F9B2D0E94BE1FD601ED91FC91EC0FCC
:10412000FD1F1083802F9B2DDF91CF911F910F9149
:10413000FF90EF90DF90CF90BF900895EC01DCCF1F
:104140000F931F938C01FB01248135810E9458201D
:10415000C8011F910F910895CF93DF93EC01FB01EC
:104160008617970749F0608171816115710541F0EB
:10417000448155810E947C1FCE01DF91CF9108952B
:104180000E94541FCE01DF91CF910895FC0111824E
:104190001082138212821582148216820E94AC2031
:1041A0000895FC01118210821382128215821482FA
:1041B00016820E94AC200895FC01808191810E94AA
:1041C000FA010895FC01808191810E94FA0108950D
:1041D0005058BB27AA270ED071C162D130F067D1E9
:1041E00020F031F49F3F11F41EF457C10EF4E09516
:1041F000E7FB4DC1E92F73D180F3BA17620773074C
:104200008407950718F071F49EF58BC10EF4E095C4
:104210000B2EBA2FA02D0B01B90190010C01CA0180
:10422000A0011124FF27591B99F0593F50F4503E2B
:1042300068F11A16F040A22F232F342F4427585F1D
:10424000F3CF469537952795A795F0405395C9F735
:104250007EF41F16BA0B620B730B840BBAF09150ED
:10426000A1F0FF0FBB1F661F771F881FC2F70EC08C
:10427000BA0F621F731F841F48F48795779567955F
:10428000B795F7959E3F08F0B3CF9395880F08F048
:104290009927EE0F9795879508950CD00FC107D1F8
:1042A00040F0FED030F021F45F3F19F0F0C0511122
:1042B00039C1F3C014D198F39923C9F35523B1F34D
:1042C000951B550BBB27AA2762177307840738F085
:1042D0009F5F5F4F220F331F441FAA1FA9F333D0E4
:1042E0000E2E3AF0E0E830D091505040E695001C98
:1042F000CAF729D0FE2F27D0660F771F881FBB1F54
:10430000261737074807AB07B0E809F0BB0B802D2D
:10431000BF01FF2793585F4F2AF09E3F510568F079
:10432000B6C000C15F3FECF3983EDCF3869577950D
:104330006795B795F7959F5FC9F7880F911D96957B
:10434000879597F90895E1E0660F771F881FBB1FD7
:10435000621773078407BA0720F0621B730B840B84
:10436000BA0BEE1F88F7E095089504D06894B11158
:10437000D9C00895BCD088F09F5790F0B92F9927E5
:10438000B751A0F0D1F0660F771F881F991F1AF060
:10439000BA95C9F712C0B13081F0C3D0B1E0089529
:1043A000C0C0672F782F8827B85F39F0B93FCCF3AA
:1043B000869577956795B395D9F73EF49095809556
:1043C000709561957F4F8F4F9F4F0895E89409C076
:1043D00097FB3EF490958095709561957F4F8F4F38
:1043E0009F4F9923A9F0F92F96E9BB279395F6954E
:1043F000879577956795B795F111F8CFFAF4BB0FCC
:1044000011F460FF1BC06F5F7F4F8F4F9F4F16C02F
:10441000882311F096E911C0772321F09EE8872FB9
:10442000762F05C0662371F096E8862F70E060E075
:104430002AF09A95660F771F881FDAF7880F9695EE
:10444000879597F90895990F0008550FAA0BE0E892
:10445000FEEF16161706E807F907C0F01216130646
:10446000E407F50798F0621B730B840B950B39F486
:104470000A2661F0232B242B252B21F408950A26EC
:1044800009F4A140A6958FEF811D811D089597F92C
:104490009F6780E870E060E008959FEF80EC0895EA
:1044A00000240A9416161706180609060895002413
:1044B0000A9412161306140605060895092E03948D
:1044C000000C11F4882352F0BB0F40F4BF2B11F401
:1044D00060FF04C06F5F7F4F8F4F9F4F089557FD60
:1044E0009058440F551F59F05F3F71F04795880F62
:1044F00097FB991F61F09F3F79F0879508951216F9
:1045000013061406551FF2CF4695F1DF08C01616A4
:1045100017061806991FF1CF869571056105089455
:104520000895E894BB2766277727CB0197F908956C
:104530008ADF08F48FEF08950BD0C0CFB1DF28F0E9
:10454000B6DF18F0952309F0A2CFA7CF1124EACF48
:10455000C6DFA0F3959FD1F3950F50E0551F629FE2
:10456000F001729FBB27F00DB11D639FAA27F00DCC
:10457000B11DAA1F649F6627B00DA11D661F829FF3
:104580002227B00DA11D621F739FB00DA11D621FD8
:10459000839FA00D611D221F749F3327A00D611DF5
:1045A000231F849F600D211D822F762F6A2F1124D7
:1045B0009F5750408AF0E1F088234AF0EE0FFF1F2A
:1045C000BB1F661F771F881F91505040A9F79E3F61
:1045D000510570F05CCFA6CF5F3FECF3983EDCF363
:1045E000869577956795B795F795E7959F5FC1F79E
:1045F000FE2B880F911D9695879597F90895629FD8
:10460000D001739FF001829FE00DF11D649FE00DCA
:10461000F11D929FF00D839FF00D749FF00D659F2B
:10462000F00D9927729FB00DE11DF91F639FB00D2A
:10463000E11DF91FBD01CF0111240895A1E21A2E39
:10464000AA1BBB1BFD010DC0AA1FBB1FEE1FFF1F36
:10465000A217B307E407F50720F0A21BB30BE40B86
:10466000F50B661F771F881F991F1A9469F76095CD
:104670007095809590959B01AC01BD01CF01089587
:10468000AA1BBB1B51E107C0AA1FBB1FA617B70778
:1046900010F0A61BB70B881F991F5A95A9F7809594
:1046A0009095BC01CD010895EE0FFF1F0590F49188
:1046B000E02D19942F923F924F925F926F927F92CA
:1046C0008F929F92AF92BF92CF92DF92EF92FF9222
:1046D0000F931F93CF93DF93CDB7DEB7CA1BDB0BCE
:1046E0000FB6F894DEBF0FBECDBF19942A88398863
:1046F00048885F846E847D848C849B84AA84B9847A
:10470000C884DF80EE80FD800C811B81AA81B98185
:10471000CE0FD11D0FB6F894DEBF0FBECDBFED0199
:10472000089512E0C8E0D2E004C0FE010E945623C2
:0C4730002296CA30D107C9F7F894FFCFD9
:10473C0000415300253032580030300030003D002D
:10474C00443D0043503D0053503D0050004D55003A
:10475C0053796E633A2000202D3E2053796E6346C8
:10476C006163743A20002C20436C6F636B3A200019
:10477C002C20546F6C3A20002C20506174744C65C2
:10478C006E3A200020002C2050756C73653A200086
:10479C002C20002C206D53746172743A20005369E4
:1047AC00676E616C3A20002E2000205B005D00508B
:1047BC0061747465726E3A20002050003A20002A11
:1047CC005B002C00003B0069740069720069730087
:1047DC006970004954506172616D733A2000200079
:1047EC0020557365206F6E65206F66200056203350
:1047FC002E307261772D6F75742D616C706861202D
:10480C005349474E414C6475696E6F202D20636F80
:10481C006D70696C6564206174204D61792020365F
:10482C0020323031352032333A30343A30330000D4
:10483C002000E3070000063CA40100000000370D37
:10484C0080068106000A00000000370D80068106F4
:10485C003E0800000000E805800681068206000084
:10486C000000000002000000F60E01000000FF0333
:10487C00E2FFFF0001000000000000000200000049
:10488C00F53002000000FCF8EEF40100000000001E
:0E489C000000C5155C175C158E156D15B8155E
:00000001FF
